{
	"contracts/crowdfund.sol": {
		"DecentralizedCrowdfund": {
			"abi": [
				{
					"inputs": [
						{
							"internalType": "uint256",
							"name": "_target",
							"type": "uint256"
						},
						{
							"internalType": "uint256",
							"name": "_durationSeconds",
							"type": "uint256"
						}
					],
					"stateMutability": "nonpayable",
					"type": "constructor"
				},
				{
					"anonymous": false,
					"inputs": [
						{
							"indexed": true,
							"internalType": "address",
							"name": "contributor",
							"type": "address"
						},
						{
							"indexed": false,
							"internalType": "uint256",
							"name": "amount",
							"type": "uint256"
						}
					],
					"name": "ContributionReceived",
					"type": "event"
				},
				{
					"anonymous": false,
					"inputs": [
						{
							"indexed": false,
							"internalType": "uint256",
							"name": "timestamp",
							"type": "uint256"
						}
					],
					"name": "DeadlinePassed",
					"type": "event"
				},
				{
					"anonymous": false,
					"inputs": [
						{
							"indexed": false,
							"internalType": "uint256",
							"name": "totalAmount",
							"type": "uint256"
						}
					],
					"name": "GoalReached",
					"type": "event"
				},
				{
					"anonymous": false,
					"inputs": [
						{
							"indexed": true,
							"internalType": "address",
							"name": "contributor",
							"type": "address"
						},
						{
							"indexed": false,
							"internalType": "uint256",
							"name": "amount",
							"type": "uint256"
						}
					],
					"name": "RefundIssued",
					"type": "event"
				},
				{
					"anonymous": false,
					"inputs": [
						{
							"indexed": true,
							"internalType": "uint256",
							"name": "requestId",
							"type": "uint256"
						},
						{
							"indexed": false,
							"internalType": "string",
							"name": "description",
							"type": "string"
						},
						{
							"indexed": false,
							"internalType": "address",
							"name": "recipient",
							"type": "address"
						},
						{
							"indexed": false,
							"internalType": "uint256",
							"name": "value",
							"type": "uint256"
						}
					],
					"name": "RequestCreated",
					"type": "event"
				},
				{
					"anonymous": false,
					"inputs": [
						{
							"indexed": true,
							"internalType": "uint256",
							"name": "requestId",
							"type": "uint256"
						},
						{
							"indexed": false,
							"internalType": "address",
							"name": "recipient",
							"type": "address"
						},
						{
							"indexed": false,
							"internalType": "uint256",
							"name": "value",
							"type": "uint256"
						}
					],
					"name": "RequestFinalized",
					"type": "event"
				},
				{
					"anonymous": false,
					"inputs": [
						{
							"indexed": true,
							"internalType": "address",
							"name": "voter",
							"type": "address"
						},
						{
							"indexed": true,
							"internalType": "uint256",
							"name": "requestId",
							"type": "uint256"
						}
					],
					"name": "Voted",
					"type": "event"
				},
				{
					"stateMutability": "payable",
					"type": "fallback"
				},
				{
					"inputs": [],
					"name": "contribute",
					"outputs": [],
					"stateMutability": "payable",
					"type": "function"
				},
				{
					"inputs": [
						{
							"internalType": "address",
							"name": "",
							"type": "address"
						}
					],
					"name": "contributions",
					"outputs": [
						{
							"internalType": "uint256",
							"name": "",
							"type": "uint256"
						}
					],
					"stateMutability": "view",
					"type": "function"
				},
				{
					"inputs": [],
					"name": "contributorsCount",
					"outputs": [
						{
							"internalType": "uint256",
							"name": "",
							"type": "uint256"
						}
					],
					"stateMutability": "view",
					"type": "function"
				},
				{
					"inputs": [
						{
							"internalType": "string",
							"name": "_description",
							"type": "string"
						},
						{
							"internalType": "address payable",
							"name": "_recipient",
							"type": "address"
						},
						{
							"internalType": "uint256",
							"name": "_value",
							"type": "uint256"
						}
					],
					"name": "createRequest",
					"outputs": [],
					"stateMutability": "nonpayable",
					"type": "function"
				},
				{
					"inputs": [],
					"name": "deadline",
					"outputs": [
						{
							"internalType": "uint256",
							"name": "",
							"type": "uint256"
						}
					],
					"stateMutability": "view",
					"type": "function"
				},
				{
					"inputs": [
						{
							"internalType": "uint256",
							"name": "requestId",
							"type": "uint256"
						}
					],
					"name": "finalizeRequest",
					"outputs": [],
					"stateMutability": "nonpayable",
					"type": "function"
				},
				{
					"inputs": [
						{
							"internalType": "address",
							"name": "contributor",
							"type": "address"
						}
					],
					"name": "getContributionOf",
					"outputs": [
						{
							"internalType": "uint256",
							"name": "",
							"type": "uint256"
						}
					],
					"stateMutability": "view",
					"type": "function"
				},
				{
					"inputs": [
						{
							"internalType": "uint256",
							"name": "requestId",
							"type": "uint256"
						}
					],
					"name": "getRequest",
					"outputs": [
						{
							"internalType": "string",
							"name": "description",
							"type": "string"
						},
						{
							"internalType": "address",
							"name": "recipient",
							"type": "address"
						},
						{
							"internalType": "uint256",
							"name": "value",
							"type": "uint256"
						},
						{
							"internalType": "bool",
							"name": "completed",
							"type": "bool"
						},
						{
							"internalType": "uint256",
							"name": "voteCount",
							"type": "uint256"
						}
					],
					"stateMutability": "view",
					"type": "function"
				},
				{
					"inputs": [],
					"name": "getRequestsCount",
					"outputs": [
						{
							"internalType": "uint256",
							"name": "",
							"type": "uint256"
						}
					],
					"stateMutability": "view",
					"type": "function"
				},
				{
					"inputs": [],
					"name": "getSummary",
					"outputs": [
						{
							"internalType": "address",
							"name": "_manager",
							"type": "address"
						},
						{
							"internalType": "uint256",
							"name": "_target",
							"type": "uint256"
						},
						{
							"internalType": "uint256",
							"name": "_deadline",
							"type": "uint256"
						},
						{
							"internalType": "uint256",
							"name": "_raisedAmount",
							"type": "uint256"
						},
						{
							"internalType": "uint256",
							"name": "_contributorsCount",
							"type": "uint256"
						},
						{
							"internalType": "bool",
							"name": "_goalReached",
							"type": "bool"
						},
						{
							"internalType": "uint256",
							"name": "_requestsCount",
							"type": "uint256"
						},
						{
							"internalType": "uint256",
							"name": "_contractBalance",
							"type": "uint256"
						}
					],
					"stateMutability": "view",
					"type": "function"
				},
				{
					"inputs": [],
					"name": "goalReached",
					"outputs": [
						{
							"internalType": "bool",
							"name": "",
							"type": "bool"
						}
					],
					"stateMutability": "view",
					"type": "function"
				},
				{
					"inputs": [
						{
							"internalType": "uint256",
							"name": "requestId",
							"type": "uint256"
						},
						{
							"internalType": "address",
							"name": "voter",
							"type": "address"
						}
					],
					"name": "hasVoted",
					"outputs": [
						{
							"internalType": "bool",
							"name": "",
							"type": "bool"
						}
					],
					"stateMutability": "view",
					"type": "function"
				},
				{
					"inputs": [
						{
							"internalType": "address",
							"name": "",
							"type": "address"
						}
					],
					"name": "isContributor",
					"outputs": [
						{
							"internalType": "bool",
							"name": "",
							"type": "bool"
						}
					],
					"stateMutability": "view",
					"type": "function"
				},
				{
					"inputs": [],
					"name": "manager",
					"outputs": [
						{
							"internalType": "address",
							"name": "",
							"type": "address"
						}
					],
					"stateMutability": "view",
					"type": "function"
				},
				{
					"inputs": [],
					"name": "raisedAmount",
					"outputs": [
						{
							"internalType": "uint256",
							"name": "",
							"type": "uint256"
						}
					],
					"stateMutability": "view",
					"type": "function"
				},
				{
					"inputs": [],
					"name": "refund",
					"outputs": [],
					"stateMutability": "nonpayable",
					"type": "function"
				},
				{
					"inputs": [],
					"name": "target",
					"outputs": [
						{
							"internalType": "uint256",
							"name": "",
							"type": "uint256"
						}
					],
					"stateMutability": "view",
					"type": "function"
				},
				{
					"inputs": [
						{
							"internalType": "uint256",
							"name": "requestId",
							"type": "uint256"
						}
					],
					"name": "voteRequest",
					"outputs": [],
					"stateMutability": "nonpayable",
					"type": "function"
				},
				{
					"stateMutability": "payable",
					"type": "receive"
				}
			],
			"devdoc": {
				"author": "@notice Contributors fund a campaign. Manager creates spending requests that contributors vote on. Refunds allowed if target not met by deadline.",
				"kind": "dev",
				"methods": {
					"constructor": {
						"params": {
							"_durationSeconds": "duration (seconds) from now until deadline",
							"_target": "funding goal in wei"
						}
					},
					"createRequest(string,address,uint256)": {
						"params": {
							"_description": "description of why funds are needed",
							"_recipient": "address to receive funds if request finalized",
							"_value": "amount in wei requested"
						}
					},
					"finalizeRequest(uint256)": {
						"params": {
							"requestId": "index of the request"
						}
					},
					"voteRequest(uint256)": {
						"params": {
							"requestId": "index of the request"
						}
					}
				},
				"title": "Decentralized Crowdfunding with Contributor Voting on Disbursements",
				"version": 1
			},
			"evm": {
				"assembly": "    /* \"contracts/crowdfund.sol\":305:10773  contract DecentralizedCrowdfund {... */\n  mstore(0x40, 0x80)\n    /* \"contracts/crowdfund.sol\":1430:1431  1 */\n  0x01\n    /* \"contracts/crowdfund.sol\":1406:1431  uint private unlocked = 1 */\n  0x09\n  sstore\n    /* \"contracts/crowdfund.sol\":2651:2905  constructor(uint _target, uint _durationSeconds) {... */\n  callvalue\n  dup1\n  iszero\n  tag_1\n  jumpi\n  revert(0x00, 0x00)\ntag_1:\n  pop\n  mload(0x40)\n  sub(codesize, bytecodeSize)\n  dup1\n  bytecodeSize\n  dup4\n  codecopy\n  dup2\n  dup2\n  add\n  0x40\n  mstore\n  dup2\n  add\n  swap1\n  tag_2\n  swap2\n  swap1\n  tag_3\n  jump\t// in\ntag_2:\n    /* \"contracts/crowdfund.sol\":2729:2730  0 */\n  0x00\n    /* \"contracts/crowdfund.sol\":2719:2726  _target */\n  dup3\n    /* \"contracts/crowdfund.sol\":2719:2730  _target > 0 */\n  gt\n    /* \"contracts/crowdfund.sol\":2711:2753  require(_target > 0, \"Target must be > 0\") */\n  tag_6\n  jumpi\n  mload(0x40)\n  0x08c379a000000000000000000000000000000000000000000000000000000000\n  dup2\n  mstore\n  0x04\n  add\n  tag_7\n  swap1\n  tag_8\n  jump\t// in\ntag_7:\n  mload(0x40)\n  dup1\n  swap2\n  sub\n  swap1\n  revert\ntag_6:\n    /* \"contracts/crowdfund.sol\":2774:2784  msg.sender */\n  caller\n    /* \"contracts/crowdfund.sol\":2764:2771  manager */\n  0x00\n  0x00\n    /* \"contracts/crowdfund.sol\":2764:2784  manager = msg.sender */\n  0x0100\n  exp\n  dup2\n  sload\n  dup2\n  0xffffffffffffffffffffffffffffffffffffffff\n  mul\n  not\n  and\n  swap1\n  dup4\n  0xffffffffffffffffffffffffffffffffffffffff\n  and\n  mul\n  or\n  swap1\n  sstore\n  pop\n    /* \"contracts/crowdfund.sol\":2804:2811  _target */\n  dup2\n    /* \"contracts/crowdfund.sol\":2795:2801  target */\n  0x01\n    /* \"contracts/crowdfund.sol\":2795:2811  target = _target */\n  dup2\n  swap1\n  sstore\n  pop\n    /* \"contracts/crowdfund.sol\":2851:2867  _durationSeconds */\n  dup1\n    /* \"contracts/crowdfund.sol\":2833:2848  block.timestamp */\n  timestamp\n    /* \"contracts/crowdfund.sol\":2833:2867  block.timestamp + _durationSeconds */\n  tag_9\n  swap2\n  swap1\n  tag_10\n  jump\t// in\ntag_9:\n    /* \"contracts/crowdfund.sol\":2822:2830  deadline */\n  0x02\n    /* \"contracts/crowdfund.sol\":2822:2867  deadline = block.timestamp + _durationSeconds */\n  dup2\n  swap1\n  sstore\n  pop\n    /* \"contracts/crowdfund.sol\":2892:2897  false */\n  0x00\n    /* \"contracts/crowdfund.sol\":2878:2889  goalReached */\n  0x04\n  0x00\n    /* \"contracts/crowdfund.sol\":2878:2897  goalReached = false */\n  0x0100\n  exp\n  dup2\n  sload\n  dup2\n  0xff\n  mul\n  not\n  and\n  swap1\n  dup4\n  iszero\n  iszero\n  mul\n  or\n  swap1\n  sstore\n  pop\n    /* \"contracts/crowdfund.sol\":2651:2905  constructor(uint _target, uint _durationSeconds) {... */\n  pop\n  pop\n    /* \"contracts/crowdfund.sol\":305:10773  contract DecentralizedCrowdfund {... */\n  jump(tag_11)\n    /* \"#utility.yul\":88:205   */\ntag_13:\n    /* \"#utility.yul\":197:198   */\n  0x00\n    /* \"#utility.yul\":194:195   */\n  0x00\n    /* \"#utility.yul\":187:199   */\n  revert\n    /* \"#utility.yul\":334:411   */\ntag_15:\n    /* \"#utility.yul\":371:378   */\n  0x00\n    /* \"#utility.yul\":400:405   */\n  dup2\n    /* \"#utility.yul\":389:405   */\n  swap1\n  pop\n    /* \"#utility.yul\":334:411   */\n  swap2\n  swap1\n  pop\n  jump\t// out\n    /* \"#utility.yul\":417:539   */\ntag_16:\n    /* \"#utility.yul\":490:514   */\n  tag_28\n    /* \"#utility.yul\":508:513   */\n  dup2\n    /* \"#utility.yul\":490:514   */\n  tag_15\n  jump\t// in\ntag_28:\n    /* \"#utility.yul\":483:488   */\n  dup2\n    /* \"#utility.yul\":480:515   */\n  eq\n    /* \"#utility.yul\":470:533   */\n  tag_29\n  jumpi\n    /* \"#utility.yul\":529:530   */\n  0x00\n    /* \"#utility.yul\":526:527   */\n  0x00\n    /* \"#utility.yul\":519:531   */\n  revert\n    /* \"#utility.yul\":470:533   */\ntag_29:\n    /* \"#utility.yul\":417:539   */\n  pop\n  jump\t// out\n    /* \"#utility.yul\":545:688   */\ntag_17:\n    /* \"#utility.yul\":602:607   */\n  0x00\n    /* \"#utility.yul\":633:639   */\n  dup2\n    /* \"#utility.yul\":627:640   */\n  mload\n    /* \"#utility.yul\":618:640   */\n  swap1\n  pop\n    /* \"#utility.yul\":649:682   */\n  tag_31\n    /* \"#utility.yul\":676:681   */\n  dup2\n    /* \"#utility.yul\":649:682   */\n  tag_16\n  jump\t// in\ntag_31:\n    /* \"#utility.yul\":545:688   */\n  swap3\n  swap2\n  pop\n  pop\n  jump\t// out\n    /* \"#utility.yul\":694:1201   */\ntag_3:\n    /* \"#utility.yul\":773:779   */\n  0x00\n    /* \"#utility.yul\":781:787   */\n  0x00\n    /* \"#utility.yul\":830:832   */\n  0x40\n    /* \"#utility.yul\":818:827   */\n  dup4\n    /* \"#utility.yul\":809:816   */\n  dup6\n    /* \"#utility.yul\":805:828   */\n  sub\n    /* \"#utility.yul\":801:833   */\n  slt\n    /* \"#utility.yul\":798:917   */\n  iszero\n  tag_33\n  jumpi\n    /* \"#utility.yul\":836:915   */\n  tag_34\n  tag_13\n  jump\t// in\ntag_34:\n    /* \"#utility.yul\":798:917   */\ntag_33:\n    /* \"#utility.yul\":956:957   */\n  0x00\n    /* \"#utility.yul\":981:1045   */\n  tag_35\n    /* \"#utility.yul\":1037:1044   */\n  dup6\n    /* \"#utility.yul\":1028:1034   */\n  dup3\n    /* \"#utility.yul\":1017:1026   */\n  dup7\n    /* \"#utility.yul\":1013:1035   */\n  add\n    /* \"#utility.yul\":981:1045   */\n  tag_17\n  jump\t// in\ntag_35:\n    /* \"#utility.yul\":971:1045   */\n  swap3\n  pop\n    /* \"#utility.yul\":927:1055   */\n  pop\n    /* \"#utility.yul\":1094:1096   */\n  0x20\n    /* \"#utility.yul\":1120:1184   */\n  tag_36\n    /* \"#utility.yul\":1176:1183   */\n  dup6\n    /* \"#utility.yul\":1167:1173   */\n  dup3\n    /* \"#utility.yul\":1156:1165   */\n  dup7\n    /* \"#utility.yul\":1152:1174   */\n  add\n    /* \"#utility.yul\":1120:1184   */\n  tag_17\n  jump\t// in\ntag_36:\n    /* \"#utility.yul\":1110:1184   */\n  swap2\n  pop\n    /* \"#utility.yul\":1065:1194   */\n  pop\n    /* \"#utility.yul\":694:1201   */\n  swap3\n  pop\n  swap3\n  swap1\n  pop\n  jump\t// out\n    /* \"#utility.yul\":1207:1376   */\ntag_18:\n    /* \"#utility.yul\":1291:1302   */\n  0x00\n    /* \"#utility.yul\":1325:1331   */\n  dup3\n    /* \"#utility.yul\":1320:1323   */\n  dup3\n    /* \"#utility.yul\":1313:1332   */\n  mstore\n    /* \"#utility.yul\":1365:1369   */\n  0x20\n    /* \"#utility.yul\":1360:1363   */\n  dup3\n    /* \"#utility.yul\":1356:1370   */\n  add\n    /* \"#utility.yul\":1341:1370   */\n  swap1\n  pop\n    /* \"#utility.yul\":1207:1376   */\n  swap3\n  swap2\n  pop\n  pop\n  jump\t// out\n    /* \"#utility.yul\":1382:1550   */\ntag_19:\n    /* \"#utility.yul\":1522:1542   */\n  0x546172676574206d757374206265203e20300000000000000000000000000000\n    /* \"#utility.yul\":1518:1519   */\n  0x00\n    /* \"#utility.yul\":1510:1516   */\n  dup3\n    /* \"#utility.yul\":1506:1520   */\n  add\n    /* \"#utility.yul\":1499:1543   */\n  mstore\n    /* \"#utility.yul\":1382:1550   */\n  pop\n  jump\t// out\n    /* \"#utility.yul\":1556:1922   */\ntag_20:\n    /* \"#utility.yul\":1698:1701   */\n  0x00\n    /* \"#utility.yul\":1719:1786   */\n  tag_40\n    /* \"#utility.yul\":1783:1785   */\n  0x12\n    /* \"#utility.yul\":1778:1781   */\n  dup4\n    /* \"#utility.yul\":1719:1786   */\n  tag_18\n  jump\t// in\ntag_40:\n    /* \"#utility.yul\":1712:1786   */\n  swap2\n  pop\n    /* \"#utility.yul\":1795:1888   */\n  tag_41\n    /* \"#utility.yul\":1884:1887   */\n  dup3\n    /* \"#utility.yul\":1795:1888   */\n  tag_19\n  jump\t// in\ntag_41:\n    /* \"#utility.yul\":1913:1915   */\n  0x20\n    /* \"#utility.yul\":1908:1911   */\n  dup3\n    /* \"#utility.yul\":1904:1916   */\n  add\n    /* \"#utility.yul\":1897:1916   */\n  swap1\n  pop\n    /* \"#utility.yul\":1556:1922   */\n  swap2\n  swap1\n  pop\n  jump\t// out\n    /* \"#utility.yul\":1928:2347   */\ntag_8:\n    /* \"#utility.yul\":2094:2098   */\n  0x00\n    /* \"#utility.yul\":2132:2134   */\n  0x20\n    /* \"#utility.yul\":2121:2130   */\n  dup3\n    /* \"#utility.yul\":2117:2135   */\n  add\n    /* \"#utility.yul\":2109:2135   */\n  swap1\n  pop\n    /* \"#utility.yul\":2181:2190   */\n  dup2\n    /* \"#utility.yul\":2175:2179   */\n  dup2\n    /* \"#utility.yul\":2171:2191   */\n  sub\n    /* \"#utility.yul\":2167:2168   */\n  0x00\n    /* \"#utility.yul\":2156:2165   */\n  dup4\n    /* \"#utility.yul\":2152:2169   */\n  add\n    /* \"#utility.yul\":2145:2192   */\n  mstore\n    /* \"#utility.yul\":2209:2340   */\n  tag_43\n    /* \"#utility.yul\":2335:2339   */\n  dup2\n    /* \"#utility.yul\":2209:2340   */\n  tag_20\n  jump\t// in\ntag_43:\n    /* \"#utility.yul\":2201:2340   */\n  swap1\n  pop\n    /* \"#utility.yul\":1928:2347   */\n  swap2\n  swap1\n  pop\n  jump\t// out\n    /* \"#utility.yul\":2353:2533   */\ntag_21:\n    /* \"#utility.yul\":2401:2478   */\n  0x4e487b7100000000000000000000000000000000000000000000000000000000\n    /* \"#utility.yul\":2398:2399   */\n  0x00\n    /* \"#utility.yul\":2391:2479   */\n  mstore\n    /* \"#utility.yul\":2498:2502   */\n  0x11\n    /* \"#utility.yul\":2495:2496   */\n  0x04\n    /* \"#utility.yul\":2488:2503   */\n  mstore\n    /* \"#utility.yul\":2522:2526   */\n  0x24\n    /* \"#utility.yul\":2519:2520   */\n  0x00\n    /* \"#utility.yul\":2512:2527   */\n  revert\n    /* \"#utility.yul\":2539:2730   */\ntag_10:\n    /* \"#utility.yul\":2579:2582   */\n  0x00\n    /* \"#utility.yul\":2598:2618   */\n  tag_46\n    /* \"#utility.yul\":2616:2617   */\n  dup3\n    /* \"#utility.yul\":2598:2618   */\n  tag_15\n  jump\t// in\ntag_46:\n    /* \"#utility.yul\":2593:2618   */\n  swap2\n  pop\n    /* \"#utility.yul\":2632:2652   */\n  tag_47\n    /* \"#utility.yul\":2650:2651   */\n  dup4\n    /* \"#utility.yul\":2632:2652   */\n  tag_15\n  jump\t// in\ntag_47:\n    /* \"#utility.yul\":2627:2652   */\n  swap3\n  pop\n    /* \"#utility.yul\":2675:2676   */\n  dup3\n    /* \"#utility.yul\":2672:2673   */\n  dup3\n    /* \"#utility.yul\":2668:2677   */\n  add\n    /* \"#utility.yul\":2661:2677   */\n  swap1\n  pop\n    /* \"#utility.yul\":2696:2699   */\n  dup1\n    /* \"#utility.yul\":2693:2694   */\n  dup3\n    /* \"#utility.yul\":2690:2700   */\n  gt\n    /* \"#utility.yul\":2687:2723   */\n  iszero\n  tag_48\n  jumpi\n    /* \"#utility.yul\":2703:2721   */\n  tag_49\n  tag_21\n  jump\t// in\ntag_49:\n    /* \"#utility.yul\":2687:2723   */\ntag_48:\n    /* \"#utility.yul\":2539:2730   */\n  swap3\n  swap2\n  pop\n  pop\n  jump\t// out\n    /* \"contracts/crowdfund.sol\":305:10773  contract DecentralizedCrowdfund {... */\ntag_11:\n  dataSize(sub_0)\n  dup1\n  dataOffset(sub_0)\n  0x00\n  codecopy\n  0x00\n  return\nstop\n\nsub_0: assembly {\n        /* \"contracts/crowdfund.sol\":305:10773  contract DecentralizedCrowdfund {... */\n      mstore(0x40, 0x80)\n      jumpi(tag_1, lt(calldatasize, 0x04))\n      shr(0xe0, calldataload(0x00))\n      dup1\n      0x4cb6f4a5\n      gt\n      tag_21\n      jumpi\n      dup1\n      0xc58343ef\n      gt\n      tag_22\n      jumpi\n      dup1\n      0xc58343ef\n      eq\n      tag_16\n      jumpi\n      dup1\n      0xc59ee1dc\n      eq\n      tag_17\n      jumpi\n      dup1\n      0xd4b83992\n      eq\n      tag_18\n      jumpi\n      dup1\n      0xd7bb99ba\n      eq\n      tag_19\n      jumpi\n      dup1\n      0xe14ed045\n      eq\n      tag_20\n      jumpi\n      jump(tag_2)\n    tag_22:\n      dup1\n      0x4cb6f4a5\n      eq\n      tag_12\n      jumpi\n      dup1\n      0x590e1ae3\n      eq\n      tag_13\n      jumpi\n      dup1\n      0x7569b3d7\n      eq\n      tag_14\n      jumpi\n      dup1\n      0x7d3d6522\n      eq\n      tag_15\n      jumpi\n      jump(tag_2)\n    tag_21:\n      dup1\n      0x3410452a\n      gt\n      tag_23\n      jumpi\n      dup1\n      0x3410452a\n      eq\n      tag_7\n      jumpi\n      dup1\n      0x4051ddac\n      eq\n      tag_8\n      jumpi\n      dup1\n      0x42e94c90\n      eq\n      tag_9\n      jumpi\n      dup1\n      0x43859632\n      eq\n      tag_10\n      jumpi\n      dup1\n      0x481c6a75\n      eq\n      tag_11\n      jumpi\n      jump(tag_2)\n    tag_23:\n      dup1\n      0x03441006\n      eq\n      tag_3\n      jumpi\n      dup1\n      0x1b16bb5c\n      eq\n      tag_4\n      jumpi\n      dup1\n      0x1d0d35f5\n      eq\n      tag_5\n      jumpi\n      dup1\n      0x29dcb0cf\n      eq\n      tag_6\n      jumpi\n      jump(tag_2)\n    tag_1:\n      jumpi(tag_2, calldatasize)\n        /* \"contracts/crowdfund.sol\":9918:9926  deadline */\n      sload(0x02)\n        /* \"contracts/crowdfund.sol\":9900:9915  block.timestamp */\n      timestamp\n        /* \"contracts/crowdfund.sol\":9900:9926  block.timestamp < deadline */\n      lt\n        /* \"contracts/crowdfund.sol\":9892:9982  require(block.timestamp < deadline, \"Deadline passed; cannot accept direct contributions\") */\n      tag_26\n      jumpi\n      mload(0x40)\n      0x08c379a000000000000000000000000000000000000000000000000000000000\n      dup2\n      mstore\n      0x04\n      add\n      tag_27\n      swap1\n      tag_28\n      jump\t// in\n    tag_27:\n      mload(0x40)\n      dup1\n      swap2\n      sub\n      swap1\n      revert\n    tag_26:\n        /* \"contracts/crowdfund.sol\":9998:10011  isContributor */\n      0x08\n        /* \"contracts/crowdfund.sol\":9998:10023  isContributor[msg.sender] */\n      0x00\n        /* \"contracts/crowdfund.sol\":10012:10022  msg.sender */\n      caller\n        /* \"contracts/crowdfund.sol\":9998:10023  isContributor[msg.sender] */\n      0xffffffffffffffffffffffffffffffffffffffff\n      and\n      0xffffffffffffffffffffffffffffffffffffffff\n      and\n      dup2\n      mstore\n      0x20\n      add\n      swap1\n      dup2\n      mstore\n      0x20\n      add\n      0x00\n      keccak256\n      0x00\n      swap1\n      sload\n      swap1\n      0x0100\n      exp\n      swap1\n      div\n      0xff\n      and\n        /* \"contracts/crowdfund.sol\":9993:10121  if (!isContributor[msg.sender]) {... */\n      tag_29\n      jumpi\n        /* \"contracts/crowdfund.sol\":10068:10072  true */\n      0x01\n        /* \"contracts/crowdfund.sol\":10040:10053  isContributor */\n      0x08\n        /* \"contracts/crowdfund.sol\":10040:10065  isContributor[msg.sender] */\n      0x00\n        /* \"contracts/crowdfund.sol\":10054:10064  msg.sender */\n      caller\n        /* \"contracts/crowdfund.sol\":10040:10065  isContributor[msg.sender] */\n      0xffffffffffffffffffffffffffffffffffffffff\n      and\n      0xffffffffffffffffffffffffffffffffffffffff\n      and\n      dup2\n      mstore\n      0x20\n      add\n      swap1\n      dup2\n      mstore\n      0x20\n      add\n      0x00\n      keccak256\n      0x00\n        /* \"contracts/crowdfund.sol\":10040:10072  isContributor[msg.sender] = true */\n      0x0100\n      exp\n      dup2\n      sload\n      dup2\n      0xff\n      mul\n      not\n      and\n      swap1\n      dup4\n      iszero\n      iszero\n      mul\n      or\n      swap1\n      sstore\n      pop\n        /* \"contracts/crowdfund.sol\":10108:10109  1 */\n      0x01\n        /* \"contracts/crowdfund.sol\":10087:10104  contributorsCount */\n      0x05\n      0x00\n        /* \"contracts/crowdfund.sol\":10087:10109  contributorsCount += 1 */\n      dup3\n      dup3\n      sload\n      tag_30\n      swap2\n      swap1\n      tag_31\n      jump\t// in\n    tag_30:\n      swap3\n      pop\n      pop\n      dup2\n      swap1\n      sstore\n      pop\n        /* \"contracts/crowdfund.sol\":9993:10121  if (!isContributor[msg.sender]) {... */\n    tag_29:\n        /* \"contracts/crowdfund.sol\":10160:10169  msg.value */\n      callvalue\n        /* \"contracts/crowdfund.sol\":10131:10144  contributions */\n      0x07\n        /* \"contracts/crowdfund.sol\":10131:10156  contributions[msg.sender] */\n      0x00\n        /* \"contracts/crowdfund.sol\":10145:10155  msg.sender */\n      caller\n        /* \"contracts/crowdfund.sol\":10131:10156  contributions[msg.sender] */\n      0xffffffffffffffffffffffffffffffffffffffff\n      and\n      0xffffffffffffffffffffffffffffffffffffffff\n      and\n      dup2\n      mstore\n      0x20\n      add\n      swap1\n      dup2\n      mstore\n      0x20\n      add\n      0x00\n      keccak256\n      0x00\n        /* \"contracts/crowdfund.sol\":10131:10169  contributions[msg.sender] += msg.value */\n      dup3\n      dup3\n      sload\n      tag_32\n      swap2\n      swap1\n      tag_31\n      jump\t// in\n    tag_32:\n      swap3\n      pop\n      pop\n      dup2\n      swap1\n      sstore\n      pop\n        /* \"contracts/crowdfund.sol\":10196:10205  msg.value */\n      callvalue\n        /* \"contracts/crowdfund.sol\":10180:10192  raisedAmount */\n      0x03\n      0x00\n        /* \"contracts/crowdfund.sol\":10180:10205  raisedAmount += msg.value */\n      dup3\n      dup3\n      sload\n      tag_33\n      swap2\n      swap1\n      tag_31\n      jump\t// in\n    tag_33:\n      swap3\n      pop\n      pop\n      dup2\n      swap1\n      sstore\n      pop\n        /* \"contracts/crowdfund.sol\":10223:10234  goalReached */\n      0x04\n      0x00\n      swap1\n      sload\n      swap1\n      0x0100\n      exp\n      swap1\n      div\n      0xff\n      and\n        /* \"contracts/crowdfund.sol\":10222:10234  !goalReached */\n      iszero\n        /* \"contracts/crowdfund.sol\":10222:10260  !goalReached && raisedAmount >= target */\n      dup1\n      iszero\n      tag_34\n      jumpi\n      pop\n        /* \"contracts/crowdfund.sol\":10254:10260  target */\n      sload(0x01)\n        /* \"contracts/crowdfund.sol\":10238:10250  raisedAmount */\n      sload(0x03)\n        /* \"contracts/crowdfund.sol\":10238:10260  raisedAmount >= target */\n      lt\n      iszero\n        /* \"contracts/crowdfund.sol\":10222:10260  !goalReached && raisedAmount >= target */\n    tag_34:\n        /* \"contracts/crowdfund.sol\":10218:10352  if (!goalReached && raisedAmount >= target) {... */\n      iszero\n      tag_35\n      jumpi\n        /* \"contracts/crowdfund.sol\":10291:10295  true */\n      0x01\n        /* \"contracts/crowdfund.sol\":10277:10288  goalReached */\n      0x04\n      0x00\n        /* \"contracts/crowdfund.sol\":10277:10295  goalReached = true */\n      0x0100\n      exp\n      dup2\n      sload\n      dup2\n      0xff\n      mul\n      not\n      and\n      swap1\n      dup4\n      iszero\n      iszero\n      mul\n      or\n      swap1\n      sstore\n      pop\n        /* \"contracts/crowdfund.sol\":10315:10340  GoalReached(raisedAmount) */\n      0xfbfd8ab7c24300fa9888cd721c8565a7da56759384781283684dcf7c7c4a846b\n        /* \"contracts/crowdfund.sol\":10327:10339  raisedAmount */\n      sload(0x03)\n        /* \"contracts/crowdfund.sol\":10315:10340  GoalReached(raisedAmount) */\n      mload(0x40)\n      tag_36\n      swap2\n      swap1\n      tag_37\n      jump\t// in\n    tag_36:\n      mload(0x40)\n      dup1\n      swap2\n      sub\n      swap1\n      log1\n        /* \"contracts/crowdfund.sol\":10218:10352  if (!goalReached && raisedAmount >= target) {... */\n    tag_35:\n        /* \"contracts/crowdfund.sol\":10388:10398  msg.sender */\n      caller\n        /* \"contracts/crowdfund.sol\":10367:10410  ContributionReceived(msg.sender, msg.value) */\n      0xffffffffffffffffffffffffffffffffffffffff\n      and\n      0x1bb460ccaaf70fbacfec17a376f8acbd278c1405590ffcc8ebe4b88daf4f64ad\n        /* \"contracts/crowdfund.sol\":10400:10409  msg.value */\n      callvalue\n        /* \"contracts/crowdfund.sol\":10367:10410  ContributionReceived(msg.sender, msg.value) */\n      mload(0x40)\n      tag_38\n      swap2\n      swap1\n      tag_37\n      jump\t// in\n    tag_38:\n      mload(0x40)\n      dup1\n      swap2\n      sub\n      swap1\n      log2\n        /* \"contracts/crowdfund.sol\":305:10773  contract DecentralizedCrowdfund {... */\n    tag_2:\n      stop\n        /* \"contracts/crowdfund.sol\":5565:6553  function finalizeRequest(uint requestId) external onlyManager nonReentrant {... */\n    tag_3:\n      callvalue\n      dup1\n      iszero\n      tag_42\n      jumpi\n      revert(0x00, 0x00)\n    tag_42:\n      pop\n      tag_43\n      0x04\n      dup1\n      calldatasize\n      sub\n      dup2\n      add\n      swap1\n      tag_44\n      swap2\n      swap1\n      tag_45\n      jump\t// in\n    tag_44:\n      tag_46\n      jump\t// in\n    tag_43:\n      stop\n        /* \"contracts/crowdfund.sol\":3971:4730  function createRequest(string calldata _description, address payable _recipient, uint _value) external onlyManager {... */\n    tag_4:\n      callvalue\n      dup1\n      iszero\n      tag_47\n      jumpi\n      revert(0x00, 0x00)\n    tag_47:\n      pop\n      tag_48\n      0x04\n      dup1\n      calldatasize\n      sub\n      dup2\n      add\n      swap1\n      tag_49\n      swap2\n      swap1\n      tag_50\n      jump\t// in\n    tag_49:\n      tag_51\n      jump\t// in\n    tag_48:\n      stop\n        /* \"contracts/crowdfund.sol\":1327:1372  mapping(address => bool) public isContributor */\n    tag_5:\n      callvalue\n      dup1\n      iszero\n      tag_52\n      jumpi\n      revert(0x00, 0x00)\n    tag_52:\n      pop\n      tag_53\n      0x04\n      dup1\n      calldatasize\n      sub\n      dup2\n      add\n      swap1\n      tag_54\n      swap2\n      swap1\n      tag_55\n      jump\t// in\n    tag_54:\n      tag_56\n      jump\t// in\n    tag_53:\n      mload(0x40)\n      tag_57\n      swap2\n      swap1\n      tag_58\n      jump\t// in\n    tag_57:\n      mload(0x40)\n      dup1\n      swap2\n      sub\n      swap1\n      return\n        /* \"contracts/crowdfund.sol\":455:475  uint public deadline */\n    tag_6:\n      callvalue\n      dup1\n      iszero\n      tag_59\n      jumpi\n      revert(0x00, 0x00)\n    tag_59:\n      pop\n      tag_60\n      tag_61\n      jump\t// in\n    tag_60:\n      mload(0x40)\n      tag_62\n      swap2\n      swap1\n      tag_37\n      jump\t// in\n    tag_62:\n      mload(0x40)\n      dup1\n      swap2\n      sub\n      swap1\n      return\n        /* \"contracts/crowdfund.sol\":7797:7895  function getRequestsCount() external view returns (uint) {... */\n    tag_7:\n      callvalue\n      dup1\n      iszero\n      tag_63\n      jumpi\n      revert(0x00, 0x00)\n    tag_63:\n      pop\n      tag_64\n      tag_65\n      jump\t// in\n    tag_64:\n      mload(0x40)\n      tag_66\n      swap2\n      swap1\n      tag_37\n      jump\t// in\n    tag_66:\n      mload(0x40)\n      dup1\n      swap2\n      sub\n      swap1\n      return\n        /* \"contracts/crowdfund.sol\":7956:8550  function getSummary() external view returns (... */\n    tag_8:\n      callvalue\n      dup1\n      iszero\n      tag_67\n      jumpi\n      revert(0x00, 0x00)\n    tag_67:\n      pop\n      tag_68\n      tag_69\n      jump\t// in\n    tag_68:\n      mload(0x40)\n      tag_70\n      swap9\n      swap8\n      swap7\n      swap6\n      swap5\n      swap4\n      swap3\n      swap2\n      swap1\n      tag_71\n      jump\t// in\n    tag_70:\n      mload(0x40)\n      dup1\n      swap2\n      sub\n      swap1\n      return\n        /* \"contracts/crowdfund.sol\":1275:1320  mapping(address => uint) public contributions */\n    tag_9:\n      callvalue\n      dup1\n      iszero\n      tag_72\n      jumpi\n      revert(0x00, 0x00)\n    tag_72:\n      pop\n      tag_73\n      0x04\n      dup1\n      calldatasize\n      sub\n      dup2\n      add\n      swap1\n      tag_74\n      swap2\n      swap1\n      tag_55\n      jump\t// in\n    tag_74:\n      tag_75\n      jump\t// in\n    tag_73:\n      mload(0x40)\n      tag_76\n      swap2\n      swap1\n      tag_37\n      jump\t// in\n    tag_76:\n      mload(0x40)\n      dup1\n      swap2\n      sub\n      swap1\n      return\n        /* \"contracts/crowdfund.sol\":9239:9445  function hasVoted(uint requestId, address voter) external view returns (bool) {... */\n    tag_10:\n      callvalue\n      dup1\n      iszero\n      tag_77\n      jumpi\n      revert(0x00, 0x00)\n    tag_77:\n      pop\n      tag_78\n      0x04\n      dup1\n      calldatasize\n      sub\n      dup2\n      add\n      swap1\n      tag_79\n      swap2\n      swap1\n      tag_80\n      jump\t// in\n    tag_79:\n      tag_81\n      jump\t// in\n    tag_78:\n      mload(0x40)\n      tag_82\n      swap2\n      swap1\n      tag_58\n      jump\t// in\n    tag_82:\n      mload(0x40)\n      dup1\n      swap2\n      sub\n      swap1\n      return\n        /* \"contracts/crowdfund.sol\":366:388  address public manager */\n    tag_11:\n      callvalue\n      dup1\n      iszero\n      tag_83\n      jumpi\n      revert(0x00, 0x00)\n    tag_83:\n      pop\n      tag_84\n      tag_85\n      jump\t// in\n    tag_84:\n      mload(0x40)\n      tag_86\n      swap2\n      swap1\n      tag_87\n      jump\t// in\n    tag_86:\n      mload(0x40)\n      dup1\n      swap2\n      sub\n      swap1\n      return\n        /* \"contracts/crowdfund.sol\":4879:5388  function voteRequest(uint requestId) external {... */\n    tag_12:\n      callvalue\n      dup1\n      iszero\n      tag_88\n      jumpi\n      revert(0x00, 0x00)\n    tag_88:\n      pop\n      tag_89\n      0x04\n      dup1\n      calldatasize\n      sub\n      dup2\n      add\n      swap1\n      tag_90\n      swap2\n      swap1\n      tag_45\n      jump\t// in\n    tag_90:\n      tag_91\n      jump\t// in\n    tag_89:\n      stop\n        /* \"contracts/crowdfund.sol\":6690:7714  function refund() external nonReentrant afterDeadline {... */\n    tag_13:\n      callvalue\n      dup1\n      iszero\n      tag_92\n      jumpi\n      revert(0x00, 0x00)\n    tag_92:\n      pop\n      tag_93\n      tag_94\n      jump\t// in\n    tag_93:\n      stop\n        /* \"contracts/crowdfund.sol\":687:716  uint public contributorsCount */\n    tag_14:\n      callvalue\n      dup1\n      iszero\n      tag_95\n      jumpi\n      revert(0x00, 0x00)\n    tag_95:\n      pop\n      tag_96\n      tag_97\n      jump\t// in\n    tag_96:\n      mload(0x40)\n      tag_98\n      swap2\n      swap1\n      tag_37\n      jump\t// in\n    tag_98:\n      mload(0x40)\n      dup1\n      swap2\n      sub\n      swap1\n      return\n        /* \"contracts/crowdfund.sol\":612:635  bool public goalReached */\n    tag_15:\n      callvalue\n      dup1\n      iszero\n      tag_99\n      jumpi\n      revert(0x00, 0x00)\n    tag_99:\n      pop\n      tag_100\n      tag_101\n      jump\t// in\n    tag_100:\n      mload(0x40)\n      tag_102\n      swap2\n      swap1\n      tag_58\n      jump\t// in\n    tag_102:\n      mload(0x40)\n      dup1\n      swap2\n      sub\n      swap1\n      return\n        /* \"contracts/crowdfund.sol\":8658:9164  function getRequest(uint requestId) external view returns (... */\n    tag_16:\n      callvalue\n      dup1\n      iszero\n      tag_103\n      jumpi\n      revert(0x00, 0x00)\n    tag_103:\n      pop\n      tag_104\n      0x04\n      dup1\n      calldatasize\n      sub\n      dup2\n      add\n      swap1\n      tag_105\n      swap2\n      swap1\n      tag_45\n      jump\t// in\n    tag_105:\n      tag_106\n      jump\t// in\n    tag_104:\n      mload(0x40)\n      tag_107\n      swap6\n      swap5\n      swap4\n      swap3\n      swap2\n      swap1\n      tag_108\n      jump\t// in\n    tag_107:\n      mload(0x40)\n      dup1\n      swap2\n      sub\n      swap1\n      return\n        /* \"contracts/crowdfund.sol\":554:578  uint public raisedAmount */\n    tag_17:\n      callvalue\n      dup1\n      iszero\n      tag_109\n      jumpi\n      revert(0x00, 0x00)\n    tag_109:\n      pop\n      tag_110\n      tag_111\n      jump\t// in\n    tag_110:\n      mload(0x40)\n      tag_112\n      swap2\n      swap1\n      tag_37\n      jump\t// in\n    tag_112:\n      mload(0x40)\n      dup1\n      swap2\n      sub\n      swap1\n      return\n        /* \"contracts/crowdfund.sol\":395:413  uint public target */\n    tag_18:\n      callvalue\n      dup1\n      iszero\n      tag_113\n      jumpi\n      revert(0x00, 0x00)\n    tag_113:\n      pop\n      tag_114\n      tag_115\n      jump\t// in\n    tag_114:\n      mload(0x40)\n      tag_116\n      swap2\n      swap1\n      tag_37\n      jump\t// in\n    tag_116:\n      mload(0x40)\n      dup1\n      swap2\n      sub\n      swap1\n      return\n        /* \"contracts/crowdfund.sol\":3020:3671  function contribute() external payable beforeDeadline nonReentrant {... */\n    tag_19:\n      tag_117\n      tag_118\n      jump\t// in\n    tag_117:\n      stop\n        /* \"contracts/crowdfund.sol\":9509:9638  function getContributionOf(address contributor) external view returns (uint) {... */\n    tag_20:\n      callvalue\n      dup1\n      iszero\n      tag_119\n      jumpi\n      revert(0x00, 0x00)\n    tag_119:\n      pop\n      tag_120\n      0x04\n      dup1\n      calldatasize\n      sub\n      dup2\n      add\n      swap1\n      tag_121\n      swap2\n      swap1\n      tag_55\n      jump\t// in\n    tag_121:\n      tag_122\n      jump\t// in\n    tag_120:\n      mload(0x40)\n      tag_123\n      swap2\n      swap1\n      tag_37\n      jump\t// in\n    tag_123:\n      mload(0x40)\n      dup1\n      swap2\n      sub\n      swap1\n      return\n        /* \"contracts/crowdfund.sol\":5565:6553  function finalizeRequest(uint requestId) external onlyManager nonReentrant {... */\n    tag_46:\n        /* \"contracts/crowdfund.sol\":2025:2032  manager */\n      0x00\n      0x00\n      swap1\n      sload\n      swap1\n      0x0100\n      exp\n      swap1\n      div\n      0xffffffffffffffffffffffffffffffffffffffff\n      and\n        /* \"contracts/crowdfund.sol\":2011:2032  msg.sender == manager */\n      0xffffffffffffffffffffffffffffffffffffffff\n      and\n        /* \"contracts/crowdfund.sol\":2011:2021  msg.sender */\n      caller\n        /* \"contracts/crowdfund.sol\":2011:2032  msg.sender == manager */\n      0xffffffffffffffffffffffffffffffffffffffff\n      and\n      eq\n        /* \"contracts/crowdfund.sol\":2003:2049  require(msg.sender == manager, \"Only manager\") */\n      tag_125\n      jumpi\n      mload(0x40)\n      0x08c379a000000000000000000000000000000000000000000000000000000000\n      dup2\n      mstore\n      0x04\n      add\n      tag_126\n      swap1\n      tag_127\n      jump\t// in\n    tag_126:\n      mload(0x40)\n      dup1\n      swap2\n      sub\n      swap1\n      revert\n    tag_125:\n        /* \"contracts/crowdfund.sol\":2132:2133  1 */\n      0x01\n        /* \"contracts/crowdfund.sol\":2120:2128  unlocked */\n      sload(0x09)\n        /* \"contracts/crowdfund.sol\":2120:2133  unlocked == 1 */\n      eq\n        /* \"contracts/crowdfund.sol\":2112:2152  require(unlocked == 1, \"Reentrant call\") */\n      tag_129\n      jumpi\n      mload(0x40)\n      0x08c379a000000000000000000000000000000000000000000000000000000000\n      dup2\n      mstore\n      0x04\n      add\n      tag_130\n      swap1\n      tag_131\n      jump\t// in\n    tag_130:\n      mload(0x40)\n      dup1\n      swap2\n      sub\n      swap1\n      revert\n    tag_129:\n        /* \"contracts/crowdfund.sol\":2174:2175  0 */\n      0x00\n        /* \"contracts/crowdfund.sol\":2163:2171  unlocked */\n      0x09\n        /* \"contracts/crowdfund.sol\":2163:2175  unlocked = 0 */\n      dup2\n      swap1\n      sstore\n      pop\n        /* \"contracts/crowdfund.sol\":5671:5679  requests */\n      0x06\n        /* \"contracts/crowdfund.sol\":5671:5686  requests.length */\n      dup1\n      sload\n      swap1\n      pop\n        /* \"contracts/crowdfund.sol\":5659:5668  requestId */\n      dup2\n        /* \"contracts/crowdfund.sol\":5659:5686  requestId < requests.length */\n      lt\n        /* \"contracts/crowdfund.sol\":5651:5709  require(requestId < requests.length, \"Invalid request id\") */\n      tag_133\n      jumpi\n      mload(0x40)\n      0x08c379a000000000000000000000000000000000000000000000000000000000\n      dup2\n      mstore\n      0x04\n      add\n      tag_134\n      swap1\n      tag_135\n      jump\t// in\n    tag_134:\n      mload(0x40)\n      dup1\n      swap2\n      sub\n      swap1\n      revert\n    tag_133:\n        /* \"contracts/crowdfund.sol\":5720:5739  Request storage req */\n      0x00\n        /* \"contracts/crowdfund.sol\":5742:5750  requests */\n      0x06\n        /* \"contracts/crowdfund.sol\":5751:5760  requestId */\n      dup3\n        /* \"contracts/crowdfund.sol\":5742:5761  requests[requestId] */\n      dup2\n      sload\n      dup2\n      lt\n      tag_136\n      jumpi\n      tag_137\n      tag_138\n      jump\t// in\n    tag_137:\n    tag_136:\n      swap1\n      0x00\n      mstore\n      keccak256(0x00, 0x20)\n      swap1\n      0x06\n      mul\n      add\n        /* \"contracts/crowdfund.sol\":5720:5761  Request storage req = requests[requestId] */\n      swap1\n      pop\n        /* \"contracts/crowdfund.sol\":5783:5786  req */\n      dup1\n        /* \"contracts/crowdfund.sol\":5783:5796  req.completed */\n      0x03\n      add\n      0x00\n      swap1\n      sload\n      swap1\n      0x0100\n      exp\n      swap1\n      div\n      0xff\n      and\n        /* \"contracts/crowdfund.sol\":5782:5796  !req.completed */\n      iszero\n        /* \"contracts/crowdfund.sol\":5774:5818  require(!req.completed, \"Already completed\") */\n      tag_140\n      jumpi\n      mload(0x40)\n      0x08c379a000000000000000000000000000000000000000000000000000000000\n      dup2\n      mstore\n      0x04\n      add\n      tag_141\n      swap1\n      tag_142\n      jump\t// in\n    tag_141:\n      mload(0x40)\n      dup1\n      swap2\n      sub\n      swap1\n      revert\n    tag_140:\n        /* \"contracts/crowdfund.sol\":5837:5848  goalReached */\n      0x04\n      0x00\n      swap1\n      sload\n      swap1\n      0x0100\n      exp\n      swap1\n      div\n      0xff\n      and\n        /* \"contracts/crowdfund.sol\":5829:5894  require(goalReached, \"Funding goal not reached; cannot disburse\") */\n      tag_143\n      jumpi\n      mload(0x40)\n      0x08c379a000000000000000000000000000000000000000000000000000000000\n      dup2\n      mstore\n      0x04\n      add\n      tag_144\n      swap1\n      tag_145\n      jump\t// in\n    tag_144:\n      mload(0x40)\n      dup1\n      swap2\n      sub\n      swap1\n      revert\n    tag_143:\n        /* \"contracts/crowdfund.sol\":5926:5947  address(this).balance */\n      selfbalance\n        /* \"contracts/crowdfund.sol\":5913:5916  req */\n      dup2\n        /* \"contracts/crowdfund.sol\":5913:5922  req.value */\n      0x02\n      add\n      sload\n        /* \"contracts/crowdfund.sol\":5913:5947  req.value <= address(this).balance */\n      gt\n      iszero\n        /* \"contracts/crowdfund.sol\":5905:5981  require(req.value <= address(this).balance, \"Insufficient contract balance\") */\n      tag_146\n      jumpi\n      mload(0x40)\n      0x08c379a000000000000000000000000000000000000000000000000000000000\n      dup2\n      mstore\n      0x04\n      add\n      tag_147\n      swap1\n      tag_148\n      jump\t// in\n    tag_147:\n      mload(0x40)\n      dup1\n      swap2\n      sub\n      swap1\n      revert\n    tag_146:\n        /* \"contracts/crowdfund.sol\":6161:6162  0 */\n      0x00\n        /* \"contracts/crowdfund.sol\":6141:6158  contributorsCount */\n      sload(0x05)\n        /* \"contracts/crowdfund.sol\":6141:6162  contributorsCount > 0 */\n      gt\n        /* \"contracts/crowdfund.sol\":6133:6190  require(contributorsCount > 0, \"No contributors present\") */\n      tag_149\n      jumpi\n      mload(0x40)\n      0x08c379a000000000000000000000000000000000000000000000000000000000\n      dup2\n      mstore\n      0x04\n      add\n      tag_150\n      swap1\n      tag_151\n      jump\t// in\n    tag_150:\n      mload(0x40)\n      dup1\n      swap2\n      sub\n      swap1\n      revert\n    tag_149:\n        /* \"contracts/crowdfund.sol\":6229:6246  contributorsCount */\n      sload(0x05)\n        /* \"contracts/crowdfund.sol\":6225:6226  2 */\n      0x02\n        /* \"contracts/crowdfund.sol\":6209:6212  req */\n      dup3\n        /* \"contracts/crowdfund.sol\":6209:6222  req.voteCount */\n      0x04\n      add\n      sload\n        /* \"contracts/crowdfund.sol\":6209:6226  req.voteCount * 2 */\n      tag_152\n      swap2\n      swap1\n      tag_153\n      jump\t// in\n    tag_152:\n        /* \"contracts/crowdfund.sol\":6209:6246  req.voteCount * 2 > contributorsCount */\n      gt\n        /* \"contracts/crowdfund.sol\":6201:6287  require(req.voteCount * 2 > contributorsCount, \"Not enough votes (majority required)\") */\n      tag_154\n      jumpi\n      mload(0x40)\n      0x08c379a000000000000000000000000000000000000000000000000000000000\n      dup2\n      mstore\n      0x04\n      add\n      tag_155\n      swap1\n      tag_156\n      jump\t// in\n    tag_155:\n      mload(0x40)\n      dup1\n      swap2\n      sub\n      swap1\n      revert\n    tag_154:\n        /* \"contracts/crowdfund.sol\":6316:6320  true */\n      0x01\n        /* \"contracts/crowdfund.sol\":6300:6303  req */\n      dup2\n        /* \"contracts/crowdfund.sol\":6300:6313  req.completed */\n      0x03\n      add\n      0x00\n        /* \"contracts/crowdfund.sol\":6300:6320  req.completed = true */\n      0x0100\n      exp\n      dup2\n      sload\n      dup2\n      0xff\n      mul\n      not\n      and\n      swap1\n      dup4\n      iszero\n      iszero\n      mul\n      or\n      swap1\n      sstore\n      pop\n        /* \"contracts/crowdfund.sol\":6376:6385  bool sent */\n      0x00\n        /* \"contracts/crowdfund.sol\":6391:6394  req */\n      dup2\n        /* \"contracts/crowdfund.sol\":6391:6404  req.recipient */\n      0x01\n      add\n      0x00\n      swap1\n      sload\n      swap1\n      0x0100\n      exp\n      swap1\n      div\n      0xffffffffffffffffffffffffffffffffffffffff\n      and\n        /* \"contracts/crowdfund.sol\":6391:6409  req.recipient.call */\n      0xffffffffffffffffffffffffffffffffffffffff\n      and\n        /* \"contracts/crowdfund.sol\":6417:6420  req */\n      dup3\n        /* \"contracts/crowdfund.sol\":6417:6426  req.value */\n      0x02\n      add\n      sload\n        /* \"contracts/crowdfund.sol\":6391:6431  req.recipient.call{value: req.value}(\"\") */\n      mload(0x40)\n      tag_157\n      swap1\n      tag_158\n      jump\t// in\n    tag_157:\n      0x00\n      mload(0x40)\n      dup1\n      dup4\n      sub\n      dup2\n      dup6\n      dup8\n      gas\n      call\n      swap3\n      pop\n      pop\n      pop\n      returndatasize\n      dup1\n      0x00\n      dup2\n      eq\n      tag_161\n      jumpi\n      mload(0x40)\n      swap2\n      pop\n      and(add(returndatasize, 0x3f), not(0x1f))\n      dup3\n      add\n      0x40\n      mstore\n      returndatasize\n      dup3\n      mstore\n      returndatasize\n      0x00\n      0x20\n      dup5\n      add\n      returndatacopy\n      jump(tag_160)\n    tag_161:\n      0x60\n      swap2\n      pop\n    tag_160:\n      pop\n        /* \"contracts/crowdfund.sol\":6375:6431  (bool sent, ) = req.recipient.call{value: req.value}(\"\") */\n      pop\n      swap1\n      pop\n        /* \"contracts/crowdfund.sol\":6450:6454  sent */\n      dup1\n        /* \"contracts/crowdfund.sol\":6442:6474  require(sent, \"Transfer failed\") */\n      tag_162\n      jumpi\n      mload(0x40)\n      0x08c379a000000000000000000000000000000000000000000000000000000000\n      dup2\n      mstore\n      0x04\n      add\n      tag_163\n      swap1\n      tag_164\n      jump\t// in\n    tag_163:\n      mload(0x40)\n      dup1\n      swap2\n      sub\n      swap1\n      revert\n    tag_162:\n        /* \"contracts/crowdfund.sol\":6509:6518  requestId */\n      dup3\n        /* \"contracts/crowdfund.sol\":6492:6545  RequestFinalized(requestId, req.recipient, req.value) */\n      0x73fd0e11744b112133172a1d5396c8680521585a2b0c4bd539b0da184770d7d7\n        /* \"contracts/crowdfund.sol\":6520:6523  req */\n      dup4\n        /* \"contracts/crowdfund.sol\":6520:6533  req.recipient */\n      0x01\n      add\n      0x00\n      swap1\n      sload\n      swap1\n      0x0100\n      exp\n      swap1\n      div\n      0xffffffffffffffffffffffffffffffffffffffff\n      and\n        /* \"contracts/crowdfund.sol\":6535:6538  req */\n      dup5\n        /* \"contracts/crowdfund.sol\":6535:6544  req.value */\n      0x02\n      add\n      sload\n        /* \"contracts/crowdfund.sol\":6492:6545  RequestFinalized(requestId, req.recipient, req.value) */\n      mload(0x40)\n      tag_165\n      swap3\n      swap2\n      swap1\n      tag_166\n      jump\t// in\n    tag_165:\n      mload(0x40)\n      dup1\n      swap2\n      sub\n      swap1\n      log2\n        /* \"contracts/crowdfund.sol\":5640:6553  {... */\n      pop\n      pop\n        /* \"contracts/crowdfund.sol\":2209:2210  1 */\n      0x01\n        /* \"contracts/crowdfund.sol\":2198:2206  unlocked */\n      0x09\n        /* \"contracts/crowdfund.sol\":2198:2210  unlocked = 1 */\n      dup2\n      swap1\n      sstore\n      pop\n        /* \"contracts/crowdfund.sol\":5565:6553  function finalizeRequest(uint requestId) external onlyManager nonReentrant {... */\n      pop\n      jump\t// out\n        /* \"contracts/crowdfund.sol\":3971:4730  function createRequest(string calldata _description, address payable _recipient, uint _value) external onlyManager {... */\n    tag_51:\n        /* \"contracts/crowdfund.sol\":2025:2032  manager */\n      0x00\n      0x00\n      swap1\n      sload\n      swap1\n      0x0100\n      exp\n      swap1\n      div\n      0xffffffffffffffffffffffffffffffffffffffff\n      and\n        /* \"contracts/crowdfund.sol\":2011:2032  msg.sender == manager */\n      0xffffffffffffffffffffffffffffffffffffffff\n      and\n        /* \"contracts/crowdfund.sol\":2011:2021  msg.sender */\n      caller\n        /* \"contracts/crowdfund.sol\":2011:2032  msg.sender == manager */\n      0xffffffffffffffffffffffffffffffffffffffff\n      and\n      eq\n        /* \"contracts/crowdfund.sol\":2003:2049  require(msg.sender == manager, \"Only manager\") */\n      tag_168\n      jumpi\n      mload(0x40)\n      0x08c379a000000000000000000000000000000000000000000000000000000000\n      dup2\n      mstore\n      0x04\n      add\n      tag_169\n      swap1\n      tag_127\n      jump\t// in\n    tag_169:\n      mload(0x40)\n      dup1\n      swap2\n      sub\n      swap1\n      revert\n    tag_168:\n        /* \"contracts/crowdfund.sol\":4127:4128  0 */\n      0x00\n        /* \"contracts/crowdfund.sol\":4105:4129  _recipient != address(0) */\n      0xffffffffffffffffffffffffffffffffffffffff\n      and\n        /* \"contracts/crowdfund.sol\":4105:4115  _recipient */\n      dup3\n        /* \"contracts/crowdfund.sol\":4105:4129  _recipient != address(0) */\n      0xffffffffffffffffffffffffffffffffffffffff\n      and\n      sub\n        /* \"contracts/crowdfund.sol\":4097:4151  require(_recipient != address(0), \"Invalid recipient\") */\n      tag_171\n      jumpi\n      mload(0x40)\n      0x08c379a000000000000000000000000000000000000000000000000000000000\n      dup2\n      mstore\n      0x04\n      add\n      tag_172\n      swap1\n      tag_173\n      jump\t// in\n    tag_172:\n      mload(0x40)\n      dup1\n      swap2\n      sub\n      swap1\n      revert\n    tag_171:\n        /* \"contracts/crowdfund.sol\":4199:4200  0 */\n      0x00\n        /* \"contracts/crowdfund.sol\":4176:4188  _description */\n      dup5\n      dup5\n        /* \"contracts/crowdfund.sol\":4170:4196  bytes(_description).length */\n      swap1\n      pop\n        /* \"contracts/crowdfund.sol\":4170:4200  bytes(_description).length > 0 */\n      gt\n        /* \"contracts/crowdfund.sol\":4162:4225  require(bytes(_description).length > 0, \"Description required\") */\n      tag_174\n      jumpi\n      mload(0x40)\n      0x08c379a000000000000000000000000000000000000000000000000000000000\n      dup2\n      mstore\n      0x04\n      add\n      tag_175\n      swap1\n      tag_176\n      jump\t// in\n    tag_175:\n      mload(0x40)\n      dup1\n      swap2\n      sub\n      swap1\n      revert\n    tag_174:\n        /* \"contracts/crowdfund.sol\":4253:4254  0 */\n      0x00\n        /* \"contracts/crowdfund.sol\":4244:4250  _value */\n      dup2\n        /* \"contracts/crowdfund.sol\":4244:4254  _value > 0 */\n      gt\n        /* \"contracts/crowdfund.sol\":4236:4277  require(_value > 0, \"Value > 0 required\") */\n      tag_177\n      jumpi\n      mload(0x40)\n      0x08c379a000000000000000000000000000000000000000000000000000000000\n      dup2\n      mstore\n      0x04\n      add\n      tag_178\n      swap1\n      tag_179\n      jump\t// in\n    tag_178:\n      mload(0x40)\n      dup1\n      swap2\n      sub\n      swap1\n      revert\n    tag_177:\n        /* \"contracts/crowdfund.sol\":4360:4386  Request storage newRequest */\n      0x00\n        /* \"contracts/crowdfund.sol\":4389:4397  requests */\n      0x06\n        /* \"contracts/crowdfund.sol\":4389:4404  requests.push() */\n      0x01\n      dup2\n      0x01\n      dup2\n      sload\n      add\n      dup1\n      dup3\n      sstore\n      dup1\n      swap2\n      pop\n      pop\n      sub\n      swap1\n      0x00\n      mstore\n      keccak256(0x00, 0x20)\n      swap1\n      0x06\n      mul\n      add\n        /* \"contracts/crowdfund.sol\":4360:4404  Request storage newRequest = requests.push() */\n      swap1\n      pop\n        /* \"contracts/crowdfund.sol\":4440:4452  _description */\n      dup5\n      dup5\n        /* \"contracts/crowdfund.sol\":4415:4425  newRequest */\n      dup3\n        /* \"contracts/crowdfund.sol\":4415:4437  newRequest.description */\n      0x00\n      add\n        /* \"contracts/crowdfund.sol\":4415:4452  newRequest.description = _description */\n      swap2\n      dup3\n      tag_181\n      swap3\n      swap2\n      swap1\n      tag_182\n      jump\t// in\n    tag_181:\n      pop\n        /* \"contracts/crowdfund.sol\":4486:4496  _recipient */\n      dup3\n        /* \"contracts/crowdfund.sol\":4463:4473  newRequest */\n      dup2\n        /* \"contracts/crowdfund.sol\":4463:4483  newRequest.recipient */\n      0x01\n      add\n      0x00\n        /* \"contracts/crowdfund.sol\":4463:4496  newRequest.recipient = _recipient */\n      0x0100\n      exp\n      dup2\n      sload\n      dup2\n      0xffffffffffffffffffffffffffffffffffffffff\n      mul\n      not\n      and\n      swap1\n      dup4\n      0xffffffffffffffffffffffffffffffffffffffff\n      and\n      mul\n      or\n      swap1\n      sstore\n      pop\n        /* \"contracts/crowdfund.sol\":4526:4532  _value */\n      dup2\n        /* \"contracts/crowdfund.sol\":4507:4517  newRequest */\n      dup2\n        /* \"contracts/crowdfund.sol\":4507:4523  newRequest.value */\n      0x02\n      add\n        /* \"contracts/crowdfund.sol\":4507:4532  newRequest.value = _value */\n      dup2\n      swap1\n      sstore\n      pop\n        /* \"contracts/crowdfund.sol\":4566:4571  false */\n      0x00\n        /* \"contracts/crowdfund.sol\":4543:4553  newRequest */\n      dup2\n        /* \"contracts/crowdfund.sol\":4543:4563  newRequest.completed */\n      0x03\n      add\n      0x00\n        /* \"contracts/crowdfund.sol\":4543:4571  newRequest.completed = false */\n      0x0100\n      exp\n      dup2\n      sload\n      dup2\n      0xff\n      mul\n      not\n      and\n      swap1\n      dup4\n      iszero\n      iszero\n      mul\n      or\n      swap1\n      sstore\n      pop\n        /* \"contracts/crowdfund.sol\":4605:4606  0 */\n      0x00\n        /* \"contracts/crowdfund.sol\":4582:4592  newRequest */\n      dup2\n        /* \"contracts/crowdfund.sol\":4582:4602  newRequest.voteCount */\n      0x04\n      add\n        /* \"contracts/crowdfund.sol\":4582:4606  newRequest.voteCount = 0 */\n      dup2\n      swap1\n      sstore\n      pop\n        /* \"contracts/crowdfund.sol\":4619:4629  uint reqId */\n      0x00\n        /* \"contracts/crowdfund.sol\":4650:4651  1 */\n      0x01\n        /* \"contracts/crowdfund.sol\":4632:4640  requests */\n      0x06\n        /* \"contracts/crowdfund.sol\":4632:4647  requests.length */\n      dup1\n      sload\n      swap1\n      pop\n        /* \"contracts/crowdfund.sol\":4632:4651  requests.length - 1 */\n      tag_183\n      swap2\n      swap1\n      tag_184\n      jump\t// in\n    tag_183:\n        /* \"contracts/crowdfund.sol\":4619:4651  uint reqId = requests.length - 1 */\n      swap1\n      pop\n        /* \"contracts/crowdfund.sol\":4682:4687  reqId */\n      dup1\n        /* \"contracts/crowdfund.sol\":4667:4722  RequestCreated(reqId, _description, _recipient, _value) */\n      0xf4f741cfaf5f9ff0be5480b102aa9ec4ed806560a6b1718816935ee4cc4a35f3\n        /* \"contracts/crowdfund.sol\":4689:4701  _description */\n      dup8\n      dup8\n        /* \"contracts/crowdfund.sol\":4703:4713  _recipient */\n      dup8\n        /* \"contracts/crowdfund.sol\":4715:4721  _value */\n      dup8\n        /* \"contracts/crowdfund.sol\":4667:4722  RequestCreated(reqId, _description, _recipient, _value) */\n      mload(0x40)\n      tag_185\n      swap5\n      swap4\n      swap3\n      swap2\n      swap1\n      tag_186\n      jump\t// in\n    tag_185:\n      mload(0x40)\n      dup1\n      swap2\n      sub\n      swap1\n      log2\n        /* \"contracts/crowdfund.sol\":4086:4730  {... */\n      pop\n      pop\n        /* \"contracts/crowdfund.sol\":3971:4730  function createRequest(string calldata _description, address payable _recipient, uint _value) external onlyManager {... */\n      pop\n      pop\n      pop\n      pop\n      jump\t// out\n        /* \"contracts/crowdfund.sol\":1327:1372  mapping(address => bool) public isContributor */\n    tag_56:\n      mstore(0x20, 0x08)\n      dup1\n      0x00\n      mstore\n      keccak256(0x00, 0x40)\n      0x00\n      swap2\n      pop\n      sload\n      swap1\n      0x0100\n      exp\n      swap1\n      div\n      0xff\n      and\n      dup2\n      jump\t// out\n        /* \"contracts/crowdfund.sol\":455:475  uint public deadline */\n    tag_61:\n      sload(0x02)\n      dup2\n      jump\t// out\n        /* \"contracts/crowdfund.sol\":7797:7895  function getRequestsCount() external view returns (uint) {... */\n    tag_65:\n        /* \"contracts/crowdfund.sol\":7848:7852  uint */\n      0x00\n        /* \"contracts/crowdfund.sol\":7872:7880  requests */\n      0x06\n        /* \"contracts/crowdfund.sol\":7872:7887  requests.length */\n      dup1\n      sload\n      swap1\n      pop\n        /* \"contracts/crowdfund.sol\":7865:7887  return requests.length */\n      swap1\n      pop\n        /* \"contracts/crowdfund.sol\":7797:7895  function getRequestsCount() external view returns (uint) {... */\n      swap1\n      jump\t// out\n        /* \"contracts/crowdfund.sol\":7956:8550  function getSummary() external view returns (... */\n    tag_69:\n        /* \"contracts/crowdfund.sol\":8011:8027  address _manager */\n      0x00\n        /* \"contracts/crowdfund.sol\":8038:8050  uint _target */\n      0x00\n        /* \"contracts/crowdfund.sol\":8061:8075  uint _deadline */\n      0x00\n        /* \"contracts/crowdfund.sol\":8086:8104  uint _raisedAmount */\n      0x00\n        /* \"contracts/crowdfund.sol\":8115:8138  uint _contributorsCount */\n      0x00\n        /* \"contracts/crowdfund.sol\":8149:8166  bool _goalReached */\n      0x00\n        /* \"contracts/crowdfund.sol\":8177:8196  uint _requestsCount */\n      0x00\n        /* \"contracts/crowdfund.sol\":8207:8228  uint _contractBalance */\n      0x00\n        /* \"contracts/crowdfund.sol\":8258:8265  manager */\n      0x00\n      0x00\n      swap1\n      sload\n      swap1\n      0x0100\n      exp\n      swap1\n      div\n      0xffffffffffffffffffffffffffffffffffffffff\n      and\n        /* \"contracts/crowdfund.sol\":8247:8265  _manager = manager */\n      swap8\n      pop\n        /* \"contracts/crowdfund.sol\":8286:8292  target */\n      sload(0x01)\n        /* \"contracts/crowdfund.sol\":8276:8292  _target = target */\n      swap7\n      pop\n        /* \"contracts/crowdfund.sol\":8315:8323  deadline */\n      sload(0x02)\n        /* \"contracts/crowdfund.sol\":8303:8323  _deadline = deadline */\n      swap6\n      pop\n        /* \"contracts/crowdfund.sol\":8350:8362  raisedAmount */\n      sload(0x03)\n        /* \"contracts/crowdfund.sol\":8334:8362  _raisedAmount = raisedAmount */\n      swap5\n      pop\n        /* \"contracts/crowdfund.sol\":8394:8411  contributorsCount */\n      sload(0x05)\n        /* \"contracts/crowdfund.sol\":8373:8411  _contributorsCount = contributorsCount */\n      swap4\n      pop\n        /* \"contracts/crowdfund.sol\":8437:8448  goalReached */\n      0x04\n      0x00\n      swap1\n      sload\n      swap1\n      0x0100\n      exp\n      swap1\n      div\n      0xff\n      and\n        /* \"contracts/crowdfund.sol\":8422:8448  _goalReached = goalReached */\n      swap3\n      pop\n        /* \"contracts/crowdfund.sol\":8476:8484  requests */\n      0x06\n        /* \"contracts/crowdfund.sol\":8476:8491  requests.length */\n      dup1\n      sload\n      swap1\n      pop\n        /* \"contracts/crowdfund.sol\":8459:8491  _requestsCount = requests.length */\n      swap2\n      pop\n        /* \"contracts/crowdfund.sol\":8521:8542  address(this).balance */\n      selfbalance\n        /* \"contracts/crowdfund.sol\":8502:8542  _contractBalance = address(this).balance */\n      swap1\n      pop\n        /* \"contracts/crowdfund.sol\":7956:8550  function getSummary() external view returns (... */\n      swap1\n      swap2\n      swap3\n      swap4\n      swap5\n      swap6\n      swap7\n      swap8\n      jump\t// out\n        /* \"contracts/crowdfund.sol\":1275:1320  mapping(address => uint) public contributions */\n    tag_75:\n      mstore(0x20, 0x07)\n      dup1\n      0x00\n      mstore\n      keccak256(0x00, 0x40)\n      0x00\n      swap2\n      pop\n      swap1\n      pop\n      sload\n      dup2\n      jump\t// out\n        /* \"contracts/crowdfund.sol\":9239:9445  function hasVoted(uint requestId, address voter) external view returns (bool) {... */\n    tag_81:\n        /* \"contracts/crowdfund.sol\":9311:9315  bool */\n      0x00\n        /* \"contracts/crowdfund.sol\":9348:9356  requests */\n      0x06\n        /* \"contracts/crowdfund.sol\":9348:9363  requests.length */\n      dup1\n      sload\n      swap1\n      pop\n        /* \"contracts/crowdfund.sol\":9336:9345  requestId */\n      dup4\n        /* \"contracts/crowdfund.sol\":9336:9363  requestId < requests.length */\n      lt\n        /* \"contracts/crowdfund.sol\":9328:9386  require(requestId < requests.length, \"Invalid request id\") */\n      tag_190\n      jumpi\n      mload(0x40)\n      0x08c379a000000000000000000000000000000000000000000000000000000000\n      dup2\n      mstore\n      0x04\n      add\n      tag_191\n      swap1\n      tag_135\n      jump\t// in\n    tag_191:\n      mload(0x40)\n      dup1\n      swap2\n      sub\n      swap1\n      revert\n    tag_190:\n        /* \"contracts/crowdfund.sol\":9404:9412  requests */\n      0x06\n        /* \"contracts/crowdfund.sol\":9413:9422  requestId */\n      dup4\n        /* \"contracts/crowdfund.sol\":9404:9423  requests[requestId] */\n      dup2\n      sload\n      dup2\n      lt\n      tag_192\n      jumpi\n      tag_193\n      tag_138\n      jump\t// in\n    tag_193:\n    tag_192:\n      swap1\n      0x00\n      mstore\n      keccak256(0x00, 0x20)\n      swap1\n      0x06\n      mul\n      add\n        /* \"contracts/crowdfund.sol\":9404:9430  requests[requestId].voters */\n      0x05\n      add\n        /* \"contracts/crowdfund.sol\":9404:9437  requests[requestId].voters[voter] */\n      0x00\n        /* \"contracts/crowdfund.sol\":9431:9436  voter */\n      dup4\n        /* \"contracts/crowdfund.sol\":9404:9437  requests[requestId].voters[voter] */\n      0xffffffffffffffffffffffffffffffffffffffff\n      and\n      0xffffffffffffffffffffffffffffffffffffffff\n      and\n      dup2\n      mstore\n      0x20\n      add\n      swap1\n      dup2\n      mstore\n      0x20\n      add\n      0x00\n      keccak256\n      0x00\n      swap1\n      sload\n      swap1\n      0x0100\n      exp\n      swap1\n      div\n      0xff\n      and\n        /* \"contracts/crowdfund.sol\":9397:9437  return requests[requestId].voters[voter] */\n      swap1\n      pop\n        /* \"contracts/crowdfund.sol\":9239:9445  function hasVoted(uint requestId, address voter) external view returns (bool) {... */\n      swap3\n      swap2\n      pop\n      pop\n      jump\t// out\n        /* \"contracts/crowdfund.sol\":366:388  address public manager */\n    tag_85:\n      0x00\n      0x00\n      swap1\n      sload\n      swap1\n      0x0100\n      exp\n      swap1\n      div\n      0xffffffffffffffffffffffffffffffffffffffff\n      and\n      dup2\n      jump\t// out\n        /* \"contracts/crowdfund.sol\":4879:5388  function voteRequest(uint requestId) external {... */\n    tag_91:\n        /* \"contracts/crowdfund.sol\":4956:4964  requests */\n      0x06\n        /* \"contracts/crowdfund.sol\":4956:4971  requests.length */\n      dup1\n      sload\n      swap1\n      pop\n        /* \"contracts/crowdfund.sol\":4944:4953  requestId */\n      dup2\n        /* \"contracts/crowdfund.sol\":4944:4971  requestId < requests.length */\n      lt\n        /* \"contracts/crowdfund.sol\":4936:4994  require(requestId < requests.length, \"Invalid request id\") */\n      tag_196\n      jumpi\n      mload(0x40)\n      0x08c379a000000000000000000000000000000000000000000000000000000000\n      dup2\n      mstore\n      0x04\n      add\n      tag_197\n      swap1\n      tag_135\n      jump\t// in\n    tag_197:\n      mload(0x40)\n      dup1\n      swap2\n      sub\n      swap1\n      revert\n    tag_196:\n        /* \"contracts/crowdfund.sol\":5013:5026  isContributor */\n      0x08\n        /* \"contracts/crowdfund.sol\":5013:5038  isContributor[msg.sender] */\n      0x00\n        /* \"contracts/crowdfund.sol\":5027:5037  msg.sender */\n      caller\n        /* \"contracts/crowdfund.sol\":5013:5038  isContributor[msg.sender] */\n      0xffffffffffffffffffffffffffffffffffffffff\n      and\n      0xffffffffffffffffffffffffffffffffffffffff\n      and\n      dup2\n      mstore\n      0x20\n      add\n      swap1\n      dup2\n      mstore\n      0x20\n      add\n      0x00\n      keccak256\n      0x00\n      swap1\n      sload\n      swap1\n      0x0100\n      exp\n      swap1\n      div\n      0xff\n      and\n        /* \"contracts/crowdfund.sol\":5005:5069  require(isContributor[msg.sender], \"Only contributors can vote\") */\n      tag_198\n      jumpi\n      mload(0x40)\n      0x08c379a000000000000000000000000000000000000000000000000000000000\n      dup2\n      mstore\n      0x04\n      add\n      tag_199\n      swap1\n      tag_200\n      jump\t// in\n    tag_199:\n      mload(0x40)\n      dup1\n      swap2\n      sub\n      swap1\n      revert\n    tag_198:\n        /* \"contracts/crowdfund.sol\":5082:5101  Request storage req */\n      0x00\n        /* \"contracts/crowdfund.sol\":5104:5112  requests */\n      0x06\n        /* \"contracts/crowdfund.sol\":5113:5122  requestId */\n      dup3\n        /* \"contracts/crowdfund.sol\":5104:5123  requests[requestId] */\n      dup2\n      sload\n      dup2\n      lt\n      tag_201\n      jumpi\n      tag_202\n      tag_138\n      jump\t// in\n    tag_202:\n    tag_201:\n      swap1\n      0x00\n      mstore\n      keccak256(0x00, 0x20)\n      swap1\n      0x06\n      mul\n      add\n        /* \"contracts/crowdfund.sol\":5082:5123  Request storage req = requests[requestId] */\n      swap1\n      pop\n        /* \"contracts/crowdfund.sol\":5143:5146  req */\n      dup1\n        /* \"contracts/crowdfund.sol\":5143:5156  req.completed */\n      0x03\n      add\n      0x00\n      swap1\n      sload\n      swap1\n      0x0100\n      exp\n      swap1\n      div\n      0xff\n      and\n        /* \"contracts/crowdfund.sol\":5142:5156  !req.completed */\n      iszero\n        /* \"contracts/crowdfund.sol\":5134:5186  require(!req.completed, \"Request already completed\") */\n      tag_204\n      jumpi\n      mload(0x40)\n      0x08c379a000000000000000000000000000000000000000000000000000000000\n      dup2\n      mstore\n      0x04\n      add\n      tag_205\n      swap1\n      tag_206\n      jump\t// in\n    tag_205:\n      mload(0x40)\n      dup1\n      swap2\n      sub\n      swap1\n      revert\n    tag_204:\n        /* \"contracts/crowdfund.sol\":5206:5209  req */\n      dup1\n        /* \"contracts/crowdfund.sol\":5206:5216  req.voters */\n      0x05\n      add\n        /* \"contracts/crowdfund.sol\":5206:5228  req.voters[msg.sender] */\n      0x00\n        /* \"contracts/crowdfund.sol\":5217:5227  msg.sender */\n      caller\n        /* \"contracts/crowdfund.sol\":5206:5228  req.voters[msg.sender] */\n      0xffffffffffffffffffffffffffffffffffffffff\n      and\n      0xffffffffffffffffffffffffffffffffffffffff\n      and\n      dup2\n      mstore\n      0x20\n      add\n      swap1\n      dup2\n      mstore\n      0x20\n      add\n      0x00\n      keccak256\n      0x00\n      swap1\n      sload\n      swap1\n      0x0100\n      exp\n      swap1\n      div\n      0xff\n      and\n        /* \"contracts/crowdfund.sol\":5205:5228  !req.voters[msg.sender] */\n      iszero\n        /* \"contracts/crowdfund.sol\":5197:5263  require(!req.voters[msg.sender], \"Already voted for this request\") */\n      tag_207\n      jumpi\n      mload(0x40)\n      0x08c379a000000000000000000000000000000000000000000000000000000000\n      dup2\n      mstore\n      0x04\n      add\n      tag_208\n      swap1\n      tag_209\n      jump\t// in\n    tag_208:\n      mload(0x40)\n      dup1\n      swap2\n      sub\n      swap1\n      revert\n    tag_207:\n        /* \"contracts/crowdfund.sol\":5301:5305  true */\n      0x01\n        /* \"contracts/crowdfund.sol\":5276:5279  req */\n      dup2\n        /* \"contracts/crowdfund.sol\":5276:5286  req.voters */\n      0x05\n      add\n        /* \"contracts/crowdfund.sol\":5276:5298  req.voters[msg.sender] */\n      0x00\n        /* \"contracts/crowdfund.sol\":5287:5297  msg.sender */\n      caller\n        /* \"contracts/crowdfund.sol\":5276:5298  req.voters[msg.sender] */\n      0xffffffffffffffffffffffffffffffffffffffff\n      and\n      0xffffffffffffffffffffffffffffffffffffffff\n      and\n      dup2\n      mstore\n      0x20\n      add\n      swap1\n      dup2\n      mstore\n      0x20\n      add\n      0x00\n      keccak256\n      0x00\n        /* \"contracts/crowdfund.sol\":5276:5305  req.voters[msg.sender] = true */\n      0x0100\n      exp\n      dup2\n      sload\n      dup2\n      0xff\n      mul\n      not\n      and\n      swap1\n      dup4\n      iszero\n      iszero\n      mul\n      or\n      swap1\n      sstore\n      pop\n        /* \"contracts/crowdfund.sol\":5333:5334  1 */\n      0x01\n        /* \"contracts/crowdfund.sol\":5316:5319  req */\n      dup2\n        /* \"contracts/crowdfund.sol\":5316:5329  req.voteCount */\n      0x04\n      add\n      0x00\n        /* \"contracts/crowdfund.sol\":5316:5334  req.voteCount += 1 */\n      dup3\n      dup3\n      sload\n      tag_210\n      swap2\n      swap1\n      tag_31\n      jump\t// in\n    tag_210:\n      swap3\n      pop\n      pop\n      dup2\n      swap1\n      sstore\n      pop\n        /* \"contracts/crowdfund.sol\":5370:5379  requestId */\n      dup2\n        /* \"contracts/crowdfund.sol\":5358:5368  msg.sender */\n      caller\n        /* \"contracts/crowdfund.sol\":5352:5380  Voted(msg.sender, requestId) */\n      0xffffffffffffffffffffffffffffffffffffffff\n      and\n      0x4d99b957a2bc29a30ebd96a7be8e68fe50a3c701db28a91436490b7d53870ca4\n      mload(0x40)\n      mload(0x40)\n      dup1\n      swap2\n      sub\n      swap1\n      log3\n        /* \"contracts/crowdfund.sol\":4925:5388  {... */\n      pop\n        /* \"contracts/crowdfund.sol\":4879:5388  function voteRequest(uint requestId) external {... */\n      pop\n      jump\t// out\n        /* \"contracts/crowdfund.sol\":6690:7714  function refund() external nonReentrant afterDeadline {... */\n    tag_94:\n        /* \"contracts/crowdfund.sol\":2132:2133  1 */\n      0x01\n        /* \"contracts/crowdfund.sol\":2120:2128  unlocked */\n      sload(0x09)\n        /* \"contracts/crowdfund.sol\":2120:2133  unlocked == 1 */\n      eq\n        /* \"contracts/crowdfund.sol\":2112:2152  require(unlocked == 1, \"Reentrant call\") */\n      tag_212\n      jumpi\n      mload(0x40)\n      0x08c379a000000000000000000000000000000000000000000000000000000000\n      dup2\n      mstore\n      0x04\n      add\n      tag_213\n      swap1\n      tag_131\n      jump\t// in\n    tag_213:\n      mload(0x40)\n      dup1\n      swap2\n      sub\n      swap1\n      revert\n    tag_212:\n        /* \"contracts/crowdfund.sol\":2174:2175  0 */\n      0x00\n        /* \"contracts/crowdfund.sol\":2163:2171  unlocked */\n      0x09\n        /* \"contracts/crowdfund.sol\":2163:2175  unlocked = 0 */\n      dup2\n      swap1\n      sstore\n      pop\n        /* \"contracts/crowdfund.sol\":2428:2436  deadline */\n      sload(0x02)\n        /* \"contracts/crowdfund.sol\":2409:2424  block.timestamp */\n      timestamp\n        /* \"contracts/crowdfund.sol\":2409:2436  block.timestamp >= deadline */\n      lt\n      iszero\n        /* \"contracts/crowdfund.sol\":2401:2475  require(block.timestamp >= deadline, \"Action allowed only after deadline\") */\n      tag_215\n      jumpi\n      mload(0x40)\n      0x08c379a000000000000000000000000000000000000000000000000000000000\n      dup2\n      mstore\n      0x04\n      add\n      tag_216\n      swap1\n      tag_217\n      jump\t// in\n    tag_216:\n      mload(0x40)\n      dup1\n      swap2\n      sub\n      swap1\n      revert\n    tag_215:\n        /* \"contracts/crowdfund.sol\":6764:6775  goalReached */\n      0x04\n      0x00\n      swap1\n      sload\n      swap1\n      0x0100\n      exp\n      swap1\n      div\n      0xff\n      and\n        /* \"contracts/crowdfund.sol\":6763:6775  !goalReached */\n      iszero\n        /* \"contracts/crowdfund.sol\":6755:6815  require(!goalReached, \"Goal reached; refunds not available\") */\n      tag_219\n      jumpi\n      mload(0x40)\n      0x08c379a000000000000000000000000000000000000000000000000000000000\n      dup2\n      mstore\n      0x04\n      add\n      tag_220\n      swap1\n      tag_221\n      jump\t// in\n    tag_220:\n      mload(0x40)\n      dup1\n      swap2\n      sub\n      swap1\n      revert\n    tag_219:\n        /* \"contracts/crowdfund.sol\":6826:6842  uint contributed */\n      0x00\n        /* \"contracts/crowdfund.sol\":6845:6858  contributions */\n      0x07\n        /* \"contracts/crowdfund.sol\":6845:6870  contributions[msg.sender] */\n      0x00\n        /* \"contracts/crowdfund.sol\":6859:6869  msg.sender */\n      caller\n        /* \"contracts/crowdfund.sol\":6845:6870  contributions[msg.sender] */\n      0xffffffffffffffffffffffffffffffffffffffff\n      and\n      0xffffffffffffffffffffffffffffffffffffffff\n      and\n      dup2\n      mstore\n      0x20\n      add\n      swap1\n      dup2\n      mstore\n      0x20\n      add\n      0x00\n      keccak256\n      sload\n        /* \"contracts/crowdfund.sol\":6826:6870  uint contributed = contributions[msg.sender] */\n      swap1\n      pop\n        /* \"contracts/crowdfund.sol\":6903:6904  0 */\n      0x00\n        /* \"contracts/crowdfund.sol\":6889:6900  contributed */\n      dup2\n        /* \"contracts/crowdfund.sol\":6889:6904  contributed > 0 */\n      gt\n        /* \"contracts/crowdfund.sol\":6881:6935  require(contributed > 0, \"No contributions to refund\") */\n      tag_222\n      jumpi\n      mload(0x40)\n      0x08c379a000000000000000000000000000000000000000000000000000000000\n      dup2\n      mstore\n      0x04\n      add\n      tag_223\n      swap1\n      tag_224\n      jump\t// in\n    tag_223:\n      mload(0x40)\n      dup1\n      swap2\n      sub\n      swap1\n      revert\n    tag_222:\n        /* \"contracts/crowdfund.sol\":7042:7043  0 */\n      0x00\n        /* \"contracts/crowdfund.sol\":7014:7027  contributions */\n      0x07\n        /* \"contracts/crowdfund.sol\":7014:7039  contributions[msg.sender] */\n      0x00\n        /* \"contracts/crowdfund.sol\":7028:7038  msg.sender */\n      caller\n        /* \"contracts/crowdfund.sol\":7014:7039  contributions[msg.sender] */\n      0xffffffffffffffffffffffffffffffffffffffff\n      and\n      0xffffffffffffffffffffffffffffffffffffffff\n      and\n      dup2\n      mstore\n      0x20\n      add\n      swap1\n      dup2\n      mstore\n      0x20\n      add\n      0x00\n      keccak256\n        /* \"contracts/crowdfund.sol\":7014:7043  contributions[msg.sender] = 0 */\n      dup2\n      swap1\n      sstore\n      pop\n        /* \"contracts/crowdfund.sol\":7082:7087  false */\n      0x00\n        /* \"contracts/crowdfund.sol\":7054:7067  isContributor */\n      0x08\n        /* \"contracts/crowdfund.sol\":7054:7079  isContributor[msg.sender] */\n      0x00\n        /* \"contracts/crowdfund.sol\":7068:7078  msg.sender */\n      caller\n        /* \"contracts/crowdfund.sol\":7054:7079  isContributor[msg.sender] */\n      0xffffffffffffffffffffffffffffffffffffffff\n      and\n      0xffffffffffffffffffffffffffffffffffffffff\n      and\n      dup2\n      mstore\n      0x20\n      add\n      swap1\n      dup2\n      mstore\n      0x20\n      add\n      0x00\n      keccak256\n      0x00\n        /* \"contracts/crowdfund.sol\":7054:7087  isContributor[msg.sender] = false */\n      0x0100\n      exp\n      dup2\n      sload\n      dup2\n      0xff\n      mul\n      not\n      and\n      swap1\n      dup4\n      iszero\n      iszero\n      mul\n      or\n      swap1\n      sstore\n      pop\n        /* \"contracts/crowdfund.sol\":7435:7436  0 */\n      0x00\n        /* \"contracts/crowdfund.sol\":7415:7432  contributorsCount */\n      sload(0x05)\n        /* \"contracts/crowdfund.sol\":7415:7436  contributorsCount > 0 */\n      gt\n        /* \"contracts/crowdfund.sol\":7411:7487  if (contributorsCount > 0) {... */\n      iszero\n      tag_225\n      jumpi\n        /* \"contracts/crowdfund.sol\":7474:7475  1 */\n      0x01\n        /* \"contracts/crowdfund.sol\":7453:7470  contributorsCount */\n      0x05\n      0x00\n        /* \"contracts/crowdfund.sol\":7453:7475  contributorsCount -= 1 */\n      dup3\n      dup3\n      sload\n      tag_226\n      swap2\n      swap1\n      tag_184\n      jump\t// in\n    tag_226:\n      swap3\n      pop\n      pop\n      dup2\n      swap1\n      sstore\n      pop\n        /* \"contracts/crowdfund.sol\":7411:7487  if (contributorsCount > 0) {... */\n    tag_225:\n        /* \"contracts/crowdfund.sol\":7500:7509  bool sent */\n      0x00\n        /* \"contracts/crowdfund.sol\":7523:7533  msg.sender */\n      caller\n        /* \"contracts/crowdfund.sol\":7515:7539  payable(msg.sender).call */\n      0xffffffffffffffffffffffffffffffffffffffff\n      and\n        /* \"contracts/crowdfund.sol\":7547:7558  contributed */\n      dup3\n        /* \"contracts/crowdfund.sol\":7515:7563  payable(msg.sender).call{value: contributed}(\"\") */\n      mload(0x40)\n      tag_227\n      swap1\n      tag_158\n      jump\t// in\n    tag_227:\n      0x00\n      mload(0x40)\n      dup1\n      dup4\n      sub\n      dup2\n      dup6\n      dup8\n      gas\n      call\n      swap3\n      pop\n      pop\n      pop\n      returndatasize\n      dup1\n      0x00\n      dup2\n      eq\n      tag_230\n      jumpi\n      mload(0x40)\n      swap2\n      pop\n      and(add(returndatasize, 0x3f), not(0x1f))\n      dup3\n      add\n      0x40\n      mstore\n      returndatasize\n      dup3\n      mstore\n      returndatasize\n      0x00\n      0x20\n      dup5\n      add\n      returndatacopy\n      jump(tag_229)\n    tag_230:\n      0x60\n      swap2\n      pop\n    tag_229:\n      pop\n        /* \"contracts/crowdfund.sol\":7499:7563  (bool sent, ) = payable(msg.sender).call{value: contributed}(\"\") */\n      pop\n      swap1\n      pop\n        /* \"contracts/crowdfund.sol\":7582:7586  sent */\n      dup1\n        /* \"contracts/crowdfund.sol\":7574:7613  require(sent, \"Refund transfer failed\") */\n      tag_231\n      jumpi\n      mload(0x40)\n      0x08c379a000000000000000000000000000000000000000000000000000000000\n      dup2\n      mstore\n      0x04\n      add\n      tag_232\n      swap1\n      tag_233\n      jump\t// in\n    tag_232:\n      mload(0x40)\n      dup1\n      swap2\n      sub\n      swap1\n      revert\n    tag_231:\n        /* \"contracts/crowdfund.sol\":7642:7653  contributed */\n      dup2\n        /* \"contracts/crowdfund.sol\":7626:7638  raisedAmount */\n      0x03\n      0x00\n        /* \"contracts/crowdfund.sol\":7626:7653  raisedAmount -= contributed */\n      dup3\n      dup3\n      sload\n      tag_234\n      swap2\n      swap1\n      tag_184\n      jump\t// in\n    tag_234:\n      swap3\n      pop\n      pop\n      dup2\n      swap1\n      sstore\n      pop\n        /* \"contracts/crowdfund.sol\":7682:7692  msg.sender */\n      caller\n        /* \"contracts/crowdfund.sol\":7669:7706  RefundIssued(msg.sender, contributed) */\n      0xffffffffffffffffffffffffffffffffffffffff\n      and\n      0xa171b6942063c6f2800ce40a780edce37baa2b618571b11eedd1e69e626e7d76\n        /* \"contracts/crowdfund.sol\":7694:7705  contributed */\n      dup4\n        /* \"contracts/crowdfund.sol\":7669:7706  RefundIssued(msg.sender, contributed) */\n      mload(0x40)\n      tag_235\n      swap2\n      swap1\n      tag_37\n      jump\t// in\n    tag_235:\n      mload(0x40)\n      dup1\n      swap2\n      sub\n      swap1\n      log2\n        /* \"contracts/crowdfund.sol\":6744:7714  {... */\n      pop\n      pop\n        /* \"contracts/crowdfund.sol\":2209:2210  1 */\n      0x01\n        /* \"contracts/crowdfund.sol\":2198:2206  unlocked */\n      0x09\n        /* \"contracts/crowdfund.sol\":2198:2210  unlocked = 1 */\n      dup2\n      swap1\n      sstore\n      pop\n        /* \"contracts/crowdfund.sol\":6690:7714  function refund() external nonReentrant afterDeadline {... */\n      jump\t// out\n        /* \"contracts/crowdfund.sol\":687:716  uint public contributorsCount */\n    tag_97:\n      sload(0x05)\n      dup2\n      jump\t// out\n        /* \"contracts/crowdfund.sol\":612:635  bool public goalReached */\n    tag_101:\n      0x04\n      0x00\n      swap1\n      sload\n      swap1\n      0x0100\n      exp\n      swap1\n      div\n      0xff\n      and\n      dup2\n      jump\t// out\n        /* \"contracts/crowdfund.sol\":8658:9164  function getRequest(uint requestId) external view returns (... */\n    tag_106:\n        /* \"contracts/crowdfund.sol\":8727:8752  string memory description */\n      0x60\n        /* \"contracts/crowdfund.sol\":8763:8780  address recipient */\n      0x00\n        /* \"contracts/crowdfund.sol\":8791:8801  uint value */\n      0x00\n        /* \"contracts/crowdfund.sol\":8812:8826  bool completed */\n      0x00\n        /* \"contracts/crowdfund.sol\":8837:8851  uint voteCount */\n      0x00\n        /* \"contracts/crowdfund.sol\":8890:8898  requests */\n      0x06\n        /* \"contracts/crowdfund.sol\":8890:8905  requests.length */\n      dup1\n      sload\n      swap1\n      pop\n        /* \"contracts/crowdfund.sol\":8878:8887  requestId */\n      dup7\n        /* \"contracts/crowdfund.sol\":8878:8905  requestId < requests.length */\n      lt\n        /* \"contracts/crowdfund.sol\":8870:8928  require(requestId < requests.length, \"Invalid request id\") */\n      tag_237\n      jumpi\n      mload(0x40)\n      0x08c379a000000000000000000000000000000000000000000000000000000000\n      dup2\n      mstore\n      0x04\n      add\n      tag_238\n      swap1\n      tag_135\n      jump\t// in\n    tag_238:\n      mload(0x40)\n      dup1\n      swap2\n      sub\n      swap1\n      revert\n    tag_237:\n        /* \"contracts/crowdfund.sol\":8939:8958  Request storage req */\n      0x00\n        /* \"contracts/crowdfund.sol\":8961:8969  requests */\n      0x06\n        /* \"contracts/crowdfund.sol\":8970:8979  requestId */\n      dup8\n        /* \"contracts/crowdfund.sol\":8961:8980  requests[requestId] */\n      dup2\n      sload\n      dup2\n      lt\n      tag_239\n      jumpi\n      tag_240\n      tag_138\n      jump\t// in\n    tag_240:\n    tag_239:\n      swap1\n      0x00\n      mstore\n      keccak256(0x00, 0x20)\n      swap1\n      0x06\n      mul\n      add\n        /* \"contracts/crowdfund.sol\":8939:8980  Request storage req = requests[requestId] */\n      swap1\n      pop\n        /* \"contracts/crowdfund.sol\":9005:9008  req */\n      dup1\n        /* \"contracts/crowdfund.sol\":9005:9020  req.description */\n      0x00\n      add\n        /* \"contracts/crowdfund.sol\":8991:9020  description = req.description */\n      dup1\n      sload\n      tag_242\n      swap1\n      tag_243\n      jump\t// in\n    tag_242:\n      dup1\n      0x1f\n      add\n      0x20\n      dup1\n      swap2\n      div\n      mul\n      0x20\n      add\n      mload(0x40)\n      swap1\n      dup2\n      add\n      0x40\n      mstore\n      dup1\n      swap3\n      swap2\n      swap1\n      dup2\n      dup2\n      mstore\n      0x20\n      add\n      dup3\n      dup1\n      sload\n      tag_244\n      swap1\n      tag_243\n      jump\t// in\n    tag_244:\n      dup1\n      iszero\n      tag_245\n      jumpi\n      dup1\n      0x1f\n      lt\n      tag_246\n      jumpi\n      0x0100\n      dup1\n      dup4\n      sload\n      div\n      mul\n      dup4\n      mstore\n      swap2\n      0x20\n      add\n      swap2\n      jump(tag_245)\n    tag_246:\n      dup3\n      add\n      swap2\n      swap1\n      0x00\n      mstore\n      keccak256(0x00, 0x20)\n      swap1\n    tag_247:\n      dup2\n      sload\n      dup2\n      mstore\n      swap1\n      0x01\n      add\n      swap1\n      0x20\n      add\n      dup1\n      dup4\n      gt\n      tag_247\n      jumpi\n      dup3\n      swap1\n      sub\n      0x1f\n      and\n      dup3\n      add\n      swap2\n    tag_245:\n      pop\n      pop\n      pop\n      pop\n      pop\n      swap6\n      pop\n        /* \"contracts/crowdfund.sol\":9043:9046  req */\n      dup1\n        /* \"contracts/crowdfund.sol\":9043:9056  req.recipient */\n      0x01\n      add\n      0x00\n      swap1\n      sload\n      swap1\n      0x0100\n      exp\n      swap1\n      div\n      0xffffffffffffffffffffffffffffffffffffffff\n      and\n        /* \"contracts/crowdfund.sol\":9031:9056  recipient = req.recipient */\n      swap5\n      pop\n        /* \"contracts/crowdfund.sol\":9075:9078  req */\n      dup1\n        /* \"contracts/crowdfund.sol\":9075:9084  req.value */\n      0x02\n      add\n      sload\n        /* \"contracts/crowdfund.sol\":9067:9084  value = req.value */\n      swap4\n      pop\n        /* \"contracts/crowdfund.sol\":9107:9110  req */\n      dup1\n        /* \"contracts/crowdfund.sol\":9107:9120  req.completed */\n      0x03\n      add\n      0x00\n      swap1\n      sload\n      swap1\n      0x0100\n      exp\n      swap1\n      div\n      0xff\n      and\n        /* \"contracts/crowdfund.sol\":9095:9120  completed = req.completed */\n      swap3\n      pop\n        /* \"contracts/crowdfund.sol\":9143:9146  req */\n      dup1\n        /* \"contracts/crowdfund.sol\":9143:9156  req.voteCount */\n      0x04\n      add\n      sload\n        /* \"contracts/crowdfund.sol\":9131:9156  voteCount = req.voteCount */\n      swap2\n      pop\n        /* \"contracts/crowdfund.sol\":8859:9164  {... */\n      pop\n        /* \"contracts/crowdfund.sol\":8658:9164  function getRequest(uint requestId) external view returns (... */\n      swap2\n      swap4\n      swap6\n      swap1\n      swap3\n      swap5\n      pop\n      jump\t// out\n        /* \"contracts/crowdfund.sol\":554:578  uint public raisedAmount */\n    tag_111:\n      sload(0x03)\n      dup2\n      jump\t// out\n        /* \"contracts/crowdfund.sol\":395:413  uint public target */\n    tag_115:\n      sload(0x01)\n      dup2\n      jump\t// out\n        /* \"contracts/crowdfund.sol\":3020:3671  function contribute() external payable beforeDeadline nonReentrant {... */\n    tag_118:\n        /* \"contracts/crowdfund.sol\":2289:2297  deadline */\n      sload(0x02)\n        /* \"contracts/crowdfund.sol\":2271:2286  block.timestamp */\n      timestamp\n        /* \"contracts/crowdfund.sol\":2271:2297  block.timestamp < deadline */\n      lt\n        /* \"contracts/crowdfund.sol\":2263:2337  require(block.timestamp < deadline, \"Action allowed only before deadline\") */\n      tag_249\n      jumpi\n      mload(0x40)\n      0x08c379a000000000000000000000000000000000000000000000000000000000\n      dup2\n      mstore\n      0x04\n      add\n      tag_250\n      swap1\n      tag_251\n      jump\t// in\n    tag_250:\n      mload(0x40)\n      dup1\n      swap2\n      sub\n      swap1\n      revert\n    tag_249:\n        /* \"contracts/crowdfund.sol\":2132:2133  1 */\n      0x01\n        /* \"contracts/crowdfund.sol\":2120:2128  unlocked */\n      sload(0x09)\n        /* \"contracts/crowdfund.sol\":2120:2133  unlocked == 1 */\n      eq\n        /* \"contracts/crowdfund.sol\":2112:2152  require(unlocked == 1, \"Reentrant call\") */\n      tag_253\n      jumpi\n      mload(0x40)\n      0x08c379a000000000000000000000000000000000000000000000000000000000\n      dup2\n      mstore\n      0x04\n      add\n      tag_254\n      swap1\n      tag_131\n      jump\t// in\n    tag_254:\n      mload(0x40)\n      dup1\n      swap2\n      sub\n      swap1\n      revert\n    tag_253:\n        /* \"contracts/crowdfund.sol\":2174:2175  0 */\n      0x00\n        /* \"contracts/crowdfund.sol\":2163:2171  unlocked */\n      0x09\n        /* \"contracts/crowdfund.sol\":2163:2175  unlocked = 0 */\n      dup2\n      swap1\n      sstore\n      pop\n        /* \"contracts/crowdfund.sol\":3118:3119  0 */\n      0x00\n        /* \"contracts/crowdfund.sol\":3106:3115  msg.value */\n      callvalue\n        /* \"contracts/crowdfund.sol\":3106:3119  msg.value > 0 */\n      gt\n        /* \"contracts/crowdfund.sol\":3098:3137  require(msg.value > 0, \"Must send ETH\") */\n      tag_256\n      jumpi\n      mload(0x40)\n      0x08c379a000000000000000000000000000000000000000000000000000000000\n      dup2\n      mstore\n      0x04\n      add\n      tag_257\n      swap1\n      tag_258\n      jump\t// in\n    tag_257:\n      mload(0x40)\n      dup1\n      swap2\n      sub\n      swap1\n      revert\n    tag_256:\n        /* \"contracts/crowdfund.sol\":3190:3203  isContributor */\n      0x08\n        /* \"contracts/crowdfund.sol\":3190:3215  isContributor[msg.sender] */\n      0x00\n        /* \"contracts/crowdfund.sol\":3204:3214  msg.sender */\n      caller\n        /* \"contracts/crowdfund.sol\":3190:3215  isContributor[msg.sender] */\n      0xffffffffffffffffffffffffffffffffffffffff\n      and\n      0xffffffffffffffffffffffffffffffffffffffff\n      and\n      dup2\n      mstore\n      0x20\n      add\n      swap1\n      dup2\n      mstore\n      0x20\n      add\n      0x00\n      keccak256\n      0x00\n      swap1\n      sload\n      swap1\n      0x0100\n      exp\n      swap1\n      div\n      0xff\n      and\n        /* \"contracts/crowdfund.sol\":3185:3313  if (!isContributor[msg.sender]) {... */\n      tag_259\n      jumpi\n        /* \"contracts/crowdfund.sol\":3260:3264  true */\n      0x01\n        /* \"contracts/crowdfund.sol\":3232:3245  isContributor */\n      0x08\n        /* \"contracts/crowdfund.sol\":3232:3257  isContributor[msg.sender] */\n      0x00\n        /* \"contracts/crowdfund.sol\":3246:3256  msg.sender */\n      caller\n        /* \"contracts/crowdfund.sol\":3232:3257  isContributor[msg.sender] */\n      0xffffffffffffffffffffffffffffffffffffffff\n      and\n      0xffffffffffffffffffffffffffffffffffffffff\n      and\n      dup2\n      mstore\n      0x20\n      add\n      swap1\n      dup2\n      mstore\n      0x20\n      add\n      0x00\n      keccak256\n      0x00\n        /* \"contracts/crowdfund.sol\":3232:3264  isContributor[msg.sender] = true */\n      0x0100\n      exp\n      dup2\n      sload\n      dup2\n      0xff\n      mul\n      not\n      and\n      swap1\n      dup4\n      iszero\n      iszero\n      mul\n      or\n      swap1\n      sstore\n      pop\n        /* \"contracts/crowdfund.sol\":3300:3301  1 */\n      0x01\n        /* \"contracts/crowdfund.sol\":3279:3296  contributorsCount */\n      0x05\n      0x00\n        /* \"contracts/crowdfund.sol\":3279:3301  contributorsCount += 1 */\n      dup3\n      dup3\n      sload\n      tag_260\n      swap2\n      swap1\n      tag_31\n      jump\t// in\n    tag_260:\n      swap3\n      pop\n      pop\n      dup2\n      swap1\n      sstore\n      pop\n        /* \"contracts/crowdfund.sol\":3185:3313  if (!isContributor[msg.sender]) {... */\n    tag_259:\n        /* \"contracts/crowdfund.sol\":3354:3363  msg.value */\n      callvalue\n        /* \"contracts/crowdfund.sol\":3325:3338  contributions */\n      0x07\n        /* \"contracts/crowdfund.sol\":3325:3350  contributions[msg.sender] */\n      0x00\n        /* \"contracts/crowdfund.sol\":3339:3349  msg.sender */\n      caller\n        /* \"contracts/crowdfund.sol\":3325:3350  contributions[msg.sender] */\n      0xffffffffffffffffffffffffffffffffffffffff\n      and\n      0xffffffffffffffffffffffffffffffffffffffff\n      and\n      dup2\n      mstore\n      0x20\n      add\n      swap1\n      dup2\n      mstore\n      0x20\n      add\n      0x00\n      keccak256\n      0x00\n        /* \"contracts/crowdfund.sol\":3325:3363  contributions[msg.sender] += msg.value */\n      dup3\n      dup3\n      sload\n      tag_261\n      swap2\n      swap1\n      tag_31\n      jump\t// in\n    tag_261:\n      swap3\n      pop\n      pop\n      dup2\n      swap1\n      sstore\n      pop\n        /* \"contracts/crowdfund.sol\":3390:3399  msg.value */\n      callvalue\n        /* \"contracts/crowdfund.sol\":3374:3386  raisedAmount */\n      0x03\n      0x00\n        /* \"contracts/crowdfund.sol\":3374:3399  raisedAmount += msg.value */\n      dup3\n      dup3\n      sload\n      tag_262\n      swap2\n      swap1\n      tag_31\n      jump\t// in\n    tag_262:\n      swap3\n      pop\n      pop\n      dup2\n      swap1\n      sstore\n      pop\n        /* \"contracts/crowdfund.sol\":3474:3485  goalReached */\n      0x04\n      0x00\n      swap1\n      sload\n      swap1\n      0x0100\n      exp\n      swap1\n      div\n      0xff\n      and\n        /* \"contracts/crowdfund.sol\":3473:3485  !goalReached */\n      iszero\n        /* \"contracts/crowdfund.sol\":3473:3511  !goalReached && raisedAmount >= target */\n      dup1\n      iszero\n      tag_263\n      jumpi\n      pop\n        /* \"contracts/crowdfund.sol\":3505:3511  target */\n      sload(0x01)\n        /* \"contracts/crowdfund.sol\":3489:3501  raisedAmount */\n      sload(0x03)\n        /* \"contracts/crowdfund.sol\":3489:3511  raisedAmount >= target */\n      lt\n      iszero\n        /* \"contracts/crowdfund.sol\":3473:3511  !goalReached && raisedAmount >= target */\n    tag_263:\n        /* \"contracts/crowdfund.sol\":3469:3603  if (!goalReached && raisedAmount >= target) {... */\n      iszero\n      tag_264\n      jumpi\n        /* \"contracts/crowdfund.sol\":3542:3546  true */\n      0x01\n        /* \"contracts/crowdfund.sol\":3528:3539  goalReached */\n      0x04\n      0x00\n        /* \"contracts/crowdfund.sol\":3528:3546  goalReached = true */\n      0x0100\n      exp\n      dup2\n      sload\n      dup2\n      0xff\n      mul\n      not\n      and\n      swap1\n      dup4\n      iszero\n      iszero\n      mul\n      or\n      swap1\n      sstore\n      pop\n        /* \"contracts/crowdfund.sol\":3566:3591  GoalReached(raisedAmount) */\n      0xfbfd8ab7c24300fa9888cd721c8565a7da56759384781283684dcf7c7c4a846b\n        /* \"contracts/crowdfund.sol\":3578:3590  raisedAmount */\n      sload(0x03)\n        /* \"contracts/crowdfund.sol\":3566:3591  GoalReached(raisedAmount) */\n      mload(0x40)\n      tag_265\n      swap2\n      swap1\n      tag_37\n      jump\t// in\n    tag_265:\n      mload(0x40)\n      dup1\n      swap2\n      sub\n      swap1\n      log1\n        /* \"contracts/crowdfund.sol\":3469:3603  if (!goalReached && raisedAmount >= target) {... */\n    tag_264:\n        /* \"contracts/crowdfund.sol\":3641:3651  msg.sender */\n      caller\n        /* \"contracts/crowdfund.sol\":3620:3663  ContributionReceived(msg.sender, msg.value) */\n      0xffffffffffffffffffffffffffffffffffffffff\n      and\n      0x1bb460ccaaf70fbacfec17a376f8acbd278c1405590ffcc8ebe4b88daf4f64ad\n        /* \"contracts/crowdfund.sol\":3653:3662  msg.value */\n      callvalue\n        /* \"contracts/crowdfund.sol\":3620:3663  ContributionReceived(msg.sender, msg.value) */\n      mload(0x40)\n      tag_266\n      swap2\n      swap1\n      tag_37\n      jump\t// in\n    tag_266:\n      mload(0x40)\n      dup1\n      swap2\n      sub\n      swap1\n      log2\n        /* \"contracts/crowdfund.sol\":2209:2210  1 */\n      0x01\n        /* \"contracts/crowdfund.sol\":2198:2206  unlocked */\n      0x09\n        /* \"contracts/crowdfund.sol\":2198:2210  unlocked = 1 */\n      dup2\n      swap1\n      sstore\n      pop\n        /* \"contracts/crowdfund.sol\":3020:3671  function contribute() external payable beforeDeadline nonReentrant {... */\n      jump\t// out\n        /* \"contracts/crowdfund.sol\":9509:9638  function getContributionOf(address contributor) external view returns (uint) {... */\n    tag_122:\n        /* \"contracts/crowdfund.sol\":9580:9584  uint */\n      0x00\n        /* \"contracts/crowdfund.sol\":9604:9617  contributions */\n      0x07\n        /* \"contracts/crowdfund.sol\":9604:9630  contributions[contributor] */\n      0x00\n        /* \"contracts/crowdfund.sol\":9618:9629  contributor */\n      dup4\n        /* \"contracts/crowdfund.sol\":9604:9630  contributions[contributor] */\n      0xffffffffffffffffffffffffffffffffffffffff\n      and\n      0xffffffffffffffffffffffffffffffffffffffff\n      and\n      dup2\n      mstore\n      0x20\n      add\n      swap1\n      dup2\n      mstore\n      0x20\n      add\n      0x00\n      keccak256\n      sload\n        /* \"contracts/crowdfund.sol\":9597:9630  return contributions[contributor] */\n      swap1\n      pop\n        /* \"contracts/crowdfund.sol\":9509:9638  function getContributionOf(address contributor) external view returns (uint) {... */\n      swap2\n      swap1\n      pop\n      jump\t// out\n        /* \"#utility.yul\":7:176   */\n    tag_268:\n        /* \"#utility.yul\":91:102   */\n      0x00\n        /* \"#utility.yul\":125:131   */\n      dup3\n        /* \"#utility.yul\":120:123   */\n      dup3\n        /* \"#utility.yul\":113:132   */\n      mstore\n        /* \"#utility.yul\":165:169   */\n      0x20\n        /* \"#utility.yul\":160:163   */\n      dup3\n        /* \"#utility.yul\":156:170   */\n      add\n        /* \"#utility.yul\":141:170   */\n      swap1\n      pop\n        /* \"#utility.yul\":7:176   */\n      swap3\n      swap2\n      pop\n      pop\n      jump\t// out\n        /* \"#utility.yul\":182:420   */\n    tag_269:\n        /* \"#utility.yul\":322:356   */\n      0x446561646c696e65207061737365643b2063616e6e6f74206163636570742064\n        /* \"#utility.yul\":318:319   */\n      0x00\n        /* \"#utility.yul\":310:316   */\n      dup3\n        /* \"#utility.yul\":306:320   */\n      add\n        /* \"#utility.yul\":299:357   */\n      mstore\n        /* \"#utility.yul\":391:412   */\n      0x697265637420636f6e747269627574696f6e7300000000000000000000000000\n        /* \"#utility.yul\":386:388   */\n      0x20\n        /* \"#utility.yul\":378:384   */\n      dup3\n        /* \"#utility.yul\":374:389   */\n      add\n        /* \"#utility.yul\":367:413   */\n      mstore\n        /* \"#utility.yul\":182:420   */\n      pop\n      jump\t// out\n        /* \"#utility.yul\":426:792   */\n    tag_270:\n        /* \"#utility.yul\":568:571   */\n      0x00\n        /* \"#utility.yul\":589:656   */\n      tag_370\n        /* \"#utility.yul\":653:655   */\n      0x33\n        /* \"#utility.yul\":648:651   */\n      dup4\n        /* \"#utility.yul\":589:656   */\n      tag_268\n      jump\t// in\n    tag_370:\n        /* \"#utility.yul\":582:656   */\n      swap2\n      pop\n        /* \"#utility.yul\":665:758   */\n      tag_371\n        /* \"#utility.yul\":754:757   */\n      dup3\n        /* \"#utility.yul\":665:758   */\n      tag_269\n      jump\t// in\n    tag_371:\n        /* \"#utility.yul\":783:785   */\n      0x40\n        /* \"#utility.yul\":778:781   */\n      dup3\n        /* \"#utility.yul\":774:786   */\n      add\n        /* \"#utility.yul\":767:786   */\n      swap1\n      pop\n        /* \"#utility.yul\":426:792   */\n      swap2\n      swap1\n      pop\n      jump\t// out\n        /* \"#utility.yul\":798:1217   */\n    tag_28:\n        /* \"#utility.yul\":964:968   */\n      0x00\n        /* \"#utility.yul\":1002:1004   */\n      0x20\n        /* \"#utility.yul\":991:1000   */\n      dup3\n        /* \"#utility.yul\":987:1005   */\n      add\n        /* \"#utility.yul\":979:1005   */\n      swap1\n      pop\n        /* \"#utility.yul\":1051:1060   */\n      dup2\n        /* \"#utility.yul\":1045:1049   */\n      dup2\n        /* \"#utility.yul\":1041:1061   */\n      sub\n        /* \"#utility.yul\":1037:1038   */\n      0x00\n        /* \"#utility.yul\":1026:1035   */\n      dup4\n        /* \"#utility.yul\":1022:1039   */\n      add\n        /* \"#utility.yul\":1015:1062   */\n      mstore\n        /* \"#utility.yul\":1079:1210   */\n      tag_373\n        /* \"#utility.yul\":1205:1209   */\n      dup2\n        /* \"#utility.yul\":1079:1210   */\n      tag_270\n      jump\t// in\n    tag_373:\n        /* \"#utility.yul\":1071:1210   */\n      swap1\n      pop\n        /* \"#utility.yul\":798:1217   */\n      swap2\n      swap1\n      pop\n      jump\t// out\n        /* \"#utility.yul\":1223:1300   */\n    tag_271:\n        /* \"#utility.yul\":1260:1267   */\n      0x00\n        /* \"#utility.yul\":1289:1294   */\n      dup2\n        /* \"#utility.yul\":1278:1294   */\n      swap1\n      pop\n        /* \"#utility.yul\":1223:1300   */\n      swap2\n      swap1\n      pop\n      jump\t// out\n        /* \"#utility.yul\":1306:1486   */\n    tag_272:\n        /* \"#utility.yul\":1354:1431   */\n      0x4e487b7100000000000000000000000000000000000000000000000000000000\n        /* \"#utility.yul\":1351:1352   */\n      0x00\n        /* \"#utility.yul\":1344:1432   */\n      mstore\n        /* \"#utility.yul\":1451:1455   */\n      0x11\n        /* \"#utility.yul\":1448:1449   */\n      0x04\n        /* \"#utility.yul\":1441:1456   */\n      mstore\n        /* \"#utility.yul\":1475:1479   */\n      0x24\n        /* \"#utility.yul\":1472:1473   */\n      0x00\n        /* \"#utility.yul\":1465:1480   */\n      revert\n        /* \"#utility.yul\":1492:1683   */\n    tag_31:\n        /* \"#utility.yul\":1532:1535   */\n      0x00\n        /* \"#utility.yul\":1551:1571   */\n      tag_377\n        /* \"#utility.yul\":1569:1570   */\n      dup3\n        /* \"#utility.yul\":1551:1571   */\n      tag_271\n      jump\t// in\n    tag_377:\n        /* \"#utility.yul\":1546:1571   */\n      swap2\n      pop\n        /* \"#utility.yul\":1585:1605   */\n      tag_378\n        /* \"#utility.yul\":1603:1604   */\n      dup4\n        /* \"#utility.yul\":1585:1605   */\n      tag_271\n      jump\t// in\n    tag_378:\n        /* \"#utility.yul\":1580:1605   */\n      swap3\n      pop\n        /* \"#utility.yul\":1628:1629   */\n      dup3\n        /* \"#utility.yul\":1625:1626   */\n      dup3\n        /* \"#utility.yul\":1621:1630   */\n      add\n        /* \"#utility.yul\":1614:1630   */\n      swap1\n      pop\n        /* \"#utility.yul\":1649:1652   */\n      dup1\n        /* \"#utility.yul\":1646:1647   */\n      dup3\n        /* \"#utility.yul\":1643:1653   */\n      gt\n        /* \"#utility.yul\":1640:1676   */\n      iszero\n      tag_379\n      jumpi\n        /* \"#utility.yul\":1656:1674   */\n      tag_380\n      tag_272\n      jump\t// in\n    tag_380:\n        /* \"#utility.yul\":1640:1676   */\n    tag_379:\n        /* \"#utility.yul\":1492:1683   */\n      swap3\n      swap2\n      pop\n      pop\n      jump\t// out\n        /* \"#utility.yul\":1689:1807   */\n    tag_273:\n        /* \"#utility.yul\":1776:1800   */\n      tag_382\n        /* \"#utility.yul\":1794:1799   */\n      dup2\n        /* \"#utility.yul\":1776:1800   */\n      tag_271\n      jump\t// in\n    tag_382:\n        /* \"#utility.yul\":1771:1774   */\n      dup3\n        /* \"#utility.yul\":1764:1801   */\n      mstore\n        /* \"#utility.yul\":1689:1807   */\n      pop\n      pop\n      jump\t// out\n        /* \"#utility.yul\":1813:2035   */\n    tag_37:\n        /* \"#utility.yul\":1906:1910   */\n      0x00\n        /* \"#utility.yul\":1944:1946   */\n      0x20\n        /* \"#utility.yul\":1933:1942   */\n      dup3\n        /* \"#utility.yul\":1929:1947   */\n      add\n        /* \"#utility.yul\":1921:1947   */\n      swap1\n      pop\n        /* \"#utility.yul\":1957:2028   */\n      tag_384\n        /* \"#utility.yul\":2025:2026   */\n      0x00\n        /* \"#utility.yul\":2014:2023   */\n      dup4\n        /* \"#utility.yul\":2010:2027   */\n      add\n        /* \"#utility.yul\":2001:2007   */\n      dup5\n        /* \"#utility.yul\":1957:2028   */\n      tag_273\n      jump\t// in\n    tag_384:\n        /* \"#utility.yul\":1813:2035   */\n      swap3\n      swap2\n      pop\n      pop\n      jump\t// out\n        /* \"#utility.yul\":2122:2239   */\n    tag_275:\n        /* \"#utility.yul\":2231:2232   */\n      0x00\n        /* \"#utility.yul\":2228:2229   */\n      0x00\n        /* \"#utility.yul\":2221:2233   */\n      revert\n        /* \"#utility.yul\":2245:2362   */\n    tag_276:\n        /* \"#utility.yul\":2354:2355   */\n      0x00\n        /* \"#utility.yul\":2351:2352   */\n      0x00\n        /* \"#utility.yul\":2344:2356   */\n      revert\n        /* \"#utility.yul\":2368:2490   */\n    tag_277:\n        /* \"#utility.yul\":2441:2465   */\n      tag_389\n        /* \"#utility.yul\":2459:2464   */\n      dup2\n        /* \"#utility.yul\":2441:2465   */\n      tag_271\n      jump\t// in\n    tag_389:\n        /* \"#utility.yul\":2434:2439   */\n      dup2\n        /* \"#utility.yul\":2431:2466   */\n      eq\n        /* \"#utility.yul\":2421:2484   */\n      tag_390\n      jumpi\n        /* \"#utility.yul\":2480:2481   */\n      0x00\n        /* \"#utility.yul\":2477:2478   */\n      0x00\n        /* \"#utility.yul\":2470:2482   */\n      revert\n        /* \"#utility.yul\":2421:2484   */\n    tag_390:\n        /* \"#utility.yul\":2368:2490   */\n      pop\n      jump\t// out\n        /* \"#utility.yul\":2496:2635   */\n    tag_278:\n        /* \"#utility.yul\":2542:2547   */\n      0x00\n        /* \"#utility.yul\":2580:2586   */\n      dup2\n        /* \"#utility.yul\":2567:2587   */\n      calldataload\n        /* \"#utility.yul\":2558:2587   */\n      swap1\n      pop\n        /* \"#utility.yul\":2596:2629   */\n      tag_392\n        /* \"#utility.yul\":2623:2628   */\n      dup2\n        /* \"#utility.yul\":2596:2629   */\n      tag_277\n      jump\t// in\n    tag_392:\n        /* \"#utility.yul\":2496:2635   */\n      swap3\n      swap2\n      pop\n      pop\n      jump\t// out\n        /* \"#utility.yul\":2641:2970   */\n    tag_45:\n        /* \"#utility.yul\":2700:2706   */\n      0x00\n        /* \"#utility.yul\":2749:2751   */\n      0x20\n        /* \"#utility.yul\":2737:2746   */\n      dup3\n        /* \"#utility.yul\":2728:2735   */\n      dup5\n        /* \"#utility.yul\":2724:2747   */\n      sub\n        /* \"#utility.yul\":2720:2752   */\n      slt\n        /* \"#utility.yul\":2717:2836   */\n      iszero\n      tag_394\n      jumpi\n        /* \"#utility.yul\":2755:2834   */\n      tag_395\n      tag_275\n      jump\t// in\n    tag_395:\n        /* \"#utility.yul\":2717:2836   */\n    tag_394:\n        /* \"#utility.yul\":2875:2876   */\n      0x00\n        /* \"#utility.yul\":2900:2953   */\n      tag_396\n        /* \"#utility.yul\":2945:2952   */\n      dup5\n        /* \"#utility.yul\":2936:2942   */\n      dup3\n        /* \"#utility.yul\":2925:2934   */\n      dup6\n        /* \"#utility.yul\":2921:2943   */\n      add\n        /* \"#utility.yul\":2900:2953   */\n      tag_278\n      jump\t// in\n    tag_396:\n        /* \"#utility.yul\":2890:2953   */\n      swap2\n      pop\n        /* \"#utility.yul\":2846:2963   */\n      pop\n        /* \"#utility.yul\":2641:2970   */\n      swap3\n      swap2\n      pop\n      pop\n      jump\t// out\n        /* \"#utility.yul\":2976:3093   */\n    tag_279:\n        /* \"#utility.yul\":3085:3086   */\n      0x00\n        /* \"#utility.yul\":3082:3083   */\n      0x00\n        /* \"#utility.yul\":3075:3087   */\n      revert\n        /* \"#utility.yul\":3099:3216   */\n    tag_280:\n        /* \"#utility.yul\":3208:3209   */\n      0x00\n        /* \"#utility.yul\":3205:3206   */\n      0x00\n        /* \"#utility.yul\":3198:3210   */\n      revert\n        /* \"#utility.yul\":3222:3339   */\n    tag_281:\n        /* \"#utility.yul\":3331:3332   */\n      0x00\n        /* \"#utility.yul\":3328:3329   */\n      0x00\n        /* \"#utility.yul\":3321:3333   */\n      revert\n        /* \"#utility.yul\":3359:3912   */\n    tag_282:\n        /* \"#utility.yul\":3417:3425   */\n      0x00\n        /* \"#utility.yul\":3427:3433   */\n      0x00\n        /* \"#utility.yul\":3477:3480   */\n      dup4\n        /* \"#utility.yul\":3470:3474   */\n      0x1f\n        /* \"#utility.yul\":3462:3468   */\n      dup5\n        /* \"#utility.yul\":3458:3475   */\n      add\n        /* \"#utility.yul\":3454:3481   */\n      slt\n        /* \"#utility.yul\":3444:3566   */\n      tag_401\n      jumpi\n        /* \"#utility.yul\":3485:3564   */\n      tag_402\n      tag_279\n      jump\t// in\n    tag_402:\n        /* \"#utility.yul\":3444:3566   */\n    tag_401:\n        /* \"#utility.yul\":3598:3604   */\n      dup3\n        /* \"#utility.yul\":3585:3605   */\n      calldataload\n        /* \"#utility.yul\":3575:3605   */\n      swap1\n      pop\n        /* \"#utility.yul\":3628:3646   */\n      0xffffffffffffffff\n        /* \"#utility.yul\":3620:3626   */\n      dup2\n        /* \"#utility.yul\":3617:3647   */\n      gt\n        /* \"#utility.yul\":3614:3731   */\n      iszero\n      tag_403\n      jumpi\n        /* \"#utility.yul\":3650:3729   */\n      tag_404\n      tag_280\n      jump\t// in\n    tag_404:\n        /* \"#utility.yul\":3614:3731   */\n    tag_403:\n        /* \"#utility.yul\":3764:3768   */\n      0x20\n        /* \"#utility.yul\":3756:3762   */\n      dup4\n        /* \"#utility.yul\":3752:3769   */\n      add\n        /* \"#utility.yul\":3740:3769   */\n      swap2\n      pop\n        /* \"#utility.yul\":3818:3821   */\n      dup4\n        /* \"#utility.yul\":3810:3814   */\n      0x01\n        /* \"#utility.yul\":3802:3808   */\n      dup3\n        /* \"#utility.yul\":3798:3815   */\n      mul\n        /* \"#utility.yul\":3788:3796   */\n      dup4\n        /* \"#utility.yul\":3784:3816   */\n      add\n        /* \"#utility.yul\":3781:3822   */\n      gt\n        /* \"#utility.yul\":3778:3906   */\n      iszero\n      tag_405\n      jumpi\n        /* \"#utility.yul\":3825:3904   */\n      tag_406\n      tag_281\n      jump\t// in\n    tag_406:\n        /* \"#utility.yul\":3778:3906   */\n    tag_405:\n        /* \"#utility.yul\":3359:3912   */\n      swap3\n      pop\n      swap3\n      swap1\n      pop\n      jump\t// out\n        /* \"#utility.yul\":3918:4044   */\n    tag_283:\n        /* \"#utility.yul\":3955:3962   */\n      0x00\n        /* \"#utility.yul\":3995:4037   */\n      0xffffffffffffffffffffffffffffffffffffffff\n        /* \"#utility.yul\":3988:3993   */\n      dup3\n        /* \"#utility.yul\":3984:4038   */\n      and\n        /* \"#utility.yul\":3973:4038   */\n      swap1\n      pop\n        /* \"#utility.yul\":3918:4044   */\n      swap2\n      swap1\n      pop\n      jump\t// out\n        /* \"#utility.yul\":4050:4154   */\n    tag_284:\n        /* \"#utility.yul\":4095:4102   */\n      0x00\n        /* \"#utility.yul\":4124:4148   */\n      tag_409\n        /* \"#utility.yul\":4142:4147   */\n      dup3\n        /* \"#utility.yul\":4124:4148   */\n      tag_283\n      jump\t// in\n    tag_409:\n        /* \"#utility.yul\":4113:4148   */\n      swap1\n      pop\n        /* \"#utility.yul\":4050:4154   */\n      swap2\n      swap1\n      pop\n      jump\t// out\n        /* \"#utility.yul\":4160:4298   */\n    tag_285:\n        /* \"#utility.yul\":4241:4273   */\n      tag_411\n        /* \"#utility.yul\":4267:4272   */\n      dup2\n        /* \"#utility.yul\":4241:4273   */\n      tag_284\n      jump\t// in\n    tag_411:\n        /* \"#utility.yul\":4234:4239   */\n      dup2\n        /* \"#utility.yul\":4231:4274   */\n      eq\n        /* \"#utility.yul\":4221:4292   */\n      tag_412\n      jumpi\n        /* \"#utility.yul\":4288:4289   */\n      0x00\n        /* \"#utility.yul\":4285:4286   */\n      0x00\n        /* \"#utility.yul\":4278:4290   */\n      revert\n        /* \"#utility.yul\":4221:4292   */\n    tag_412:\n        /* \"#utility.yul\":4160:4298   */\n      pop\n      jump\t// out\n        /* \"#utility.yul\":4304:4459   */\n    tag_286:\n        /* \"#utility.yul\":4358:4363   */\n      0x00\n        /* \"#utility.yul\":4396:4402   */\n      dup2\n        /* \"#utility.yul\":4383:4403   */\n      calldataload\n        /* \"#utility.yul\":4374:4403   */\n      swap1\n      pop\n        /* \"#utility.yul\":4412:4453   */\n      tag_414\n        /* \"#utility.yul\":4447:4452   */\n      dup2\n        /* \"#utility.yul\":4412:4453   */\n      tag_285\n      jump\t// in\n    tag_414:\n        /* \"#utility.yul\":4304:4459   */\n      swap3\n      swap2\n      pop\n      pop\n      jump\t// out\n        /* \"#utility.yul\":4465:5300   */\n    tag_50:\n        /* \"#utility.yul\":4562:4568   */\n      0x00\n        /* \"#utility.yul\":4570:4576   */\n      0x00\n        /* \"#utility.yul\":4578:4584   */\n      0x00\n        /* \"#utility.yul\":4586:4592   */\n      0x00\n        /* \"#utility.yul\":4635:4637   */\n      0x60\n        /* \"#utility.yul\":4623:4632   */\n      dup6\n        /* \"#utility.yul\":4614:4621   */\n      dup8\n        /* \"#utility.yul\":4610:4633   */\n      sub\n        /* \"#utility.yul\":4606:4638   */\n      slt\n        /* \"#utility.yul\":4603:4722   */\n      iszero\n      tag_416\n      jumpi\n        /* \"#utility.yul\":4641:4720   */\n      tag_417\n      tag_275\n      jump\t// in\n    tag_417:\n        /* \"#utility.yul\":4603:4722   */\n    tag_416:\n        /* \"#utility.yul\":4789:4790   */\n      0x00\n        /* \"#utility.yul\":4778:4787   */\n      dup6\n        /* \"#utility.yul\":4774:4791   */\n      add\n        /* \"#utility.yul\":4761:4792   */\n      calldataload\n        /* \"#utility.yul\":4819:4837   */\n      0xffffffffffffffff\n        /* \"#utility.yul\":4811:4817   */\n      dup2\n        /* \"#utility.yul\":4808:4838   */\n      gt\n        /* \"#utility.yul\":4805:4922   */\n      iszero\n      tag_418\n      jumpi\n        /* \"#utility.yul\":4841:4920   */\n      tag_419\n      tag_276\n      jump\t// in\n    tag_419:\n        /* \"#utility.yul\":4805:4922   */\n    tag_418:\n        /* \"#utility.yul\":4954:5019   */\n      tag_420\n        /* \"#utility.yul\":5011:5018   */\n      dup8\n        /* \"#utility.yul\":5002:5008   */\n      dup3\n        /* \"#utility.yul\":4991:5000   */\n      dup9\n        /* \"#utility.yul\":4987:5009   */\n      add\n        /* \"#utility.yul\":4954:5019   */\n      tag_282\n      jump\t// in\n    tag_420:\n        /* \"#utility.yul\":4936:5019   */\n      swap5\n      pop\n      swap5\n      pop\n        /* \"#utility.yul\":4732:5029   */\n      pop\n        /* \"#utility.yul\":5068:5070   */\n      0x20\n        /* \"#utility.yul\":5094:5155   */\n      tag_421\n        /* \"#utility.yul\":5147:5154   */\n      dup8\n        /* \"#utility.yul\":5138:5144   */\n      dup3\n        /* \"#utility.yul\":5127:5136   */\n      dup9\n        /* \"#utility.yul\":5123:5145   */\n      add\n        /* \"#utility.yul\":5094:5155   */\n      tag_286\n      jump\t// in\n    tag_421:\n        /* \"#utility.yul\":5084:5155   */\n      swap3\n      pop\n        /* \"#utility.yul\":5039:5165   */\n      pop\n        /* \"#utility.yul\":5204:5206   */\n      0x40\n        /* \"#utility.yul\":5230:5283   */\n      tag_422\n        /* \"#utility.yul\":5275:5282   */\n      dup8\n        /* \"#utility.yul\":5266:5272   */\n      dup3\n        /* \"#utility.yul\":5255:5264   */\n      dup9\n        /* \"#utility.yul\":5251:5273   */\n      add\n        /* \"#utility.yul\":5230:5283   */\n      tag_278\n      jump\t// in\n    tag_422:\n        /* \"#utility.yul\":5220:5283   */\n      swap2\n      pop\n        /* \"#utility.yul\":5175:5293   */\n      pop\n        /* \"#utility.yul\":4465:5300   */\n      swap3\n      swap6\n      swap2\n      swap5\n      pop\n      swap3\n      pop\n      jump\t// out\n        /* \"#utility.yul\":5306:5402   */\n    tag_287:\n        /* \"#utility.yul\":5343:5350   */\n      0x00\n        /* \"#utility.yul\":5372:5396   */\n      tag_424\n        /* \"#utility.yul\":5390:5395   */\n      dup3\n        /* \"#utility.yul\":5372:5396   */\n      tag_283\n      jump\t// in\n    tag_424:\n        /* \"#utility.yul\":5361:5396   */\n      swap1\n      pop\n        /* \"#utility.yul\":5306:5402   */\n      swap2\n      swap1\n      pop\n      jump\t// out\n        /* \"#utility.yul\":5408:5530   */\n    tag_288:\n        /* \"#utility.yul\":5481:5505   */\n      tag_426\n        /* \"#utility.yul\":5499:5504   */\n      dup2\n        /* \"#utility.yul\":5481:5505   */\n      tag_287\n      jump\t// in\n    tag_426:\n        /* \"#utility.yul\":5474:5479   */\n      dup2\n        /* \"#utility.yul\":5471:5506   */\n      eq\n        /* \"#utility.yul\":5461:5524   */\n      tag_427\n      jumpi\n        /* \"#utility.yul\":5520:5521   */\n      0x00\n        /* \"#utility.yul\":5517:5518   */\n      0x00\n        /* \"#utility.yul\":5510:5522   */\n      revert\n        /* \"#utility.yul\":5461:5524   */\n    tag_427:\n        /* \"#utility.yul\":5408:5530   */\n      pop\n      jump\t// out\n        /* \"#utility.yul\":5536:5675   */\n    tag_289:\n        /* \"#utility.yul\":5582:5587   */\n      0x00\n        /* \"#utility.yul\":5620:5626   */\n      dup2\n        /* \"#utility.yul\":5607:5627   */\n      calldataload\n        /* \"#utility.yul\":5598:5627   */\n      swap1\n      pop\n        /* \"#utility.yul\":5636:5669   */\n      tag_429\n        /* \"#utility.yul\":5663:5668   */\n      dup2\n        /* \"#utility.yul\":5636:5669   */\n      tag_288\n      jump\t// in\n    tag_429:\n        /* \"#utility.yul\":5536:5675   */\n      swap3\n      swap2\n      pop\n      pop\n      jump\t// out\n        /* \"#utility.yul\":5681:6010   */\n    tag_55:\n        /* \"#utility.yul\":5740:5746   */\n      0x00\n        /* \"#utility.yul\":5789:5791   */\n      0x20\n        /* \"#utility.yul\":5777:5786   */\n      dup3\n        /* \"#utility.yul\":5768:5775   */\n      dup5\n        /* \"#utility.yul\":5764:5787   */\n      sub\n        /* \"#utility.yul\":5760:5792   */\n      slt\n        /* \"#utility.yul\":5757:5876   */\n      iszero\n      tag_431\n      jumpi\n        /* \"#utility.yul\":5795:5874   */\n      tag_432\n      tag_275\n      jump\t// in\n    tag_432:\n        /* \"#utility.yul\":5757:5876   */\n    tag_431:\n        /* \"#utility.yul\":5915:5916   */\n      0x00\n        /* \"#utility.yul\":5940:5993   */\n      tag_433\n        /* \"#utility.yul\":5985:5992   */\n      dup5\n        /* \"#utility.yul\":5976:5982   */\n      dup3\n        /* \"#utility.yul\":5965:5974   */\n      dup6\n        /* \"#utility.yul\":5961:5983   */\n      add\n        /* \"#utility.yul\":5940:5993   */\n      tag_289\n      jump\t// in\n    tag_433:\n        /* \"#utility.yul\":5930:5993   */\n      swap2\n      pop\n        /* \"#utility.yul\":5886:6003   */\n      pop\n        /* \"#utility.yul\":5681:6010   */\n      swap3\n      swap2\n      pop\n      pop\n      jump\t// out\n        /* \"#utility.yul\":6016:6106   */\n    tag_290:\n        /* \"#utility.yul\":6050:6057   */\n      0x00\n        /* \"#utility.yul\":6093:6098   */\n      dup2\n        /* \"#utility.yul\":6086:6099   */\n      iszero\n        /* \"#utility.yul\":6079:6100   */\n      iszero\n        /* \"#utility.yul\":6068:6100   */\n      swap1\n      pop\n        /* \"#utility.yul\":6016:6106   */\n      swap2\n      swap1\n      pop\n      jump\t// out\n        /* \"#utility.yul\":6112:6221   */\n    tag_291:\n        /* \"#utility.yul\":6193:6214   */\n      tag_436\n        /* \"#utility.yul\":6208:6213   */\n      dup2\n        /* \"#utility.yul\":6193:6214   */\n      tag_290\n      jump\t// in\n    tag_436:\n        /* \"#utility.yul\":6188:6191   */\n      dup3\n        /* \"#utility.yul\":6181:6215   */\n      mstore\n        /* \"#utility.yul\":6112:6221   */\n      pop\n      pop\n      jump\t// out\n        /* \"#utility.yul\":6227:6437   */\n    tag_58:\n        /* \"#utility.yul\":6314:6318   */\n      0x00\n        /* \"#utility.yul\":6352:6354   */\n      0x20\n        /* \"#utility.yul\":6341:6350   */\n      dup3\n        /* \"#utility.yul\":6337:6355   */\n      add\n        /* \"#utility.yul\":6329:6355   */\n      swap1\n      pop\n        /* \"#utility.yul\":6365:6430   */\n      tag_438\n        /* \"#utility.yul\":6427:6428   */\n      0x00\n        /* \"#utility.yul\":6416:6425   */\n      dup4\n        /* \"#utility.yul\":6412:6429   */\n      add\n        /* \"#utility.yul\":6403:6409   */\n      dup5\n        /* \"#utility.yul\":6365:6430   */\n      tag_291\n      jump\t// in\n    tag_438:\n        /* \"#utility.yul\":6227:6437   */\n      swap3\n      swap2\n      pop\n      pop\n      jump\t// out\n        /* \"#utility.yul\":6443:6561   */\n    tag_292:\n        /* \"#utility.yul\":6530:6554   */\n      tag_440\n        /* \"#utility.yul\":6548:6553   */\n      dup2\n        /* \"#utility.yul\":6530:6554   */\n      tag_287\n      jump\t// in\n    tag_440:\n        /* \"#utility.yul\":6525:6528   */\n      dup3\n        /* \"#utility.yul\":6518:6555   */\n      mstore\n        /* \"#utility.yul\":6443:6561   */\n      pop\n      pop\n      jump\t// out\n        /* \"#utility.yul\":6567:7552   */\n    tag_71:\n        /* \"#utility.yul\":6850:6854   */\n      0x00\n        /* \"#utility.yul\":6888:6891   */\n      0x0100\n        /* \"#utility.yul\":6877:6886   */\n      dup3\n        /* \"#utility.yul\":6873:6892   */\n      add\n        /* \"#utility.yul\":6865:6892   */\n      swap1\n      pop\n        /* \"#utility.yul\":6902:6973   */\n      tag_442\n        /* \"#utility.yul\":6970:6971   */\n      0x00\n        /* \"#utility.yul\":6959:6968   */\n      dup4\n        /* \"#utility.yul\":6955:6972   */\n      add\n        /* \"#utility.yul\":6946:6952   */\n      dup12\n        /* \"#utility.yul\":6902:6973   */\n      tag_292\n      jump\t// in\n    tag_442:\n        /* \"#utility.yul\":6983:7055   */\n      tag_443\n        /* \"#utility.yul\":7051:7053   */\n      0x20\n        /* \"#utility.yul\":7040:7049   */\n      dup4\n        /* \"#utility.yul\":7036:7054   */\n      add\n        /* \"#utility.yul\":7027:7033   */\n      dup11\n        /* \"#utility.yul\":6983:7055   */\n      tag_273\n      jump\t// in\n    tag_443:\n        /* \"#utility.yul\":7065:7137   */\n      tag_444\n        /* \"#utility.yul\":7133:7135   */\n      0x40\n        /* \"#utility.yul\":7122:7131   */\n      dup4\n        /* \"#utility.yul\":7118:7136   */\n      add\n        /* \"#utility.yul\":7109:7115   */\n      dup10\n        /* \"#utility.yul\":7065:7137   */\n      tag_273\n      jump\t// in\n    tag_444:\n        /* \"#utility.yul\":7147:7219   */\n      tag_445\n        /* \"#utility.yul\":7215:7217   */\n      0x60\n        /* \"#utility.yul\":7204:7213   */\n      dup4\n        /* \"#utility.yul\":7200:7218   */\n      add\n        /* \"#utility.yul\":7191:7197   */\n      dup9\n        /* \"#utility.yul\":7147:7219   */\n      tag_273\n      jump\t// in\n    tag_445:\n        /* \"#utility.yul\":7229:7302   */\n      tag_446\n        /* \"#utility.yul\":7297:7300   */\n      0x80\n        /* \"#utility.yul\":7286:7295   */\n      dup4\n        /* \"#utility.yul\":7282:7301   */\n      add\n        /* \"#utility.yul\":7273:7279   */\n      dup8\n        /* \"#utility.yul\":7229:7302   */\n      tag_273\n      jump\t// in\n    tag_446:\n        /* \"#utility.yul\":7312:7379   */\n      tag_447\n        /* \"#utility.yul\":7374:7377   */\n      0xa0\n        /* \"#utility.yul\":7363:7372   */\n      dup4\n        /* \"#utility.yul\":7359:7378   */\n      add\n        /* \"#utility.yul\":7350:7356   */\n      dup7\n        /* \"#utility.yul\":7312:7379   */\n      tag_291\n      jump\t// in\n    tag_447:\n        /* \"#utility.yul\":7389:7462   */\n      tag_448\n        /* \"#utility.yul\":7457:7460   */\n      0xc0\n        /* \"#utility.yul\":7446:7455   */\n      dup4\n        /* \"#utility.yul\":7442:7461   */\n      add\n        /* \"#utility.yul\":7433:7439   */\n      dup6\n        /* \"#utility.yul\":7389:7462   */\n      tag_273\n      jump\t// in\n    tag_448:\n        /* \"#utility.yul\":7472:7545   */\n      tag_449\n        /* \"#utility.yul\":7540:7543   */\n      0xe0\n        /* \"#utility.yul\":7529:7538   */\n      dup4\n        /* \"#utility.yul\":7525:7544   */\n      add\n        /* \"#utility.yul\":7516:7522   */\n      dup5\n        /* \"#utility.yul\":7472:7545   */\n      tag_273\n      jump\t// in\n    tag_449:\n        /* \"#utility.yul\":6567:7552   */\n      swap10\n      swap9\n      pop\n      pop\n      pop\n      pop\n      pop\n      pop\n      pop\n      pop\n      pop\n      jump\t// out\n        /* \"#utility.yul\":7558:8032   */\n    tag_80:\n        /* \"#utility.yul\":7626:7632   */\n      0x00\n        /* \"#utility.yul\":7634:7640   */\n      0x00\n        /* \"#utility.yul\":7683:7685   */\n      0x40\n        /* \"#utility.yul\":7671:7680   */\n      dup4\n        /* \"#utility.yul\":7662:7669   */\n      dup6\n        /* \"#utility.yul\":7658:7681   */\n      sub\n        /* \"#utility.yul\":7654:7686   */\n      slt\n        /* \"#utility.yul\":7651:7770   */\n      iszero\n      tag_451\n      jumpi\n        /* \"#utility.yul\":7689:7768   */\n      tag_452\n      tag_275\n      jump\t// in\n    tag_452:\n        /* \"#utility.yul\":7651:7770   */\n    tag_451:\n        /* \"#utility.yul\":7809:7810   */\n      0x00\n        /* \"#utility.yul\":7834:7887   */\n      tag_453\n        /* \"#utility.yul\":7879:7886   */\n      dup6\n        /* \"#utility.yul\":7870:7876   */\n      dup3\n        /* \"#utility.yul\":7859:7868   */\n      dup7\n        /* \"#utility.yul\":7855:7877   */\n      add\n        /* \"#utility.yul\":7834:7887   */\n      tag_278\n      jump\t// in\n    tag_453:\n        /* \"#utility.yul\":7824:7887   */\n      swap3\n      pop\n        /* \"#utility.yul\":7780:7897   */\n      pop\n        /* \"#utility.yul\":7936:7938   */\n      0x20\n        /* \"#utility.yul\":7962:8015   */\n      tag_454\n        /* \"#utility.yul\":8007:8014   */\n      dup6\n        /* \"#utility.yul\":7998:8004   */\n      dup3\n        /* \"#utility.yul\":7987:7996   */\n      dup7\n        /* \"#utility.yul\":7983:8005   */\n      add\n        /* \"#utility.yul\":7962:8015   */\n      tag_289\n      jump\t// in\n    tag_454:\n        /* \"#utility.yul\":7952:8015   */\n      swap2\n      pop\n        /* \"#utility.yul\":7907:8025   */\n      pop\n        /* \"#utility.yul\":7558:8032   */\n      swap3\n      pop\n      swap3\n      swap1\n      pop\n      jump\t// out\n        /* \"#utility.yul\":8038:8260   */\n    tag_87:\n        /* \"#utility.yul\":8131:8135   */\n      0x00\n        /* \"#utility.yul\":8169:8171   */\n      0x20\n        /* \"#utility.yul\":8158:8167   */\n      dup3\n        /* \"#utility.yul\":8154:8172   */\n      add\n        /* \"#utility.yul\":8146:8172   */\n      swap1\n      pop\n        /* \"#utility.yul\":8182:8253   */\n      tag_456\n        /* \"#utility.yul\":8250:8251   */\n      0x00\n        /* \"#utility.yul\":8239:8248   */\n      dup4\n        /* \"#utility.yul\":8235:8252   */\n      add\n        /* \"#utility.yul\":8226:8232   */\n      dup5\n        /* \"#utility.yul\":8182:8253   */\n      tag_292\n      jump\t// in\n    tag_456:\n        /* \"#utility.yul\":8038:8260   */\n      swap3\n      swap2\n      pop\n      pop\n      jump\t// out\n        /* \"#utility.yul\":8266:8365   */\n    tag_293:\n        /* \"#utility.yul\":8318:8324   */\n      0x00\n        /* \"#utility.yul\":8352:8357   */\n      dup2\n        /* \"#utility.yul\":8346:8358   */\n      mload\n        /* \"#utility.yul\":8336:8358   */\n      swap1\n      pop\n        /* \"#utility.yul\":8266:8365   */\n      swap2\n      swap1\n      pop\n      jump\t// out\n        /* \"#utility.yul\":8371:8510   */\n    tag_294:\n        /* \"#utility.yul\":8460:8466   */\n      dup3\n        /* \"#utility.yul\":8455:8458   */\n      dup2\n        /* \"#utility.yul\":8450:8453   */\n      dup4\n        /* \"#utility.yul\":8444:8467   */\n      mcopy\n        /* \"#utility.yul\":8501:8502   */\n      0x00\n        /* \"#utility.yul\":8492:8498   */\n      dup4\n        /* \"#utility.yul\":8487:8490   */\n      dup4\n        /* \"#utility.yul\":8483:8499   */\n      add\n        /* \"#utility.yul\":8476:8503   */\n      mstore\n        /* \"#utility.yul\":8371:8510   */\n      pop\n      pop\n      pop\n      jump\t// out\n        /* \"#utility.yul\":8516:8618   */\n    tag_295:\n        /* \"#utility.yul\":8557:8563   */\n      0x00\n        /* \"#utility.yul\":8608:8610   */\n      0x1f\n        /* \"#utility.yul\":8604:8611   */\n      not\n        /* \"#utility.yul\":8599:8601   */\n      0x1f\n        /* \"#utility.yul\":8592:8597   */\n      dup4\n        /* \"#utility.yul\":8588:8602   */\n      add\n        /* \"#utility.yul\":8584:8612   */\n      and\n        /* \"#utility.yul\":8574:8612   */\n      swap1\n      pop\n        /* \"#utility.yul\":8516:8618   */\n      swap2\n      swap1\n      pop\n      jump\t// out\n        /* \"#utility.yul\":8624:9001   */\n    tag_296:\n        /* \"#utility.yul\":8712:8715   */\n      0x00\n        /* \"#utility.yul\":8740:8779   */\n      tag_461\n        /* \"#utility.yul\":8773:8778   */\n      dup3\n        /* \"#utility.yul\":8740:8779   */\n      tag_293\n      jump\t// in\n    tag_461:\n        /* \"#utility.yul\":8795:8866   */\n      tag_462\n        /* \"#utility.yul\":8859:8865   */\n      dup2\n        /* \"#utility.yul\":8854:8857   */\n      dup6\n        /* \"#utility.yul\":8795:8866   */\n      tag_268\n      jump\t// in\n    tag_462:\n        /* \"#utility.yul\":8788:8866   */\n      swap4\n      pop\n        /* \"#utility.yul\":8875:8940   */\n      tag_463\n        /* \"#utility.yul\":8933:8939   */\n      dup2\n        /* \"#utility.yul\":8928:8931   */\n      dup6\n        /* \"#utility.yul\":8921:8925   */\n      0x20\n        /* \"#utility.yul\":8914:8919   */\n      dup7\n        /* \"#utility.yul\":8910:8926   */\n      add\n        /* \"#utility.yul\":8875:8940   */\n      tag_294\n      jump\t// in\n    tag_463:\n        /* \"#utility.yul\":8965:8994   */\n      tag_464\n        /* \"#utility.yul\":8987:8993   */\n      dup2\n        /* \"#utility.yul\":8965:8994   */\n      tag_295\n      jump\t// in\n    tag_464:\n        /* \"#utility.yul\":8960:8963   */\n      dup5\n        /* \"#utility.yul\":8956:8995   */\n      add\n        /* \"#utility.yul\":8949:8995   */\n      swap2\n      pop\n        /* \"#utility.yul\":8716:9001   */\n      pop\n        /* \"#utility.yul\":8624:9001   */\n      swap3\n      swap2\n      pop\n      pop\n      jump\t// out\n        /* \"#utility.yul\":9007:9750   */\n    tag_108:\n        /* \"#utility.yul\":9226:9230   */\n      0x00\n        /* \"#utility.yul\":9264:9267   */\n      0xa0\n        /* \"#utility.yul\":9253:9262   */\n      dup3\n        /* \"#utility.yul\":9249:9268   */\n      add\n        /* \"#utility.yul\":9241:9268   */\n      swap1\n      pop\n        /* \"#utility.yul\":9314:9323   */\n      dup2\n        /* \"#utility.yul\":9308:9312   */\n      dup2\n        /* \"#utility.yul\":9304:9324   */\n      sub\n        /* \"#utility.yul\":9300:9301   */\n      0x00\n        /* \"#utility.yul\":9289:9298   */\n      dup4\n        /* \"#utility.yul\":9285:9302   */\n      add\n        /* \"#utility.yul\":9278:9325   */\n      mstore\n        /* \"#utility.yul\":9342:9420   */\n      tag_466\n        /* \"#utility.yul\":9415:9419   */\n      dup2\n        /* \"#utility.yul\":9406:9412   */\n      dup9\n        /* \"#utility.yul\":9342:9420   */\n      tag_296\n      jump\t// in\n    tag_466:\n        /* \"#utility.yul\":9334:9420   */\n      swap1\n      pop\n        /* \"#utility.yul\":9430:9502   */\n      tag_467\n        /* \"#utility.yul\":9498:9500   */\n      0x20\n        /* \"#utility.yul\":9487:9496   */\n      dup4\n        /* \"#utility.yul\":9483:9501   */\n      add\n        /* \"#utility.yul\":9474:9480   */\n      dup8\n        /* \"#utility.yul\":9430:9502   */\n      tag_292\n      jump\t// in\n    tag_467:\n        /* \"#utility.yul\":9512:9584   */\n      tag_468\n        /* \"#utility.yul\":9580:9582   */\n      0x40\n        /* \"#utility.yul\":9569:9578   */\n      dup4\n        /* \"#utility.yul\":9565:9583   */\n      add\n        /* \"#utility.yul\":9556:9562   */\n      dup7\n        /* \"#utility.yul\":9512:9584   */\n      tag_273\n      jump\t// in\n    tag_468:\n        /* \"#utility.yul\":9594:9660   */\n      tag_469\n        /* \"#utility.yul\":9656:9658   */\n      0x60\n        /* \"#utility.yul\":9645:9654   */\n      dup4\n        /* \"#utility.yul\":9641:9659   */\n      add\n        /* \"#utility.yul\":9632:9638   */\n      dup6\n        /* \"#utility.yul\":9594:9660   */\n      tag_291\n      jump\t// in\n    tag_469:\n        /* \"#utility.yul\":9670:9743   */\n      tag_470\n        /* \"#utility.yul\":9738:9741   */\n      0x80\n        /* \"#utility.yul\":9727:9736   */\n      dup4\n        /* \"#utility.yul\":9723:9742   */\n      add\n        /* \"#utility.yul\":9714:9720   */\n      dup5\n        /* \"#utility.yul\":9670:9743   */\n      tag_273\n      jump\t// in\n    tag_470:\n        /* \"#utility.yul\":9007:9750   */\n      swap7\n      swap6\n      pop\n      pop\n      pop\n      pop\n      pop\n      pop\n      jump\t// out\n        /* \"#utility.yul\":9756:9918   */\n    tag_297:\n        /* \"#utility.yul\":9896:9910   */\n      0x4f6e6c79206d616e616765720000000000000000000000000000000000000000\n        /* \"#utility.yul\":9892:9893   */\n      0x00\n        /* \"#utility.yul\":9884:9890   */\n      dup3\n        /* \"#utility.yul\":9880:9894   */\n      add\n        /* \"#utility.yul\":9873:9911   */\n      mstore\n        /* \"#utility.yul\":9756:9918   */\n      pop\n      jump\t// out\n        /* \"#utility.yul\":9924:10290   */\n    tag_298:\n        /* \"#utility.yul\":10066:10069   */\n      0x00\n        /* \"#utility.yul\":10087:10154   */\n      tag_473\n        /* \"#utility.yul\":10151:10153   */\n      0x0c\n        /* \"#utility.yul\":10146:10149   */\n      dup4\n        /* \"#utility.yul\":10087:10154   */\n      tag_268\n      jump\t// in\n    tag_473:\n        /* \"#utility.yul\":10080:10154   */\n      swap2\n      pop\n        /* \"#utility.yul\":10163:10256   */\n      tag_474\n        /* \"#utility.yul\":10252:10255   */\n      dup3\n        /* \"#utility.yul\":10163:10256   */\n      tag_297\n      jump\t// in\n    tag_474:\n        /* \"#utility.yul\":10281:10283   */\n      0x20\n        /* \"#utility.yul\":10276:10279   */\n      dup3\n        /* \"#utility.yul\":10272:10284   */\n      add\n        /* \"#utility.yul\":10265:10284   */\n      swap1\n      pop\n        /* \"#utility.yul\":9924:10290   */\n      swap2\n      swap1\n      pop\n      jump\t// out\n        /* \"#utility.yul\":10296:10715   */\n    tag_127:\n        /* \"#utility.yul\":10462:10466   */\n      0x00\n        /* \"#utility.yul\":10500:10502   */\n      0x20\n        /* \"#utility.yul\":10489:10498   */\n      dup3\n        /* \"#utility.yul\":10485:10503   */\n      add\n        /* \"#utility.yul\":10477:10503   */\n      swap1\n      pop\n        /* \"#utility.yul\":10549:10558   */\n      dup2\n        /* \"#utility.yul\":10543:10547   */\n      dup2\n        /* \"#utility.yul\":10539:10559   */\n      sub\n        /* \"#utility.yul\":10535:10536   */\n      0x00\n        /* \"#utility.yul\":10524:10533   */\n      dup4\n        /* \"#utility.yul\":10520:10537   */\n      add\n        /* \"#utility.yul\":10513:10560   */\n      mstore\n        /* \"#utility.yul\":10577:10708   */\n      tag_476\n        /* \"#utility.yul\":10703:10707   */\n      dup2\n        /* \"#utility.yul\":10577:10708   */\n      tag_298\n      jump\t// in\n    tag_476:\n        /* \"#utility.yul\":10569:10708   */\n      swap1\n      pop\n        /* \"#utility.yul\":10296:10715   */\n      swap2\n      swap1\n      pop\n      jump\t// out\n        /* \"#utility.yul\":10721:10885   */\n    tag_299:\n        /* \"#utility.yul\":10861:10877   */\n      0x5265656e7472616e742063616c6c000000000000000000000000000000000000\n        /* \"#utility.yul\":10857:10858   */\n      0x00\n        /* \"#utility.yul\":10849:10855   */\n      dup3\n        /* \"#utility.yul\":10845:10859   */\n      add\n        /* \"#utility.yul\":10838:10878   */\n      mstore\n        /* \"#utility.yul\":10721:10885   */\n      pop\n      jump\t// out\n        /* \"#utility.yul\":10891:11257   */\n    tag_300:\n        /* \"#utility.yul\":11033:11036   */\n      0x00\n        /* \"#utility.yul\":11054:11121   */\n      tag_479\n        /* \"#utility.yul\":11118:11120   */\n      0x0e\n        /* \"#utility.yul\":11113:11116   */\n      dup4\n        /* \"#utility.yul\":11054:11121   */\n      tag_268\n      jump\t// in\n    tag_479:\n        /* \"#utility.yul\":11047:11121   */\n      swap2\n      pop\n        /* \"#utility.yul\":11130:11223   */\n      tag_480\n        /* \"#utility.yul\":11219:11222   */\n      dup3\n        /* \"#utility.yul\":11130:11223   */\n      tag_299\n      jump\t// in\n    tag_480:\n        /* \"#utility.yul\":11248:11250   */\n      0x20\n        /* \"#utility.yul\":11243:11246   */\n      dup3\n        /* \"#utility.yul\":11239:11251   */\n      add\n        /* \"#utility.yul\":11232:11251   */\n      swap1\n      pop\n        /* \"#utility.yul\":10891:11257   */\n      swap2\n      swap1\n      pop\n      jump\t// out\n        /* \"#utility.yul\":11263:11682   */\n    tag_131:\n        /* \"#utility.yul\":11429:11433   */\n      0x00\n        /* \"#utility.yul\":11467:11469   */\n      0x20\n        /* \"#utility.yul\":11456:11465   */\n      dup3\n        /* \"#utility.yul\":11452:11470   */\n      add\n        /* \"#utility.yul\":11444:11470   */\n      swap1\n      pop\n        /* \"#utility.yul\":11516:11525   */\n      dup2\n        /* \"#utility.yul\":11510:11514   */\n      dup2\n        /* \"#utility.yul\":11506:11526   */\n      sub\n        /* \"#utility.yul\":11502:11503   */\n      0x00\n        /* \"#utility.yul\":11491:11500   */\n      dup4\n        /* \"#utility.yul\":11487:11504   */\n      add\n        /* \"#utility.yul\":11480:11527   */\n      mstore\n        /* \"#utility.yul\":11544:11675   */\n      tag_482\n        /* \"#utility.yul\":11670:11674   */\n      dup2\n        /* \"#utility.yul\":11544:11675   */\n      tag_300\n      jump\t// in\n    tag_482:\n        /* \"#utility.yul\":11536:11675   */\n      swap1\n      pop\n        /* \"#utility.yul\":11263:11682   */\n      swap2\n      swap1\n      pop\n      jump\t// out\n        /* \"#utility.yul\":11688:11856   */\n    tag_301:\n        /* \"#utility.yul\":11828:11848   */\n      0x496e76616c696420726571756573742069640000000000000000000000000000\n        /* \"#utility.yul\":11824:11825   */\n      0x00\n        /* \"#utility.yul\":11816:11822   */\n      dup3\n        /* \"#utility.yul\":11812:11826   */\n      add\n        /* \"#utility.yul\":11805:11849   */\n      mstore\n        /* \"#utility.yul\":11688:11856   */\n      pop\n      jump\t// out\n        /* \"#utility.yul\":11862:12228   */\n    tag_302:\n        /* \"#utility.yul\":12004:12007   */\n      0x00\n        /* \"#utility.yul\":12025:12092   */\n      tag_485\n        /* \"#utility.yul\":12089:12091   */\n      0x12\n        /* \"#utility.yul\":12084:12087   */\n      dup4\n        /* \"#utility.yul\":12025:12092   */\n      tag_268\n      jump\t// in\n    tag_485:\n        /* \"#utility.yul\":12018:12092   */\n      swap2\n      pop\n        /* \"#utility.yul\":12101:12194   */\n      tag_486\n        /* \"#utility.yul\":12190:12193   */\n      dup3\n        /* \"#utility.yul\":12101:12194   */\n      tag_301\n      jump\t// in\n    tag_486:\n        /* \"#utility.yul\":12219:12221   */\n      0x20\n        /* \"#utility.yul\":12214:12217   */\n      dup3\n        /* \"#utility.yul\":12210:12222   */\n      add\n        /* \"#utility.yul\":12203:12222   */\n      swap1\n      pop\n        /* \"#utility.yul\":11862:12228   */\n      swap2\n      swap1\n      pop\n      jump\t// out\n        /* \"#utility.yul\":12234:12653   */\n    tag_135:\n        /* \"#utility.yul\":12400:12404   */\n      0x00\n        /* \"#utility.yul\":12438:12440   */\n      0x20\n        /* \"#utility.yul\":12427:12436   */\n      dup3\n        /* \"#utility.yul\":12423:12441   */\n      add\n        /* \"#utility.yul\":12415:12441   */\n      swap1\n      pop\n        /* \"#utility.yul\":12487:12496   */\n      dup2\n        /* \"#utility.yul\":12481:12485   */\n      dup2\n        /* \"#utility.yul\":12477:12497   */\n      sub\n        /* \"#utility.yul\":12473:12474   */\n      0x00\n        /* \"#utility.yul\":12462:12471   */\n      dup4\n        /* \"#utility.yul\":12458:12475   */\n      add\n        /* \"#utility.yul\":12451:12498   */\n      mstore\n        /* \"#utility.yul\":12515:12646   */\n      tag_488\n        /* \"#utility.yul\":12641:12645   */\n      dup2\n        /* \"#utility.yul\":12515:12646   */\n      tag_302\n      jump\t// in\n    tag_488:\n        /* \"#utility.yul\":12507:12646   */\n      swap1\n      pop\n        /* \"#utility.yul\":12234:12653   */\n      swap2\n      swap1\n      pop\n      jump\t// out\n        /* \"#utility.yul\":12659:12839   */\n    tag_138:\n        /* \"#utility.yul\":12707:12784   */\n      0x4e487b7100000000000000000000000000000000000000000000000000000000\n        /* \"#utility.yul\":12704:12705   */\n      0x00\n        /* \"#utility.yul\":12697:12785   */\n      mstore\n        /* \"#utility.yul\":12804:12808   */\n      0x32\n        /* \"#utility.yul\":12801:12802   */\n      0x04\n        /* \"#utility.yul\":12794:12809   */\n      mstore\n        /* \"#utility.yul\":12828:12832   */\n      0x24\n        /* \"#utility.yul\":12825:12826   */\n      0x00\n        /* \"#utility.yul\":12818:12833   */\n      revert\n        /* \"#utility.yul\":12845:13012   */\n    tag_303:\n        /* \"#utility.yul\":12985:13004   */\n      0x416c726561647920636f6d706c65746564000000000000000000000000000000\n        /* \"#utility.yul\":12981:12982   */\n      0x00\n        /* \"#utility.yul\":12973:12979   */\n      dup3\n        /* \"#utility.yul\":12969:12983   */\n      add\n        /* \"#utility.yul\":12962:13005   */\n      mstore\n        /* \"#utility.yul\":12845:13012   */\n      pop\n      jump\t// out\n        /* \"#utility.yul\":13018:13384   */\n    tag_304:\n        /* \"#utility.yul\":13160:13163   */\n      0x00\n        /* \"#utility.yul\":13181:13248   */\n      tag_492\n        /* \"#utility.yul\":13245:13247   */\n      0x11\n        /* \"#utility.yul\":13240:13243   */\n      dup4\n        /* \"#utility.yul\":13181:13248   */\n      tag_268\n      jump\t// in\n    tag_492:\n        /* \"#utility.yul\":13174:13248   */\n      swap2\n      pop\n        /* \"#utility.yul\":13257:13350   */\n      tag_493\n        /* \"#utility.yul\":13346:13349   */\n      dup3\n        /* \"#utility.yul\":13257:13350   */\n      tag_303\n      jump\t// in\n    tag_493:\n        /* \"#utility.yul\":13375:13377   */\n      0x20\n        /* \"#utility.yul\":13370:13373   */\n      dup3\n        /* \"#utility.yul\":13366:13378   */\n      add\n        /* \"#utility.yul\":13359:13378   */\n      swap1\n      pop\n        /* \"#utility.yul\":13018:13384   */\n      swap2\n      swap1\n      pop\n      jump\t// out\n        /* \"#utility.yul\":13390:13809   */\n    tag_142:\n        /* \"#utility.yul\":13556:13560   */\n      0x00\n        /* \"#utility.yul\":13594:13596   */\n      0x20\n        /* \"#utility.yul\":13583:13592   */\n      dup3\n        /* \"#utility.yul\":13579:13597   */\n      add\n        /* \"#utility.yul\":13571:13597   */\n      swap1\n      pop\n        /* \"#utility.yul\":13643:13652   */\n      dup2\n        /* \"#utility.yul\":13637:13641   */\n      dup2\n        /* \"#utility.yul\":13633:13653   */\n      sub\n        /* \"#utility.yul\":13629:13630   */\n      0x00\n        /* \"#utility.yul\":13618:13627   */\n      dup4\n        /* \"#utility.yul\":13614:13631   */\n      add\n        /* \"#utility.yul\":13607:13654   */\n      mstore\n        /* \"#utility.yul\":13671:13802   */\n      tag_495\n        /* \"#utility.yul\":13797:13801   */\n      dup2\n        /* \"#utility.yul\":13671:13802   */\n      tag_304\n      jump\t// in\n    tag_495:\n        /* \"#utility.yul\":13663:13802   */\n      swap1\n      pop\n        /* \"#utility.yul\":13390:13809   */\n      swap2\n      swap1\n      pop\n      jump\t// out\n        /* \"#utility.yul\":13815:14043   */\n    tag_305:\n        /* \"#utility.yul\":13955:13989   */\n      0x46756e64696e6720676f616c206e6f7420726561636865643b2063616e6e6f74\n        /* \"#utility.yul\":13951:13952   */\n      0x00\n        /* \"#utility.yul\":13943:13949   */\n      dup3\n        /* \"#utility.yul\":13939:13953   */\n      add\n        /* \"#utility.yul\":13932:13990   */\n      mstore\n        /* \"#utility.yul\":14024:14035   */\n      0x2064697362757273650000000000000000000000000000000000000000000000\n        /* \"#utility.yul\":14019:14021   */\n      0x20\n        /* \"#utility.yul\":14011:14017   */\n      dup3\n        /* \"#utility.yul\":14007:14022   */\n      add\n        /* \"#utility.yul\":14000:14036   */\n      mstore\n        /* \"#utility.yul\":13815:14043   */\n      pop\n      jump\t// out\n        /* \"#utility.yul\":14049:14415   */\n    tag_306:\n        /* \"#utility.yul\":14191:14194   */\n      0x00\n        /* \"#utility.yul\":14212:14279   */\n      tag_498\n        /* \"#utility.yul\":14276:14278   */\n      0x29\n        /* \"#utility.yul\":14271:14274   */\n      dup4\n        /* \"#utility.yul\":14212:14279   */\n      tag_268\n      jump\t// in\n    tag_498:\n        /* \"#utility.yul\":14205:14279   */\n      swap2\n      pop\n        /* \"#utility.yul\":14288:14381   */\n      tag_499\n        /* \"#utility.yul\":14377:14380   */\n      dup3\n        /* \"#utility.yul\":14288:14381   */\n      tag_305\n      jump\t// in\n    tag_499:\n        /* \"#utility.yul\":14406:14408   */\n      0x40\n        /* \"#utility.yul\":14401:14404   */\n      dup3\n        /* \"#utility.yul\":14397:14409   */\n      add\n        /* \"#utility.yul\":14390:14409   */\n      swap1\n      pop\n        /* \"#utility.yul\":14049:14415   */\n      swap2\n      swap1\n      pop\n      jump\t// out\n        /* \"#utility.yul\":14421:14840   */\n    tag_145:\n        /* \"#utility.yul\":14587:14591   */\n      0x00\n        /* \"#utility.yul\":14625:14627   */\n      0x20\n        /* \"#utility.yul\":14614:14623   */\n      dup3\n        /* \"#utility.yul\":14610:14628   */\n      add\n        /* \"#utility.yul\":14602:14628   */\n      swap1\n      pop\n        /* \"#utility.yul\":14674:14683   */\n      dup2\n        /* \"#utility.yul\":14668:14672   */\n      dup2\n        /* \"#utility.yul\":14664:14684   */\n      sub\n        /* \"#utility.yul\":14660:14661   */\n      0x00\n        /* \"#utility.yul\":14649:14658   */\n      dup4\n        /* \"#utility.yul\":14645:14662   */\n      add\n        /* \"#utility.yul\":14638:14685   */\n      mstore\n        /* \"#utility.yul\":14702:14833   */\n      tag_501\n        /* \"#utility.yul\":14828:14832   */\n      dup2\n        /* \"#utility.yul\":14702:14833   */\n      tag_306\n      jump\t// in\n    tag_501:\n        /* \"#utility.yul\":14694:14833   */\n      swap1\n      pop\n        /* \"#utility.yul\":14421:14840   */\n      swap2\n      swap1\n      pop\n      jump\t// out\n        /* \"#utility.yul\":14846:15025   */\n    tag_307:\n        /* \"#utility.yul\":14986:15017   */\n      0x496e73756666696369656e7420636f6e74726163742062616c616e6365000000\n        /* \"#utility.yul\":14982:14983   */\n      0x00\n        /* \"#utility.yul\":14974:14980   */\n      dup3\n        /* \"#utility.yul\":14970:14984   */\n      add\n        /* \"#utility.yul\":14963:15018   */\n      mstore\n        /* \"#utility.yul\":14846:15025   */\n      pop\n      jump\t// out\n        /* \"#utility.yul\":15031:15397   */\n    tag_308:\n        /* \"#utility.yul\":15173:15176   */\n      0x00\n        /* \"#utility.yul\":15194:15261   */\n      tag_504\n        /* \"#utility.yul\":15258:15260   */\n      0x1d\n        /* \"#utility.yul\":15253:15256   */\n      dup4\n        /* \"#utility.yul\":15194:15261   */\n      tag_268\n      jump\t// in\n    tag_504:\n        /* \"#utility.yul\":15187:15261   */\n      swap2\n      pop\n        /* \"#utility.yul\":15270:15363   */\n      tag_505\n        /* \"#utility.yul\":15359:15362   */\n      dup3\n        /* \"#utility.yul\":15270:15363   */\n      tag_307\n      jump\t// in\n    tag_505:\n        /* \"#utility.yul\":15388:15390   */\n      0x20\n        /* \"#utility.yul\":15383:15386   */\n      dup3\n        /* \"#utility.yul\":15379:15391   */\n      add\n        /* \"#utility.yul\":15372:15391   */\n      swap1\n      pop\n        /* \"#utility.yul\":15031:15397   */\n      swap2\n      swap1\n      pop\n      jump\t// out\n        /* \"#utility.yul\":15403:15822   */\n    tag_148:\n        /* \"#utility.yul\":15569:15573   */\n      0x00\n        /* \"#utility.yul\":15607:15609   */\n      0x20\n        /* \"#utility.yul\":15596:15605   */\n      dup3\n        /* \"#utility.yul\":15592:15610   */\n      add\n        /* \"#utility.yul\":15584:15610   */\n      swap1\n      pop\n        /* \"#utility.yul\":15656:15665   */\n      dup2\n        /* \"#utility.yul\":15650:15654   */\n      dup2\n        /* \"#utility.yul\":15646:15666   */\n      sub\n        /* \"#utility.yul\":15642:15643   */\n      0x00\n        /* \"#utility.yul\":15631:15640   */\n      dup4\n        /* \"#utility.yul\":15627:15644   */\n      add\n        /* \"#utility.yul\":15620:15667   */\n      mstore\n        /* \"#utility.yul\":15684:15815   */\n      tag_507\n        /* \"#utility.yul\":15810:15814   */\n      dup2\n        /* \"#utility.yul\":15684:15815   */\n      tag_308\n      jump\t// in\n    tag_507:\n        /* \"#utility.yul\":15676:15815   */\n      swap1\n      pop\n        /* \"#utility.yul\":15403:15822   */\n      swap2\n      swap1\n      pop\n      jump\t// out\n        /* \"#utility.yul\":15828:16001   */\n    tag_309:\n        /* \"#utility.yul\":15968:15993   */\n      0x4e6f20636f6e7472696275746f72732070726573656e74000000000000000000\n        /* \"#utility.yul\":15964:15965   */\n      0x00\n        /* \"#utility.yul\":15956:15962   */\n      dup3\n        /* \"#utility.yul\":15952:15966   */\n      add\n        /* \"#utility.yul\":15945:15994   */\n      mstore\n        /* \"#utility.yul\":15828:16001   */\n      pop\n      jump\t// out\n        /* \"#utility.yul\":16007:16373   */\n    tag_310:\n        /* \"#utility.yul\":16149:16152   */\n      0x00\n        /* \"#utility.yul\":16170:16237   */\n      tag_510\n        /* \"#utility.yul\":16234:16236   */\n      0x17\n        /* \"#utility.yul\":16229:16232   */\n      dup4\n        /* \"#utility.yul\":16170:16237   */\n      tag_268\n      jump\t// in\n    tag_510:\n        /* \"#utility.yul\":16163:16237   */\n      swap2\n      pop\n        /* \"#utility.yul\":16246:16339   */\n      tag_511\n        /* \"#utility.yul\":16335:16338   */\n      dup3\n        /* \"#utility.yul\":16246:16339   */\n      tag_309\n      jump\t// in\n    tag_511:\n        /* \"#utility.yul\":16364:16366   */\n      0x20\n        /* \"#utility.yul\":16359:16362   */\n      dup3\n        /* \"#utility.yul\":16355:16367   */\n      add\n        /* \"#utility.yul\":16348:16367   */\n      swap1\n      pop\n        /* \"#utility.yul\":16007:16373   */\n      swap2\n      swap1\n      pop\n      jump\t// out\n        /* \"#utility.yul\":16379:16798   */\n    tag_151:\n        /* \"#utility.yul\":16545:16549   */\n      0x00\n        /* \"#utility.yul\":16583:16585   */\n      0x20\n        /* \"#utility.yul\":16572:16581   */\n      dup3\n        /* \"#utility.yul\":16568:16586   */\n      add\n        /* \"#utility.yul\":16560:16586   */\n      swap1\n      pop\n        /* \"#utility.yul\":16632:16641   */\n      dup2\n        /* \"#utility.yul\":16626:16630   */\n      dup2\n        /* \"#utility.yul\":16622:16642   */\n      sub\n        /* \"#utility.yul\":16618:16619   */\n      0x00\n        /* \"#utility.yul\":16607:16616   */\n      dup4\n        /* \"#utility.yul\":16603:16620   */\n      add\n        /* \"#utility.yul\":16596:16643   */\n      mstore\n        /* \"#utility.yul\":16660:16791   */\n      tag_513\n        /* \"#utility.yul\":16786:16790   */\n      dup2\n        /* \"#utility.yul\":16660:16791   */\n      tag_310\n      jump\t// in\n    tag_513:\n        /* \"#utility.yul\":16652:16791   */\n      swap1\n      pop\n        /* \"#utility.yul\":16379:16798   */\n      swap2\n      swap1\n      pop\n      jump\t// out\n        /* \"#utility.yul\":16804:17214   */\n    tag_153:\n        /* \"#utility.yul\":16844:16851   */\n      0x00\n        /* \"#utility.yul\":16867:16887   */\n      tag_515\n        /* \"#utility.yul\":16885:16886   */\n      dup3\n        /* \"#utility.yul\":16867:16887   */\n      tag_271\n      jump\t// in\n    tag_515:\n        /* \"#utility.yul\":16862:16887   */\n      swap2\n      pop\n        /* \"#utility.yul\":16901:16921   */\n      tag_516\n        /* \"#utility.yul\":16919:16920   */\n      dup4\n        /* \"#utility.yul\":16901:16921   */\n      tag_271\n      jump\t// in\n    tag_516:\n        /* \"#utility.yul\":16896:16921   */\n      swap3\n      pop\n        /* \"#utility.yul\":16956:16957   */\n      dup3\n        /* \"#utility.yul\":16953:16954   */\n      dup3\n        /* \"#utility.yul\":16949:16958   */\n      mul\n        /* \"#utility.yul\":16978:17008   */\n      tag_517\n        /* \"#utility.yul\":16996:17007   */\n      dup2\n        /* \"#utility.yul\":16978:17008   */\n      tag_271\n      jump\t// in\n    tag_517:\n        /* \"#utility.yul\":16967:17008   */\n      swap2\n      pop\n        /* \"#utility.yul\":17157:17158   */\n      dup3\n        /* \"#utility.yul\":17148:17155   */\n      dup3\n        /* \"#utility.yul\":17144:17159   */\n      div\n        /* \"#utility.yul\":17141:17142   */\n      dup5\n        /* \"#utility.yul\":17138:17160   */\n      eq\n        /* \"#utility.yul\":17118:17119   */\n      dup4\n        /* \"#utility.yul\":17111:17120   */\n      iszero\n        /* \"#utility.yul\":17091:17174   */\n      or\n        /* \"#utility.yul\":17068:17207   */\n      tag_518\n      jumpi\n        /* \"#utility.yul\":17187:17205   */\n      tag_519\n      tag_272\n      jump\t// in\n    tag_519:\n        /* \"#utility.yul\":17068:17207   */\n    tag_518:\n        /* \"#utility.yul\":16852:17214   */\n      pop\n        /* \"#utility.yul\":16804:17214   */\n      swap3\n      swap2\n      pop\n      pop\n      jump\t// out\n        /* \"#utility.yul\":17220:17443   */\n    tag_311:\n        /* \"#utility.yul\":17360:17394   */\n      0x4e6f7420656e6f75676820766f74657320286d616a6f72697479207265717569\n        /* \"#utility.yul\":17356:17357   */\n      0x00\n        /* \"#utility.yul\":17348:17354   */\n      dup3\n        /* \"#utility.yul\":17344:17358   */\n      add\n        /* \"#utility.yul\":17337:17395   */\n      mstore\n        /* \"#utility.yul\":17429:17435   */\n      0x7265642900000000000000000000000000000000000000000000000000000000\n        /* \"#utility.yul\":17424:17426   */\n      0x20\n        /* \"#utility.yul\":17416:17422   */\n      dup3\n        /* \"#utility.yul\":17412:17427   */\n      add\n        /* \"#utility.yul\":17405:17436   */\n      mstore\n        /* \"#utility.yul\":17220:17443   */\n      pop\n      jump\t// out\n        /* \"#utility.yul\":17449:17815   */\n    tag_312:\n        /* \"#utility.yul\":17591:17594   */\n      0x00\n        /* \"#utility.yul\":17612:17679   */\n      tag_522\n        /* \"#utility.yul\":17676:17678   */\n      0x24\n        /* \"#utility.yul\":17671:17674   */\n      dup4\n        /* \"#utility.yul\":17612:17679   */\n      tag_268\n      jump\t// in\n    tag_522:\n        /* \"#utility.yul\":17605:17679   */\n      swap2\n      pop\n        /* \"#utility.yul\":17688:17781   */\n      tag_523\n        /* \"#utility.yul\":17777:17780   */\n      dup3\n        /* \"#utility.yul\":17688:17781   */\n      tag_311\n      jump\t// in\n    tag_523:\n        /* \"#utility.yul\":17806:17808   */\n      0x40\n        /* \"#utility.yul\":17801:17804   */\n      dup3\n        /* \"#utility.yul\":17797:17809   */\n      add\n        /* \"#utility.yul\":17790:17809   */\n      swap1\n      pop\n        /* \"#utility.yul\":17449:17815   */\n      swap2\n      swap1\n      pop\n      jump\t// out\n        /* \"#utility.yul\":17821:18240   */\n    tag_156:\n        /* \"#utility.yul\":17987:17991   */\n      0x00\n        /* \"#utility.yul\":18025:18027   */\n      0x20\n        /* \"#utility.yul\":18014:18023   */\n      dup3\n        /* \"#utility.yul\":18010:18028   */\n      add\n        /* \"#utility.yul\":18002:18028   */\n      swap1\n      pop\n        /* \"#utility.yul\":18074:18083   */\n      dup2\n        /* \"#utility.yul\":18068:18072   */\n      dup2\n        /* \"#utility.yul\":18064:18084   */\n      sub\n        /* \"#utility.yul\":18060:18061   */\n      0x00\n        /* \"#utility.yul\":18049:18058   */\n      dup4\n        /* \"#utility.yul\":18045:18062   */\n      add\n        /* \"#utility.yul\":18038:18085   */\n      mstore\n        /* \"#utility.yul\":18102:18233   */\n      tag_525\n        /* \"#utility.yul\":18228:18232   */\n      dup2\n        /* \"#utility.yul\":18102:18233   */\n      tag_312\n      jump\t// in\n    tag_525:\n        /* \"#utility.yul\":18094:18233   */\n      swap1\n      pop\n        /* \"#utility.yul\":17821:18240   */\n      swap2\n      swap1\n      pop\n      jump\t// out\n        /* \"#utility.yul\":18246:18393   */\n    tag_313:\n        /* \"#utility.yul\":18347:18358   */\n      0x00\n        /* \"#utility.yul\":18384:18387   */\n      dup2\n        /* \"#utility.yul\":18369:18387   */\n      swap1\n      pop\n        /* \"#utility.yul\":18246:18393   */\n      swap3\n      swap2\n      pop\n      pop\n      jump\t// out\n        /* \"#utility.yul\":18399:18513   */\n    tag_314:\n      pop\n      jump\t// out\n        /* \"#utility.yul\":18519:18917   */\n    tag_315:\n        /* \"#utility.yul\":18678:18681   */\n      0x00\n        /* \"#utility.yul\":18699:18782   */\n      tag_529\n        /* \"#utility.yul\":18780:18781   */\n      0x00\n        /* \"#utility.yul\":18775:18778   */\n      dup4\n        /* \"#utility.yul\":18699:18782   */\n      tag_313\n      jump\t// in\n    tag_529:\n        /* \"#utility.yul\":18692:18782   */\n      swap2\n      pop\n        /* \"#utility.yul\":18791:18884   */\n      tag_530\n        /* \"#utility.yul\":18880:18883   */\n      dup3\n        /* \"#utility.yul\":18791:18884   */\n      tag_314\n      jump\t// in\n    tag_530:\n        /* \"#utility.yul\":18909:18910   */\n      0x00\n        /* \"#utility.yul\":18904:18907   */\n      dup3\n        /* \"#utility.yul\":18900:18911   */\n      add\n        /* \"#utility.yul\":18893:18911   */\n      swap1\n      pop\n        /* \"#utility.yul\":18519:18917   */\n      swap2\n      swap1\n      pop\n      jump\t// out\n        /* \"#utility.yul\":18923:19302   */\n    tag_158:\n        /* \"#utility.yul\":19107:19110   */\n      0x00\n        /* \"#utility.yul\":19129:19276   */\n      tag_532\n        /* \"#utility.yul\":19272:19275   */\n      dup3\n        /* \"#utility.yul\":19129:19276   */\n      tag_315\n      jump\t// in\n    tag_532:\n        /* \"#utility.yul\":19122:19276   */\n      swap2\n      pop\n        /* \"#utility.yul\":19293:19296   */\n      dup2\n        /* \"#utility.yul\":19286:19296   */\n      swap1\n      pop\n        /* \"#utility.yul\":18923:19302   */\n      swap2\n      swap1\n      pop\n      jump\t// out\n        /* \"#utility.yul\":19308:19473   */\n    tag_316:\n        /* \"#utility.yul\":19448:19465   */\n      0x5472616e73666572206661696c65640000000000000000000000000000000000\n        /* \"#utility.yul\":19444:19445   */\n      0x00\n        /* \"#utility.yul\":19436:19442   */\n      dup3\n        /* \"#utility.yul\":19432:19446   */\n      add\n        /* \"#utility.yul\":19425:19466   */\n      mstore\n        /* \"#utility.yul\":19308:19473   */\n      pop\n      jump\t// out\n        /* \"#utility.yul\":19479:19845   */\n    tag_317:\n        /* \"#utility.yul\":19621:19624   */\n      0x00\n        /* \"#utility.yul\":19642:19709   */\n      tag_535\n        /* \"#utility.yul\":19706:19708   */\n      0x0f\n        /* \"#utility.yul\":19701:19704   */\n      dup4\n        /* \"#utility.yul\":19642:19709   */\n      tag_268\n      jump\t// in\n    tag_535:\n        /* \"#utility.yul\":19635:19709   */\n      swap2\n      pop\n        /* \"#utility.yul\":19718:19811   */\n      tag_536\n        /* \"#utility.yul\":19807:19810   */\n      dup3\n        /* \"#utility.yul\":19718:19811   */\n      tag_316\n      jump\t// in\n    tag_536:\n        /* \"#utility.yul\":19836:19838   */\n      0x20\n        /* \"#utility.yul\":19831:19834   */\n      dup3\n        /* \"#utility.yul\":19827:19839   */\n      add\n        /* \"#utility.yul\":19820:19839   */\n      swap1\n      pop\n        /* \"#utility.yul\":19479:19845   */\n      swap2\n      swap1\n      pop\n      jump\t// out\n        /* \"#utility.yul\":19851:20270   */\n    tag_164:\n        /* \"#utility.yul\":20017:20021   */\n      0x00\n        /* \"#utility.yul\":20055:20057   */\n      0x20\n        /* \"#utility.yul\":20044:20053   */\n      dup3\n        /* \"#utility.yul\":20040:20058   */\n      add\n        /* \"#utility.yul\":20032:20058   */\n      swap1\n      pop\n        /* \"#utility.yul\":20104:20113   */\n      dup2\n        /* \"#utility.yul\":20098:20102   */\n      dup2\n        /* \"#utility.yul\":20094:20114   */\n      sub\n        /* \"#utility.yul\":20090:20091   */\n      0x00\n        /* \"#utility.yul\":20079:20088   */\n      dup4\n        /* \"#utility.yul\":20075:20092   */\n      add\n        /* \"#utility.yul\":20068:20115   */\n      mstore\n        /* \"#utility.yul\":20132:20263   */\n      tag_538\n        /* \"#utility.yul\":20258:20262   */\n      dup2\n        /* \"#utility.yul\":20132:20263   */\n      tag_317\n      jump\t// in\n    tag_538:\n        /* \"#utility.yul\":20124:20263   */\n      swap1\n      pop\n        /* \"#utility.yul\":19851:20270   */\n      swap2\n      swap1\n      pop\n      jump\t// out\n        /* \"#utility.yul\":20276:20336   */\n    tag_318:\n        /* \"#utility.yul\":20304:20307   */\n      0x00\n        /* \"#utility.yul\":20325:20330   */\n      dup2\n        /* \"#utility.yul\":20318:20330   */\n      swap1\n      pop\n        /* \"#utility.yul\":20276:20336   */\n      swap2\n      swap1\n      pop\n      jump\t// out\n        /* \"#utility.yul\":20342:20484   */\n    tag_319:\n        /* \"#utility.yul\":20392:20401   */\n      0x00\n        /* \"#utility.yul\":20425:20478   */\n      tag_541\n        /* \"#utility.yul\":20443:20477   */\n      tag_542\n        /* \"#utility.yul\":20452:20476   */\n      tag_543\n        /* \"#utility.yul\":20470:20475   */\n      dup5\n        /* \"#utility.yul\":20452:20476   */\n      tag_283\n      jump\t// in\n    tag_543:\n        /* \"#utility.yul\":20443:20477   */\n      tag_318\n      jump\t// in\n    tag_542:\n        /* \"#utility.yul\":20425:20478   */\n      tag_283\n      jump\t// in\n    tag_541:\n        /* \"#utility.yul\":20412:20478   */\n      swap1\n      pop\n        /* \"#utility.yul\":20342:20484   */\n      swap2\n      swap1\n      pop\n      jump\t// out\n        /* \"#utility.yul\":20490:20616   */\n    tag_320:\n        /* \"#utility.yul\":20540:20549   */\n      0x00\n        /* \"#utility.yul\":20573:20610   */\n      tag_545\n        /* \"#utility.yul\":20604:20609   */\n      dup3\n        /* \"#utility.yul\":20573:20610   */\n      tag_319\n      jump\t// in\n    tag_545:\n        /* \"#utility.yul\":20560:20610   */\n      swap1\n      pop\n        /* \"#utility.yul\":20490:20616   */\n      swap2\n      swap1\n      pop\n      jump\t// out\n        /* \"#utility.yul\":20622:20756   */\n    tag_321:\n        /* \"#utility.yul\":20680:20689   */\n      0x00\n        /* \"#utility.yul\":20713:20750   */\n      tag_547\n        /* \"#utility.yul\":20744:20749   */\n      dup3\n        /* \"#utility.yul\":20713:20750   */\n      tag_320\n      jump\t// in\n    tag_547:\n        /* \"#utility.yul\":20700:20750   */\n      swap1\n      pop\n        /* \"#utility.yul\":20622:20756   */\n      swap2\n      swap1\n      pop\n      jump\t// out\n        /* \"#utility.yul\":20762:20909   */\n    tag_322:\n        /* \"#utility.yul\":20857:20902   */\n      tag_549\n        /* \"#utility.yul\":20896:20901   */\n      dup2\n        /* \"#utility.yul\":20857:20902   */\n      tag_321\n      jump\t// in\n    tag_549:\n        /* \"#utility.yul\":20852:20855   */\n      dup3\n        /* \"#utility.yul\":20845:20903   */\n      mstore\n        /* \"#utility.yul\":20762:20909   */\n      pop\n      pop\n      jump\t// out\n        /* \"#utility.yul\":20915:21263   */\n    tag_166:\n        /* \"#utility.yul\":21044:21048   */\n      0x00\n        /* \"#utility.yul\":21082:21084   */\n      0x40\n        /* \"#utility.yul\":21071:21080   */\n      dup3\n        /* \"#utility.yul\":21067:21085   */\n      add\n        /* \"#utility.yul\":21059:21085   */\n      swap1\n      pop\n        /* \"#utility.yul\":21095:21174   */\n      tag_551\n        /* \"#utility.yul\":21171:21172   */\n      0x00\n        /* \"#utility.yul\":21160:21169   */\n      dup4\n        /* \"#utility.yul\":21156:21173   */\n      add\n        /* \"#utility.yul\":21147:21153   */\n      dup6\n        /* \"#utility.yul\":21095:21174   */\n      tag_322\n      jump\t// in\n    tag_551:\n        /* \"#utility.yul\":21184:21256   */\n      tag_552\n        /* \"#utility.yul\":21252:21254   */\n      0x20\n        /* \"#utility.yul\":21241:21250   */\n      dup4\n        /* \"#utility.yul\":21237:21255   */\n      add\n        /* \"#utility.yul\":21228:21234   */\n      dup5\n        /* \"#utility.yul\":21184:21256   */\n      tag_273\n      jump\t// in\n    tag_552:\n        /* \"#utility.yul\":20915:21263   */\n      swap4\n      swap3\n      pop\n      pop\n      pop\n      jump\t// out\n        /* \"#utility.yul\":21269:21436   */\n    tag_323:\n        /* \"#utility.yul\":21409:21428   */\n      0x496e76616c696420726563697069656e74000000000000000000000000000000\n        /* \"#utility.yul\":21405:21406   */\n      0x00\n        /* \"#utility.yul\":21397:21403   */\n      dup3\n        /* \"#utility.yul\":21393:21407   */\n      add\n        /* \"#utility.yul\":21386:21429   */\n      mstore\n        /* \"#utility.yul\":21269:21436   */\n      pop\n      jump\t// out\n        /* \"#utility.yul\":21442:21808   */\n    tag_324:\n        /* \"#utility.yul\":21584:21587   */\n      0x00\n        /* \"#utility.yul\":21605:21672   */\n      tag_555\n        /* \"#utility.yul\":21669:21671   */\n      0x11\n        /* \"#utility.yul\":21664:21667   */\n      dup4\n        /* \"#utility.yul\":21605:21672   */\n      tag_268\n      jump\t// in\n    tag_555:\n        /* \"#utility.yul\":21598:21672   */\n      swap2\n      pop\n        /* \"#utility.yul\":21681:21774   */\n      tag_556\n        /* \"#utility.yul\":21770:21773   */\n      dup3\n        /* \"#utility.yul\":21681:21774   */\n      tag_323\n      jump\t// in\n    tag_556:\n        /* \"#utility.yul\":21799:21801   */\n      0x20\n        /* \"#utility.yul\":21794:21797   */\n      dup3\n        /* \"#utility.yul\":21790:21802   */\n      add\n        /* \"#utility.yul\":21783:21802   */\n      swap1\n      pop\n        /* \"#utility.yul\":21442:21808   */\n      swap2\n      swap1\n      pop\n      jump\t// out\n        /* \"#utility.yul\":21814:22233   */\n    tag_173:\n        /* \"#utility.yul\":21980:21984   */\n      0x00\n        /* \"#utility.yul\":22018:22020   */\n      0x20\n        /* \"#utility.yul\":22007:22016   */\n      dup3\n        /* \"#utility.yul\":22003:22021   */\n      add\n        /* \"#utility.yul\":21995:22021   */\n      swap1\n      pop\n        /* \"#utility.yul\":22067:22076   */\n      dup2\n        /* \"#utility.yul\":22061:22065   */\n      dup2\n        /* \"#utility.yul\":22057:22077   */\n      sub\n        /* \"#utility.yul\":22053:22054   */\n      0x00\n        /* \"#utility.yul\":22042:22051   */\n      dup4\n        /* \"#utility.yul\":22038:22055   */\n      add\n        /* \"#utility.yul\":22031:22078   */\n      mstore\n        /* \"#utility.yul\":22095:22226   */\n      tag_558\n        /* \"#utility.yul\":22221:22225   */\n      dup2\n        /* \"#utility.yul\":22095:22226   */\n      tag_324\n      jump\t// in\n    tag_558:\n        /* \"#utility.yul\":22087:22226   */\n      swap1\n      pop\n        /* \"#utility.yul\":21814:22233   */\n      swap2\n      swap1\n      pop\n      jump\t// out\n        /* \"#utility.yul\":22239:22409   */\n    tag_325:\n        /* \"#utility.yul\":22379:22401   */\n      0x4465736372697074696f6e207265717569726564000000000000000000000000\n        /* \"#utility.yul\":22375:22376   */\n      0x00\n        /* \"#utility.yul\":22367:22373   */\n      dup3\n        /* \"#utility.yul\":22363:22377   */\n      add\n        /* \"#utility.yul\":22356:22402   */\n      mstore\n        /* \"#utility.yul\":22239:22409   */\n      pop\n      jump\t// out\n        /* \"#utility.yul\":22415:22781   */\n    tag_326:\n        /* \"#utility.yul\":22557:22560   */\n      0x00\n        /* \"#utility.yul\":22578:22645   */\n      tag_561\n        /* \"#utility.yul\":22642:22644   */\n      0x14\n        /* \"#utility.yul\":22637:22640   */\n      dup4\n        /* \"#utility.yul\":22578:22645   */\n      tag_268\n      jump\t// in\n    tag_561:\n        /* \"#utility.yul\":22571:22645   */\n      swap2\n      pop\n        /* \"#utility.yul\":22654:22747   */\n      tag_562\n        /* \"#utility.yul\":22743:22746   */\n      dup3\n        /* \"#utility.yul\":22654:22747   */\n      tag_325\n      jump\t// in\n    tag_562:\n        /* \"#utility.yul\":22772:22774   */\n      0x20\n        /* \"#utility.yul\":22767:22770   */\n      dup3\n        /* \"#utility.yul\":22763:22775   */\n      add\n        /* \"#utility.yul\":22756:22775   */\n      swap1\n      pop\n        /* \"#utility.yul\":22415:22781   */\n      swap2\n      swap1\n      pop\n      jump\t// out\n        /* \"#utility.yul\":22787:23206   */\n    tag_176:\n        /* \"#utility.yul\":22953:22957   */\n      0x00\n        /* \"#utility.yul\":22991:22993   */\n      0x20\n        /* \"#utility.yul\":22980:22989   */\n      dup3\n        /* \"#utility.yul\":22976:22994   */\n      add\n        /* \"#utility.yul\":22968:22994   */\n      swap1\n      pop\n        /* \"#utility.yul\":23040:23049   */\n      dup2\n        /* \"#utility.yul\":23034:23038   */\n      dup2\n        /* \"#utility.yul\":23030:23050   */\n      sub\n        /* \"#utility.yul\":23026:23027   */\n      0x00\n        /* \"#utility.yul\":23015:23024   */\n      dup4\n        /* \"#utility.yul\":23011:23028   */\n      add\n        /* \"#utility.yul\":23004:23051   */\n      mstore\n        /* \"#utility.yul\":23068:23199   */\n      tag_564\n        /* \"#utility.yul\":23194:23198   */\n      dup2\n        /* \"#utility.yul\":23068:23199   */\n      tag_326\n      jump\t// in\n    tag_564:\n        /* \"#utility.yul\":23060:23199   */\n      swap1\n      pop\n        /* \"#utility.yul\":22787:23206   */\n      swap2\n      swap1\n      pop\n      jump\t// out\n        /* \"#utility.yul\":23212:23380   */\n    tag_327:\n        /* \"#utility.yul\":23352:23372   */\n      0x56616c7565203e20302072657175697265640000000000000000000000000000\n        /* \"#utility.yul\":23348:23349   */\n      0x00\n        /* \"#utility.yul\":23340:23346   */\n      dup3\n        /* \"#utility.yul\":23336:23350   */\n      add\n        /* \"#utility.yul\":23329:23373   */\n      mstore\n        /* \"#utility.yul\":23212:23380   */\n      pop\n      jump\t// out\n        /* \"#utility.yul\":23386:23752   */\n    tag_328:\n        /* \"#utility.yul\":23528:23531   */\n      0x00\n        /* \"#utility.yul\":23549:23616   */\n      tag_567\n        /* \"#utility.yul\":23613:23615   */\n      0x12\n        /* \"#utility.yul\":23608:23611   */\n      dup4\n        /* \"#utility.yul\":23549:23616   */\n      tag_268\n      jump\t// in\n    tag_567:\n        /* \"#utility.yul\":23542:23616   */\n      swap2\n      pop\n        /* \"#utility.yul\":23625:23718   */\n      tag_568\n        /* \"#utility.yul\":23714:23717   */\n      dup3\n        /* \"#utility.yul\":23625:23718   */\n      tag_327\n      jump\t// in\n    tag_568:\n        /* \"#utility.yul\":23743:23745   */\n      0x20\n        /* \"#utility.yul\":23738:23741   */\n      dup3\n        /* \"#utility.yul\":23734:23746   */\n      add\n        /* \"#utility.yul\":23727:23746   */\n      swap1\n      pop\n        /* \"#utility.yul\":23386:23752   */\n      swap2\n      swap1\n      pop\n      jump\t// out\n        /* \"#utility.yul\":23758:24177   */\n    tag_179:\n        /* \"#utility.yul\":23924:23928   */\n      0x00\n        /* \"#utility.yul\":23962:23964   */\n      0x20\n        /* \"#utility.yul\":23951:23960   */\n      dup3\n        /* \"#utility.yul\":23947:23965   */\n      add\n        /* \"#utility.yul\":23939:23965   */\n      swap1\n      pop\n        /* \"#utility.yul\":24011:24020   */\n      dup2\n        /* \"#utility.yul\":24005:24009   */\n      dup2\n        /* \"#utility.yul\":24001:24021   */\n      sub\n        /* \"#utility.yul\":23997:23998   */\n      0x00\n        /* \"#utility.yul\":23986:23995   */\n      dup4\n        /* \"#utility.yul\":23982:23999   */\n      add\n        /* \"#utility.yul\":23975:24022   */\n      mstore\n        /* \"#utility.yul\":24039:24170   */\n      tag_570\n        /* \"#utility.yul\":24165:24169   */\n      dup2\n        /* \"#utility.yul\":24039:24170   */\n      tag_328\n      jump\t// in\n    tag_570:\n        /* \"#utility.yul\":24031:24170   */\n      swap1\n      pop\n        /* \"#utility.yul\":23758:24177   */\n      swap2\n      swap1\n      pop\n      jump\t// out\n        /* \"#utility.yul\":24183:24280   */\n    tag_329:\n        /* \"#utility.yul\":24242:24248   */\n      0x00\n        /* \"#utility.yul\":24270:24273   */\n      dup3\n        /* \"#utility.yul\":24260:24273   */\n      swap1\n      pop\n        /* \"#utility.yul\":24183:24280   */\n      swap3\n      swap2\n      pop\n      pop\n      jump\t// out\n        /* \"#utility.yul\":24286:24466   */\n    tag_330:\n        /* \"#utility.yul\":24334:24411   */\n      0x4e487b7100000000000000000000000000000000000000000000000000000000\n        /* \"#utility.yul\":24331:24332   */\n      0x00\n        /* \"#utility.yul\":24324:24412   */\n      mstore\n        /* \"#utility.yul\":24431:24435   */\n      0x41\n        /* \"#utility.yul\":24428:24429   */\n      0x04\n        /* \"#utility.yul\":24421:24436   */\n      mstore\n        /* \"#utility.yul\":24455:24459   */\n      0x24\n        /* \"#utility.yul\":24452:24453   */\n      0x00\n        /* \"#utility.yul\":24445:24460   */\n      revert\n        /* \"#utility.yul\":24472:24652   */\n    tag_331:\n        /* \"#utility.yul\":24520:24597   */\n      0x4e487b7100000000000000000000000000000000000000000000000000000000\n        /* \"#utility.yul\":24517:24518   */\n      0x00\n        /* \"#utility.yul\":24510:24598   */\n      mstore\n        /* \"#utility.yul\":24617:24621   */\n      0x22\n        /* \"#utility.yul\":24614:24615   */\n      0x04\n        /* \"#utility.yul\":24607:24622   */\n      mstore\n        /* \"#utility.yul\":24641:24645   */\n      0x24\n        /* \"#utility.yul\":24638:24639   */\n      0x00\n        /* \"#utility.yul\":24631:24646   */\n      revert\n        /* \"#utility.yul\":24658:24978   */\n    tag_243:\n        /* \"#utility.yul\":24702:24708   */\n      0x00\n        /* \"#utility.yul\":24739:24740   */\n      0x02\n        /* \"#utility.yul\":24733:24737   */\n      dup3\n        /* \"#utility.yul\":24729:24741   */\n      div\n        /* \"#utility.yul\":24719:24741   */\n      swap1\n      pop\n        /* \"#utility.yul\":24786:24787   */\n      0x01\n        /* \"#utility.yul\":24780:24784   */\n      dup3\n        /* \"#utility.yul\":24776:24788   */\n      and\n        /* \"#utility.yul\":24807:24825   */\n      dup1\n        /* \"#utility.yul\":24797:24878   */\n      tag_575\n      jumpi\n        /* \"#utility.yul\":24863:24867   */\n      0x7f\n        /* \"#utility.yul\":24855:24861   */\n      dup3\n        /* \"#utility.yul\":24851:24868   */\n      and\n        /* \"#utility.yul\":24841:24868   */\n      swap2\n      pop\n        /* \"#utility.yul\":24797:24878   */\n    tag_575:\n        /* \"#utility.yul\":24925:24927   */\n      0x20\n        /* \"#utility.yul\":24917:24923   */\n      dup3\n        /* \"#utility.yul\":24914:24928   */\n      lt\n        /* \"#utility.yul\":24894:24912   */\n      dup2\n        /* \"#utility.yul\":24891:24929   */\n      sub\n        /* \"#utility.yul\":24888:24972   */\n      tag_576\n      jumpi\n        /* \"#utility.yul\":24944:24962   */\n      tag_577\n      tag_331\n      jump\t// in\n    tag_577:\n        /* \"#utility.yul\":24888:24972   */\n    tag_576:\n        /* \"#utility.yul\":24709:24978   */\n      pop\n        /* \"#utility.yul\":24658:24978   */\n      swap2\n      swap1\n      pop\n      jump\t// out\n        /* \"#utility.yul\":24984:25125   */\n    tag_332:\n        /* \"#utility.yul\":25033:25037   */\n      0x00\n        /* \"#utility.yul\":25056:25059   */\n      dup2\n        /* \"#utility.yul\":25048:25059   */\n      swap1\n      pop\n        /* \"#utility.yul\":25079:25082   */\n      dup2\n        /* \"#utility.yul\":25076:25077   */\n      0x00\n        /* \"#utility.yul\":25069:25083   */\n      mstore\n        /* \"#utility.yul\":25113:25117   */\n      0x20\n        /* \"#utility.yul\":25110:25111   */\n      0x00\n        /* \"#utility.yul\":25100:25118   */\n      keccak256\n        /* \"#utility.yul\":25092:25118   */\n      swap1\n      pop\n        /* \"#utility.yul\":24984:25125   */\n      swap2\n      swap1\n      pop\n      jump\t// out\n        /* \"#utility.yul\":25131:25224   */\n    tag_333:\n        /* \"#utility.yul\":25168:25174   */\n      0x00\n        /* \"#utility.yul\":25215:25217   */\n      0x20\n        /* \"#utility.yul\":25210:25212   */\n      0x1f\n        /* \"#utility.yul\":25203:25208   */\n      dup4\n        /* \"#utility.yul\":25199:25213   */\n      add\n        /* \"#utility.yul\":25195:25218   */\n      div\n        /* \"#utility.yul\":25185:25218   */\n      swap1\n      pop\n        /* \"#utility.yul\":25131:25224   */\n      swap2\n      swap1\n      pop\n      jump\t// out\n        /* \"#utility.yul\":25230:25337   */\n    tag_334:\n        /* \"#utility.yul\":25274:25282   */\n      0x00\n        /* \"#utility.yul\":25324:25329   */\n      dup3\n        /* \"#utility.yul\":25318:25322   */\n      dup3\n        /* \"#utility.yul\":25314:25330   */\n      shl\n        /* \"#utility.yul\":25293:25330   */\n      swap1\n      pop\n        /* \"#utility.yul\":25230:25337   */\n      swap3\n      swap2\n      pop\n      pop\n      jump\t// out\n        /* \"#utility.yul\":25343:25736   */\n    tag_335:\n        /* \"#utility.yul\":25412:25418   */\n      0x00\n        /* \"#utility.yul\":25462:25463   */\n      0x08\n        /* \"#utility.yul\":25450:25460   */\n      dup4\n        /* \"#utility.yul\":25446:25464   */\n      mul\n        /* \"#utility.yul\":25485:25582   */\n      tag_582\n        /* \"#utility.yul\":25515:25581   */\n      0xffffffffffffffffffffffffffffffffffffffffffffffffffffffffffffffff\n        /* \"#utility.yul\":25504:25513   */\n      dup3\n        /* \"#utility.yul\":25485:25582   */\n      tag_334\n      jump\t// in\n    tag_582:\n        /* \"#utility.yul\":25603:25642   */\n      tag_583\n        /* \"#utility.yul\":25633:25641   */\n      dup7\n        /* \"#utility.yul\":25622:25631   */\n      dup4\n        /* \"#utility.yul\":25603:25642   */\n      tag_334\n      jump\t// in\n    tag_583:\n        /* \"#utility.yul\":25591:25642   */\n      swap6\n      pop\n        /* \"#utility.yul\":25675:25679   */\n      dup1\n        /* \"#utility.yul\":25671:25680   */\n      not\n        /* \"#utility.yul\":25664:25669   */\n      dup5\n        /* \"#utility.yul\":25660:25681   */\n      and\n        /* \"#utility.yul\":25651:25681   */\n      swap4\n      pop\n        /* \"#utility.yul\":25724:25728   */\n      dup1\n        /* \"#utility.yul\":25714:25722   */\n      dup7\n        /* \"#utility.yul\":25710:25729   */\n      and\n        /* \"#utility.yul\":25703:25708   */\n      dup5\n        /* \"#utility.yul\":25700:25730   */\n      or\n        /* \"#utility.yul\":25690:25730   */\n      swap3\n      pop\n        /* \"#utility.yul\":25419:25736   */\n      pop\n      pop\n        /* \"#utility.yul\":25343:25736   */\n      swap4\n      swap3\n      pop\n      pop\n      pop\n      jump\t// out\n        /* \"#utility.yul\":25742:25884   */\n    tag_336:\n        /* \"#utility.yul\":25792:25801   */\n      0x00\n        /* \"#utility.yul\":25825:25878   */\n      tag_585\n        /* \"#utility.yul\":25843:25877   */\n      tag_586\n        /* \"#utility.yul\":25852:25876   */\n      tag_587\n        /* \"#utility.yul\":25870:25875   */\n      dup5\n        /* \"#utility.yul\":25852:25876   */\n      tag_271\n      jump\t// in\n    tag_587:\n        /* \"#utility.yul\":25843:25877   */\n      tag_318\n      jump\t// in\n    tag_586:\n        /* \"#utility.yul\":25825:25878   */\n      tag_271\n      jump\t// in\n    tag_585:\n        /* \"#utility.yul\":25812:25878   */\n      swap1\n      pop\n        /* \"#utility.yul\":25742:25884   */\n      swap2\n      swap1\n      pop\n      jump\t// out\n        /* \"#utility.yul\":25890:25965   */\n    tag_337:\n        /* \"#utility.yul\":25933:25936   */\n      0x00\n        /* \"#utility.yul\":25954:25959   */\n      dup2\n        /* \"#utility.yul\":25947:25959   */\n      swap1\n      pop\n        /* \"#utility.yul\":25890:25965   */\n      swap2\n      swap1\n      pop\n      jump\t// out\n        /* \"#utility.yul\":25971:26240   */\n    tag_338:\n        /* \"#utility.yul\":26081:26120   */\n      tag_590\n        /* \"#utility.yul\":26112:26119   */\n      dup4\n        /* \"#utility.yul\":26081:26120   */\n      tag_336\n      jump\t// in\n    tag_590:\n        /* \"#utility.yul\":26142:26233   */\n      tag_591\n        /* \"#utility.yul\":26191:26232   */\n      tag_592\n        /* \"#utility.yul\":26215:26231   */\n      dup3\n        /* \"#utility.yul\":26191:26232   */\n      tag_337\n      jump\t// in\n    tag_592:\n        /* \"#utility.yul\":26183:26189   */\n      dup5\n        /* \"#utility.yul\":26176:26180   */\n      dup5\n        /* \"#utility.yul\":26170:26181   */\n      sload\n        /* \"#utility.yul\":26142:26233   */\n      tag_335\n      jump\t// in\n    tag_591:\n        /* \"#utility.yul\":26136:26140   */\n      dup3\n        /* \"#utility.yul\":26129:26234   */\n      sstore\n        /* \"#utility.yul\":26047:26240   */\n      pop\n        /* \"#utility.yul\":25971:26240   */\n      pop\n      pop\n      pop\n      jump\t// out\n        /* \"#utility.yul\":26246:26319   */\n    tag_339:\n        /* \"#utility.yul\":26291:26294   */\n      0x00\n        /* \"#utility.yul\":26312:26313   */\n      0x00\n        /* \"#utility.yul\":26305:26313   */\n      swap1\n      pop\n        /* \"#utility.yul\":26246:26319   */\n      swap1\n      jump\t// out\n        /* \"#utility.yul\":26325:26514   */\n    tag_340:\n        /* \"#utility.yul\":26402:26434   */\n      tag_595\n      tag_339\n      jump\t// in\n    tag_595:\n        /* \"#utility.yul\":26443:26508   */\n      tag_596\n        /* \"#utility.yul\":26501:26507   */\n      dup2\n        /* \"#utility.yul\":26493:26499   */\n      dup5\n        /* \"#utility.yul\":26487:26491   */\n      dup5\n        /* \"#utility.yul\":26443:26508   */\n      tag_338\n      jump\t// in\n    tag_596:\n        /* \"#utility.yul\":26378:26514   */\n      pop\n        /* \"#utility.yul\":26325:26514   */\n      pop\n      pop\n      jump\t// out\n        /* \"#utility.yul\":26520:26706   */\n    tag_341:\n        /* \"#utility.yul\":26580:26700   */\n    tag_598:\n        /* \"#utility.yul\":26597:26600   */\n      dup2\n        /* \"#utility.yul\":26590:26595   */\n      dup2\n        /* \"#utility.yul\":26587:26601   */\n      lt\n        /* \"#utility.yul\":26580:26700   */\n      iszero\n      tag_600\n      jumpi\n        /* \"#utility.yul\":26651:26690   */\n      tag_601\n        /* \"#utility.yul\":26688:26689   */\n      0x00\n        /* \"#utility.yul\":26681:26686   */\n      dup3\n        /* \"#utility.yul\":26651:26690   */\n      tag_340\n      jump\t// in\n    tag_601:\n        /* \"#utility.yul\":26624:26625   */\n      0x01\n        /* \"#utility.yul\":26617:26622   */\n      dup2\n        /* \"#utility.yul\":26613:26626   */\n      add\n        /* \"#utility.yul\":26604:26626   */\n      swap1\n      pop\n        /* \"#utility.yul\":26580:26700   */\n      jump(tag_598)\n    tag_600:\n        /* \"#utility.yul\":26520:26706   */\n      pop\n      pop\n      jump\t// out\n        /* \"#utility.yul\":26712:27255   */\n    tag_342:\n        /* \"#utility.yul\":26813:26815   */\n      0x1f\n        /* \"#utility.yul\":26808:26811   */\n      dup3\n        /* \"#utility.yul\":26805:26816   */\n      gt\n        /* \"#utility.yul\":26802:27248   */\n      iszero\n      tag_603\n      jumpi\n        /* \"#utility.yul\":26847:26885   */\n      tag_604\n        /* \"#utility.yul\":26879:26884   */\n      dup2\n        /* \"#utility.yul\":26847:26885   */\n      tag_332\n      jump\t// in\n    tag_604:\n        /* \"#utility.yul\":26931:26960   */\n      tag_605\n        /* \"#utility.yul\":26949:26959   */\n      dup5\n        /* \"#utility.yul\":26931:26960   */\n      tag_333\n      jump\t// in\n    tag_605:\n        /* \"#utility.yul\":26921:26929   */\n      dup2\n        /* \"#utility.yul\":26917:26961   */\n      add\n        /* \"#utility.yul\":27114:27116   */\n      0x20\n        /* \"#utility.yul\":27102:27112   */\n      dup6\n        /* \"#utility.yul\":27099:27117   */\n      lt\n        /* \"#utility.yul\":27096:27145   */\n      iszero\n      tag_606\n      jumpi\n        /* \"#utility.yul\":27135:27143   */\n      dup2\n        /* \"#utility.yul\":27120:27143   */\n      swap1\n      pop\n        /* \"#utility.yul\":27096:27145   */\n    tag_606:\n        /* \"#utility.yul\":27158:27238   */\n      tag_607\n        /* \"#utility.yul\":27214:27236   */\n      tag_608\n        /* \"#utility.yul\":27232:27235   */\n      dup6\n        /* \"#utility.yul\":27214:27236   */\n      tag_333\n      jump\t// in\n    tag_608:\n        /* \"#utility.yul\":27204:27212   */\n      dup4\n        /* \"#utility.yul\":27200:27237   */\n      add\n        /* \"#utility.yul\":27187:27198   */\n      dup3\n        /* \"#utility.yul\":27158:27238   */\n      tag_341\n      jump\t// in\n    tag_607:\n        /* \"#utility.yul\":26817:27248   */\n      pop\n      pop\n        /* \"#utility.yul\":26802:27248   */\n    tag_603:\n        /* \"#utility.yul\":26712:27255   */\n      pop\n      pop\n      pop\n      jump\t// out\n        /* \"#utility.yul\":27261:27378   */\n    tag_343:\n        /* \"#utility.yul\":27315:27323   */\n      0x00\n        /* \"#utility.yul\":27365:27370   */\n      dup3\n        /* \"#utility.yul\":27359:27363   */\n      dup3\n        /* \"#utility.yul\":27355:27371   */\n      shr\n        /* \"#utility.yul\":27334:27371   */\n      swap1\n      pop\n        /* \"#utility.yul\":27261:27378   */\n      swap3\n      swap2\n      pop\n      pop\n      jump\t// out\n        /* \"#utility.yul\":27384:27553   */\n    tag_344:\n        /* \"#utility.yul\":27428:27434   */\n      0x00\n        /* \"#utility.yul\":27461:27512   */\n      tag_611\n        /* \"#utility.yul\":27509:27510   */\n      0x00\n        /* \"#utility.yul\":27505:27511   */\n      not\n        /* \"#utility.yul\":27497:27502   */\n      dup5\n        /* \"#utility.yul\":27494:27495   */\n      0x08\n        /* \"#utility.yul\":27490:27503   */\n      mul\n        /* \"#utility.yul\":27461:27512   */\n      tag_343\n      jump\t// in\n    tag_611:\n        /* \"#utility.yul\":27457:27513   */\n      not\n        /* \"#utility.yul\":27542:27546   */\n      dup1\n        /* \"#utility.yul\":27536:27540   */\n      dup4\n        /* \"#utility.yul\":27532:27547   */\n      and\n        /* \"#utility.yul\":27522:27547   */\n      swap2\n      pop\n        /* \"#utility.yul\":27435:27553   */\n      pop\n        /* \"#utility.yul\":27384:27553   */\n      swap3\n      swap2\n      pop\n      pop\n      jump\t// out\n        /* \"#utility.yul\":27558:27853   */\n    tag_345:\n        /* \"#utility.yul\":27634:27638   */\n      0x00\n        /* \"#utility.yul\":27780:27809   */\n      tag_613\n        /* \"#utility.yul\":27805:27808   */\n      dup4\n        /* \"#utility.yul\":27799:27803   */\n      dup4\n        /* \"#utility.yul\":27780:27809   */\n      tag_344\n      jump\t// in\n    tag_613:\n        /* \"#utility.yul\":27772:27809   */\n      swap2\n      pop\n        /* \"#utility.yul\":27842:27845   */\n      dup3\n        /* \"#utility.yul\":27839:27840   */\n      0x02\n        /* \"#utility.yul\":27835:27846   */\n      mul\n        /* \"#utility.yul\":27829:27833   */\n      dup3\n        /* \"#utility.yul\":27826:27847   */\n      or\n        /* \"#utility.yul\":27818:27847   */\n      swap1\n      pop\n        /* \"#utility.yul\":27558:27853   */\n      swap3\n      swap2\n      pop\n      pop\n      jump\t// out\n        /* \"#utility.yul\":27858:29261   */\n    tag_182:\n        /* \"#utility.yul\":27982:28026   */\n      tag_615\n        /* \"#utility.yul\":28022:28025   */\n      dup4\n        /* \"#utility.yul\":28017:28020   */\n      dup4\n        /* \"#utility.yul\":27982:28026   */\n      tag_329\n      jump\t// in\n    tag_615:\n        /* \"#utility.yul\":28091:28109   */\n      0xffffffffffffffff\n        /* \"#utility.yul\":28083:28089   */\n      dup2\n        /* \"#utility.yul\":28080:28110   */\n      gt\n        /* \"#utility.yul\":28077:28133   */\n      iszero\n      tag_616\n      jumpi\n        /* \"#utility.yul\":28113:28131   */\n      tag_617\n      tag_330\n      jump\t// in\n    tag_617:\n        /* \"#utility.yul\":28077:28133   */\n    tag_616:\n        /* \"#utility.yul\":28157:28195   */\n      tag_618\n        /* \"#utility.yul\":28189:28193   */\n      dup3\n        /* \"#utility.yul\":28183:28194   */\n      sload\n        /* \"#utility.yul\":28157:28195   */\n      tag_243\n      jump\t// in\n    tag_618:\n        /* \"#utility.yul\":28242:28309   */\n      tag_619\n        /* \"#utility.yul\":28302:28308   */\n      dup3\n        /* \"#utility.yul\":28294:28300   */\n      dup3\n        /* \"#utility.yul\":28288:28292   */\n      dup6\n        /* \"#utility.yul\":28242:28309   */\n      tag_342\n      jump\t// in\n    tag_619:\n        /* \"#utility.yul\":28336:28337   */\n      0x00\n        /* \"#utility.yul\":28365:28367   */\n      0x1f\n        /* \"#utility.yul\":28357:28363   */\n      dup4\n        /* \"#utility.yul\":28354:28368   */\n      gt\n        /* \"#utility.yul\":28382:28383   */\n      0x01\n        /* \"#utility.yul\":28377:29009   */\n      dup2\n      eq\n      tag_621\n      jumpi\n        /* \"#utility.yul\":29053:29054   */\n      0x00\n        /* \"#utility.yul\":29070:29076   */\n      dup5\n        /* \"#utility.yul\":29067:29151   */\n      iszero\n      tag_622\n      jumpi\n        /* \"#utility.yul\":29126:29135   */\n      dup3\n        /* \"#utility.yul\":29121:29124   */\n      dup8\n        /* \"#utility.yul\":29117:29136   */\n      add\n        /* \"#utility.yul\":29104:29137   */\n      calldataload\n        /* \"#utility.yul\":29095:29137   */\n      swap1\n      pop\n        /* \"#utility.yul\":29067:29151   */\n    tag_622:\n        /* \"#utility.yul\":29177:29244   */\n      tag_623\n        /* \"#utility.yul\":29237:29243   */\n      dup6\n        /* \"#utility.yul\":29230:29235   */\n      dup3\n        /* \"#utility.yul\":29177:29244   */\n      tag_345\n      jump\t// in\n    tag_623:\n        /* \"#utility.yul\":29171:29175   */\n      dup7\n        /* \"#utility.yul\":29164:29245   */\n      sstore\n        /* \"#utility.yul\":29026:29255   */\n      pop\n        /* \"#utility.yul\":28347:29255   */\n      jump(tag_620)\n        /* \"#utility.yul\":28377:29009   */\n    tag_621:\n        /* \"#utility.yul\":28429:28433   */\n      0x1f\n        /* \"#utility.yul\":28425:28434   */\n      not\n        /* \"#utility.yul\":28417:28423   */\n      dup5\n        /* \"#utility.yul\":28413:28435   */\n      and\n        /* \"#utility.yul\":28463:28500   */\n      tag_624\n        /* \"#utility.yul\":28495:28499   */\n      dup7\n        /* \"#utility.yul\":28463:28500   */\n      tag_332\n      jump\t// in\n    tag_624:\n        /* \"#utility.yul\":28522:28523   */\n      0x00\n        /* \"#utility.yul\":28536:28751   */\n    tag_625:\n        /* \"#utility.yul\":28550:28557   */\n      dup3\n        /* \"#utility.yul\":28547:28548   */\n      dup2\n        /* \"#utility.yul\":28544:28558   */\n      lt\n        /* \"#utility.yul\":28536:28751   */\n      iszero\n      tag_627\n      jumpi\n        /* \"#utility.yul\":28636:28645   */\n      dup5\n        /* \"#utility.yul\":28631:28634   */\n      dup10\n        /* \"#utility.yul\":28627:28646   */\n      add\n        /* \"#utility.yul\":28614:28647   */\n      calldataload\n        /* \"#utility.yul\":28606:28612   */\n      dup3\n        /* \"#utility.yul\":28599:28648   */\n      sstore\n        /* \"#utility.yul\":28687:28688   */\n      0x01\n        /* \"#utility.yul\":28679:28685   */\n      dup3\n        /* \"#utility.yul\":28675:28689   */\n      add\n        /* \"#utility.yul\":28665:28689   */\n      swap2\n      pop\n        /* \"#utility.yul\":28734:28736   */\n      0x20\n        /* \"#utility.yul\":28723:28732   */\n      dup6\n        /* \"#utility.yul\":28719:28737   */\n      add\n        /* \"#utility.yul\":28706:28737   */\n      swap5\n      pop\n        /* \"#utility.yul\":28573:28577   */\n      0x20\n        /* \"#utility.yul\":28570:28571   */\n      dup2\n        /* \"#utility.yul\":28566:28578   */\n      add\n        /* \"#utility.yul\":28561:28578   */\n      swap1\n      pop\n        /* \"#utility.yul\":28536:28751   */\n      jump(tag_625)\n    tag_627:\n        /* \"#utility.yul\":28779:28785   */\n      dup7\n        /* \"#utility.yul\":28770:28777   */\n      dup4\n        /* \"#utility.yul\":28767:28786   */\n      lt\n        /* \"#utility.yul\":28764:28950   */\n      iszero\n      tag_628\n      jumpi\n        /* \"#utility.yul\":28844:28853   */\n      dup5\n        /* \"#utility.yul\":28839:28842   */\n      dup10\n        /* \"#utility.yul\":28835:28854   */\n      add\n        /* \"#utility.yul\":28822:28855   */\n      calldataload\n        /* \"#utility.yul\":28887:28935   */\n      tag_629\n        /* \"#utility.yul\":28929:28933   */\n      0x1f\n        /* \"#utility.yul\":28921:28927   */\n      dup10\n        /* \"#utility.yul\":28917:28934   */\n      and\n        /* \"#utility.yul\":28906:28915   */\n      dup3\n        /* \"#utility.yul\":28887:28935   */\n      tag_344\n      jump\t// in\n    tag_629:\n        /* \"#utility.yul\":28879:28885   */\n      dup4\n        /* \"#utility.yul\":28872:28936   */\n      sstore\n        /* \"#utility.yul\":28787:28950   */\n      pop\n        /* \"#utility.yul\":28764:28950   */\n    tag_628:\n        /* \"#utility.yul\":28996:28997   */\n      0x01\n        /* \"#utility.yul\":28992:28993   */\n      0x02\n        /* \"#utility.yul\":28984:28990   */\n      dup9\n        /* \"#utility.yul\":28980:28994   */\n      mul\n        /* \"#utility.yul\":28976:28998   */\n      add\n        /* \"#utility.yul\":28970:28974   */\n      dup9\n        /* \"#utility.yul\":28963:28999   */\n      sstore\n        /* \"#utility.yul\":28384:29009   */\n      pop\n      pop\n      pop\n        /* \"#utility.yul\":28347:29255   */\n    tag_620:\n      pop\n        /* \"#utility.yul\":27957:29261   */\n      pop\n      pop\n      pop\n        /* \"#utility.yul\":27858:29261   */\n      pop\n      pop\n      pop\n      jump\t// out\n        /* \"#utility.yul\":29267:29461   */\n    tag_184:\n        /* \"#utility.yul\":29307:29311   */\n      0x00\n        /* \"#utility.yul\":29327:29347   */\n      tag_631\n        /* \"#utility.yul\":29345:29346   */\n      dup3\n        /* \"#utility.yul\":29327:29347   */\n      tag_271\n      jump\t// in\n    tag_631:\n        /* \"#utility.yul\":29322:29347   */\n      swap2\n      pop\n        /* \"#utility.yul\":29361:29381   */\n      tag_632\n        /* \"#utility.yul\":29379:29380   */\n      dup4\n        /* \"#utility.yul\":29361:29381   */\n      tag_271\n      jump\t// in\n    tag_632:\n        /* \"#utility.yul\":29356:29381   */\n      swap3\n      pop\n        /* \"#utility.yul\":29405:29406   */\n      dup3\n        /* \"#utility.yul\":29402:29403   */\n      dup3\n        /* \"#utility.yul\":29398:29407   */\n      sub\n        /* \"#utility.yul\":29390:29407   */\n      swap1\n      pop\n        /* \"#utility.yul\":29429:29430   */\n      dup2\n        /* \"#utility.yul\":29423:29427   */\n      dup2\n        /* \"#utility.yul\":29420:29431   */\n      gt\n        /* \"#utility.yul\":29417:29454   */\n      iszero\n      tag_633\n      jumpi\n        /* \"#utility.yul\":29434:29452   */\n      tag_634\n      tag_272\n      jump\t// in\n    tag_634:\n        /* \"#utility.yul\":29417:29454   */\n    tag_633:\n        /* \"#utility.yul\":29267:29461   */\n      swap3\n      swap2\n      pop\n      pop\n      jump\t// out\n        /* \"#utility.yul\":29467:29615   */\n    tag_346:\n        /* \"#utility.yul\":29565:29571   */\n      dup3\n        /* \"#utility.yul\":29560:29563   */\n      dup2\n        /* \"#utility.yul\":29555:29558   */\n      dup4\n        /* \"#utility.yul\":29542:29572   */\n      calldatacopy\n        /* \"#utility.yul\":29606:29607   */\n      0x00\n        /* \"#utility.yul\":29597:29603   */\n      dup4\n        /* \"#utility.yul\":29592:29595   */\n      dup4\n        /* \"#utility.yul\":29588:29604   */\n      add\n        /* \"#utility.yul\":29581:29608   */\n      mstore\n        /* \"#utility.yul\":29467:29615   */\n      pop\n      pop\n      pop\n      jump\t// out\n        /* \"#utility.yul\":29645:29962   */\n    tag_347:\n        /* \"#utility.yul\":29743:29746   */\n      0x00\n        /* \"#utility.yul\":29764:29835   */\n      tag_637\n        /* \"#utility.yul\":29828:29834   */\n      dup4\n        /* \"#utility.yul\":29823:29826   */\n      dup6\n        /* \"#utility.yul\":29764:29835   */\n      tag_268\n      jump\t// in\n    tag_637:\n        /* \"#utility.yul\":29757:29835   */\n      swap4\n      pop\n        /* \"#utility.yul\":29845:29901   */\n      tag_638\n        /* \"#utility.yul\":29894:29900   */\n      dup4\n        /* \"#utility.yul\":29889:29892   */\n      dup6\n        /* \"#utility.yul\":29882:29887   */\n      dup5\n        /* \"#utility.yul\":29845:29901   */\n      tag_346\n      jump\t// in\n    tag_638:\n        /* \"#utility.yul\":29926:29955   */\n      tag_639\n        /* \"#utility.yul\":29948:29954   */\n      dup4\n        /* \"#utility.yul\":29926:29955   */\n      tag_295\n      jump\t// in\n    tag_639:\n        /* \"#utility.yul\":29921:29924   */\n      dup5\n        /* \"#utility.yul\":29917:29956   */\n      add\n        /* \"#utility.yul\":29910:29956   */\n      swap1\n      pop\n        /* \"#utility.yul\":29645:29962   */\n      swap4\n      swap3\n      pop\n      pop\n      pop\n      jump\t// out\n        /* \"#utility.yul\":29968:30537   */\n    tag_186:\n        /* \"#utility.yul\":30155:30159   */\n      0x00\n        /* \"#utility.yul\":30193:30195   */\n      0x60\n        /* \"#utility.yul\":30182:30191   */\n      dup3\n        /* \"#utility.yul\":30178:30196   */\n      add\n        /* \"#utility.yul\":30170:30196   */\n      swap1\n      pop\n        /* \"#utility.yul\":30242:30251   */\n      dup2\n        /* \"#utility.yul\":30236:30240   */\n      dup2\n        /* \"#utility.yul\":30232:30252   */\n      sub\n        /* \"#utility.yul\":30228:30229   */\n      0x00\n        /* \"#utility.yul\":30217:30226   */\n      dup4\n        /* \"#utility.yul\":30213:30230   */\n      add\n        /* \"#utility.yul\":30206:30253   */\n      mstore\n        /* \"#utility.yul\":30270:30358   */\n      tag_641\n        /* \"#utility.yul\":30353:30357   */\n      dup2\n        /* \"#utility.yul\":30344:30350   */\n      dup7\n        /* \"#utility.yul\":30336:30342   */\n      dup9\n        /* \"#utility.yul\":30270:30358   */\n      tag_347\n      jump\t// in\n    tag_641:\n        /* \"#utility.yul\":30262:30358   */\n      swap1\n      pop\n        /* \"#utility.yul\":30368:30448   */\n      tag_642\n        /* \"#utility.yul\":30444:30446   */\n      0x20\n        /* \"#utility.yul\":30433:30442   */\n      dup4\n        /* \"#utility.yul\":30429:30447   */\n      add\n        /* \"#utility.yul\":30420:30426   */\n      dup6\n        /* \"#utility.yul\":30368:30448   */\n      tag_322\n      jump\t// in\n    tag_642:\n        /* \"#utility.yul\":30458:30530   */\n      tag_643\n        /* \"#utility.yul\":30526:30528   */\n      0x40\n        /* \"#utility.yul\":30515:30524   */\n      dup4\n        /* \"#utility.yul\":30511:30529   */\n      add\n        /* \"#utility.yul\":30502:30508   */\n      dup5\n        /* \"#utility.yul\":30458:30530   */\n      tag_273\n      jump\t// in\n    tag_643:\n        /* \"#utility.yul\":29968:30537   */\n      swap6\n      swap5\n      pop\n      pop\n      pop\n      pop\n      pop\n      jump\t// out\n        /* \"#utility.yul\":30543:30719   */\n    tag_348:\n        /* \"#utility.yul\":30683:30711   */\n      0x4f6e6c7920636f6e7472696275746f72732063616e20766f7465000000000000\n        /* \"#utility.yul\":30679:30680   */\n      0x00\n        /* \"#utility.yul\":30671:30677   */\n      dup3\n        /* \"#utility.yul\":30667:30681   */\n      add\n        /* \"#utility.yul\":30660:30712   */\n      mstore\n        /* \"#utility.yul\":30543:30719   */\n      pop\n      jump\t// out\n        /* \"#utility.yul\":30725:31091   */\n    tag_349:\n        /* \"#utility.yul\":30867:30870   */\n      0x00\n        /* \"#utility.yul\":30888:30955   */\n      tag_646\n        /* \"#utility.yul\":30952:30954   */\n      0x1a\n        /* \"#utility.yul\":30947:30950   */\n      dup4\n        /* \"#utility.yul\":30888:30955   */\n      tag_268\n      jump\t// in\n    tag_646:\n        /* \"#utility.yul\":30881:30955   */\n      swap2\n      pop\n        /* \"#utility.yul\":30964:31057   */\n      tag_647\n        /* \"#utility.yul\":31053:31056   */\n      dup3\n        /* \"#utility.yul\":30964:31057   */\n      tag_348\n      jump\t// in\n    tag_647:\n        /* \"#utility.yul\":31082:31084   */\n      0x20\n        /* \"#utility.yul\":31077:31080   */\n      dup3\n        /* \"#utility.yul\":31073:31085   */\n      add\n        /* \"#utility.yul\":31066:31085   */\n      swap1\n      pop\n        /* \"#utility.yul\":30725:31091   */\n      swap2\n      swap1\n      pop\n      jump\t// out\n        /* \"#utility.yul\":31097:31516   */\n    tag_200:\n        /* \"#utility.yul\":31263:31267   */\n      0x00\n        /* \"#utility.yul\":31301:31303   */\n      0x20\n        /* \"#utility.yul\":31290:31299   */\n      dup3\n        /* \"#utility.yul\":31286:31304   */\n      add\n        /* \"#utility.yul\":31278:31304   */\n      swap1\n      pop\n        /* \"#utility.yul\":31350:31359   */\n      dup2\n        /* \"#utility.yul\":31344:31348   */\n      dup2\n        /* \"#utility.yul\":31340:31360   */\n      sub\n        /* \"#utility.yul\":31336:31337   */\n      0x00\n        /* \"#utility.yul\":31325:31334   */\n      dup4\n        /* \"#utility.yul\":31321:31338   */\n      add\n        /* \"#utility.yul\":31314:31361   */\n      mstore\n        /* \"#utility.yul\":31378:31509   */\n      tag_649\n        /* \"#utility.yul\":31504:31508   */\n      dup2\n        /* \"#utility.yul\":31378:31509   */\n      tag_349\n      jump\t// in\n    tag_649:\n        /* \"#utility.yul\":31370:31509   */\n      swap1\n      pop\n        /* \"#utility.yul\":31097:31516   */\n      swap2\n      swap1\n      pop\n      jump\t// out\n        /* \"#utility.yul\":31522:31697   */\n    tag_350:\n        /* \"#utility.yul\":31662:31689   */\n      0x5265717565737420616c726561647920636f6d706c6574656400000000000000\n        /* \"#utility.yul\":31658:31659   */\n      0x00\n        /* \"#utility.yul\":31650:31656   */\n      dup3\n        /* \"#utility.yul\":31646:31660   */\n      add\n        /* \"#utility.yul\":31639:31690   */\n      mstore\n        /* \"#utility.yul\":31522:31697   */\n      pop\n      jump\t// out\n        /* \"#utility.yul\":31703:32069   */\n    tag_351:\n        /* \"#utility.yul\":31845:31848   */\n      0x00\n        /* \"#utility.yul\":31866:31933   */\n      tag_652\n        /* \"#utility.yul\":31930:31932   */\n      0x19\n        /* \"#utility.yul\":31925:31928   */\n      dup4\n        /* \"#utility.yul\":31866:31933   */\n      tag_268\n      jump\t// in\n    tag_652:\n        /* \"#utility.yul\":31859:31933   */\n      swap2\n      pop\n        /* \"#utility.yul\":31942:32035   */\n      tag_653\n        /* \"#utility.yul\":32031:32034   */\n      dup3\n        /* \"#utility.yul\":31942:32035   */\n      tag_350\n      jump\t// in\n    tag_653:\n        /* \"#utility.yul\":32060:32062   */\n      0x20\n        /* \"#utility.yul\":32055:32058   */\n      dup3\n        /* \"#utility.yul\":32051:32063   */\n      add\n        /* \"#utility.yul\":32044:32063   */\n      swap1\n      pop\n        /* \"#utility.yul\":31703:32069   */\n      swap2\n      swap1\n      pop\n      jump\t// out\n        /* \"#utility.yul\":32075:32494   */\n    tag_206:\n        /* \"#utility.yul\":32241:32245   */\n      0x00\n        /* \"#utility.yul\":32279:32281   */\n      0x20\n        /* \"#utility.yul\":32268:32277   */\n      dup3\n        /* \"#utility.yul\":32264:32282   */\n      add\n        /* \"#utility.yul\":32256:32282   */\n      swap1\n      pop\n        /* \"#utility.yul\":32328:32337   */\n      dup2\n        /* \"#utility.yul\":32322:32326   */\n      dup2\n        /* \"#utility.yul\":32318:32338   */\n      sub\n        /* \"#utility.yul\":32314:32315   */\n      0x00\n        /* \"#utility.yul\":32303:32312   */\n      dup4\n        /* \"#utility.yul\":32299:32316   */\n      add\n        /* \"#utility.yul\":32292:32339   */\n      mstore\n        /* \"#utility.yul\":32356:32487   */\n      tag_655\n        /* \"#utility.yul\":32482:32486   */\n      dup2\n        /* \"#utility.yul\":32356:32487   */\n      tag_351\n      jump\t// in\n    tag_655:\n        /* \"#utility.yul\":32348:32487   */\n      swap1\n      pop\n        /* \"#utility.yul\":32075:32494   */\n      swap2\n      swap1\n      pop\n      jump\t// out\n        /* \"#utility.yul\":32500:32680   */\n    tag_352:\n        /* \"#utility.yul\":32640:32672   */\n      0x416c726561647920766f74656420666f72207468697320726571756573740000\n        /* \"#utility.yul\":32636:32637   */\n      0x00\n        /* \"#utility.yul\":32628:32634   */\n      dup3\n        /* \"#utility.yul\":32624:32638   */\n      add\n        /* \"#utility.yul\":32617:32673   */\n      mstore\n        /* \"#utility.yul\":32500:32680   */\n      pop\n      jump\t// out\n        /* \"#utility.yul\":32686:33052   */\n    tag_353:\n        /* \"#utility.yul\":32828:32831   */\n      0x00\n        /* \"#utility.yul\":32849:32916   */\n      tag_658\n        /* \"#utility.yul\":32913:32915   */\n      0x1e\n        /* \"#utility.yul\":32908:32911   */\n      dup4\n        /* \"#utility.yul\":32849:32916   */\n      tag_268\n      jump\t// in\n    tag_658:\n        /* \"#utility.yul\":32842:32916   */\n      swap2\n      pop\n        /* \"#utility.yul\":32925:33018   */\n      tag_659\n        /* \"#utility.yul\":33014:33017   */\n      dup3\n        /* \"#utility.yul\":32925:33018   */\n      tag_352\n      jump\t// in\n    tag_659:\n        /* \"#utility.yul\":33043:33045   */\n      0x20\n        /* \"#utility.yul\":33038:33041   */\n      dup3\n        /* \"#utility.yul\":33034:33046   */\n      add\n        /* \"#utility.yul\":33027:33046   */\n      swap1\n      pop\n        /* \"#utility.yul\":32686:33052   */\n      swap2\n      swap1\n      pop\n      jump\t// out\n        /* \"#utility.yul\":33058:33477   */\n    tag_209:\n        /* \"#utility.yul\":33224:33228   */\n      0x00\n        /* \"#utility.yul\":33262:33264   */\n      0x20\n        /* \"#utility.yul\":33251:33260   */\n      dup3\n        /* \"#utility.yul\":33247:33265   */\n      add\n        /* \"#utility.yul\":33239:33265   */\n      swap1\n      pop\n        /* \"#utility.yul\":33311:33320   */\n      dup2\n        /* \"#utility.yul\":33305:33309   */\n      dup2\n        /* \"#utility.yul\":33301:33321   */\n      sub\n        /* \"#utility.yul\":33297:33298   */\n      0x00\n        /* \"#utility.yul\":33286:33295   */\n      dup4\n        /* \"#utility.yul\":33282:33299   */\n      add\n        /* \"#utility.yul\":33275:33322   */\n      mstore\n        /* \"#utility.yul\":33339:33470   */\n      tag_661\n        /* \"#utility.yul\":33465:33469   */\n      dup2\n        /* \"#utility.yul\":33339:33470   */\n      tag_353\n      jump\t// in\n    tag_661:\n        /* \"#utility.yul\":33331:33470   */\n      swap1\n      pop\n        /* \"#utility.yul\":33058:33477   */\n      swap2\n      swap1\n      pop\n      jump\t// out\n        /* \"#utility.yul\":33483:33704   */\n    tag_354:\n        /* \"#utility.yul\":33623:33657   */\n      0x416374696f6e20616c6c6f776564206f6e6c7920616674657220646561646c69\n        /* \"#utility.yul\":33619:33620   */\n      0x00\n        /* \"#utility.yul\":33611:33617   */\n      dup3\n        /* \"#utility.yul\":33607:33621   */\n      add\n        /* \"#utility.yul\":33600:33658   */\n      mstore\n        /* \"#utility.yul\":33692:33696   */\n      0x6e65000000000000000000000000000000000000000000000000000000000000\n        /* \"#utility.yul\":33687:33689   */\n      0x20\n        /* \"#utility.yul\":33679:33685   */\n      dup3\n        /* \"#utility.yul\":33675:33690   */\n      add\n        /* \"#utility.yul\":33668:33697   */\n      mstore\n        /* \"#utility.yul\":33483:33704   */\n      pop\n      jump\t// out\n        /* \"#utility.yul\":33710:34076   */\n    tag_355:\n        /* \"#utility.yul\":33852:33855   */\n      0x00\n        /* \"#utility.yul\":33873:33940   */\n      tag_664\n        /* \"#utility.yul\":33937:33939   */\n      0x22\n        /* \"#utility.yul\":33932:33935   */\n      dup4\n        /* \"#utility.yul\":33873:33940   */\n      tag_268\n      jump\t// in\n    tag_664:\n        /* \"#utility.yul\":33866:33940   */\n      swap2\n      pop\n        /* \"#utility.yul\":33949:34042   */\n      tag_665\n        /* \"#utility.yul\":34038:34041   */\n      dup3\n        /* \"#utility.yul\":33949:34042   */\n      tag_354\n      jump\t// in\n    tag_665:\n        /* \"#utility.yul\":34067:34069   */\n      0x40\n        /* \"#utility.yul\":34062:34065   */\n      dup3\n        /* \"#utility.yul\":34058:34070   */\n      add\n        /* \"#utility.yul\":34051:34070   */\n      swap1\n      pop\n        /* \"#utility.yul\":33710:34076   */\n      swap2\n      swap1\n      pop\n      jump\t// out\n        /* \"#utility.yul\":34082:34501   */\n    tag_217:\n        /* \"#utility.yul\":34248:34252   */\n      0x00\n        /* \"#utility.yul\":34286:34288   */\n      0x20\n        /* \"#utility.yul\":34275:34284   */\n      dup3\n        /* \"#utility.yul\":34271:34289   */\n      add\n        /* \"#utility.yul\":34263:34289   */\n      swap1\n      pop\n        /* \"#utility.yul\":34335:34344   */\n      dup2\n        /* \"#utility.yul\":34329:34333   */\n      dup2\n        /* \"#utility.yul\":34325:34345   */\n      sub\n        /* \"#utility.yul\":34321:34322   */\n      0x00\n        /* \"#utility.yul\":34310:34319   */\n      dup4\n        /* \"#utility.yul\":34306:34323   */\n      add\n        /* \"#utility.yul\":34299:34346   */\n      mstore\n        /* \"#utility.yul\":34363:34494   */\n      tag_667\n        /* \"#utility.yul\":34489:34493   */\n      dup2\n        /* \"#utility.yul\":34363:34494   */\n      tag_355\n      jump\t// in\n    tag_667:\n        /* \"#utility.yul\":34355:34494   */\n      swap1\n      pop\n        /* \"#utility.yul\":34082:34501   */\n      swap2\n      swap1\n      pop\n      jump\t// out\n        /* \"#utility.yul\":34507:34729   */\n    tag_356:\n        /* \"#utility.yul\":34647:34681   */\n      0x476f616c20726561636865643b20726566756e6473206e6f7420617661696c61\n        /* \"#utility.yul\":34643:34644   */\n      0x00\n        /* \"#utility.yul\":34635:34641   */\n      dup3\n        /* \"#utility.yul\":34631:34645   */\n      add\n        /* \"#utility.yul\":34624:34682   */\n      mstore\n        /* \"#utility.yul\":34716:34721   */\n      0x626c650000000000000000000000000000000000000000000000000000000000\n        /* \"#utility.yul\":34711:34713   */\n      0x20\n        /* \"#utility.yul\":34703:34709   */\n      dup3\n        /* \"#utility.yul\":34699:34714   */\n      add\n        /* \"#utility.yul\":34692:34722   */\n      mstore\n        /* \"#utility.yul\":34507:34729   */\n      pop\n      jump\t// out\n        /* \"#utility.yul\":34735:35101   */\n    tag_357:\n        /* \"#utility.yul\":34877:34880   */\n      0x00\n        /* \"#utility.yul\":34898:34965   */\n      tag_670\n        /* \"#utility.yul\":34962:34964   */\n      0x23\n        /* \"#utility.yul\":34957:34960   */\n      dup4\n        /* \"#utility.yul\":34898:34965   */\n      tag_268\n      jump\t// in\n    tag_670:\n        /* \"#utility.yul\":34891:34965   */\n      swap2\n      pop\n        /* \"#utility.yul\":34974:35067   */\n      tag_671\n        /* \"#utility.yul\":35063:35066   */\n      dup3\n        /* \"#utility.yul\":34974:35067   */\n      tag_356\n      jump\t// in\n    tag_671:\n        /* \"#utility.yul\":35092:35094   */\n      0x40\n        /* \"#utility.yul\":35087:35090   */\n      dup3\n        /* \"#utility.yul\":35083:35095   */\n      add\n        /* \"#utility.yul\":35076:35095   */\n      swap1\n      pop\n        /* \"#utility.yul\":34735:35101   */\n      swap2\n      swap1\n      pop\n      jump\t// out\n        /* \"#utility.yul\":35107:35526   */\n    tag_221:\n        /* \"#utility.yul\":35273:35277   */\n      0x00\n        /* \"#utility.yul\":35311:35313   */\n      0x20\n        /* \"#utility.yul\":35300:35309   */\n      dup3\n        /* \"#utility.yul\":35296:35314   */\n      add\n        /* \"#utility.yul\":35288:35314   */\n      swap1\n      pop\n        /* \"#utility.yul\":35360:35369   */\n      dup2\n        /* \"#utility.yul\":35354:35358   */\n      dup2\n        /* \"#utility.yul\":35350:35370   */\n      sub\n        /* \"#utility.yul\":35346:35347   */\n      0x00\n        /* \"#utility.yul\":35335:35344   */\n      dup4\n        /* \"#utility.yul\":35331:35348   */\n      add\n        /* \"#utility.yul\":35324:35371   */\n      mstore\n        /* \"#utility.yul\":35388:35519   */\n      tag_673\n        /* \"#utility.yul\":35514:35518   */\n      dup2\n        /* \"#utility.yul\":35388:35519   */\n      tag_357\n      jump\t// in\n    tag_673:\n        /* \"#utility.yul\":35380:35519   */\n      swap1\n      pop\n        /* \"#utility.yul\":35107:35526   */\n      swap2\n      swap1\n      pop\n      jump\t// out\n        /* \"#utility.yul\":35532:35708   */\n    tag_358:\n        /* \"#utility.yul\":35672:35700   */\n      0x4e6f20636f6e747269627574696f6e7320746f20726566756e64000000000000\n        /* \"#utility.yul\":35668:35669   */\n      0x00\n        /* \"#utility.yul\":35660:35666   */\n      dup3\n        /* \"#utility.yul\":35656:35670   */\n      add\n        /* \"#utility.yul\":35649:35701   */\n      mstore\n        /* \"#utility.yul\":35532:35708   */\n      pop\n      jump\t// out\n        /* \"#utility.yul\":35714:36080   */\n    tag_359:\n        /* \"#utility.yul\":35856:35859   */\n      0x00\n        /* \"#utility.yul\":35877:35944   */\n      tag_676\n        /* \"#utility.yul\":35941:35943   */\n      0x1a\n        /* \"#utility.yul\":35936:35939   */\n      dup4\n        /* \"#utility.yul\":35877:35944   */\n      tag_268\n      jump\t// in\n    tag_676:\n        /* \"#utility.yul\":35870:35944   */\n      swap2\n      pop\n        /* \"#utility.yul\":35953:36046   */\n      tag_677\n        /* \"#utility.yul\":36042:36045   */\n      dup3\n        /* \"#utility.yul\":35953:36046   */\n      tag_358\n      jump\t// in\n    tag_677:\n        /* \"#utility.yul\":36071:36073   */\n      0x20\n        /* \"#utility.yul\":36066:36069   */\n      dup3\n        /* \"#utility.yul\":36062:36074   */\n      add\n        /* \"#utility.yul\":36055:36074   */\n      swap1\n      pop\n        /* \"#utility.yul\":35714:36080   */\n      swap2\n      swap1\n      pop\n      jump\t// out\n        /* \"#utility.yul\":36086:36505   */\n    tag_224:\n        /* \"#utility.yul\":36252:36256   */\n      0x00\n        /* \"#utility.yul\":36290:36292   */\n      0x20\n        /* \"#utility.yul\":36279:36288   */\n      dup3\n        /* \"#utility.yul\":36275:36293   */\n      add\n        /* \"#utility.yul\":36267:36293   */\n      swap1\n      pop\n        /* \"#utility.yul\":36339:36348   */\n      dup2\n        /* \"#utility.yul\":36333:36337   */\n      dup2\n        /* \"#utility.yul\":36329:36349   */\n      sub\n        /* \"#utility.yul\":36325:36326   */\n      0x00\n        /* \"#utility.yul\":36314:36323   */\n      dup4\n        /* \"#utility.yul\":36310:36327   */\n      add\n        /* \"#utility.yul\":36303:36350   */\n      mstore\n        /* \"#utility.yul\":36367:36498   */\n      tag_679\n        /* \"#utility.yul\":36493:36497   */\n      dup2\n        /* \"#utility.yul\":36367:36498   */\n      tag_359\n      jump\t// in\n    tag_679:\n        /* \"#utility.yul\":36359:36498   */\n      swap1\n      pop\n        /* \"#utility.yul\":36086:36505   */\n      swap2\n      swap1\n      pop\n      jump\t// out\n        /* \"#utility.yul\":36511:36683   */\n    tag_360:\n        /* \"#utility.yul\":36651:36675   */\n      0x526566756e64207472616e73666572206661696c656400000000000000000000\n        /* \"#utility.yul\":36647:36648   */\n      0x00\n        /* \"#utility.yul\":36639:36645   */\n      dup3\n        /* \"#utility.yul\":36635:36649   */\n      add\n        /* \"#utility.yul\":36628:36676   */\n      mstore\n        /* \"#utility.yul\":36511:36683   */\n      pop\n      jump\t// out\n        /* \"#utility.yul\":36689:37055   */\n    tag_361:\n        /* \"#utility.yul\":36831:36834   */\n      0x00\n        /* \"#utility.yul\":36852:36919   */\n      tag_682\n        /* \"#utility.yul\":36916:36918   */\n      0x16\n        /* \"#utility.yul\":36911:36914   */\n      dup4\n        /* \"#utility.yul\":36852:36919   */\n      tag_268\n      jump\t// in\n    tag_682:\n        /* \"#utility.yul\":36845:36919   */\n      swap2\n      pop\n        /* \"#utility.yul\":36928:37021   */\n      tag_683\n        /* \"#utility.yul\":37017:37020   */\n      dup3\n        /* \"#utility.yul\":36928:37021   */\n      tag_360\n      jump\t// in\n    tag_683:\n        /* \"#utility.yul\":37046:37048   */\n      0x20\n        /* \"#utility.yul\":37041:37044   */\n      dup3\n        /* \"#utility.yul\":37037:37049   */\n      add\n        /* \"#utility.yul\":37030:37049   */\n      swap1\n      pop\n        /* \"#utility.yul\":36689:37055   */\n      swap2\n      swap1\n      pop\n      jump\t// out\n        /* \"#utility.yul\":37061:37480   */\n    tag_233:\n        /* \"#utility.yul\":37227:37231   */\n      0x00\n        /* \"#utility.yul\":37265:37267   */\n      0x20\n        /* \"#utility.yul\":37254:37263   */\n      dup3\n        /* \"#utility.yul\":37250:37268   */\n      add\n        /* \"#utility.yul\":37242:37268   */\n      swap1\n      pop\n        /* \"#utility.yul\":37314:37323   */\n      dup2\n        /* \"#utility.yul\":37308:37312   */\n      dup2\n        /* \"#utility.yul\":37304:37324   */\n      sub\n        /* \"#utility.yul\":37300:37301   */\n      0x00\n        /* \"#utility.yul\":37289:37298   */\n      dup4\n        /* \"#utility.yul\":37285:37302   */\n      add\n        /* \"#utility.yul\":37278:37325   */\n      mstore\n        /* \"#utility.yul\":37342:37473   */\n      tag_685\n        /* \"#utility.yul\":37468:37472   */\n      dup2\n        /* \"#utility.yul\":37342:37473   */\n      tag_361\n      jump\t// in\n    tag_685:\n        /* \"#utility.yul\":37334:37473   */\n      swap1\n      pop\n        /* \"#utility.yul\":37061:37480   */\n      swap2\n      swap1\n      pop\n      jump\t// out\n        /* \"#utility.yul\":37486:37708   */\n    tag_362:\n        /* \"#utility.yul\":37626:37660   */\n      0x416374696f6e20616c6c6f776564206f6e6c79206265666f726520646561646c\n        /* \"#utility.yul\":37622:37623   */\n      0x00\n        /* \"#utility.yul\":37614:37620   */\n      dup3\n        /* \"#utility.yul\":37610:37624   */\n      add\n        /* \"#utility.yul\":37603:37661   */\n      mstore\n        /* \"#utility.yul\":37695:37700   */\n      0x696e650000000000000000000000000000000000000000000000000000000000\n        /* \"#utility.yul\":37690:37692   */\n      0x20\n        /* \"#utility.yul\":37682:37688   */\n      dup3\n        /* \"#utility.yul\":37678:37693   */\n      add\n        /* \"#utility.yul\":37671:37701   */\n      mstore\n        /* \"#utility.yul\":37486:37708   */\n      pop\n      jump\t// out\n        /* \"#utility.yul\":37714:38080   */\n    tag_363:\n        /* \"#utility.yul\":37856:37859   */\n      0x00\n        /* \"#utility.yul\":37877:37944   */\n      tag_688\n        /* \"#utility.yul\":37941:37943   */\n      0x23\n        /* \"#utility.yul\":37936:37939   */\n      dup4\n        /* \"#utility.yul\":37877:37944   */\n      tag_268\n      jump\t// in\n    tag_688:\n        /* \"#utility.yul\":37870:37944   */\n      swap2\n      pop\n        /* \"#utility.yul\":37953:38046   */\n      tag_689\n        /* \"#utility.yul\":38042:38045   */\n      dup3\n        /* \"#utility.yul\":37953:38046   */\n      tag_362\n      jump\t// in\n    tag_689:\n        /* \"#utility.yul\":38071:38073   */\n      0x40\n        /* \"#utility.yul\":38066:38069   */\n      dup3\n        /* \"#utility.yul\":38062:38074   */\n      add\n        /* \"#utility.yul\":38055:38074   */\n      swap1\n      pop\n        /* \"#utility.yul\":37714:38080   */\n      swap2\n      swap1\n      pop\n      jump\t// out\n        /* \"#utility.yul\":38086:38505   */\n    tag_251:\n        /* \"#utility.yul\":38252:38256   */\n      0x00\n        /* \"#utility.yul\":38290:38292   */\n      0x20\n        /* \"#utility.yul\":38279:38288   */\n      dup3\n        /* \"#utility.yul\":38275:38293   */\n      add\n        /* \"#utility.yul\":38267:38293   */\n      swap1\n      pop\n        /* \"#utility.yul\":38339:38348   */\n      dup2\n        /* \"#utility.yul\":38333:38337   */\n      dup2\n        /* \"#utility.yul\":38329:38349   */\n      sub\n        /* \"#utility.yul\":38325:38326   */\n      0x00\n        /* \"#utility.yul\":38314:38323   */\n      dup4\n        /* \"#utility.yul\":38310:38327   */\n      add\n        /* \"#utility.yul\":38303:38350   */\n      mstore\n        /* \"#utility.yul\":38367:38498   */\n      tag_691\n        /* \"#utility.yul\":38493:38497   */\n      dup2\n        /* \"#utility.yul\":38367:38498   */\n      tag_363\n      jump\t// in\n    tag_691:\n        /* \"#utility.yul\":38359:38498   */\n      swap1\n      pop\n        /* \"#utility.yul\":38086:38505   */\n      swap2\n      swap1\n      pop\n      jump\t// out\n        /* \"#utility.yul\":38511:38674   */\n    tag_364:\n        /* \"#utility.yul\":38651:38666   */\n      0x4d7573742073656e642045544800000000000000000000000000000000000000\n        /* \"#utility.yul\":38647:38648   */\n      0x00\n        /* \"#utility.yul\":38639:38645   */\n      dup3\n        /* \"#utility.yul\":38635:38649   */\n      add\n        /* \"#utility.yul\":38628:38667   */\n      mstore\n        /* \"#utility.yul\":38511:38674   */\n      pop\n      jump\t// out\n        /* \"#utility.yul\":38680:39046   */\n    tag_365:\n        /* \"#utility.yul\":38822:38825   */\n      0x00\n        /* \"#utility.yul\":38843:38910   */\n      tag_694\n        /* \"#utility.yul\":38907:38909   */\n      0x0d\n        /* \"#utility.yul\":38902:38905   */\n      dup4\n        /* \"#utility.yul\":38843:38910   */\n      tag_268\n      jump\t// in\n    tag_694:\n        /* \"#utility.yul\":38836:38910   */\n      swap2\n      pop\n        /* \"#utility.yul\":38919:39012   */\n      tag_695\n        /* \"#utility.yul\":39008:39011   */\n      dup3\n        /* \"#utility.yul\":38919:39012   */\n      tag_364\n      jump\t// in\n    tag_695:\n        /* \"#utility.yul\":39037:39039   */\n      0x20\n        /* \"#utility.yul\":39032:39035   */\n      dup3\n        /* \"#utility.yul\":39028:39040   */\n      add\n        /* \"#utility.yul\":39021:39040   */\n      swap1\n      pop\n        /* \"#utility.yul\":38680:39046   */\n      swap2\n      swap1\n      pop\n      jump\t// out\n        /* \"#utility.yul\":39052:39471   */\n    tag_258:\n        /* \"#utility.yul\":39218:39222   */\n      0x00\n        /* \"#utility.yul\":39256:39258   */\n      0x20\n        /* \"#utility.yul\":39245:39254   */\n      dup3\n        /* \"#utility.yul\":39241:39259   */\n      add\n        /* \"#utility.yul\":39233:39259   */\n      swap1\n      pop\n        /* \"#utility.yul\":39305:39314   */\n      dup2\n        /* \"#utility.yul\":39299:39303   */\n      dup2\n        /* \"#utility.yul\":39295:39315   */\n      sub\n        /* \"#utility.yul\":39291:39292   */\n      0x00\n        /* \"#utility.yul\":39280:39289   */\n      dup4\n        /* \"#utility.yul\":39276:39293   */\n      add\n        /* \"#utility.yul\":39269:39316   */\n      mstore\n        /* \"#utility.yul\":39333:39464   */\n      tag_697\n        /* \"#utility.yul\":39459:39463   */\n      dup2\n        /* \"#utility.yul\":39333:39464   */\n      tag_365\n      jump\t// in\n    tag_697:\n        /* \"#utility.yul\":39325:39464   */\n      swap1\n      pop\n        /* \"#utility.yul\":39052:39471   */\n      swap2\n      swap1\n      pop\n      jump\t// out\n\n    auxdata: 0xa264697066735822122091587c3533bbaa605e97b34136920c7c06df6e1f41dd1ed5893f0bdbd8b969c964736f6c634300081e0033\n}\n",
				"bytecode": {
					"linkReferences": {},
					"object": "60806040526001600955348015610014575f5ffd5b50604051612e52380380612e5283398181016040528101906100369190610127565b5f8211610078576040517f08c379a000000000000000000000000000000000000000000000000000000000815260040161006f906101bf565b60405180910390fd5b335f5f6101000a81548173ffffffffffffffffffffffffffffffffffffffff021916908373ffffffffffffffffffffffffffffffffffffffff1602179055508160018190555080426100ca919061020a565b6002819055505f60045f6101000a81548160ff021916908315150217905550505061023d565b5f5ffd5b5f819050919050565b610106816100f4565b8114610110575f5ffd5b50565b5f81519050610121816100fd565b92915050565b5f5f6040838503121561013d5761013c6100f0565b5b5f61014a85828601610113565b925050602061015b85828601610113565b9150509250929050565b5f82825260208201905092915050565b7f546172676574206d757374206265203e203000000000000000000000000000005f82015250565b5f6101a9601283610165565b91506101b482610175565b602082019050919050565b5f6020820190508181035f8301526101d68161019d565b9050919050565b7f4e487b71000000000000000000000000000000000000000000000000000000005f52601160045260245ffd5b5f610214826100f4565b915061021f836100f4565b9250828201905080821115610237576102366101dd565b5b92915050565b612c088061024a5f395ff3fe60806040526004361061010c575f3560e01c80634cb6f4a511610094578063c58343ef11610063578063c58343ef1461058c578063c59ee1dc146105cc578063d4b83992146105f6578063d7bb99ba14610620578063e14ed0451461062a57610345565b80634cb6f4a5146104fa578063590e1ae3146105225780637569b3d7146105385780637d3d65221461056257610345565b80633410452a116100db5780633410452a146103fd5780634051ddac1461042757806342e94c90146104585780634385963214610494578063481c6a75146104d057610345565b806303441006146103475780631b16bb5c1461036f5780631d0d35f51461039757806329dcb0cf146103d357610345565b36610345576002544210610155576040517f08c379a000000000000000000000000000000000000000000000000000000000815260040161014c9061194d565b60405180910390fd5b60085f3373ffffffffffffffffffffffffffffffffffffffff1673ffffffffffffffffffffffffffffffffffffffff1681526020019081526020015f205f9054906101000a900460ff1661021257600160085f3373ffffffffffffffffffffffffffffffffffffffff1673ffffffffffffffffffffffffffffffffffffffff1681526020019081526020015f205f6101000a81548160ff021916908315150217905550600160055f82825461020a91906119a1565b925050819055505b3460075f3373ffffffffffffffffffffffffffffffffffffffff1673ffffffffffffffffffffffffffffffffffffffff1681526020019081526020015f205f82825461025e91906119a1565b925050819055503460035f82825461027691906119a1565b9250508190555060045f9054906101000a900460ff1615801561029d575060015460035410155b156102f657600160045f6101000a81548160ff0219169083151502179055507ffbfd8ab7c24300fa9888cd721c8565a7da56759384781283684dcf7c7c4a846b6003546040516102ed91906119e3565b60405180910390a15b3373ffffffffffffffffffffffffffffffffffffffff167f1bb460ccaaf70fbacfec17a376f8acbd278c1405590ffcc8ebe4b88daf4f64ad3460405161033c91906119e3565b60405180910390a25b005b348015610352575f5ffd5b5061036d60048036038101906103689190611a2e565b610666565b005b34801561037a575f5ffd5b5061039560048036038101906103909190611b14565b610a81565b005b3480156103a2575f5ffd5b506103bd60048036038101906103b89190611bc0565b610d02565b6040516103ca9190611c05565b60405180910390f35b3480156103de575f5ffd5b506103e7610d1f565b6040516103f491906119e3565b60405180910390f35b348015610408575f5ffd5b50610411610d25565b60405161041e91906119e3565b60405180910390f35b348015610432575f5ffd5b5061043b610d31565b60405161044f989796959493929190611c2d565b60405180910390f35b348015610463575f5ffd5b5061047e60048036038101906104799190611bc0565b610d96565b60405161048b91906119e3565b60405180910390f35b34801561049f575f5ffd5b506104ba60048036038101906104b59190611ca9565b610dab565b6040516104c79190611c05565b60405180910390f35b3480156104db575f5ffd5b506104e4610e66565b6040516104f19190611ce7565b60405180910390f35b348015610505575f5ffd5b50610520600480360381019061051b9190611a2e565b610e8a565b005b34801561052d575f5ffd5b50610536611114565b005b348015610543575f5ffd5b5061054c61144b565b60405161055991906119e3565b60405180910390f35b34801561056d575f5ffd5b50610576611451565b6040516105839190611c05565b60405180910390f35b348015610597575f5ffd5b506105b260048036038101906105ad9190611a2e565b611463565b6040516105c3959493929190611d60565b60405180910390f35b3480156105d7575f5ffd5b506105e06115b0565b6040516105ed91906119e3565b60405180910390f35b348015610601575f5ffd5b5061060a6115b6565b60405161061791906119e3565b60405180910390f35b6106286115bc565b005b348015610635575f5ffd5b50610650600480360381019061064b9190611bc0565b611887565b60405161065d91906119e3565b60405180910390f35b5f5f9054906101000a900473ffffffffffffffffffffffffffffffffffffffff1673ffffffffffffffffffffffffffffffffffffffff163373ffffffffffffffffffffffffffffffffffffffff16146106f4576040517f08c379a00000000000000000000000000000000000000000000000000000000081526004016106eb90611e02565b60405180910390fd5b600160095414610739576040517f08c379a000000000000000000000000000000000000000000000000000000000815260040161073090611e6a565b60405180910390fd5b5f6009819055506006805490508110610787576040517f08c379a000000000000000000000000000000000000000000000000000000000815260040161077e90611ed2565b60405180910390fd5b5f6006828154811061079c5761079b611ef0565b5b905f5260205f2090600602019050806003015f9054906101000a900460ff16156107fb576040517f08c379a00000000000000000000000000000000000000000000000000000000081526004016107f290611f67565b60405180910390fd5b60045f9054906101000a900460ff16610849576040517f08c379a000000000000000000000000000000000000000000000000000000000815260040161084090611ff5565b60405180910390fd5b4781600201541115610890576040517f08c379a00000000000000000000000000000000000000000000000000000000081526004016108879061205d565b60405180910390fd5b5f600554116108d4576040517f08c379a00000000000000000000000000000000000000000000000000000000081526004016108cb906120c5565b60405180910390fd5b600554600282600401546108e891906120e3565b11610928576040517f08c379a000000000000000000000000000000000000000000000000000000000815260040161091f90612194565b60405180910390fd5b6001816003015f6101000a81548160ff0219169083151502179055505f816001015f9054906101000a900473ffffffffffffffffffffffffffffffffffffffff1673ffffffffffffffffffffffffffffffffffffffff168260020154604051610990906121df565b5f6040518083038185875af1925050503d805f81146109ca576040519150601f19603f3d011682016040523d82523d5f602084013e6109cf565b606091505b5050905080610a13576040517f08c379a0000000000000000000000000000000000000000000000000000000008152600401610a0a9061223d565b60405180910390fd5b827f73fd0e11744b112133172a1d5396c8680521585a2b0c4bd539b0da184770d7d7836001015f9054906101000a900473ffffffffffffffffffffffffffffffffffffffff168460020154604051610a6c9291906122b6565b60405180910390a25050600160098190555050565b5f5f9054906101000a900473ffffffffffffffffffffffffffffffffffffffff1673ffffffffffffffffffffffffffffffffffffffff163373ffffffffffffffffffffffffffffffffffffffff1614610b0f576040517f08c379a0000000000000000000000000000000000000000000000000000000008152600401610b0690611e02565b60405180910390fd5b5f73ffffffffffffffffffffffffffffffffffffffff168273ffffffffffffffffffffffffffffffffffffffff1603610b7d576040517f08c379a0000000000000000000000000000000000000000000000000000000008152600401610b7490612327565b60405180910390fd5b5f8484905011610bc2576040517f08c379a0000000000000000000000000000000000000000000000000000000008152600401610bb99061238f565b60405180910390fd5b5f8111610c04576040517f08c379a0000000000000000000000000000000000000000000000000000000008152600401610bfb906123f7565b60405180910390fd5b5f600660018160018154018082558091505003905f5260205f20906006020190508484825f019182610c37929190612640565b5082816001015f6101000a81548173ffffffffffffffffffffffffffffffffffffffff021916908373ffffffffffffffffffffffffffffffffffffffff1602179055508181600201819055505f816003015f6101000a81548160ff0219169083151502179055505f81600401819055505f6001600680549050610cba919061270d565b9050807ff4f741cfaf5f9ff0be5480b102aa9ec4ed806560a6b1718816935ee4cc4a35f387878787604051610cf2949392919061277a565b60405180910390a2505050505050565b6008602052805f5260405f205f915054906101000a900460ff1681565b60025481565b5f600680549050905090565b5f5f5f5f5f5f5f5f5f5f9054906101000a900473ffffffffffffffffffffffffffffffffffffffff169750600154965060025495506003549450600554935060045f9054906101000a900460ff16925060068054905091504790509091929394959697565b6007602052805f5260405f205f915090505481565b5f6006805490508310610df3576040517f08c379a0000000000000000000000000000000000000000000000000000000008152600401610dea90611ed2565b60405180910390fd5b60068381548110610e0757610e06611ef0565b5b905f5260205f2090600602016005015f8373ffffffffffffffffffffffffffffffffffffffff1673ffffffffffffffffffffffffffffffffffffffff1681526020019081526020015f205f9054906101000a900460ff16905092915050565b5f5f9054906101000a900473ffffffffffffffffffffffffffffffffffffffff1681565b6006805490508110610ed1576040517f08c379a0000000000000000000000000000000000000000000000000000000008152600401610ec890611ed2565b60405180910390fd5b60085f3373ffffffffffffffffffffffffffffffffffffffff1673ffffffffffffffffffffffffffffffffffffffff1681526020019081526020015f205f9054906101000a900460ff16610f5a576040517f08c379a0000000000000000000000000000000000000000000000000000000008152600401610f5190612802565b60405180910390fd5b5f60068281548110610f6f57610f6e611ef0565b5b905f5260205f2090600602019050806003015f9054906101000a900460ff1615610fce576040517f08c379a0000000000000000000000000000000000000000000000000000000008152600401610fc59061286a565b60405180910390fd5b806005015f3373ffffffffffffffffffffffffffffffffffffffff1673ffffffffffffffffffffffffffffffffffffffff1681526020019081526020015f205f9054906101000a900460ff161561105a576040517f08c379a0000000000000000000000000000000000000000000000000000000008152600401611051906128d2565b60405180910390fd5b6001816005015f3373ffffffffffffffffffffffffffffffffffffffff1673ffffffffffffffffffffffffffffffffffffffff1681526020019081526020015f205f6101000a81548160ff0219169083151502179055506001816004015f8282546110c591906119a1565b92505081905550813373ffffffffffffffffffffffffffffffffffffffff167f4d99b957a2bc29a30ebd96a7be8e68fe50a3c701db28a91436490b7d53870ca460405160405180910390a35050565b600160095414611159576040517f08c379a000000000000000000000000000000000000000000000000000000000815260040161115090611e6a565b60405180910390fd5b5f6009819055506002544210156111a5576040517f08c379a000000000000000000000000000000000000000000000000000000000815260040161119c90612960565b60405180910390fd5b60045f9054906101000a900460ff16156111f4576040517f08c379a00000000000000000000000000000000000000000000000000000000081526004016111eb906129ee565b60405180910390fd5b5f60075f3373ffffffffffffffffffffffffffffffffffffffff1673ffffffffffffffffffffffffffffffffffffffff1681526020019081526020015f205490505f8111611277576040517f08c379a000000000000000000000000000000000000000000000000000000000815260040161126e90612a56565b60405180910390fd5b5f60075f3373ffffffffffffffffffffffffffffffffffffffff1673ffffffffffffffffffffffffffffffffffffffff1681526020019081526020015f20819055505f60085f3373ffffffffffffffffffffffffffffffffffffffff1673ffffffffffffffffffffffffffffffffffffffff1681526020019081526020015f205f6101000a81548160ff0219169083151502179055505f600554111561133157600160055f828254611329919061270d565b925050819055505b5f3373ffffffffffffffffffffffffffffffffffffffff1682604051611356906121df565b5f6040518083038185875af1925050503d805f8114611390576040519150601f19603f3d011682016040523d82523d5f602084013e611395565b606091505b50509050806113d9576040517f08c379a00000000000000000000000000000000000000000000000000000000081526004016113d090612abe565b60405180910390fd5b8160035f8282546113ea919061270d565b925050819055503373ffffffffffffffffffffffffffffffffffffffff167fa171b6942063c6f2800ce40a780edce37baa2b618571b11eedd1e69e626e7d768360405161143791906119e3565b60405180910390a250506001600981905550565b60055481565b60045f9054906101000a900460ff1681565b60605f5f5f5f60068054905086106114b0576040517f08c379a00000000000000000000000000000000000000000000000000000000081526004016114a790611ed2565b60405180910390fd5b5f600687815481106114c5576114c4611ef0565b5b905f5260205f2090600602019050805f0180546114e190612479565b80601f016020809104026020016040519081016040528092919081815260200182805461150d90612479565b80156115585780601f1061152f57610100808354040283529160200191611558565b820191905f5260205f20905b81548152906001019060200180831161153b57829003601f168201915b50505050509550806001015f9054906101000a900473ffffffffffffffffffffffffffffffffffffffff16945080600201549350806003015f9054906101000a900460ff169250806004015491505091939590929450565b60035481565b60015481565b6002544210611600576040517f08c379a00000000000000000000000000000000000000000000000000000000081526004016115f790612b4c565b60405180910390fd5b600160095414611645576040517f08c379a000000000000000000000000000000000000000000000000000000000815260040161163c90611e6a565b60405180910390fd5b5f6009819055505f341161168e576040517f08c379a000000000000000000000000000000000000000000000000000000000815260040161168590612bb4565b60405180910390fd5b60085f3373ffffffffffffffffffffffffffffffffffffffff1673ffffffffffffffffffffffffffffffffffffffff1681526020019081526020015f205f9054906101000a900460ff1661174b57600160085f3373ffffffffffffffffffffffffffffffffffffffff1673ffffffffffffffffffffffffffffffffffffffff1681526020019081526020015f205f6101000a81548160ff021916908315150217905550600160055f82825461174391906119a1565b925050819055505b3460075f3373ffffffffffffffffffffffffffffffffffffffff1673ffffffffffffffffffffffffffffffffffffffff1681526020019081526020015f205f82825461179791906119a1565b925050819055503460035f8282546117af91906119a1565b9250508190555060045f9054906101000a900460ff161580156117d6575060015460035410155b1561182f57600160045f6101000a81548160ff0219169083151502179055507ffbfd8ab7c24300fa9888cd721c8565a7da56759384781283684dcf7c7c4a846b60035460405161182691906119e3565b60405180910390a15b3373ffffffffffffffffffffffffffffffffffffffff167f1bb460ccaaf70fbacfec17a376f8acbd278c1405590ffcc8ebe4b88daf4f64ad3460405161187591906119e3565b60405180910390a26001600981905550565b5f60075f8373ffffffffffffffffffffffffffffffffffffffff1673ffffffffffffffffffffffffffffffffffffffff1681526020019081526020015f20549050919050565b5f82825260208201905092915050565b7f446561646c696e65207061737365643b2063616e6e6f742061636365707420645f8201527f697265637420636f6e747269627574696f6e7300000000000000000000000000602082015250565b5f6119376033836118cd565b9150611942826118dd565b604082019050919050565b5f6020820190508181035f8301526119648161192b565b9050919050565b5f819050919050565b7f4e487b71000000000000000000000000000000000000000000000000000000005f52601160045260245ffd5b5f6119ab8261196b565b91506119b68361196b565b92508282019050808211156119ce576119cd611974565b5b92915050565b6119dd8161196b565b82525050565b5f6020820190506119f65f8301846119d4565b92915050565b5f5ffd5b5f5ffd5b611a0d8161196b565b8114611a17575f5ffd5b50565b5f81359050611a2881611a04565b92915050565b5f60208284031215611a4357611a426119fc565b5b5f611a5084828501611a1a565b91505092915050565b5f5ffd5b5f5ffd5b5f5ffd5b5f5f83601f840112611a7a57611a79611a59565b5b8235905067ffffffffffffffff811115611a9757611a96611a5d565b5b602083019150836001820283011115611ab357611ab2611a61565b5b9250929050565b5f73ffffffffffffffffffffffffffffffffffffffff82169050919050565b5f611ae382611aba565b9050919050565b611af381611ad9565b8114611afd575f5ffd5b50565b5f81359050611b0e81611aea565b92915050565b5f5f5f5f60608587031215611b2c57611b2b6119fc565b5b5f85013567ffffffffffffffff811115611b4957611b48611a00565b5b611b5587828801611a65565b94509450506020611b6887828801611b00565b9250506040611b7987828801611a1a565b91505092959194509250565b5f611b8f82611aba565b9050919050565b611b9f81611b85565b8114611ba9575f5ffd5b50565b5f81359050611bba81611b96565b92915050565b5f60208284031215611bd557611bd46119fc565b5b5f611be284828501611bac565b91505092915050565b5f8115159050919050565b611bff81611beb565b82525050565b5f602082019050611c185f830184611bf6565b92915050565b611c2781611b85565b82525050565b5f61010082019050611c415f83018b611c1e565b611c4e602083018a6119d4565b611c5b60408301896119d4565b611c6860608301886119d4565b611c7560808301876119d4565b611c8260a0830186611bf6565b611c8f60c08301856119d4565b611c9c60e08301846119d4565b9998505050505050505050565b5f5f60408385031215611cbf57611cbe6119fc565b5b5f611ccc85828601611a1a565b9250506020611cdd85828601611bac565b9150509250929050565b5f602082019050611cfa5f830184611c1e565b92915050565b5f81519050919050565b8281835e5f83830152505050565b5f601f19601f8301169050919050565b5f611d3282611d00565b611d3c81856118cd565b9350611d4c818560208601611d0a565b611d5581611d18565b840191505092915050565b5f60a0820190508181035f830152611d788188611d28565b9050611d876020830187611c1e565b611d9460408301866119d4565b611da16060830185611bf6565b611dae60808301846119d4565b9695505050505050565b7f4f6e6c79206d616e6167657200000000000000000000000000000000000000005f82015250565b5f611dec600c836118cd565b9150611df782611db8565b602082019050919050565b5f6020820190508181035f830152611e1981611de0565b9050919050565b7f5265656e7472616e742063616c6c0000000000000000000000000000000000005f82015250565b5f611e54600e836118cd565b9150611e5f82611e20565b602082019050919050565b5f6020820190508181035f830152611e8181611e48565b9050919050565b7f496e76616c6964207265717565737420696400000000000000000000000000005f82015250565b5f611ebc6012836118cd565b9150611ec782611e88565b602082019050919050565b5f6020820190508181035f830152611ee981611eb0565b9050919050565b7f4e487b71000000000000000000000000000000000000000000000000000000005f52603260045260245ffd5b7f416c726561647920636f6d706c657465640000000000000000000000000000005f82015250565b5f611f516011836118cd565b9150611f5c82611f1d565b602082019050919050565b5f6020820190508181035f830152611f7e81611f45565b9050919050565b7f46756e64696e6720676f616c206e6f7420726561636865643b2063616e6e6f745f8201527f2064697362757273650000000000000000000000000000000000000000000000602082015250565b5f611fdf6029836118cd565b9150611fea82611f85565b604082019050919050565b5f6020820190508181035f83015261200c81611fd3565b9050919050565b7f496e73756666696369656e7420636f6e74726163742062616c616e63650000005f82015250565b5f612047601d836118cd565b915061205282612013565b602082019050919050565b5f6020820190508181035f8301526120748161203b565b9050919050565b7f4e6f20636f6e7472696275746f72732070726573656e740000000000000000005f82015250565b5f6120af6017836118cd565b91506120ba8261207b565b602082019050919050565b5f6020820190508181035f8301526120dc816120a3565b9050919050565b5f6120ed8261196b565b91506120f88361196b565b92508282026121068161196b565b9150828204841483151761211d5761211c611974565b5b5092915050565b7f4e6f7420656e6f75676820766f74657320286d616a6f726974792072657175695f8201527f7265642900000000000000000000000000000000000000000000000000000000602082015250565b5f61217e6024836118cd565b915061218982612124565b604082019050919050565b5f6020820190508181035f8301526121ab81612172565b9050919050565b5f81905092915050565b50565b5f6121ca5f836121b2565b91506121d5826121bc565b5f82019050919050565b5f6121e9826121bf565b9150819050919050565b7f5472616e73666572206661696c656400000000000000000000000000000000005f82015250565b5f612227600f836118cd565b9150612232826121f3565b602082019050919050565b5f6020820190508181035f8301526122548161221b565b9050919050565b5f819050919050565b5f61227e61227961227484611aba565b61225b565b611aba565b9050919050565b5f61228f82612264565b9050919050565b5f6122a082612285565b9050919050565b6122b081612296565b82525050565b5f6040820190506122c95f8301856122a7565b6122d660208301846119d4565b9392505050565b7f496e76616c696420726563697069656e740000000000000000000000000000005f82015250565b5f6123116011836118cd565b915061231c826122dd565b602082019050919050565b5f6020820190508181035f83015261233e81612305565b9050919050565b7f4465736372697074696f6e2072657175697265640000000000000000000000005f82015250565b5f6123796014836118cd565b915061238482612345565b602082019050919050565b5f6020820190508181035f8301526123a68161236d565b9050919050565b7f56616c7565203e203020726571756972656400000000000000000000000000005f82015250565b5f6123e16012836118cd565b91506123ec826123ad565b602082019050919050565b5f6020820190508181035f83015261240e816123d5565b9050919050565b5f82905092915050565b7f4e487b71000000000000000000000000000000000000000000000000000000005f52604160045260245ffd5b7f4e487b71000000000000000000000000000000000000000000000000000000005f52602260045260245ffd5b5f600282049050600182168061249057607f821691505b6020821081036124a3576124a261244c565b5b50919050565b5f819050815f5260205f209050919050565b5f6020601f8301049050919050565b5f82821b905092915050565b5f600883026125057fffffffffffffffffffffffffffffffffffffffffffffffffffffffffffffffff826124ca565b61250f86836124ca565b95508019841693508086168417925050509392505050565b5f61254161253c6125378461196b565b61225b565b61196b565b9050919050565b5f819050919050565b61255a83612527565b61256e61256682612548565b8484546124d6565b825550505050565b5f5f905090565b612585612576565b612590818484612551565b505050565b5b818110156125b3576125a85f8261257d565b600181019050612596565b5050565b601f8211156125f8576125c9816124a9565b6125d2846124bb565b810160208510156125e1578190505b6125f56125ed856124bb565b830182612595565b50505b505050565b5f82821c905092915050565b5f6126185f19846008026125fd565b1980831691505092915050565b5f6126308383612609565b9150826002028217905092915050565b61264a8383612415565b67ffffffffffffffff8111156126635761266261241f565b5b61266d8254612479565b6126788282856125b7565b5f601f8311600181146126a5575f8415612693578287013590505b61269d8582612625565b865550612704565b601f1984166126b3866124a9565b5f5b828110156126da578489013582556001820191506020850194506020810190506126b5565b868310156126f757848901356126f3601f891682612609565b8355505b6001600288020188555050505b50505050505050565b5f6127178261196b565b91506127228361196b565b925082820390508181111561273a57612739611974565b5b92915050565b828183375f83830152505050565b5f61275983856118cd565b9350612766838584612740565b61276f83611d18565b840190509392505050565b5f6060820190508181035f83015261279381868861274e565b90506127a260208301856122a7565b6127af60408301846119d4565b95945050505050565b7f4f6e6c7920636f6e7472696275746f72732063616e20766f74650000000000005f82015250565b5f6127ec601a836118cd565b91506127f7826127b8565b602082019050919050565b5f6020820190508181035f830152612819816127e0565b9050919050565b7f5265717565737420616c726561647920636f6d706c65746564000000000000005f82015250565b5f6128546019836118cd565b915061285f82612820565b602082019050919050565b5f6020820190508181035f83015261288181612848565b9050919050565b7f416c726561647920766f74656420666f722074686973207265717565737400005f82015250565b5f6128bc601e836118cd565b91506128c782612888565b602082019050919050565b5f6020820190508181035f8301526128e9816128b0565b9050919050565b7f416374696f6e20616c6c6f776564206f6e6c7920616674657220646561646c695f8201527f6e65000000000000000000000000000000000000000000000000000000000000602082015250565b5f61294a6022836118cd565b9150612955826128f0565b604082019050919050565b5f6020820190508181035f8301526129778161293e565b9050919050565b7f476f616c20726561636865643b20726566756e6473206e6f7420617661696c615f8201527f626c650000000000000000000000000000000000000000000000000000000000602082015250565b5f6129d86023836118cd565b91506129e38261297e565b604082019050919050565b5f6020820190508181035f830152612a05816129cc565b9050919050565b7f4e6f20636f6e747269627574696f6e7320746f20726566756e640000000000005f82015250565b5f612a40601a836118cd565b9150612a4b82612a0c565b602082019050919050565b5f6020820190508181035f830152612a6d81612a34565b9050919050565b7f526566756e64207472616e73666572206661696c6564000000000000000000005f82015250565b5f612aa86016836118cd565b9150612ab382612a74565b602082019050919050565b5f6020820190508181035f830152612ad581612a9c565b9050919050565b7f416374696f6e20616c6c6f776564206f6e6c79206265666f726520646561646c5f8201527f696e650000000000000000000000000000000000000000000000000000000000602082015250565b5f612b366023836118cd565b9150612b4182612adc565b604082019050919050565b5f6020820190508181035f830152612b6381612b2a565b9050919050565b7f4d7573742073656e6420455448000000000000000000000000000000000000005f82015250565b5f612b9e600d836118cd565b9150612ba982612b6a565b602082019050919050565b5f6020820190508181035f830152612bcb81612b92565b905091905056fea264697066735822122091587c3533bbaa605e97b34136920c7c06df6e1f41dd1ed5893f0bdbd8b969c964736f6c634300081e0033",
					"opcodes": "PUSH1 0x80 PUSH1 0x40 MSTORE PUSH1 0x1 PUSH1 0x9 SSTORE CALLVALUE DUP1 ISZERO PUSH2 0x14 JUMPI PUSH0 PUSH0 REVERT JUMPDEST POP PUSH1 0x40 MLOAD PUSH2 0x2E52 CODESIZE SUB DUP1 PUSH2 0x2E52 DUP4 CODECOPY DUP2 DUP2 ADD PUSH1 0x40 MSTORE DUP2 ADD SWAP1 PUSH2 0x36 SWAP2 SWAP1 PUSH2 0x127 JUMP JUMPDEST PUSH0 DUP3 GT PUSH2 0x78 JUMPI PUSH1 0x40 MLOAD PUSH32 0x8C379A000000000000000000000000000000000000000000000000000000000 DUP2 MSTORE PUSH1 0x4 ADD PUSH2 0x6F SWAP1 PUSH2 0x1BF JUMP JUMPDEST PUSH1 0x40 MLOAD DUP1 SWAP2 SUB SWAP1 REVERT JUMPDEST CALLER PUSH0 PUSH0 PUSH2 0x100 EXP DUP2 SLOAD DUP2 PUSH20 0xFFFFFFFFFFFFFFFFFFFFFFFFFFFFFFFFFFFFFFFF MUL NOT AND SWAP1 DUP4 PUSH20 0xFFFFFFFFFFFFFFFFFFFFFFFFFFFFFFFFFFFFFFFF AND MUL OR SWAP1 SSTORE POP DUP2 PUSH1 0x1 DUP2 SWAP1 SSTORE POP DUP1 TIMESTAMP PUSH2 0xCA SWAP2 SWAP1 PUSH2 0x20A JUMP JUMPDEST PUSH1 0x2 DUP2 SWAP1 SSTORE POP PUSH0 PUSH1 0x4 PUSH0 PUSH2 0x100 EXP DUP2 SLOAD DUP2 PUSH1 0xFF MUL NOT AND SWAP1 DUP4 ISZERO ISZERO MUL OR SWAP1 SSTORE POP POP POP PUSH2 0x23D JUMP JUMPDEST PUSH0 PUSH0 REVERT JUMPDEST PUSH0 DUP2 SWAP1 POP SWAP2 SWAP1 POP JUMP JUMPDEST PUSH2 0x106 DUP2 PUSH2 0xF4 JUMP JUMPDEST DUP2 EQ PUSH2 0x110 JUMPI PUSH0 PUSH0 REVERT JUMPDEST POP JUMP JUMPDEST PUSH0 DUP2 MLOAD SWAP1 POP PUSH2 0x121 DUP2 PUSH2 0xFD JUMP JUMPDEST SWAP3 SWAP2 POP POP JUMP JUMPDEST PUSH0 PUSH0 PUSH1 0x40 DUP4 DUP6 SUB SLT ISZERO PUSH2 0x13D JUMPI PUSH2 0x13C PUSH2 0xF0 JUMP JUMPDEST JUMPDEST PUSH0 PUSH2 0x14A DUP6 DUP3 DUP7 ADD PUSH2 0x113 JUMP JUMPDEST SWAP3 POP POP PUSH1 0x20 PUSH2 0x15B DUP6 DUP3 DUP7 ADD PUSH2 0x113 JUMP JUMPDEST SWAP2 POP POP SWAP3 POP SWAP3 SWAP1 POP JUMP JUMPDEST PUSH0 DUP3 DUP3 MSTORE PUSH1 0x20 DUP3 ADD SWAP1 POP SWAP3 SWAP2 POP POP JUMP JUMPDEST PUSH32 0x546172676574206D757374206265203E20300000000000000000000000000000 PUSH0 DUP3 ADD MSTORE POP JUMP JUMPDEST PUSH0 PUSH2 0x1A9 PUSH1 0x12 DUP4 PUSH2 0x165 JUMP JUMPDEST SWAP2 POP PUSH2 0x1B4 DUP3 PUSH2 0x175 JUMP JUMPDEST PUSH1 0x20 DUP3 ADD SWAP1 POP SWAP2 SWAP1 POP JUMP JUMPDEST PUSH0 PUSH1 0x20 DUP3 ADD SWAP1 POP DUP2 DUP2 SUB PUSH0 DUP4 ADD MSTORE PUSH2 0x1D6 DUP2 PUSH2 0x19D JUMP JUMPDEST SWAP1 POP SWAP2 SWAP1 POP JUMP JUMPDEST PUSH32 0x4E487B7100000000000000000000000000000000000000000000000000000000 PUSH0 MSTORE PUSH1 0x11 PUSH1 0x4 MSTORE PUSH1 0x24 PUSH0 REVERT JUMPDEST PUSH0 PUSH2 0x214 DUP3 PUSH2 0xF4 JUMP JUMPDEST SWAP2 POP PUSH2 0x21F DUP4 PUSH2 0xF4 JUMP JUMPDEST SWAP3 POP DUP3 DUP3 ADD SWAP1 POP DUP1 DUP3 GT ISZERO PUSH2 0x237 JUMPI PUSH2 0x236 PUSH2 0x1DD JUMP JUMPDEST JUMPDEST SWAP3 SWAP2 POP POP JUMP JUMPDEST PUSH2 0x2C08 DUP1 PUSH2 0x24A PUSH0 CODECOPY PUSH0 RETURN INVALID PUSH1 0x80 PUSH1 0x40 MSTORE PUSH1 0x4 CALLDATASIZE LT PUSH2 0x10C JUMPI PUSH0 CALLDATALOAD PUSH1 0xE0 SHR DUP1 PUSH4 0x4CB6F4A5 GT PUSH2 0x94 JUMPI DUP1 PUSH4 0xC58343EF GT PUSH2 0x63 JUMPI DUP1 PUSH4 0xC58343EF EQ PUSH2 0x58C JUMPI DUP1 PUSH4 0xC59EE1DC EQ PUSH2 0x5CC JUMPI DUP1 PUSH4 0xD4B83992 EQ PUSH2 0x5F6 JUMPI DUP1 PUSH4 0xD7BB99BA EQ PUSH2 0x620 JUMPI DUP1 PUSH4 0xE14ED045 EQ PUSH2 0x62A JUMPI PUSH2 0x345 JUMP JUMPDEST DUP1 PUSH4 0x4CB6F4A5 EQ PUSH2 0x4FA JUMPI DUP1 PUSH4 0x590E1AE3 EQ PUSH2 0x522 JUMPI DUP1 PUSH4 0x7569B3D7 EQ PUSH2 0x538 JUMPI DUP1 PUSH4 0x7D3D6522 EQ PUSH2 0x562 JUMPI PUSH2 0x345 JUMP JUMPDEST DUP1 PUSH4 0x3410452A GT PUSH2 0xDB JUMPI DUP1 PUSH4 0x3410452A EQ PUSH2 0x3FD JUMPI DUP1 PUSH4 0x4051DDAC EQ PUSH2 0x427 JUMPI DUP1 PUSH4 0x42E94C90 EQ PUSH2 0x458 JUMPI DUP1 PUSH4 0x43859632 EQ PUSH2 0x494 JUMPI DUP1 PUSH4 0x481C6A75 EQ PUSH2 0x4D0 JUMPI PUSH2 0x345 JUMP JUMPDEST DUP1 PUSH4 0x3441006 EQ PUSH2 0x347 JUMPI DUP1 PUSH4 0x1B16BB5C EQ PUSH2 0x36F JUMPI DUP1 PUSH4 0x1D0D35F5 EQ PUSH2 0x397 JUMPI DUP1 PUSH4 0x29DCB0CF EQ PUSH2 0x3D3 JUMPI PUSH2 0x345 JUMP JUMPDEST CALLDATASIZE PUSH2 0x345 JUMPI PUSH1 0x2 SLOAD TIMESTAMP LT PUSH2 0x155 JUMPI PUSH1 0x40 MLOAD PUSH32 0x8C379A000000000000000000000000000000000000000000000000000000000 DUP2 MSTORE PUSH1 0x4 ADD PUSH2 0x14C SWAP1 PUSH2 0x194D JUMP JUMPDEST PUSH1 0x40 MLOAD DUP1 SWAP2 SUB SWAP1 REVERT JUMPDEST PUSH1 0x8 PUSH0 CALLER PUSH20 0xFFFFFFFFFFFFFFFFFFFFFFFFFFFFFFFFFFFFFFFF AND PUSH20 0xFFFFFFFFFFFFFFFFFFFFFFFFFFFFFFFFFFFFFFFF AND DUP2 MSTORE PUSH1 0x20 ADD SWAP1 DUP2 MSTORE PUSH1 0x20 ADD PUSH0 KECCAK256 PUSH0 SWAP1 SLOAD SWAP1 PUSH2 0x100 EXP SWAP1 DIV PUSH1 0xFF AND PUSH2 0x212 JUMPI PUSH1 0x1 PUSH1 0x8 PUSH0 CALLER PUSH20 0xFFFFFFFFFFFFFFFFFFFFFFFFFFFFFFFFFFFFFFFF AND PUSH20 0xFFFFFFFFFFFFFFFFFFFFFFFFFFFFFFFFFFFFFFFF AND DUP2 MSTORE PUSH1 0x20 ADD SWAP1 DUP2 MSTORE PUSH1 0x20 ADD PUSH0 KECCAK256 PUSH0 PUSH2 0x100 EXP DUP2 SLOAD DUP2 PUSH1 0xFF MUL NOT AND SWAP1 DUP4 ISZERO ISZERO MUL OR SWAP1 SSTORE POP PUSH1 0x1 PUSH1 0x5 PUSH0 DUP3 DUP3 SLOAD PUSH2 0x20A SWAP2 SWAP1 PUSH2 0x19A1 JUMP JUMPDEST SWAP3 POP POP DUP2 SWAP1 SSTORE POP JUMPDEST CALLVALUE PUSH1 0x7 PUSH0 CALLER PUSH20 0xFFFFFFFFFFFFFFFFFFFFFFFFFFFFFFFFFFFFFFFF AND PUSH20 0xFFFFFFFFFFFFFFFFFFFFFFFFFFFFFFFFFFFFFFFF AND DUP2 MSTORE PUSH1 0x20 ADD SWAP1 DUP2 MSTORE PUSH1 0x20 ADD PUSH0 KECCAK256 PUSH0 DUP3 DUP3 SLOAD PUSH2 0x25E SWAP2 SWAP1 PUSH2 0x19A1 JUMP JUMPDEST SWAP3 POP POP DUP2 SWAP1 SSTORE POP CALLVALUE PUSH1 0x3 PUSH0 DUP3 DUP3 SLOAD PUSH2 0x276 SWAP2 SWAP1 PUSH2 0x19A1 JUMP JUMPDEST SWAP3 POP POP DUP2 SWAP1 SSTORE POP PUSH1 0x4 PUSH0 SWAP1 SLOAD SWAP1 PUSH2 0x100 EXP SWAP1 DIV PUSH1 0xFF AND ISZERO DUP1 ISZERO PUSH2 0x29D JUMPI POP PUSH1 0x1 SLOAD PUSH1 0x3 SLOAD LT ISZERO JUMPDEST ISZERO PUSH2 0x2F6 JUMPI PUSH1 0x1 PUSH1 0x4 PUSH0 PUSH2 0x100 EXP DUP2 SLOAD DUP2 PUSH1 0xFF MUL NOT AND SWAP1 DUP4 ISZERO ISZERO MUL OR SWAP1 SSTORE POP PUSH32 0xFBFD8AB7C24300FA9888CD721C8565A7DA56759384781283684DCF7C7C4A846B PUSH1 0x3 SLOAD PUSH1 0x40 MLOAD PUSH2 0x2ED SWAP2 SWAP1 PUSH2 0x19E3 JUMP JUMPDEST PUSH1 0x40 MLOAD DUP1 SWAP2 SUB SWAP1 LOG1 JUMPDEST CALLER PUSH20 0xFFFFFFFFFFFFFFFFFFFFFFFFFFFFFFFFFFFFFFFF AND PUSH32 0x1BB460CCAAF70FBACFEC17A376F8ACBD278C1405590FFCC8EBE4B88DAF4F64AD CALLVALUE PUSH1 0x40 MLOAD PUSH2 0x33C SWAP2 SWAP1 PUSH2 0x19E3 JUMP JUMPDEST PUSH1 0x40 MLOAD DUP1 SWAP2 SUB SWAP1 LOG2 JUMPDEST STOP JUMPDEST CALLVALUE DUP1 ISZERO PUSH2 0x352 JUMPI PUSH0 PUSH0 REVERT JUMPDEST POP PUSH2 0x36D PUSH1 0x4 DUP1 CALLDATASIZE SUB DUP2 ADD SWAP1 PUSH2 0x368 SWAP2 SWAP1 PUSH2 0x1A2E JUMP JUMPDEST PUSH2 0x666 JUMP JUMPDEST STOP JUMPDEST CALLVALUE DUP1 ISZERO PUSH2 0x37A JUMPI PUSH0 PUSH0 REVERT JUMPDEST POP PUSH2 0x395 PUSH1 0x4 DUP1 CALLDATASIZE SUB DUP2 ADD SWAP1 PUSH2 0x390 SWAP2 SWAP1 PUSH2 0x1B14 JUMP JUMPDEST PUSH2 0xA81 JUMP JUMPDEST STOP JUMPDEST CALLVALUE DUP1 ISZERO PUSH2 0x3A2 JUMPI PUSH0 PUSH0 REVERT JUMPDEST POP PUSH2 0x3BD PUSH1 0x4 DUP1 CALLDATASIZE SUB DUP2 ADD SWAP1 PUSH2 0x3B8 SWAP2 SWAP1 PUSH2 0x1BC0 JUMP JUMPDEST PUSH2 0xD02 JUMP JUMPDEST PUSH1 0x40 MLOAD PUSH2 0x3CA SWAP2 SWAP1 PUSH2 0x1C05 JUMP JUMPDEST PUSH1 0x40 MLOAD DUP1 SWAP2 SUB SWAP1 RETURN JUMPDEST CALLVALUE DUP1 ISZERO PUSH2 0x3DE JUMPI PUSH0 PUSH0 REVERT JUMPDEST POP PUSH2 0x3E7 PUSH2 0xD1F JUMP JUMPDEST PUSH1 0x40 MLOAD PUSH2 0x3F4 SWAP2 SWAP1 PUSH2 0x19E3 JUMP JUMPDEST PUSH1 0x40 MLOAD DUP1 SWAP2 SUB SWAP1 RETURN JUMPDEST CALLVALUE DUP1 ISZERO PUSH2 0x408 JUMPI PUSH0 PUSH0 REVERT JUMPDEST POP PUSH2 0x411 PUSH2 0xD25 JUMP JUMPDEST PUSH1 0x40 MLOAD PUSH2 0x41E SWAP2 SWAP1 PUSH2 0x19E3 JUMP JUMPDEST PUSH1 0x40 MLOAD DUP1 SWAP2 SUB SWAP1 RETURN JUMPDEST CALLVALUE DUP1 ISZERO PUSH2 0x432 JUMPI PUSH0 PUSH0 REVERT JUMPDEST POP PUSH2 0x43B PUSH2 0xD31 JUMP JUMPDEST PUSH1 0x40 MLOAD PUSH2 0x44F SWAP9 SWAP8 SWAP7 SWAP6 SWAP5 SWAP4 SWAP3 SWAP2 SWAP1 PUSH2 0x1C2D JUMP JUMPDEST PUSH1 0x40 MLOAD DUP1 SWAP2 SUB SWAP1 RETURN JUMPDEST CALLVALUE DUP1 ISZERO PUSH2 0x463 JUMPI PUSH0 PUSH0 REVERT JUMPDEST POP PUSH2 0x47E PUSH1 0x4 DUP1 CALLDATASIZE SUB DUP2 ADD SWAP1 PUSH2 0x479 SWAP2 SWAP1 PUSH2 0x1BC0 JUMP JUMPDEST PUSH2 0xD96 JUMP JUMPDEST PUSH1 0x40 MLOAD PUSH2 0x48B SWAP2 SWAP1 PUSH2 0x19E3 JUMP JUMPDEST PUSH1 0x40 MLOAD DUP1 SWAP2 SUB SWAP1 RETURN JUMPDEST CALLVALUE DUP1 ISZERO PUSH2 0x49F JUMPI PUSH0 PUSH0 REVERT JUMPDEST POP PUSH2 0x4BA PUSH1 0x4 DUP1 CALLDATASIZE SUB DUP2 ADD SWAP1 PUSH2 0x4B5 SWAP2 SWAP1 PUSH2 0x1CA9 JUMP JUMPDEST PUSH2 0xDAB JUMP JUMPDEST PUSH1 0x40 MLOAD PUSH2 0x4C7 SWAP2 SWAP1 PUSH2 0x1C05 JUMP JUMPDEST PUSH1 0x40 MLOAD DUP1 SWAP2 SUB SWAP1 RETURN JUMPDEST CALLVALUE DUP1 ISZERO PUSH2 0x4DB JUMPI PUSH0 PUSH0 REVERT JUMPDEST POP PUSH2 0x4E4 PUSH2 0xE66 JUMP JUMPDEST PUSH1 0x40 MLOAD PUSH2 0x4F1 SWAP2 SWAP1 PUSH2 0x1CE7 JUMP JUMPDEST PUSH1 0x40 MLOAD DUP1 SWAP2 SUB SWAP1 RETURN JUMPDEST CALLVALUE DUP1 ISZERO PUSH2 0x505 JUMPI PUSH0 PUSH0 REVERT JUMPDEST POP PUSH2 0x520 PUSH1 0x4 DUP1 CALLDATASIZE SUB DUP2 ADD SWAP1 PUSH2 0x51B SWAP2 SWAP1 PUSH2 0x1A2E JUMP JUMPDEST PUSH2 0xE8A JUMP JUMPDEST STOP JUMPDEST CALLVALUE DUP1 ISZERO PUSH2 0x52D JUMPI PUSH0 PUSH0 REVERT JUMPDEST POP PUSH2 0x536 PUSH2 0x1114 JUMP JUMPDEST STOP JUMPDEST CALLVALUE DUP1 ISZERO PUSH2 0x543 JUMPI PUSH0 PUSH0 REVERT JUMPDEST POP PUSH2 0x54C PUSH2 0x144B JUMP JUMPDEST PUSH1 0x40 MLOAD PUSH2 0x559 SWAP2 SWAP1 PUSH2 0x19E3 JUMP JUMPDEST PUSH1 0x40 MLOAD DUP1 SWAP2 SUB SWAP1 RETURN JUMPDEST CALLVALUE DUP1 ISZERO PUSH2 0x56D JUMPI PUSH0 PUSH0 REVERT JUMPDEST POP PUSH2 0x576 PUSH2 0x1451 JUMP JUMPDEST PUSH1 0x40 MLOAD PUSH2 0x583 SWAP2 SWAP1 PUSH2 0x1C05 JUMP JUMPDEST PUSH1 0x40 MLOAD DUP1 SWAP2 SUB SWAP1 RETURN JUMPDEST CALLVALUE DUP1 ISZERO PUSH2 0x597 JUMPI PUSH0 PUSH0 REVERT JUMPDEST POP PUSH2 0x5B2 PUSH1 0x4 DUP1 CALLDATASIZE SUB DUP2 ADD SWAP1 PUSH2 0x5AD SWAP2 SWAP1 PUSH2 0x1A2E JUMP JUMPDEST PUSH2 0x1463 JUMP JUMPDEST PUSH1 0x40 MLOAD PUSH2 0x5C3 SWAP6 SWAP5 SWAP4 SWAP3 SWAP2 SWAP1 PUSH2 0x1D60 JUMP JUMPDEST PUSH1 0x40 MLOAD DUP1 SWAP2 SUB SWAP1 RETURN JUMPDEST CALLVALUE DUP1 ISZERO PUSH2 0x5D7 JUMPI PUSH0 PUSH0 REVERT JUMPDEST POP PUSH2 0x5E0 PUSH2 0x15B0 JUMP JUMPDEST PUSH1 0x40 MLOAD PUSH2 0x5ED SWAP2 SWAP1 PUSH2 0x19E3 JUMP JUMPDEST PUSH1 0x40 MLOAD DUP1 SWAP2 SUB SWAP1 RETURN JUMPDEST CALLVALUE DUP1 ISZERO PUSH2 0x601 JUMPI PUSH0 PUSH0 REVERT JUMPDEST POP PUSH2 0x60A PUSH2 0x15B6 JUMP JUMPDEST PUSH1 0x40 MLOAD PUSH2 0x617 SWAP2 SWAP1 PUSH2 0x19E3 JUMP JUMPDEST PUSH1 0x40 MLOAD DUP1 SWAP2 SUB SWAP1 RETURN JUMPDEST PUSH2 0x628 PUSH2 0x15BC JUMP JUMPDEST STOP JUMPDEST CALLVALUE DUP1 ISZERO PUSH2 0x635 JUMPI PUSH0 PUSH0 REVERT JUMPDEST POP PUSH2 0x650 PUSH1 0x4 DUP1 CALLDATASIZE SUB DUP2 ADD SWAP1 PUSH2 0x64B SWAP2 SWAP1 PUSH2 0x1BC0 JUMP JUMPDEST PUSH2 0x1887 JUMP JUMPDEST PUSH1 0x40 MLOAD PUSH2 0x65D SWAP2 SWAP1 PUSH2 0x19E3 JUMP JUMPDEST PUSH1 0x40 MLOAD DUP1 SWAP2 SUB SWAP1 RETURN JUMPDEST PUSH0 PUSH0 SWAP1 SLOAD SWAP1 PUSH2 0x100 EXP SWAP1 DIV PUSH20 0xFFFFFFFFFFFFFFFFFFFFFFFFFFFFFFFFFFFFFFFF AND PUSH20 0xFFFFFFFFFFFFFFFFFFFFFFFFFFFFFFFFFFFFFFFF AND CALLER PUSH20 0xFFFFFFFFFFFFFFFFFFFFFFFFFFFFFFFFFFFFFFFF AND EQ PUSH2 0x6F4 JUMPI PUSH1 0x40 MLOAD PUSH32 0x8C379A000000000000000000000000000000000000000000000000000000000 DUP2 MSTORE PUSH1 0x4 ADD PUSH2 0x6EB SWAP1 PUSH2 0x1E02 JUMP JUMPDEST PUSH1 0x40 MLOAD DUP1 SWAP2 SUB SWAP1 REVERT JUMPDEST PUSH1 0x1 PUSH1 0x9 SLOAD EQ PUSH2 0x739 JUMPI PUSH1 0x40 MLOAD PUSH32 0x8C379A000000000000000000000000000000000000000000000000000000000 DUP2 MSTORE PUSH1 0x4 ADD PUSH2 0x730 SWAP1 PUSH2 0x1E6A JUMP JUMPDEST PUSH1 0x40 MLOAD DUP1 SWAP2 SUB SWAP1 REVERT JUMPDEST PUSH0 PUSH1 0x9 DUP2 SWAP1 SSTORE POP PUSH1 0x6 DUP1 SLOAD SWAP1 POP DUP2 LT PUSH2 0x787 JUMPI PUSH1 0x40 MLOAD PUSH32 0x8C379A000000000000000000000000000000000000000000000000000000000 DUP2 MSTORE PUSH1 0x4 ADD PUSH2 0x77E SWAP1 PUSH2 0x1ED2 JUMP JUMPDEST PUSH1 0x40 MLOAD DUP1 SWAP2 SUB SWAP1 REVERT JUMPDEST PUSH0 PUSH1 0x6 DUP3 DUP2 SLOAD DUP2 LT PUSH2 0x79C JUMPI PUSH2 0x79B PUSH2 0x1EF0 JUMP JUMPDEST JUMPDEST SWAP1 PUSH0 MSTORE PUSH1 0x20 PUSH0 KECCAK256 SWAP1 PUSH1 0x6 MUL ADD SWAP1 POP DUP1 PUSH1 0x3 ADD PUSH0 SWAP1 SLOAD SWAP1 PUSH2 0x100 EXP SWAP1 DIV PUSH1 0xFF AND ISZERO PUSH2 0x7FB JUMPI PUSH1 0x40 MLOAD PUSH32 0x8C379A000000000000000000000000000000000000000000000000000000000 DUP2 MSTORE PUSH1 0x4 ADD PUSH2 0x7F2 SWAP1 PUSH2 0x1F67 JUMP JUMPDEST PUSH1 0x40 MLOAD DUP1 SWAP2 SUB SWAP1 REVERT JUMPDEST PUSH1 0x4 PUSH0 SWAP1 SLOAD SWAP1 PUSH2 0x100 EXP SWAP1 DIV PUSH1 0xFF AND PUSH2 0x849 JUMPI PUSH1 0x40 MLOAD PUSH32 0x8C379A000000000000000000000000000000000000000000000000000000000 DUP2 MSTORE PUSH1 0x4 ADD PUSH2 0x840 SWAP1 PUSH2 0x1FF5 JUMP JUMPDEST PUSH1 0x40 MLOAD DUP1 SWAP2 SUB SWAP1 REVERT JUMPDEST SELFBALANCE DUP2 PUSH1 0x2 ADD SLOAD GT ISZERO PUSH2 0x890 JUMPI PUSH1 0x40 MLOAD PUSH32 0x8C379A000000000000000000000000000000000000000000000000000000000 DUP2 MSTORE PUSH1 0x4 ADD PUSH2 0x887 SWAP1 PUSH2 0x205D JUMP JUMPDEST PUSH1 0x40 MLOAD DUP1 SWAP2 SUB SWAP1 REVERT JUMPDEST PUSH0 PUSH1 0x5 SLOAD GT PUSH2 0x8D4 JUMPI PUSH1 0x40 MLOAD PUSH32 0x8C379A000000000000000000000000000000000000000000000000000000000 DUP2 MSTORE PUSH1 0x4 ADD PUSH2 0x8CB SWAP1 PUSH2 0x20C5 JUMP JUMPDEST PUSH1 0x40 MLOAD DUP1 SWAP2 SUB SWAP1 REVERT JUMPDEST PUSH1 0x5 SLOAD PUSH1 0x2 DUP3 PUSH1 0x4 ADD SLOAD PUSH2 0x8E8 SWAP2 SWAP1 PUSH2 0x20E3 JUMP JUMPDEST GT PUSH2 0x928 JUMPI PUSH1 0x40 MLOAD PUSH32 0x8C379A000000000000000000000000000000000000000000000000000000000 DUP2 MSTORE PUSH1 0x4 ADD PUSH2 0x91F SWAP1 PUSH2 0x2194 JUMP JUMPDEST PUSH1 0x40 MLOAD DUP1 SWAP2 SUB SWAP1 REVERT JUMPDEST PUSH1 0x1 DUP2 PUSH1 0x3 ADD PUSH0 PUSH2 0x100 EXP DUP2 SLOAD DUP2 PUSH1 0xFF MUL NOT AND SWAP1 DUP4 ISZERO ISZERO MUL OR SWAP1 SSTORE POP PUSH0 DUP2 PUSH1 0x1 ADD PUSH0 SWAP1 SLOAD SWAP1 PUSH2 0x100 EXP SWAP1 DIV PUSH20 0xFFFFFFFFFFFFFFFFFFFFFFFFFFFFFFFFFFFFFFFF AND PUSH20 0xFFFFFFFFFFFFFFFFFFFFFFFFFFFFFFFFFFFFFFFF AND DUP3 PUSH1 0x2 ADD SLOAD PUSH1 0x40 MLOAD PUSH2 0x990 SWAP1 PUSH2 0x21DF JUMP JUMPDEST PUSH0 PUSH1 0x40 MLOAD DUP1 DUP4 SUB DUP2 DUP6 DUP8 GAS CALL SWAP3 POP POP POP RETURNDATASIZE DUP1 PUSH0 DUP2 EQ PUSH2 0x9CA JUMPI PUSH1 0x40 MLOAD SWAP2 POP PUSH1 0x1F NOT PUSH1 0x3F RETURNDATASIZE ADD AND DUP3 ADD PUSH1 0x40 MSTORE RETURNDATASIZE DUP3 MSTORE RETURNDATASIZE PUSH0 PUSH1 0x20 DUP5 ADD RETURNDATACOPY PUSH2 0x9CF JUMP JUMPDEST PUSH1 0x60 SWAP2 POP JUMPDEST POP POP SWAP1 POP DUP1 PUSH2 0xA13 JUMPI PUSH1 0x40 MLOAD PUSH32 0x8C379A000000000000000000000000000000000000000000000000000000000 DUP2 MSTORE PUSH1 0x4 ADD PUSH2 0xA0A SWAP1 PUSH2 0x223D JUMP JUMPDEST PUSH1 0x40 MLOAD DUP1 SWAP2 SUB SWAP1 REVERT JUMPDEST DUP3 PUSH32 0x73FD0E11744B112133172A1D5396C8680521585A2B0C4BD539B0DA184770D7D7 DUP4 PUSH1 0x1 ADD PUSH0 SWAP1 SLOAD SWAP1 PUSH2 0x100 EXP SWAP1 DIV PUSH20 0xFFFFFFFFFFFFFFFFFFFFFFFFFFFFFFFFFFFFFFFF AND DUP5 PUSH1 0x2 ADD SLOAD PUSH1 0x40 MLOAD PUSH2 0xA6C SWAP3 SWAP2 SWAP1 PUSH2 0x22B6 JUMP JUMPDEST PUSH1 0x40 MLOAD DUP1 SWAP2 SUB SWAP1 LOG2 POP POP PUSH1 0x1 PUSH1 0x9 DUP2 SWAP1 SSTORE POP POP JUMP JUMPDEST PUSH0 PUSH0 SWAP1 SLOAD SWAP1 PUSH2 0x100 EXP SWAP1 DIV PUSH20 0xFFFFFFFFFFFFFFFFFFFFFFFFFFFFFFFFFFFFFFFF AND PUSH20 0xFFFFFFFFFFFFFFFFFFFFFFFFFFFFFFFFFFFFFFFF AND CALLER PUSH20 0xFFFFFFFFFFFFFFFFFFFFFFFFFFFFFFFFFFFFFFFF AND EQ PUSH2 0xB0F JUMPI PUSH1 0x40 MLOAD PUSH32 0x8C379A000000000000000000000000000000000000000000000000000000000 DUP2 MSTORE PUSH1 0x4 ADD PUSH2 0xB06 SWAP1 PUSH2 0x1E02 JUMP JUMPDEST PUSH1 0x40 MLOAD DUP1 SWAP2 SUB SWAP1 REVERT JUMPDEST PUSH0 PUSH20 0xFFFFFFFFFFFFFFFFFFFFFFFFFFFFFFFFFFFFFFFF AND DUP3 PUSH20 0xFFFFFFFFFFFFFFFFFFFFFFFFFFFFFFFFFFFFFFFF AND SUB PUSH2 0xB7D JUMPI PUSH1 0x40 MLOAD PUSH32 0x8C379A000000000000000000000000000000000000000000000000000000000 DUP2 MSTORE PUSH1 0x4 ADD PUSH2 0xB74 SWAP1 PUSH2 0x2327 JUMP JUMPDEST PUSH1 0x40 MLOAD DUP1 SWAP2 SUB SWAP1 REVERT JUMPDEST PUSH0 DUP5 DUP5 SWAP1 POP GT PUSH2 0xBC2 JUMPI PUSH1 0x40 MLOAD PUSH32 0x8C379A000000000000000000000000000000000000000000000000000000000 DUP2 MSTORE PUSH1 0x4 ADD PUSH2 0xBB9 SWAP1 PUSH2 0x238F JUMP JUMPDEST PUSH1 0x40 MLOAD DUP1 SWAP2 SUB SWAP1 REVERT JUMPDEST PUSH0 DUP2 GT PUSH2 0xC04 JUMPI PUSH1 0x40 MLOAD PUSH32 0x8C379A000000000000000000000000000000000000000000000000000000000 DUP2 MSTORE PUSH1 0x4 ADD PUSH2 0xBFB SWAP1 PUSH2 0x23F7 JUMP JUMPDEST PUSH1 0x40 MLOAD DUP1 SWAP2 SUB SWAP1 REVERT JUMPDEST PUSH0 PUSH1 0x6 PUSH1 0x1 DUP2 PUSH1 0x1 DUP2 SLOAD ADD DUP1 DUP3 SSTORE DUP1 SWAP2 POP POP SUB SWAP1 PUSH0 MSTORE PUSH1 0x20 PUSH0 KECCAK256 SWAP1 PUSH1 0x6 MUL ADD SWAP1 POP DUP5 DUP5 DUP3 PUSH0 ADD SWAP2 DUP3 PUSH2 0xC37 SWAP3 SWAP2 SWAP1 PUSH2 0x2640 JUMP JUMPDEST POP DUP3 DUP2 PUSH1 0x1 ADD PUSH0 PUSH2 0x100 EXP DUP2 SLOAD DUP2 PUSH20 0xFFFFFFFFFFFFFFFFFFFFFFFFFFFFFFFFFFFFFFFF MUL NOT AND SWAP1 DUP4 PUSH20 0xFFFFFFFFFFFFFFFFFFFFFFFFFFFFFFFFFFFFFFFF AND MUL OR SWAP1 SSTORE POP DUP2 DUP2 PUSH1 0x2 ADD DUP2 SWAP1 SSTORE POP PUSH0 DUP2 PUSH1 0x3 ADD PUSH0 PUSH2 0x100 EXP DUP2 SLOAD DUP2 PUSH1 0xFF MUL NOT AND SWAP1 DUP4 ISZERO ISZERO MUL OR SWAP1 SSTORE POP PUSH0 DUP2 PUSH1 0x4 ADD DUP2 SWAP1 SSTORE POP PUSH0 PUSH1 0x1 PUSH1 0x6 DUP1 SLOAD SWAP1 POP PUSH2 0xCBA SWAP2 SWAP1 PUSH2 0x270D JUMP JUMPDEST SWAP1 POP DUP1 PUSH32 0xF4F741CFAF5F9FF0BE5480B102AA9EC4ED806560A6B1718816935EE4CC4A35F3 DUP8 DUP8 DUP8 DUP8 PUSH1 0x40 MLOAD PUSH2 0xCF2 SWAP5 SWAP4 SWAP3 SWAP2 SWAP1 PUSH2 0x277A JUMP JUMPDEST PUSH1 0x40 MLOAD DUP1 SWAP2 SUB SWAP1 LOG2 POP POP POP POP POP POP JUMP JUMPDEST PUSH1 0x8 PUSH1 0x20 MSTORE DUP1 PUSH0 MSTORE PUSH1 0x40 PUSH0 KECCAK256 PUSH0 SWAP2 POP SLOAD SWAP1 PUSH2 0x100 EXP SWAP1 DIV PUSH1 0xFF AND DUP2 JUMP JUMPDEST PUSH1 0x2 SLOAD DUP2 JUMP JUMPDEST PUSH0 PUSH1 0x6 DUP1 SLOAD SWAP1 POP SWAP1 POP SWAP1 JUMP JUMPDEST PUSH0 PUSH0 PUSH0 PUSH0 PUSH0 PUSH0 PUSH0 PUSH0 PUSH0 PUSH0 SWAP1 SLOAD SWAP1 PUSH2 0x100 EXP SWAP1 DIV PUSH20 0xFFFFFFFFFFFFFFFFFFFFFFFFFFFFFFFFFFFFFFFF AND SWAP8 POP PUSH1 0x1 SLOAD SWAP7 POP PUSH1 0x2 SLOAD SWAP6 POP PUSH1 0x3 SLOAD SWAP5 POP PUSH1 0x5 SLOAD SWAP4 POP PUSH1 0x4 PUSH0 SWAP1 SLOAD SWAP1 PUSH2 0x100 EXP SWAP1 DIV PUSH1 0xFF AND SWAP3 POP PUSH1 0x6 DUP1 SLOAD SWAP1 POP SWAP2 POP SELFBALANCE SWAP1 POP SWAP1 SWAP2 SWAP3 SWAP4 SWAP5 SWAP6 SWAP7 SWAP8 JUMP JUMPDEST PUSH1 0x7 PUSH1 0x20 MSTORE DUP1 PUSH0 MSTORE PUSH1 0x40 PUSH0 KECCAK256 PUSH0 SWAP2 POP SWAP1 POP SLOAD DUP2 JUMP JUMPDEST PUSH0 PUSH1 0x6 DUP1 SLOAD SWAP1 POP DUP4 LT PUSH2 0xDF3 JUMPI PUSH1 0x40 MLOAD PUSH32 0x8C379A000000000000000000000000000000000000000000000000000000000 DUP2 MSTORE PUSH1 0x4 ADD PUSH2 0xDEA SWAP1 PUSH2 0x1ED2 JUMP JUMPDEST PUSH1 0x40 MLOAD DUP1 SWAP2 SUB SWAP1 REVERT JUMPDEST PUSH1 0x6 DUP4 DUP2 SLOAD DUP2 LT PUSH2 0xE07 JUMPI PUSH2 0xE06 PUSH2 0x1EF0 JUMP JUMPDEST JUMPDEST SWAP1 PUSH0 MSTORE PUSH1 0x20 PUSH0 KECCAK256 SWAP1 PUSH1 0x6 MUL ADD PUSH1 0x5 ADD PUSH0 DUP4 PUSH20 0xFFFFFFFFFFFFFFFFFFFFFFFFFFFFFFFFFFFFFFFF AND PUSH20 0xFFFFFFFFFFFFFFFFFFFFFFFFFFFFFFFFFFFFFFFF AND DUP2 MSTORE PUSH1 0x20 ADD SWAP1 DUP2 MSTORE PUSH1 0x20 ADD PUSH0 KECCAK256 PUSH0 SWAP1 SLOAD SWAP1 PUSH2 0x100 EXP SWAP1 DIV PUSH1 0xFF AND SWAP1 POP SWAP3 SWAP2 POP POP JUMP JUMPDEST PUSH0 PUSH0 SWAP1 SLOAD SWAP1 PUSH2 0x100 EXP SWAP1 DIV PUSH20 0xFFFFFFFFFFFFFFFFFFFFFFFFFFFFFFFFFFFFFFFF AND DUP2 JUMP JUMPDEST PUSH1 0x6 DUP1 SLOAD SWAP1 POP DUP2 LT PUSH2 0xED1 JUMPI PUSH1 0x40 MLOAD PUSH32 0x8C379A000000000000000000000000000000000000000000000000000000000 DUP2 MSTORE PUSH1 0x4 ADD PUSH2 0xEC8 SWAP1 PUSH2 0x1ED2 JUMP JUMPDEST PUSH1 0x40 MLOAD DUP1 SWAP2 SUB SWAP1 REVERT JUMPDEST PUSH1 0x8 PUSH0 CALLER PUSH20 0xFFFFFFFFFFFFFFFFFFFFFFFFFFFFFFFFFFFFFFFF AND PUSH20 0xFFFFFFFFFFFFFFFFFFFFFFFFFFFFFFFFFFFFFFFF AND DUP2 MSTORE PUSH1 0x20 ADD SWAP1 DUP2 MSTORE PUSH1 0x20 ADD PUSH0 KECCAK256 PUSH0 SWAP1 SLOAD SWAP1 PUSH2 0x100 EXP SWAP1 DIV PUSH1 0xFF AND PUSH2 0xF5A JUMPI PUSH1 0x40 MLOAD PUSH32 0x8C379A000000000000000000000000000000000000000000000000000000000 DUP2 MSTORE PUSH1 0x4 ADD PUSH2 0xF51 SWAP1 PUSH2 0x2802 JUMP JUMPDEST PUSH1 0x40 MLOAD DUP1 SWAP2 SUB SWAP1 REVERT JUMPDEST PUSH0 PUSH1 0x6 DUP3 DUP2 SLOAD DUP2 LT PUSH2 0xF6F JUMPI PUSH2 0xF6E PUSH2 0x1EF0 JUMP JUMPDEST JUMPDEST SWAP1 PUSH0 MSTORE PUSH1 0x20 PUSH0 KECCAK256 SWAP1 PUSH1 0x6 MUL ADD SWAP1 POP DUP1 PUSH1 0x3 ADD PUSH0 SWAP1 SLOAD SWAP1 PUSH2 0x100 EXP SWAP1 DIV PUSH1 0xFF AND ISZERO PUSH2 0xFCE JUMPI PUSH1 0x40 MLOAD PUSH32 0x8C379A000000000000000000000000000000000000000000000000000000000 DUP2 MSTORE PUSH1 0x4 ADD PUSH2 0xFC5 SWAP1 PUSH2 0x286A JUMP JUMPDEST PUSH1 0x40 MLOAD DUP1 SWAP2 SUB SWAP1 REVERT JUMPDEST DUP1 PUSH1 0x5 ADD PUSH0 CALLER PUSH20 0xFFFFFFFFFFFFFFFFFFFFFFFFFFFFFFFFFFFFFFFF AND PUSH20 0xFFFFFFFFFFFFFFFFFFFFFFFFFFFFFFFFFFFFFFFF AND DUP2 MSTORE PUSH1 0x20 ADD SWAP1 DUP2 MSTORE PUSH1 0x20 ADD PUSH0 KECCAK256 PUSH0 SWAP1 SLOAD SWAP1 PUSH2 0x100 EXP SWAP1 DIV PUSH1 0xFF AND ISZERO PUSH2 0x105A JUMPI PUSH1 0x40 MLOAD PUSH32 0x8C379A000000000000000000000000000000000000000000000000000000000 DUP2 MSTORE PUSH1 0x4 ADD PUSH2 0x1051 SWAP1 PUSH2 0x28D2 JUMP JUMPDEST PUSH1 0x40 MLOAD DUP1 SWAP2 SUB SWAP1 REVERT JUMPDEST PUSH1 0x1 DUP2 PUSH1 0x5 ADD PUSH0 CALLER PUSH20 0xFFFFFFFFFFFFFFFFFFFFFFFFFFFFFFFFFFFFFFFF AND PUSH20 0xFFFFFFFFFFFFFFFFFFFFFFFFFFFFFFFFFFFFFFFF AND DUP2 MSTORE PUSH1 0x20 ADD SWAP1 DUP2 MSTORE PUSH1 0x20 ADD PUSH0 KECCAK256 PUSH0 PUSH2 0x100 EXP DUP2 SLOAD DUP2 PUSH1 0xFF MUL NOT AND SWAP1 DUP4 ISZERO ISZERO MUL OR SWAP1 SSTORE POP PUSH1 0x1 DUP2 PUSH1 0x4 ADD PUSH0 DUP3 DUP3 SLOAD PUSH2 0x10C5 SWAP2 SWAP1 PUSH2 0x19A1 JUMP JUMPDEST SWAP3 POP POP DUP2 SWAP1 SSTORE POP DUP2 CALLER PUSH20 0xFFFFFFFFFFFFFFFFFFFFFFFFFFFFFFFFFFFFFFFF AND PUSH32 0x4D99B957A2BC29A30EBD96A7BE8E68FE50A3C701DB28A91436490B7D53870CA4 PUSH1 0x40 MLOAD PUSH1 0x40 MLOAD DUP1 SWAP2 SUB SWAP1 LOG3 POP POP JUMP JUMPDEST PUSH1 0x1 PUSH1 0x9 SLOAD EQ PUSH2 0x1159 JUMPI PUSH1 0x40 MLOAD PUSH32 0x8C379A000000000000000000000000000000000000000000000000000000000 DUP2 MSTORE PUSH1 0x4 ADD PUSH2 0x1150 SWAP1 PUSH2 0x1E6A JUMP JUMPDEST PUSH1 0x40 MLOAD DUP1 SWAP2 SUB SWAP1 REVERT JUMPDEST PUSH0 PUSH1 0x9 DUP2 SWAP1 SSTORE POP PUSH1 0x2 SLOAD TIMESTAMP LT ISZERO PUSH2 0x11A5 JUMPI PUSH1 0x40 MLOAD PUSH32 0x8C379A000000000000000000000000000000000000000000000000000000000 DUP2 MSTORE PUSH1 0x4 ADD PUSH2 0x119C SWAP1 PUSH2 0x2960 JUMP JUMPDEST PUSH1 0x40 MLOAD DUP1 SWAP2 SUB SWAP1 REVERT JUMPDEST PUSH1 0x4 PUSH0 SWAP1 SLOAD SWAP1 PUSH2 0x100 EXP SWAP1 DIV PUSH1 0xFF AND ISZERO PUSH2 0x11F4 JUMPI PUSH1 0x40 MLOAD PUSH32 0x8C379A000000000000000000000000000000000000000000000000000000000 DUP2 MSTORE PUSH1 0x4 ADD PUSH2 0x11EB SWAP1 PUSH2 0x29EE JUMP JUMPDEST PUSH1 0x40 MLOAD DUP1 SWAP2 SUB SWAP1 REVERT JUMPDEST PUSH0 PUSH1 0x7 PUSH0 CALLER PUSH20 0xFFFFFFFFFFFFFFFFFFFFFFFFFFFFFFFFFFFFFFFF AND PUSH20 0xFFFFFFFFFFFFFFFFFFFFFFFFFFFFFFFFFFFFFFFF AND DUP2 MSTORE PUSH1 0x20 ADD SWAP1 DUP2 MSTORE PUSH1 0x20 ADD PUSH0 KECCAK256 SLOAD SWAP1 POP PUSH0 DUP2 GT PUSH2 0x1277 JUMPI PUSH1 0x40 MLOAD PUSH32 0x8C379A000000000000000000000000000000000000000000000000000000000 DUP2 MSTORE PUSH1 0x4 ADD PUSH2 0x126E SWAP1 PUSH2 0x2A56 JUMP JUMPDEST PUSH1 0x40 MLOAD DUP1 SWAP2 SUB SWAP1 REVERT JUMPDEST PUSH0 PUSH1 0x7 PUSH0 CALLER PUSH20 0xFFFFFFFFFFFFFFFFFFFFFFFFFFFFFFFFFFFFFFFF AND PUSH20 0xFFFFFFFFFFFFFFFFFFFFFFFFFFFFFFFFFFFFFFFF AND DUP2 MSTORE PUSH1 0x20 ADD SWAP1 DUP2 MSTORE PUSH1 0x20 ADD PUSH0 KECCAK256 DUP2 SWAP1 SSTORE POP PUSH0 PUSH1 0x8 PUSH0 CALLER PUSH20 0xFFFFFFFFFFFFFFFFFFFFFFFFFFFFFFFFFFFFFFFF AND PUSH20 0xFFFFFFFFFFFFFFFFFFFFFFFFFFFFFFFFFFFFFFFF AND DUP2 MSTORE PUSH1 0x20 ADD SWAP1 DUP2 MSTORE PUSH1 0x20 ADD PUSH0 KECCAK256 PUSH0 PUSH2 0x100 EXP DUP2 SLOAD DUP2 PUSH1 0xFF MUL NOT AND SWAP1 DUP4 ISZERO ISZERO MUL OR SWAP1 SSTORE POP PUSH0 PUSH1 0x5 SLOAD GT ISZERO PUSH2 0x1331 JUMPI PUSH1 0x1 PUSH1 0x5 PUSH0 DUP3 DUP3 SLOAD PUSH2 0x1329 SWAP2 SWAP1 PUSH2 0x270D JUMP JUMPDEST SWAP3 POP POP DUP2 SWAP1 SSTORE POP JUMPDEST PUSH0 CALLER PUSH20 0xFFFFFFFFFFFFFFFFFFFFFFFFFFFFFFFFFFFFFFFF AND DUP3 PUSH1 0x40 MLOAD PUSH2 0x1356 SWAP1 PUSH2 0x21DF JUMP JUMPDEST PUSH0 PUSH1 0x40 MLOAD DUP1 DUP4 SUB DUP2 DUP6 DUP8 GAS CALL SWAP3 POP POP POP RETURNDATASIZE DUP1 PUSH0 DUP2 EQ PUSH2 0x1390 JUMPI PUSH1 0x40 MLOAD SWAP2 POP PUSH1 0x1F NOT PUSH1 0x3F RETURNDATASIZE ADD AND DUP3 ADD PUSH1 0x40 MSTORE RETURNDATASIZE DUP3 MSTORE RETURNDATASIZE PUSH0 PUSH1 0x20 DUP5 ADD RETURNDATACOPY PUSH2 0x1395 JUMP JUMPDEST PUSH1 0x60 SWAP2 POP JUMPDEST POP POP SWAP1 POP DUP1 PUSH2 0x13D9 JUMPI PUSH1 0x40 MLOAD PUSH32 0x8C379A000000000000000000000000000000000000000000000000000000000 DUP2 MSTORE PUSH1 0x4 ADD PUSH2 0x13D0 SWAP1 PUSH2 0x2ABE JUMP JUMPDEST PUSH1 0x40 MLOAD DUP1 SWAP2 SUB SWAP1 REVERT JUMPDEST DUP2 PUSH1 0x3 PUSH0 DUP3 DUP3 SLOAD PUSH2 0x13EA SWAP2 SWAP1 PUSH2 0x270D JUMP JUMPDEST SWAP3 POP POP DUP2 SWAP1 SSTORE POP CALLER PUSH20 0xFFFFFFFFFFFFFFFFFFFFFFFFFFFFFFFFFFFFFFFF AND PUSH32 0xA171B6942063C6F2800CE40A780EDCE37BAA2B618571B11EEDD1E69E626E7D76 DUP4 PUSH1 0x40 MLOAD PUSH2 0x1437 SWAP2 SWAP1 PUSH2 0x19E3 JUMP JUMPDEST PUSH1 0x40 MLOAD DUP1 SWAP2 SUB SWAP1 LOG2 POP POP PUSH1 0x1 PUSH1 0x9 DUP2 SWAP1 SSTORE POP JUMP JUMPDEST PUSH1 0x5 SLOAD DUP2 JUMP JUMPDEST PUSH1 0x4 PUSH0 SWAP1 SLOAD SWAP1 PUSH2 0x100 EXP SWAP1 DIV PUSH1 0xFF AND DUP2 JUMP JUMPDEST PUSH1 0x60 PUSH0 PUSH0 PUSH0 PUSH0 PUSH1 0x6 DUP1 SLOAD SWAP1 POP DUP7 LT PUSH2 0x14B0 JUMPI PUSH1 0x40 MLOAD PUSH32 0x8C379A000000000000000000000000000000000000000000000000000000000 DUP2 MSTORE PUSH1 0x4 ADD PUSH2 0x14A7 SWAP1 PUSH2 0x1ED2 JUMP JUMPDEST PUSH1 0x40 MLOAD DUP1 SWAP2 SUB SWAP1 REVERT JUMPDEST PUSH0 PUSH1 0x6 DUP8 DUP2 SLOAD DUP2 LT PUSH2 0x14C5 JUMPI PUSH2 0x14C4 PUSH2 0x1EF0 JUMP JUMPDEST JUMPDEST SWAP1 PUSH0 MSTORE PUSH1 0x20 PUSH0 KECCAK256 SWAP1 PUSH1 0x6 MUL ADD SWAP1 POP DUP1 PUSH0 ADD DUP1 SLOAD PUSH2 0x14E1 SWAP1 PUSH2 0x2479 JUMP JUMPDEST DUP1 PUSH1 0x1F ADD PUSH1 0x20 DUP1 SWAP2 DIV MUL PUSH1 0x20 ADD PUSH1 0x40 MLOAD SWAP1 DUP2 ADD PUSH1 0x40 MSTORE DUP1 SWAP3 SWAP2 SWAP1 DUP2 DUP2 MSTORE PUSH1 0x20 ADD DUP3 DUP1 SLOAD PUSH2 0x150D SWAP1 PUSH2 0x2479 JUMP JUMPDEST DUP1 ISZERO PUSH2 0x1558 JUMPI DUP1 PUSH1 0x1F LT PUSH2 0x152F JUMPI PUSH2 0x100 DUP1 DUP4 SLOAD DIV MUL DUP4 MSTORE SWAP2 PUSH1 0x20 ADD SWAP2 PUSH2 0x1558 JUMP JUMPDEST DUP3 ADD SWAP2 SWAP1 PUSH0 MSTORE PUSH1 0x20 PUSH0 KECCAK256 SWAP1 JUMPDEST DUP2 SLOAD DUP2 MSTORE SWAP1 PUSH1 0x1 ADD SWAP1 PUSH1 0x20 ADD DUP1 DUP4 GT PUSH2 0x153B JUMPI DUP3 SWAP1 SUB PUSH1 0x1F AND DUP3 ADD SWAP2 JUMPDEST POP POP POP POP POP SWAP6 POP DUP1 PUSH1 0x1 ADD PUSH0 SWAP1 SLOAD SWAP1 PUSH2 0x100 EXP SWAP1 DIV PUSH20 0xFFFFFFFFFFFFFFFFFFFFFFFFFFFFFFFFFFFFFFFF AND SWAP5 POP DUP1 PUSH1 0x2 ADD SLOAD SWAP4 POP DUP1 PUSH1 0x3 ADD PUSH0 SWAP1 SLOAD SWAP1 PUSH2 0x100 EXP SWAP1 DIV PUSH1 0xFF AND SWAP3 POP DUP1 PUSH1 0x4 ADD SLOAD SWAP2 POP POP SWAP2 SWAP4 SWAP6 SWAP1 SWAP3 SWAP5 POP JUMP JUMPDEST PUSH1 0x3 SLOAD DUP2 JUMP JUMPDEST PUSH1 0x1 SLOAD DUP2 JUMP JUMPDEST PUSH1 0x2 SLOAD TIMESTAMP LT PUSH2 0x1600 JUMPI PUSH1 0x40 MLOAD PUSH32 0x8C379A000000000000000000000000000000000000000000000000000000000 DUP2 MSTORE PUSH1 0x4 ADD PUSH2 0x15F7 SWAP1 PUSH2 0x2B4C JUMP JUMPDEST PUSH1 0x40 MLOAD DUP1 SWAP2 SUB SWAP1 REVERT JUMPDEST PUSH1 0x1 PUSH1 0x9 SLOAD EQ PUSH2 0x1645 JUMPI PUSH1 0x40 MLOAD PUSH32 0x8C379A000000000000000000000000000000000000000000000000000000000 DUP2 MSTORE PUSH1 0x4 ADD PUSH2 0x163C SWAP1 PUSH2 0x1E6A JUMP JUMPDEST PUSH1 0x40 MLOAD DUP1 SWAP2 SUB SWAP1 REVERT JUMPDEST PUSH0 PUSH1 0x9 DUP2 SWAP1 SSTORE POP PUSH0 CALLVALUE GT PUSH2 0x168E JUMPI PUSH1 0x40 MLOAD PUSH32 0x8C379A000000000000000000000000000000000000000000000000000000000 DUP2 MSTORE PUSH1 0x4 ADD PUSH2 0x1685 SWAP1 PUSH2 0x2BB4 JUMP JUMPDEST PUSH1 0x40 MLOAD DUP1 SWAP2 SUB SWAP1 REVERT JUMPDEST PUSH1 0x8 PUSH0 CALLER PUSH20 0xFFFFFFFFFFFFFFFFFFFFFFFFFFFFFFFFFFFFFFFF AND PUSH20 0xFFFFFFFFFFFFFFFFFFFFFFFFFFFFFFFFFFFFFFFF AND DUP2 MSTORE PUSH1 0x20 ADD SWAP1 DUP2 MSTORE PUSH1 0x20 ADD PUSH0 KECCAK256 PUSH0 SWAP1 SLOAD SWAP1 PUSH2 0x100 EXP SWAP1 DIV PUSH1 0xFF AND PUSH2 0x174B JUMPI PUSH1 0x1 PUSH1 0x8 PUSH0 CALLER PUSH20 0xFFFFFFFFFFFFFFFFFFFFFFFFFFFFFFFFFFFFFFFF AND PUSH20 0xFFFFFFFFFFFFFFFFFFFFFFFFFFFFFFFFFFFFFFFF AND DUP2 MSTORE PUSH1 0x20 ADD SWAP1 DUP2 MSTORE PUSH1 0x20 ADD PUSH0 KECCAK256 PUSH0 PUSH2 0x100 EXP DUP2 SLOAD DUP2 PUSH1 0xFF MUL NOT AND SWAP1 DUP4 ISZERO ISZERO MUL OR SWAP1 SSTORE POP PUSH1 0x1 PUSH1 0x5 PUSH0 DUP3 DUP3 SLOAD PUSH2 0x1743 SWAP2 SWAP1 PUSH2 0x19A1 JUMP JUMPDEST SWAP3 POP POP DUP2 SWAP1 SSTORE POP JUMPDEST CALLVALUE PUSH1 0x7 PUSH0 CALLER PUSH20 0xFFFFFFFFFFFFFFFFFFFFFFFFFFFFFFFFFFFFFFFF AND PUSH20 0xFFFFFFFFFFFFFFFFFFFFFFFFFFFFFFFFFFFFFFFF AND DUP2 MSTORE PUSH1 0x20 ADD SWAP1 DUP2 MSTORE PUSH1 0x20 ADD PUSH0 KECCAK256 PUSH0 DUP3 DUP3 SLOAD PUSH2 0x1797 SWAP2 SWAP1 PUSH2 0x19A1 JUMP JUMPDEST SWAP3 POP POP DUP2 SWAP1 SSTORE POP CALLVALUE PUSH1 0x3 PUSH0 DUP3 DUP3 SLOAD PUSH2 0x17AF SWAP2 SWAP1 PUSH2 0x19A1 JUMP JUMPDEST SWAP3 POP POP DUP2 SWAP1 SSTORE POP PUSH1 0x4 PUSH0 SWAP1 SLOAD SWAP1 PUSH2 0x100 EXP SWAP1 DIV PUSH1 0xFF AND ISZERO DUP1 ISZERO PUSH2 0x17D6 JUMPI POP PUSH1 0x1 SLOAD PUSH1 0x3 SLOAD LT ISZERO JUMPDEST ISZERO PUSH2 0x182F JUMPI PUSH1 0x1 PUSH1 0x4 PUSH0 PUSH2 0x100 EXP DUP2 SLOAD DUP2 PUSH1 0xFF MUL NOT AND SWAP1 DUP4 ISZERO ISZERO MUL OR SWAP1 SSTORE POP PUSH32 0xFBFD8AB7C24300FA9888CD721C8565A7DA56759384781283684DCF7C7C4A846B PUSH1 0x3 SLOAD PUSH1 0x40 MLOAD PUSH2 0x1826 SWAP2 SWAP1 PUSH2 0x19E3 JUMP JUMPDEST PUSH1 0x40 MLOAD DUP1 SWAP2 SUB SWAP1 LOG1 JUMPDEST CALLER PUSH20 0xFFFFFFFFFFFFFFFFFFFFFFFFFFFFFFFFFFFFFFFF AND PUSH32 0x1BB460CCAAF70FBACFEC17A376F8ACBD278C1405590FFCC8EBE4B88DAF4F64AD CALLVALUE PUSH1 0x40 MLOAD PUSH2 0x1875 SWAP2 SWAP1 PUSH2 0x19E3 JUMP JUMPDEST PUSH1 0x40 MLOAD DUP1 SWAP2 SUB SWAP1 LOG2 PUSH1 0x1 PUSH1 0x9 DUP2 SWAP1 SSTORE POP JUMP JUMPDEST PUSH0 PUSH1 0x7 PUSH0 DUP4 PUSH20 0xFFFFFFFFFFFFFFFFFFFFFFFFFFFFFFFFFFFFFFFF AND PUSH20 0xFFFFFFFFFFFFFFFFFFFFFFFFFFFFFFFFFFFFFFFF AND DUP2 MSTORE PUSH1 0x20 ADD SWAP1 DUP2 MSTORE PUSH1 0x20 ADD PUSH0 KECCAK256 SLOAD SWAP1 POP SWAP2 SWAP1 POP JUMP JUMPDEST PUSH0 DUP3 DUP3 MSTORE PUSH1 0x20 DUP3 ADD SWAP1 POP SWAP3 SWAP2 POP POP JUMP JUMPDEST PUSH32 0x446561646C696E65207061737365643B2063616E6E6F74206163636570742064 PUSH0 DUP3 ADD MSTORE PUSH32 0x697265637420636F6E747269627574696F6E7300000000000000000000000000 PUSH1 0x20 DUP3 ADD MSTORE POP JUMP JUMPDEST PUSH0 PUSH2 0x1937 PUSH1 0x33 DUP4 PUSH2 0x18CD JUMP JUMPDEST SWAP2 POP PUSH2 0x1942 DUP3 PUSH2 0x18DD JUMP JUMPDEST PUSH1 0x40 DUP3 ADD SWAP1 POP SWAP2 SWAP1 POP JUMP JUMPDEST PUSH0 PUSH1 0x20 DUP3 ADD SWAP1 POP DUP2 DUP2 SUB PUSH0 DUP4 ADD MSTORE PUSH2 0x1964 DUP2 PUSH2 0x192B JUMP JUMPDEST SWAP1 POP SWAP2 SWAP1 POP JUMP JUMPDEST PUSH0 DUP2 SWAP1 POP SWAP2 SWAP1 POP JUMP JUMPDEST PUSH32 0x4E487B7100000000000000000000000000000000000000000000000000000000 PUSH0 MSTORE PUSH1 0x11 PUSH1 0x4 MSTORE PUSH1 0x24 PUSH0 REVERT JUMPDEST PUSH0 PUSH2 0x19AB DUP3 PUSH2 0x196B JUMP JUMPDEST SWAP2 POP PUSH2 0x19B6 DUP4 PUSH2 0x196B JUMP JUMPDEST SWAP3 POP DUP3 DUP3 ADD SWAP1 POP DUP1 DUP3 GT ISZERO PUSH2 0x19CE JUMPI PUSH2 0x19CD PUSH2 0x1974 JUMP JUMPDEST JUMPDEST SWAP3 SWAP2 POP POP JUMP JUMPDEST PUSH2 0x19DD DUP2 PUSH2 0x196B JUMP JUMPDEST DUP3 MSTORE POP POP JUMP JUMPDEST PUSH0 PUSH1 0x20 DUP3 ADD SWAP1 POP PUSH2 0x19F6 PUSH0 DUP4 ADD DUP5 PUSH2 0x19D4 JUMP JUMPDEST SWAP3 SWAP2 POP POP JUMP JUMPDEST PUSH0 PUSH0 REVERT JUMPDEST PUSH0 PUSH0 REVERT JUMPDEST PUSH2 0x1A0D DUP2 PUSH2 0x196B JUMP JUMPDEST DUP2 EQ PUSH2 0x1A17 JUMPI PUSH0 PUSH0 REVERT JUMPDEST POP JUMP JUMPDEST PUSH0 DUP2 CALLDATALOAD SWAP1 POP PUSH2 0x1A28 DUP2 PUSH2 0x1A04 JUMP JUMPDEST SWAP3 SWAP2 POP POP JUMP JUMPDEST PUSH0 PUSH1 0x20 DUP3 DUP5 SUB SLT ISZERO PUSH2 0x1A43 JUMPI PUSH2 0x1A42 PUSH2 0x19FC JUMP JUMPDEST JUMPDEST PUSH0 PUSH2 0x1A50 DUP5 DUP3 DUP6 ADD PUSH2 0x1A1A JUMP JUMPDEST SWAP2 POP POP SWAP3 SWAP2 POP POP JUMP JUMPDEST PUSH0 PUSH0 REVERT JUMPDEST PUSH0 PUSH0 REVERT JUMPDEST PUSH0 PUSH0 REVERT JUMPDEST PUSH0 PUSH0 DUP4 PUSH1 0x1F DUP5 ADD SLT PUSH2 0x1A7A JUMPI PUSH2 0x1A79 PUSH2 0x1A59 JUMP JUMPDEST JUMPDEST DUP3 CALLDATALOAD SWAP1 POP PUSH8 0xFFFFFFFFFFFFFFFF DUP2 GT ISZERO PUSH2 0x1A97 JUMPI PUSH2 0x1A96 PUSH2 0x1A5D JUMP JUMPDEST JUMPDEST PUSH1 0x20 DUP4 ADD SWAP2 POP DUP4 PUSH1 0x1 DUP3 MUL DUP4 ADD GT ISZERO PUSH2 0x1AB3 JUMPI PUSH2 0x1AB2 PUSH2 0x1A61 JUMP JUMPDEST JUMPDEST SWAP3 POP SWAP3 SWAP1 POP JUMP JUMPDEST PUSH0 PUSH20 0xFFFFFFFFFFFFFFFFFFFFFFFFFFFFFFFFFFFFFFFF DUP3 AND SWAP1 POP SWAP2 SWAP1 POP JUMP JUMPDEST PUSH0 PUSH2 0x1AE3 DUP3 PUSH2 0x1ABA JUMP JUMPDEST SWAP1 POP SWAP2 SWAP1 POP JUMP JUMPDEST PUSH2 0x1AF3 DUP2 PUSH2 0x1AD9 JUMP JUMPDEST DUP2 EQ PUSH2 0x1AFD JUMPI PUSH0 PUSH0 REVERT JUMPDEST POP JUMP JUMPDEST PUSH0 DUP2 CALLDATALOAD SWAP1 POP PUSH2 0x1B0E DUP2 PUSH2 0x1AEA JUMP JUMPDEST SWAP3 SWAP2 POP POP JUMP JUMPDEST PUSH0 PUSH0 PUSH0 PUSH0 PUSH1 0x60 DUP6 DUP8 SUB SLT ISZERO PUSH2 0x1B2C JUMPI PUSH2 0x1B2B PUSH2 0x19FC JUMP JUMPDEST JUMPDEST PUSH0 DUP6 ADD CALLDATALOAD PUSH8 0xFFFFFFFFFFFFFFFF DUP2 GT ISZERO PUSH2 0x1B49 JUMPI PUSH2 0x1B48 PUSH2 0x1A00 JUMP JUMPDEST JUMPDEST PUSH2 0x1B55 DUP8 DUP3 DUP9 ADD PUSH2 0x1A65 JUMP JUMPDEST SWAP5 POP SWAP5 POP POP PUSH1 0x20 PUSH2 0x1B68 DUP8 DUP3 DUP9 ADD PUSH2 0x1B00 JUMP JUMPDEST SWAP3 POP POP PUSH1 0x40 PUSH2 0x1B79 DUP8 DUP3 DUP9 ADD PUSH2 0x1A1A JUMP JUMPDEST SWAP2 POP POP SWAP3 SWAP6 SWAP2 SWAP5 POP SWAP3 POP JUMP JUMPDEST PUSH0 PUSH2 0x1B8F DUP3 PUSH2 0x1ABA JUMP JUMPDEST SWAP1 POP SWAP2 SWAP1 POP JUMP JUMPDEST PUSH2 0x1B9F DUP2 PUSH2 0x1B85 JUMP JUMPDEST DUP2 EQ PUSH2 0x1BA9 JUMPI PUSH0 PUSH0 REVERT JUMPDEST POP JUMP JUMPDEST PUSH0 DUP2 CALLDATALOAD SWAP1 POP PUSH2 0x1BBA DUP2 PUSH2 0x1B96 JUMP JUMPDEST SWAP3 SWAP2 POP POP JUMP JUMPDEST PUSH0 PUSH1 0x20 DUP3 DUP5 SUB SLT ISZERO PUSH2 0x1BD5 JUMPI PUSH2 0x1BD4 PUSH2 0x19FC JUMP JUMPDEST JUMPDEST PUSH0 PUSH2 0x1BE2 DUP5 DUP3 DUP6 ADD PUSH2 0x1BAC JUMP JUMPDEST SWAP2 POP POP SWAP3 SWAP2 POP POP JUMP JUMPDEST PUSH0 DUP2 ISZERO ISZERO SWAP1 POP SWAP2 SWAP1 POP JUMP JUMPDEST PUSH2 0x1BFF DUP2 PUSH2 0x1BEB JUMP JUMPDEST DUP3 MSTORE POP POP JUMP JUMPDEST PUSH0 PUSH1 0x20 DUP3 ADD SWAP1 POP PUSH2 0x1C18 PUSH0 DUP4 ADD DUP5 PUSH2 0x1BF6 JUMP JUMPDEST SWAP3 SWAP2 POP POP JUMP JUMPDEST PUSH2 0x1C27 DUP2 PUSH2 0x1B85 JUMP JUMPDEST DUP3 MSTORE POP POP JUMP JUMPDEST PUSH0 PUSH2 0x100 DUP3 ADD SWAP1 POP PUSH2 0x1C41 PUSH0 DUP4 ADD DUP12 PUSH2 0x1C1E JUMP JUMPDEST PUSH2 0x1C4E PUSH1 0x20 DUP4 ADD DUP11 PUSH2 0x19D4 JUMP JUMPDEST PUSH2 0x1C5B PUSH1 0x40 DUP4 ADD DUP10 PUSH2 0x19D4 JUMP JUMPDEST PUSH2 0x1C68 PUSH1 0x60 DUP4 ADD DUP9 PUSH2 0x19D4 JUMP JUMPDEST PUSH2 0x1C75 PUSH1 0x80 DUP4 ADD DUP8 PUSH2 0x19D4 JUMP JUMPDEST PUSH2 0x1C82 PUSH1 0xA0 DUP4 ADD DUP7 PUSH2 0x1BF6 JUMP JUMPDEST PUSH2 0x1C8F PUSH1 0xC0 DUP4 ADD DUP6 PUSH2 0x19D4 JUMP JUMPDEST PUSH2 0x1C9C PUSH1 0xE0 DUP4 ADD DUP5 PUSH2 0x19D4 JUMP JUMPDEST SWAP10 SWAP9 POP POP POP POP POP POP POP POP POP JUMP JUMPDEST PUSH0 PUSH0 PUSH1 0x40 DUP4 DUP6 SUB SLT ISZERO PUSH2 0x1CBF JUMPI PUSH2 0x1CBE PUSH2 0x19FC JUMP JUMPDEST JUMPDEST PUSH0 PUSH2 0x1CCC DUP6 DUP3 DUP7 ADD PUSH2 0x1A1A JUMP JUMPDEST SWAP3 POP POP PUSH1 0x20 PUSH2 0x1CDD DUP6 DUP3 DUP7 ADD PUSH2 0x1BAC JUMP JUMPDEST SWAP2 POP POP SWAP3 POP SWAP3 SWAP1 POP JUMP JUMPDEST PUSH0 PUSH1 0x20 DUP3 ADD SWAP1 POP PUSH2 0x1CFA PUSH0 DUP4 ADD DUP5 PUSH2 0x1C1E JUMP JUMPDEST SWAP3 SWAP2 POP POP JUMP JUMPDEST PUSH0 DUP2 MLOAD SWAP1 POP SWAP2 SWAP1 POP JUMP JUMPDEST DUP3 DUP2 DUP4 MCOPY PUSH0 DUP4 DUP4 ADD MSTORE POP POP POP JUMP JUMPDEST PUSH0 PUSH1 0x1F NOT PUSH1 0x1F DUP4 ADD AND SWAP1 POP SWAP2 SWAP1 POP JUMP JUMPDEST PUSH0 PUSH2 0x1D32 DUP3 PUSH2 0x1D00 JUMP JUMPDEST PUSH2 0x1D3C DUP2 DUP6 PUSH2 0x18CD JUMP JUMPDEST SWAP4 POP PUSH2 0x1D4C DUP2 DUP6 PUSH1 0x20 DUP7 ADD PUSH2 0x1D0A JUMP JUMPDEST PUSH2 0x1D55 DUP2 PUSH2 0x1D18 JUMP JUMPDEST DUP5 ADD SWAP2 POP POP SWAP3 SWAP2 POP POP JUMP JUMPDEST PUSH0 PUSH1 0xA0 DUP3 ADD SWAP1 POP DUP2 DUP2 SUB PUSH0 DUP4 ADD MSTORE PUSH2 0x1D78 DUP2 DUP9 PUSH2 0x1D28 JUMP JUMPDEST SWAP1 POP PUSH2 0x1D87 PUSH1 0x20 DUP4 ADD DUP8 PUSH2 0x1C1E JUMP JUMPDEST PUSH2 0x1D94 PUSH1 0x40 DUP4 ADD DUP7 PUSH2 0x19D4 JUMP JUMPDEST PUSH2 0x1DA1 PUSH1 0x60 DUP4 ADD DUP6 PUSH2 0x1BF6 JUMP JUMPDEST PUSH2 0x1DAE PUSH1 0x80 DUP4 ADD DUP5 PUSH2 0x19D4 JUMP JUMPDEST SWAP7 SWAP6 POP POP POP POP POP POP JUMP JUMPDEST PUSH32 0x4F6E6C79206D616E616765720000000000000000000000000000000000000000 PUSH0 DUP3 ADD MSTORE POP JUMP JUMPDEST PUSH0 PUSH2 0x1DEC PUSH1 0xC DUP4 PUSH2 0x18CD JUMP JUMPDEST SWAP2 POP PUSH2 0x1DF7 DUP3 PUSH2 0x1DB8 JUMP JUMPDEST PUSH1 0x20 DUP3 ADD SWAP1 POP SWAP2 SWAP1 POP JUMP JUMPDEST PUSH0 PUSH1 0x20 DUP3 ADD SWAP1 POP DUP2 DUP2 SUB PUSH0 DUP4 ADD MSTORE PUSH2 0x1E19 DUP2 PUSH2 0x1DE0 JUMP JUMPDEST SWAP1 POP SWAP2 SWAP1 POP JUMP JUMPDEST PUSH32 0x5265656E7472616E742063616C6C000000000000000000000000000000000000 PUSH0 DUP3 ADD MSTORE POP JUMP JUMPDEST PUSH0 PUSH2 0x1E54 PUSH1 0xE DUP4 PUSH2 0x18CD JUMP JUMPDEST SWAP2 POP PUSH2 0x1E5F DUP3 PUSH2 0x1E20 JUMP JUMPDEST PUSH1 0x20 DUP3 ADD SWAP1 POP SWAP2 SWAP1 POP JUMP JUMPDEST PUSH0 PUSH1 0x20 DUP3 ADD SWAP1 POP DUP2 DUP2 SUB PUSH0 DUP4 ADD MSTORE PUSH2 0x1E81 DUP2 PUSH2 0x1E48 JUMP JUMPDEST SWAP1 POP SWAP2 SWAP1 POP JUMP JUMPDEST PUSH32 0x496E76616C696420726571756573742069640000000000000000000000000000 PUSH0 DUP3 ADD MSTORE POP JUMP JUMPDEST PUSH0 PUSH2 0x1EBC PUSH1 0x12 DUP4 PUSH2 0x18CD JUMP JUMPDEST SWAP2 POP PUSH2 0x1EC7 DUP3 PUSH2 0x1E88 JUMP JUMPDEST PUSH1 0x20 DUP3 ADD SWAP1 POP SWAP2 SWAP1 POP JUMP JUMPDEST PUSH0 PUSH1 0x20 DUP3 ADD SWAP1 POP DUP2 DUP2 SUB PUSH0 DUP4 ADD MSTORE PUSH2 0x1EE9 DUP2 PUSH2 0x1EB0 JUMP JUMPDEST SWAP1 POP SWAP2 SWAP1 POP JUMP JUMPDEST PUSH32 0x4E487B7100000000000000000000000000000000000000000000000000000000 PUSH0 MSTORE PUSH1 0x32 PUSH1 0x4 MSTORE PUSH1 0x24 PUSH0 REVERT JUMPDEST PUSH32 0x416C726561647920636F6D706C65746564000000000000000000000000000000 PUSH0 DUP3 ADD MSTORE POP JUMP JUMPDEST PUSH0 PUSH2 0x1F51 PUSH1 0x11 DUP4 PUSH2 0x18CD JUMP JUMPDEST SWAP2 POP PUSH2 0x1F5C DUP3 PUSH2 0x1F1D JUMP JUMPDEST PUSH1 0x20 DUP3 ADD SWAP1 POP SWAP2 SWAP1 POP JUMP JUMPDEST PUSH0 PUSH1 0x20 DUP3 ADD SWAP1 POP DUP2 DUP2 SUB PUSH0 DUP4 ADD MSTORE PUSH2 0x1F7E DUP2 PUSH2 0x1F45 JUMP JUMPDEST SWAP1 POP SWAP2 SWAP1 POP JUMP JUMPDEST PUSH32 0x46756E64696E6720676F616C206E6F7420726561636865643B2063616E6E6F74 PUSH0 DUP3 ADD MSTORE PUSH32 0x2064697362757273650000000000000000000000000000000000000000000000 PUSH1 0x20 DUP3 ADD MSTORE POP JUMP JUMPDEST PUSH0 PUSH2 0x1FDF PUSH1 0x29 DUP4 PUSH2 0x18CD JUMP JUMPDEST SWAP2 POP PUSH2 0x1FEA DUP3 PUSH2 0x1F85 JUMP JUMPDEST PUSH1 0x40 DUP3 ADD SWAP1 POP SWAP2 SWAP1 POP JUMP JUMPDEST PUSH0 PUSH1 0x20 DUP3 ADD SWAP1 POP DUP2 DUP2 SUB PUSH0 DUP4 ADD MSTORE PUSH2 0x200C DUP2 PUSH2 0x1FD3 JUMP JUMPDEST SWAP1 POP SWAP2 SWAP1 POP JUMP JUMPDEST PUSH32 0x496E73756666696369656E7420636F6E74726163742062616C616E6365000000 PUSH0 DUP3 ADD MSTORE POP JUMP JUMPDEST PUSH0 PUSH2 0x2047 PUSH1 0x1D DUP4 PUSH2 0x18CD JUMP JUMPDEST SWAP2 POP PUSH2 0x2052 DUP3 PUSH2 0x2013 JUMP JUMPDEST PUSH1 0x20 DUP3 ADD SWAP1 POP SWAP2 SWAP1 POP JUMP JUMPDEST PUSH0 PUSH1 0x20 DUP3 ADD SWAP1 POP DUP2 DUP2 SUB PUSH0 DUP4 ADD MSTORE PUSH2 0x2074 DUP2 PUSH2 0x203B JUMP JUMPDEST SWAP1 POP SWAP2 SWAP1 POP JUMP JUMPDEST PUSH32 0x4E6F20636F6E7472696275746F72732070726573656E74000000000000000000 PUSH0 DUP3 ADD MSTORE POP JUMP JUMPDEST PUSH0 PUSH2 0x20AF PUSH1 0x17 DUP4 PUSH2 0x18CD JUMP JUMPDEST SWAP2 POP PUSH2 0x20BA DUP3 PUSH2 0x207B JUMP JUMPDEST PUSH1 0x20 DUP3 ADD SWAP1 POP SWAP2 SWAP1 POP JUMP JUMPDEST PUSH0 PUSH1 0x20 DUP3 ADD SWAP1 POP DUP2 DUP2 SUB PUSH0 DUP4 ADD MSTORE PUSH2 0x20DC DUP2 PUSH2 0x20A3 JUMP JUMPDEST SWAP1 POP SWAP2 SWAP1 POP JUMP JUMPDEST PUSH0 PUSH2 0x20ED DUP3 PUSH2 0x196B JUMP JUMPDEST SWAP2 POP PUSH2 0x20F8 DUP4 PUSH2 0x196B JUMP JUMPDEST SWAP3 POP DUP3 DUP3 MUL PUSH2 0x2106 DUP2 PUSH2 0x196B JUMP JUMPDEST SWAP2 POP DUP3 DUP3 DIV DUP5 EQ DUP4 ISZERO OR PUSH2 0x211D JUMPI PUSH2 0x211C PUSH2 0x1974 JUMP JUMPDEST JUMPDEST POP SWAP3 SWAP2 POP POP JUMP JUMPDEST PUSH32 0x4E6F7420656E6F75676820766F74657320286D616A6F72697479207265717569 PUSH0 DUP3 ADD MSTORE PUSH32 0x7265642900000000000000000000000000000000000000000000000000000000 PUSH1 0x20 DUP3 ADD MSTORE POP JUMP JUMPDEST PUSH0 PUSH2 0x217E PUSH1 0x24 DUP4 PUSH2 0x18CD JUMP JUMPDEST SWAP2 POP PUSH2 0x2189 DUP3 PUSH2 0x2124 JUMP JUMPDEST PUSH1 0x40 DUP3 ADD SWAP1 POP SWAP2 SWAP1 POP JUMP JUMPDEST PUSH0 PUSH1 0x20 DUP3 ADD SWAP1 POP DUP2 DUP2 SUB PUSH0 DUP4 ADD MSTORE PUSH2 0x21AB DUP2 PUSH2 0x2172 JUMP JUMPDEST SWAP1 POP SWAP2 SWAP1 POP JUMP JUMPDEST PUSH0 DUP2 SWAP1 POP SWAP3 SWAP2 POP POP JUMP JUMPDEST POP JUMP JUMPDEST PUSH0 PUSH2 0x21CA PUSH0 DUP4 PUSH2 0x21B2 JUMP JUMPDEST SWAP2 POP PUSH2 0x21D5 DUP3 PUSH2 0x21BC JUMP JUMPDEST PUSH0 DUP3 ADD SWAP1 POP SWAP2 SWAP1 POP JUMP JUMPDEST PUSH0 PUSH2 0x21E9 DUP3 PUSH2 0x21BF JUMP JUMPDEST SWAP2 POP DUP2 SWAP1 POP SWAP2 SWAP1 POP JUMP JUMPDEST PUSH32 0x5472616E73666572206661696C65640000000000000000000000000000000000 PUSH0 DUP3 ADD MSTORE POP JUMP JUMPDEST PUSH0 PUSH2 0x2227 PUSH1 0xF DUP4 PUSH2 0x18CD JUMP JUMPDEST SWAP2 POP PUSH2 0x2232 DUP3 PUSH2 0x21F3 JUMP JUMPDEST PUSH1 0x20 DUP3 ADD SWAP1 POP SWAP2 SWAP1 POP JUMP JUMPDEST PUSH0 PUSH1 0x20 DUP3 ADD SWAP1 POP DUP2 DUP2 SUB PUSH0 DUP4 ADD MSTORE PUSH2 0x2254 DUP2 PUSH2 0x221B JUMP JUMPDEST SWAP1 POP SWAP2 SWAP1 POP JUMP JUMPDEST PUSH0 DUP2 SWAP1 POP SWAP2 SWAP1 POP JUMP JUMPDEST PUSH0 PUSH2 0x227E PUSH2 0x2279 PUSH2 0x2274 DUP5 PUSH2 0x1ABA JUMP JUMPDEST PUSH2 0x225B JUMP JUMPDEST PUSH2 0x1ABA JUMP JUMPDEST SWAP1 POP SWAP2 SWAP1 POP JUMP JUMPDEST PUSH0 PUSH2 0x228F DUP3 PUSH2 0x2264 JUMP JUMPDEST SWAP1 POP SWAP2 SWAP1 POP JUMP JUMPDEST PUSH0 PUSH2 0x22A0 DUP3 PUSH2 0x2285 JUMP JUMPDEST SWAP1 POP SWAP2 SWAP1 POP JUMP JUMPDEST PUSH2 0x22B0 DUP2 PUSH2 0x2296 JUMP JUMPDEST DUP3 MSTORE POP POP JUMP JUMPDEST PUSH0 PUSH1 0x40 DUP3 ADD SWAP1 POP PUSH2 0x22C9 PUSH0 DUP4 ADD DUP6 PUSH2 0x22A7 JUMP JUMPDEST PUSH2 0x22D6 PUSH1 0x20 DUP4 ADD DUP5 PUSH2 0x19D4 JUMP JUMPDEST SWAP4 SWAP3 POP POP POP JUMP JUMPDEST PUSH32 0x496E76616C696420726563697069656E74000000000000000000000000000000 PUSH0 DUP3 ADD MSTORE POP JUMP JUMPDEST PUSH0 PUSH2 0x2311 PUSH1 0x11 DUP4 PUSH2 0x18CD JUMP JUMPDEST SWAP2 POP PUSH2 0x231C DUP3 PUSH2 0x22DD JUMP JUMPDEST PUSH1 0x20 DUP3 ADD SWAP1 POP SWAP2 SWAP1 POP JUMP JUMPDEST PUSH0 PUSH1 0x20 DUP3 ADD SWAP1 POP DUP2 DUP2 SUB PUSH0 DUP4 ADD MSTORE PUSH2 0x233E DUP2 PUSH2 0x2305 JUMP JUMPDEST SWAP1 POP SWAP2 SWAP1 POP JUMP JUMPDEST PUSH32 0x4465736372697074696F6E207265717569726564000000000000000000000000 PUSH0 DUP3 ADD MSTORE POP JUMP JUMPDEST PUSH0 PUSH2 0x2379 PUSH1 0x14 DUP4 PUSH2 0x18CD JUMP JUMPDEST SWAP2 POP PUSH2 0x2384 DUP3 PUSH2 0x2345 JUMP JUMPDEST PUSH1 0x20 DUP3 ADD SWAP1 POP SWAP2 SWAP1 POP JUMP JUMPDEST PUSH0 PUSH1 0x20 DUP3 ADD SWAP1 POP DUP2 DUP2 SUB PUSH0 DUP4 ADD MSTORE PUSH2 0x23A6 DUP2 PUSH2 0x236D JUMP JUMPDEST SWAP1 POP SWAP2 SWAP1 POP JUMP JUMPDEST PUSH32 0x56616C7565203E20302072657175697265640000000000000000000000000000 PUSH0 DUP3 ADD MSTORE POP JUMP JUMPDEST PUSH0 PUSH2 0x23E1 PUSH1 0x12 DUP4 PUSH2 0x18CD JUMP JUMPDEST SWAP2 POP PUSH2 0x23EC DUP3 PUSH2 0x23AD JUMP JUMPDEST PUSH1 0x20 DUP3 ADD SWAP1 POP SWAP2 SWAP1 POP JUMP JUMPDEST PUSH0 PUSH1 0x20 DUP3 ADD SWAP1 POP DUP2 DUP2 SUB PUSH0 DUP4 ADD MSTORE PUSH2 0x240E DUP2 PUSH2 0x23D5 JUMP JUMPDEST SWAP1 POP SWAP2 SWAP1 POP JUMP JUMPDEST PUSH0 DUP3 SWAP1 POP SWAP3 SWAP2 POP POP JUMP JUMPDEST PUSH32 0x4E487B7100000000000000000000000000000000000000000000000000000000 PUSH0 MSTORE PUSH1 0x41 PUSH1 0x4 MSTORE PUSH1 0x24 PUSH0 REVERT JUMPDEST PUSH32 0x4E487B7100000000000000000000000000000000000000000000000000000000 PUSH0 MSTORE PUSH1 0x22 PUSH1 0x4 MSTORE PUSH1 0x24 PUSH0 REVERT JUMPDEST PUSH0 PUSH1 0x2 DUP3 DIV SWAP1 POP PUSH1 0x1 DUP3 AND DUP1 PUSH2 0x2490 JUMPI PUSH1 0x7F DUP3 AND SWAP2 POP JUMPDEST PUSH1 0x20 DUP3 LT DUP2 SUB PUSH2 0x24A3 JUMPI PUSH2 0x24A2 PUSH2 0x244C JUMP JUMPDEST JUMPDEST POP SWAP2 SWAP1 POP JUMP JUMPDEST PUSH0 DUP2 SWAP1 POP DUP2 PUSH0 MSTORE PUSH1 0x20 PUSH0 KECCAK256 SWAP1 POP SWAP2 SWAP1 POP JUMP JUMPDEST PUSH0 PUSH1 0x20 PUSH1 0x1F DUP4 ADD DIV SWAP1 POP SWAP2 SWAP1 POP JUMP JUMPDEST PUSH0 DUP3 DUP3 SHL SWAP1 POP SWAP3 SWAP2 POP POP JUMP JUMPDEST PUSH0 PUSH1 0x8 DUP4 MUL PUSH2 0x2505 PUSH32 0xFFFFFFFFFFFFFFFFFFFFFFFFFFFFFFFFFFFFFFFFFFFFFFFFFFFFFFFFFFFFFFFF DUP3 PUSH2 0x24CA JUMP JUMPDEST PUSH2 0x250F DUP7 DUP4 PUSH2 0x24CA JUMP JUMPDEST SWAP6 POP DUP1 NOT DUP5 AND SWAP4 POP DUP1 DUP7 AND DUP5 OR SWAP3 POP POP POP SWAP4 SWAP3 POP POP POP JUMP JUMPDEST PUSH0 PUSH2 0x2541 PUSH2 0x253C PUSH2 0x2537 DUP5 PUSH2 0x196B JUMP JUMPDEST PUSH2 0x225B JUMP JUMPDEST PUSH2 0x196B JUMP JUMPDEST SWAP1 POP SWAP2 SWAP1 POP JUMP JUMPDEST PUSH0 DUP2 SWAP1 POP SWAP2 SWAP1 POP JUMP JUMPDEST PUSH2 0x255A DUP4 PUSH2 0x2527 JUMP JUMPDEST PUSH2 0x256E PUSH2 0x2566 DUP3 PUSH2 0x2548 JUMP JUMPDEST DUP5 DUP5 SLOAD PUSH2 0x24D6 JUMP JUMPDEST DUP3 SSTORE POP POP POP POP JUMP JUMPDEST PUSH0 PUSH0 SWAP1 POP SWAP1 JUMP JUMPDEST PUSH2 0x2585 PUSH2 0x2576 JUMP JUMPDEST PUSH2 0x2590 DUP2 DUP5 DUP5 PUSH2 0x2551 JUMP JUMPDEST POP POP POP JUMP JUMPDEST JUMPDEST DUP2 DUP2 LT ISZERO PUSH2 0x25B3 JUMPI PUSH2 0x25A8 PUSH0 DUP3 PUSH2 0x257D JUMP JUMPDEST PUSH1 0x1 DUP2 ADD SWAP1 POP PUSH2 0x2596 JUMP JUMPDEST POP POP JUMP JUMPDEST PUSH1 0x1F DUP3 GT ISZERO PUSH2 0x25F8 JUMPI PUSH2 0x25C9 DUP2 PUSH2 0x24A9 JUMP JUMPDEST PUSH2 0x25D2 DUP5 PUSH2 0x24BB JUMP JUMPDEST DUP2 ADD PUSH1 0x20 DUP6 LT ISZERO PUSH2 0x25E1 JUMPI DUP2 SWAP1 POP JUMPDEST PUSH2 0x25F5 PUSH2 0x25ED DUP6 PUSH2 0x24BB JUMP JUMPDEST DUP4 ADD DUP3 PUSH2 0x2595 JUMP JUMPDEST POP POP JUMPDEST POP POP POP JUMP JUMPDEST PUSH0 DUP3 DUP3 SHR SWAP1 POP SWAP3 SWAP2 POP POP JUMP JUMPDEST PUSH0 PUSH2 0x2618 PUSH0 NOT DUP5 PUSH1 0x8 MUL PUSH2 0x25FD JUMP JUMPDEST NOT DUP1 DUP4 AND SWAP2 POP POP SWAP3 SWAP2 POP POP JUMP JUMPDEST PUSH0 PUSH2 0x2630 DUP4 DUP4 PUSH2 0x2609 JUMP JUMPDEST SWAP2 POP DUP3 PUSH1 0x2 MUL DUP3 OR SWAP1 POP SWAP3 SWAP2 POP POP JUMP JUMPDEST PUSH2 0x264A DUP4 DUP4 PUSH2 0x2415 JUMP JUMPDEST PUSH8 0xFFFFFFFFFFFFFFFF DUP2 GT ISZERO PUSH2 0x2663 JUMPI PUSH2 0x2662 PUSH2 0x241F JUMP JUMPDEST JUMPDEST PUSH2 0x266D DUP3 SLOAD PUSH2 0x2479 JUMP JUMPDEST PUSH2 0x2678 DUP3 DUP3 DUP6 PUSH2 0x25B7 JUMP JUMPDEST PUSH0 PUSH1 0x1F DUP4 GT PUSH1 0x1 DUP2 EQ PUSH2 0x26A5 JUMPI PUSH0 DUP5 ISZERO PUSH2 0x2693 JUMPI DUP3 DUP8 ADD CALLDATALOAD SWAP1 POP JUMPDEST PUSH2 0x269D DUP6 DUP3 PUSH2 0x2625 JUMP JUMPDEST DUP7 SSTORE POP PUSH2 0x2704 JUMP JUMPDEST PUSH1 0x1F NOT DUP5 AND PUSH2 0x26B3 DUP7 PUSH2 0x24A9 JUMP JUMPDEST PUSH0 JUMPDEST DUP3 DUP2 LT ISZERO PUSH2 0x26DA JUMPI DUP5 DUP10 ADD CALLDATALOAD DUP3 SSTORE PUSH1 0x1 DUP3 ADD SWAP2 POP PUSH1 0x20 DUP6 ADD SWAP5 POP PUSH1 0x20 DUP2 ADD SWAP1 POP PUSH2 0x26B5 JUMP JUMPDEST DUP7 DUP4 LT ISZERO PUSH2 0x26F7 JUMPI DUP5 DUP10 ADD CALLDATALOAD PUSH2 0x26F3 PUSH1 0x1F DUP10 AND DUP3 PUSH2 0x2609 JUMP JUMPDEST DUP4 SSTORE POP JUMPDEST PUSH1 0x1 PUSH1 0x2 DUP9 MUL ADD DUP9 SSTORE POP POP POP JUMPDEST POP POP POP POP POP POP POP JUMP JUMPDEST PUSH0 PUSH2 0x2717 DUP3 PUSH2 0x196B JUMP JUMPDEST SWAP2 POP PUSH2 0x2722 DUP4 PUSH2 0x196B JUMP JUMPDEST SWAP3 POP DUP3 DUP3 SUB SWAP1 POP DUP2 DUP2 GT ISZERO PUSH2 0x273A JUMPI PUSH2 0x2739 PUSH2 0x1974 JUMP JUMPDEST JUMPDEST SWAP3 SWAP2 POP POP JUMP JUMPDEST DUP3 DUP2 DUP4 CALLDATACOPY PUSH0 DUP4 DUP4 ADD MSTORE POP POP POP JUMP JUMPDEST PUSH0 PUSH2 0x2759 DUP4 DUP6 PUSH2 0x18CD JUMP JUMPDEST SWAP4 POP PUSH2 0x2766 DUP4 DUP6 DUP5 PUSH2 0x2740 JUMP JUMPDEST PUSH2 0x276F DUP4 PUSH2 0x1D18 JUMP JUMPDEST DUP5 ADD SWAP1 POP SWAP4 SWAP3 POP POP POP JUMP JUMPDEST PUSH0 PUSH1 0x60 DUP3 ADD SWAP1 POP DUP2 DUP2 SUB PUSH0 DUP4 ADD MSTORE PUSH2 0x2793 DUP2 DUP7 DUP9 PUSH2 0x274E JUMP JUMPDEST SWAP1 POP PUSH2 0x27A2 PUSH1 0x20 DUP4 ADD DUP6 PUSH2 0x22A7 JUMP JUMPDEST PUSH2 0x27AF PUSH1 0x40 DUP4 ADD DUP5 PUSH2 0x19D4 JUMP JUMPDEST SWAP6 SWAP5 POP POP POP POP POP JUMP JUMPDEST PUSH32 0x4F6E6C7920636F6E7472696275746F72732063616E20766F7465000000000000 PUSH0 DUP3 ADD MSTORE POP JUMP JUMPDEST PUSH0 PUSH2 0x27EC PUSH1 0x1A DUP4 PUSH2 0x18CD JUMP JUMPDEST SWAP2 POP PUSH2 0x27F7 DUP3 PUSH2 0x27B8 JUMP JUMPDEST PUSH1 0x20 DUP3 ADD SWAP1 POP SWAP2 SWAP1 POP JUMP JUMPDEST PUSH0 PUSH1 0x20 DUP3 ADD SWAP1 POP DUP2 DUP2 SUB PUSH0 DUP4 ADD MSTORE PUSH2 0x2819 DUP2 PUSH2 0x27E0 JUMP JUMPDEST SWAP1 POP SWAP2 SWAP1 POP JUMP JUMPDEST PUSH32 0x5265717565737420616C726561647920636F6D706C6574656400000000000000 PUSH0 DUP3 ADD MSTORE POP JUMP JUMPDEST PUSH0 PUSH2 0x2854 PUSH1 0x19 DUP4 PUSH2 0x18CD JUMP JUMPDEST SWAP2 POP PUSH2 0x285F DUP3 PUSH2 0x2820 JUMP JUMPDEST PUSH1 0x20 DUP3 ADD SWAP1 POP SWAP2 SWAP1 POP JUMP JUMPDEST PUSH0 PUSH1 0x20 DUP3 ADD SWAP1 POP DUP2 DUP2 SUB PUSH0 DUP4 ADD MSTORE PUSH2 0x2881 DUP2 PUSH2 0x2848 JUMP JUMPDEST SWAP1 POP SWAP2 SWAP1 POP JUMP JUMPDEST PUSH32 0x416C726561647920766F74656420666F72207468697320726571756573740000 PUSH0 DUP3 ADD MSTORE POP JUMP JUMPDEST PUSH0 PUSH2 0x28BC PUSH1 0x1E DUP4 PUSH2 0x18CD JUMP JUMPDEST SWAP2 POP PUSH2 0x28C7 DUP3 PUSH2 0x2888 JUMP JUMPDEST PUSH1 0x20 DUP3 ADD SWAP1 POP SWAP2 SWAP1 POP JUMP JUMPDEST PUSH0 PUSH1 0x20 DUP3 ADD SWAP1 POP DUP2 DUP2 SUB PUSH0 DUP4 ADD MSTORE PUSH2 0x28E9 DUP2 PUSH2 0x28B0 JUMP JUMPDEST SWAP1 POP SWAP2 SWAP1 POP JUMP JUMPDEST PUSH32 0x416374696F6E20616C6C6F776564206F6E6C7920616674657220646561646C69 PUSH0 DUP3 ADD MSTORE PUSH32 0x6E65000000000000000000000000000000000000000000000000000000000000 PUSH1 0x20 DUP3 ADD MSTORE POP JUMP JUMPDEST PUSH0 PUSH2 0x294A PUSH1 0x22 DUP4 PUSH2 0x18CD JUMP JUMPDEST SWAP2 POP PUSH2 0x2955 DUP3 PUSH2 0x28F0 JUMP JUMPDEST PUSH1 0x40 DUP3 ADD SWAP1 POP SWAP2 SWAP1 POP JUMP JUMPDEST PUSH0 PUSH1 0x20 DUP3 ADD SWAP1 POP DUP2 DUP2 SUB PUSH0 DUP4 ADD MSTORE PUSH2 0x2977 DUP2 PUSH2 0x293E JUMP JUMPDEST SWAP1 POP SWAP2 SWAP1 POP JUMP JUMPDEST PUSH32 0x476F616C20726561636865643B20726566756E6473206E6F7420617661696C61 PUSH0 DUP3 ADD MSTORE PUSH32 0x626C650000000000000000000000000000000000000000000000000000000000 PUSH1 0x20 DUP3 ADD MSTORE POP JUMP JUMPDEST PUSH0 PUSH2 0x29D8 PUSH1 0x23 DUP4 PUSH2 0x18CD JUMP JUMPDEST SWAP2 POP PUSH2 0x29E3 DUP3 PUSH2 0x297E JUMP JUMPDEST PUSH1 0x40 DUP3 ADD SWAP1 POP SWAP2 SWAP1 POP JUMP JUMPDEST PUSH0 PUSH1 0x20 DUP3 ADD SWAP1 POP DUP2 DUP2 SUB PUSH0 DUP4 ADD MSTORE PUSH2 0x2A05 DUP2 PUSH2 0x29CC JUMP JUMPDEST SWAP1 POP SWAP2 SWAP1 POP JUMP JUMPDEST PUSH32 0x4E6F20636F6E747269627574696F6E7320746F20726566756E64000000000000 PUSH0 DUP3 ADD MSTORE POP JUMP JUMPDEST PUSH0 PUSH2 0x2A40 PUSH1 0x1A DUP4 PUSH2 0x18CD JUMP JUMPDEST SWAP2 POP PUSH2 0x2A4B DUP3 PUSH2 0x2A0C JUMP JUMPDEST PUSH1 0x20 DUP3 ADD SWAP1 POP SWAP2 SWAP1 POP JUMP JUMPDEST PUSH0 PUSH1 0x20 DUP3 ADD SWAP1 POP DUP2 DUP2 SUB PUSH0 DUP4 ADD MSTORE PUSH2 0x2A6D DUP2 PUSH2 0x2A34 JUMP JUMPDEST SWAP1 POP SWAP2 SWAP1 POP JUMP JUMPDEST PUSH32 0x526566756E64207472616E73666572206661696C656400000000000000000000 PUSH0 DUP3 ADD MSTORE POP JUMP JUMPDEST PUSH0 PUSH2 0x2AA8 PUSH1 0x16 DUP4 PUSH2 0x18CD JUMP JUMPDEST SWAP2 POP PUSH2 0x2AB3 DUP3 PUSH2 0x2A74 JUMP JUMPDEST PUSH1 0x20 DUP3 ADD SWAP1 POP SWAP2 SWAP1 POP JUMP JUMPDEST PUSH0 PUSH1 0x20 DUP3 ADD SWAP1 POP DUP2 DUP2 SUB PUSH0 DUP4 ADD MSTORE PUSH2 0x2AD5 DUP2 PUSH2 0x2A9C JUMP JUMPDEST SWAP1 POP SWAP2 SWAP1 POP JUMP JUMPDEST PUSH32 0x416374696F6E20616C6C6F776564206F6E6C79206265666F726520646561646C PUSH0 DUP3 ADD MSTORE PUSH32 0x696E650000000000000000000000000000000000000000000000000000000000 PUSH1 0x20 DUP3 ADD MSTORE POP JUMP JUMPDEST PUSH0 PUSH2 0x2B36 PUSH1 0x23 DUP4 PUSH2 0x18CD JUMP JUMPDEST SWAP2 POP PUSH2 0x2B41 DUP3 PUSH2 0x2ADC JUMP JUMPDEST PUSH1 0x40 DUP3 ADD SWAP1 POP SWAP2 SWAP1 POP JUMP JUMPDEST PUSH0 PUSH1 0x20 DUP3 ADD SWAP1 POP DUP2 DUP2 SUB PUSH0 DUP4 ADD MSTORE PUSH2 0x2B63 DUP2 PUSH2 0x2B2A JUMP JUMPDEST SWAP1 POP SWAP2 SWAP1 POP JUMP JUMPDEST PUSH32 0x4D7573742073656E642045544800000000000000000000000000000000000000 PUSH0 DUP3 ADD MSTORE POP JUMP JUMPDEST PUSH0 PUSH2 0x2B9E PUSH1 0xD DUP4 PUSH2 0x18CD JUMP JUMPDEST SWAP2 POP PUSH2 0x2BA9 DUP3 PUSH2 0x2B6A JUMP JUMPDEST PUSH1 0x20 DUP3 ADD SWAP1 POP SWAP2 SWAP1 POP JUMP JUMPDEST PUSH0 PUSH1 0x20 DUP3 ADD SWAP1 POP DUP2 DUP2 SUB PUSH0 DUP4 ADD MSTORE PUSH2 0x2BCB DUP2 PUSH2 0x2B92 JUMP JUMPDEST SWAP1 POP SWAP2 SWAP1 POP JUMP INVALID LOG2 PUSH5 0x6970667358 0x22 SLT KECCAK256 SWAP2 PC PUSH29 0x3533BBAA605E97B34136920C7C06DF6E1F41DD1ED5893F0BDBD8B969C9 PUSH5 0x736F6C6343 STOP ADDMOD 0x1E STOP CALLER "
				},
				"gasEstimates": {
					"creation": {
						"codeDepositCost": "2254400",
						"executionCost": "infinite",
						"totalCost": "infinite"
					},
					"external": {
						"": "196",
						"contribute()": "infinite",
						"contributions(address)": "2869",
						"contributorsCount()": "2492",
						"createRequest(string,address,uint256)": "infinite",
						"deadline()": "2515",
						"finalizeRequest(uint256)": "infinite",
						"getContributionOf(address)": "2939",
						"getRequest(uint256)": "infinite",
						"getRequestsCount()": "2463",
						"getSummary()": "infinite",
						"goalReached()": "2555",
						"hasVoted(uint256,address)": "7455",
						"isContributor(address)": "2901",
						"manager()": "2618",
						"raisedAmount()": "2469",
						"refund()": "infinite",
						"target()": "2491",
						"voteRequest(uint256)": "infinite"
					}
				},
				"methodIdentifiers": {
					"contribute()": "d7bb99ba",
					"contributions(address)": "42e94c90",
					"contributorsCount()": "7569b3d7",
					"createRequest(string,address,uint256)": "1b16bb5c",
					"deadline()": "29dcb0cf",
					"finalizeRequest(uint256)": "03441006",
					"getContributionOf(address)": "e14ed045",
					"getRequest(uint256)": "c58343ef",
					"getRequestsCount()": "3410452a",
					"getSummary()": "4051ddac",
					"goalReached()": "7d3d6522",
					"hasVoted(uint256,address)": "43859632",
					"isContributor(address)": "1d0d35f5",
					"manager()": "481c6a75",
					"raisedAmount()": "c59ee1dc",
					"refund()": "590e1ae3",
					"target()": "d4b83992",
					"voteRequest(uint256)": "4cb6f4a5"
				}
			},
			"storageLayout": {
				"storage": [
					{
						"astId": 4,
						"contract": "contracts/crowdfund.sol:DecentralizedCrowdfund",
						"label": "manager",
						"offset": 0,
						"slot": "0",
						"type": "t_address"
					},
					{
						"astId": 6,
						"contract": "contracts/crowdfund.sol:DecentralizedCrowdfund",
						"label": "target",
						"offset": 0,
						"slot": "1",
						"type": "t_uint256"
					},
					{
						"astId": 8,
						"contract": "contracts/crowdfund.sol:DecentralizedCrowdfund",
						"label": "deadline",
						"offset": 0,
						"slot": "2",
						"type": "t_uint256"
					},
					{
						"astId": 10,
						"contract": "contracts/crowdfund.sol:DecentralizedCrowdfund",
						"label": "raisedAmount",
						"offset": 0,
						"slot": "3",
						"type": "t_uint256"
					},
					{
						"astId": 12,
						"contract": "contracts/crowdfund.sol:DecentralizedCrowdfund",
						"label": "goalReached",
						"offset": 0,
						"slot": "4",
						"type": "t_bool"
					},
					{
						"astId": 14,
						"contract": "contracts/crowdfund.sol:DecentralizedCrowdfund",
						"label": "contributorsCount",
						"offset": 0,
						"slot": "5",
						"type": "t_uint256"
					},
					{
						"astId": 33,
						"contract": "contracts/crowdfund.sol:DecentralizedCrowdfund",
						"label": "requests",
						"offset": 0,
						"slot": "6",
						"type": "t_array(t_struct(Request)29_storage)dyn_storage"
					},
					{
						"astId": 37,
						"contract": "contracts/crowdfund.sol:DecentralizedCrowdfund",
						"label": "contributions",
						"offset": 0,
						"slot": "7",
						"type": "t_mapping(t_address,t_uint256)"
					},
					{
						"astId": 41,
						"contract": "contracts/crowdfund.sol:DecentralizedCrowdfund",
						"label": "isContributor",
						"offset": 0,
						"slot": "8",
						"type": "t_mapping(t_address,t_bool)"
					},
					{
						"astId": 44,
						"contract": "contracts/crowdfund.sol:DecentralizedCrowdfund",
						"label": "unlocked",
						"offset": 0,
						"slot": "9",
						"type": "t_uint256"
					}
				],
				"types": {
					"t_address": {
						"encoding": "inplace",
						"label": "address",
						"numberOfBytes": "20"
					},
					"t_address_payable": {
						"encoding": "inplace",
						"label": "address payable",
						"numberOfBytes": "20"
					},
					"t_array(t_struct(Request)29_storage)dyn_storage": {
						"base": "t_struct(Request)29_storage",
						"encoding": "dynamic_array",
						"label": "struct DecentralizedCrowdfund.Request[]",
						"numberOfBytes": "32"
					},
					"t_bool": {
						"encoding": "inplace",
						"label": "bool",
						"numberOfBytes": "1"
					},
					"t_mapping(t_address,t_bool)": {
						"encoding": "mapping",
						"key": "t_address",
						"label": "mapping(address => bool)",
						"numberOfBytes": "32",
						"value": "t_bool"
					},
					"t_mapping(t_address,t_uint256)": {
						"encoding": "mapping",
						"key": "t_address",
						"label": "mapping(address => uint256)",
						"numberOfBytes": "32",
						"value": "t_uint256"
					},
					"t_string_storage": {
						"encoding": "bytes",
						"label": "string",
						"numberOfBytes": "32"
					},
					"t_struct(Request)29_storage": {
						"encoding": "inplace",
						"label": "struct DecentralizedCrowdfund.Request",
						"members": [
							{
								"astId": 16,
								"contract": "contracts/crowdfund.sol:DecentralizedCrowdfund",
								"label": "description",
								"offset": 0,
								"slot": "0",
								"type": "t_string_storage"
							},
							{
								"astId": 18,
								"contract": "contracts/crowdfund.sol:DecentralizedCrowdfund",
								"label": "recipient",
								"offset": 0,
								"slot": "1",
								"type": "t_address_payable"
							},
							{
								"astId": 20,
								"contract": "contracts/crowdfund.sol:DecentralizedCrowdfund",
								"label": "value",
								"offset": 0,
								"slot": "2",
								"type": "t_uint256"
							},
							{
								"astId": 22,
								"contract": "contracts/crowdfund.sol:DecentralizedCrowdfund",
								"label": "completed",
								"offset": 0,
								"slot": "3",
								"type": "t_bool"
							},
							{
								"astId": 24,
								"contract": "contracts/crowdfund.sol:DecentralizedCrowdfund",
								"label": "voteCount",
								"offset": 0,
								"slot": "4",
								"type": "t_uint256"
							},
							{
								"astId": 28,
								"contract": "contracts/crowdfund.sol:DecentralizedCrowdfund",
								"label": "voters",
								"offset": 0,
								"slot": "5",
								"type": "t_mapping(t_address,t_bool)"
							}
						],
						"numberOfBytes": "192"
					},
					"t_uint256": {
						"encoding": "inplace",
						"label": "uint256",
						"numberOfBytes": "32"
					}
				}
			},
			"userdoc": {
				"kind": "user",
				"methods": {
					"contribute()": {
						"notice": "Contribute ETH to the crowdfunding campaign"
					},
					"createRequest(string,address,uint256)": {
						"notice": "Manager creates a spending request. Recipient will receive funds if contributors approve."
					},
					"finalizeRequest(uint256)": {
						"notice": "Finalize a request and send funds to recipient if majority voters approve and sufficient balance exists."
					},
					"getContributionOf(address)": {
						"notice": "Get contribution amount for an address"
					},
					"getRequest(uint256)": {
						"notice": "Utility to view certain fields of a request (mappings are not directly returnable)"
					},
					"getRequestsCount()": {
						"notice": "Returns number of requests"
					},
					"getSummary()": {
						"notice": "Get summary info about the campaign"
					},
					"hasVoted(uint256,address)": {
						"notice": "Check whether an address voted on a given request"
					},
					"refund()": {
						"notice": "Refund contributed ETH if deadline passed and target not reached. Contributor withdraws their own contribution."
					},
					"voteRequest(uint256)": {
						"notice": "Contributors vote for a request. Each contributor may vote once per request."
					}
				},
				"version": 1
			}
		}
	}
}