{
	"contracts/RentalAgreement.sol": {
		"RentalAgreement": {
			"abi": [
				{
					"inputs": [
						{
							"internalType": "address",
							"name": "_tenant",
							"type": "address"
						},
						{
							"internalType": "uint256",
							"name": "_rentPerMonth",
							"type": "uint256"
						}
					],
					"stateMutability": "nonpayable",
					"type": "constructor"
				},
				{
					"anonymous": false,
					"inputs": [
						{
							"indexed": false,
							"internalType": "address",
							"name": "who",
							"type": "address"
						},
						{
							"indexed": false,
							"internalType": "string",
							"name": "message",
							"type": "string"
						}
					],
					"name": "DisputeRaised",
					"type": "event"
				},
				{
					"anonymous": false,
					"inputs": [
						{
							"indexed": false,
							"internalType": "address",
							"name": "who",
							"type": "address"
						},
						{
							"indexed": false,
							"internalType": "uint256",
							"name": "amount",
							"type": "uint256"
						}
					],
					"name": "RentPaid",
					"type": "event"
				},
				{
					"anonymous": false,
					"inputs": [
						{
							"indexed": false,
							"internalType": "address",
							"name": "newTenant",
							"type": "address"
						}
					],
					"name": "TenantChanged",
					"type": "event"
				},
				{
					"inputs": [
						{
							"internalType": "uint256",
							"name": "",
							"type": "uint256"
						}
					],
					"name": "disputes",
					"outputs": [
						{
							"internalType": "address",
							"name": "raisedBy",
							"type": "address"
						},
						{
							"internalType": "string",
							"name": "message",
							"type": "string"
						},
						{
							"internalType": "uint256",
							"name": "timestamp",
							"type": "uint256"
						}
					],
					"stateMutability": "view",
					"type": "function"
				},
				{
					"inputs": [
						{
							"internalType": "uint256",
							"name": "i",
							"type": "uint256"
						}
					],
					"name": "getDispute",
					"outputs": [
						{
							"internalType": "address",
							"name": "",
							"type": "address"
						},
						{
							"internalType": "string",
							"name": "",
							"type": "string"
						},
						{
							"internalType": "uint256",
							"name": "",
							"type": "uint256"
						}
					],
					"stateMutability": "view",
					"type": "function"
				},
				{
					"inputs": [],
					"name": "getDisputeCount",
					"outputs": [
						{
							"internalType": "uint256",
							"name": "",
							"type": "uint256"
						}
					],
					"stateMutability": "view",
					"type": "function"
				},
				{
					"inputs": [],
					"name": "owner",
					"outputs": [
						{
							"internalType": "address",
							"name": "",
							"type": "address"
						}
					],
					"stateMutability": "view",
					"type": "function"
				},
				{
					"inputs": [
						{
							"internalType": "address",
							"name": "",
							"type": "address"
						}
					],
					"name": "paid",
					"outputs": [
						{
							"internalType": "uint256",
							"name": "",
							"type": "uint256"
						}
					],
					"stateMutability": "view",
					"type": "function"
				},
				{
					"inputs": [
						{
							"internalType": "uint256",
							"name": "amount",
							"type": "uint256"
						}
					],
					"name": "payRent",
					"outputs": [],
					"stateMutability": "nonpayable",
					"type": "function"
				},
				{
					"inputs": [
						{
							"internalType": "string",
							"name": "message",
							"type": "string"
						}
					],
					"name": "raiseDispute",
					"outputs": [],
					"stateMutability": "nonpayable",
					"type": "function"
				},
				{
					"inputs": [],
					"name": "rentPerMonth",
					"outputs": [
						{
							"internalType": "uint256",
							"name": "",
							"type": "uint256"
						}
					],
					"stateMutability": "view",
					"type": "function"
				},
				{
					"inputs": [
						{
							"internalType": "address",
							"name": "newTenant",
							"type": "address"
						}
					],
					"name": "setTenant",
					"outputs": [],
					"stateMutability": "nonpayable",
					"type": "function"
				},
				{
					"inputs": [],
					"name": "tenant",
					"outputs": [
						{
							"internalType": "address",
							"name": "",
							"type": "address"
						}
					],
					"stateMutability": "view",
					"type": "function"
				},
				{
					"inputs": [],
					"name": "tenantPaid",
					"outputs": [
						{
							"internalType": "uint256",
							"name": "",
							"type": "uint256"
						}
					],
					"stateMutability": "view",
					"type": "function"
				}
			],
			"devdoc": {
				"kind": "dev",
				"methods": {},
				"version": 1
			},
			"evm": {
				"assembly": "    /* \"contracts/RentalAgreement.sol\":58:1454  contract RentalAgreement {... */\n  mstore(0x40, 0x80)\n    /* \"contracts/RentalAgreement.sol\":436:560  constructor(address _tenant, uint _rentPerMonth) {... */\n  callvalue\n  dup1\n  iszero\n  tag_1\n  jumpi\n  revert(0x00, 0x00)\ntag_1:\n  pop\n  mload(0x40)\n  sub(codesize, bytecodeSize)\n  dup1\n  bytecodeSize\n  dup4\n  codecopy\n  dup2\n  dup2\n  add\n  0x40\n  mstore\n  dup2\n  add\n  swap1\n  tag_2\n  swap2\n  swap1\n  tag_3\n  jump\t// in\ntag_2:\n    /* \"contracts/RentalAgreement.sol\":496:506  msg.sender */\n  caller\n    /* \"contracts/RentalAgreement.sol\":488:493  owner */\n  0x00\n  0x00\n    /* \"contracts/RentalAgreement.sol\":488:506  owner = msg.sender */\n  0x0100\n  exp\n  dup2\n  sload\n  dup2\n  0xffffffffffffffffffffffffffffffffffffffff\n  mul\n  not\n  and\n  swap1\n  dup4\n  0xffffffffffffffffffffffffffffffffffffffff\n  and\n  mul\n  or\n  swap1\n  sstore\n  pop\n    /* \"contracts/RentalAgreement.sol\":518:525  _tenant */\n  dup2\n    /* \"contracts/RentalAgreement.sol\":509:515  tenant */\n  0x01\n  0x00\n    /* \"contracts/RentalAgreement.sol\":509:525  tenant = _tenant */\n  0x0100\n  exp\n  dup2\n  sload\n  dup2\n  0xffffffffffffffffffffffffffffffffffffffff\n  mul\n  not\n  and\n  swap1\n  dup4\n  0xffffffffffffffffffffffffffffffffffffffff\n  and\n  mul\n  or\n  swap1\n  sstore\n  pop\n    /* \"contracts/RentalAgreement.sol\":543:556  _rentPerMonth */\n  dup1\n    /* \"contracts/RentalAgreement.sol\":528:540  rentPerMonth */\n  0x02\n    /* \"contracts/RentalAgreement.sol\":528:556  rentPerMonth = _rentPerMonth */\n  dup2\n  swap1\n  sstore\n  pop\n    /* \"contracts/RentalAgreement.sol\":436:560  constructor(address _tenant, uint _rentPerMonth) {... */\n  pop\n  pop\n    /* \"contracts/RentalAgreement.sol\":58:1454  contract RentalAgreement {... */\n  jump(tag_6)\n    /* \"#utility.yul\":88:205   */\ntag_8:\n    /* \"#utility.yul\":197:198   */\n  0x00\n    /* \"#utility.yul\":194:195   */\n  0x00\n    /* \"#utility.yul\":187:199   */\n  revert\n    /* \"#utility.yul\":334:460   */\ntag_10:\n    /* \"#utility.yul\":371:378   */\n  0x00\n    /* \"#utility.yul\":411:453   */\n  0xffffffffffffffffffffffffffffffffffffffff\n    /* \"#utility.yul\":404:409   */\n  dup3\n    /* \"#utility.yul\":400:454   */\n  and\n    /* \"#utility.yul\":389:454   */\n  swap1\n  pop\n    /* \"#utility.yul\":334:460   */\n  swap2\n  swap1\n  pop\n  jump\t// out\n    /* \"#utility.yul\":466:562   */\ntag_11:\n    /* \"#utility.yul\":503:510   */\n  0x00\n    /* \"#utility.yul\":532:556   */\n  tag_23\n    /* \"#utility.yul\":550:555   */\n  dup3\n    /* \"#utility.yul\":532:556   */\n  tag_10\n  jump\t// in\ntag_23:\n    /* \"#utility.yul\":521:556   */\n  swap1\n  pop\n    /* \"#utility.yul\":466:562   */\n  swap2\n  swap1\n  pop\n  jump\t// out\n    /* \"#utility.yul\":568:690   */\ntag_12:\n    /* \"#utility.yul\":641:665   */\n  tag_25\n    /* \"#utility.yul\":659:664   */\n  dup2\n    /* \"#utility.yul\":641:665   */\n  tag_11\n  jump\t// in\ntag_25:\n    /* \"#utility.yul\":634:639   */\n  dup2\n    /* \"#utility.yul\":631:666   */\n  eq\n    /* \"#utility.yul\":621:684   */\n  tag_26\n  jumpi\n    /* \"#utility.yul\":680:681   */\n  0x00\n    /* \"#utility.yul\":677:678   */\n  0x00\n    /* \"#utility.yul\":670:682   */\n  revert\n    /* \"#utility.yul\":621:684   */\ntag_26:\n    /* \"#utility.yul\":568:690   */\n  pop\n  jump\t// out\n    /* \"#utility.yul\":696:839   */\ntag_13:\n    /* \"#utility.yul\":753:758   */\n  0x00\n    /* \"#utility.yul\":784:790   */\n  dup2\n    /* \"#utility.yul\":778:791   */\n  mload\n    /* \"#utility.yul\":769:791   */\n  swap1\n  pop\n    /* \"#utility.yul\":800:833   */\n  tag_28\n    /* \"#utility.yul\":827:832   */\n  dup2\n    /* \"#utility.yul\":800:833   */\n  tag_12\n  jump\t// in\ntag_28:\n    /* \"#utility.yul\":696:839   */\n  swap3\n  swap2\n  pop\n  pop\n  jump\t// out\n    /* \"#utility.yul\":845:922   */\ntag_14:\n    /* \"#utility.yul\":882:889   */\n  0x00\n    /* \"#utility.yul\":911:916   */\n  dup2\n    /* \"#utility.yul\":900:916   */\n  swap1\n  pop\n    /* \"#utility.yul\":845:922   */\n  swap2\n  swap1\n  pop\n  jump\t// out\n    /* \"#utility.yul\":928:1050   */\ntag_15:\n    /* \"#utility.yul\":1001:1025   */\n  tag_31\n    /* \"#utility.yul\":1019:1024   */\n  dup2\n    /* \"#utility.yul\":1001:1025   */\n  tag_14\n  jump\t// in\ntag_31:\n    /* \"#utility.yul\":994:999   */\n  dup2\n    /* \"#utility.yul\":991:1026   */\n  eq\n    /* \"#utility.yul\":981:1044   */\n  tag_32\n  jumpi\n    /* \"#utility.yul\":1040:1041   */\n  0x00\n    /* \"#utility.yul\":1037:1038   */\n  0x00\n    /* \"#utility.yul\":1030:1042   */\n  revert\n    /* \"#utility.yul\":981:1044   */\ntag_32:\n    /* \"#utility.yul\":928:1050   */\n  pop\n  jump\t// out\n    /* \"#utility.yul\":1056:1199   */\ntag_16:\n    /* \"#utility.yul\":1113:1118   */\n  0x00\n    /* \"#utility.yul\":1144:1150   */\n  dup2\n    /* \"#utility.yul\":1138:1151   */\n  mload\n    /* \"#utility.yul\":1129:1151   */\n  swap1\n  pop\n    /* \"#utility.yul\":1160:1193   */\n  tag_34\n    /* \"#utility.yul\":1187:1192   */\n  dup2\n    /* \"#utility.yul\":1160:1193   */\n  tag_15\n  jump\t// in\ntag_34:\n    /* \"#utility.yul\":1056:1199   */\n  swap3\n  swap2\n  pop\n  pop\n  jump\t// out\n    /* \"#utility.yul\":1205:1712   */\ntag_3:\n    /* \"#utility.yul\":1284:1290   */\n  0x00\n    /* \"#utility.yul\":1292:1298   */\n  0x00\n    /* \"#utility.yul\":1341:1343   */\n  0x40\n    /* \"#utility.yul\":1329:1338   */\n  dup4\n    /* \"#utility.yul\":1320:1327   */\n  dup6\n    /* \"#utility.yul\":1316:1339   */\n  sub\n    /* \"#utility.yul\":1312:1344   */\n  slt\n    /* \"#utility.yul\":1309:1428   */\n  iszero\n  tag_36\n  jumpi\n    /* \"#utility.yul\":1347:1426   */\n  tag_37\n  tag_8\n  jump\t// in\ntag_37:\n    /* \"#utility.yul\":1309:1428   */\ntag_36:\n    /* \"#utility.yul\":1467:1468   */\n  0x00\n    /* \"#utility.yul\":1492:1556   */\n  tag_38\n    /* \"#utility.yul\":1548:1555   */\n  dup6\n    /* \"#utility.yul\":1539:1545   */\n  dup3\n    /* \"#utility.yul\":1528:1537   */\n  dup7\n    /* \"#utility.yul\":1524:1546   */\n  add\n    /* \"#utility.yul\":1492:1556   */\n  tag_13\n  jump\t// in\ntag_38:\n    /* \"#utility.yul\":1482:1556   */\n  swap3\n  pop\n    /* \"#utility.yul\":1438:1566   */\n  pop\n    /* \"#utility.yul\":1605:1607   */\n  0x20\n    /* \"#utility.yul\":1631:1695   */\n  tag_39\n    /* \"#utility.yul\":1687:1694   */\n  dup6\n    /* \"#utility.yul\":1678:1684   */\n  dup3\n    /* \"#utility.yul\":1667:1676   */\n  dup7\n    /* \"#utility.yul\":1663:1685   */\n  add\n    /* \"#utility.yul\":1631:1695   */\n  tag_16\n  jump\t// in\ntag_39:\n    /* \"#utility.yul\":1621:1695   */\n  swap2\n  pop\n    /* \"#utility.yul\":1576:1705   */\n  pop\n    /* \"#utility.yul\":1205:1712   */\n  swap3\n  pop\n  swap3\n  swap1\n  pop\n  jump\t// out\n    /* \"contracts/RentalAgreement.sol\":58:1454  contract RentalAgreement {... */\ntag_6:\n  dataSize(sub_0)\n  dup1\n  dataOffset(sub_0)\n  0x00\n  codecopy\n  0x00\n  return\nstop\n\nsub_0: assembly {\n        /* \"contracts/RentalAgreement.sol\":58:1454  contract RentalAgreement {... */\n      mstore(0x40, 0x80)\n      callvalue\n      dup1\n      iszero\n      tag_1\n      jumpi\n      revert(0x00, 0x00)\n    tag_1:\n      pop\n      jumpi(tag_2, lt(calldatasize, 0x04))\n      shr(0xe0, calldataload(0x00))\n      dup1\n      0x8da5cb5b\n      gt\n      tag_14\n      jumpi\n      dup1\n      0x8da5cb5b\n      eq\n      tag_8\n      jumpi\n      dup1\n      0xa340cf79\n      eq\n      tag_9\n      jumpi\n      dup1\n      0xadf07791\n      eq\n      tag_10\n      jumpi\n      dup1\n      0xd9e8843f\n      eq\n      tag_11\n      jumpi\n      dup1\n      0xe3a96cbd\n      eq\n      tag_12\n      jumpi\n      dup1\n      0xfbed1c1c\n      eq\n      tag_13\n      jumpi\n      jump(tag_2)\n    tag_14:\n      dup1\n      0x10987b77\n      eq\n      tag_3\n      jumpi\n      dup1\n      0x2e74a4de\n      eq\n      tag_4\n      jumpi\n      dup1\n      0x396a05e3\n      eq\n      tag_5\n      jumpi\n      dup1\n      0x564a565d\n      eq\n      tag_6\n      jumpi\n      dup1\n      0x725a3b4b\n      eq\n      tag_7\n      jumpi\n    tag_2:\n      revert(0x00, 0x00)\n        /* \"contracts/RentalAgreement.sol\":1158:1241  function getDisputeCount() public view returns (uint) {... */\n    tag_3:\n      tag_15\n      tag_16\n      jump\t// in\n    tag_15:\n      mload(0x40)\n      tag_17\n      swap2\n      swap1\n      tag_18\n      jump\t// in\n    tag_17:\n      mload(0x40)\n      dup1\n      swap2\n      sub\n      swap1\n      return\n        /* \"contracts/RentalAgreement.sol\":562:709  function setTenant(address newTenant) public {... */\n    tag_4:\n      tag_19\n      0x04\n      dup1\n      calldatasize\n      sub\n      dup2\n      add\n      swap1\n      tag_20\n      swap2\n      swap1\n      tag_21\n      jump\t// in\n    tag_20:\n      tag_22\n      jump\t// in\n    tag_19:\n      stop\n        /* \"contracts/RentalAgreement.sol\":918:993  function tenantPaid() public view returns (uint) {... */\n    tag_5:\n      tag_23\n      tag_24\n      jump\t// in\n    tag_23:\n      mload(0x40)\n      tag_25\n      swap2\n      swap1\n      tag_18\n      jump\t// in\n    tag_25:\n      mload(0x40)\n      dup1\n      swap2\n      sub\n      swap1\n      return\n        /* \"contracts/RentalAgreement.sol\":273:298  Dispute[] public disputes */\n    tag_6:\n      tag_26\n      0x04\n      dup1\n      calldatasize\n      sub\n      dup2\n      add\n      swap1\n      tag_27\n      swap2\n      swap1\n      tag_28\n      jump\t// in\n    tag_27:\n      tag_29\n      jump\t// in\n    tag_26:\n      mload(0x40)\n      tag_30\n      swap4\n      swap3\n      swap2\n      swap1\n      tag_31\n      jump\t// in\n    tag_30:\n      mload(0x40)\n      dup1\n      swap2\n      sub\n      swap1\n      return\n        /* \"contracts/RentalAgreement.sol\":995:1156  function raiseDispute(string memory message) public {... */\n    tag_7:\n      tag_32\n      0x04\n      dup1\n      calldatasize\n      sub\n      dup2\n      add\n      swap1\n      tag_33\n      swap2\n      swap1\n      tag_34\n      jump\t// in\n    tag_33:\n      tag_35\n      jump\t// in\n    tag_32:\n      stop\n        /* \"contracts/RentalAgreement.sol\":86:106  address public owner */\n    tag_8:\n      tag_36\n      tag_37\n      jump\t// in\n    tag_36:\n      mload(0x40)\n      tag_38\n      swap2\n      swap1\n      tag_39\n      jump\t// in\n    tag_38:\n      mload(0x40)\n      dup1\n      swap2\n      sub\n      swap1\n      return\n        /* \"contracts/RentalAgreement.sol\":160:196  mapping(address => uint) public paid */\n    tag_9:\n      tag_40\n      0x04\n      dup1\n      calldatasize\n      sub\n      dup2\n      add\n      swap1\n      tag_41\n      swap2\n      swap1\n      tag_21\n      jump\t// in\n    tag_41:\n      tag_42\n      jump\t// in\n    tag_40:\n      mload(0x40)\n      tag_43\n      swap2\n      swap1\n      tag_18\n      jump\t// in\n    tag_43:\n      mload(0x40)\n      dup1\n      swap2\n      sub\n      swap1\n      return\n        /* \"contracts/RentalAgreement.sol\":109:130  address public tenant */\n    tag_10:\n      tag_44\n      tag_45\n      jump\t// in\n    tag_44:\n      mload(0x40)\n      tag_46\n      swap2\n      swap1\n      tag_39\n      jump\t// in\n    tag_46:\n      mload(0x40)\n      dup1\n      swap2\n      sub\n      swap1\n      return\n        /* \"contracts/RentalAgreement.sol\":711:916  function payRent(uint amount) public {... */\n    tag_11:\n      tag_47\n      0x04\n      dup1\n      calldatasize\n      sub\n      dup2\n      add\n      swap1\n      tag_48\n      swap2\n      swap1\n      tag_28\n      jump\t// in\n    tag_48:\n      tag_49\n      jump\t// in\n    tag_47:\n      stop\n        /* \"contracts/RentalAgreement.sol\":1243:1451  function getDispute(uint i) public view returns (address, string memory, uint)... */\n    tag_12:\n      tag_50\n      0x04\n      dup1\n      calldatasize\n      sub\n      dup2\n      add\n      swap1\n      tag_51\n      swap2\n      swap1\n      tag_28\n      jump\t// in\n    tag_51:\n      tag_52\n      jump\t// in\n    tag_50:\n      mload(0x40)\n      tag_53\n      swap4\n      swap3\n      swap2\n      swap1\n      tag_31\n      jump\t// in\n    tag_53:\n      mload(0x40)\n      dup1\n      swap2\n      sub\n      swap1\n      return\n        /* \"contracts/RentalAgreement.sol\":133:157  uint public rentPerMonth */\n    tag_13:\n      tag_54\n      tag_55\n      jump\t// in\n    tag_54:\n      mload(0x40)\n      tag_56\n      swap2\n      swap1\n      tag_18\n      jump\t// in\n    tag_56:\n      mload(0x40)\n      dup1\n      swap2\n      sub\n      swap1\n      return\n        /* \"contracts/RentalAgreement.sol\":1158:1241  function getDisputeCount() public view returns (uint) {... */\n    tag_16:\n        /* \"contracts/RentalAgreement.sol\":1206:1210  uint */\n      0x00\n        /* \"contracts/RentalAgreement.sol\":1222:1230  disputes */\n      0x04\n        /* \"contracts/RentalAgreement.sol\":1222:1237  disputes.length */\n      dup1\n      sload\n      swap1\n      pop\n        /* \"contracts/RentalAgreement.sol\":1215:1237  return disputes.length */\n      swap1\n      pop\n        /* \"contracts/RentalAgreement.sol\":1158:1241  function getDisputeCount() public view returns (uint) {... */\n      swap1\n      jump\t// out\n        /* \"contracts/RentalAgreement.sol\":562:709  function setTenant(address newTenant) public {... */\n    tag_22:\n        /* \"contracts/RentalAgreement.sol\":632:637  owner */\n      0x00\n      0x00\n      swap1\n      sload\n      swap1\n      0x0100\n      exp\n      swap1\n      div\n      0xffffffffffffffffffffffffffffffffffffffff\n      and\n        /* \"contracts/RentalAgreement.sol\":618:637  msg.sender == owner */\n      0xffffffffffffffffffffffffffffffffffffffff\n      and\n        /* \"contracts/RentalAgreement.sol\":618:628  msg.sender */\n      caller\n        /* \"contracts/RentalAgreement.sol\":618:637  msg.sender == owner */\n      0xffffffffffffffffffffffffffffffffffffffff\n      and\n      eq\n        /* \"contracts/RentalAgreement.sol\":610:652  require(msg.sender == owner, \"Only owner\") */\n      tag_59\n      jumpi\n      mload(0x40)\n      0x08c379a000000000000000000000000000000000000000000000000000000000\n      dup2\n      mstore\n      0x04\n      add\n      tag_60\n      swap1\n      tag_61\n      jump\t// in\n    tag_60:\n      mload(0x40)\n      dup1\n      swap2\n      sub\n      swap1\n      revert\n    tag_59:\n        /* \"contracts/RentalAgreement.sol\":664:673  newTenant */\n      dup1\n        /* \"contracts/RentalAgreement.sol\":655:661  tenant */\n      0x01\n      0x00\n        /* \"contracts/RentalAgreement.sol\":655:673  tenant = newTenant */\n      0x0100\n      exp\n      dup2\n      sload\n      dup2\n      0xffffffffffffffffffffffffffffffffffffffff\n      mul\n      not\n      and\n      swap1\n      dup4\n      0xffffffffffffffffffffffffffffffffffffffff\n      and\n      mul\n      or\n      swap1\n      sstore\n      pop\n        /* \"contracts/RentalAgreement.sol\":681:705  TenantChanged(newTenant) */\n      0x1194a56729b56452535002720ecdffccaa0d5e8b4c6c7c25736264c428e6ad8b\n        /* \"contracts/RentalAgreement.sol\":695:704  newTenant */\n      dup2\n        /* \"contracts/RentalAgreement.sol\":681:705  TenantChanged(newTenant) */\n      mload(0x40)\n      tag_62\n      swap2\n      swap1\n      tag_39\n      jump\t// in\n    tag_62:\n      mload(0x40)\n      dup1\n      swap2\n      sub\n      swap1\n      log1\n        /* \"contracts/RentalAgreement.sol\":562:709  function setTenant(address newTenant) public {... */\n      pop\n      jump\t// out\n        /* \"contracts/RentalAgreement.sol\":918:993  function tenantPaid() public view returns (uint) {... */\n    tag_24:\n        /* \"contracts/RentalAgreement.sol\":961:965  uint */\n      0x00\n        /* \"contracts/RentalAgreement.sol\":977:981  paid */\n      0x03\n        /* \"contracts/RentalAgreement.sol\":977:989  paid[tenant] */\n      0x00\n        /* \"contracts/RentalAgreement.sol\":982:988  tenant */\n      0x01\n      0x00\n      swap1\n      sload\n      swap1\n      0x0100\n      exp\n      swap1\n      div\n      0xffffffffffffffffffffffffffffffffffffffff\n      and\n        /* \"contracts/RentalAgreement.sol\":977:989  paid[tenant] */\n      0xffffffffffffffffffffffffffffffffffffffff\n      and\n      0xffffffffffffffffffffffffffffffffffffffff\n      and\n      dup2\n      mstore\n      0x20\n      add\n      swap1\n      dup2\n      mstore\n      0x20\n      add\n      0x00\n      keccak256\n      sload\n        /* \"contracts/RentalAgreement.sol\":970:989  return paid[tenant] */\n      swap1\n      pop\n        /* \"contracts/RentalAgreement.sol\":918:993  function tenantPaid() public view returns (uint) {... */\n      swap1\n      jump\t// out\n        /* \"contracts/RentalAgreement.sol\":273:298  Dispute[] public disputes */\n    tag_29:\n      0x04\n      dup2\n      dup2\n      sload\n      dup2\n      lt\n      tag_64\n      jumpi\n      0x00\n      dup1\n      revert\n    tag_64:\n      swap1\n      0x00\n      mstore\n      keccak256(0x00, 0x20)\n      swap1\n      0x03\n      mul\n      add\n      0x00\n      swap2\n      pop\n      swap1\n      pop\n      dup1\n      0x00\n      add\n      0x00\n      swap1\n      sload\n      swap1\n      0x0100\n      exp\n      swap1\n      div\n      0xffffffffffffffffffffffffffffffffffffffff\n      and\n      swap1\n      dup1\n      0x01\n      add\n      dup1\n      sload\n      tag_66\n      swap1\n      tag_67\n      jump\t// in\n    tag_66:\n      dup1\n      0x1f\n      add\n      0x20\n      dup1\n      swap2\n      div\n      mul\n      0x20\n      add\n      mload(0x40)\n      swap1\n      dup2\n      add\n      0x40\n      mstore\n      dup1\n      swap3\n      swap2\n      swap1\n      dup2\n      dup2\n      mstore\n      0x20\n      add\n      dup3\n      dup1\n      sload\n      tag_68\n      swap1\n      tag_67\n      jump\t// in\n    tag_68:\n      dup1\n      iszero\n      tag_69\n      jumpi\n      dup1\n      0x1f\n      lt\n      tag_70\n      jumpi\n      0x0100\n      dup1\n      dup4\n      sload\n      div\n      mul\n      dup4\n      mstore\n      swap2\n      0x20\n      add\n      swap2\n      jump(tag_69)\n    tag_70:\n      dup3\n      add\n      swap2\n      swap1\n      0x00\n      mstore\n      keccak256(0x00, 0x20)\n      swap1\n    tag_71:\n      dup2\n      sload\n      dup2\n      mstore\n      swap1\n      0x01\n      add\n      swap1\n      0x20\n      add\n      dup1\n      dup4\n      gt\n      tag_71\n      jumpi\n      dup3\n      swap1\n      sub\n      0x1f\n      and\n      dup3\n      add\n      swap2\n    tag_69:\n      pop\n      pop\n      pop\n      pop\n      pop\n      swap1\n      dup1\n      0x02\n      add\n      sload\n      swap1\n      pop\n      dup4\n      jump\t// out\n        /* \"contracts/RentalAgreement.sol\":995:1156  function raiseDispute(string memory message) public {... */\n    tag_35:\n        /* \"contracts/RentalAgreement.sol\":1050:1058  disputes */\n      0x04\n        /* \"contracts/RentalAgreement.sol\":1064:1109  Dispute(msg.sender, message, block.timestamp) */\n      mload(0x40)\n      dup1\n      0x60\n      add\n      0x40\n      mstore\n      dup1\n        /* \"contracts/RentalAgreement.sol\":1072:1082  msg.sender */\n      caller\n        /* \"contracts/RentalAgreement.sol\":1064:1109  Dispute(msg.sender, message, block.timestamp) */\n      0xffffffffffffffffffffffffffffffffffffffff\n      and\n      dup2\n      mstore\n      0x20\n      add\n        /* \"contracts/RentalAgreement.sol\":1084:1091  message */\n      dup4\n        /* \"contracts/RentalAgreement.sol\":1064:1109  Dispute(msg.sender, message, block.timestamp) */\n      dup2\n      mstore\n      0x20\n      add\n        /* \"contracts/RentalAgreement.sol\":1093:1108  block.timestamp */\n      timestamp\n        /* \"contracts/RentalAgreement.sol\":1064:1109  Dispute(msg.sender, message, block.timestamp) */\n      dup2\n      mstore\n      pop\n        /* \"contracts/RentalAgreement.sol\":1050:1110  disputes.push(Dispute(msg.sender, message, block.timestamp)) */\n      swap1\n      dup1\n      0x01\n      dup2\n      sload\n      add\n      dup1\n      dup3\n      sstore\n      dup1\n      swap2\n      pop\n      pop\n      0x01\n      swap1\n      sub\n      swap1\n      0x00\n      mstore\n      keccak256(0x00, 0x20)\n      swap1\n      0x03\n      mul\n      add\n      0x00\n      swap1\n      swap2\n      swap1\n      swap2\n      swap1\n      swap2\n      pop\n      0x00\n      dup3\n      add\n      mload\n      dup2\n      0x00\n      add\n      exp(0x0100, 0x00)\n      dup2\n      sload\n      dup2\n      0xffffffffffffffffffffffffffffffffffffffff\n      mul\n      not\n      and\n      swap1\n      dup4\n      0xffffffffffffffffffffffffffffffffffffffff\n      and\n      mul\n      or\n      swap1\n      sstore\n      pop\n      0x20\n      dup3\n      add\n      mload\n      dup2\n      0x01\n      add\n      swap1\n      dup2\n      tag_74\n      swap2\n      swap1\n      tag_75\n      jump\t// in\n    tag_74:\n      pop\n      0x40\n      dup3\n      add\n      mload\n      dup2\n      0x02\n      add\n      sstore\n      pop\n      pop\n        /* \"contracts/RentalAgreement.sol\":1118:1152  DisputeRaised(msg.sender, message) */\n      0x28b099eb575e23e32becd7c30dc8f9b2f98e370cdbf9841ea3338d9000402a25\n        /* \"contracts/RentalAgreement.sol\":1132:1142  msg.sender */\n      caller\n        /* \"contracts/RentalAgreement.sol\":1144:1151  message */\n      dup3\n        /* \"contracts/RentalAgreement.sol\":1118:1152  DisputeRaised(msg.sender, message) */\n      mload(0x40)\n      tag_76\n      swap3\n      swap2\n      swap1\n      tag_77\n      jump\t// in\n    tag_76:\n      mload(0x40)\n      dup1\n      swap2\n      sub\n      swap1\n      log1\n        /* \"contracts/RentalAgreement.sol\":995:1156  function raiseDispute(string memory message) public {... */\n      pop\n      jump\t// out\n        /* \"contracts/RentalAgreement.sol\":86:106  address public owner */\n    tag_37:\n      0x00\n      0x00\n      swap1\n      sload\n      swap1\n      0x0100\n      exp\n      swap1\n      div\n      0xffffffffffffffffffffffffffffffffffffffff\n      and\n      dup2\n      jump\t// out\n        /* \"contracts/RentalAgreement.sol\":160:196  mapping(address => uint) public paid */\n    tag_42:\n      mstore(0x20, 0x03)\n      dup1\n      0x00\n      mstore\n      keccak256(0x00, 0x40)\n      0x00\n      swap2\n      pop\n      swap1\n      pop\n      sload\n      dup2\n      jump\t// out\n        /* \"contracts/RentalAgreement.sol\":109:130  address public tenant */\n    tag_45:\n      0x01\n      0x00\n      swap1\n      sload\n      swap1\n      0x0100\n      exp\n      swap1\n      div\n      0xffffffffffffffffffffffffffffffffffffffff\n      and\n      dup2\n      jump\t// out\n        /* \"contracts/RentalAgreement.sol\":711:916  function payRent(uint amount) public {... */\n    tag_49:\n        /* \"contracts/RentalAgreement.sol\":773:779  tenant */\n      0x01\n      0x00\n      swap1\n      sload\n      swap1\n      0x0100\n      exp\n      swap1\n      div\n      0xffffffffffffffffffffffffffffffffffffffff\n      and\n        /* \"contracts/RentalAgreement.sol\":759:779  msg.sender == tenant */\n      0xffffffffffffffffffffffffffffffffffffffff\n      and\n        /* \"contracts/RentalAgreement.sol\":759:769  msg.sender */\n      caller\n        /* \"contracts/RentalAgreement.sol\":759:779  msg.sender == tenant */\n      0xffffffffffffffffffffffffffffffffffffffff\n      and\n      eq\n        /* \"contracts/RentalAgreement.sol\":751:795  require(msg.sender == tenant, \"Only tenant\") */\n      tag_79\n      jumpi\n      mload(0x40)\n      0x08c379a000000000000000000000000000000000000000000000000000000000\n      dup2\n      mstore\n      0x04\n      add\n      tag_80\n      swap1\n      tag_81\n      jump\t// in\n    tag_80:\n      mload(0x40)\n      dup1\n      swap2\n      sub\n      swap1\n      revert\n    tag_79:\n        /* \"contracts/RentalAgreement.sol\":816:828  rentPerMonth */\n      sload(0x02)\n        /* \"contracts/RentalAgreement.sol\":806:812  amount */\n      dup2\n        /* \"contracts/RentalAgreement.sol\":806:828  amount == rentPerMonth */\n      eq\n        /* \"contracts/RentalAgreement.sol\":798:847  require(amount == rentPerMonth, \"Pay exact rent\") */\n      tag_82\n      jumpi\n      mload(0x40)\n      0x08c379a000000000000000000000000000000000000000000000000000000000\n      dup2\n      mstore\n      0x04\n      add\n      tag_83\n      swap1\n      tag_84\n      jump\t// in\n    tag_83:\n      mload(0x40)\n      dup1\n      swap2\n      sub\n      swap1\n      revert\n    tag_82:\n        /* \"contracts/RentalAgreement.sol\":870:876  amount */\n      dup1\n        /* \"contracts/RentalAgreement.sol\":850:854  paid */\n      0x03\n        /* \"contracts/RentalAgreement.sol\":850:866  paid[msg.sender] */\n      0x00\n        /* \"contracts/RentalAgreement.sol\":855:865  msg.sender */\n      caller\n        /* \"contracts/RentalAgreement.sol\":850:866  paid[msg.sender] */\n      0xffffffffffffffffffffffffffffffffffffffff\n      and\n      0xffffffffffffffffffffffffffffffffffffffff\n      and\n      dup2\n      mstore\n      0x20\n      add\n      swap1\n      dup2\n      mstore\n      0x20\n      add\n      0x00\n      keccak256\n      0x00\n        /* \"contracts/RentalAgreement.sol\":850:876  paid[msg.sender] += amount */\n      dup3\n      dup3\n      sload\n      tag_85\n      swap2\n      swap1\n      tag_86\n      jump\t// in\n    tag_85:\n      swap3\n      pop\n      pop\n      dup2\n      swap1\n      sstore\n      pop\n        /* \"contracts/RentalAgreement.sol\":884:912  RentPaid(msg.sender, amount) */\n      0x03b5033869479e8a98af42b272f05933f60489fe9fb43d63e11a6c31f3fa7474\n        /* \"contracts/RentalAgreement.sol\":893:903  msg.sender */\n      caller\n        /* \"contracts/RentalAgreement.sol\":905:911  amount */\n      dup3\n        /* \"contracts/RentalAgreement.sol\":884:912  RentPaid(msg.sender, amount) */\n      mload(0x40)\n      tag_87\n      swap3\n      swap2\n      swap1\n      tag_88\n      jump\t// in\n    tag_87:\n      mload(0x40)\n      dup1\n      swap2\n      sub\n      swap1\n      log1\n        /* \"contracts/RentalAgreement.sol\":711:916  function payRent(uint amount) public {... */\n      pop\n      jump\t// out\n        /* \"contracts/RentalAgreement.sol\":1243:1451  function getDispute(uint i) public view returns (address, string memory, uint)... */\n    tag_52:\n        /* \"contracts/RentalAgreement.sol\":1292:1299  address */\n      0x00\n        /* \"contracts/RentalAgreement.sol\":1301:1314  string memory */\n      0x60\n        /* \"contracts/RentalAgreement.sol\":1316:1320  uint */\n      0x00\n        /* \"contracts/RentalAgreement.sol\":1338:1346  disputes */\n      0x04\n        /* \"contracts/RentalAgreement.sol\":1338:1353  disputes.length */\n      dup1\n      sload\n      swap1\n      pop\n        /* \"contracts/RentalAgreement.sol\":1334:1335  i */\n      dup5\n        /* \"contracts/RentalAgreement.sol\":1334:1353  i < disputes.length */\n      lt\n        /* \"contracts/RentalAgreement.sol\":1326:1367  require(i < disputes.length, \"bad index\") */\n      tag_90\n      jumpi\n      mload(0x40)\n      0x08c379a000000000000000000000000000000000000000000000000000000000\n      dup2\n      mstore\n      0x04\n      add\n      tag_91\n      swap1\n      tag_92\n      jump\t// in\n    tag_91:\n      mload(0x40)\n      dup1\n      swap2\n      sub\n      swap1\n      revert\n    tag_90:\n        /* \"contracts/RentalAgreement.sol\":1370:1387  Dispute storage d */\n      0x00\n        /* \"contracts/RentalAgreement.sol\":1390:1398  disputes */\n      0x04\n        /* \"contracts/RentalAgreement.sol\":1399:1400  i */\n      dup6\n        /* \"contracts/RentalAgreement.sol\":1390:1401  disputes[i] */\n      dup2\n      sload\n      dup2\n      lt\n      tag_93\n      jumpi\n      tag_94\n      tag_95\n      jump\t// in\n    tag_94:\n    tag_93:\n      swap1\n      0x00\n      mstore\n      keccak256(0x00, 0x20)\n      swap1\n      0x03\n      mul\n      add\n        /* \"contracts/RentalAgreement.sol\":1370:1401  Dispute storage d = disputes[i] */\n      swap1\n      pop\n        /* \"contracts/RentalAgreement.sol\":1412:1413  d */\n      dup1\n        /* \"contracts/RentalAgreement.sol\":1412:1422  d.raisedBy */\n      0x00\n      add\n      0x00\n      swap1\n      sload\n      swap1\n      0x0100\n      exp\n      swap1\n      div\n      0xffffffffffffffffffffffffffffffffffffffff\n      and\n        /* \"contracts/RentalAgreement.sol\":1424:1425  d */\n      dup2\n        /* \"contracts/RentalAgreement.sol\":1424:1433  d.message */\n      0x01\n      add\n        /* \"contracts/RentalAgreement.sol\":1435:1436  d */\n      dup3\n        /* \"contracts/RentalAgreement.sol\":1435:1446  d.timestamp */\n      0x02\n      add\n      sload\n        /* \"contracts/RentalAgreement.sol\":1404:1447  return (d.raisedBy, d.message, d.timestamp) */\n      dup2\n      dup1\n      sload\n      tag_97\n      swap1\n      tag_67\n      jump\t// in\n    tag_97:\n      dup1\n      0x1f\n      add\n      0x20\n      dup1\n      swap2\n      div\n      mul\n      0x20\n      add\n      mload(0x40)\n      swap1\n      dup2\n      add\n      0x40\n      mstore\n      dup1\n      swap3\n      swap2\n      swap1\n      dup2\n      dup2\n      mstore\n      0x20\n      add\n      dup3\n      dup1\n      sload\n      tag_98\n      swap1\n      tag_67\n      jump\t// in\n    tag_98:\n      dup1\n      iszero\n      tag_99\n      jumpi\n      dup1\n      0x1f\n      lt\n      tag_100\n      jumpi\n      0x0100\n      dup1\n      dup4\n      sload\n      div\n      mul\n      dup4\n      mstore\n      swap2\n      0x20\n      add\n      swap2\n      jump(tag_99)\n    tag_100:\n      dup3\n      add\n      swap2\n      swap1\n      0x00\n      mstore\n      keccak256(0x00, 0x20)\n      swap1\n    tag_101:\n      dup2\n      sload\n      dup2\n      mstore\n      swap1\n      0x01\n      add\n      swap1\n      0x20\n      add\n      dup1\n      dup4\n      gt\n      tag_101\n      jumpi\n      dup3\n      swap1\n      sub\n      0x1f\n      and\n      dup3\n      add\n      swap2\n    tag_99:\n      pop\n      pop\n      pop\n      pop\n      pop\n      swap2\n      pop\n      swap4\n      pop\n      swap4\n      pop\n      swap4\n      pop\n      pop\n        /* \"contracts/RentalAgreement.sol\":1243:1451  function getDispute(uint i) public view returns (address, string memory, uint)... */\n      swap2\n      swap4\n      swap1\n      swap3\n      pop\n      jump\t// out\n        /* \"contracts/RentalAgreement.sol\":133:157  uint public rentPerMonth */\n    tag_55:\n      sload(0x02)\n      dup2\n      jump\t// out\n        /* \"#utility.yul\":7:84   */\n    tag_102:\n        /* \"#utility.yul\":44:51   */\n      0x00\n        /* \"#utility.yul\":73:78   */\n      dup2\n        /* \"#utility.yul\":62:78   */\n      swap1\n      pop\n        /* \"#utility.yul\":7:84   */\n      swap2\n      swap1\n      pop\n      jump\t// out\n        /* \"#utility.yul\":90:208   */\n    tag_103:\n        /* \"#utility.yul\":177:201   */\n      tag_156\n        /* \"#utility.yul\":195:200   */\n      dup2\n        /* \"#utility.yul\":177:201   */\n      tag_102\n      jump\t// in\n    tag_156:\n        /* \"#utility.yul\":172:175   */\n      dup3\n        /* \"#utility.yul\":165:202   */\n      mstore\n        /* \"#utility.yul\":90:208   */\n      pop\n      pop\n      jump\t// out\n        /* \"#utility.yul\":214:436   */\n    tag_18:\n        /* \"#utility.yul\":307:311   */\n      0x00\n        /* \"#utility.yul\":345:347   */\n      0x20\n        /* \"#utility.yul\":334:343   */\n      dup3\n        /* \"#utility.yul\":330:348   */\n      add\n        /* \"#utility.yul\":322:348   */\n      swap1\n      pop\n        /* \"#utility.yul\":358:429   */\n      tag_158\n        /* \"#utility.yul\":426:427   */\n      0x00\n        /* \"#utility.yul\":415:424   */\n      dup4\n        /* \"#utility.yul\":411:428   */\n      add\n        /* \"#utility.yul\":402:408   */\n      dup5\n        /* \"#utility.yul\":358:429   */\n      tag_103\n      jump\t// in\n    tag_158:\n        /* \"#utility.yul\":214:436   */\n      swap3\n      swap2\n      pop\n      pop\n      jump\t// out\n        /* \"#utility.yul\":442:517   */\n    tag_104:\n        /* \"#utility.yul\":475:481   */\n      0x00\n        /* \"#utility.yul\":508:510   */\n      0x40\n        /* \"#utility.yul\":502:511   */\n      mload\n        /* \"#utility.yul\":492:511   */\n      swap1\n      pop\n        /* \"#utility.yul\":442:517   */\n      swap1\n      jump\t// out\n        /* \"#utility.yul\":523:640   */\n    tag_105:\n        /* \"#utility.yul\":632:633   */\n      0x00\n        /* \"#utility.yul\":629:630   */\n      0x00\n        /* \"#utility.yul\":622:634   */\n      revert\n        /* \"#utility.yul\":646:763   */\n    tag_106:\n        /* \"#utility.yul\":755:756   */\n      0x00\n        /* \"#utility.yul\":752:753   */\n      0x00\n        /* \"#utility.yul\":745:757   */\n      revert\n        /* \"#utility.yul\":769:895   */\n    tag_107:\n        /* \"#utility.yul\":806:813   */\n      0x00\n        /* \"#utility.yul\":846:888   */\n      0xffffffffffffffffffffffffffffffffffffffff\n        /* \"#utility.yul\":839:844   */\n      dup3\n        /* \"#utility.yul\":835:889   */\n      and\n        /* \"#utility.yul\":824:889   */\n      swap1\n      pop\n        /* \"#utility.yul\":769:895   */\n      swap2\n      swap1\n      pop\n      jump\t// out\n        /* \"#utility.yul\":901:997   */\n    tag_108:\n        /* \"#utility.yul\":938:945   */\n      0x00\n        /* \"#utility.yul\":967:991   */\n      tag_164\n        /* \"#utility.yul\":985:990   */\n      dup3\n        /* \"#utility.yul\":967:991   */\n      tag_107\n      jump\t// in\n    tag_164:\n        /* \"#utility.yul\":956:991   */\n      swap1\n      pop\n        /* \"#utility.yul\":901:997   */\n      swap2\n      swap1\n      pop\n      jump\t// out\n        /* \"#utility.yul\":1003:1125   */\n    tag_109:\n        /* \"#utility.yul\":1076:1100   */\n      tag_166\n        /* \"#utility.yul\":1094:1099   */\n      dup2\n        /* \"#utility.yul\":1076:1100   */\n      tag_108\n      jump\t// in\n    tag_166:\n        /* \"#utility.yul\":1069:1074   */\n      dup2\n        /* \"#utility.yul\":1066:1101   */\n      eq\n        /* \"#utility.yul\":1056:1119   */\n      tag_167\n      jumpi\n        /* \"#utility.yul\":1115:1116   */\n      0x00\n        /* \"#utility.yul\":1112:1113   */\n      0x00\n        /* \"#utility.yul\":1105:1117   */\n      revert\n        /* \"#utility.yul\":1056:1119   */\n    tag_167:\n        /* \"#utility.yul\":1003:1125   */\n      pop\n      jump\t// out\n        /* \"#utility.yul\":1131:1270   */\n    tag_110:\n        /* \"#utility.yul\":1177:1182   */\n      0x00\n        /* \"#utility.yul\":1215:1221   */\n      dup2\n        /* \"#utility.yul\":1202:1222   */\n      calldataload\n        /* \"#utility.yul\":1193:1222   */\n      swap1\n      pop\n        /* \"#utility.yul\":1231:1264   */\n      tag_169\n        /* \"#utility.yul\":1258:1263   */\n      dup2\n        /* \"#utility.yul\":1231:1264   */\n      tag_109\n      jump\t// in\n    tag_169:\n        /* \"#utility.yul\":1131:1270   */\n      swap3\n      swap2\n      pop\n      pop\n      jump\t// out\n        /* \"#utility.yul\":1276:1605   */\n    tag_21:\n        /* \"#utility.yul\":1335:1341   */\n      0x00\n        /* \"#utility.yul\":1384:1386   */\n      0x20\n        /* \"#utility.yul\":1372:1381   */\n      dup3\n        /* \"#utility.yul\":1363:1370   */\n      dup5\n        /* \"#utility.yul\":1359:1382   */\n      sub\n        /* \"#utility.yul\":1355:1387   */\n      slt\n        /* \"#utility.yul\":1352:1471   */\n      iszero\n      tag_171\n      jumpi\n        /* \"#utility.yul\":1390:1469   */\n      tag_172\n      tag_105\n      jump\t// in\n    tag_172:\n        /* \"#utility.yul\":1352:1471   */\n    tag_171:\n        /* \"#utility.yul\":1510:1511   */\n      0x00\n        /* \"#utility.yul\":1535:1588   */\n      tag_173\n        /* \"#utility.yul\":1580:1587   */\n      dup5\n        /* \"#utility.yul\":1571:1577   */\n      dup3\n        /* \"#utility.yul\":1560:1569   */\n      dup6\n        /* \"#utility.yul\":1556:1578   */\n      add\n        /* \"#utility.yul\":1535:1588   */\n      tag_110\n      jump\t// in\n    tag_173:\n        /* \"#utility.yul\":1525:1588   */\n      swap2\n      pop\n        /* \"#utility.yul\":1481:1598   */\n      pop\n        /* \"#utility.yul\":1276:1605   */\n      swap3\n      swap2\n      pop\n      pop\n      jump\t// out\n        /* \"#utility.yul\":1611:1733   */\n    tag_111:\n        /* \"#utility.yul\":1684:1708   */\n      tag_175\n        /* \"#utility.yul\":1702:1707   */\n      dup2\n        /* \"#utility.yul\":1684:1708   */\n      tag_102\n      jump\t// in\n    tag_175:\n        /* \"#utility.yul\":1677:1682   */\n      dup2\n        /* \"#utility.yul\":1674:1709   */\n      eq\n        /* \"#utility.yul\":1664:1727   */\n      tag_176\n      jumpi\n        /* \"#utility.yul\":1723:1724   */\n      0x00\n        /* \"#utility.yul\":1720:1721   */\n      0x00\n        /* \"#utility.yul\":1713:1725   */\n      revert\n        /* \"#utility.yul\":1664:1727   */\n    tag_176:\n        /* \"#utility.yul\":1611:1733   */\n      pop\n      jump\t// out\n        /* \"#utility.yul\":1739:1878   */\n    tag_112:\n        /* \"#utility.yul\":1785:1790   */\n      0x00\n        /* \"#utility.yul\":1823:1829   */\n      dup2\n        /* \"#utility.yul\":1810:1830   */\n      calldataload\n        /* \"#utility.yul\":1801:1830   */\n      swap1\n      pop\n        /* \"#utility.yul\":1839:1872   */\n      tag_178\n        /* \"#utility.yul\":1866:1871   */\n      dup2\n        /* \"#utility.yul\":1839:1872   */\n      tag_111\n      jump\t// in\n    tag_178:\n        /* \"#utility.yul\":1739:1878   */\n      swap3\n      swap2\n      pop\n      pop\n      jump\t// out\n        /* \"#utility.yul\":1884:2213   */\n    tag_28:\n        /* \"#utility.yul\":1943:1949   */\n      0x00\n        /* \"#utility.yul\":1992:1994   */\n      0x20\n        /* \"#utility.yul\":1980:1989   */\n      dup3\n        /* \"#utility.yul\":1971:1978   */\n      dup5\n        /* \"#utility.yul\":1967:1990   */\n      sub\n        /* \"#utility.yul\":1963:1995   */\n      slt\n        /* \"#utility.yul\":1960:2079   */\n      iszero\n      tag_180\n      jumpi\n        /* \"#utility.yul\":1998:2077   */\n      tag_181\n      tag_105\n      jump\t// in\n    tag_181:\n        /* \"#utility.yul\":1960:2079   */\n    tag_180:\n        /* \"#utility.yul\":2118:2119   */\n      0x00\n        /* \"#utility.yul\":2143:2196   */\n      tag_182\n        /* \"#utility.yul\":2188:2195   */\n      dup5\n        /* \"#utility.yul\":2179:2185   */\n      dup3\n        /* \"#utility.yul\":2168:2177   */\n      dup6\n        /* \"#utility.yul\":2164:2186   */\n      add\n        /* \"#utility.yul\":2143:2196   */\n      tag_112\n      jump\t// in\n    tag_182:\n        /* \"#utility.yul\":2133:2196   */\n      swap2\n      pop\n        /* \"#utility.yul\":2089:2206   */\n      pop\n        /* \"#utility.yul\":1884:2213   */\n      swap3\n      swap2\n      pop\n      pop\n      jump\t// out\n        /* \"#utility.yul\":2219:2337   */\n    tag_113:\n        /* \"#utility.yul\":2306:2330   */\n      tag_184\n        /* \"#utility.yul\":2324:2329   */\n      dup2\n        /* \"#utility.yul\":2306:2330   */\n      tag_108\n      jump\t// in\n    tag_184:\n        /* \"#utility.yul\":2301:2304   */\n      dup3\n        /* \"#utility.yul\":2294:2331   */\n      mstore\n        /* \"#utility.yul\":2219:2337   */\n      pop\n      pop\n      jump\t// out\n        /* \"#utility.yul\":2343:2442   */\n    tag_114:\n        /* \"#utility.yul\":2395:2401   */\n      0x00\n        /* \"#utility.yul\":2429:2434   */\n      dup2\n        /* \"#utility.yul\":2423:2435   */\n      mload\n        /* \"#utility.yul\":2413:2435   */\n      swap1\n      pop\n        /* \"#utility.yul\":2343:2442   */\n      swap2\n      swap1\n      pop\n      jump\t// out\n        /* \"#utility.yul\":2448:2617   */\n    tag_115:\n        /* \"#utility.yul\":2532:2543   */\n      0x00\n        /* \"#utility.yul\":2566:2572   */\n      dup3\n        /* \"#utility.yul\":2561:2564   */\n      dup3\n        /* \"#utility.yul\":2554:2573   */\n      mstore\n        /* \"#utility.yul\":2606:2610   */\n      0x20\n        /* \"#utility.yul\":2601:2604   */\n      dup3\n        /* \"#utility.yul\":2597:2611   */\n      add\n        /* \"#utility.yul\":2582:2611   */\n      swap1\n      pop\n        /* \"#utility.yul\":2448:2617   */\n      swap3\n      swap2\n      pop\n      pop\n      jump\t// out\n        /* \"#utility.yul\":2623:2762   */\n    tag_116:\n        /* \"#utility.yul\":2712:2718   */\n      dup3\n        /* \"#utility.yul\":2707:2710   */\n      dup2\n        /* \"#utility.yul\":2702:2705   */\n      dup4\n        /* \"#utility.yul\":2696:2719   */\n      mcopy\n        /* \"#utility.yul\":2753:2754   */\n      0x00\n        /* \"#utility.yul\":2744:2750   */\n      dup4\n        /* \"#utility.yul\":2739:2742   */\n      dup4\n        /* \"#utility.yul\":2735:2751   */\n      add\n        /* \"#utility.yul\":2728:2755   */\n      mstore\n        /* \"#utility.yul\":2623:2762   */\n      pop\n      pop\n      pop\n      jump\t// out\n        /* \"#utility.yul\":2768:2870   */\n    tag_117:\n        /* \"#utility.yul\":2809:2815   */\n      0x00\n        /* \"#utility.yul\":2860:2862   */\n      0x1f\n        /* \"#utility.yul\":2856:2863   */\n      not\n        /* \"#utility.yul\":2851:2853   */\n      0x1f\n        /* \"#utility.yul\":2844:2849   */\n      dup4\n        /* \"#utility.yul\":2840:2854   */\n      add\n        /* \"#utility.yul\":2836:2864   */\n      and\n        /* \"#utility.yul\":2826:2864   */\n      swap1\n      pop\n        /* \"#utility.yul\":2768:2870   */\n      swap2\n      swap1\n      pop\n      jump\t// out\n        /* \"#utility.yul\":2876:3253   */\n    tag_118:\n        /* \"#utility.yul\":2964:2967   */\n      0x00\n        /* \"#utility.yul\":2992:3031   */\n      tag_190\n        /* \"#utility.yul\":3025:3030   */\n      dup3\n        /* \"#utility.yul\":2992:3031   */\n      tag_114\n      jump\t// in\n    tag_190:\n        /* \"#utility.yul\":3047:3118   */\n      tag_191\n        /* \"#utility.yul\":3111:3117   */\n      dup2\n        /* \"#utility.yul\":3106:3109   */\n      dup6\n        /* \"#utility.yul\":3047:3118   */\n      tag_115\n      jump\t// in\n    tag_191:\n        /* \"#utility.yul\":3040:3118   */\n      swap4\n      pop\n        /* \"#utility.yul\":3127:3192   */\n      tag_192\n        /* \"#utility.yul\":3185:3191   */\n      dup2\n        /* \"#utility.yul\":3180:3183   */\n      dup6\n        /* \"#utility.yul\":3173:3177   */\n      0x20\n        /* \"#utility.yul\":3166:3171   */\n      dup7\n        /* \"#utility.yul\":3162:3178   */\n      add\n        /* \"#utility.yul\":3127:3192   */\n      tag_116\n      jump\t// in\n    tag_192:\n        /* \"#utility.yul\":3217:3246   */\n      tag_193\n        /* \"#utility.yul\":3239:3245   */\n      dup2\n        /* \"#utility.yul\":3217:3246   */\n      tag_117\n      jump\t// in\n    tag_193:\n        /* \"#utility.yul\":3212:3215   */\n      dup5\n        /* \"#utility.yul\":3208:3247   */\n      add\n        /* \"#utility.yul\":3201:3247   */\n      swap2\n      pop\n        /* \"#utility.yul\":2968:3253   */\n      pop\n        /* \"#utility.yul\":2876:3253   */\n      swap3\n      swap2\n      pop\n      pop\n      jump\t// out\n        /* \"#utility.yul\":3259:3792   */\n    tag_31:\n        /* \"#utility.yul\":3428:3432   */\n      0x00\n        /* \"#utility.yul\":3466:3468   */\n      0x60\n        /* \"#utility.yul\":3455:3464   */\n      dup3\n        /* \"#utility.yul\":3451:3469   */\n      add\n        /* \"#utility.yul\":3443:3469   */\n      swap1\n      pop\n        /* \"#utility.yul\":3479:3550   */\n      tag_195\n        /* \"#utility.yul\":3547:3548   */\n      0x00\n        /* \"#utility.yul\":3536:3545   */\n      dup4\n        /* \"#utility.yul\":3532:3549   */\n      add\n        /* \"#utility.yul\":3523:3529   */\n      dup7\n        /* \"#utility.yul\":3479:3550   */\n      tag_113\n      jump\t// in\n    tag_195:\n        /* \"#utility.yul\":3597:3606   */\n      dup2\n        /* \"#utility.yul\":3591:3595   */\n      dup2\n        /* \"#utility.yul\":3587:3607   */\n      sub\n        /* \"#utility.yul\":3582:3584   */\n      0x20\n        /* \"#utility.yul\":3571:3580   */\n      dup4\n        /* \"#utility.yul\":3567:3585   */\n      add\n        /* \"#utility.yul\":3560:3608   */\n      mstore\n        /* \"#utility.yul\":3625:3703   */\n      tag_196\n        /* \"#utility.yul\":3698:3702   */\n      dup2\n        /* \"#utility.yul\":3689:3695   */\n      dup6\n        /* \"#utility.yul\":3625:3703   */\n      tag_118\n      jump\t// in\n    tag_196:\n        /* \"#utility.yul\":3617:3703   */\n      swap1\n      pop\n        /* \"#utility.yul\":3713:3785   */\n      tag_197\n        /* \"#utility.yul\":3781:3783   */\n      0x40\n        /* \"#utility.yul\":3770:3779   */\n      dup4\n        /* \"#utility.yul\":3766:3784   */\n      add\n        /* \"#utility.yul\":3757:3763   */\n      dup5\n        /* \"#utility.yul\":3713:3785   */\n      tag_103\n      jump\t// in\n    tag_197:\n        /* \"#utility.yul\":3259:3792   */\n      swap5\n      swap4\n      pop\n      pop\n      pop\n      pop\n      jump\t// out\n        /* \"#utility.yul\":3798:3915   */\n    tag_119:\n        /* \"#utility.yul\":3907:3908   */\n      0x00\n        /* \"#utility.yul\":3904:3905   */\n      0x00\n        /* \"#utility.yul\":3897:3909   */\n      revert\n        /* \"#utility.yul\":3921:4038   */\n    tag_120:\n        /* \"#utility.yul\":4030:4031   */\n      0x00\n        /* \"#utility.yul\":4027:4028   */\n      0x00\n        /* \"#utility.yul\":4020:4032   */\n      revert\n        /* \"#utility.yul\":4044:4224   */\n    tag_121:\n        /* \"#utility.yul\":4092:4169   */\n      0x4e487b7100000000000000000000000000000000000000000000000000000000\n        /* \"#utility.yul\":4089:4090   */\n      0x00\n        /* \"#utility.yul\":4082:4170   */\n      mstore\n        /* \"#utility.yul\":4189:4193   */\n      0x41\n        /* \"#utility.yul\":4186:4187   */\n      0x04\n        /* \"#utility.yul\":4179:4194   */\n      mstore\n        /* \"#utility.yul\":4213:4217   */\n      0x24\n        /* \"#utility.yul\":4210:4211   */\n      0x00\n        /* \"#utility.yul\":4203:4218   */\n      revert\n        /* \"#utility.yul\":4230:4511   */\n    tag_122:\n        /* \"#utility.yul\":4313:4340   */\n      tag_202\n        /* \"#utility.yul\":4335:4339   */\n      dup3\n        /* \"#utility.yul\":4313:4340   */\n      tag_117\n      jump\t// in\n    tag_202:\n        /* \"#utility.yul\":4305:4311   */\n      dup2\n        /* \"#utility.yul\":4301:4341   */\n      add\n        /* \"#utility.yul\":4443:4449   */\n      dup2\n        /* \"#utility.yul\":4431:4441   */\n      dup2\n        /* \"#utility.yul\":4428:4450   */\n      lt\n        /* \"#utility.yul\":4407:4425   */\n      0xffffffffffffffff\n        /* \"#utility.yul\":4395:4405   */\n      dup3\n        /* \"#utility.yul\":4392:4426   */\n      gt\n        /* \"#utility.yul\":4389:4451   */\n      or\n        /* \"#utility.yul\":4386:4474   */\n      iszero\n      tag_203\n      jumpi\n        /* \"#utility.yul\":4454:4472   */\n      tag_204\n      tag_121\n      jump\t// in\n    tag_204:\n        /* \"#utility.yul\":4386:4474   */\n    tag_203:\n        /* \"#utility.yul\":4494:4504   */\n      dup1\n        /* \"#utility.yul\":4490:4492   */\n      0x40\n        /* \"#utility.yul\":4483:4505   */\n      mstore\n        /* \"#utility.yul\":4273:4511   */\n      pop\n        /* \"#utility.yul\":4230:4511   */\n      pop\n      pop\n      jump\t// out\n        /* \"#utility.yul\":4517:4646   */\n    tag_123:\n        /* \"#utility.yul\":4551:4557   */\n      0x00\n        /* \"#utility.yul\":4578:4598   */\n      tag_206\n      tag_104\n      jump\t// in\n    tag_206:\n        /* \"#utility.yul\":4568:4598   */\n      swap1\n      pop\n        /* \"#utility.yul\":4607:4640   */\n      tag_207\n        /* \"#utility.yul\":4635:4639   */\n      dup3\n        /* \"#utility.yul\":4627:4633   */\n      dup3\n        /* \"#utility.yul\":4607:4640   */\n      tag_122\n      jump\t// in\n    tag_207:\n        /* \"#utility.yul\":4517:4646   */\n      swap2\n      swap1\n      pop\n      jump\t// out\n        /* \"#utility.yul\":4652:4960   */\n    tag_124:\n        /* \"#utility.yul\":4714:4718   */\n      0x00\n        /* \"#utility.yul\":4804:4822   */\n      0xffffffffffffffff\n        /* \"#utility.yul\":4796:4802   */\n      dup3\n        /* \"#utility.yul\":4793:4823   */\n      gt\n        /* \"#utility.yul\":4790:4846   */\n      iszero\n      tag_209\n      jumpi\n        /* \"#utility.yul\":4826:4844   */\n      tag_210\n      tag_121\n      jump\t// in\n    tag_210:\n        /* \"#utility.yul\":4790:4846   */\n    tag_209:\n        /* \"#utility.yul\":4864:4893   */\n      tag_211\n        /* \"#utility.yul\":4886:4892   */\n      dup3\n        /* \"#utility.yul\":4864:4893   */\n      tag_117\n      jump\t// in\n    tag_211:\n        /* \"#utility.yul\":4856:4893   */\n      swap1\n      pop\n        /* \"#utility.yul\":4948:4952   */\n      0x20\n        /* \"#utility.yul\":4942:4946   */\n      dup2\n        /* \"#utility.yul\":4938:4953   */\n      add\n        /* \"#utility.yul\":4930:4953   */\n      swap1\n      pop\n        /* \"#utility.yul\":4652:4960   */\n      swap2\n      swap1\n      pop\n      jump\t// out\n        /* \"#utility.yul\":4966:5114   */\n    tag_125:\n        /* \"#utility.yul\":5064:5070   */\n      dup3\n        /* \"#utility.yul\":5059:5062   */\n      dup2\n        /* \"#utility.yul\":5054:5057   */\n      dup4\n        /* \"#utility.yul\":5041:5071   */\n      calldatacopy\n        /* \"#utility.yul\":5105:5106   */\n      0x00\n        /* \"#utility.yul\":5096:5102   */\n      dup4\n        /* \"#utility.yul\":5091:5094   */\n      dup4\n        /* \"#utility.yul\":5087:5103   */\n      add\n        /* \"#utility.yul\":5080:5107   */\n      mstore\n        /* \"#utility.yul\":4966:5114   */\n      pop\n      pop\n      pop\n      jump\t// out\n        /* \"#utility.yul\":5120:5545   */\n    tag_126:\n        /* \"#utility.yul\":5198:5203   */\n      0x00\n        /* \"#utility.yul\":5223:5289   */\n      tag_214\n        /* \"#utility.yul\":5239:5288   */\n      tag_215\n        /* \"#utility.yul\":5281:5287   */\n      dup5\n        /* \"#utility.yul\":5239:5288   */\n      tag_124\n      jump\t// in\n    tag_215:\n        /* \"#utility.yul\":5223:5289   */\n      tag_123\n      jump\t// in\n    tag_214:\n        /* \"#utility.yul\":5214:5289   */\n      swap1\n      pop\n        /* \"#utility.yul\":5312:5318   */\n      dup3\n        /* \"#utility.yul\":5305:5310   */\n      dup2\n        /* \"#utility.yul\":5298:5319   */\n      mstore\n        /* \"#utility.yul\":5350:5354   */\n      0x20\n        /* \"#utility.yul\":5343:5348   */\n      dup2\n        /* \"#utility.yul\":5339:5355   */\n      add\n        /* \"#utility.yul\":5388:5391   */\n      dup5\n        /* \"#utility.yul\":5379:5385   */\n      dup5\n        /* \"#utility.yul\":5374:5377   */\n      dup5\n        /* \"#utility.yul\":5370:5386   */\n      add\n        /* \"#utility.yul\":5367:5392   */\n      gt\n        /* \"#utility.yul\":5364:5476   */\n      iszero\n      tag_216\n      jumpi\n        /* \"#utility.yul\":5395:5474   */\n      tag_217\n      tag_120\n      jump\t// in\n    tag_217:\n        /* \"#utility.yul\":5364:5476   */\n    tag_216:\n        /* \"#utility.yul\":5485:5539   */\n      tag_218\n        /* \"#utility.yul\":5532:5538   */\n      dup5\n        /* \"#utility.yul\":5527:5530   */\n      dup3\n        /* \"#utility.yul\":5522:5525   */\n      dup6\n        /* \"#utility.yul\":5485:5539   */\n      tag_125\n      jump\t// in\n    tag_218:\n        /* \"#utility.yul\":5204:5545   */\n      pop\n        /* \"#utility.yul\":5120:5545   */\n      swap4\n      swap3\n      pop\n      pop\n      pop\n      jump\t// out\n        /* \"#utility.yul\":5565:5905   */\n    tag_127:\n        /* \"#utility.yul\":5621:5626   */\n      0x00\n        /* \"#utility.yul\":5670:5673   */\n      dup3\n        /* \"#utility.yul\":5663:5667   */\n      0x1f\n        /* \"#utility.yul\":5655:5661   */\n      dup4\n        /* \"#utility.yul\":5651:5668   */\n      add\n        /* \"#utility.yul\":5647:5674   */\n      slt\n        /* \"#utility.yul\":5637:5759   */\n      tag_220\n      jumpi\n        /* \"#utility.yul\":5678:5757   */\n      tag_221\n      tag_119\n      jump\t// in\n    tag_221:\n        /* \"#utility.yul\":5637:5759   */\n    tag_220:\n        /* \"#utility.yul\":5795:5801   */\n      dup2\n        /* \"#utility.yul\":5782:5802   */\n      calldataload\n        /* \"#utility.yul\":5820:5899   */\n      tag_222\n        /* \"#utility.yul\":5895:5898   */\n      dup5\n        /* \"#utility.yul\":5887:5893   */\n      dup3\n        /* \"#utility.yul\":5880:5884   */\n      0x20\n        /* \"#utility.yul\":5872:5878   */\n      dup7\n        /* \"#utility.yul\":5868:5885   */\n      add\n        /* \"#utility.yul\":5820:5899   */\n      tag_126\n      jump\t// in\n    tag_222:\n        /* \"#utility.yul\":5811:5899   */\n      swap2\n      pop\n        /* \"#utility.yul\":5627:5905   */\n      pop\n        /* \"#utility.yul\":5565:5905   */\n      swap3\n      swap2\n      pop\n      pop\n      jump\t// out\n        /* \"#utility.yul\":5911:6420   */\n    tag_34:\n        /* \"#utility.yul\":5980:5986   */\n      0x00\n        /* \"#utility.yul\":6029:6031   */\n      0x20\n        /* \"#utility.yul\":6017:6026   */\n      dup3\n        /* \"#utility.yul\":6008:6015   */\n      dup5\n        /* \"#utility.yul\":6004:6027   */\n      sub\n        /* \"#utility.yul\":6000:6032   */\n      slt\n        /* \"#utility.yul\":5997:6116   */\n      iszero\n      tag_224\n      jumpi\n        /* \"#utility.yul\":6035:6114   */\n      tag_225\n      tag_105\n      jump\t// in\n    tag_225:\n        /* \"#utility.yul\":5997:6116   */\n    tag_224:\n        /* \"#utility.yul\":6183:6184   */\n      0x00\n        /* \"#utility.yul\":6172:6181   */\n      dup3\n        /* \"#utility.yul\":6168:6185   */\n      add\n        /* \"#utility.yul\":6155:6186   */\n      calldataload\n        /* \"#utility.yul\":6213:6231   */\n      0xffffffffffffffff\n        /* \"#utility.yul\":6205:6211   */\n      dup2\n        /* \"#utility.yul\":6202:6232   */\n      gt\n        /* \"#utility.yul\":6199:6316   */\n      iszero\n      tag_226\n      jumpi\n        /* \"#utility.yul\":6235:6314   */\n      tag_227\n      tag_106\n      jump\t// in\n    tag_227:\n        /* \"#utility.yul\":6199:6316   */\n    tag_226:\n        /* \"#utility.yul\":6340:6403   */\n      tag_228\n        /* \"#utility.yul\":6395:6402   */\n      dup5\n        /* \"#utility.yul\":6386:6392   */\n      dup3\n        /* \"#utility.yul\":6375:6384   */\n      dup6\n        /* \"#utility.yul\":6371:6393   */\n      add\n        /* \"#utility.yul\":6340:6403   */\n      tag_127\n      jump\t// in\n    tag_228:\n        /* \"#utility.yul\":6330:6403   */\n      swap2\n      pop\n        /* \"#utility.yul\":6126:6413   */\n      pop\n        /* \"#utility.yul\":5911:6420   */\n      swap3\n      swap2\n      pop\n      pop\n      jump\t// out\n        /* \"#utility.yul\":6426:6648   */\n    tag_39:\n        /* \"#utility.yul\":6519:6523   */\n      0x00\n        /* \"#utility.yul\":6557:6559   */\n      0x20\n        /* \"#utility.yul\":6546:6555   */\n      dup3\n        /* \"#utility.yul\":6542:6560   */\n      add\n        /* \"#utility.yul\":6534:6560   */\n      swap1\n      pop\n        /* \"#utility.yul\":6570:6641   */\n      tag_230\n        /* \"#utility.yul\":6638:6639   */\n      0x00\n        /* \"#utility.yul\":6627:6636   */\n      dup4\n        /* \"#utility.yul\":6623:6640   */\n      add\n        /* \"#utility.yul\":6614:6620   */\n      dup5\n        /* \"#utility.yul\":6570:6641   */\n      tag_113\n      jump\t// in\n    tag_230:\n        /* \"#utility.yul\":6426:6648   */\n      swap3\n      swap2\n      pop\n      pop\n      jump\t// out\n        /* \"#utility.yul\":6654:6814   */\n    tag_128:\n        /* \"#utility.yul\":6794:6806   */\n      0x4f6e6c79206f776e657200000000000000000000000000000000000000000000\n        /* \"#utility.yul\":6790:6791   */\n      0x00\n        /* \"#utility.yul\":6782:6788   */\n      dup3\n        /* \"#utility.yul\":6778:6792   */\n      add\n        /* \"#utility.yul\":6771:6807   */\n      mstore\n        /* \"#utility.yul\":6654:6814   */\n      pop\n      jump\t// out\n        /* \"#utility.yul\":6820:7186   */\n    tag_129:\n        /* \"#utility.yul\":6962:6965   */\n      0x00\n        /* \"#utility.yul\":6983:7050   */\n      tag_233\n        /* \"#utility.yul\":7047:7049   */\n      0x0a\n        /* \"#utility.yul\":7042:7045   */\n      dup4\n        /* \"#utility.yul\":6983:7050   */\n      tag_115\n      jump\t// in\n    tag_233:\n        /* \"#utility.yul\":6976:7050   */\n      swap2\n      pop\n        /* \"#utility.yul\":7059:7152   */\n      tag_234\n        /* \"#utility.yul\":7148:7151   */\n      dup3\n        /* \"#utility.yul\":7059:7152   */\n      tag_128\n      jump\t// in\n    tag_234:\n        /* \"#utility.yul\":7177:7179   */\n      0x20\n        /* \"#utility.yul\":7172:7175   */\n      dup3\n        /* \"#utility.yul\":7168:7180   */\n      add\n        /* \"#utility.yul\":7161:7180   */\n      swap1\n      pop\n        /* \"#utility.yul\":6820:7186   */\n      swap2\n      swap1\n      pop\n      jump\t// out\n        /* \"#utility.yul\":7192:7611   */\n    tag_61:\n        /* \"#utility.yul\":7358:7362   */\n      0x00\n        /* \"#utility.yul\":7396:7398   */\n      0x20\n        /* \"#utility.yul\":7385:7394   */\n      dup3\n        /* \"#utility.yul\":7381:7399   */\n      add\n        /* \"#utility.yul\":7373:7399   */\n      swap1\n      pop\n        /* \"#utility.yul\":7445:7454   */\n      dup2\n        /* \"#utility.yul\":7439:7443   */\n      dup2\n        /* \"#utility.yul\":7435:7455   */\n      sub\n        /* \"#utility.yul\":7431:7432   */\n      0x00\n        /* \"#utility.yul\":7420:7429   */\n      dup4\n        /* \"#utility.yul\":7416:7433   */\n      add\n        /* \"#utility.yul\":7409:7456   */\n      mstore\n        /* \"#utility.yul\":7473:7604   */\n      tag_236\n        /* \"#utility.yul\":7599:7603   */\n      dup2\n        /* \"#utility.yul\":7473:7604   */\n      tag_129\n      jump\t// in\n    tag_236:\n        /* \"#utility.yul\":7465:7604   */\n      swap1\n      pop\n        /* \"#utility.yul\":7192:7611   */\n      swap2\n      swap1\n      pop\n      jump\t// out\n        /* \"#utility.yul\":7617:7797   */\n    tag_130:\n        /* \"#utility.yul\":7665:7742   */\n      0x4e487b7100000000000000000000000000000000000000000000000000000000\n        /* \"#utility.yul\":7662:7663   */\n      0x00\n        /* \"#utility.yul\":7655:7743   */\n      mstore\n        /* \"#utility.yul\":7762:7766   */\n      0x22\n        /* \"#utility.yul\":7759:7760   */\n      0x04\n        /* \"#utility.yul\":7752:7767   */\n      mstore\n        /* \"#utility.yul\":7786:7790   */\n      0x24\n        /* \"#utility.yul\":7783:7784   */\n      0x00\n        /* \"#utility.yul\":7776:7791   */\n      revert\n        /* \"#utility.yul\":7803:8123   */\n    tag_67:\n        /* \"#utility.yul\":7847:7853   */\n      0x00\n        /* \"#utility.yul\":7884:7885   */\n      0x02\n        /* \"#utility.yul\":7878:7882   */\n      dup3\n        /* \"#utility.yul\":7874:7886   */\n      div\n        /* \"#utility.yul\":7864:7886   */\n      swap1\n      pop\n        /* \"#utility.yul\":7931:7932   */\n      0x01\n        /* \"#utility.yul\":7925:7929   */\n      dup3\n        /* \"#utility.yul\":7921:7933   */\n      and\n        /* \"#utility.yul\":7952:7970   */\n      dup1\n        /* \"#utility.yul\":7942:8023   */\n      tag_239\n      jumpi\n        /* \"#utility.yul\":8008:8012   */\n      0x7f\n        /* \"#utility.yul\":8000:8006   */\n      dup3\n        /* \"#utility.yul\":7996:8013   */\n      and\n        /* \"#utility.yul\":7986:8013   */\n      swap2\n      pop\n        /* \"#utility.yul\":7942:8023   */\n    tag_239:\n        /* \"#utility.yul\":8070:8072   */\n      0x20\n        /* \"#utility.yul\":8062:8068   */\n      dup3\n        /* \"#utility.yul\":8059:8073   */\n      lt\n        /* \"#utility.yul\":8039:8057   */\n      dup2\n        /* \"#utility.yul\":8036:8074   */\n      sub\n        /* \"#utility.yul\":8033:8117   */\n      tag_240\n      jumpi\n        /* \"#utility.yul\":8089:8107   */\n      tag_241\n      tag_130\n      jump\t// in\n    tag_241:\n        /* \"#utility.yul\":8033:8117   */\n    tag_240:\n        /* \"#utility.yul\":7854:8123   */\n      pop\n        /* \"#utility.yul\":7803:8123   */\n      swap2\n      swap1\n      pop\n      jump\t// out\n        /* \"#utility.yul\":8129:8270   */\n    tag_131:\n        /* \"#utility.yul\":8178:8182   */\n      0x00\n        /* \"#utility.yul\":8201:8204   */\n      dup2\n        /* \"#utility.yul\":8193:8204   */\n      swap1\n      pop\n        /* \"#utility.yul\":8224:8227   */\n      dup2\n        /* \"#utility.yul\":8221:8222   */\n      0x00\n        /* \"#utility.yul\":8214:8228   */\n      mstore\n        /* \"#utility.yul\":8258:8262   */\n      0x20\n        /* \"#utility.yul\":8255:8256   */\n      0x00\n        /* \"#utility.yul\":8245:8263   */\n      keccak256\n        /* \"#utility.yul\":8237:8263   */\n      swap1\n      pop\n        /* \"#utility.yul\":8129:8270   */\n      swap2\n      swap1\n      pop\n      jump\t// out\n        /* \"#utility.yul\":8276:8369   */\n    tag_132:\n        /* \"#utility.yul\":8313:8319   */\n      0x00\n        /* \"#utility.yul\":8360:8362   */\n      0x20\n        /* \"#utility.yul\":8355:8357   */\n      0x1f\n        /* \"#utility.yul\":8348:8353   */\n      dup4\n        /* \"#utility.yul\":8344:8358   */\n      add\n        /* \"#utility.yul\":8340:8363   */\n      div\n        /* \"#utility.yul\":8330:8363   */\n      swap1\n      pop\n        /* \"#utility.yul\":8276:8369   */\n      swap2\n      swap1\n      pop\n      jump\t// out\n        /* \"#utility.yul\":8375:8482   */\n    tag_133:\n        /* \"#utility.yul\":8419:8427   */\n      0x00\n        /* \"#utility.yul\":8469:8474   */\n      dup3\n        /* \"#utility.yul\":8463:8467   */\n      dup3\n        /* \"#utility.yul\":8459:8475   */\n      shl\n        /* \"#utility.yul\":8438:8475   */\n      swap1\n      pop\n        /* \"#utility.yul\":8375:8482   */\n      swap3\n      swap2\n      pop\n      pop\n      jump\t// out\n        /* \"#utility.yul\":8488:8881   */\n    tag_134:\n        /* \"#utility.yul\":8557:8563   */\n      0x00\n        /* \"#utility.yul\":8607:8608   */\n      0x08\n        /* \"#utility.yul\":8595:8605   */\n      dup4\n        /* \"#utility.yul\":8591:8609   */\n      mul\n        /* \"#utility.yul\":8630:8727   */\n      tag_246\n        /* \"#utility.yul\":8660:8726   */\n      0xffffffffffffffffffffffffffffffffffffffffffffffffffffffffffffffff\n        /* \"#utility.yul\":8649:8658   */\n      dup3\n        /* \"#utility.yul\":8630:8727   */\n      tag_133\n      jump\t// in\n    tag_246:\n        /* \"#utility.yul\":8748:8787   */\n      tag_247\n        /* \"#utility.yul\":8778:8786   */\n      dup7\n        /* \"#utility.yul\":8767:8776   */\n      dup4\n        /* \"#utility.yul\":8748:8787   */\n      tag_133\n      jump\t// in\n    tag_247:\n        /* \"#utility.yul\":8736:8787   */\n      swap6\n      pop\n        /* \"#utility.yul\":8820:8824   */\n      dup1\n        /* \"#utility.yul\":8816:8825   */\n      not\n        /* \"#utility.yul\":8809:8814   */\n      dup5\n        /* \"#utility.yul\":8805:8826   */\n      and\n        /* \"#utility.yul\":8796:8826   */\n      swap4\n      pop\n        /* \"#utility.yul\":8869:8873   */\n      dup1\n        /* \"#utility.yul\":8859:8867   */\n      dup7\n        /* \"#utility.yul\":8855:8874   */\n      and\n        /* \"#utility.yul\":8848:8853   */\n      dup5\n        /* \"#utility.yul\":8845:8875   */\n      or\n        /* \"#utility.yul\":8835:8875   */\n      swap3\n      pop\n        /* \"#utility.yul\":8564:8881   */\n      pop\n      pop\n        /* \"#utility.yul\":8488:8881   */\n      swap4\n      swap3\n      pop\n      pop\n      pop\n      jump\t// out\n        /* \"#utility.yul\":8887:8947   */\n    tag_135:\n        /* \"#utility.yul\":8915:8918   */\n      0x00\n        /* \"#utility.yul\":8936:8941   */\n      dup2\n        /* \"#utility.yul\":8929:8941   */\n      swap1\n      pop\n        /* \"#utility.yul\":8887:8947   */\n      swap2\n      swap1\n      pop\n      jump\t// out\n        /* \"#utility.yul\":8953:9095   */\n    tag_136:\n        /* \"#utility.yul\":9003:9012   */\n      0x00\n        /* \"#utility.yul\":9036:9089   */\n      tag_250\n        /* \"#utility.yul\":9054:9088   */\n      tag_251\n        /* \"#utility.yul\":9063:9087   */\n      tag_252\n        /* \"#utility.yul\":9081:9086   */\n      dup5\n        /* \"#utility.yul\":9063:9087   */\n      tag_102\n      jump\t// in\n    tag_252:\n        /* \"#utility.yul\":9054:9088   */\n      tag_135\n      jump\t// in\n    tag_251:\n        /* \"#utility.yul\":9036:9089   */\n      tag_102\n      jump\t// in\n    tag_250:\n        /* \"#utility.yul\":9023:9089   */\n      swap1\n      pop\n        /* \"#utility.yul\":8953:9095   */\n      swap2\n      swap1\n      pop\n      jump\t// out\n        /* \"#utility.yul\":9101:9176   */\n    tag_137:\n        /* \"#utility.yul\":9144:9147   */\n      0x00\n        /* \"#utility.yul\":9165:9170   */\n      dup2\n        /* \"#utility.yul\":9158:9170   */\n      swap1\n      pop\n        /* \"#utility.yul\":9101:9176   */\n      swap2\n      swap1\n      pop\n      jump\t// out\n        /* \"#utility.yul\":9182:9451   */\n    tag_138:\n        /* \"#utility.yul\":9292:9331   */\n      tag_255\n        /* \"#utility.yul\":9323:9330   */\n      dup4\n        /* \"#utility.yul\":9292:9331   */\n      tag_136\n      jump\t// in\n    tag_255:\n        /* \"#utility.yul\":9353:9444   */\n      tag_256\n        /* \"#utility.yul\":9402:9443   */\n      tag_257\n        /* \"#utility.yul\":9426:9442   */\n      dup3\n        /* \"#utility.yul\":9402:9443   */\n      tag_137\n      jump\t// in\n    tag_257:\n        /* \"#utility.yul\":9394:9400   */\n      dup5\n        /* \"#utility.yul\":9387:9391   */\n      dup5\n        /* \"#utility.yul\":9381:9392   */\n      sload\n        /* \"#utility.yul\":9353:9444   */\n      tag_134\n      jump\t// in\n    tag_256:\n        /* \"#utility.yul\":9347:9351   */\n      dup3\n        /* \"#utility.yul\":9340:9445   */\n      sstore\n        /* \"#utility.yul\":9258:9451   */\n      pop\n        /* \"#utility.yul\":9182:9451   */\n      pop\n      pop\n      pop\n      jump\t// out\n        /* \"#utility.yul\":9457:9530   */\n    tag_139:\n        /* \"#utility.yul\":9502:9505   */\n      0x00\n        /* \"#utility.yul\":9523:9524   */\n      0x00\n        /* \"#utility.yul\":9516:9524   */\n      swap1\n      pop\n        /* \"#utility.yul\":9457:9530   */\n      swap1\n      jump\t// out\n        /* \"#utility.yul\":9536:9725   */\n    tag_140:\n        /* \"#utility.yul\":9613:9645   */\n      tag_260\n      tag_139\n      jump\t// in\n    tag_260:\n        /* \"#utility.yul\":9654:9719   */\n      tag_261\n        /* \"#utility.yul\":9712:9718   */\n      dup2\n        /* \"#utility.yul\":9704:9710   */\n      dup5\n        /* \"#utility.yul\":9698:9702   */\n      dup5\n        /* \"#utility.yul\":9654:9719   */\n      tag_138\n      jump\t// in\n    tag_261:\n        /* \"#utility.yul\":9589:9725   */\n      pop\n        /* \"#utility.yul\":9536:9725   */\n      pop\n      pop\n      jump\t// out\n        /* \"#utility.yul\":9731:9917   */\n    tag_141:\n        /* \"#utility.yul\":9791:9911   */\n    tag_263:\n        /* \"#utility.yul\":9808:9811   */\n      dup2\n        /* \"#utility.yul\":9801:9806   */\n      dup2\n        /* \"#utility.yul\":9798:9812   */\n      lt\n        /* \"#utility.yul\":9791:9911   */\n      iszero\n      tag_265\n      jumpi\n        /* \"#utility.yul\":9862:9901   */\n      tag_266\n        /* \"#utility.yul\":9899:9900   */\n      0x00\n        /* \"#utility.yul\":9892:9897   */\n      dup3\n        /* \"#utility.yul\":9862:9901   */\n      tag_140\n      jump\t// in\n    tag_266:\n        /* \"#utility.yul\":9835:9836   */\n      0x01\n        /* \"#utility.yul\":9828:9833   */\n      dup2\n        /* \"#utility.yul\":9824:9837   */\n      add\n        /* \"#utility.yul\":9815:9837   */\n      swap1\n      pop\n        /* \"#utility.yul\":9791:9911   */\n      jump(tag_263)\n    tag_265:\n        /* \"#utility.yul\":9731:9917   */\n      pop\n      pop\n      jump\t// out\n        /* \"#utility.yul\":9923:10466   */\n    tag_142:\n        /* \"#utility.yul\":10024:10026   */\n      0x1f\n        /* \"#utility.yul\":10019:10022   */\n      dup3\n        /* \"#utility.yul\":10016:10027   */\n      gt\n        /* \"#utility.yul\":10013:10459   */\n      iszero\n      tag_268\n      jumpi\n        /* \"#utility.yul\":10058:10096   */\n      tag_269\n        /* \"#utility.yul\":10090:10095   */\n      dup2\n        /* \"#utility.yul\":10058:10096   */\n      tag_131\n      jump\t// in\n    tag_269:\n        /* \"#utility.yul\":10142:10171   */\n      tag_270\n        /* \"#utility.yul\":10160:10170   */\n      dup5\n        /* \"#utility.yul\":10142:10171   */\n      tag_132\n      jump\t// in\n    tag_270:\n        /* \"#utility.yul\":10132:10140   */\n      dup2\n        /* \"#utility.yul\":10128:10172   */\n      add\n        /* \"#utility.yul\":10325:10327   */\n      0x20\n        /* \"#utility.yul\":10313:10323   */\n      dup6\n        /* \"#utility.yul\":10310:10328   */\n      lt\n        /* \"#utility.yul\":10307:10356   */\n      iszero\n      tag_271\n      jumpi\n        /* \"#utility.yul\":10346:10354   */\n      dup2\n        /* \"#utility.yul\":10331:10354   */\n      swap1\n      pop\n        /* \"#utility.yul\":10307:10356   */\n    tag_271:\n        /* \"#utility.yul\":10369:10449   */\n      tag_272\n        /* \"#utility.yul\":10425:10447   */\n      tag_273\n        /* \"#utility.yul\":10443:10446   */\n      dup6\n        /* \"#utility.yul\":10425:10447   */\n      tag_132\n      jump\t// in\n    tag_273:\n        /* \"#utility.yul\":10415:10423   */\n      dup4\n        /* \"#utility.yul\":10411:10448   */\n      add\n        /* \"#utility.yul\":10398:10409   */\n      dup3\n        /* \"#utility.yul\":10369:10449   */\n      tag_141\n      jump\t// in\n    tag_272:\n        /* \"#utility.yul\":10028:10459   */\n      pop\n      pop\n        /* \"#utility.yul\":10013:10459   */\n    tag_268:\n        /* \"#utility.yul\":9923:10466   */\n      pop\n      pop\n      pop\n      jump\t// out\n        /* \"#utility.yul\":10472:10589   */\n    tag_143:\n        /* \"#utility.yul\":10526:10534   */\n      0x00\n        /* \"#utility.yul\":10576:10581   */\n      dup3\n        /* \"#utility.yul\":10570:10574   */\n      dup3\n        /* \"#utility.yul\":10566:10582   */\n      shr\n        /* \"#utility.yul\":10545:10582   */\n      swap1\n      pop\n        /* \"#utility.yul\":10472:10589   */\n      swap3\n      swap2\n      pop\n      pop\n      jump\t// out\n        /* \"#utility.yul\":10595:10764   */\n    tag_144:\n        /* \"#utility.yul\":10639:10645   */\n      0x00\n        /* \"#utility.yul\":10672:10723   */\n      tag_276\n        /* \"#utility.yul\":10720:10721   */\n      0x00\n        /* \"#utility.yul\":10716:10722   */\n      not\n        /* \"#utility.yul\":10708:10713   */\n      dup5\n        /* \"#utility.yul\":10705:10706   */\n      0x08\n        /* \"#utility.yul\":10701:10714   */\n      mul\n        /* \"#utility.yul\":10672:10723   */\n      tag_143\n      jump\t// in\n    tag_276:\n        /* \"#utility.yul\":10668:10724   */\n      not\n        /* \"#utility.yul\":10753:10757   */\n      dup1\n        /* \"#utility.yul\":10747:10751   */\n      dup4\n        /* \"#utility.yul\":10743:10758   */\n      and\n        /* \"#utility.yul\":10733:10758   */\n      swap2\n      pop\n        /* \"#utility.yul\":10646:10764   */\n      pop\n        /* \"#utility.yul\":10595:10764   */\n      swap3\n      swap2\n      pop\n      pop\n      jump\t// out\n        /* \"#utility.yul\":10769:11064   */\n    tag_145:\n        /* \"#utility.yul\":10845:10849   */\n      0x00\n        /* \"#utility.yul\":10991:11020   */\n      tag_278\n        /* \"#utility.yul\":11016:11019   */\n      dup4\n        /* \"#utility.yul\":11010:11014   */\n      dup4\n        /* \"#utility.yul\":10991:11020   */\n      tag_144\n      jump\t// in\n    tag_278:\n        /* \"#utility.yul\":10983:11020   */\n      swap2\n      pop\n        /* \"#utility.yul\":11053:11056   */\n      dup3\n        /* \"#utility.yul\":11050:11051   */\n      0x02\n        /* \"#utility.yul\":11046:11057   */\n      mul\n        /* \"#utility.yul\":11040:11044   */\n      dup3\n        /* \"#utility.yul\":11037:11058   */\n      or\n        /* \"#utility.yul\":11029:11058   */\n      swap1\n      pop\n        /* \"#utility.yul\":10769:11064   */\n      swap3\n      swap2\n      pop\n      pop\n      jump\t// out\n        /* \"#utility.yul\":11069:12464   */\n    tag_75:\n        /* \"#utility.yul\":11186:11223   */\n      tag_280\n        /* \"#utility.yul\":11219:11222   */\n      dup3\n        /* \"#utility.yul\":11186:11223   */\n      tag_114\n      jump\t// in\n    tag_280:\n        /* \"#utility.yul\":11288:11306   */\n      0xffffffffffffffff\n        /* \"#utility.yul\":11280:11286   */\n      dup2\n        /* \"#utility.yul\":11277:11307   */\n      gt\n        /* \"#utility.yul\":11274:11330   */\n      iszero\n      tag_281\n      jumpi\n        /* \"#utility.yul\":11310:11328   */\n      tag_282\n      tag_121\n      jump\t// in\n    tag_282:\n        /* \"#utility.yul\":11274:11330   */\n    tag_281:\n        /* \"#utility.yul\":11354:11392   */\n      tag_283\n        /* \"#utility.yul\":11386:11390   */\n      dup3\n        /* \"#utility.yul\":11380:11391   */\n      sload\n        /* \"#utility.yul\":11354:11392   */\n      tag_67\n      jump\t// in\n    tag_283:\n        /* \"#utility.yul\":11439:11506   */\n      tag_284\n        /* \"#utility.yul\":11499:11505   */\n      dup3\n        /* \"#utility.yul\":11491:11497   */\n      dup3\n        /* \"#utility.yul\":11485:11489   */\n      dup6\n        /* \"#utility.yul\":11439:11506   */\n      tag_142\n      jump\t// in\n    tag_284:\n        /* \"#utility.yul\":11533:11534   */\n      0x00\n        /* \"#utility.yul\":11557:11561   */\n      0x20\n        /* \"#utility.yul\":11544:11561   */\n      swap1\n      pop\n        /* \"#utility.yul\":11589:11591   */\n      0x1f\n        /* \"#utility.yul\":11581:11587   */\n      dup4\n        /* \"#utility.yul\":11578:11592   */\n      gt\n        /* \"#utility.yul\":11606:11607   */\n      0x01\n        /* \"#utility.yul\":11601:12219   */\n      dup2\n      eq\n      tag_286\n      jumpi\n        /* \"#utility.yul\":12263:12264   */\n      0x00\n        /* \"#utility.yul\":12280:12286   */\n      dup5\n        /* \"#utility.yul\":12277:12354   */\n      iszero\n      tag_287\n      jumpi\n        /* \"#utility.yul\":12329:12338   */\n      dup3\n        /* \"#utility.yul\":12324:12327   */\n      dup8\n        /* \"#utility.yul\":12320:12339   */\n      add\n        /* \"#utility.yul\":12314:12340   */\n      mload\n        /* \"#utility.yul\":12305:12340   */\n      swap1\n      pop\n        /* \"#utility.yul\":12277:12354   */\n    tag_287:\n        /* \"#utility.yul\":12380:12447   */\n      tag_288\n        /* \"#utility.yul\":12440:12446   */\n      dup6\n        /* \"#utility.yul\":12433:12438   */\n      dup3\n        /* \"#utility.yul\":12380:12447   */\n      tag_145\n      jump\t// in\n    tag_288:\n        /* \"#utility.yul\":12374:12378   */\n      dup7\n        /* \"#utility.yul\":12367:12448   */\n      sstore\n        /* \"#utility.yul\":12236:12458   */\n      pop\n        /* \"#utility.yul\":11571:12458   */\n      jump(tag_285)\n        /* \"#utility.yul\":11601:12219   */\n    tag_286:\n        /* \"#utility.yul\":11653:11657   */\n      0x1f\n        /* \"#utility.yul\":11649:11658   */\n      not\n        /* \"#utility.yul\":11641:11647   */\n      dup5\n        /* \"#utility.yul\":11637:11659   */\n      and\n        /* \"#utility.yul\":11687:11724   */\n      tag_289\n        /* \"#utility.yul\":11719:11723   */\n      dup7\n        /* \"#utility.yul\":11687:11724   */\n      tag_131\n      jump\t// in\n    tag_289:\n        /* \"#utility.yul\":11746:11747   */\n      0x00\n        /* \"#utility.yul\":11760:11968   */\n    tag_290:\n        /* \"#utility.yul\":11774:11781   */\n      dup3\n        /* \"#utility.yul\":11771:11772   */\n      dup2\n        /* \"#utility.yul\":11768:11782   */\n      lt\n        /* \"#utility.yul\":11760:11968   */\n      iszero\n      tag_292\n      jumpi\n        /* \"#utility.yul\":11853:11862   */\n      dup5\n        /* \"#utility.yul\":11848:11851   */\n      dup10\n        /* \"#utility.yul\":11844:11863   */\n      add\n        /* \"#utility.yul\":11838:11864   */\n      mload\n        /* \"#utility.yul\":11830:11836   */\n      dup3\n        /* \"#utility.yul\":11823:11865   */\n      sstore\n        /* \"#utility.yul\":11904:11905   */\n      0x01\n        /* \"#utility.yul\":11896:11902   */\n      dup3\n        /* \"#utility.yul\":11892:11906   */\n      add\n        /* \"#utility.yul\":11882:11906   */\n      swap2\n      pop\n        /* \"#utility.yul\":11951:11953   */\n      0x20\n        /* \"#utility.yul\":11940:11949   */\n      dup6\n        /* \"#utility.yul\":11936:11954   */\n      add\n        /* \"#utility.yul\":11923:11954   */\n      swap5\n      pop\n        /* \"#utility.yul\":11797:11801   */\n      0x20\n        /* \"#utility.yul\":11794:11795   */\n      dup2\n        /* \"#utility.yul\":11790:11802   */\n      add\n        /* \"#utility.yul\":11785:11802   */\n      swap1\n      pop\n        /* \"#utility.yul\":11760:11968   */\n      jump(tag_290)\n    tag_292:\n        /* \"#utility.yul\":11996:12002   */\n      dup7\n        /* \"#utility.yul\":11987:11994   */\n      dup4\n        /* \"#utility.yul\":11984:12003   */\n      lt\n        /* \"#utility.yul\":11981:12160   */\n      iszero\n      tag_293\n      jumpi\n        /* \"#utility.yul\":12054:12063   */\n      dup5\n        /* \"#utility.yul\":12049:12052   */\n      dup10\n        /* \"#utility.yul\":12045:12064   */\n      add\n        /* \"#utility.yul\":12039:12065   */\n      mload\n        /* \"#utility.yul\":12097:12145   */\n      tag_294\n        /* \"#utility.yul\":12139:12143   */\n      0x1f\n        /* \"#utility.yul\":12131:12137   */\n      dup10\n        /* \"#utility.yul\":12127:12144   */\n      and\n        /* \"#utility.yul\":12116:12125   */\n      dup3\n        /* \"#utility.yul\":12097:12145   */\n      tag_144\n      jump\t// in\n    tag_294:\n        /* \"#utility.yul\":12089:12095   */\n      dup4\n        /* \"#utility.yul\":12082:12146   */\n      sstore\n        /* \"#utility.yul\":12004:12160   */\n      pop\n        /* \"#utility.yul\":11981:12160   */\n    tag_293:\n        /* \"#utility.yul\":12206:12207   */\n      0x01\n        /* \"#utility.yul\":12202:12203   */\n      0x02\n        /* \"#utility.yul\":12194:12200   */\n      dup9\n        /* \"#utility.yul\":12190:12204   */\n      mul\n        /* \"#utility.yul\":12186:12208   */\n      add\n        /* \"#utility.yul\":12180:12184   */\n      dup9\n        /* \"#utility.yul\":12173:12209   */\n      sstore\n        /* \"#utility.yul\":11608:12219   */\n      pop\n      pop\n      pop\n        /* \"#utility.yul\":11571:12458   */\n    tag_285:\n      pop\n        /* \"#utility.yul\":11161:12464   */\n      pop\n      pop\n      pop\n        /* \"#utility.yul\":11069:12464   */\n      pop\n      pop\n      jump\t// out\n        /* \"#utility.yul\":12470:12893   */\n    tag_77:\n        /* \"#utility.yul\":12611:12615   */\n      0x00\n        /* \"#utility.yul\":12649:12651   */\n      0x40\n        /* \"#utility.yul\":12638:12647   */\n      dup3\n        /* \"#utility.yul\":12634:12652   */\n      add\n        /* \"#utility.yul\":12626:12652   */\n      swap1\n      pop\n        /* \"#utility.yul\":12662:12733   */\n      tag_296\n        /* \"#utility.yul\":12730:12731   */\n      0x00\n        /* \"#utility.yul\":12719:12728   */\n      dup4\n        /* \"#utility.yul\":12715:12732   */\n      add\n        /* \"#utility.yul\":12706:12712   */\n      dup6\n        /* \"#utility.yul\":12662:12733   */\n      tag_113\n      jump\t// in\n    tag_296:\n        /* \"#utility.yul\":12780:12789   */\n      dup2\n        /* \"#utility.yul\":12774:12778   */\n      dup2\n        /* \"#utility.yul\":12770:12790   */\n      sub\n        /* \"#utility.yul\":12765:12767   */\n      0x20\n        /* \"#utility.yul\":12754:12763   */\n      dup4\n        /* \"#utility.yul\":12750:12768   */\n      add\n        /* \"#utility.yul\":12743:12791   */\n      mstore\n        /* \"#utility.yul\":12808:12886   */\n      tag_297\n        /* \"#utility.yul\":12881:12885   */\n      dup2\n        /* \"#utility.yul\":12872:12878   */\n      dup5\n        /* \"#utility.yul\":12808:12886   */\n      tag_118\n      jump\t// in\n    tag_297:\n        /* \"#utility.yul\":12800:12886   */\n      swap1\n      pop\n        /* \"#utility.yul\":12470:12893   */\n      swap4\n      swap3\n      pop\n      pop\n      pop\n      jump\t// out\n        /* \"#utility.yul\":12899:13060   */\n    tag_146:\n        /* \"#utility.yul\":13039:13052   */\n      0x4f6e6c792074656e616e74000000000000000000000000000000000000000000\n        /* \"#utility.yul\":13035:13036   */\n      0x00\n        /* \"#utility.yul\":13027:13033   */\n      dup3\n        /* \"#utility.yul\":13023:13037   */\n      add\n        /* \"#utility.yul\":13016:13053   */\n      mstore\n        /* \"#utility.yul\":12899:13060   */\n      pop\n      jump\t// out\n        /* \"#utility.yul\":13066:13432   */\n    tag_147:\n        /* \"#utility.yul\":13208:13211   */\n      0x00\n        /* \"#utility.yul\":13229:13296   */\n      tag_300\n        /* \"#utility.yul\":13293:13295   */\n      0x0b\n        /* \"#utility.yul\":13288:13291   */\n      dup4\n        /* \"#utility.yul\":13229:13296   */\n      tag_115\n      jump\t// in\n    tag_300:\n        /* \"#utility.yul\":13222:13296   */\n      swap2\n      pop\n        /* \"#utility.yul\":13305:13398   */\n      tag_301\n        /* \"#utility.yul\":13394:13397   */\n      dup3\n        /* \"#utility.yul\":13305:13398   */\n      tag_146\n      jump\t// in\n    tag_301:\n        /* \"#utility.yul\":13423:13425   */\n      0x20\n        /* \"#utility.yul\":13418:13421   */\n      dup3\n        /* \"#utility.yul\":13414:13426   */\n      add\n        /* \"#utility.yul\":13407:13426   */\n      swap1\n      pop\n        /* \"#utility.yul\":13066:13432   */\n      swap2\n      swap1\n      pop\n      jump\t// out\n        /* \"#utility.yul\":13438:13857   */\n    tag_81:\n        /* \"#utility.yul\":13604:13608   */\n      0x00\n        /* \"#utility.yul\":13642:13644   */\n      0x20\n        /* \"#utility.yul\":13631:13640   */\n      dup3\n        /* \"#utility.yul\":13627:13645   */\n      add\n        /* \"#utility.yul\":13619:13645   */\n      swap1\n      pop\n        /* \"#utility.yul\":13691:13700   */\n      dup2\n        /* \"#utility.yul\":13685:13689   */\n      dup2\n        /* \"#utility.yul\":13681:13701   */\n      sub\n        /* \"#utility.yul\":13677:13678   */\n      0x00\n        /* \"#utility.yul\":13666:13675   */\n      dup4\n        /* \"#utility.yul\":13662:13679   */\n      add\n        /* \"#utility.yul\":13655:13702   */\n      mstore\n        /* \"#utility.yul\":13719:13850   */\n      tag_303\n        /* \"#utility.yul\":13845:13849   */\n      dup2\n        /* \"#utility.yul\":13719:13850   */\n      tag_147\n      jump\t// in\n    tag_303:\n        /* \"#utility.yul\":13711:13850   */\n      swap1\n      pop\n        /* \"#utility.yul\":13438:13857   */\n      swap2\n      swap1\n      pop\n      jump\t// out\n        /* \"#utility.yul\":13863:14027   */\n    tag_148:\n        /* \"#utility.yul\":14003:14019   */\n      0x5061792065786163742072656e74000000000000000000000000000000000000\n        /* \"#utility.yul\":13999:14000   */\n      0x00\n        /* \"#utility.yul\":13991:13997   */\n      dup3\n        /* \"#utility.yul\":13987:14001   */\n      add\n        /* \"#utility.yul\":13980:14020   */\n      mstore\n        /* \"#utility.yul\":13863:14027   */\n      pop\n      jump\t// out\n        /* \"#utility.yul\":14033:14399   */\n    tag_149:\n        /* \"#utility.yul\":14175:14178   */\n      0x00\n        /* \"#utility.yul\":14196:14263   */\n      tag_306\n        /* \"#utility.yul\":14260:14262   */\n      0x0e\n        /* \"#utility.yul\":14255:14258   */\n      dup4\n        /* \"#utility.yul\":14196:14263   */\n      tag_115\n      jump\t// in\n    tag_306:\n        /* \"#utility.yul\":14189:14263   */\n      swap2\n      pop\n        /* \"#utility.yul\":14272:14365   */\n      tag_307\n        /* \"#utility.yul\":14361:14364   */\n      dup3\n        /* \"#utility.yul\":14272:14365   */\n      tag_148\n      jump\t// in\n    tag_307:\n        /* \"#utility.yul\":14390:14392   */\n      0x20\n        /* \"#utility.yul\":14385:14388   */\n      dup3\n        /* \"#utility.yul\":14381:14393   */\n      add\n        /* \"#utility.yul\":14374:14393   */\n      swap1\n      pop\n        /* \"#utility.yul\":14033:14399   */\n      swap2\n      swap1\n      pop\n      jump\t// out\n        /* \"#utility.yul\":14405:14824   */\n    tag_84:\n        /* \"#utility.yul\":14571:14575   */\n      0x00\n        /* \"#utility.yul\":14609:14611   */\n      0x20\n        /* \"#utility.yul\":14598:14607   */\n      dup3\n        /* \"#utility.yul\":14594:14612   */\n      add\n        /* \"#utility.yul\":14586:14612   */\n      swap1\n      pop\n        /* \"#utility.yul\":14658:14667   */\n      dup2\n        /* \"#utility.yul\":14652:14656   */\n      dup2\n        /* \"#utility.yul\":14648:14668   */\n      sub\n        /* \"#utility.yul\":14644:14645   */\n      0x00\n        /* \"#utility.yul\":14633:14642   */\n      dup4\n        /* \"#utility.yul\":14629:14646   */\n      add\n        /* \"#utility.yul\":14622:14669   */\n      mstore\n        /* \"#utility.yul\":14686:14817   */\n      tag_309\n        /* \"#utility.yul\":14812:14816   */\n      dup2\n        /* \"#utility.yul\":14686:14817   */\n      tag_149\n      jump\t// in\n    tag_309:\n        /* \"#utility.yul\":14678:14817   */\n      swap1\n      pop\n        /* \"#utility.yul\":14405:14824   */\n      swap2\n      swap1\n      pop\n      jump\t// out\n        /* \"#utility.yul\":14830:15010   */\n    tag_150:\n        /* \"#utility.yul\":14878:14955   */\n      0x4e487b7100000000000000000000000000000000000000000000000000000000\n        /* \"#utility.yul\":14875:14876   */\n      0x00\n        /* \"#utility.yul\":14868:14956   */\n      mstore\n        /* \"#utility.yul\":14975:14979   */\n      0x11\n        /* \"#utility.yul\":14972:14973   */\n      0x04\n        /* \"#utility.yul\":14965:14980   */\n      mstore\n        /* \"#utility.yul\":14999:15003   */\n      0x24\n        /* \"#utility.yul\":14996:14997   */\n      0x00\n        /* \"#utility.yul\":14989:15004   */\n      revert\n        /* \"#utility.yul\":15016:15207   */\n    tag_86:\n        /* \"#utility.yul\":15056:15059   */\n      0x00\n        /* \"#utility.yul\":15075:15095   */\n      tag_312\n        /* \"#utility.yul\":15093:15094   */\n      dup3\n        /* \"#utility.yul\":15075:15095   */\n      tag_102\n      jump\t// in\n    tag_312:\n        /* \"#utility.yul\":15070:15095   */\n      swap2\n      pop\n        /* \"#utility.yul\":15109:15129   */\n      tag_313\n        /* \"#utility.yul\":15127:15128   */\n      dup4\n        /* \"#utility.yul\":15109:15129   */\n      tag_102\n      jump\t// in\n    tag_313:\n        /* \"#utility.yul\":15104:15129   */\n      swap3\n      pop\n        /* \"#utility.yul\":15152:15153   */\n      dup3\n        /* \"#utility.yul\":15149:15150   */\n      dup3\n        /* \"#utility.yul\":15145:15154   */\n      add\n        /* \"#utility.yul\":15138:15154   */\n      swap1\n      pop\n        /* \"#utility.yul\":15173:15176   */\n      dup1\n        /* \"#utility.yul\":15170:15171   */\n      dup3\n        /* \"#utility.yul\":15167:15177   */\n      gt\n        /* \"#utility.yul\":15164:15200   */\n      iszero\n      tag_314\n      jumpi\n        /* \"#utility.yul\":15180:15198   */\n      tag_315\n      tag_150\n      jump\t// in\n    tag_315:\n        /* \"#utility.yul\":15164:15200   */\n    tag_314:\n        /* \"#utility.yul\":15016:15207   */\n      swap3\n      swap2\n      pop\n      pop\n      jump\t// out\n        /* \"#utility.yul\":15213:15545   */\n    tag_88:\n        /* \"#utility.yul\":15334:15338   */\n      0x00\n        /* \"#utility.yul\":15372:15374   */\n      0x40\n        /* \"#utility.yul\":15361:15370   */\n      dup3\n        /* \"#utility.yul\":15357:15375   */\n      add\n        /* \"#utility.yul\":15349:15375   */\n      swap1\n      pop\n        /* \"#utility.yul\":15385:15456   */\n      tag_317\n        /* \"#utility.yul\":15453:15454   */\n      0x00\n        /* \"#utility.yul\":15442:15451   */\n      dup4\n        /* \"#utility.yul\":15438:15455   */\n      add\n        /* \"#utility.yul\":15429:15435   */\n      dup6\n        /* \"#utility.yul\":15385:15456   */\n      tag_113\n      jump\t// in\n    tag_317:\n        /* \"#utility.yul\":15466:15538   */\n      tag_318\n        /* \"#utility.yul\":15534:15536   */\n      0x20\n        /* \"#utility.yul\":15523:15532   */\n      dup4\n        /* \"#utility.yul\":15519:15537   */\n      add\n        /* \"#utility.yul\":15510:15516   */\n      dup5\n        /* \"#utility.yul\":15466:15538   */\n      tag_103\n      jump\t// in\n    tag_318:\n        /* \"#utility.yul\":15213:15545   */\n      swap4\n      swap3\n      pop\n      pop\n      pop\n      jump\t// out\n        /* \"#utility.yul\":15551:15710   */\n    tag_151:\n        /* \"#utility.yul\":15691:15702   */\n      0x62616420696e6465780000000000000000000000000000000000000000000000\n        /* \"#utility.yul\":15687:15688   */\n      0x00\n        /* \"#utility.yul\":15679:15685   */\n      dup3\n        /* \"#utility.yul\":15675:15689   */\n      add\n        /* \"#utility.yul\":15668:15703   */\n      mstore\n        /* \"#utility.yul\":15551:15710   */\n      pop\n      jump\t// out\n        /* \"#utility.yul\":15716:16081   */\n    tag_152:\n        /* \"#utility.yul\":15858:15861   */\n      0x00\n        /* \"#utility.yul\":15879:15945   */\n      tag_321\n        /* \"#utility.yul\":15943:15944   */\n      0x09\n        /* \"#utility.yul\":15938:15941   */\n      dup4\n        /* \"#utility.yul\":15879:15945   */\n      tag_115\n      jump\t// in\n    tag_321:\n        /* \"#utility.yul\":15872:15945   */\n      swap2\n      pop\n        /* \"#utility.yul\":15954:16047   */\n      tag_322\n        /* \"#utility.yul\":16043:16046   */\n      dup3\n        /* \"#utility.yul\":15954:16047   */\n      tag_151\n      jump\t// in\n    tag_322:\n        /* \"#utility.yul\":16072:16074   */\n      0x20\n        /* \"#utility.yul\":16067:16070   */\n      dup3\n        /* \"#utility.yul\":16063:16075   */\n      add\n        /* \"#utility.yul\":16056:16075   */\n      swap1\n      pop\n        /* \"#utility.yul\":15716:16081   */\n      swap2\n      swap1\n      pop\n      jump\t// out\n        /* \"#utility.yul\":16087:16506   */\n    tag_92:\n        /* \"#utility.yul\":16253:16257   */\n      0x00\n        /* \"#utility.yul\":16291:16293   */\n      0x20\n        /* \"#utility.yul\":16280:16289   */\n      dup3\n        /* \"#utility.yul\":16276:16294   */\n      add\n        /* \"#utility.yul\":16268:16294   */\n      swap1\n      pop\n        /* \"#utility.yul\":16340:16349   */\n      dup2\n        /* \"#utility.yul\":16334:16338   */\n      dup2\n        /* \"#utility.yul\":16330:16350   */\n      sub\n        /* \"#utility.yul\":16326:16327   */\n      0x00\n        /* \"#utility.yul\":16315:16324   */\n      dup4\n        /* \"#utility.yul\":16311:16328   */\n      add\n        /* \"#utility.yul\":16304:16351   */\n      mstore\n        /* \"#utility.yul\":16368:16499   */\n      tag_324\n        /* \"#utility.yul\":16494:16498   */\n      dup2\n        /* \"#utility.yul\":16368:16499   */\n      tag_152\n      jump\t// in\n    tag_324:\n        /* \"#utility.yul\":16360:16499   */\n      swap1\n      pop\n        /* \"#utility.yul\":16087:16506   */\n      swap2\n      swap1\n      pop\n      jump\t// out\n        /* \"#utility.yul\":16512:16692   */\n    tag_95:\n        /* \"#utility.yul\":16560:16637   */\n      0x4e487b7100000000000000000000000000000000000000000000000000000000\n        /* \"#utility.yul\":16557:16558   */\n      0x00\n        /* \"#utility.yul\":16550:16638   */\n      mstore\n        /* \"#utility.yul\":16657:16661   */\n      0x32\n        /* \"#utility.yul\":16654:16655   */\n      0x04\n        /* \"#utility.yul\":16647:16662   */\n      mstore\n        /* \"#utility.yul\":16681:16685   */\n      0x24\n        /* \"#utility.yul\":16678:16679   */\n      0x00\n        /* \"#utility.yul\":16671:16686   */\n      revert\n\n    auxdata: 0xa26469706673582212207959231a48d1df922c816a1b2b962a99e6b4405e559c084d80e8031f5d769a2c64736f6c634300081e0033\n}\n",
				"bytecode": {
					"linkReferences": {},
					"object": "608060405234801561000f575f5ffd5b506040516112f03803806112f08339818101604052810190610031919061014f565b335f5f6101000a81548173ffffffffffffffffffffffffffffffffffffffff021916908373ffffffffffffffffffffffffffffffffffffffff1602179055508160015f6101000a81548173ffffffffffffffffffffffffffffffffffffffff021916908373ffffffffffffffffffffffffffffffffffffffff16021790555080600281905550505061018d565b5f5ffd5b5f73ffffffffffffffffffffffffffffffffffffffff82169050919050565b5f6100eb826100c2565b9050919050565b6100fb816100e1565b8114610105575f5ffd5b50565b5f81519050610116816100f2565b92915050565b5f819050919050565b61012e8161011c565b8114610138575f5ffd5b50565b5f8151905061014981610125565b92915050565b5f5f60408385031215610165576101646100be565b5b5f61017285828601610108565b92505060206101838582860161013b565b9150509250929050565b6111568061019a5f395ff3fe608060405234801561000f575f5ffd5b50600436106100a7575f3560e01c80638da5cb5b1161006f5780638da5cb5b14610151578063a340cf791461016f578063adf077911461019f578063d9e8843f146101bd578063e3a96cbd146101d9578063fbed1c1c1461020b576100a7565b806310987b77146100ab5780632e74a4de146100c9578063396a05e3146100e5578063564a565d14610103578063725a3b4b14610135575b5f5ffd5b6100b3610229565b6040516100c09190610887565b60405180910390f35b6100e360048036038101906100de919061090b565b610235565b005b6100ed61033d565b6040516100fa9190610887565b60405180910390f35b61011d60048036038101906101189190610960565b6103a2565b60405161012c93929190610a0a565b60405180910390f35b61014f600480360381019061014a9190610b72565b61047c565b005b610159610577565b6040516101669190610bb9565b60405180910390f35b6101896004803603810190610184919061090b565b61059b565b6040516101969190610887565b60405180910390f35b6101a76105b0565b6040516101b49190610bb9565b60405180910390f35b6101d760048036038101906101d29190610960565b6105d5565b005b6101f360048036038101906101ee9190610960565b610737565b60405161020293929190610a0a565b60405180910390f35b610213610869565b6040516102209190610887565b60405180910390f35b5f600480549050905090565b5f5f9054906101000a900473ffffffffffffffffffffffffffffffffffffffff1673ffffffffffffffffffffffffffffffffffffffff163373ffffffffffffffffffffffffffffffffffffffff16146102c3576040517f08c379a00000000000000000000000000000000000000000000000000000000081526004016102ba90610c1c565b60405180910390fd5b8060015f6101000a81548173ffffffffffffffffffffffffffffffffffffffff021916908373ffffffffffffffffffffffffffffffffffffffff1602179055507f1194a56729b56452535002720ecdffccaa0d5e8b4c6c7c25736264c428e6ad8b816040516103329190610bb9565b60405180910390a150565b5f60035f60015f9054906101000a900473ffffffffffffffffffffffffffffffffffffffff1673ffffffffffffffffffffffffffffffffffffffff1673ffffffffffffffffffffffffffffffffffffffff1681526020019081526020015f2054905090565b600481815481106103b1575f80fd5b905f5260205f2090600302015f91509050805f015f9054906101000a900473ffffffffffffffffffffffffffffffffffffffff16908060010180546103f590610c67565b80601f016020809104026020016040519081016040528092919081815260200182805461042190610c67565b801561046c5780601f106104435761010080835404028352916020019161046c565b820191905f5260205f20905b81548152906001019060200180831161044f57829003601f168201915b5050505050908060020154905083565b600460405180606001604052803373ffffffffffffffffffffffffffffffffffffffff16815260200183815260200142815250908060018154018082558091505060019003905f5260205f2090600302015f909190919091505f820151815f015f6101000a81548173ffffffffffffffffffffffffffffffffffffffff021916908373ffffffffffffffffffffffffffffffffffffffff160217905550602082015181600101908161052e9190610e37565b506040820151816002015550507f28b099eb575e23e32becd7c30dc8f9b2f98e370cdbf9841ea3338d9000402a25338260405161056c929190610f06565b60405180910390a150565b5f5f9054906101000a900473ffffffffffffffffffffffffffffffffffffffff1681565b6003602052805f5260405f205f915090505481565b60015f9054906101000a900473ffffffffffffffffffffffffffffffffffffffff1681565b60015f9054906101000a900473ffffffffffffffffffffffffffffffffffffffff1673ffffffffffffffffffffffffffffffffffffffff163373ffffffffffffffffffffffffffffffffffffffff1614610664576040517f08c379a000000000000000000000000000000000000000000000000000000000815260040161065b90610f7e565b60405180910390fd5b60025481146106a8576040517f08c379a000000000000000000000000000000000000000000000000000000000815260040161069f90610fe6565b60405180910390fd5b8060035f3373ffffffffffffffffffffffffffffffffffffffff1673ffffffffffffffffffffffffffffffffffffffff1681526020019081526020015f205f8282546106f49190611031565b925050819055507f03b5033869479e8a98af42b272f05933f60489fe9fb43d63e11a6c31f3fa7474338260405161072c929190611064565b60405180910390a150565b5f60605f6004805490508410610782576040517f08c379a0000000000000000000000000000000000000000000000000000000008152600401610779906110d5565b60405180910390fd5b5f60048581548110610797576107966110f3565b5b905f5260205f2090600302019050805f015f9054906101000a900473ffffffffffffffffffffffffffffffffffffffff168160010182600201548180546107dd90610c67565b80601f016020809104026020016040519081016040528092919081815260200182805461080990610c67565b80156108545780601f1061082b57610100808354040283529160200191610854565b820191905f5260205f20905b81548152906001019060200180831161083757829003601f168201915b50505050509150935093509350509193909250565b60025481565b5f819050919050565b6108818161086f565b82525050565b5f60208201905061089a5f830184610878565b92915050565b5f604051905090565b5f5ffd5b5f5ffd5b5f73ffffffffffffffffffffffffffffffffffffffff82169050919050565b5f6108da826108b1565b9050919050565b6108ea816108d0565b81146108f4575f5ffd5b50565b5f81359050610905816108e1565b92915050565b5f602082840312156109205761091f6108a9565b5b5f61092d848285016108f7565b91505092915050565b61093f8161086f565b8114610949575f5ffd5b50565b5f8135905061095a81610936565b92915050565b5f60208284031215610975576109746108a9565b5b5f6109828482850161094c565b91505092915050565b610994816108d0565b82525050565b5f81519050919050565b5f82825260208201905092915050565b8281835e5f83830152505050565b5f601f19601f8301169050919050565b5f6109dc8261099a565b6109e681856109a4565b93506109f68185602086016109b4565b6109ff816109c2565b840191505092915050565b5f606082019050610a1d5f83018661098b565b8181036020830152610a2f81856109d2565b9050610a3e6040830184610878565b949350505050565b5f5ffd5b5f5ffd5b7f4e487b71000000000000000000000000000000000000000000000000000000005f52604160045260245ffd5b610a84826109c2565b810181811067ffffffffffffffff82111715610aa357610aa2610a4e565b5b80604052505050565b5f610ab56108a0565b9050610ac18282610a7b565b919050565b5f67ffffffffffffffff821115610ae057610adf610a4e565b5b610ae9826109c2565b9050602081019050919050565b828183375f83830152505050565b5f610b16610b1184610ac6565b610aac565b905082815260208101848484011115610b3257610b31610a4a565b5b610b3d848285610af6565b509392505050565b5f82601f830112610b5957610b58610a46565b5b8135610b69848260208601610b04565b91505092915050565b5f60208284031215610b8757610b866108a9565b5b5f82013567ffffffffffffffff811115610ba457610ba36108ad565b5b610bb084828501610b45565b91505092915050565b5f602082019050610bcc5f83018461098b565b92915050565b7f4f6e6c79206f776e6572000000000000000000000000000000000000000000005f82015250565b5f610c06600a836109a4565b9150610c1182610bd2565b602082019050919050565b5f6020820190508181035f830152610c3381610bfa565b9050919050565b7f4e487b71000000000000000000000000000000000000000000000000000000005f52602260045260245ffd5b5f6002820490506001821680610c7e57607f821691505b602082108103610c9157610c90610c3a565b5b50919050565b5f819050815f5260205f209050919050565b5f6020601f8301049050919050565b5f82821b905092915050565b5f60088302610cf37fffffffffffffffffffffffffffffffffffffffffffffffffffffffffffffffff82610cb8565b610cfd8683610cb8565b95508019841693508086168417925050509392505050565b5f819050919050565b5f610d38610d33610d2e8461086f565b610d15565b61086f565b9050919050565b5f819050919050565b610d5183610d1e565b610d65610d5d82610d3f565b848454610cc4565b825550505050565b5f5f905090565b610d7c610d6d565b610d87818484610d48565b505050565b5b81811015610daa57610d9f5f82610d74565b600181019050610d8d565b5050565b601f821115610def57610dc081610c97565b610dc984610ca9565b81016020851015610dd8578190505b610dec610de485610ca9565b830182610d8c565b50505b505050565b5f82821c905092915050565b5f610e0f5f1984600802610df4565b1980831691505092915050565b5f610e278383610e00565b9150826002028217905092915050565b610e408261099a565b67ffffffffffffffff811115610e5957610e58610a4e565b5b610e638254610c67565b610e6e828285610dae565b5f60209050601f831160018114610e9f575f8415610e8d578287015190505b610e978582610e1c565b865550610efe565b601f198416610ead86610c97565b5f5b82811015610ed457848901518255600182019150602085019450602081019050610eaf565b86831015610ef15784890151610eed601f891682610e00565b8355505b6001600288020188555050505b505050505050565b5f604082019050610f195f83018561098b565b8181036020830152610f2b81846109d2565b90509392505050565b7f4f6e6c792074656e616e740000000000000000000000000000000000000000005f82015250565b5f610f68600b836109a4565b9150610f7382610f34565b602082019050919050565b5f6020820190508181035f830152610f9581610f5c565b9050919050565b7f5061792065786163742072656e740000000000000000000000000000000000005f82015250565b5f610fd0600e836109a4565b9150610fdb82610f9c565b602082019050919050565b5f6020820190508181035f830152610ffd81610fc4565b9050919050565b7f4e487b71000000000000000000000000000000000000000000000000000000005f52601160045260245ffd5b5f61103b8261086f565b91506110468361086f565b925082820190508082111561105e5761105d611004565b5b92915050565b5f6040820190506110775f83018561098b565b6110846020830184610878565b9392505050565b7f62616420696e64657800000000000000000000000000000000000000000000005f82015250565b5f6110bf6009836109a4565b91506110ca8261108b565b602082019050919050565b5f6020820190508181035f8301526110ec816110b3565b9050919050565b7f4e487b71000000000000000000000000000000000000000000000000000000005f52603260045260245ffdfea26469706673582212207959231a48d1df922c816a1b2b962a99e6b4405e559c084d80e8031f5d769a2c64736f6c634300081e0033",
					"opcodes": "PUSH1 0x80 PUSH1 0x40 MSTORE CALLVALUE DUP1 ISZERO PUSH2 0xF JUMPI PUSH0 PUSH0 REVERT JUMPDEST POP PUSH1 0x40 MLOAD PUSH2 0x12F0 CODESIZE SUB DUP1 PUSH2 0x12F0 DUP4 CODECOPY DUP2 DUP2 ADD PUSH1 0x40 MSTORE DUP2 ADD SWAP1 PUSH2 0x31 SWAP2 SWAP1 PUSH2 0x14F JUMP JUMPDEST CALLER PUSH0 PUSH0 PUSH2 0x100 EXP DUP2 SLOAD DUP2 PUSH20 0xFFFFFFFFFFFFFFFFFFFFFFFFFFFFFFFFFFFFFFFF MUL NOT AND SWAP1 DUP4 PUSH20 0xFFFFFFFFFFFFFFFFFFFFFFFFFFFFFFFFFFFFFFFF AND MUL OR SWAP1 SSTORE POP DUP2 PUSH1 0x1 PUSH0 PUSH2 0x100 EXP DUP2 SLOAD DUP2 PUSH20 0xFFFFFFFFFFFFFFFFFFFFFFFFFFFFFFFFFFFFFFFF MUL NOT AND SWAP1 DUP4 PUSH20 0xFFFFFFFFFFFFFFFFFFFFFFFFFFFFFFFFFFFFFFFF AND MUL OR SWAP1 SSTORE POP DUP1 PUSH1 0x2 DUP2 SWAP1 SSTORE POP POP POP PUSH2 0x18D JUMP JUMPDEST PUSH0 PUSH0 REVERT JUMPDEST PUSH0 PUSH20 0xFFFFFFFFFFFFFFFFFFFFFFFFFFFFFFFFFFFFFFFF DUP3 AND SWAP1 POP SWAP2 SWAP1 POP JUMP JUMPDEST PUSH0 PUSH2 0xEB DUP3 PUSH2 0xC2 JUMP JUMPDEST SWAP1 POP SWAP2 SWAP1 POP JUMP JUMPDEST PUSH2 0xFB DUP2 PUSH2 0xE1 JUMP JUMPDEST DUP2 EQ PUSH2 0x105 JUMPI PUSH0 PUSH0 REVERT JUMPDEST POP JUMP JUMPDEST PUSH0 DUP2 MLOAD SWAP1 POP PUSH2 0x116 DUP2 PUSH2 0xF2 JUMP JUMPDEST SWAP3 SWAP2 POP POP JUMP JUMPDEST PUSH0 DUP2 SWAP1 POP SWAP2 SWAP1 POP JUMP JUMPDEST PUSH2 0x12E DUP2 PUSH2 0x11C JUMP JUMPDEST DUP2 EQ PUSH2 0x138 JUMPI PUSH0 PUSH0 REVERT JUMPDEST POP JUMP JUMPDEST PUSH0 DUP2 MLOAD SWAP1 POP PUSH2 0x149 DUP2 PUSH2 0x125 JUMP JUMPDEST SWAP3 SWAP2 POP POP JUMP JUMPDEST PUSH0 PUSH0 PUSH1 0x40 DUP4 DUP6 SUB SLT ISZERO PUSH2 0x165 JUMPI PUSH2 0x164 PUSH2 0xBE JUMP JUMPDEST JUMPDEST PUSH0 PUSH2 0x172 DUP6 DUP3 DUP7 ADD PUSH2 0x108 JUMP JUMPDEST SWAP3 POP POP PUSH1 0x20 PUSH2 0x183 DUP6 DUP3 DUP7 ADD PUSH2 0x13B JUMP JUMPDEST SWAP2 POP POP SWAP3 POP SWAP3 SWAP1 POP JUMP JUMPDEST PUSH2 0x1156 DUP1 PUSH2 0x19A PUSH0 CODECOPY PUSH0 RETURN INVALID PUSH1 0x80 PUSH1 0x40 MSTORE CALLVALUE DUP1 ISZERO PUSH2 0xF JUMPI PUSH0 PUSH0 REVERT JUMPDEST POP PUSH1 0x4 CALLDATASIZE LT PUSH2 0xA7 JUMPI PUSH0 CALLDATALOAD PUSH1 0xE0 SHR DUP1 PUSH4 0x8DA5CB5B GT PUSH2 0x6F JUMPI DUP1 PUSH4 0x8DA5CB5B EQ PUSH2 0x151 JUMPI DUP1 PUSH4 0xA340CF79 EQ PUSH2 0x16F JUMPI DUP1 PUSH4 0xADF07791 EQ PUSH2 0x19F JUMPI DUP1 PUSH4 0xD9E8843F EQ PUSH2 0x1BD JUMPI DUP1 PUSH4 0xE3A96CBD EQ PUSH2 0x1D9 JUMPI DUP1 PUSH4 0xFBED1C1C EQ PUSH2 0x20B JUMPI PUSH2 0xA7 JUMP JUMPDEST DUP1 PUSH4 0x10987B77 EQ PUSH2 0xAB JUMPI DUP1 PUSH4 0x2E74A4DE EQ PUSH2 0xC9 JUMPI DUP1 PUSH4 0x396A05E3 EQ PUSH2 0xE5 JUMPI DUP1 PUSH4 0x564A565D EQ PUSH2 0x103 JUMPI DUP1 PUSH4 0x725A3B4B EQ PUSH2 0x135 JUMPI JUMPDEST PUSH0 PUSH0 REVERT JUMPDEST PUSH2 0xB3 PUSH2 0x229 JUMP JUMPDEST PUSH1 0x40 MLOAD PUSH2 0xC0 SWAP2 SWAP1 PUSH2 0x887 JUMP JUMPDEST PUSH1 0x40 MLOAD DUP1 SWAP2 SUB SWAP1 RETURN JUMPDEST PUSH2 0xE3 PUSH1 0x4 DUP1 CALLDATASIZE SUB DUP2 ADD SWAP1 PUSH2 0xDE SWAP2 SWAP1 PUSH2 0x90B JUMP JUMPDEST PUSH2 0x235 JUMP JUMPDEST STOP JUMPDEST PUSH2 0xED PUSH2 0x33D JUMP JUMPDEST PUSH1 0x40 MLOAD PUSH2 0xFA SWAP2 SWAP1 PUSH2 0x887 JUMP JUMPDEST PUSH1 0x40 MLOAD DUP1 SWAP2 SUB SWAP1 RETURN JUMPDEST PUSH2 0x11D PUSH1 0x4 DUP1 CALLDATASIZE SUB DUP2 ADD SWAP1 PUSH2 0x118 SWAP2 SWAP1 PUSH2 0x960 JUMP JUMPDEST PUSH2 0x3A2 JUMP JUMPDEST PUSH1 0x40 MLOAD PUSH2 0x12C SWAP4 SWAP3 SWAP2 SWAP1 PUSH2 0xA0A JUMP JUMPDEST PUSH1 0x40 MLOAD DUP1 SWAP2 SUB SWAP1 RETURN JUMPDEST PUSH2 0x14F PUSH1 0x4 DUP1 CALLDATASIZE SUB DUP2 ADD SWAP1 PUSH2 0x14A SWAP2 SWAP1 PUSH2 0xB72 JUMP JUMPDEST PUSH2 0x47C JUMP JUMPDEST STOP JUMPDEST PUSH2 0x159 PUSH2 0x577 JUMP JUMPDEST PUSH1 0x40 MLOAD PUSH2 0x166 SWAP2 SWAP1 PUSH2 0xBB9 JUMP JUMPDEST PUSH1 0x40 MLOAD DUP1 SWAP2 SUB SWAP1 RETURN JUMPDEST PUSH2 0x189 PUSH1 0x4 DUP1 CALLDATASIZE SUB DUP2 ADD SWAP1 PUSH2 0x184 SWAP2 SWAP1 PUSH2 0x90B JUMP JUMPDEST PUSH2 0x59B JUMP JUMPDEST PUSH1 0x40 MLOAD PUSH2 0x196 SWAP2 SWAP1 PUSH2 0x887 JUMP JUMPDEST PUSH1 0x40 MLOAD DUP1 SWAP2 SUB SWAP1 RETURN JUMPDEST PUSH2 0x1A7 PUSH2 0x5B0 JUMP JUMPDEST PUSH1 0x40 MLOAD PUSH2 0x1B4 SWAP2 SWAP1 PUSH2 0xBB9 JUMP JUMPDEST PUSH1 0x40 MLOAD DUP1 SWAP2 SUB SWAP1 RETURN JUMPDEST PUSH2 0x1D7 PUSH1 0x4 DUP1 CALLDATASIZE SUB DUP2 ADD SWAP1 PUSH2 0x1D2 SWAP2 SWAP1 PUSH2 0x960 JUMP JUMPDEST PUSH2 0x5D5 JUMP JUMPDEST STOP JUMPDEST PUSH2 0x1F3 PUSH1 0x4 DUP1 CALLDATASIZE SUB DUP2 ADD SWAP1 PUSH2 0x1EE SWAP2 SWAP1 PUSH2 0x960 JUMP JUMPDEST PUSH2 0x737 JUMP JUMPDEST PUSH1 0x40 MLOAD PUSH2 0x202 SWAP4 SWAP3 SWAP2 SWAP1 PUSH2 0xA0A JUMP JUMPDEST PUSH1 0x40 MLOAD DUP1 SWAP2 SUB SWAP1 RETURN JUMPDEST PUSH2 0x213 PUSH2 0x869 JUMP JUMPDEST PUSH1 0x40 MLOAD PUSH2 0x220 SWAP2 SWAP1 PUSH2 0x887 JUMP JUMPDEST PUSH1 0x40 MLOAD DUP1 SWAP2 SUB SWAP1 RETURN JUMPDEST PUSH0 PUSH1 0x4 DUP1 SLOAD SWAP1 POP SWAP1 POP SWAP1 JUMP JUMPDEST PUSH0 PUSH0 SWAP1 SLOAD SWAP1 PUSH2 0x100 EXP SWAP1 DIV PUSH20 0xFFFFFFFFFFFFFFFFFFFFFFFFFFFFFFFFFFFFFFFF AND PUSH20 0xFFFFFFFFFFFFFFFFFFFFFFFFFFFFFFFFFFFFFFFF AND CALLER PUSH20 0xFFFFFFFFFFFFFFFFFFFFFFFFFFFFFFFFFFFFFFFF AND EQ PUSH2 0x2C3 JUMPI PUSH1 0x40 MLOAD PUSH32 0x8C379A000000000000000000000000000000000000000000000000000000000 DUP2 MSTORE PUSH1 0x4 ADD PUSH2 0x2BA SWAP1 PUSH2 0xC1C JUMP JUMPDEST PUSH1 0x40 MLOAD DUP1 SWAP2 SUB SWAP1 REVERT JUMPDEST DUP1 PUSH1 0x1 PUSH0 PUSH2 0x100 EXP DUP2 SLOAD DUP2 PUSH20 0xFFFFFFFFFFFFFFFFFFFFFFFFFFFFFFFFFFFFFFFF MUL NOT AND SWAP1 DUP4 PUSH20 0xFFFFFFFFFFFFFFFFFFFFFFFFFFFFFFFFFFFFFFFF AND MUL OR SWAP1 SSTORE POP PUSH32 0x1194A56729B56452535002720ECDFFCCAA0D5E8B4C6C7C25736264C428E6AD8B DUP2 PUSH1 0x40 MLOAD PUSH2 0x332 SWAP2 SWAP1 PUSH2 0xBB9 JUMP JUMPDEST PUSH1 0x40 MLOAD DUP1 SWAP2 SUB SWAP1 LOG1 POP JUMP JUMPDEST PUSH0 PUSH1 0x3 PUSH0 PUSH1 0x1 PUSH0 SWAP1 SLOAD SWAP1 PUSH2 0x100 EXP SWAP1 DIV PUSH20 0xFFFFFFFFFFFFFFFFFFFFFFFFFFFFFFFFFFFFFFFF AND PUSH20 0xFFFFFFFFFFFFFFFFFFFFFFFFFFFFFFFFFFFFFFFF AND PUSH20 0xFFFFFFFFFFFFFFFFFFFFFFFFFFFFFFFFFFFFFFFF AND DUP2 MSTORE PUSH1 0x20 ADD SWAP1 DUP2 MSTORE PUSH1 0x20 ADD PUSH0 KECCAK256 SLOAD SWAP1 POP SWAP1 JUMP JUMPDEST PUSH1 0x4 DUP2 DUP2 SLOAD DUP2 LT PUSH2 0x3B1 JUMPI PUSH0 DUP1 REVERT JUMPDEST SWAP1 PUSH0 MSTORE PUSH1 0x20 PUSH0 KECCAK256 SWAP1 PUSH1 0x3 MUL ADD PUSH0 SWAP2 POP SWAP1 POP DUP1 PUSH0 ADD PUSH0 SWAP1 SLOAD SWAP1 PUSH2 0x100 EXP SWAP1 DIV PUSH20 0xFFFFFFFFFFFFFFFFFFFFFFFFFFFFFFFFFFFFFFFF AND SWAP1 DUP1 PUSH1 0x1 ADD DUP1 SLOAD PUSH2 0x3F5 SWAP1 PUSH2 0xC67 JUMP JUMPDEST DUP1 PUSH1 0x1F ADD PUSH1 0x20 DUP1 SWAP2 DIV MUL PUSH1 0x20 ADD PUSH1 0x40 MLOAD SWAP1 DUP2 ADD PUSH1 0x40 MSTORE DUP1 SWAP3 SWAP2 SWAP1 DUP2 DUP2 MSTORE PUSH1 0x20 ADD DUP3 DUP1 SLOAD PUSH2 0x421 SWAP1 PUSH2 0xC67 JUMP JUMPDEST DUP1 ISZERO PUSH2 0x46C JUMPI DUP1 PUSH1 0x1F LT PUSH2 0x443 JUMPI PUSH2 0x100 DUP1 DUP4 SLOAD DIV MUL DUP4 MSTORE SWAP2 PUSH1 0x20 ADD SWAP2 PUSH2 0x46C JUMP JUMPDEST DUP3 ADD SWAP2 SWAP1 PUSH0 MSTORE PUSH1 0x20 PUSH0 KECCAK256 SWAP1 JUMPDEST DUP2 SLOAD DUP2 MSTORE SWAP1 PUSH1 0x1 ADD SWAP1 PUSH1 0x20 ADD DUP1 DUP4 GT PUSH2 0x44F JUMPI DUP3 SWAP1 SUB PUSH1 0x1F AND DUP3 ADD SWAP2 JUMPDEST POP POP POP POP POP SWAP1 DUP1 PUSH1 0x2 ADD SLOAD SWAP1 POP DUP4 JUMP JUMPDEST PUSH1 0x4 PUSH1 0x40 MLOAD DUP1 PUSH1 0x60 ADD PUSH1 0x40 MSTORE DUP1 CALLER PUSH20 0xFFFFFFFFFFFFFFFFFFFFFFFFFFFFFFFFFFFFFFFF AND DUP2 MSTORE PUSH1 0x20 ADD DUP4 DUP2 MSTORE PUSH1 0x20 ADD TIMESTAMP DUP2 MSTORE POP SWAP1 DUP1 PUSH1 0x1 DUP2 SLOAD ADD DUP1 DUP3 SSTORE DUP1 SWAP2 POP POP PUSH1 0x1 SWAP1 SUB SWAP1 PUSH0 MSTORE PUSH1 0x20 PUSH0 KECCAK256 SWAP1 PUSH1 0x3 MUL ADD PUSH0 SWAP1 SWAP2 SWAP1 SWAP2 SWAP1 SWAP2 POP PUSH0 DUP3 ADD MLOAD DUP2 PUSH0 ADD PUSH0 PUSH2 0x100 EXP DUP2 SLOAD DUP2 PUSH20 0xFFFFFFFFFFFFFFFFFFFFFFFFFFFFFFFFFFFFFFFF MUL NOT AND SWAP1 DUP4 PUSH20 0xFFFFFFFFFFFFFFFFFFFFFFFFFFFFFFFFFFFFFFFF AND MUL OR SWAP1 SSTORE POP PUSH1 0x20 DUP3 ADD MLOAD DUP2 PUSH1 0x1 ADD SWAP1 DUP2 PUSH2 0x52E SWAP2 SWAP1 PUSH2 0xE37 JUMP JUMPDEST POP PUSH1 0x40 DUP3 ADD MLOAD DUP2 PUSH1 0x2 ADD SSTORE POP POP PUSH32 0x28B099EB575E23E32BECD7C30DC8F9B2F98E370CDBF9841EA3338D9000402A25 CALLER DUP3 PUSH1 0x40 MLOAD PUSH2 0x56C SWAP3 SWAP2 SWAP1 PUSH2 0xF06 JUMP JUMPDEST PUSH1 0x40 MLOAD DUP1 SWAP2 SUB SWAP1 LOG1 POP JUMP JUMPDEST PUSH0 PUSH0 SWAP1 SLOAD SWAP1 PUSH2 0x100 EXP SWAP1 DIV PUSH20 0xFFFFFFFFFFFFFFFFFFFFFFFFFFFFFFFFFFFFFFFF AND DUP2 JUMP JUMPDEST PUSH1 0x3 PUSH1 0x20 MSTORE DUP1 PUSH0 MSTORE PUSH1 0x40 PUSH0 KECCAK256 PUSH0 SWAP2 POP SWAP1 POP SLOAD DUP2 JUMP JUMPDEST PUSH1 0x1 PUSH0 SWAP1 SLOAD SWAP1 PUSH2 0x100 EXP SWAP1 DIV PUSH20 0xFFFFFFFFFFFFFFFFFFFFFFFFFFFFFFFFFFFFFFFF AND DUP2 JUMP JUMPDEST PUSH1 0x1 PUSH0 SWAP1 SLOAD SWAP1 PUSH2 0x100 EXP SWAP1 DIV PUSH20 0xFFFFFFFFFFFFFFFFFFFFFFFFFFFFFFFFFFFFFFFF AND PUSH20 0xFFFFFFFFFFFFFFFFFFFFFFFFFFFFFFFFFFFFFFFF AND CALLER PUSH20 0xFFFFFFFFFFFFFFFFFFFFFFFFFFFFFFFFFFFFFFFF AND EQ PUSH2 0x664 JUMPI PUSH1 0x40 MLOAD PUSH32 0x8C379A000000000000000000000000000000000000000000000000000000000 DUP2 MSTORE PUSH1 0x4 ADD PUSH2 0x65B SWAP1 PUSH2 0xF7E JUMP JUMPDEST PUSH1 0x40 MLOAD DUP1 SWAP2 SUB SWAP1 REVERT JUMPDEST PUSH1 0x2 SLOAD DUP2 EQ PUSH2 0x6A8 JUMPI PUSH1 0x40 MLOAD PUSH32 0x8C379A000000000000000000000000000000000000000000000000000000000 DUP2 MSTORE PUSH1 0x4 ADD PUSH2 0x69F SWAP1 PUSH2 0xFE6 JUMP JUMPDEST PUSH1 0x40 MLOAD DUP1 SWAP2 SUB SWAP1 REVERT JUMPDEST DUP1 PUSH1 0x3 PUSH0 CALLER PUSH20 0xFFFFFFFFFFFFFFFFFFFFFFFFFFFFFFFFFFFFFFFF AND PUSH20 0xFFFFFFFFFFFFFFFFFFFFFFFFFFFFFFFFFFFFFFFF AND DUP2 MSTORE PUSH1 0x20 ADD SWAP1 DUP2 MSTORE PUSH1 0x20 ADD PUSH0 KECCAK256 PUSH0 DUP3 DUP3 SLOAD PUSH2 0x6F4 SWAP2 SWAP1 PUSH2 0x1031 JUMP JUMPDEST SWAP3 POP POP DUP2 SWAP1 SSTORE POP PUSH32 0x3B5033869479E8A98AF42B272F05933F60489FE9FB43D63E11A6C31F3FA7474 CALLER DUP3 PUSH1 0x40 MLOAD PUSH2 0x72C SWAP3 SWAP2 SWAP1 PUSH2 0x1064 JUMP JUMPDEST PUSH1 0x40 MLOAD DUP1 SWAP2 SUB SWAP1 LOG1 POP JUMP JUMPDEST PUSH0 PUSH1 0x60 PUSH0 PUSH1 0x4 DUP1 SLOAD SWAP1 POP DUP5 LT PUSH2 0x782 JUMPI PUSH1 0x40 MLOAD PUSH32 0x8C379A000000000000000000000000000000000000000000000000000000000 DUP2 MSTORE PUSH1 0x4 ADD PUSH2 0x779 SWAP1 PUSH2 0x10D5 JUMP JUMPDEST PUSH1 0x40 MLOAD DUP1 SWAP2 SUB SWAP1 REVERT JUMPDEST PUSH0 PUSH1 0x4 DUP6 DUP2 SLOAD DUP2 LT PUSH2 0x797 JUMPI PUSH2 0x796 PUSH2 0x10F3 JUMP JUMPDEST JUMPDEST SWAP1 PUSH0 MSTORE PUSH1 0x20 PUSH0 KECCAK256 SWAP1 PUSH1 0x3 MUL ADD SWAP1 POP DUP1 PUSH0 ADD PUSH0 SWAP1 SLOAD SWAP1 PUSH2 0x100 EXP SWAP1 DIV PUSH20 0xFFFFFFFFFFFFFFFFFFFFFFFFFFFFFFFFFFFFFFFF AND DUP2 PUSH1 0x1 ADD DUP3 PUSH1 0x2 ADD SLOAD DUP2 DUP1 SLOAD PUSH2 0x7DD SWAP1 PUSH2 0xC67 JUMP JUMPDEST DUP1 PUSH1 0x1F ADD PUSH1 0x20 DUP1 SWAP2 DIV MUL PUSH1 0x20 ADD PUSH1 0x40 MLOAD SWAP1 DUP2 ADD PUSH1 0x40 MSTORE DUP1 SWAP3 SWAP2 SWAP1 DUP2 DUP2 MSTORE PUSH1 0x20 ADD DUP3 DUP1 SLOAD PUSH2 0x809 SWAP1 PUSH2 0xC67 JUMP JUMPDEST DUP1 ISZERO PUSH2 0x854 JUMPI DUP1 PUSH1 0x1F LT PUSH2 0x82B JUMPI PUSH2 0x100 DUP1 DUP4 SLOAD DIV MUL DUP4 MSTORE SWAP2 PUSH1 0x20 ADD SWAP2 PUSH2 0x854 JUMP JUMPDEST DUP3 ADD SWAP2 SWAP1 PUSH0 MSTORE PUSH1 0x20 PUSH0 KECCAK256 SWAP1 JUMPDEST DUP2 SLOAD DUP2 MSTORE SWAP1 PUSH1 0x1 ADD SWAP1 PUSH1 0x20 ADD DUP1 DUP4 GT PUSH2 0x837 JUMPI DUP3 SWAP1 SUB PUSH1 0x1F AND DUP3 ADD SWAP2 JUMPDEST POP POP POP POP POP SWAP2 POP SWAP4 POP SWAP4 POP SWAP4 POP POP SWAP2 SWAP4 SWAP1 SWAP3 POP JUMP JUMPDEST PUSH1 0x2 SLOAD DUP2 JUMP JUMPDEST PUSH0 DUP2 SWAP1 POP SWAP2 SWAP1 POP JUMP JUMPDEST PUSH2 0x881 DUP2 PUSH2 0x86F JUMP JUMPDEST DUP3 MSTORE POP POP JUMP JUMPDEST PUSH0 PUSH1 0x20 DUP3 ADD SWAP1 POP PUSH2 0x89A PUSH0 DUP4 ADD DUP5 PUSH2 0x878 JUMP JUMPDEST SWAP3 SWAP2 POP POP JUMP JUMPDEST PUSH0 PUSH1 0x40 MLOAD SWAP1 POP SWAP1 JUMP JUMPDEST PUSH0 PUSH0 REVERT JUMPDEST PUSH0 PUSH0 REVERT JUMPDEST PUSH0 PUSH20 0xFFFFFFFFFFFFFFFFFFFFFFFFFFFFFFFFFFFFFFFF DUP3 AND SWAP1 POP SWAP2 SWAP1 POP JUMP JUMPDEST PUSH0 PUSH2 0x8DA DUP3 PUSH2 0x8B1 JUMP JUMPDEST SWAP1 POP SWAP2 SWAP1 POP JUMP JUMPDEST PUSH2 0x8EA DUP2 PUSH2 0x8D0 JUMP JUMPDEST DUP2 EQ PUSH2 0x8F4 JUMPI PUSH0 PUSH0 REVERT JUMPDEST POP JUMP JUMPDEST PUSH0 DUP2 CALLDATALOAD SWAP1 POP PUSH2 0x905 DUP2 PUSH2 0x8E1 JUMP JUMPDEST SWAP3 SWAP2 POP POP JUMP JUMPDEST PUSH0 PUSH1 0x20 DUP3 DUP5 SUB SLT ISZERO PUSH2 0x920 JUMPI PUSH2 0x91F PUSH2 0x8A9 JUMP JUMPDEST JUMPDEST PUSH0 PUSH2 0x92D DUP5 DUP3 DUP6 ADD PUSH2 0x8F7 JUMP JUMPDEST SWAP2 POP POP SWAP3 SWAP2 POP POP JUMP JUMPDEST PUSH2 0x93F DUP2 PUSH2 0x86F JUMP JUMPDEST DUP2 EQ PUSH2 0x949 JUMPI PUSH0 PUSH0 REVERT JUMPDEST POP JUMP JUMPDEST PUSH0 DUP2 CALLDATALOAD SWAP1 POP PUSH2 0x95A DUP2 PUSH2 0x936 JUMP JUMPDEST SWAP3 SWAP2 POP POP JUMP JUMPDEST PUSH0 PUSH1 0x20 DUP3 DUP5 SUB SLT ISZERO PUSH2 0x975 JUMPI PUSH2 0x974 PUSH2 0x8A9 JUMP JUMPDEST JUMPDEST PUSH0 PUSH2 0x982 DUP5 DUP3 DUP6 ADD PUSH2 0x94C JUMP JUMPDEST SWAP2 POP POP SWAP3 SWAP2 POP POP JUMP JUMPDEST PUSH2 0x994 DUP2 PUSH2 0x8D0 JUMP JUMPDEST DUP3 MSTORE POP POP JUMP JUMPDEST PUSH0 DUP2 MLOAD SWAP1 POP SWAP2 SWAP1 POP JUMP JUMPDEST PUSH0 DUP3 DUP3 MSTORE PUSH1 0x20 DUP3 ADD SWAP1 POP SWAP3 SWAP2 POP POP JUMP JUMPDEST DUP3 DUP2 DUP4 MCOPY PUSH0 DUP4 DUP4 ADD MSTORE POP POP POP JUMP JUMPDEST PUSH0 PUSH1 0x1F NOT PUSH1 0x1F DUP4 ADD AND SWAP1 POP SWAP2 SWAP1 POP JUMP JUMPDEST PUSH0 PUSH2 0x9DC DUP3 PUSH2 0x99A JUMP JUMPDEST PUSH2 0x9E6 DUP2 DUP6 PUSH2 0x9A4 JUMP JUMPDEST SWAP4 POP PUSH2 0x9F6 DUP2 DUP6 PUSH1 0x20 DUP7 ADD PUSH2 0x9B4 JUMP JUMPDEST PUSH2 0x9FF DUP2 PUSH2 0x9C2 JUMP JUMPDEST DUP5 ADD SWAP2 POP POP SWAP3 SWAP2 POP POP JUMP JUMPDEST PUSH0 PUSH1 0x60 DUP3 ADD SWAP1 POP PUSH2 0xA1D PUSH0 DUP4 ADD DUP7 PUSH2 0x98B JUMP JUMPDEST DUP2 DUP2 SUB PUSH1 0x20 DUP4 ADD MSTORE PUSH2 0xA2F DUP2 DUP6 PUSH2 0x9D2 JUMP JUMPDEST SWAP1 POP PUSH2 0xA3E PUSH1 0x40 DUP4 ADD DUP5 PUSH2 0x878 JUMP JUMPDEST SWAP5 SWAP4 POP POP POP POP JUMP JUMPDEST PUSH0 PUSH0 REVERT JUMPDEST PUSH0 PUSH0 REVERT JUMPDEST PUSH32 0x4E487B7100000000000000000000000000000000000000000000000000000000 PUSH0 MSTORE PUSH1 0x41 PUSH1 0x4 MSTORE PUSH1 0x24 PUSH0 REVERT JUMPDEST PUSH2 0xA84 DUP3 PUSH2 0x9C2 JUMP JUMPDEST DUP2 ADD DUP2 DUP2 LT PUSH8 0xFFFFFFFFFFFFFFFF DUP3 GT OR ISZERO PUSH2 0xAA3 JUMPI PUSH2 0xAA2 PUSH2 0xA4E JUMP JUMPDEST JUMPDEST DUP1 PUSH1 0x40 MSTORE POP POP POP JUMP JUMPDEST PUSH0 PUSH2 0xAB5 PUSH2 0x8A0 JUMP JUMPDEST SWAP1 POP PUSH2 0xAC1 DUP3 DUP3 PUSH2 0xA7B JUMP JUMPDEST SWAP2 SWAP1 POP JUMP JUMPDEST PUSH0 PUSH8 0xFFFFFFFFFFFFFFFF DUP3 GT ISZERO PUSH2 0xAE0 JUMPI PUSH2 0xADF PUSH2 0xA4E JUMP JUMPDEST JUMPDEST PUSH2 0xAE9 DUP3 PUSH2 0x9C2 JUMP JUMPDEST SWAP1 POP PUSH1 0x20 DUP2 ADD SWAP1 POP SWAP2 SWAP1 POP JUMP JUMPDEST DUP3 DUP2 DUP4 CALLDATACOPY PUSH0 DUP4 DUP4 ADD MSTORE POP POP POP JUMP JUMPDEST PUSH0 PUSH2 0xB16 PUSH2 0xB11 DUP5 PUSH2 0xAC6 JUMP JUMPDEST PUSH2 0xAAC JUMP JUMPDEST SWAP1 POP DUP3 DUP2 MSTORE PUSH1 0x20 DUP2 ADD DUP5 DUP5 DUP5 ADD GT ISZERO PUSH2 0xB32 JUMPI PUSH2 0xB31 PUSH2 0xA4A JUMP JUMPDEST JUMPDEST PUSH2 0xB3D DUP5 DUP3 DUP6 PUSH2 0xAF6 JUMP JUMPDEST POP SWAP4 SWAP3 POP POP POP JUMP JUMPDEST PUSH0 DUP3 PUSH1 0x1F DUP4 ADD SLT PUSH2 0xB59 JUMPI PUSH2 0xB58 PUSH2 0xA46 JUMP JUMPDEST JUMPDEST DUP2 CALLDATALOAD PUSH2 0xB69 DUP5 DUP3 PUSH1 0x20 DUP7 ADD PUSH2 0xB04 JUMP JUMPDEST SWAP2 POP POP SWAP3 SWAP2 POP POP JUMP JUMPDEST PUSH0 PUSH1 0x20 DUP3 DUP5 SUB SLT ISZERO PUSH2 0xB87 JUMPI PUSH2 0xB86 PUSH2 0x8A9 JUMP JUMPDEST JUMPDEST PUSH0 DUP3 ADD CALLDATALOAD PUSH8 0xFFFFFFFFFFFFFFFF DUP2 GT ISZERO PUSH2 0xBA4 JUMPI PUSH2 0xBA3 PUSH2 0x8AD JUMP JUMPDEST JUMPDEST PUSH2 0xBB0 DUP5 DUP3 DUP6 ADD PUSH2 0xB45 JUMP JUMPDEST SWAP2 POP POP SWAP3 SWAP2 POP POP JUMP JUMPDEST PUSH0 PUSH1 0x20 DUP3 ADD SWAP1 POP PUSH2 0xBCC PUSH0 DUP4 ADD DUP5 PUSH2 0x98B JUMP JUMPDEST SWAP3 SWAP2 POP POP JUMP JUMPDEST PUSH32 0x4F6E6C79206F776E657200000000000000000000000000000000000000000000 PUSH0 DUP3 ADD MSTORE POP JUMP JUMPDEST PUSH0 PUSH2 0xC06 PUSH1 0xA DUP4 PUSH2 0x9A4 JUMP JUMPDEST SWAP2 POP PUSH2 0xC11 DUP3 PUSH2 0xBD2 JUMP JUMPDEST PUSH1 0x20 DUP3 ADD SWAP1 POP SWAP2 SWAP1 POP JUMP JUMPDEST PUSH0 PUSH1 0x20 DUP3 ADD SWAP1 POP DUP2 DUP2 SUB PUSH0 DUP4 ADD MSTORE PUSH2 0xC33 DUP2 PUSH2 0xBFA JUMP JUMPDEST SWAP1 POP SWAP2 SWAP1 POP JUMP JUMPDEST PUSH32 0x4E487B7100000000000000000000000000000000000000000000000000000000 PUSH0 MSTORE PUSH1 0x22 PUSH1 0x4 MSTORE PUSH1 0x24 PUSH0 REVERT JUMPDEST PUSH0 PUSH1 0x2 DUP3 DIV SWAP1 POP PUSH1 0x1 DUP3 AND DUP1 PUSH2 0xC7E JUMPI PUSH1 0x7F DUP3 AND SWAP2 POP JUMPDEST PUSH1 0x20 DUP3 LT DUP2 SUB PUSH2 0xC91 JUMPI PUSH2 0xC90 PUSH2 0xC3A JUMP JUMPDEST JUMPDEST POP SWAP2 SWAP1 POP JUMP JUMPDEST PUSH0 DUP2 SWAP1 POP DUP2 PUSH0 MSTORE PUSH1 0x20 PUSH0 KECCAK256 SWAP1 POP SWAP2 SWAP1 POP JUMP JUMPDEST PUSH0 PUSH1 0x20 PUSH1 0x1F DUP4 ADD DIV SWAP1 POP SWAP2 SWAP1 POP JUMP JUMPDEST PUSH0 DUP3 DUP3 SHL SWAP1 POP SWAP3 SWAP2 POP POP JUMP JUMPDEST PUSH0 PUSH1 0x8 DUP4 MUL PUSH2 0xCF3 PUSH32 0xFFFFFFFFFFFFFFFFFFFFFFFFFFFFFFFFFFFFFFFFFFFFFFFFFFFFFFFFFFFFFFFF DUP3 PUSH2 0xCB8 JUMP JUMPDEST PUSH2 0xCFD DUP7 DUP4 PUSH2 0xCB8 JUMP JUMPDEST SWAP6 POP DUP1 NOT DUP5 AND SWAP4 POP DUP1 DUP7 AND DUP5 OR SWAP3 POP POP POP SWAP4 SWAP3 POP POP POP JUMP JUMPDEST PUSH0 DUP2 SWAP1 POP SWAP2 SWAP1 POP JUMP JUMPDEST PUSH0 PUSH2 0xD38 PUSH2 0xD33 PUSH2 0xD2E DUP5 PUSH2 0x86F JUMP JUMPDEST PUSH2 0xD15 JUMP JUMPDEST PUSH2 0x86F JUMP JUMPDEST SWAP1 POP SWAP2 SWAP1 POP JUMP JUMPDEST PUSH0 DUP2 SWAP1 POP SWAP2 SWAP1 POP JUMP JUMPDEST PUSH2 0xD51 DUP4 PUSH2 0xD1E JUMP JUMPDEST PUSH2 0xD65 PUSH2 0xD5D DUP3 PUSH2 0xD3F JUMP JUMPDEST DUP5 DUP5 SLOAD PUSH2 0xCC4 JUMP JUMPDEST DUP3 SSTORE POP POP POP POP JUMP JUMPDEST PUSH0 PUSH0 SWAP1 POP SWAP1 JUMP JUMPDEST PUSH2 0xD7C PUSH2 0xD6D JUMP JUMPDEST PUSH2 0xD87 DUP2 DUP5 DUP5 PUSH2 0xD48 JUMP JUMPDEST POP POP POP JUMP JUMPDEST JUMPDEST DUP2 DUP2 LT ISZERO PUSH2 0xDAA JUMPI PUSH2 0xD9F PUSH0 DUP3 PUSH2 0xD74 JUMP JUMPDEST PUSH1 0x1 DUP2 ADD SWAP1 POP PUSH2 0xD8D JUMP JUMPDEST POP POP JUMP JUMPDEST PUSH1 0x1F DUP3 GT ISZERO PUSH2 0xDEF JUMPI PUSH2 0xDC0 DUP2 PUSH2 0xC97 JUMP JUMPDEST PUSH2 0xDC9 DUP5 PUSH2 0xCA9 JUMP JUMPDEST DUP2 ADD PUSH1 0x20 DUP6 LT ISZERO PUSH2 0xDD8 JUMPI DUP2 SWAP1 POP JUMPDEST PUSH2 0xDEC PUSH2 0xDE4 DUP6 PUSH2 0xCA9 JUMP JUMPDEST DUP4 ADD DUP3 PUSH2 0xD8C JUMP JUMPDEST POP POP JUMPDEST POP POP POP JUMP JUMPDEST PUSH0 DUP3 DUP3 SHR SWAP1 POP SWAP3 SWAP2 POP POP JUMP JUMPDEST PUSH0 PUSH2 0xE0F PUSH0 NOT DUP5 PUSH1 0x8 MUL PUSH2 0xDF4 JUMP JUMPDEST NOT DUP1 DUP4 AND SWAP2 POP POP SWAP3 SWAP2 POP POP JUMP JUMPDEST PUSH0 PUSH2 0xE27 DUP4 DUP4 PUSH2 0xE00 JUMP JUMPDEST SWAP2 POP DUP3 PUSH1 0x2 MUL DUP3 OR SWAP1 POP SWAP3 SWAP2 POP POP JUMP JUMPDEST PUSH2 0xE40 DUP3 PUSH2 0x99A JUMP JUMPDEST PUSH8 0xFFFFFFFFFFFFFFFF DUP2 GT ISZERO PUSH2 0xE59 JUMPI PUSH2 0xE58 PUSH2 0xA4E JUMP JUMPDEST JUMPDEST PUSH2 0xE63 DUP3 SLOAD PUSH2 0xC67 JUMP JUMPDEST PUSH2 0xE6E DUP3 DUP3 DUP6 PUSH2 0xDAE JUMP JUMPDEST PUSH0 PUSH1 0x20 SWAP1 POP PUSH1 0x1F DUP4 GT PUSH1 0x1 DUP2 EQ PUSH2 0xE9F JUMPI PUSH0 DUP5 ISZERO PUSH2 0xE8D JUMPI DUP3 DUP8 ADD MLOAD SWAP1 POP JUMPDEST PUSH2 0xE97 DUP6 DUP3 PUSH2 0xE1C JUMP JUMPDEST DUP7 SSTORE POP PUSH2 0xEFE JUMP JUMPDEST PUSH1 0x1F NOT DUP5 AND PUSH2 0xEAD DUP7 PUSH2 0xC97 JUMP JUMPDEST PUSH0 JUMPDEST DUP3 DUP2 LT ISZERO PUSH2 0xED4 JUMPI DUP5 DUP10 ADD MLOAD DUP3 SSTORE PUSH1 0x1 DUP3 ADD SWAP2 POP PUSH1 0x20 DUP6 ADD SWAP5 POP PUSH1 0x20 DUP2 ADD SWAP1 POP PUSH2 0xEAF JUMP JUMPDEST DUP7 DUP4 LT ISZERO PUSH2 0xEF1 JUMPI DUP5 DUP10 ADD MLOAD PUSH2 0xEED PUSH1 0x1F DUP10 AND DUP3 PUSH2 0xE00 JUMP JUMPDEST DUP4 SSTORE POP JUMPDEST PUSH1 0x1 PUSH1 0x2 DUP9 MUL ADD DUP9 SSTORE POP POP POP JUMPDEST POP POP POP POP POP POP JUMP JUMPDEST PUSH0 PUSH1 0x40 DUP3 ADD SWAP1 POP PUSH2 0xF19 PUSH0 DUP4 ADD DUP6 PUSH2 0x98B JUMP JUMPDEST DUP2 DUP2 SUB PUSH1 0x20 DUP4 ADD MSTORE PUSH2 0xF2B DUP2 DUP5 PUSH2 0x9D2 JUMP JUMPDEST SWAP1 POP SWAP4 SWAP3 POP POP POP JUMP JUMPDEST PUSH32 0x4F6E6C792074656E616E74000000000000000000000000000000000000000000 PUSH0 DUP3 ADD MSTORE POP JUMP JUMPDEST PUSH0 PUSH2 0xF68 PUSH1 0xB DUP4 PUSH2 0x9A4 JUMP JUMPDEST SWAP2 POP PUSH2 0xF73 DUP3 PUSH2 0xF34 JUMP JUMPDEST PUSH1 0x20 DUP3 ADD SWAP1 POP SWAP2 SWAP1 POP JUMP JUMPDEST PUSH0 PUSH1 0x20 DUP3 ADD SWAP1 POP DUP2 DUP2 SUB PUSH0 DUP4 ADD MSTORE PUSH2 0xF95 DUP2 PUSH2 0xF5C JUMP JUMPDEST SWAP1 POP SWAP2 SWAP1 POP JUMP JUMPDEST PUSH32 0x5061792065786163742072656E74000000000000000000000000000000000000 PUSH0 DUP3 ADD MSTORE POP JUMP JUMPDEST PUSH0 PUSH2 0xFD0 PUSH1 0xE DUP4 PUSH2 0x9A4 JUMP JUMPDEST SWAP2 POP PUSH2 0xFDB DUP3 PUSH2 0xF9C JUMP JUMPDEST PUSH1 0x20 DUP3 ADD SWAP1 POP SWAP2 SWAP1 POP JUMP JUMPDEST PUSH0 PUSH1 0x20 DUP3 ADD SWAP1 POP DUP2 DUP2 SUB PUSH0 DUP4 ADD MSTORE PUSH2 0xFFD DUP2 PUSH2 0xFC4 JUMP JUMPDEST SWAP1 POP SWAP2 SWAP1 POP JUMP JUMPDEST PUSH32 0x4E487B7100000000000000000000000000000000000000000000000000000000 PUSH0 MSTORE PUSH1 0x11 PUSH1 0x4 MSTORE PUSH1 0x24 PUSH0 REVERT JUMPDEST PUSH0 PUSH2 0x103B DUP3 PUSH2 0x86F JUMP JUMPDEST SWAP2 POP PUSH2 0x1046 DUP4 PUSH2 0x86F JUMP JUMPDEST SWAP3 POP DUP3 DUP3 ADD SWAP1 POP DUP1 DUP3 GT ISZERO PUSH2 0x105E JUMPI PUSH2 0x105D PUSH2 0x1004 JUMP JUMPDEST JUMPDEST SWAP3 SWAP2 POP POP JUMP JUMPDEST PUSH0 PUSH1 0x40 DUP3 ADD SWAP1 POP PUSH2 0x1077 PUSH0 DUP4 ADD DUP6 PUSH2 0x98B JUMP JUMPDEST PUSH2 0x1084 PUSH1 0x20 DUP4 ADD DUP5 PUSH2 0x878 JUMP JUMPDEST SWAP4 SWAP3 POP POP POP JUMP JUMPDEST PUSH32 0x62616420696E6465780000000000000000000000000000000000000000000000 PUSH0 DUP3 ADD MSTORE POP JUMP JUMPDEST PUSH0 PUSH2 0x10BF PUSH1 0x9 DUP4 PUSH2 0x9A4 JUMP JUMPDEST SWAP2 POP PUSH2 0x10CA DUP3 PUSH2 0x108B JUMP JUMPDEST PUSH1 0x20 DUP3 ADD SWAP1 POP SWAP2 SWAP1 POP JUMP JUMPDEST PUSH0 PUSH1 0x20 DUP3 ADD SWAP1 POP DUP2 DUP2 SUB PUSH0 DUP4 ADD MSTORE PUSH2 0x10EC DUP2 PUSH2 0x10B3 JUMP JUMPDEST SWAP1 POP SWAP2 SWAP1 POP JUMP JUMPDEST PUSH32 0x4E487B7100000000000000000000000000000000000000000000000000000000 PUSH0 MSTORE PUSH1 0x32 PUSH1 0x4 MSTORE PUSH1 0x24 PUSH0 REVERT INVALID LOG2 PUSH5 0x6970667358 0x22 SLT KECCAK256 PUSH26 0x59231A48D1DF922C816A1B2B962A99E6B4405E559C084D80E803 0x1F TSTORE PUSH23 0x9A2C64736F6C634300081E003300000000000000000000 "
				},
				"gasEstimates": {
					"creation": {
						"codeDepositCost": "887600",
						"executionCost": "infinite",
						"totalCost": "infinite"
					},
					"external": {
						"disputes(uint256)": "infinite",
						"getDispute(uint256)": "infinite",
						"getDisputeCount()": "2441",
						"owner()": "2507",
						"paid(address)": "2824",
						"payRent(uint256)": "infinite",
						"raiseDispute(string)": "infinite",
						"rentPerMonth()": "2535",
						"setTenant(address)": "infinite",
						"tenant()": "2552",
						"tenantPaid()": "4700"
					}
				},
				"methodIdentifiers": {
					"disputes(uint256)": "564a565d",
					"getDispute(uint256)": "e3a96cbd",
					"getDisputeCount()": "10987b77",
					"owner()": "8da5cb5b",
					"paid(address)": "a340cf79",
					"payRent(uint256)": "d9e8843f",
					"raiseDispute(string)": "725a3b4b",
					"rentPerMonth()": "fbed1c1c",
					"setTenant(address)": "2e74a4de",
					"tenant()": "adf07791",
					"tenantPaid()": "396a05e3"
				}
			},
			"storageLayout": {
				"storage": [
					{
						"astId": 3,
						"contract": "contracts/RentalAgreement.sol:RentalAgreement",
						"label": "owner",
						"offset": 0,
						"slot": "0",
						"type": "t_address"
					},
					{
						"astId": 5,
						"contract": "contracts/RentalAgreement.sol:RentalAgreement",
						"label": "tenant",
						"offset": 0,
						"slot": "1",
						"type": "t_address"
					},
					{
						"astId": 7,
						"contract": "contracts/RentalAgreement.sol:RentalAgreement",
						"label": "rentPerMonth",
						"offset": 0,
						"slot": "2",
						"type": "t_uint256"
					},
					{
						"astId": 11,
						"contract": "contracts/RentalAgreement.sol:RentalAgreement",
						"label": "paid",
						"offset": 0,
						"slot": "3",
						"type": "t_mapping(t_address,t_uint256)"
					},
					{
						"astId": 22,
						"contract": "contracts/RentalAgreement.sol:RentalAgreement",
						"label": "disputes",
						"offset": 0,
						"slot": "4",
						"type": "t_array(t_struct(Dispute)18_storage)dyn_storage"
					}
				],
				"types": {
					"t_address": {
						"encoding": "inplace",
						"label": "address",
						"numberOfBytes": "20"
					},
					"t_array(t_struct(Dispute)18_storage)dyn_storage": {
						"base": "t_struct(Dispute)18_storage",
						"encoding": "dynamic_array",
						"label": "struct RentalAgreement.Dispute[]",
						"numberOfBytes": "32"
					},
					"t_mapping(t_address,t_uint256)": {
						"encoding": "mapping",
						"key": "t_address",
						"label": "mapping(address => uint256)",
						"numberOfBytes": "32",
						"value": "t_uint256"
					},
					"t_string_storage": {
						"encoding": "bytes",
						"label": "string",
						"numberOfBytes": "32"
					},
					"t_struct(Dispute)18_storage": {
						"encoding": "inplace",
						"label": "struct RentalAgreement.Dispute",
						"members": [
							{
								"astId": 13,
								"contract": "contracts/RentalAgreement.sol:RentalAgreement",
								"label": "raisedBy",
								"offset": 0,
								"slot": "0",
								"type": "t_address"
							},
							{
								"astId": 15,
								"contract": "contracts/RentalAgreement.sol:RentalAgreement",
								"label": "message",
								"offset": 0,
								"slot": "1",
								"type": "t_string_storage"
							},
							{
								"astId": 17,
								"contract": "contracts/RentalAgreement.sol:RentalAgreement",
								"label": "timestamp",
								"offset": 0,
								"slot": "2",
								"type": "t_uint256"
							}
						],
						"numberOfBytes": "96"
					},
					"t_uint256": {
						"encoding": "inplace",
						"label": "uint256",
						"numberOfBytes": "32"
					}
				}
			},
			"userdoc": {
				"kind": "user",
				"methods": {},
				"version": 1
			}
		}
	}
}