{
	"contracts/Notary.sol": {
		"Notary": {
			"abi": [
				{
					"anonymous": false,
					"inputs": [
						{
							"indexed": false,
							"internalType": "bytes32",
							"name": "hash",
							"type": "bytes32"
						},
						{
							"indexed": false,
							"internalType": "address",
							"name": "owner",
							"type": "address"
						}
					],
					"name": "Notarized",
					"type": "event"
				},
				{
					"inputs": [
						{
							"internalType": "bytes32",
							"name": "",
							"type": "bytes32"
						}
					],
					"name": "docs",
					"outputs": [
						{
							"internalType": "address",
							"name": "owner",
							"type": "address"
						},
						{
							"internalType": "uint256",
							"name": "ts",
							"type": "uint256"
						}
					],
					"stateMutability": "view",
					"type": "function"
				},
				{
					"inputs": [
						{
							"internalType": "string",
							"name": "text",
							"type": "string"
						}
					],
					"name": "generateHash",
					"outputs": [
						{
							"internalType": "bytes32",
							"name": "",
							"type": "bytes32"
						}
					],
					"stateMutability": "pure",
					"type": "function"
				},
				{
					"inputs": [
						{
							"internalType": "string",
							"name": "text",
							"type": "string"
						}
					],
					"name": "notarizeDocument",
					"outputs": [
						{
							"internalType": "bytes32",
							"name": "",
							"type": "bytes32"
						}
					],
					"stateMutability": "nonpayable",
					"type": "function"
				},
				{
					"inputs": [
						{
							"internalType": "string",
							"name": "text",
							"type": "string"
						}
					],
					"name": "verifyDocument",
					"outputs": [
						{
							"internalType": "bool",
							"name": "",
							"type": "bool"
						},
						{
							"internalType": "address",
							"name": "",
							"type": "address"
						},
						{
							"internalType": "uint256",
							"name": "",
							"type": "uint256"
						}
					],
					"stateMutability": "view",
					"type": "function"
				}
			],
			"devdoc": {
				"kind": "dev",
				"methods": {},
				"version": 1
			},
			"evm": {
				"assembly": "    /* \"contracts/Notary.sol\":58:814  contract Notary {... */\n  mstore(0x40, 0x80)\n  callvalue\n  dup1\n  iszero\n  tag_1\n  jumpi\n  revert(0x00, 0x00)\ntag_1:\n  pop\n  dataSize(sub_0)\n  dup1\n  dataOffset(sub_0)\n  0x00\n  codecopy\n  0x00\n  return\nstop\n\nsub_0: assembly {\n        /* \"contracts/Notary.sol\":58:814  contract Notary {... */\n      mstore(0x40, 0x80)\n      callvalue\n      dup1\n      iszero\n      tag_1\n      jumpi\n      revert(0x00, 0x00)\n    tag_1:\n      pop\n      jumpi(tag_2, lt(calldatasize, 0x04))\n      shr(0xe0, calldataload(0x00))\n      dup1\n      0x6a33bf87\n      eq\n      tag_3\n      jumpi\n      dup1\n      0x6fca1744\n      eq\n      tag_4\n      jumpi\n      dup1\n      0xb063152a\n      eq\n      tag_5\n      jumpi\n      dup1\n      0xbeee5eb7\n      eq\n      tag_6\n      jumpi\n    tag_2:\n      revert(0x00, 0x00)\n        /* \"contracts/Notary.sol\":323:534  function notarizeDocument(string memory text) public returns (bytes32) {... */\n    tag_3:\n      tag_7\n      0x04\n      dup1\n      calldatasize\n      sub\n      dup2\n      add\n      swap1\n      tag_8\n      swap2\n      swap1\n      tag_9\n      jump\t// in\n    tag_8:\n      tag_10\n      jump\t// in\n    tag_7:\n      mload(0x40)\n      tag_11\n      swap2\n      swap1\n      tag_12\n      jump\t// in\n    tag_11:\n      mload(0x40)\n      dup1\n      swap2\n      sub\n      swap1\n      return\n        /* \"contracts/Notary.sol\":117:152  mapping(bytes32 => Doc) public docs */\n    tag_4:\n      tag_13\n      0x04\n      dup1\n      calldatasize\n      sub\n      dup2\n      add\n      swap1\n      tag_14\n      swap2\n      swap1\n      tag_15\n      jump\t// in\n    tag_14:\n      tag_16\n      jump\t// in\n    tag_13:\n      mload(0x40)\n      tag_17\n      swap3\n      swap2\n      swap1\n      tag_18\n      jump\t// in\n    tag_17:\n      mload(0x40)\n      dup1\n      swap2\n      sub\n      swap1\n      return\n        /* \"contracts/Notary.sol\":202:321  function generateHash(string memory text) public pure returns (bytes32) {... */\n    tag_5:\n      tag_19\n      0x04\n      dup1\n      calldatasize\n      sub\n      dup2\n      add\n      swap1\n      tag_20\n      swap2\n      swap1\n      tag_9\n      jump\t// in\n    tag_20:\n      tag_21\n      jump\t// in\n    tag_19:\n      mload(0x40)\n      tag_22\n      swap2\n      swap1\n      tag_12\n      jump\t// in\n    tag_22:\n      mload(0x40)\n      dup1\n      swap2\n      sub\n      swap1\n      return\n        /* \"contracts/Notary.sol\":536:811  function verifyDocument(string memory text) public view returns (bool,... */\n    tag_6:\n      tag_23\n      0x04\n      dup1\n      calldatasize\n      sub\n      dup2\n      add\n      swap1\n      tag_24\n      swap2\n      swap1\n      tag_9\n      jump\t// in\n    tag_24:\n      tag_25\n      jump\t// in\n    tag_23:\n      mload(0x40)\n      tag_26\n      swap4\n      swap3\n      swap2\n      swap1\n      tag_27\n      jump\t// in\n    tag_26:\n      mload(0x40)\n      dup1\n      swap2\n      sub\n      swap1\n      return\n        /* \"contracts/Notary.sol\":323:534  function notarizeDocument(string memory text) public returns (bytes32) {... */\n    tag_10:\n        /* \"contracts/Notary.sol\":385:392  bytes32 */\n      0x00\n        /* \"contracts/Notary.sol\":397:406  bytes32 h */\n      0x00\n        /* \"contracts/Notary.sol\":436:440  text */\n      dup3\n        /* \"contracts/Notary.sol\":419:441  abi.encodePacked(text) */\n      add(0x20, mload(0x40))\n      tag_29\n      swap2\n      swap1\n      tag_30\n      jump\t// in\n    tag_29:\n      mload(0x40)\n      0x20\n      dup2\n      dup4\n      sub\n      sub\n      dup2\n      mstore\n      swap1\n      0x40\n      mstore\n        /* \"contracts/Notary.sol\":409:442  keccak256(abi.encodePacked(text)) */\n      dup1\n      mload\n      swap1\n      0x20\n      add\n      keccak256\n        /* \"contracts/Notary.sol\":397:442  bytes32 h = keccak256(abi.encodePacked(text)) */\n      swap1\n      pop\n        /* \"contracts/Notary.sol\":455:487  Doc(msg.sender, block.timestamp) */\n      mload(0x40)\n      dup1\n      0x40\n      add\n      0x40\n      mstore\n      dup1\n        /* \"contracts/Notary.sol\":459:469  msg.sender */\n      caller\n        /* \"contracts/Notary.sol\":455:487  Doc(msg.sender, block.timestamp) */\n      0xffffffffffffffffffffffffffffffffffffffff\n      and\n      dup2\n      mstore\n      0x20\n      add\n        /* \"contracts/Notary.sol\":471:486  block.timestamp */\n      timestamp\n        /* \"contracts/Notary.sol\":455:487  Doc(msg.sender, block.timestamp) */\n      dup2\n      mstore\n      pop\n        /* \"contracts/Notary.sol\":445:449  docs */\n      0x00\n        /* \"contracts/Notary.sol\":445:452  docs[h] */\n      0x00\n        /* \"contracts/Notary.sol\":450:451  h */\n      dup4\n        /* \"contracts/Notary.sol\":445:452  docs[h] */\n      dup2\n      mstore\n      0x20\n      add\n      swap1\n      dup2\n      mstore\n      0x20\n      add\n      0x00\n      keccak256\n        /* \"contracts/Notary.sol\":445:487  docs[h] = Doc(msg.sender, block.timestamp) */\n      0x00\n      dup3\n      add\n      mload\n      dup2\n      0x00\n      add\n      exp(0x0100, 0x00)\n      dup2\n      sload\n      dup2\n      0xffffffffffffffffffffffffffffffffffffffff\n      mul\n      not\n      and\n      swap1\n      dup4\n      0xffffffffffffffffffffffffffffffffffffffff\n      and\n      mul\n      or\n      swap1\n      sstore\n      pop\n      0x20\n      dup3\n      add\n      mload\n      dup2\n      0x01\n      add\n      sstore\n      swap1\n      pop\n      pop\n        /* \"contracts/Notary.sol\":495:519  Notarized(h, msg.sender) */\n      0xab80fa70e3d224258ef04c3d8757b12910162892059f7b47d1e2a4b754d44dcc\n        /* \"contracts/Notary.sol\":505:506  h */\n      dup2\n        /* \"contracts/Notary.sol\":508:518  msg.sender */\n      caller\n        /* \"contracts/Notary.sol\":495:519  Notarized(h, msg.sender) */\n      mload(0x40)\n      tag_31\n      swap3\n      swap2\n      swap1\n      tag_32\n      jump\t// in\n    tag_31:\n      mload(0x40)\n      dup1\n      swap2\n      sub\n      swap1\n      log1\n        /* \"contracts/Notary.sol\":529:530  h */\n      dup1\n        /* \"contracts/Notary.sol\":522:530  return h */\n      swap2\n      pop\n      pop\n        /* \"contracts/Notary.sol\":323:534  function notarizeDocument(string memory text) public returns (bytes32) {... */\n      swap2\n      swap1\n      pop\n      jump\t// out\n        /* \"contracts/Notary.sol\":117:152  mapping(bytes32 => Doc) public docs */\n    tag_16:\n      mstore(0x20, 0x00)\n      dup1\n      0x00\n      mstore\n      keccak256(0x00, 0x40)\n      0x00\n      swap2\n      pop\n      swap1\n      pop\n      dup1\n      0x00\n      add\n      0x00\n      swap1\n      sload\n      swap1\n      0x0100\n      exp\n      swap1\n      div\n      0xffffffffffffffffffffffffffffffffffffffff\n      and\n      swap1\n      dup1\n      0x01\n      add\n      sload\n      swap1\n      pop\n      dup3\n      jump\t// out\n        /* \"contracts/Notary.sol\":202:321  function generateHash(string memory text) public pure returns (bytes32) {... */\n    tag_21:\n        /* \"contracts/Notary.sol\":265:272  bytes32 */\n      0x00\n        /* \"contracts/Notary.sol\":311:315  text */\n      dup2\n        /* \"contracts/Notary.sol\":294:316  abi.encodePacked(text) */\n      add(0x20, mload(0x40))\n      tag_34\n      swap2\n      swap1\n      tag_30\n      jump\t// in\n    tag_34:\n      mload(0x40)\n      0x20\n      dup2\n      dup4\n      sub\n      sub\n      dup2\n      mstore\n      swap1\n      0x40\n      mstore\n        /* \"contracts/Notary.sol\":284:317  keccak256(abi.encodePacked(text)) */\n      dup1\n      mload\n      swap1\n      0x20\n      add\n      keccak256\n        /* \"contracts/Notary.sol\":277:317  return keccak256(abi.encodePacked(text)) */\n      swap1\n      pop\n        /* \"contracts/Notary.sol\":202:321  function generateHash(string memory text) public pure returns (bytes32) {... */\n      swap2\n      swap1\n      pop\n      jump\t// out\n        /* \"contracts/Notary.sol\":536:811  function verifyDocument(string memory text) public view returns (bool,... */\n    tag_25:\n        /* \"contracts/Notary.sol\":601:605  bool */\n      0x00\n        /* \"contracts/Notary.sol\":608:615  address */\n      0x00\n        /* \"contracts/Notary.sol\":617:621  uint */\n      0x00\n        /* \"contracts/Notary.sol\":626:635  bytes32 h */\n      0x00\n        /* \"contracts/Notary.sol\":665:669  text */\n      dup5\n        /* \"contracts/Notary.sol\":648:670  abi.encodePacked(text) */\n      add(0x20, mload(0x40))\n      tag_36\n      swap2\n      swap1\n      tag_30\n      jump\t// in\n    tag_36:\n      mload(0x40)\n      0x20\n      dup2\n      dup4\n      sub\n      sub\n      dup2\n      mstore\n      swap1\n      0x40\n      mstore\n        /* \"contracts/Notary.sol\":638:671  keccak256(abi.encodePacked(text)) */\n      dup1\n      mload\n      swap1\n      0x20\n      add\n      keccak256\n        /* \"contracts/Notary.sol\":626:671  bytes32 h = keccak256(abi.encodePacked(text)) */\n      swap1\n      pop\n        /* \"contracts/Notary.sol\":674:687  Doc storage d */\n      0x00\n        /* \"contracts/Notary.sol\":690:694  docs */\n      0x00\n        /* \"contracts/Notary.sol\":690:697  docs[h] */\n      0x00\n        /* \"contracts/Notary.sol\":695:696  h */\n      dup4\n        /* \"contracts/Notary.sol\":690:697  docs[h] */\n      dup2\n      mstore\n      0x20\n      add\n      swap1\n      dup2\n      mstore\n      0x20\n      add\n      0x00\n      keccak256\n        /* \"contracts/Notary.sol\":674:697  Doc storage d = docs[h] */\n      swap1\n      pop\n        /* \"contracts/Notary.sol\":723:724  0 */\n      0x00\n        /* \"contracts/Notary.sol\":704:725  d.owner != address(0) */\n      0xffffffffffffffffffffffffffffffffffffffff\n      and\n        /* \"contracts/Notary.sol\":704:705  d */\n      dup2\n        /* \"contracts/Notary.sol\":704:711  d.owner */\n      0x00\n      add\n      0x00\n      swap1\n      sload\n      swap1\n      0x0100\n      exp\n      swap1\n      div\n      0xffffffffffffffffffffffffffffffffffffffff\n      and\n        /* \"contracts/Notary.sol\":704:725  d.owner != address(0) */\n      0xffffffffffffffffffffffffffffffffffffffff\n      and\n      eq\n        /* \"contracts/Notary.sol\":700:808  if (d.owner != address(0)) {... */\n      tag_37\n      jumpi\n        /* \"contracts/Notary.sol\":742:746  true */\n      0x01\n        /* \"contracts/Notary.sol\":748:749  d */\n      dup2\n        /* \"contracts/Notary.sol\":748:755  d.owner */\n      0x00\n      add\n      0x00\n      swap1\n      sload\n      swap1\n      0x0100\n      exp\n      swap1\n      div\n      0xffffffffffffffffffffffffffffffffffffffff\n      and\n        /* \"contracts/Notary.sol\":757:758  d */\n      dup3\n        /* \"contracts/Notary.sol\":757:761  d.ts */\n      0x01\n      add\n      sload\n        /* \"contracts/Notary.sol\":734:762  return (true, d.owner, d.ts) */\n      swap5\n      pop\n      swap5\n      pop\n      swap5\n      pop\n      pop\n      pop\n      jump(tag_35)\n        /* \"contracts/Notary.sol\":700:808  if (d.owner != address(0)) {... */\n    tag_37:\n        /* \"contracts/Notary.sol\":783:788  false */\n      0x00\n        /* \"contracts/Notary.sol\":798:799  0 */\n      0x00\n        /* \"contracts/Notary.sol\":802:803  0 */\n      0x00\n        /* \"contracts/Notary.sol\":775:804  return (false, address(0), 0) */\n      swap5\n      pop\n      swap5\n      pop\n      swap5\n      pop\n      pop\n      pop\n        /* \"contracts/Notary.sol\":536:811  function verifyDocument(string memory text) public view returns (bool,... */\n    tag_35:\n      swap2\n      swap4\n      swap1\n      swap3\n      pop\n      jump\t// out\n        /* \"#utility.yul\":7:82   */\n    tag_39:\n        /* \"#utility.yul\":40:46   */\n      0x00\n        /* \"#utility.yul\":73:75   */\n      0x40\n        /* \"#utility.yul\":67:76   */\n      mload\n        /* \"#utility.yul\":57:76   */\n      swap1\n      pop\n        /* \"#utility.yul\":7:82   */\n      swap1\n      jump\t// out\n        /* \"#utility.yul\":88:205   */\n    tag_40:\n        /* \"#utility.yul\":197:198   */\n      0x00\n        /* \"#utility.yul\":194:195   */\n      0x00\n        /* \"#utility.yul\":187:199   */\n      revert\n        /* \"#utility.yul\":211:328   */\n    tag_41:\n        /* \"#utility.yul\":320:321   */\n      0x00\n        /* \"#utility.yul\":317:318   */\n      0x00\n        /* \"#utility.yul\":310:322   */\n      revert\n        /* \"#utility.yul\":334:451   */\n    tag_42:\n        /* \"#utility.yul\":443:444   */\n      0x00\n        /* \"#utility.yul\":440:441   */\n      0x00\n        /* \"#utility.yul\":433:445   */\n      revert\n        /* \"#utility.yul\":457:574   */\n    tag_43:\n        /* \"#utility.yul\":566:567   */\n      0x00\n        /* \"#utility.yul\":563:564   */\n      0x00\n        /* \"#utility.yul\":556:568   */\n      revert\n        /* \"#utility.yul\":580:682   */\n    tag_44:\n        /* \"#utility.yul\":621:627   */\n      0x00\n        /* \"#utility.yul\":672:674   */\n      0x1f\n        /* \"#utility.yul\":668:675   */\n      not\n        /* \"#utility.yul\":663:665   */\n      0x1f\n        /* \"#utility.yul\":656:661   */\n      dup4\n        /* \"#utility.yul\":652:666   */\n      add\n        /* \"#utility.yul\":648:676   */\n      and\n        /* \"#utility.yul\":638:676   */\n      swap1\n      pop\n        /* \"#utility.yul\":580:682   */\n      swap2\n      swap1\n      pop\n      jump\t// out\n        /* \"#utility.yul\":688:868   */\n    tag_45:\n        /* \"#utility.yul\":736:813   */\n      0x4e487b7100000000000000000000000000000000000000000000000000000000\n        /* \"#utility.yul\":733:734   */\n      0x00\n        /* \"#utility.yul\":726:814   */\n      mstore\n        /* \"#utility.yul\":833:837   */\n      0x41\n        /* \"#utility.yul\":830:831   */\n      0x04\n        /* \"#utility.yul\":823:838   */\n      mstore\n        /* \"#utility.yul\":857:861   */\n      0x24\n        /* \"#utility.yul\":854:855   */\n      0x00\n        /* \"#utility.yul\":847:862   */\n      revert\n        /* \"#utility.yul\":874:1155   */\n    tag_46:\n        /* \"#utility.yul\":957:984   */\n      tag_76\n        /* \"#utility.yul\":979:983   */\n      dup3\n        /* \"#utility.yul\":957:984   */\n      tag_44\n      jump\t// in\n    tag_76:\n        /* \"#utility.yul\":949:955   */\n      dup2\n        /* \"#utility.yul\":945:985   */\n      add\n        /* \"#utility.yul\":1087:1093   */\n      dup2\n        /* \"#utility.yul\":1075:1085   */\n      dup2\n        /* \"#utility.yul\":1072:1094   */\n      lt\n        /* \"#utility.yul\":1051:1069   */\n      0xffffffffffffffff\n        /* \"#utility.yul\":1039:1049   */\n      dup3\n        /* \"#utility.yul\":1036:1070   */\n      gt\n        /* \"#utility.yul\":1033:1095   */\n      or\n        /* \"#utility.yul\":1030:1118   */\n      iszero\n      tag_77\n      jumpi\n        /* \"#utility.yul\":1098:1116   */\n      tag_78\n      tag_45\n      jump\t// in\n    tag_78:\n        /* \"#utility.yul\":1030:1118   */\n    tag_77:\n        /* \"#utility.yul\":1138:1148   */\n      dup1\n        /* \"#utility.yul\":1134:1136   */\n      0x40\n        /* \"#utility.yul\":1127:1149   */\n      mstore\n        /* \"#utility.yul\":917:1155   */\n      pop\n        /* \"#utility.yul\":874:1155   */\n      pop\n      pop\n      jump\t// out\n        /* \"#utility.yul\":1161:1290   */\n    tag_47:\n        /* \"#utility.yul\":1195:1201   */\n      0x00\n        /* \"#utility.yul\":1222:1242   */\n      tag_80\n      tag_39\n      jump\t// in\n    tag_80:\n        /* \"#utility.yul\":1212:1242   */\n      swap1\n      pop\n        /* \"#utility.yul\":1251:1284   */\n      tag_81\n        /* \"#utility.yul\":1279:1283   */\n      dup3\n        /* \"#utility.yul\":1271:1277   */\n      dup3\n        /* \"#utility.yul\":1251:1284   */\n      tag_46\n      jump\t// in\n    tag_81:\n        /* \"#utility.yul\":1161:1290   */\n      swap2\n      swap1\n      pop\n      jump\t// out\n        /* \"#utility.yul\":1296:1604   */\n    tag_48:\n        /* \"#utility.yul\":1358:1362   */\n      0x00\n        /* \"#utility.yul\":1448:1466   */\n      0xffffffffffffffff\n        /* \"#utility.yul\":1440:1446   */\n      dup3\n        /* \"#utility.yul\":1437:1467   */\n      gt\n        /* \"#utility.yul\":1434:1490   */\n      iszero\n      tag_83\n      jumpi\n        /* \"#utility.yul\":1470:1488   */\n      tag_84\n      tag_45\n      jump\t// in\n    tag_84:\n        /* \"#utility.yul\":1434:1490   */\n    tag_83:\n        /* \"#utility.yul\":1508:1537   */\n      tag_85\n        /* \"#utility.yul\":1530:1536   */\n      dup3\n        /* \"#utility.yul\":1508:1537   */\n      tag_44\n      jump\t// in\n    tag_85:\n        /* \"#utility.yul\":1500:1537   */\n      swap1\n      pop\n        /* \"#utility.yul\":1592:1596   */\n      0x20\n        /* \"#utility.yul\":1586:1590   */\n      dup2\n        /* \"#utility.yul\":1582:1597   */\n      add\n        /* \"#utility.yul\":1574:1597   */\n      swap1\n      pop\n        /* \"#utility.yul\":1296:1604   */\n      swap2\n      swap1\n      pop\n      jump\t// out\n        /* \"#utility.yul\":1610:1758   */\n    tag_49:\n        /* \"#utility.yul\":1708:1714   */\n      dup3\n        /* \"#utility.yul\":1703:1706   */\n      dup2\n        /* \"#utility.yul\":1698:1701   */\n      dup4\n        /* \"#utility.yul\":1685:1715   */\n      calldatacopy\n        /* \"#utility.yul\":1749:1750   */\n      0x00\n        /* \"#utility.yul\":1740:1746   */\n      dup4\n        /* \"#utility.yul\":1735:1738   */\n      dup4\n        /* \"#utility.yul\":1731:1747   */\n      add\n        /* \"#utility.yul\":1724:1751   */\n      mstore\n        /* \"#utility.yul\":1610:1758   */\n      pop\n      pop\n      pop\n      jump\t// out\n        /* \"#utility.yul\":1764:2189   */\n    tag_50:\n        /* \"#utility.yul\":1842:1847   */\n      0x00\n        /* \"#utility.yul\":1867:1933   */\n      tag_88\n        /* \"#utility.yul\":1883:1932   */\n      tag_89\n        /* \"#utility.yul\":1925:1931   */\n      dup5\n        /* \"#utility.yul\":1883:1932   */\n      tag_48\n      jump\t// in\n    tag_89:\n        /* \"#utility.yul\":1867:1933   */\n      tag_47\n      jump\t// in\n    tag_88:\n        /* \"#utility.yul\":1858:1933   */\n      swap1\n      pop\n        /* \"#utility.yul\":1956:1962   */\n      dup3\n        /* \"#utility.yul\":1949:1954   */\n      dup2\n        /* \"#utility.yul\":1942:1963   */\n      mstore\n        /* \"#utility.yul\":1994:1998   */\n      0x20\n        /* \"#utility.yul\":1987:1992   */\n      dup2\n        /* \"#utility.yul\":1983:1999   */\n      add\n        /* \"#utility.yul\":2032:2035   */\n      dup5\n        /* \"#utility.yul\":2023:2029   */\n      dup5\n        /* \"#utility.yul\":2018:2021   */\n      dup5\n        /* \"#utility.yul\":2014:2030   */\n      add\n        /* \"#utility.yul\":2011:2036   */\n      gt\n        /* \"#utility.yul\":2008:2120   */\n      iszero\n      tag_90\n      jumpi\n        /* \"#utility.yul\":2039:2118   */\n      tag_91\n      tag_43\n      jump\t// in\n    tag_91:\n        /* \"#utility.yul\":2008:2120   */\n    tag_90:\n        /* \"#utility.yul\":2129:2183   */\n      tag_92\n        /* \"#utility.yul\":2176:2182   */\n      dup5\n        /* \"#utility.yul\":2171:2174   */\n      dup3\n        /* \"#utility.yul\":2166:2169   */\n      dup6\n        /* \"#utility.yul\":2129:2183   */\n      tag_49\n      jump\t// in\n    tag_92:\n        /* \"#utility.yul\":1848:2189   */\n      pop\n        /* \"#utility.yul\":1764:2189   */\n      swap4\n      swap3\n      pop\n      pop\n      pop\n      jump\t// out\n        /* \"#utility.yul\":2209:2549   */\n    tag_51:\n        /* \"#utility.yul\":2265:2270   */\n      0x00\n        /* \"#utility.yul\":2314:2317   */\n      dup3\n        /* \"#utility.yul\":2307:2311   */\n      0x1f\n        /* \"#utility.yul\":2299:2305   */\n      dup4\n        /* \"#utility.yul\":2295:2312   */\n      add\n        /* \"#utility.yul\":2291:2318   */\n      slt\n        /* \"#utility.yul\":2281:2403   */\n      tag_94\n      jumpi\n        /* \"#utility.yul\":2322:2401   */\n      tag_95\n      tag_42\n      jump\t// in\n    tag_95:\n        /* \"#utility.yul\":2281:2403   */\n    tag_94:\n        /* \"#utility.yul\":2439:2445   */\n      dup2\n        /* \"#utility.yul\":2426:2446   */\n      calldataload\n        /* \"#utility.yul\":2464:2543   */\n      tag_96\n        /* \"#utility.yul\":2539:2542   */\n      dup5\n        /* \"#utility.yul\":2531:2537   */\n      dup3\n        /* \"#utility.yul\":2524:2528   */\n      0x20\n        /* \"#utility.yul\":2516:2522   */\n      dup7\n        /* \"#utility.yul\":2512:2529   */\n      add\n        /* \"#utility.yul\":2464:2543   */\n      tag_50\n      jump\t// in\n    tag_96:\n        /* \"#utility.yul\":2455:2543   */\n      swap2\n      pop\n        /* \"#utility.yul\":2271:2549   */\n      pop\n        /* \"#utility.yul\":2209:2549   */\n      swap3\n      swap2\n      pop\n      pop\n      jump\t// out\n        /* \"#utility.yul\":2555:3064   */\n    tag_9:\n        /* \"#utility.yul\":2624:2630   */\n      0x00\n        /* \"#utility.yul\":2673:2675   */\n      0x20\n        /* \"#utility.yul\":2661:2670   */\n      dup3\n        /* \"#utility.yul\":2652:2659   */\n      dup5\n        /* \"#utility.yul\":2648:2671   */\n      sub\n        /* \"#utility.yul\":2644:2676   */\n      slt\n        /* \"#utility.yul\":2641:2760   */\n      iszero\n      tag_98\n      jumpi\n        /* \"#utility.yul\":2679:2758   */\n      tag_99\n      tag_40\n      jump\t// in\n    tag_99:\n        /* \"#utility.yul\":2641:2760   */\n    tag_98:\n        /* \"#utility.yul\":2827:2828   */\n      0x00\n        /* \"#utility.yul\":2816:2825   */\n      dup3\n        /* \"#utility.yul\":2812:2829   */\n      add\n        /* \"#utility.yul\":2799:2830   */\n      calldataload\n        /* \"#utility.yul\":2857:2875   */\n      0xffffffffffffffff\n        /* \"#utility.yul\":2849:2855   */\n      dup2\n        /* \"#utility.yul\":2846:2876   */\n      gt\n        /* \"#utility.yul\":2843:2960   */\n      iszero\n      tag_100\n      jumpi\n        /* \"#utility.yul\":2879:2958   */\n      tag_101\n      tag_41\n      jump\t// in\n    tag_101:\n        /* \"#utility.yul\":2843:2960   */\n    tag_100:\n        /* \"#utility.yul\":2984:3047   */\n      tag_102\n        /* \"#utility.yul\":3039:3046   */\n      dup5\n        /* \"#utility.yul\":3030:3036   */\n      dup3\n        /* \"#utility.yul\":3019:3028   */\n      dup6\n        /* \"#utility.yul\":3015:3037   */\n      add\n        /* \"#utility.yul\":2984:3047   */\n      tag_51\n      jump\t// in\n    tag_102:\n        /* \"#utility.yul\":2974:3047   */\n      swap2\n      pop\n        /* \"#utility.yul\":2770:3057   */\n      pop\n        /* \"#utility.yul\":2555:3064   */\n      swap3\n      swap2\n      pop\n      pop\n      jump\t// out\n        /* \"#utility.yul\":3070:3147   */\n    tag_52:\n        /* \"#utility.yul\":3107:3114   */\n      0x00\n        /* \"#utility.yul\":3136:3141   */\n      dup2\n        /* \"#utility.yul\":3125:3141   */\n      swap1\n      pop\n        /* \"#utility.yul\":3070:3147   */\n      swap2\n      swap1\n      pop\n      jump\t// out\n        /* \"#utility.yul\":3153:3271   */\n    tag_53:\n        /* \"#utility.yul\":3240:3264   */\n      tag_105\n        /* \"#utility.yul\":3258:3263   */\n      dup2\n        /* \"#utility.yul\":3240:3264   */\n      tag_52\n      jump\t// in\n    tag_105:\n        /* \"#utility.yul\":3235:3238   */\n      dup3\n        /* \"#utility.yul\":3228:3265   */\n      mstore\n        /* \"#utility.yul\":3153:3271   */\n      pop\n      pop\n      jump\t// out\n        /* \"#utility.yul\":3277:3499   */\n    tag_12:\n        /* \"#utility.yul\":3370:3374   */\n      0x00\n        /* \"#utility.yul\":3408:3410   */\n      0x20\n        /* \"#utility.yul\":3397:3406   */\n      dup3\n        /* \"#utility.yul\":3393:3411   */\n      add\n        /* \"#utility.yul\":3385:3411   */\n      swap1\n      pop\n        /* \"#utility.yul\":3421:3492   */\n      tag_107\n        /* \"#utility.yul\":3489:3490   */\n      0x00\n        /* \"#utility.yul\":3478:3487   */\n      dup4\n        /* \"#utility.yul\":3474:3491   */\n      add\n        /* \"#utility.yul\":3465:3471   */\n      dup5\n        /* \"#utility.yul\":3421:3492   */\n      tag_53\n      jump\t// in\n    tag_107:\n        /* \"#utility.yul\":3277:3499   */\n      swap3\n      swap2\n      pop\n      pop\n      jump\t// out\n        /* \"#utility.yul\":3505:3627   */\n    tag_54:\n        /* \"#utility.yul\":3578:3602   */\n      tag_109\n        /* \"#utility.yul\":3596:3601   */\n      dup2\n        /* \"#utility.yul\":3578:3602   */\n      tag_52\n      jump\t// in\n    tag_109:\n        /* \"#utility.yul\":3571:3576   */\n      dup2\n        /* \"#utility.yul\":3568:3603   */\n      eq\n        /* \"#utility.yul\":3558:3621   */\n      tag_110\n      jumpi\n        /* \"#utility.yul\":3617:3618   */\n      0x00\n        /* \"#utility.yul\":3614:3615   */\n      0x00\n        /* \"#utility.yul\":3607:3619   */\n      revert\n        /* \"#utility.yul\":3558:3621   */\n    tag_110:\n        /* \"#utility.yul\":3505:3627   */\n      pop\n      jump\t// out\n        /* \"#utility.yul\":3633:3772   */\n    tag_55:\n        /* \"#utility.yul\":3679:3684   */\n      0x00\n        /* \"#utility.yul\":3717:3723   */\n      dup2\n        /* \"#utility.yul\":3704:3724   */\n      calldataload\n        /* \"#utility.yul\":3695:3724   */\n      swap1\n      pop\n        /* \"#utility.yul\":3733:3766   */\n      tag_112\n        /* \"#utility.yul\":3760:3765   */\n      dup2\n        /* \"#utility.yul\":3733:3766   */\n      tag_54\n      jump\t// in\n    tag_112:\n        /* \"#utility.yul\":3633:3772   */\n      swap3\n      swap2\n      pop\n      pop\n      jump\t// out\n        /* \"#utility.yul\":3778:4107   */\n    tag_15:\n        /* \"#utility.yul\":3837:3843   */\n      0x00\n        /* \"#utility.yul\":3886:3888   */\n      0x20\n        /* \"#utility.yul\":3874:3883   */\n      dup3\n        /* \"#utility.yul\":3865:3872   */\n      dup5\n        /* \"#utility.yul\":3861:3884   */\n      sub\n        /* \"#utility.yul\":3857:3889   */\n      slt\n        /* \"#utility.yul\":3854:3973   */\n      iszero\n      tag_114\n      jumpi\n        /* \"#utility.yul\":3892:3971   */\n      tag_115\n      tag_40\n      jump\t// in\n    tag_115:\n        /* \"#utility.yul\":3854:3973   */\n    tag_114:\n        /* \"#utility.yul\":4012:4013   */\n      0x00\n        /* \"#utility.yul\":4037:4090   */\n      tag_116\n        /* \"#utility.yul\":4082:4089   */\n      dup5\n        /* \"#utility.yul\":4073:4079   */\n      dup3\n        /* \"#utility.yul\":4062:4071   */\n      dup6\n        /* \"#utility.yul\":4058:4080   */\n      add\n        /* \"#utility.yul\":4037:4090   */\n      tag_55\n      jump\t// in\n    tag_116:\n        /* \"#utility.yul\":4027:4090   */\n      swap2\n      pop\n        /* \"#utility.yul\":3983:4100   */\n      pop\n        /* \"#utility.yul\":3778:4107   */\n      swap3\n      swap2\n      pop\n      pop\n      jump\t// out\n        /* \"#utility.yul\":4113:4239   */\n    tag_56:\n        /* \"#utility.yul\":4150:4157   */\n      0x00\n        /* \"#utility.yul\":4190:4232   */\n      0xffffffffffffffffffffffffffffffffffffffff\n        /* \"#utility.yul\":4183:4188   */\n      dup3\n        /* \"#utility.yul\":4179:4233   */\n      and\n        /* \"#utility.yul\":4168:4233   */\n      swap1\n      pop\n        /* \"#utility.yul\":4113:4239   */\n      swap2\n      swap1\n      pop\n      jump\t// out\n        /* \"#utility.yul\":4245:4341   */\n    tag_57:\n        /* \"#utility.yul\":4282:4289   */\n      0x00\n        /* \"#utility.yul\":4311:4335   */\n      tag_119\n        /* \"#utility.yul\":4329:4334   */\n      dup3\n        /* \"#utility.yul\":4311:4335   */\n      tag_56\n      jump\t// in\n    tag_119:\n        /* \"#utility.yul\":4300:4335   */\n      swap1\n      pop\n        /* \"#utility.yul\":4245:4341   */\n      swap2\n      swap1\n      pop\n      jump\t// out\n        /* \"#utility.yul\":4347:4465   */\n    tag_58:\n        /* \"#utility.yul\":4434:4458   */\n      tag_121\n        /* \"#utility.yul\":4452:4457   */\n      dup2\n        /* \"#utility.yul\":4434:4458   */\n      tag_57\n      jump\t// in\n    tag_121:\n        /* \"#utility.yul\":4429:4432   */\n      dup3\n        /* \"#utility.yul\":4422:4459   */\n      mstore\n        /* \"#utility.yul\":4347:4465   */\n      pop\n      pop\n      jump\t// out\n        /* \"#utility.yul\":4471:4548   */\n    tag_59:\n        /* \"#utility.yul\":4508:4515   */\n      0x00\n        /* \"#utility.yul\":4537:4542   */\n      dup2\n        /* \"#utility.yul\":4526:4542   */\n      swap1\n      pop\n        /* \"#utility.yul\":4471:4548   */\n      swap2\n      swap1\n      pop\n      jump\t// out\n        /* \"#utility.yul\":4554:4672   */\n    tag_60:\n        /* \"#utility.yul\":4641:4665   */\n      tag_124\n        /* \"#utility.yul\":4659:4664   */\n      dup2\n        /* \"#utility.yul\":4641:4665   */\n      tag_59\n      jump\t// in\n    tag_124:\n        /* \"#utility.yul\":4636:4639   */\n      dup3\n        /* \"#utility.yul\":4629:4666   */\n      mstore\n        /* \"#utility.yul\":4554:4672   */\n      pop\n      pop\n      jump\t// out\n        /* \"#utility.yul\":4678:5010   */\n    tag_18:\n        /* \"#utility.yul\":4799:4803   */\n      0x00\n        /* \"#utility.yul\":4837:4839   */\n      0x40\n        /* \"#utility.yul\":4826:4835   */\n      dup3\n        /* \"#utility.yul\":4822:4840   */\n      add\n        /* \"#utility.yul\":4814:4840   */\n      swap1\n      pop\n        /* \"#utility.yul\":4850:4921   */\n      tag_126\n        /* \"#utility.yul\":4918:4919   */\n      0x00\n        /* \"#utility.yul\":4907:4916   */\n      dup4\n        /* \"#utility.yul\":4903:4920   */\n      add\n        /* \"#utility.yul\":4894:4900   */\n      dup6\n        /* \"#utility.yul\":4850:4921   */\n      tag_58\n      jump\t// in\n    tag_126:\n        /* \"#utility.yul\":4931:5003   */\n      tag_127\n        /* \"#utility.yul\":4999:5001   */\n      0x20\n        /* \"#utility.yul\":4988:4997   */\n      dup4\n        /* \"#utility.yul\":4984:5002   */\n      add\n        /* \"#utility.yul\":4975:4981   */\n      dup5\n        /* \"#utility.yul\":4931:5003   */\n      tag_60\n      jump\t// in\n    tag_127:\n        /* \"#utility.yul\":4678:5010   */\n      swap4\n      swap3\n      pop\n      pop\n      pop\n      jump\t// out\n        /* \"#utility.yul\":5016:5106   */\n    tag_61:\n        /* \"#utility.yul\":5050:5057   */\n      0x00\n        /* \"#utility.yul\":5093:5098   */\n      dup2\n        /* \"#utility.yul\":5086:5099   */\n      iszero\n        /* \"#utility.yul\":5079:5100   */\n      iszero\n        /* \"#utility.yul\":5068:5100   */\n      swap1\n      pop\n        /* \"#utility.yul\":5016:5106   */\n      swap2\n      swap1\n      pop\n      jump\t// out\n        /* \"#utility.yul\":5112:5221   */\n    tag_62:\n        /* \"#utility.yul\":5193:5214   */\n      tag_130\n        /* \"#utility.yul\":5208:5213   */\n      dup2\n        /* \"#utility.yul\":5193:5214   */\n      tag_61\n      jump\t// in\n    tag_130:\n        /* \"#utility.yul\":5188:5191   */\n      dup3\n        /* \"#utility.yul\":5181:5215   */\n      mstore\n        /* \"#utility.yul\":5112:5221   */\n      pop\n      pop\n      jump\t// out\n        /* \"#utility.yul\":5227:5657   */\n    tag_27:\n        /* \"#utility.yul\":5370:5374   */\n      0x00\n        /* \"#utility.yul\":5408:5410   */\n      0x60\n        /* \"#utility.yul\":5397:5406   */\n      dup3\n        /* \"#utility.yul\":5393:5411   */\n      add\n        /* \"#utility.yul\":5385:5411   */\n      swap1\n      pop\n        /* \"#utility.yul\":5421:5486   */\n      tag_132\n        /* \"#utility.yul\":5483:5484   */\n      0x00\n        /* \"#utility.yul\":5472:5481   */\n      dup4\n        /* \"#utility.yul\":5468:5485   */\n      add\n        /* \"#utility.yul\":5459:5465   */\n      dup7\n        /* \"#utility.yul\":5421:5486   */\n      tag_62\n      jump\t// in\n    tag_132:\n        /* \"#utility.yul\":5496:5568   */\n      tag_133\n        /* \"#utility.yul\":5564:5566   */\n      0x20\n        /* \"#utility.yul\":5553:5562   */\n      dup4\n        /* \"#utility.yul\":5549:5567   */\n      add\n        /* \"#utility.yul\":5540:5546   */\n      dup6\n        /* \"#utility.yul\":5496:5568   */\n      tag_58\n      jump\t// in\n    tag_133:\n        /* \"#utility.yul\":5578:5650   */\n      tag_134\n        /* \"#utility.yul\":5646:5648   */\n      0x40\n        /* \"#utility.yul\":5635:5644   */\n      dup4\n        /* \"#utility.yul\":5631:5649   */\n      add\n        /* \"#utility.yul\":5622:5628   */\n      dup5\n        /* \"#utility.yul\":5578:5650   */\n      tag_60\n      jump\t// in\n    tag_134:\n        /* \"#utility.yul\":5227:5657   */\n      swap5\n      swap4\n      pop\n      pop\n      pop\n      pop\n      jump\t// out\n        /* \"#utility.yul\":5663:5762   */\n    tag_63:\n        /* \"#utility.yul\":5715:5721   */\n      0x00\n        /* \"#utility.yul\":5749:5754   */\n      dup2\n        /* \"#utility.yul\":5743:5755   */\n      mload\n        /* \"#utility.yul\":5733:5755   */\n      swap1\n      pop\n        /* \"#utility.yul\":5663:5762   */\n      swap2\n      swap1\n      pop\n      jump\t// out\n        /* \"#utility.yul\":5768:5916   */\n    tag_64:\n        /* \"#utility.yul\":5870:5881   */\n      0x00\n        /* \"#utility.yul\":5907:5910   */\n      dup2\n        /* \"#utility.yul\":5892:5910   */\n      swap1\n      pop\n        /* \"#utility.yul\":5768:5916   */\n      swap3\n      swap2\n      pop\n      pop\n      jump\t// out\n        /* \"#utility.yul\":5922:6061   */\n    tag_65:\n        /* \"#utility.yul\":6011:6017   */\n      dup3\n        /* \"#utility.yul\":6006:6009   */\n      dup2\n        /* \"#utility.yul\":6001:6004   */\n      dup4\n        /* \"#utility.yul\":5995:6018   */\n      mcopy\n        /* \"#utility.yul\":6052:6053   */\n      0x00\n        /* \"#utility.yul\":6043:6049   */\n      dup4\n        /* \"#utility.yul\":6038:6041   */\n      dup4\n        /* \"#utility.yul\":6034:6050   */\n      add\n        /* \"#utility.yul\":6027:6054   */\n      mstore\n        /* \"#utility.yul\":5922:6061   */\n      pop\n      pop\n      pop\n      jump\t// out\n        /* \"#utility.yul\":6067:6457   */\n    tag_66:\n        /* \"#utility.yul\":6173:6176   */\n      0x00\n        /* \"#utility.yul\":6201:6240   */\n      tag_139\n        /* \"#utility.yul\":6234:6239   */\n      dup3\n        /* \"#utility.yul\":6201:6240   */\n      tag_63\n      jump\t// in\n    tag_139:\n        /* \"#utility.yul\":6256:6345   */\n      tag_140\n        /* \"#utility.yul\":6338:6344   */\n      dup2\n        /* \"#utility.yul\":6333:6336   */\n      dup6\n        /* \"#utility.yul\":6256:6345   */\n      tag_64\n      jump\t// in\n    tag_140:\n        /* \"#utility.yul\":6249:6345   */\n      swap4\n      pop\n        /* \"#utility.yul\":6354:6419   */\n      tag_141\n        /* \"#utility.yul\":6412:6418   */\n      dup2\n        /* \"#utility.yul\":6407:6410   */\n      dup6\n        /* \"#utility.yul\":6400:6404   */\n      0x20\n        /* \"#utility.yul\":6393:6398   */\n      dup7\n        /* \"#utility.yul\":6389:6405   */\n      add\n        /* \"#utility.yul\":6354:6419   */\n      tag_65\n      jump\t// in\n    tag_141:\n        /* \"#utility.yul\":6444:6450   */\n      dup1\n        /* \"#utility.yul\":6439:6442   */\n      dup5\n        /* \"#utility.yul\":6435:6451   */\n      add\n        /* \"#utility.yul\":6428:6451   */\n      swap2\n      pop\n        /* \"#utility.yul\":6177:6457   */\n      pop\n        /* \"#utility.yul\":6067:6457   */\n      swap3\n      swap2\n      pop\n      pop\n      jump\t// out\n        /* \"#utility.yul\":6463:6738   */\n    tag_30:\n        /* \"#utility.yul\":6595:6598   */\n      0x00\n        /* \"#utility.yul\":6617:6712   */\n      tag_143\n        /* \"#utility.yul\":6708:6711   */\n      dup3\n        /* \"#utility.yul\":6699:6705   */\n      dup5\n        /* \"#utility.yul\":6617:6712   */\n      tag_66\n      jump\t// in\n    tag_143:\n        /* \"#utility.yul\":6610:6712   */\n      swap2\n      pop\n        /* \"#utility.yul\":6729:6732   */\n      dup2\n        /* \"#utility.yul\":6722:6732   */\n      swap1\n      pop\n        /* \"#utility.yul\":6463:6738   */\n      swap3\n      swap2\n      pop\n      pop\n      jump\t// out\n        /* \"#utility.yul\":6744:7076   */\n    tag_32:\n        /* \"#utility.yul\":6865:6869   */\n      0x00\n        /* \"#utility.yul\":6903:6905   */\n      0x40\n        /* \"#utility.yul\":6892:6901   */\n      dup3\n        /* \"#utility.yul\":6888:6906   */\n      add\n        /* \"#utility.yul\":6880:6906   */\n      swap1\n      pop\n        /* \"#utility.yul\":6916:6987   */\n      tag_145\n        /* \"#utility.yul\":6984:6985   */\n      0x00\n        /* \"#utility.yul\":6973:6982   */\n      dup4\n        /* \"#utility.yul\":6969:6986   */\n      add\n        /* \"#utility.yul\":6960:6966   */\n      dup6\n        /* \"#utility.yul\":6916:6987   */\n      tag_53\n      jump\t// in\n    tag_145:\n        /* \"#utility.yul\":6997:7069   */\n      tag_146\n        /* \"#utility.yul\":7065:7067   */\n      0x20\n        /* \"#utility.yul\":7054:7063   */\n      dup4\n        /* \"#utility.yul\":7050:7068   */\n      add\n        /* \"#utility.yul\":7041:7047   */\n      dup5\n        /* \"#utility.yul\":6997:7069   */\n      tag_58\n      jump\t// in\n    tag_146:\n        /* \"#utility.yul\":6744:7076   */\n      swap4\n      swap3\n      pop\n      pop\n      pop\n      jump\t// out\n\n    auxdata: 0xa26469706673582212200aff1b522eb60c9023ececde45f46837702f339d6a13e45d9cca7049b21cc46a64736f6c634300081e0033\n}\n",
				"bytecode": {
					"linkReferences": {},
					"object": "6080604052348015600e575f5ffd5b506107028061001c5f395ff3fe608060405234801561000f575f5ffd5b506004361061004a575f3560e01c80636a33bf871461004e5780636fca17441461007e578063b063152a146100af578063beee5eb7146100df575b5f5ffd5b610068600480360381019061006391906104a3565b610111565b6040516100759190610502565b60405180910390f35b61009860048036038101906100939190610545565b61020a565b6040516100a69291906105c7565b60405180910390f35b6100c960048036038101906100c491906104a3565b610248565b6040516100d69190610502565b60405180910390f35b6100f960048036038101906100f491906104a3565b610277565b60405161010893929190610608565b60405180910390f35b5f5f82604051602001610124919061068f565b60405160208183030381529060405280519060200120905060405180604001604052803373ffffffffffffffffffffffffffffffffffffffff168152602001428152505f5f8381526020019081526020015f205f820151815f015f6101000a81548173ffffffffffffffffffffffffffffffffffffffff021916908373ffffffffffffffffffffffffffffffffffffffff160217905550602082015181600101559050507fab80fa70e3d224258ef04c3d8757b12910162892059f7b47d1e2a4b754d44dcc81336040516101f99291906106a5565b60405180910390a180915050919050565b5f602052805f5260405f205f91509050805f015f9054906101000a900473ffffffffffffffffffffffffffffffffffffffff16908060010154905082565b5f8160405160200161025a919061068f565b604051602081830303815290604052805190602001209050919050565b5f5f5f5f8460405160200161028c919061068f565b6040516020818303038152906040528051906020012090505f5f5f8381526020019081526020015f2090505f73ffffffffffffffffffffffffffffffffffffffff16815f015f9054906101000a900473ffffffffffffffffffffffffffffffffffffffff1673ffffffffffffffffffffffffffffffffffffffff1614610343576001815f015f9054906101000a900473ffffffffffffffffffffffffffffffffffffffff168260010154945094509450505061034f565b5f5f5f94509450945050505b9193909250565b5f604051905090565b5f5ffd5b5f5ffd5b5f5ffd5b5f5ffd5b5f601f19601f8301169050919050565b7f4e487b71000000000000000000000000000000000000000000000000000000005f52604160045260245ffd5b6103b58261036f565b810181811067ffffffffffffffff821117156103d4576103d361037f565b5b80604052505050565b5f6103e6610356565b90506103f282826103ac565b919050565b5f67ffffffffffffffff8211156104115761041061037f565b5b61041a8261036f565b9050602081019050919050565b828183375f83830152505050565b5f610447610442846103f7565b6103dd565b9050828152602081018484840111156104635761046261036b565b5b61046e848285610427565b509392505050565b5f82601f83011261048a57610489610367565b5b813561049a848260208601610435565b91505092915050565b5f602082840312156104b8576104b761035f565b5b5f82013567ffffffffffffffff8111156104d5576104d4610363565b5b6104e184828501610476565b91505092915050565b5f819050919050565b6104fc816104ea565b82525050565b5f6020820190506105155f8301846104f3565b92915050565b610524816104ea565b811461052e575f5ffd5b50565b5f8135905061053f8161051b565b92915050565b5f6020828403121561055a5761055961035f565b5b5f61056784828501610531565b91505092915050565b5f73ffffffffffffffffffffffffffffffffffffffff82169050919050565b5f61059982610570565b9050919050565b6105a98161058f565b82525050565b5f819050919050565b6105c1816105af565b82525050565b5f6040820190506105da5f8301856105a0565b6105e760208301846105b8565b9392505050565b5f8115159050919050565b610602816105ee565b82525050565b5f60608201905061061b5f8301866105f9565b61062860208301856105a0565b61063560408301846105b8565b949350505050565b5f81519050919050565b5f81905092915050565b8281835e5f83830152505050565b5f6106698261063d565b6106738185610647565b9350610683818560208601610651565b80840191505092915050565b5f61069a828461065f565b915081905092915050565b5f6040820190506106b85f8301856104f3565b6106c560208301846105a0565b939250505056fea26469706673582212200aff1b522eb60c9023ececde45f46837702f339d6a13e45d9cca7049b21cc46a64736f6c634300081e0033",
					"opcodes": "PUSH1 0x80 PUSH1 0x40 MSTORE CALLVALUE DUP1 ISZERO PUSH1 0xE JUMPI PUSH0 PUSH0 REVERT JUMPDEST POP PUSH2 0x702 DUP1 PUSH2 0x1C PUSH0 CODECOPY PUSH0 RETURN INVALID PUSH1 0x80 PUSH1 0x40 MSTORE CALLVALUE DUP1 ISZERO PUSH2 0xF JUMPI PUSH0 PUSH0 REVERT JUMPDEST POP PUSH1 0x4 CALLDATASIZE LT PUSH2 0x4A JUMPI PUSH0 CALLDATALOAD PUSH1 0xE0 SHR DUP1 PUSH4 0x6A33BF87 EQ PUSH2 0x4E JUMPI DUP1 PUSH4 0x6FCA1744 EQ PUSH2 0x7E JUMPI DUP1 PUSH4 0xB063152A EQ PUSH2 0xAF JUMPI DUP1 PUSH4 0xBEEE5EB7 EQ PUSH2 0xDF JUMPI JUMPDEST PUSH0 PUSH0 REVERT JUMPDEST PUSH2 0x68 PUSH1 0x4 DUP1 CALLDATASIZE SUB DUP2 ADD SWAP1 PUSH2 0x63 SWAP2 SWAP1 PUSH2 0x4A3 JUMP JUMPDEST PUSH2 0x111 JUMP JUMPDEST PUSH1 0x40 MLOAD PUSH2 0x75 SWAP2 SWAP1 PUSH2 0x502 JUMP JUMPDEST PUSH1 0x40 MLOAD DUP1 SWAP2 SUB SWAP1 RETURN JUMPDEST PUSH2 0x98 PUSH1 0x4 DUP1 CALLDATASIZE SUB DUP2 ADD SWAP1 PUSH2 0x93 SWAP2 SWAP1 PUSH2 0x545 JUMP JUMPDEST PUSH2 0x20A JUMP JUMPDEST PUSH1 0x40 MLOAD PUSH2 0xA6 SWAP3 SWAP2 SWAP1 PUSH2 0x5C7 JUMP JUMPDEST PUSH1 0x40 MLOAD DUP1 SWAP2 SUB SWAP1 RETURN JUMPDEST PUSH2 0xC9 PUSH1 0x4 DUP1 CALLDATASIZE SUB DUP2 ADD SWAP1 PUSH2 0xC4 SWAP2 SWAP1 PUSH2 0x4A3 JUMP JUMPDEST PUSH2 0x248 JUMP JUMPDEST PUSH1 0x40 MLOAD PUSH2 0xD6 SWAP2 SWAP1 PUSH2 0x502 JUMP JUMPDEST PUSH1 0x40 MLOAD DUP1 SWAP2 SUB SWAP1 RETURN JUMPDEST PUSH2 0xF9 PUSH1 0x4 DUP1 CALLDATASIZE SUB DUP2 ADD SWAP1 PUSH2 0xF4 SWAP2 SWAP1 PUSH2 0x4A3 JUMP JUMPDEST PUSH2 0x277 JUMP JUMPDEST PUSH1 0x40 MLOAD PUSH2 0x108 SWAP4 SWAP3 SWAP2 SWAP1 PUSH2 0x608 JUMP JUMPDEST PUSH1 0x40 MLOAD DUP1 SWAP2 SUB SWAP1 RETURN JUMPDEST PUSH0 PUSH0 DUP3 PUSH1 0x40 MLOAD PUSH1 0x20 ADD PUSH2 0x124 SWAP2 SWAP1 PUSH2 0x68F JUMP JUMPDEST PUSH1 0x40 MLOAD PUSH1 0x20 DUP2 DUP4 SUB SUB DUP2 MSTORE SWAP1 PUSH1 0x40 MSTORE DUP1 MLOAD SWAP1 PUSH1 0x20 ADD KECCAK256 SWAP1 POP PUSH1 0x40 MLOAD DUP1 PUSH1 0x40 ADD PUSH1 0x40 MSTORE DUP1 CALLER PUSH20 0xFFFFFFFFFFFFFFFFFFFFFFFFFFFFFFFFFFFFFFFF AND DUP2 MSTORE PUSH1 0x20 ADD TIMESTAMP DUP2 MSTORE POP PUSH0 PUSH0 DUP4 DUP2 MSTORE PUSH1 0x20 ADD SWAP1 DUP2 MSTORE PUSH1 0x20 ADD PUSH0 KECCAK256 PUSH0 DUP3 ADD MLOAD DUP2 PUSH0 ADD PUSH0 PUSH2 0x100 EXP DUP2 SLOAD DUP2 PUSH20 0xFFFFFFFFFFFFFFFFFFFFFFFFFFFFFFFFFFFFFFFF MUL NOT AND SWAP1 DUP4 PUSH20 0xFFFFFFFFFFFFFFFFFFFFFFFFFFFFFFFFFFFFFFFF AND MUL OR SWAP1 SSTORE POP PUSH1 0x20 DUP3 ADD MLOAD DUP2 PUSH1 0x1 ADD SSTORE SWAP1 POP POP PUSH32 0xAB80FA70E3D224258EF04C3D8757B12910162892059F7B47D1E2A4B754D44DCC DUP2 CALLER PUSH1 0x40 MLOAD PUSH2 0x1F9 SWAP3 SWAP2 SWAP1 PUSH2 0x6A5 JUMP JUMPDEST PUSH1 0x40 MLOAD DUP1 SWAP2 SUB SWAP1 LOG1 DUP1 SWAP2 POP POP SWAP2 SWAP1 POP JUMP JUMPDEST PUSH0 PUSH1 0x20 MSTORE DUP1 PUSH0 MSTORE PUSH1 0x40 PUSH0 KECCAK256 PUSH0 SWAP2 POP SWAP1 POP DUP1 PUSH0 ADD PUSH0 SWAP1 SLOAD SWAP1 PUSH2 0x100 EXP SWAP1 DIV PUSH20 0xFFFFFFFFFFFFFFFFFFFFFFFFFFFFFFFFFFFFFFFF AND SWAP1 DUP1 PUSH1 0x1 ADD SLOAD SWAP1 POP DUP3 JUMP JUMPDEST PUSH0 DUP2 PUSH1 0x40 MLOAD PUSH1 0x20 ADD PUSH2 0x25A SWAP2 SWAP1 PUSH2 0x68F JUMP JUMPDEST PUSH1 0x40 MLOAD PUSH1 0x20 DUP2 DUP4 SUB SUB DUP2 MSTORE SWAP1 PUSH1 0x40 MSTORE DUP1 MLOAD SWAP1 PUSH1 0x20 ADD KECCAK256 SWAP1 POP SWAP2 SWAP1 POP JUMP JUMPDEST PUSH0 PUSH0 PUSH0 PUSH0 DUP5 PUSH1 0x40 MLOAD PUSH1 0x20 ADD PUSH2 0x28C SWAP2 SWAP1 PUSH2 0x68F JUMP JUMPDEST PUSH1 0x40 MLOAD PUSH1 0x20 DUP2 DUP4 SUB SUB DUP2 MSTORE SWAP1 PUSH1 0x40 MSTORE DUP1 MLOAD SWAP1 PUSH1 0x20 ADD KECCAK256 SWAP1 POP PUSH0 PUSH0 PUSH0 DUP4 DUP2 MSTORE PUSH1 0x20 ADD SWAP1 DUP2 MSTORE PUSH1 0x20 ADD PUSH0 KECCAK256 SWAP1 POP PUSH0 PUSH20 0xFFFFFFFFFFFFFFFFFFFFFFFFFFFFFFFFFFFFFFFF AND DUP2 PUSH0 ADD PUSH0 SWAP1 SLOAD SWAP1 PUSH2 0x100 EXP SWAP1 DIV PUSH20 0xFFFFFFFFFFFFFFFFFFFFFFFFFFFFFFFFFFFFFFFF AND PUSH20 0xFFFFFFFFFFFFFFFFFFFFFFFFFFFFFFFFFFFFFFFF AND EQ PUSH2 0x343 JUMPI PUSH1 0x1 DUP2 PUSH0 ADD PUSH0 SWAP1 SLOAD SWAP1 PUSH2 0x100 EXP SWAP1 DIV PUSH20 0xFFFFFFFFFFFFFFFFFFFFFFFFFFFFFFFFFFFFFFFF AND DUP3 PUSH1 0x1 ADD SLOAD SWAP5 POP SWAP5 POP SWAP5 POP POP POP PUSH2 0x34F JUMP JUMPDEST PUSH0 PUSH0 PUSH0 SWAP5 POP SWAP5 POP SWAP5 POP POP POP JUMPDEST SWAP2 SWAP4 SWAP1 SWAP3 POP JUMP JUMPDEST PUSH0 PUSH1 0x40 MLOAD SWAP1 POP SWAP1 JUMP JUMPDEST PUSH0 PUSH0 REVERT JUMPDEST PUSH0 PUSH0 REVERT JUMPDEST PUSH0 PUSH0 REVERT JUMPDEST PUSH0 PUSH0 REVERT JUMPDEST PUSH0 PUSH1 0x1F NOT PUSH1 0x1F DUP4 ADD AND SWAP1 POP SWAP2 SWAP1 POP JUMP JUMPDEST PUSH32 0x4E487B7100000000000000000000000000000000000000000000000000000000 PUSH0 MSTORE PUSH1 0x41 PUSH1 0x4 MSTORE PUSH1 0x24 PUSH0 REVERT JUMPDEST PUSH2 0x3B5 DUP3 PUSH2 0x36F JUMP JUMPDEST DUP2 ADD DUP2 DUP2 LT PUSH8 0xFFFFFFFFFFFFFFFF DUP3 GT OR ISZERO PUSH2 0x3D4 JUMPI PUSH2 0x3D3 PUSH2 0x37F JUMP JUMPDEST JUMPDEST DUP1 PUSH1 0x40 MSTORE POP POP POP JUMP JUMPDEST PUSH0 PUSH2 0x3E6 PUSH2 0x356 JUMP JUMPDEST SWAP1 POP PUSH2 0x3F2 DUP3 DUP3 PUSH2 0x3AC JUMP JUMPDEST SWAP2 SWAP1 POP JUMP JUMPDEST PUSH0 PUSH8 0xFFFFFFFFFFFFFFFF DUP3 GT ISZERO PUSH2 0x411 JUMPI PUSH2 0x410 PUSH2 0x37F JUMP JUMPDEST JUMPDEST PUSH2 0x41A DUP3 PUSH2 0x36F JUMP JUMPDEST SWAP1 POP PUSH1 0x20 DUP2 ADD SWAP1 POP SWAP2 SWAP1 POP JUMP JUMPDEST DUP3 DUP2 DUP4 CALLDATACOPY PUSH0 DUP4 DUP4 ADD MSTORE POP POP POP JUMP JUMPDEST PUSH0 PUSH2 0x447 PUSH2 0x442 DUP5 PUSH2 0x3F7 JUMP JUMPDEST PUSH2 0x3DD JUMP JUMPDEST SWAP1 POP DUP3 DUP2 MSTORE PUSH1 0x20 DUP2 ADD DUP5 DUP5 DUP5 ADD GT ISZERO PUSH2 0x463 JUMPI PUSH2 0x462 PUSH2 0x36B JUMP JUMPDEST JUMPDEST PUSH2 0x46E DUP5 DUP3 DUP6 PUSH2 0x427 JUMP JUMPDEST POP SWAP4 SWAP3 POP POP POP JUMP JUMPDEST PUSH0 DUP3 PUSH1 0x1F DUP4 ADD SLT PUSH2 0x48A JUMPI PUSH2 0x489 PUSH2 0x367 JUMP JUMPDEST JUMPDEST DUP2 CALLDATALOAD PUSH2 0x49A DUP5 DUP3 PUSH1 0x20 DUP7 ADD PUSH2 0x435 JUMP JUMPDEST SWAP2 POP POP SWAP3 SWAP2 POP POP JUMP JUMPDEST PUSH0 PUSH1 0x20 DUP3 DUP5 SUB SLT ISZERO PUSH2 0x4B8 JUMPI PUSH2 0x4B7 PUSH2 0x35F JUMP JUMPDEST JUMPDEST PUSH0 DUP3 ADD CALLDATALOAD PUSH8 0xFFFFFFFFFFFFFFFF DUP2 GT ISZERO PUSH2 0x4D5 JUMPI PUSH2 0x4D4 PUSH2 0x363 JUMP JUMPDEST JUMPDEST PUSH2 0x4E1 DUP5 DUP3 DUP6 ADD PUSH2 0x476 JUMP JUMPDEST SWAP2 POP POP SWAP3 SWAP2 POP POP JUMP JUMPDEST PUSH0 DUP2 SWAP1 POP SWAP2 SWAP1 POP JUMP JUMPDEST PUSH2 0x4FC DUP2 PUSH2 0x4EA JUMP JUMPDEST DUP3 MSTORE POP POP JUMP JUMPDEST PUSH0 PUSH1 0x20 DUP3 ADD SWAP1 POP PUSH2 0x515 PUSH0 DUP4 ADD DUP5 PUSH2 0x4F3 JUMP JUMPDEST SWAP3 SWAP2 POP POP JUMP JUMPDEST PUSH2 0x524 DUP2 PUSH2 0x4EA JUMP JUMPDEST DUP2 EQ PUSH2 0x52E JUMPI PUSH0 PUSH0 REVERT JUMPDEST POP JUMP JUMPDEST PUSH0 DUP2 CALLDATALOAD SWAP1 POP PUSH2 0x53F DUP2 PUSH2 0x51B JUMP JUMPDEST SWAP3 SWAP2 POP POP JUMP JUMPDEST PUSH0 PUSH1 0x20 DUP3 DUP5 SUB SLT ISZERO PUSH2 0x55A JUMPI PUSH2 0x559 PUSH2 0x35F JUMP JUMPDEST JUMPDEST PUSH0 PUSH2 0x567 DUP5 DUP3 DUP6 ADD PUSH2 0x531 JUMP JUMPDEST SWAP2 POP POP SWAP3 SWAP2 POP POP JUMP JUMPDEST PUSH0 PUSH20 0xFFFFFFFFFFFFFFFFFFFFFFFFFFFFFFFFFFFFFFFF DUP3 AND SWAP1 POP SWAP2 SWAP1 POP JUMP JUMPDEST PUSH0 PUSH2 0x599 DUP3 PUSH2 0x570 JUMP JUMPDEST SWAP1 POP SWAP2 SWAP1 POP JUMP JUMPDEST PUSH2 0x5A9 DUP2 PUSH2 0x58F JUMP JUMPDEST DUP3 MSTORE POP POP JUMP JUMPDEST PUSH0 DUP2 SWAP1 POP SWAP2 SWAP1 POP JUMP JUMPDEST PUSH2 0x5C1 DUP2 PUSH2 0x5AF JUMP JUMPDEST DUP3 MSTORE POP POP JUMP JUMPDEST PUSH0 PUSH1 0x40 DUP3 ADD SWAP1 POP PUSH2 0x5DA PUSH0 DUP4 ADD DUP6 PUSH2 0x5A0 JUMP JUMPDEST PUSH2 0x5E7 PUSH1 0x20 DUP4 ADD DUP5 PUSH2 0x5B8 JUMP JUMPDEST SWAP4 SWAP3 POP POP POP JUMP JUMPDEST PUSH0 DUP2 ISZERO ISZERO SWAP1 POP SWAP2 SWAP1 POP JUMP JUMPDEST PUSH2 0x602 DUP2 PUSH2 0x5EE JUMP JUMPDEST DUP3 MSTORE POP POP JUMP JUMPDEST PUSH0 PUSH1 0x60 DUP3 ADD SWAP1 POP PUSH2 0x61B PUSH0 DUP4 ADD DUP7 PUSH2 0x5F9 JUMP JUMPDEST PUSH2 0x628 PUSH1 0x20 DUP4 ADD DUP6 PUSH2 0x5A0 JUMP JUMPDEST PUSH2 0x635 PUSH1 0x40 DUP4 ADD DUP5 PUSH2 0x5B8 JUMP JUMPDEST SWAP5 SWAP4 POP POP POP POP JUMP JUMPDEST PUSH0 DUP2 MLOAD SWAP1 POP SWAP2 SWAP1 POP JUMP JUMPDEST PUSH0 DUP2 SWAP1 POP SWAP3 SWAP2 POP POP JUMP JUMPDEST DUP3 DUP2 DUP4 MCOPY PUSH0 DUP4 DUP4 ADD MSTORE POP POP POP JUMP JUMPDEST PUSH0 PUSH2 0x669 DUP3 PUSH2 0x63D JUMP JUMPDEST PUSH2 0x673 DUP2 DUP6 PUSH2 0x647 JUMP JUMPDEST SWAP4 POP PUSH2 0x683 DUP2 DUP6 PUSH1 0x20 DUP7 ADD PUSH2 0x651 JUMP JUMPDEST DUP1 DUP5 ADD SWAP2 POP POP SWAP3 SWAP2 POP POP JUMP JUMPDEST PUSH0 PUSH2 0x69A DUP3 DUP5 PUSH2 0x65F JUMP JUMPDEST SWAP2 POP DUP2 SWAP1 POP SWAP3 SWAP2 POP POP JUMP JUMPDEST PUSH0 PUSH1 0x40 DUP3 ADD SWAP1 POP PUSH2 0x6B8 PUSH0 DUP4 ADD DUP6 PUSH2 0x4F3 JUMP JUMPDEST PUSH2 0x6C5 PUSH1 0x20 DUP4 ADD DUP5 PUSH2 0x5A0 JUMP JUMPDEST SWAP4 SWAP3 POP POP POP JUMP INVALID LOG2 PUSH5 0x6970667358 0x22 SLT KECCAK256 EXP SELFDESTRUCT SHL MSTORE 0x2E 0xB6 0xC SWAP1 0x23 EOFCREATE 0xEC 0xDE GASLIMIT DELEGATECALL PUSH9 0x37702F339D6A13E45D SWAP13 0xCA PUSH17 0x49B21CC46A64736F6C634300081E003300 "
				},
				"gasEstimates": {
					"creation": {
						"codeDepositCost": "358800",
						"executionCost": "397",
						"totalCost": "359197"
					},
					"external": {
						"docs(bytes32)": "5060",
						"generateHash(string)": "infinite",
						"notarizeDocument(string)": "infinite",
						"verifyDocument(string)": "infinite"
					}
				},
				"methodIdentifiers": {
					"docs(bytes32)": "6fca1744",
					"generateHash(string)": "b063152a",
					"notarizeDocument(string)": "6a33bf87",
					"verifyDocument(string)": "beee5eb7"
				}
			},
			"storageLayout": {
				"storage": [
					{
						"astId": 11,
						"contract": "contracts/Notary.sol:Notary",
						"label": "docs",
						"offset": 0,
						"slot": "0",
						"type": "t_mapping(t_bytes32,t_struct(Doc)6_storage)"
					}
				],
				"types": {
					"t_address": {
						"encoding": "inplace",
						"label": "address",
						"numberOfBytes": "20"
					},
					"t_bytes32": {
						"encoding": "inplace",
						"label": "bytes32",
						"numberOfBytes": "32"
					},
					"t_mapping(t_bytes32,t_struct(Doc)6_storage)": {
						"encoding": "mapping",
						"key": "t_bytes32",
						"label": "mapping(bytes32 => struct Notary.Doc)",
						"numberOfBytes": "32",
						"value": "t_struct(Doc)6_storage"
					},
					"t_struct(Doc)6_storage": {
						"encoding": "inplace",
						"label": "struct Notary.Doc",
						"members": [
							{
								"astId": 3,
								"contract": "contracts/Notary.sol:Notary",
								"label": "owner",
								"offset": 0,
								"slot": "0",
								"type": "t_address"
							},
							{
								"astId": 5,
								"contract": "contracts/Notary.sol:Notary",
								"label": "ts",
								"offset": 0,
								"slot": "1",
								"type": "t_uint256"
							}
						],
						"numberOfBytes": "64"
					},
					"t_uint256": {
						"encoding": "inplace",
						"label": "uint256",
						"numberOfBytes": "32"
					}
				}
			},
			"userdoc": {
				"kind": "user",
				"methods": {},
				"version": 1
			}
		}
	}
}