{
	"contracts/Library.sol": {
		"LibrarySystem": {
			"abi": [
				{
					"inputs": [
						{
							"internalType": "string",
							"name": "_title",
							"type": "string"
						}
					],
					"name": "addBook",
					"outputs": [],
					"stateMutability": "nonpayable",
					"type": "function"
				},
				{
					"inputs": [
						{
							"internalType": "uint256",
							"name": "_index",
							"type": "uint256"
						}
					],
					"name": "borrowBook",
					"outputs": [],
					"stateMutability": "nonpayable",
					"type": "function"
				},
				{
					"inputs": [],
					"name": "getBookCount",
					"outputs": [
						{
							"internalType": "uint256",
							"name": "",
							"type": "uint256"
						}
					],
					"stateMutability": "view",
					"type": "function"
				},
				{
					"inputs": [],
					"name": "getBooks",
					"outputs": [
						{
							"components": [
								{
									"internalType": "string",
									"name": "title",
									"type": "string"
								},
								{
									"internalType": "bool",
									"name": "isAvailable",
									"type": "bool"
								}
							],
							"internalType": "struct LibrarySystem.Book[]",
							"name": "",
							"type": "tuple[]"
						}
					],
					"stateMutability": "view",
					"type": "function"
				},
				{
					"inputs": [
						{
							"internalType": "uint256",
							"name": "_index",
							"type": "uint256"
						}
					],
					"name": "returnBook",
					"outputs": [],
					"stateMutability": "nonpayable",
					"type": "function"
				}
			],
			"devdoc": {
				"kind": "dev",
				"methods": {
					"addBook(string)": {
						"params": {
							"_title": "The title of the book."
						}
					},
					"borrowBook(uint256)": {
						"params": {
							"_index": "Index of the book to borrow."
						}
					},
					"getBooks()": {
						"returns": {
							"_0": "Array of all books with title and availability."
						}
					},
					"returnBook(uint256)": {
						"params": {
							"_index": "Index of the book to return."
						}
					}
				},
				"version": 1
			},
			"evm": {
				"assembly": "    /* \"contracts/Library.sol\":58:1228  contract LibrarySystem {... */\n  mstore(0x40, 0x80)\n  callvalue\n  dup1\n  iszero\n  tag_1\n  jumpi\n  revert(0x00, 0x00)\ntag_1:\n  pop\n  dataSize(sub_0)\n  dup1\n  dataOffset(sub_0)\n  0x00\n  codecopy\n  0x00\n  return\nstop\n\nsub_0: assembly {\n        /* \"contracts/Library.sol\":58:1228  contract LibrarySystem {... */\n      mstore(0x40, 0x80)\n      callvalue\n      dup1\n      iszero\n      tag_1\n      jumpi\n      revert(0x00, 0x00)\n    tag_1:\n      pop\n      jumpi(tag_2, lt(calldatasize, 0x04))\n      shr(0xe0, calldataload(0x00))\n      dup1\n      0x3bc5f48a\n      eq\n      tag_3\n      jumpi\n      dup1\n      0x7e490a9e\n      eq\n      tag_4\n      jumpi\n      dup1\n      0x9f349789\n      eq\n      tag_5\n      jumpi\n      dup1\n      0xca5140c9\n      eq\n      tag_6\n      jumpi\n      dup1\n      0xd73e0c89\n      eq\n      tag_7\n      jumpi\n    tag_2:\n      revert(0x00, 0x00)\n        /* \"contracts/Library.sol\":245:328  function addBook(string memory _title) public {... */\n    tag_3:\n      tag_8\n      0x04\n      dup1\n      calldatasize\n      sub\n      dup2\n      add\n      swap1\n      tag_9\n      swap2\n      swap1\n      tag_10\n      jump\t// in\n    tag_9:\n      tag_11\n      jump\t// in\n    tag_8:\n      stop\n        /* \"contracts/Library.sol\":419:616  function borrowBook(uint256 _index) public {... */\n    tag_4:\n      tag_12\n      0x04\n      dup1\n      calldatasize\n      sub\n      dup2\n      add\n      swap1\n      tag_13\n      swap2\n      swap1\n      tag_14\n      jump\t// in\n    tag_13:\n      tag_15\n      jump\t// in\n    tag_12:\n      stop\n        /* \"contracts/Library.sol\":1013:1088  function getBooks() public view returns (Book[] memory) {... */\n    tag_5:\n      tag_16\n      tag_17\n      jump\t// in\n    tag_16:\n      mload(0x40)\n      tag_18\n      swap2\n      swap1\n      tag_19\n      jump\t// in\n    tag_18:\n      mload(0x40)\n      dup1\n      swap2\n      sub\n      swap1\n      return\n        /* \"contracts/Library.sol\":703:907  function returnBook(uint256 _index) public {... */\n    tag_6:\n      tag_20\n      0x04\n      dup1\n      calldatasize\n      sub\n      dup2\n      add\n      swap1\n      tag_21\n      swap2\n      swap1\n      tag_14\n      jump\t// in\n    tag_21:\n      tag_22\n      jump\t// in\n    tag_20:\n      stop\n        /* \"contracts/Library.sol\":1145:1225  function getBookCount() public view returns (uint256) {... */\n    tag_7:\n      tag_23\n      tag_24\n      jump\t// in\n    tag_23:\n      mload(0x40)\n      tag_25\n      swap2\n      swap1\n      tag_26\n      jump\t// in\n    tag_25:\n      mload(0x40)\n      dup1\n      swap2\n      sub\n      swap1\n      return\n        /* \"contracts/Library.sol\":245:328  function addBook(string memory _title) public {... */\n    tag_11:\n        /* \"contracts/Library.sol\":294:299  books */\n      0x00\n        /* \"contracts/Library.sol\":305:323  Book(_title, true) */\n      mload(0x40)\n      dup1\n      0x40\n      add\n      0x40\n      mstore\n      dup1\n        /* \"contracts/Library.sol\":310:316  _title */\n      dup4\n        /* \"contracts/Library.sol\":305:323  Book(_title, true) */\n      dup2\n      mstore\n      0x20\n      add\n        /* \"contracts/Library.sol\":318:322  true */\n      0x01\n        /* \"contracts/Library.sol\":305:323  Book(_title, true) */\n      iszero\n      iszero\n      dup2\n      mstore\n      pop\n        /* \"contracts/Library.sol\":294:324  books.push(Book(_title, true)) */\n      swap1\n      dup1\n      0x01\n      dup2\n      sload\n      add\n      dup1\n      dup3\n      sstore\n      dup1\n      swap2\n      pop\n      pop\n      0x01\n      swap1\n      sub\n      swap1\n      0x00\n      mstore\n      keccak256(0x00, 0x20)\n      swap1\n      0x02\n      mul\n      add\n      0x00\n      swap1\n      swap2\n      swap1\n      swap2\n      swap1\n      swap2\n      pop\n      0x00\n      dup3\n      add\n      mload\n      dup2\n      0x00\n      add\n      swap1\n      dup2\n      tag_29\n      swap2\n      swap1\n      tag_30\n      jump\t// in\n    tag_29:\n      pop\n      0x20\n      dup3\n      add\n      mload\n      dup2\n      0x01\n      add\n      exp(0x0100, 0x00)\n      dup2\n      sload\n      dup2\n      0xff\n      mul\n      not\n      and\n      swap1\n      dup4\n      iszero\n      iszero\n      mul\n      or\n      swap1\n      sstore\n      pop\n      pop\n      pop\n        /* \"contracts/Library.sol\":245:328  function addBook(string memory _title) public {... */\n      pop\n      jump\t// out\n        /* \"contracts/Library.sol\":419:616  function borrowBook(uint256 _index) public {... */\n    tag_15:\n        /* \"contracts/Library.sol\":482:487  books */\n      0x00\n        /* \"contracts/Library.sol\":482:494  books.length */\n      dup1\n      sload\n      swap1\n      pop\n        /* \"contracts/Library.sol\":473:479  _index */\n      dup2\n        /* \"contracts/Library.sol\":473:494  _index < books.length */\n      lt\n        /* \"contracts/Library.sol\":465:517  require(_index < books.length, \"Invalid book index\") */\n      tag_32\n      jumpi\n      mload(0x40)\n      0x08c379a000000000000000000000000000000000000000000000000000000000\n      dup2\n      mstore\n      0x04\n      add\n      tag_33\n      swap1\n      tag_34\n      jump\t// in\n    tag_33:\n      mload(0x40)\n      dup1\n      swap2\n      sub\n      swap1\n      revert\n    tag_32:\n        /* \"contracts/Library.sol\":528:533  books */\n      0x00\n        /* \"contracts/Library.sol\":534:540  _index */\n      dup2\n        /* \"contracts/Library.sol\":528:541  books[_index] */\n      dup2\n      sload\n      dup2\n      lt\n      tag_35\n      jumpi\n      tag_36\n      tag_37\n      jump\t// in\n    tag_36:\n    tag_35:\n      swap1\n      0x00\n      mstore\n      keccak256(0x00, 0x20)\n      swap1\n      0x02\n      mul\n      add\n        /* \"contracts/Library.sol\":528:553  books[_index].isAvailable */\n      0x01\n      add\n      0x00\n      swap1\n      sload\n      swap1\n      0x0100\n      exp\n      swap1\n      div\n      0xff\n      and\n        /* \"contracts/Library.sol\":520:576  require(books[_index].isAvailable, \"Book not available\") */\n      tag_39\n      jumpi\n      mload(0x40)\n      0x08c379a000000000000000000000000000000000000000000000000000000000\n      dup2\n      mstore\n      0x04\n      add\n      tag_40\n      swap1\n      tag_41\n      jump\t// in\n    tag_40:\n      mload(0x40)\n      dup1\n      swap2\n      sub\n      swap1\n      revert\n    tag_39:\n        /* \"contracts/Library.sol\":607:612  false */\n      0x00\n        /* \"contracts/Library.sol\":579:584  books */\n      0x00\n        /* \"contracts/Library.sol\":585:591  _index */\n      dup3\n        /* \"contracts/Library.sol\":579:592  books[_index] */\n      dup2\n      sload\n      dup2\n      lt\n      tag_42\n      jumpi\n      tag_43\n      tag_37\n      jump\t// in\n    tag_43:\n    tag_42:\n      swap1\n      0x00\n      mstore\n      keccak256(0x00, 0x20)\n      swap1\n      0x02\n      mul\n      add\n        /* \"contracts/Library.sol\":579:604  books[_index].isAvailable */\n      0x01\n      add\n      0x00\n        /* \"contracts/Library.sol\":579:612  books[_index].isAvailable = false */\n      0x0100\n      exp\n      dup2\n      sload\n      dup2\n      0xff\n      mul\n      not\n      and\n      swap1\n      dup4\n      iszero\n      iszero\n      mul\n      or\n      swap1\n      sstore\n      pop\n        /* \"contracts/Library.sol\":419:616  function borrowBook(uint256 _index) public {... */\n      pop\n      jump\t// out\n        /* \"contracts/Library.sol\":1013:1088  function getBooks() public view returns (Book[] memory) {... */\n    tag_17:\n        /* \"contracts/Library.sol\":1054:1067  Book[] memory */\n      0x60\n        /* \"contracts/Library.sol\":1079:1084  books */\n      0x00\n        /* \"contracts/Library.sol\":1072:1084  return books */\n      dup1\n      sload\n      dup1\n      0x20\n      mul\n      0x20\n      add\n      mload(0x40)\n      swap1\n      dup2\n      add\n      0x40\n      mstore\n      dup1\n      swap3\n      swap2\n      swap1\n      dup2\n      dup2\n      mstore\n      0x20\n      add\n      0x00\n      swap1\n    tag_46:\n      dup3\n      dup3\n      lt\n      iszero\n      tag_47\n      jumpi\n      dup4\n      dup3\n      swap1\n      0x00\n      mstore\n      keccak256(0x00, 0x20)\n      swap1\n      0x02\n      mul\n      add\n      mload(0x40)\n      dup1\n      0x40\n      add\n      0x40\n      mstore\n      swap1\n      dup2\n      0x00\n      dup3\n      add\n      dup1\n      sload\n      tag_49\n      swap1\n      tag_50\n      jump\t// in\n    tag_49:\n      dup1\n      0x1f\n      add\n      0x20\n      dup1\n      swap2\n      div\n      mul\n      0x20\n      add\n      mload(0x40)\n      swap1\n      dup2\n      add\n      0x40\n      mstore\n      dup1\n      swap3\n      swap2\n      swap1\n      dup2\n      dup2\n      mstore\n      0x20\n      add\n      dup3\n      dup1\n      sload\n      tag_51\n      swap1\n      tag_50\n      jump\t// in\n    tag_51:\n      dup1\n      iszero\n      tag_52\n      jumpi\n      dup1\n      0x1f\n      lt\n      tag_53\n      jumpi\n      0x0100\n      dup1\n      dup4\n      sload\n      div\n      mul\n      dup4\n      mstore\n      swap2\n      0x20\n      add\n      swap2\n      jump(tag_52)\n    tag_53:\n      dup3\n      add\n      swap2\n      swap1\n      0x00\n      mstore\n      keccak256(0x00, 0x20)\n      swap1\n    tag_54:\n      dup2\n      sload\n      dup2\n      mstore\n      swap1\n      0x01\n      add\n      swap1\n      0x20\n      add\n      dup1\n      dup4\n      gt\n      tag_54\n      jumpi\n      dup3\n      swap1\n      sub\n      0x1f\n      and\n      dup3\n      add\n      swap2\n    tag_52:\n      pop\n      pop\n      pop\n      pop\n      pop\n      dup2\n      mstore\n      0x20\n      add\n      0x01\n      dup3\n      add\n      0x00\n      swap1\n      sload\n      swap1\n      0x0100\n      exp\n      swap1\n      div\n      0xff\n      and\n      iszero\n      iszero\n      iszero\n      iszero\n      dup2\n      mstore\n      pop\n      pop\n      dup2\n      mstore\n      0x20\n      add\n      swap1\n      0x01\n      add\n      swap1\n      jump(tag_46)\n    tag_47:\n      pop\n      pop\n      pop\n      pop\n      swap1\n      pop\n        /* \"contracts/Library.sol\":1013:1088  function getBooks() public view returns (Book[] memory) {... */\n      swap1\n      jump\t// out\n        /* \"contracts/Library.sol\":703:907  function returnBook(uint256 _index) public {... */\n    tag_22:\n        /* \"contracts/Library.sol\":766:771  books */\n      0x00\n        /* \"contracts/Library.sol\":766:778  books.length */\n      dup1\n      sload\n      swap1\n      pop\n        /* \"contracts/Library.sol\":757:763  _index */\n      dup2\n        /* \"contracts/Library.sol\":757:778  _index < books.length */\n      lt\n        /* \"contracts/Library.sol\":749:801  require(_index < books.length, \"Invalid book index\") */\n      tag_56\n      jumpi\n      mload(0x40)\n      0x08c379a000000000000000000000000000000000000000000000000000000000\n      dup2\n      mstore\n      0x04\n      add\n      tag_57\n      swap1\n      tag_34\n      jump\t// in\n    tag_57:\n      mload(0x40)\n      dup1\n      swap2\n      sub\n      swap1\n      revert\n    tag_56:\n        /* \"contracts/Library.sol\":813:818  books */\n      0x00\n        /* \"contracts/Library.sol\":819:825  _index */\n      dup2\n        /* \"contracts/Library.sol\":813:826  books[_index] */\n      dup2\n      sload\n      dup2\n      lt\n      tag_58\n      jumpi\n      tag_59\n      tag_37\n      jump\t// in\n    tag_59:\n    tag_58:\n      swap1\n      0x00\n      mstore\n      keccak256(0x00, 0x20)\n      swap1\n      0x02\n      mul\n      add\n        /* \"contracts/Library.sol\":813:838  books[_index].isAvailable */\n      0x01\n      add\n      0x00\n      swap1\n      sload\n      swap1\n      0x0100\n      exp\n      swap1\n      div\n      0xff\n      and\n        /* \"contracts/Library.sol\":812:838  !books[_index].isAvailable */\n      iszero\n        /* \"contracts/Library.sol\":804:868  require(!books[_index].isAvailable, \"Book is already available\") */\n      tag_61\n      jumpi\n      mload(0x40)\n      0x08c379a000000000000000000000000000000000000000000000000000000000\n      dup2\n      mstore\n      0x04\n      add\n      tag_62\n      swap1\n      tag_63\n      jump\t// in\n    tag_62:\n      mload(0x40)\n      dup1\n      swap2\n      sub\n      swap1\n      revert\n    tag_61:\n        /* \"contracts/Library.sol\":899:903  true */\n      0x01\n        /* \"contracts/Library.sol\":871:876  books */\n      0x00\n        /* \"contracts/Library.sol\":877:883  _index */\n      dup3\n        /* \"contracts/Library.sol\":871:884  books[_index] */\n      dup2\n      sload\n      dup2\n      lt\n      tag_64\n      jumpi\n      tag_65\n      tag_37\n      jump\t// in\n    tag_65:\n    tag_64:\n      swap1\n      0x00\n      mstore\n      keccak256(0x00, 0x20)\n      swap1\n      0x02\n      mul\n      add\n        /* \"contracts/Library.sol\":871:896  books[_index].isAvailable */\n      0x01\n      add\n      0x00\n        /* \"contracts/Library.sol\":871:903  books[_index].isAvailable = true */\n      0x0100\n      exp\n      dup2\n      sload\n      dup2\n      0xff\n      mul\n      not\n      and\n      swap1\n      dup4\n      iszero\n      iszero\n      mul\n      or\n      swap1\n      sstore\n      pop\n        /* \"contracts/Library.sol\":703:907  function returnBook(uint256 _index) public {... */\n      pop\n      jump\t// out\n        /* \"contracts/Library.sol\":1145:1225  function getBookCount() public view returns (uint256) {... */\n    tag_24:\n        /* \"contracts/Library.sol\":1190:1197  uint256 */\n      0x00\n        /* \"contracts/Library.sol\":1209:1214  books */\n      0x00\n        /* \"contracts/Library.sol\":1209:1221  books.length */\n      dup1\n      sload\n      swap1\n      pop\n        /* \"contracts/Library.sol\":1202:1221  return books.length */\n      swap1\n      pop\n        /* \"contracts/Library.sol\":1145:1225  function getBookCount() public view returns (uint256) {... */\n      swap1\n      jump\t// out\n        /* \"#utility.yul\":7:82   */\n    tag_68:\n        /* \"#utility.yul\":40:46   */\n      0x00\n        /* \"#utility.yul\":73:75   */\n      0x40\n        /* \"#utility.yul\":67:76   */\n      mload\n        /* \"#utility.yul\":57:76   */\n      swap1\n      pop\n        /* \"#utility.yul\":7:82   */\n      swap1\n      jump\t// out\n        /* \"#utility.yul\":88:205   */\n    tag_69:\n        /* \"#utility.yul\":197:198   */\n      0x00\n        /* \"#utility.yul\":194:195   */\n      0x00\n        /* \"#utility.yul\":187:199   */\n      revert\n        /* \"#utility.yul\":211:328   */\n    tag_70:\n        /* \"#utility.yul\":320:321   */\n      0x00\n        /* \"#utility.yul\":317:318   */\n      0x00\n        /* \"#utility.yul\":310:322   */\n      revert\n        /* \"#utility.yul\":334:451   */\n    tag_71:\n        /* \"#utility.yul\":443:444   */\n      0x00\n        /* \"#utility.yul\":440:441   */\n      0x00\n        /* \"#utility.yul\":433:445   */\n      revert\n        /* \"#utility.yul\":457:574   */\n    tag_72:\n        /* \"#utility.yul\":566:567   */\n      0x00\n        /* \"#utility.yul\":563:564   */\n      0x00\n        /* \"#utility.yul\":556:568   */\n      revert\n        /* \"#utility.yul\":580:682   */\n    tag_73:\n        /* \"#utility.yul\":621:627   */\n      0x00\n        /* \"#utility.yul\":672:674   */\n      0x1f\n        /* \"#utility.yul\":668:675   */\n      not\n        /* \"#utility.yul\":663:665   */\n      0x1f\n        /* \"#utility.yul\":656:661   */\n      dup4\n        /* \"#utility.yul\":652:666   */\n      add\n        /* \"#utility.yul\":648:676   */\n      and\n        /* \"#utility.yul\":638:676   */\n      swap1\n      pop\n        /* \"#utility.yul\":580:682   */\n      swap2\n      swap1\n      pop\n      jump\t// out\n        /* \"#utility.yul\":688:868   */\n    tag_74:\n        /* \"#utility.yul\":736:813   */\n      0x4e487b7100000000000000000000000000000000000000000000000000000000\n        /* \"#utility.yul\":733:734   */\n      0x00\n        /* \"#utility.yul\":726:814   */\n      mstore\n        /* \"#utility.yul\":833:837   */\n      0x41\n        /* \"#utility.yul\":830:831   */\n      0x04\n        /* \"#utility.yul\":823:838   */\n      mstore\n        /* \"#utility.yul\":857:861   */\n      0x24\n        /* \"#utility.yul\":854:855   */\n      0x00\n        /* \"#utility.yul\":847:862   */\n      revert\n        /* \"#utility.yul\":874:1155   */\n    tag_75:\n        /* \"#utility.yul\":957:984   */\n      tag_130\n        /* \"#utility.yul\":979:983   */\n      dup3\n        /* \"#utility.yul\":957:984   */\n      tag_73\n      jump\t// in\n    tag_130:\n        /* \"#utility.yul\":949:955   */\n      dup2\n        /* \"#utility.yul\":945:985   */\n      add\n        /* \"#utility.yul\":1087:1093   */\n      dup2\n        /* \"#utility.yul\":1075:1085   */\n      dup2\n        /* \"#utility.yul\":1072:1094   */\n      lt\n        /* \"#utility.yul\":1051:1069   */\n      0xffffffffffffffff\n        /* \"#utility.yul\":1039:1049   */\n      dup3\n        /* \"#utility.yul\":1036:1070   */\n      gt\n        /* \"#utility.yul\":1033:1095   */\n      or\n        /* \"#utility.yul\":1030:1118   */\n      iszero\n      tag_131\n      jumpi\n        /* \"#utility.yul\":1098:1116   */\n      tag_132\n      tag_74\n      jump\t// in\n    tag_132:\n        /* \"#utility.yul\":1030:1118   */\n    tag_131:\n        /* \"#utility.yul\":1138:1148   */\n      dup1\n        /* \"#utility.yul\":1134:1136   */\n      0x40\n        /* \"#utility.yul\":1127:1149   */\n      mstore\n        /* \"#utility.yul\":917:1155   */\n      pop\n        /* \"#utility.yul\":874:1155   */\n      pop\n      pop\n      jump\t// out\n        /* \"#utility.yul\":1161:1290   */\n    tag_76:\n        /* \"#utility.yul\":1195:1201   */\n      0x00\n        /* \"#utility.yul\":1222:1242   */\n      tag_134\n      tag_68\n      jump\t// in\n    tag_134:\n        /* \"#utility.yul\":1212:1242   */\n      swap1\n      pop\n        /* \"#utility.yul\":1251:1284   */\n      tag_135\n        /* \"#utility.yul\":1279:1283   */\n      dup3\n        /* \"#utility.yul\":1271:1277   */\n      dup3\n        /* \"#utility.yul\":1251:1284   */\n      tag_75\n      jump\t// in\n    tag_135:\n        /* \"#utility.yul\":1161:1290   */\n      swap2\n      swap1\n      pop\n      jump\t// out\n        /* \"#utility.yul\":1296:1604   */\n    tag_77:\n        /* \"#utility.yul\":1358:1362   */\n      0x00\n        /* \"#utility.yul\":1448:1466   */\n      0xffffffffffffffff\n        /* \"#utility.yul\":1440:1446   */\n      dup3\n        /* \"#utility.yul\":1437:1467   */\n      gt\n        /* \"#utility.yul\":1434:1490   */\n      iszero\n      tag_137\n      jumpi\n        /* \"#utility.yul\":1470:1488   */\n      tag_138\n      tag_74\n      jump\t// in\n    tag_138:\n        /* \"#utility.yul\":1434:1490   */\n    tag_137:\n        /* \"#utility.yul\":1508:1537   */\n      tag_139\n        /* \"#utility.yul\":1530:1536   */\n      dup3\n        /* \"#utility.yul\":1508:1537   */\n      tag_73\n      jump\t// in\n    tag_139:\n        /* \"#utility.yul\":1500:1537   */\n      swap1\n      pop\n        /* \"#utility.yul\":1592:1596   */\n      0x20\n        /* \"#utility.yul\":1586:1590   */\n      dup2\n        /* \"#utility.yul\":1582:1597   */\n      add\n        /* \"#utility.yul\":1574:1597   */\n      swap1\n      pop\n        /* \"#utility.yul\":1296:1604   */\n      swap2\n      swap1\n      pop\n      jump\t// out\n        /* \"#utility.yul\":1610:1758   */\n    tag_78:\n        /* \"#utility.yul\":1708:1714   */\n      dup3\n        /* \"#utility.yul\":1703:1706   */\n      dup2\n        /* \"#utility.yul\":1698:1701   */\n      dup4\n        /* \"#utility.yul\":1685:1715   */\n      calldatacopy\n        /* \"#utility.yul\":1749:1750   */\n      0x00\n        /* \"#utility.yul\":1740:1746   */\n      dup4\n        /* \"#utility.yul\":1735:1738   */\n      dup4\n        /* \"#utility.yul\":1731:1747   */\n      add\n        /* \"#utility.yul\":1724:1751   */\n      mstore\n        /* \"#utility.yul\":1610:1758   */\n      pop\n      pop\n      pop\n      jump\t// out\n        /* \"#utility.yul\":1764:2189   */\n    tag_79:\n        /* \"#utility.yul\":1842:1847   */\n      0x00\n        /* \"#utility.yul\":1867:1933   */\n      tag_142\n        /* \"#utility.yul\":1883:1932   */\n      tag_143\n        /* \"#utility.yul\":1925:1931   */\n      dup5\n        /* \"#utility.yul\":1883:1932   */\n      tag_77\n      jump\t// in\n    tag_143:\n        /* \"#utility.yul\":1867:1933   */\n      tag_76\n      jump\t// in\n    tag_142:\n        /* \"#utility.yul\":1858:1933   */\n      swap1\n      pop\n        /* \"#utility.yul\":1956:1962   */\n      dup3\n        /* \"#utility.yul\":1949:1954   */\n      dup2\n        /* \"#utility.yul\":1942:1963   */\n      mstore\n        /* \"#utility.yul\":1994:1998   */\n      0x20\n        /* \"#utility.yul\":1987:1992   */\n      dup2\n        /* \"#utility.yul\":1983:1999   */\n      add\n        /* \"#utility.yul\":2032:2035   */\n      dup5\n        /* \"#utility.yul\":2023:2029   */\n      dup5\n        /* \"#utility.yul\":2018:2021   */\n      dup5\n        /* \"#utility.yul\":2014:2030   */\n      add\n        /* \"#utility.yul\":2011:2036   */\n      gt\n        /* \"#utility.yul\":2008:2120   */\n      iszero\n      tag_144\n      jumpi\n        /* \"#utility.yul\":2039:2118   */\n      tag_145\n      tag_72\n      jump\t// in\n    tag_145:\n        /* \"#utility.yul\":2008:2120   */\n    tag_144:\n        /* \"#utility.yul\":2129:2183   */\n      tag_146\n        /* \"#utility.yul\":2176:2182   */\n      dup5\n        /* \"#utility.yul\":2171:2174   */\n      dup3\n        /* \"#utility.yul\":2166:2169   */\n      dup6\n        /* \"#utility.yul\":2129:2183   */\n      tag_78\n      jump\t// in\n    tag_146:\n        /* \"#utility.yul\":1848:2189   */\n      pop\n        /* \"#utility.yul\":1764:2189   */\n      swap4\n      swap3\n      pop\n      pop\n      pop\n      jump\t// out\n        /* \"#utility.yul\":2209:2549   */\n    tag_80:\n        /* \"#utility.yul\":2265:2270   */\n      0x00\n        /* \"#utility.yul\":2314:2317   */\n      dup3\n        /* \"#utility.yul\":2307:2311   */\n      0x1f\n        /* \"#utility.yul\":2299:2305   */\n      dup4\n        /* \"#utility.yul\":2295:2312   */\n      add\n        /* \"#utility.yul\":2291:2318   */\n      slt\n        /* \"#utility.yul\":2281:2403   */\n      tag_148\n      jumpi\n        /* \"#utility.yul\":2322:2401   */\n      tag_149\n      tag_71\n      jump\t// in\n    tag_149:\n        /* \"#utility.yul\":2281:2403   */\n    tag_148:\n        /* \"#utility.yul\":2439:2445   */\n      dup2\n        /* \"#utility.yul\":2426:2446   */\n      calldataload\n        /* \"#utility.yul\":2464:2543   */\n      tag_150\n        /* \"#utility.yul\":2539:2542   */\n      dup5\n        /* \"#utility.yul\":2531:2537   */\n      dup3\n        /* \"#utility.yul\":2524:2528   */\n      0x20\n        /* \"#utility.yul\":2516:2522   */\n      dup7\n        /* \"#utility.yul\":2512:2529   */\n      add\n        /* \"#utility.yul\":2464:2543   */\n      tag_79\n      jump\t// in\n    tag_150:\n        /* \"#utility.yul\":2455:2543   */\n      swap2\n      pop\n        /* \"#utility.yul\":2271:2549   */\n      pop\n        /* \"#utility.yul\":2209:2549   */\n      swap3\n      swap2\n      pop\n      pop\n      jump\t// out\n        /* \"#utility.yul\":2555:3064   */\n    tag_10:\n        /* \"#utility.yul\":2624:2630   */\n      0x00\n        /* \"#utility.yul\":2673:2675   */\n      0x20\n        /* \"#utility.yul\":2661:2670   */\n      dup3\n        /* \"#utility.yul\":2652:2659   */\n      dup5\n        /* \"#utility.yul\":2648:2671   */\n      sub\n        /* \"#utility.yul\":2644:2676   */\n      slt\n        /* \"#utility.yul\":2641:2760   */\n      iszero\n      tag_152\n      jumpi\n        /* \"#utility.yul\":2679:2758   */\n      tag_153\n      tag_69\n      jump\t// in\n    tag_153:\n        /* \"#utility.yul\":2641:2760   */\n    tag_152:\n        /* \"#utility.yul\":2827:2828   */\n      0x00\n        /* \"#utility.yul\":2816:2825   */\n      dup3\n        /* \"#utility.yul\":2812:2829   */\n      add\n        /* \"#utility.yul\":2799:2830   */\n      calldataload\n        /* \"#utility.yul\":2857:2875   */\n      0xffffffffffffffff\n        /* \"#utility.yul\":2849:2855   */\n      dup2\n        /* \"#utility.yul\":2846:2876   */\n      gt\n        /* \"#utility.yul\":2843:2960   */\n      iszero\n      tag_154\n      jumpi\n        /* \"#utility.yul\":2879:2958   */\n      tag_155\n      tag_70\n      jump\t// in\n    tag_155:\n        /* \"#utility.yul\":2843:2960   */\n    tag_154:\n        /* \"#utility.yul\":2984:3047   */\n      tag_156\n        /* \"#utility.yul\":3039:3046   */\n      dup5\n        /* \"#utility.yul\":3030:3036   */\n      dup3\n        /* \"#utility.yul\":3019:3028   */\n      dup6\n        /* \"#utility.yul\":3015:3037   */\n      add\n        /* \"#utility.yul\":2984:3047   */\n      tag_80\n      jump\t// in\n    tag_156:\n        /* \"#utility.yul\":2974:3047   */\n      swap2\n      pop\n        /* \"#utility.yul\":2770:3057   */\n      pop\n        /* \"#utility.yul\":2555:3064   */\n      swap3\n      swap2\n      pop\n      pop\n      jump\t// out\n        /* \"#utility.yul\":3070:3147   */\n    tag_81:\n        /* \"#utility.yul\":3107:3114   */\n      0x00\n        /* \"#utility.yul\":3136:3141   */\n      dup2\n        /* \"#utility.yul\":3125:3141   */\n      swap1\n      pop\n        /* \"#utility.yul\":3070:3147   */\n      swap2\n      swap1\n      pop\n      jump\t// out\n        /* \"#utility.yul\":3153:3275   */\n    tag_82:\n        /* \"#utility.yul\":3226:3250   */\n      tag_159\n        /* \"#utility.yul\":3244:3249   */\n      dup2\n        /* \"#utility.yul\":3226:3250   */\n      tag_81\n      jump\t// in\n    tag_159:\n        /* \"#utility.yul\":3219:3224   */\n      dup2\n        /* \"#utility.yul\":3216:3251   */\n      eq\n        /* \"#utility.yul\":3206:3269   */\n      tag_160\n      jumpi\n        /* \"#utility.yul\":3265:3266   */\n      0x00\n        /* \"#utility.yul\":3262:3263   */\n      0x00\n        /* \"#utility.yul\":3255:3267   */\n      revert\n        /* \"#utility.yul\":3206:3269   */\n    tag_160:\n        /* \"#utility.yul\":3153:3275   */\n      pop\n      jump\t// out\n        /* \"#utility.yul\":3281:3420   */\n    tag_83:\n        /* \"#utility.yul\":3327:3332   */\n      0x00\n        /* \"#utility.yul\":3365:3371   */\n      dup2\n        /* \"#utility.yul\":3352:3372   */\n      calldataload\n        /* \"#utility.yul\":3343:3372   */\n      swap1\n      pop\n        /* \"#utility.yul\":3381:3414   */\n      tag_162\n        /* \"#utility.yul\":3408:3413   */\n      dup2\n        /* \"#utility.yul\":3381:3414   */\n      tag_82\n      jump\t// in\n    tag_162:\n        /* \"#utility.yul\":3281:3420   */\n      swap3\n      swap2\n      pop\n      pop\n      jump\t// out\n        /* \"#utility.yul\":3426:3755   */\n    tag_14:\n        /* \"#utility.yul\":3485:3491   */\n      0x00\n        /* \"#utility.yul\":3534:3536   */\n      0x20\n        /* \"#utility.yul\":3522:3531   */\n      dup3\n        /* \"#utility.yul\":3513:3520   */\n      dup5\n        /* \"#utility.yul\":3509:3532   */\n      sub\n        /* \"#utility.yul\":3505:3537   */\n      slt\n        /* \"#utility.yul\":3502:3621   */\n      iszero\n      tag_164\n      jumpi\n        /* \"#utility.yul\":3540:3619   */\n      tag_165\n      tag_69\n      jump\t// in\n    tag_165:\n        /* \"#utility.yul\":3502:3621   */\n    tag_164:\n        /* \"#utility.yul\":3660:3661   */\n      0x00\n        /* \"#utility.yul\":3685:3738   */\n      tag_166\n        /* \"#utility.yul\":3730:3737   */\n      dup5\n        /* \"#utility.yul\":3721:3727   */\n      dup3\n        /* \"#utility.yul\":3710:3719   */\n      dup6\n        /* \"#utility.yul\":3706:3728   */\n      add\n        /* \"#utility.yul\":3685:3738   */\n      tag_83\n      jump\t// in\n    tag_166:\n        /* \"#utility.yul\":3675:3738   */\n      swap2\n      pop\n        /* \"#utility.yul\":3631:3748   */\n      pop\n        /* \"#utility.yul\":3426:3755   */\n      swap3\n      swap2\n      pop\n      pop\n      jump\t// out\n        /* \"#utility.yul\":3761:3894   */\n    tag_84:\n        /* \"#utility.yul\":3847:3853   */\n      0x00\n        /* \"#utility.yul\":3881:3886   */\n      dup2\n        /* \"#utility.yul\":3875:3887   */\n      mload\n        /* \"#utility.yul\":3865:3887   */\n      swap1\n      pop\n        /* \"#utility.yul\":3761:3894   */\n      swap2\n      swap1\n      pop\n      jump\t// out\n        /* \"#utility.yul\":3900:4103   */\n    tag_85:\n        /* \"#utility.yul\":4018:4029   */\n      0x00\n        /* \"#utility.yul\":4052:4058   */\n      dup3\n        /* \"#utility.yul\":4047:4050   */\n      dup3\n        /* \"#utility.yul\":4040:4059   */\n      mstore\n        /* \"#utility.yul\":4092:4096   */\n      0x20\n        /* \"#utility.yul\":4087:4090   */\n      dup3\n        /* \"#utility.yul\":4083:4097   */\n      add\n        /* \"#utility.yul\":4068:4097   */\n      swap1\n      pop\n        /* \"#utility.yul\":3900:4103   */\n      swap3\n      swap2\n      pop\n      pop\n      jump\t// out\n        /* \"#utility.yul\":4109:4260   */\n    tag_86:\n        /* \"#utility.yul\":4195:4199   */\n      0x00\n        /* \"#utility.yul\":4218:4221   */\n      dup2\n        /* \"#utility.yul\":4210:4221   */\n      swap1\n      pop\n        /* \"#utility.yul\":4248:4252   */\n      0x20\n        /* \"#utility.yul\":4243:4246   */\n      dup3\n        /* \"#utility.yul\":4239:4253   */\n      add\n        /* \"#utility.yul\":4231:4253   */\n      swap1\n      pop\n        /* \"#utility.yul\":4109:4260   */\n      swap2\n      swap1\n      pop\n      jump\t// out\n        /* \"#utility.yul\":4266:4365   */\n    tag_87:\n        /* \"#utility.yul\":4318:4324   */\n      0x00\n        /* \"#utility.yul\":4352:4357   */\n      dup2\n        /* \"#utility.yul\":4346:4358   */\n      mload\n        /* \"#utility.yul\":4336:4358   */\n      swap1\n      pop\n        /* \"#utility.yul\":4266:4365   */\n      swap2\n      swap1\n      pop\n      jump\t// out\n        /* \"#utility.yul\":4371:4530   */\n    tag_88:\n        /* \"#utility.yul\":4445:4456   */\n      0x00\n        /* \"#utility.yul\":4479:4485   */\n      dup3\n        /* \"#utility.yul\":4474:4477   */\n      dup3\n        /* \"#utility.yul\":4467:4486   */\n      mstore\n        /* \"#utility.yul\":4519:4523   */\n      0x20\n        /* \"#utility.yul\":4514:4517   */\n      dup3\n        /* \"#utility.yul\":4510:4524   */\n      add\n        /* \"#utility.yul\":4495:4524   */\n      swap1\n      pop\n        /* \"#utility.yul\":4371:4530   */\n      swap3\n      swap2\n      pop\n      pop\n      jump\t// out\n        /* \"#utility.yul\":4536:4675   */\n    tag_89:\n        /* \"#utility.yul\":4625:4631   */\n      dup3\n        /* \"#utility.yul\":4620:4623   */\n      dup2\n        /* \"#utility.yul\":4615:4618   */\n      dup4\n        /* \"#utility.yul\":4609:4632   */\n      mcopy\n        /* \"#utility.yul\":4666:4667   */\n      0x00\n        /* \"#utility.yul\":4657:4663   */\n      dup4\n        /* \"#utility.yul\":4652:4655   */\n      dup4\n        /* \"#utility.yul\":4648:4664   */\n      add\n        /* \"#utility.yul\":4641:4668   */\n      mstore\n        /* \"#utility.yul\":4536:4675   */\n      pop\n      pop\n      pop\n      jump\t// out\n        /* \"#utility.yul\":4681:5038   */\n    tag_90:\n        /* \"#utility.yul\":4759:4762   */\n      0x00\n        /* \"#utility.yul\":4787:4826   */\n      tag_174\n        /* \"#utility.yul\":4820:4825   */\n      dup3\n        /* \"#utility.yul\":4787:4826   */\n      tag_87\n      jump\t// in\n    tag_174:\n        /* \"#utility.yul\":4842:4903   */\n      tag_175\n        /* \"#utility.yul\":4896:4902   */\n      dup2\n        /* \"#utility.yul\":4891:4894   */\n      dup6\n        /* \"#utility.yul\":4842:4903   */\n      tag_88\n      jump\t// in\n    tag_175:\n        /* \"#utility.yul\":4835:4903   */\n      swap4\n      pop\n        /* \"#utility.yul\":4912:4977   */\n      tag_176\n        /* \"#utility.yul\":4970:4976   */\n      dup2\n        /* \"#utility.yul\":4965:4968   */\n      dup6\n        /* \"#utility.yul\":4958:4962   */\n      0x20\n        /* \"#utility.yul\":4951:4956   */\n      dup7\n        /* \"#utility.yul\":4947:4963   */\n      add\n        /* \"#utility.yul\":4912:4977   */\n      tag_89\n      jump\t// in\n    tag_176:\n        /* \"#utility.yul\":5002:5031   */\n      tag_177\n        /* \"#utility.yul\":5024:5030   */\n      dup2\n        /* \"#utility.yul\":5002:5031   */\n      tag_73\n      jump\t// in\n    tag_177:\n        /* \"#utility.yul\":4997:5000   */\n      dup5\n        /* \"#utility.yul\":4993:5032   */\n      add\n        /* \"#utility.yul\":4986:5032   */\n      swap2\n      pop\n        /* \"#utility.yul\":4763:5038   */\n      pop\n        /* \"#utility.yul\":4681:5038   */\n      swap3\n      swap2\n      pop\n      pop\n      jump\t// out\n        /* \"#utility.yul\":5044:5134   */\n    tag_91:\n        /* \"#utility.yul\":5078:5085   */\n      0x00\n        /* \"#utility.yul\":5121:5126   */\n      dup2\n        /* \"#utility.yul\":5114:5127   */\n      iszero\n        /* \"#utility.yul\":5107:5128   */\n      iszero\n        /* \"#utility.yul\":5096:5128   */\n      swap1\n      pop\n        /* \"#utility.yul\":5044:5134   */\n      swap2\n      swap1\n      pop\n      jump\t// out\n        /* \"#utility.yul\":5140:5239   */\n    tag_92:\n        /* \"#utility.yul\":5211:5232   */\n      tag_180\n        /* \"#utility.yul\":5226:5231   */\n      dup2\n        /* \"#utility.yul\":5211:5232   */\n      tag_91\n      jump\t// in\n    tag_180:\n        /* \"#utility.yul\":5206:5209   */\n      dup3\n        /* \"#utility.yul\":5199:5233   */\n      mstore\n        /* \"#utility.yul\":5140:5239   */\n      pop\n      pop\n      jump\t// out\n        /* \"#utility.yul\":5307:5893   */\n    tag_93:\n        /* \"#utility.yul\":5404:5407   */\n      0x00\n        /* \"#utility.yul\":5440:5444   */\n      0x40\n        /* \"#utility.yul\":5435:5438   */\n      dup4\n        /* \"#utility.yul\":5431:5445   */\n      add\n        /* \"#utility.yul\":5528:5532   */\n      0x00\n        /* \"#utility.yul\":5521:5526   */\n      dup4\n        /* \"#utility.yul\":5517:5533   */\n      add\n        /* \"#utility.yul\":5511:5534   */\n      mload\n        /* \"#utility.yul\":5581:5584   */\n      dup5\n        /* \"#utility.yul\":5575:5579   */\n      dup3\n        /* \"#utility.yul\":5571:5585   */\n      sub\n        /* \"#utility.yul\":5564:5568   */\n      0x00\n        /* \"#utility.yul\":5559:5562   */\n      dup7\n        /* \"#utility.yul\":5555:5569   */\n      add\n        /* \"#utility.yul\":5548:5586   */\n      mstore\n        /* \"#utility.yul\":5607:5680   */\n      tag_182\n        /* \"#utility.yul\":5675:5679   */\n      dup3\n        /* \"#utility.yul\":5661:5673   */\n      dup3\n        /* \"#utility.yul\":5607:5680   */\n      tag_90\n      jump\t// in\n    tag_182:\n        /* \"#utility.yul\":5599:5680   */\n      swap2\n      pop\n        /* \"#utility.yul\":5455:5691   */\n      pop\n        /* \"#utility.yul\":5780:5784   */\n      0x20\n        /* \"#utility.yul\":5773:5778   */\n      dup4\n        /* \"#utility.yul\":5769:5785   */\n      add\n        /* \"#utility.yul\":5763:5786   */\n      mload\n        /* \"#utility.yul\":5799:5856   */\n      tag_183\n        /* \"#utility.yul\":5850:5854   */\n      0x20\n        /* \"#utility.yul\":5845:5848   */\n      dup7\n        /* \"#utility.yul\":5841:5855   */\n      add\n        /* \"#utility.yul\":5827:5839   */\n      dup3\n        /* \"#utility.yul\":5799:5856   */\n      tag_92\n      jump\t// in\n    tag_183:\n        /* \"#utility.yul\":5701:5866   */\n      pop\n        /* \"#utility.yul\":5883:5887   */\n      dup1\n        /* \"#utility.yul\":5876:5887   */\n      swap2\n      pop\n        /* \"#utility.yul\":5409:5893   */\n      pop\n        /* \"#utility.yul\":5307:5893   */\n      swap3\n      swap2\n      pop\n      pop\n      jump\t// out\n        /* \"#utility.yul\":5899:6131   */\n    tag_94:\n        /* \"#utility.yul\":6006:6016   */\n      0x00\n        /* \"#utility.yul\":6041:6125   */\n      tag_185\n        /* \"#utility.yul\":6121:6124   */\n      dup4\n        /* \"#utility.yul\":6113:6119   */\n      dup4\n        /* \"#utility.yul\":6041:6125   */\n      tag_93\n      jump\t// in\n    tag_185:\n        /* \"#utility.yul\":6027:6125   */\n      swap1\n      pop\n        /* \"#utility.yul\":5899:6131   */\n      swap3\n      swap2\n      pop\n      pop\n      jump\t// out\n        /* \"#utility.yul\":6137:6269   */\n    tag_95:\n        /* \"#utility.yul\":6226:6230   */\n      0x00\n        /* \"#utility.yul\":6258:6262   */\n      0x20\n        /* \"#utility.yul\":6253:6256   */\n      dup3\n        /* \"#utility.yul\":6249:6263   */\n      add\n        /* \"#utility.yul\":6241:6263   */\n      swap1\n      pop\n        /* \"#utility.yul\":6137:6269   */\n      swap2\n      swap1\n      pop\n      jump\t// out\n        /* \"#utility.yul\":6341:7404   */\n    tag_96:\n        /* \"#utility.yul\":6498:6501   */\n      0x00\n        /* \"#utility.yul\":6527:6600   */\n      tag_188\n        /* \"#utility.yul\":6594:6599   */\n      dup3\n        /* \"#utility.yul\":6527:6600   */\n      tag_84\n      jump\t// in\n    tag_188:\n        /* \"#utility.yul\":6616:6721   */\n      tag_189\n        /* \"#utility.yul\":6714:6720   */\n      dup2\n        /* \"#utility.yul\":6709:6712   */\n      dup6\n        /* \"#utility.yul\":6616:6721   */\n      tag_85\n      jump\t// in\n    tag_189:\n        /* \"#utility.yul\":6609:6721   */\n      swap4\n      pop\n        /* \"#utility.yul\":6747:6750   */\n      dup4\n        /* \"#utility.yul\":6792:6796   */\n      0x20\n        /* \"#utility.yul\":6784:6790   */\n      dup3\n        /* \"#utility.yul\":6780:6797   */\n      mul\n        /* \"#utility.yul\":6775:6778   */\n      dup6\n        /* \"#utility.yul\":6771:6798   */\n      add\n        /* \"#utility.yul\":6822:6897   */\n      tag_190\n        /* \"#utility.yul\":6891:6896   */\n      dup6\n        /* \"#utility.yul\":6822:6897   */\n      tag_86\n      jump\t// in\n    tag_190:\n        /* \"#utility.yul\":6920:6927   */\n      dup1\n        /* \"#utility.yul\":6951:6952   */\n      0x00\n        /* \"#utility.yul\":6936:7359   */\n    tag_191:\n        /* \"#utility.yul\":6961:6967   */\n      dup6\n        /* \"#utility.yul\":6958:6959   */\n      dup2\n        /* \"#utility.yul\":6955:6968   */\n      lt\n        /* \"#utility.yul\":6936:7359   */\n      iszero\n      tag_193\n      jumpi\n        /* \"#utility.yul\":7032:7041   */\n      dup5\n        /* \"#utility.yul\":7026:7030   */\n      dup5\n        /* \"#utility.yul\":7022:7042   */\n      sub\n        /* \"#utility.yul\":7017:7020   */\n      dup10\n        /* \"#utility.yul\":7010:7043   */\n      mstore\n        /* \"#utility.yul\":7083:7089   */\n      dup2\n        /* \"#utility.yul\":7077:7090   */\n      mload\n        /* \"#utility.yul\":7111:7213   */\n      tag_194\n        /* \"#utility.yul\":7208:7212   */\n      dup6\n        /* \"#utility.yul\":7193:7206   */\n      dup3\n        /* \"#utility.yul\":7111:7213   */\n      tag_94\n      jump\t// in\n    tag_194:\n        /* \"#utility.yul\":7103:7213   */\n      swap5\n      pop\n        /* \"#utility.yul\":7236:7315   */\n      tag_195\n        /* \"#utility.yul\":7308:7314   */\n      dup4\n        /* \"#utility.yul\":7236:7315   */\n      tag_95\n      jump\t// in\n    tag_195:\n        /* \"#utility.yul\":7226:7315   */\n      swap3\n      pop\n        /* \"#utility.yul\":7344:7348   */\n      0x20\n        /* \"#utility.yul\":7339:7342   */\n      dup11\n        /* \"#utility.yul\":7335:7349   */\n      add\n        /* \"#utility.yul\":7328:7349   */\n      swap10\n      pop\n        /* \"#utility.yul\":6996:7359   */\n      pop\n        /* \"#utility.yul\":6983:6984   */\n      0x01\n        /* \"#utility.yul\":6980:6981   */\n      dup2\n        /* \"#utility.yul\":6976:6985   */\n      add\n        /* \"#utility.yul\":6971:6985   */\n      swap1\n      pop\n        /* \"#utility.yul\":6936:7359   */\n      jump(tag_191)\n    tag_193:\n        /* \"#utility.yul\":6940:6954   */\n      pop\n        /* \"#utility.yul\":7375:7379   */\n      dup3\n        /* \"#utility.yul\":7368:7379   */\n      swap8\n      pop\n        /* \"#utility.yul\":7395:7398   */\n      dup8\n        /* \"#utility.yul\":7388:7398   */\n      swap6\n      pop\n        /* \"#utility.yul\":6503:7404   */\n      pop\n      pop\n      pop\n      pop\n      pop\n        /* \"#utility.yul\":6341:7404   */\n      swap3\n      swap2\n      pop\n      pop\n      jump\t// out\n        /* \"#utility.yul\":7410:7859   */\n    tag_19:\n        /* \"#utility.yul\":7591:7595   */\n      0x00\n        /* \"#utility.yul\":7629:7631   */\n      0x20\n        /* \"#utility.yul\":7618:7627   */\n      dup3\n        /* \"#utility.yul\":7614:7632   */\n      add\n        /* \"#utility.yul\":7606:7632   */\n      swap1\n      pop\n        /* \"#utility.yul\":7678:7687   */\n      dup2\n        /* \"#utility.yul\":7672:7676   */\n      dup2\n        /* \"#utility.yul\":7668:7688   */\n      sub\n        /* \"#utility.yul\":7664:7665   */\n      0x00\n        /* \"#utility.yul\":7653:7662   */\n      dup4\n        /* \"#utility.yul\":7649:7666   */\n      add\n        /* \"#utility.yul\":7642:7689   */\n      mstore\n        /* \"#utility.yul\":7706:7852   */\n      tag_197\n        /* \"#utility.yul\":7847:7851   */\n      dup2\n        /* \"#utility.yul\":7838:7844   */\n      dup5\n        /* \"#utility.yul\":7706:7852   */\n      tag_96\n      jump\t// in\n    tag_197:\n        /* \"#utility.yul\":7698:7852   */\n      swap1\n      pop\n        /* \"#utility.yul\":7410:7859   */\n      swap3\n      swap2\n      pop\n      pop\n      jump\t// out\n        /* \"#utility.yul\":7865:7983   */\n    tag_97:\n        /* \"#utility.yul\":7952:7976   */\n      tag_199\n        /* \"#utility.yul\":7970:7975   */\n      dup2\n        /* \"#utility.yul\":7952:7976   */\n      tag_81\n      jump\t// in\n    tag_199:\n        /* \"#utility.yul\":7947:7950   */\n      dup3\n        /* \"#utility.yul\":7940:7977   */\n      mstore\n        /* \"#utility.yul\":7865:7983   */\n      pop\n      pop\n      jump\t// out\n        /* \"#utility.yul\":7989:8211   */\n    tag_26:\n        /* \"#utility.yul\":8082:8086   */\n      0x00\n        /* \"#utility.yul\":8120:8122   */\n      0x20\n        /* \"#utility.yul\":8109:8118   */\n      dup3\n        /* \"#utility.yul\":8105:8123   */\n      add\n        /* \"#utility.yul\":8097:8123   */\n      swap1\n      pop\n        /* \"#utility.yul\":8133:8204   */\n      tag_201\n        /* \"#utility.yul\":8201:8202   */\n      0x00\n        /* \"#utility.yul\":8190:8199   */\n      dup4\n        /* \"#utility.yul\":8186:8203   */\n      add\n        /* \"#utility.yul\":8177:8183   */\n      dup5\n        /* \"#utility.yul\":8133:8204   */\n      tag_97\n      jump\t// in\n    tag_201:\n        /* \"#utility.yul\":7989:8211   */\n      swap3\n      swap2\n      pop\n      pop\n      jump\t// out\n        /* \"#utility.yul\":8217:8397   */\n    tag_98:\n        /* \"#utility.yul\":8265:8342   */\n      0x4e487b7100000000000000000000000000000000000000000000000000000000\n        /* \"#utility.yul\":8262:8263   */\n      0x00\n        /* \"#utility.yul\":8255:8343   */\n      mstore\n        /* \"#utility.yul\":8362:8366   */\n      0x22\n        /* \"#utility.yul\":8359:8360   */\n      0x04\n        /* \"#utility.yul\":8352:8367   */\n      mstore\n        /* \"#utility.yul\":8386:8390   */\n      0x24\n        /* \"#utility.yul\":8383:8384   */\n      0x00\n        /* \"#utility.yul\":8376:8391   */\n      revert\n        /* \"#utility.yul\":8403:8723   */\n    tag_50:\n        /* \"#utility.yul\":8447:8453   */\n      0x00\n        /* \"#utility.yul\":8484:8485   */\n      0x02\n        /* \"#utility.yul\":8478:8482   */\n      dup3\n        /* \"#utility.yul\":8474:8486   */\n      div\n        /* \"#utility.yul\":8464:8486   */\n      swap1\n      pop\n        /* \"#utility.yul\":8531:8532   */\n      0x01\n        /* \"#utility.yul\":8525:8529   */\n      dup3\n        /* \"#utility.yul\":8521:8533   */\n      and\n        /* \"#utility.yul\":8552:8570   */\n      dup1\n        /* \"#utility.yul\":8542:8623   */\n      tag_204\n      jumpi\n        /* \"#utility.yul\":8608:8612   */\n      0x7f\n        /* \"#utility.yul\":8600:8606   */\n      dup3\n        /* \"#utility.yul\":8596:8613   */\n      and\n        /* \"#utility.yul\":8586:8613   */\n      swap2\n      pop\n        /* \"#utility.yul\":8542:8623   */\n    tag_204:\n        /* \"#utility.yul\":8670:8672   */\n      0x20\n        /* \"#utility.yul\":8662:8668   */\n      dup3\n        /* \"#utility.yul\":8659:8673   */\n      lt\n        /* \"#utility.yul\":8639:8657   */\n      dup2\n        /* \"#utility.yul\":8636:8674   */\n      sub\n        /* \"#utility.yul\":8633:8717   */\n      tag_205\n      jumpi\n        /* \"#utility.yul\":8689:8707   */\n      tag_206\n      tag_98\n      jump\t// in\n    tag_206:\n        /* \"#utility.yul\":8633:8717   */\n    tag_205:\n        /* \"#utility.yul\":8454:8723   */\n      pop\n        /* \"#utility.yul\":8403:8723   */\n      swap2\n      swap1\n      pop\n      jump\t// out\n        /* \"#utility.yul\":8729:8870   */\n    tag_99:\n        /* \"#utility.yul\":8778:8782   */\n      0x00\n        /* \"#utility.yul\":8801:8804   */\n      dup2\n        /* \"#utility.yul\":8793:8804   */\n      swap1\n      pop\n        /* \"#utility.yul\":8824:8827   */\n      dup2\n        /* \"#utility.yul\":8821:8822   */\n      0x00\n        /* \"#utility.yul\":8814:8828   */\n      mstore\n        /* \"#utility.yul\":8858:8862   */\n      0x20\n        /* \"#utility.yul\":8855:8856   */\n      0x00\n        /* \"#utility.yul\":8845:8863   */\n      keccak256\n        /* \"#utility.yul\":8837:8863   */\n      swap1\n      pop\n        /* \"#utility.yul\":8729:8870   */\n      swap2\n      swap1\n      pop\n      jump\t// out\n        /* \"#utility.yul\":8876:8969   */\n    tag_100:\n        /* \"#utility.yul\":8913:8919   */\n      0x00\n        /* \"#utility.yul\":8960:8962   */\n      0x20\n        /* \"#utility.yul\":8955:8957   */\n      0x1f\n        /* \"#utility.yul\":8948:8953   */\n      dup4\n        /* \"#utility.yul\":8944:8958   */\n      add\n        /* \"#utility.yul\":8940:8963   */\n      div\n        /* \"#utility.yul\":8930:8963   */\n      swap1\n      pop\n        /* \"#utility.yul\":8876:8969   */\n      swap2\n      swap1\n      pop\n      jump\t// out\n        /* \"#utility.yul\":8975:9082   */\n    tag_101:\n        /* \"#utility.yul\":9019:9027   */\n      0x00\n        /* \"#utility.yul\":9069:9074   */\n      dup3\n        /* \"#utility.yul\":9063:9067   */\n      dup3\n        /* \"#utility.yul\":9059:9075   */\n      shl\n        /* \"#utility.yul\":9038:9075   */\n      swap1\n      pop\n        /* \"#utility.yul\":8975:9082   */\n      swap3\n      swap2\n      pop\n      pop\n      jump\t// out\n        /* \"#utility.yul\":9088:9481   */\n    tag_102:\n        /* \"#utility.yul\":9157:9163   */\n      0x00\n        /* \"#utility.yul\":9207:9208   */\n      0x08\n        /* \"#utility.yul\":9195:9205   */\n      dup4\n        /* \"#utility.yul\":9191:9209   */\n      mul\n        /* \"#utility.yul\":9230:9327   */\n      tag_211\n        /* \"#utility.yul\":9260:9326   */\n      0xffffffffffffffffffffffffffffffffffffffffffffffffffffffffffffffff\n        /* \"#utility.yul\":9249:9258   */\n      dup3\n        /* \"#utility.yul\":9230:9327   */\n      tag_101\n      jump\t// in\n    tag_211:\n        /* \"#utility.yul\":9348:9387   */\n      tag_212\n        /* \"#utility.yul\":9378:9386   */\n      dup7\n        /* \"#utility.yul\":9367:9376   */\n      dup4\n        /* \"#utility.yul\":9348:9387   */\n      tag_101\n      jump\t// in\n    tag_212:\n        /* \"#utility.yul\":9336:9387   */\n      swap6\n      pop\n        /* \"#utility.yul\":9420:9424   */\n      dup1\n        /* \"#utility.yul\":9416:9425   */\n      not\n        /* \"#utility.yul\":9409:9414   */\n      dup5\n        /* \"#utility.yul\":9405:9426   */\n      and\n        /* \"#utility.yul\":9396:9426   */\n      swap4\n      pop\n        /* \"#utility.yul\":9469:9473   */\n      dup1\n        /* \"#utility.yul\":9459:9467   */\n      dup7\n        /* \"#utility.yul\":9455:9474   */\n      and\n        /* \"#utility.yul\":9448:9453   */\n      dup5\n        /* \"#utility.yul\":9445:9475   */\n      or\n        /* \"#utility.yul\":9435:9475   */\n      swap3\n      pop\n        /* \"#utility.yul\":9164:9481   */\n      pop\n      pop\n        /* \"#utility.yul\":9088:9481   */\n      swap4\n      swap3\n      pop\n      pop\n      pop\n      jump\t// out\n        /* \"#utility.yul\":9487:9547   */\n    tag_103:\n        /* \"#utility.yul\":9515:9518   */\n      0x00\n        /* \"#utility.yul\":9536:9541   */\n      dup2\n        /* \"#utility.yul\":9529:9541   */\n      swap1\n      pop\n        /* \"#utility.yul\":9487:9547   */\n      swap2\n      swap1\n      pop\n      jump\t// out\n        /* \"#utility.yul\":9553:9695   */\n    tag_104:\n        /* \"#utility.yul\":9603:9612   */\n      0x00\n        /* \"#utility.yul\":9636:9689   */\n      tag_215\n        /* \"#utility.yul\":9654:9688   */\n      tag_216\n        /* \"#utility.yul\":9663:9687   */\n      tag_217\n        /* \"#utility.yul\":9681:9686   */\n      dup5\n        /* \"#utility.yul\":9663:9687   */\n      tag_81\n      jump\t// in\n    tag_217:\n        /* \"#utility.yul\":9654:9688   */\n      tag_103\n      jump\t// in\n    tag_216:\n        /* \"#utility.yul\":9636:9689   */\n      tag_81\n      jump\t// in\n    tag_215:\n        /* \"#utility.yul\":9623:9689   */\n      swap1\n      pop\n        /* \"#utility.yul\":9553:9695   */\n      swap2\n      swap1\n      pop\n      jump\t// out\n        /* \"#utility.yul\":9701:9776   */\n    tag_105:\n        /* \"#utility.yul\":9744:9747   */\n      0x00\n        /* \"#utility.yul\":9765:9770   */\n      dup2\n        /* \"#utility.yul\":9758:9770   */\n      swap1\n      pop\n        /* \"#utility.yul\":9701:9776   */\n      swap2\n      swap1\n      pop\n      jump\t// out\n        /* \"#utility.yul\":9782:10051   */\n    tag_106:\n        /* \"#utility.yul\":9892:9931   */\n      tag_220\n        /* \"#utility.yul\":9923:9930   */\n      dup4\n        /* \"#utility.yul\":9892:9931   */\n      tag_104\n      jump\t// in\n    tag_220:\n        /* \"#utility.yul\":9953:10044   */\n      tag_221\n        /* \"#utility.yul\":10002:10043   */\n      tag_222\n        /* \"#utility.yul\":10026:10042   */\n      dup3\n        /* \"#utility.yul\":10002:10043   */\n      tag_105\n      jump\t// in\n    tag_222:\n        /* \"#utility.yul\":9994:10000   */\n      dup5\n        /* \"#utility.yul\":9987:9991   */\n      dup5\n        /* \"#utility.yul\":9981:9992   */\n      sload\n        /* \"#utility.yul\":9953:10044   */\n      tag_102\n      jump\t// in\n    tag_221:\n        /* \"#utility.yul\":9947:9951   */\n      dup3\n        /* \"#utility.yul\":9940:10045   */\n      sstore\n        /* \"#utility.yul\":9858:10051   */\n      pop\n        /* \"#utility.yul\":9782:10051   */\n      pop\n      pop\n      pop\n      jump\t// out\n        /* \"#utility.yul\":10057:10130   */\n    tag_107:\n        /* \"#utility.yul\":10102:10105   */\n      0x00\n        /* \"#utility.yul\":10123:10124   */\n      0x00\n        /* \"#utility.yul\":10116:10124   */\n      swap1\n      pop\n        /* \"#utility.yul\":10057:10130   */\n      swap1\n      jump\t// out\n        /* \"#utility.yul\":10136:10325   */\n    tag_108:\n        /* \"#utility.yul\":10213:10245   */\n      tag_225\n      tag_107\n      jump\t// in\n    tag_225:\n        /* \"#utility.yul\":10254:10319   */\n      tag_226\n        /* \"#utility.yul\":10312:10318   */\n      dup2\n        /* \"#utility.yul\":10304:10310   */\n      dup5\n        /* \"#utility.yul\":10298:10302   */\n      dup5\n        /* \"#utility.yul\":10254:10319   */\n      tag_106\n      jump\t// in\n    tag_226:\n        /* \"#utility.yul\":10189:10325   */\n      pop\n        /* \"#utility.yul\":10136:10325   */\n      pop\n      pop\n      jump\t// out\n        /* \"#utility.yul\":10331:10517   */\n    tag_109:\n        /* \"#utility.yul\":10391:10511   */\n    tag_228:\n        /* \"#utility.yul\":10408:10411   */\n      dup2\n        /* \"#utility.yul\":10401:10406   */\n      dup2\n        /* \"#utility.yul\":10398:10412   */\n      lt\n        /* \"#utility.yul\":10391:10511   */\n      iszero\n      tag_230\n      jumpi\n        /* \"#utility.yul\":10462:10501   */\n      tag_231\n        /* \"#utility.yul\":10499:10500   */\n      0x00\n        /* \"#utility.yul\":10492:10497   */\n      dup3\n        /* \"#utility.yul\":10462:10501   */\n      tag_108\n      jump\t// in\n    tag_231:\n        /* \"#utility.yul\":10435:10436   */\n      0x01\n        /* \"#utility.yul\":10428:10433   */\n      dup2\n        /* \"#utility.yul\":10424:10437   */\n      add\n        /* \"#utility.yul\":10415:10437   */\n      swap1\n      pop\n        /* \"#utility.yul\":10391:10511   */\n      jump(tag_228)\n    tag_230:\n        /* \"#utility.yul\":10331:10517   */\n      pop\n      pop\n      jump\t// out\n        /* \"#utility.yul\":10523:11066   */\n    tag_110:\n        /* \"#utility.yul\":10624:10626   */\n      0x1f\n        /* \"#utility.yul\":10619:10622   */\n      dup3\n        /* \"#utility.yul\":10616:10627   */\n      gt\n        /* \"#utility.yul\":10613:11059   */\n      iszero\n      tag_233\n      jumpi\n        /* \"#utility.yul\":10658:10696   */\n      tag_234\n        /* \"#utility.yul\":10690:10695   */\n      dup2\n        /* \"#utility.yul\":10658:10696   */\n      tag_99\n      jump\t// in\n    tag_234:\n        /* \"#utility.yul\":10742:10771   */\n      tag_235\n        /* \"#utility.yul\":10760:10770   */\n      dup5\n        /* \"#utility.yul\":10742:10771   */\n      tag_100\n      jump\t// in\n    tag_235:\n        /* \"#utility.yul\":10732:10740   */\n      dup2\n        /* \"#utility.yul\":10728:10772   */\n      add\n        /* \"#utility.yul\":10925:10927   */\n      0x20\n        /* \"#utility.yul\":10913:10923   */\n      dup6\n        /* \"#utility.yul\":10910:10928   */\n      lt\n        /* \"#utility.yul\":10907:10956   */\n      iszero\n      tag_236\n      jumpi\n        /* \"#utility.yul\":10946:10954   */\n      dup2\n        /* \"#utility.yul\":10931:10954   */\n      swap1\n      pop\n        /* \"#utility.yul\":10907:10956   */\n    tag_236:\n        /* \"#utility.yul\":10969:11049   */\n      tag_237\n        /* \"#utility.yul\":11025:11047   */\n      tag_238\n        /* \"#utility.yul\":11043:11046   */\n      dup6\n        /* \"#utility.yul\":11025:11047   */\n      tag_100\n      jump\t// in\n    tag_238:\n        /* \"#utility.yul\":11015:11023   */\n      dup4\n        /* \"#utility.yul\":11011:11048   */\n      add\n        /* \"#utility.yul\":10998:11009   */\n      dup3\n        /* \"#utility.yul\":10969:11049   */\n      tag_109\n      jump\t// in\n    tag_237:\n        /* \"#utility.yul\":10628:11059   */\n      pop\n      pop\n        /* \"#utility.yul\":10613:11059   */\n    tag_233:\n        /* \"#utility.yul\":10523:11066   */\n      pop\n      pop\n      pop\n      jump\t// out\n        /* \"#utility.yul\":11072:11189   */\n    tag_111:\n        /* \"#utility.yul\":11126:11134   */\n      0x00\n        /* \"#utility.yul\":11176:11181   */\n      dup3\n        /* \"#utility.yul\":11170:11174   */\n      dup3\n        /* \"#utility.yul\":11166:11182   */\n      shr\n        /* \"#utility.yul\":11145:11182   */\n      swap1\n      pop\n        /* \"#utility.yul\":11072:11189   */\n      swap3\n      swap2\n      pop\n      pop\n      jump\t// out\n        /* \"#utility.yul\":11195:11364   */\n    tag_112:\n        /* \"#utility.yul\":11239:11245   */\n      0x00\n        /* \"#utility.yul\":11272:11323   */\n      tag_241\n        /* \"#utility.yul\":11320:11321   */\n      0x00\n        /* \"#utility.yul\":11316:11322   */\n      not\n        /* \"#utility.yul\":11308:11313   */\n      dup5\n        /* \"#utility.yul\":11305:11306   */\n      0x08\n        /* \"#utility.yul\":11301:11314   */\n      mul\n        /* \"#utility.yul\":11272:11323   */\n      tag_111\n      jump\t// in\n    tag_241:\n        /* \"#utility.yul\":11268:11324   */\n      not\n        /* \"#utility.yul\":11353:11357   */\n      dup1\n        /* \"#utility.yul\":11347:11351   */\n      dup4\n        /* \"#utility.yul\":11343:11358   */\n      and\n        /* \"#utility.yul\":11333:11358   */\n      swap2\n      pop\n        /* \"#utility.yul\":11246:11364   */\n      pop\n        /* \"#utility.yul\":11195:11364   */\n      swap3\n      swap2\n      pop\n      pop\n      jump\t// out\n        /* \"#utility.yul\":11369:11664   */\n    tag_113:\n        /* \"#utility.yul\":11445:11449   */\n      0x00\n        /* \"#utility.yul\":11591:11620   */\n      tag_243\n        /* \"#utility.yul\":11616:11619   */\n      dup4\n        /* \"#utility.yul\":11610:11614   */\n      dup4\n        /* \"#utility.yul\":11591:11620   */\n      tag_112\n      jump\t// in\n    tag_243:\n        /* \"#utility.yul\":11583:11620   */\n      swap2\n      pop\n        /* \"#utility.yul\":11653:11656   */\n      dup3\n        /* \"#utility.yul\":11650:11651   */\n      0x02\n        /* \"#utility.yul\":11646:11657   */\n      mul\n        /* \"#utility.yul\":11640:11644   */\n      dup3\n        /* \"#utility.yul\":11637:11658   */\n      or\n        /* \"#utility.yul\":11629:11658   */\n      swap1\n      pop\n        /* \"#utility.yul\":11369:11664   */\n      swap3\n      swap2\n      pop\n      pop\n      jump\t// out\n        /* \"#utility.yul\":11669:13064   */\n    tag_30:\n        /* \"#utility.yul\":11786:11823   */\n      tag_245\n        /* \"#utility.yul\":11819:11822   */\n      dup3\n        /* \"#utility.yul\":11786:11823   */\n      tag_87\n      jump\t// in\n    tag_245:\n        /* \"#utility.yul\":11888:11906   */\n      0xffffffffffffffff\n        /* \"#utility.yul\":11880:11886   */\n      dup2\n        /* \"#utility.yul\":11877:11907   */\n      gt\n        /* \"#utility.yul\":11874:11930   */\n      iszero\n      tag_246\n      jumpi\n        /* \"#utility.yul\":11910:11928   */\n      tag_247\n      tag_74\n      jump\t// in\n    tag_247:\n        /* \"#utility.yul\":11874:11930   */\n    tag_246:\n        /* \"#utility.yul\":11954:11992   */\n      tag_248\n        /* \"#utility.yul\":11986:11990   */\n      dup3\n        /* \"#utility.yul\":11980:11991   */\n      sload\n        /* \"#utility.yul\":11954:11992   */\n      tag_50\n      jump\t// in\n    tag_248:\n        /* \"#utility.yul\":12039:12106   */\n      tag_249\n        /* \"#utility.yul\":12099:12105   */\n      dup3\n        /* \"#utility.yul\":12091:12097   */\n      dup3\n        /* \"#utility.yul\":12085:12089   */\n      dup6\n        /* \"#utility.yul\":12039:12106   */\n      tag_110\n      jump\t// in\n    tag_249:\n        /* \"#utility.yul\":12133:12134   */\n      0x00\n        /* \"#utility.yul\":12157:12161   */\n      0x20\n        /* \"#utility.yul\":12144:12161   */\n      swap1\n      pop\n        /* \"#utility.yul\":12189:12191   */\n      0x1f\n        /* \"#utility.yul\":12181:12187   */\n      dup4\n        /* \"#utility.yul\":12178:12192   */\n      gt\n        /* \"#utility.yul\":12206:12207   */\n      0x01\n        /* \"#utility.yul\":12201:12819   */\n      dup2\n      eq\n      tag_251\n      jumpi\n        /* \"#utility.yul\":12863:12864   */\n      0x00\n        /* \"#utility.yul\":12880:12886   */\n      dup5\n        /* \"#utility.yul\":12877:12954   */\n      iszero\n      tag_252\n      jumpi\n        /* \"#utility.yul\":12929:12938   */\n      dup3\n        /* \"#utility.yul\":12924:12927   */\n      dup8\n        /* \"#utility.yul\":12920:12939   */\n      add\n        /* \"#utility.yul\":12914:12940   */\n      mload\n        /* \"#utility.yul\":12905:12940   */\n      swap1\n      pop\n        /* \"#utility.yul\":12877:12954   */\n    tag_252:\n        /* \"#utility.yul\":12980:13047   */\n      tag_253\n        /* \"#utility.yul\":13040:13046   */\n      dup6\n        /* \"#utility.yul\":13033:13038   */\n      dup3\n        /* \"#utility.yul\":12980:13047   */\n      tag_113\n      jump\t// in\n    tag_253:\n        /* \"#utility.yul\":12974:12978   */\n      dup7\n        /* \"#utility.yul\":12967:13048   */\n      sstore\n        /* \"#utility.yul\":12836:13058   */\n      pop\n        /* \"#utility.yul\":12171:13058   */\n      jump(tag_250)\n        /* \"#utility.yul\":12201:12819   */\n    tag_251:\n        /* \"#utility.yul\":12253:12257   */\n      0x1f\n        /* \"#utility.yul\":12249:12258   */\n      not\n        /* \"#utility.yul\":12241:12247   */\n      dup5\n        /* \"#utility.yul\":12237:12259   */\n      and\n        /* \"#utility.yul\":12287:12324   */\n      tag_254\n        /* \"#utility.yul\":12319:12323   */\n      dup7\n        /* \"#utility.yul\":12287:12324   */\n      tag_99\n      jump\t// in\n    tag_254:\n        /* \"#utility.yul\":12346:12347   */\n      0x00\n        /* \"#utility.yul\":12360:12568   */\n    tag_255:\n        /* \"#utility.yul\":12374:12381   */\n      dup3\n        /* \"#utility.yul\":12371:12372   */\n      dup2\n        /* \"#utility.yul\":12368:12382   */\n      lt\n        /* \"#utility.yul\":12360:12568   */\n      iszero\n      tag_257\n      jumpi\n        /* \"#utility.yul\":12453:12462   */\n      dup5\n        /* \"#utility.yul\":12448:12451   */\n      dup10\n        /* \"#utility.yul\":12444:12463   */\n      add\n        /* \"#utility.yul\":12438:12464   */\n      mload\n        /* \"#utility.yul\":12430:12436   */\n      dup3\n        /* \"#utility.yul\":12423:12465   */\n      sstore\n        /* \"#utility.yul\":12504:12505   */\n      0x01\n        /* \"#utility.yul\":12496:12502   */\n      dup3\n        /* \"#utility.yul\":12492:12506   */\n      add\n        /* \"#utility.yul\":12482:12506   */\n      swap2\n      pop\n        /* \"#utility.yul\":12551:12553   */\n      0x20\n        /* \"#utility.yul\":12540:12549   */\n      dup6\n        /* \"#utility.yul\":12536:12554   */\n      add\n        /* \"#utility.yul\":12523:12554   */\n      swap5\n      pop\n        /* \"#utility.yul\":12397:12401   */\n      0x20\n        /* \"#utility.yul\":12394:12395   */\n      dup2\n        /* \"#utility.yul\":12390:12402   */\n      add\n        /* \"#utility.yul\":12385:12402   */\n      swap1\n      pop\n        /* \"#utility.yul\":12360:12568   */\n      jump(tag_255)\n    tag_257:\n        /* \"#utility.yul\":12596:12602   */\n      dup7\n        /* \"#utility.yul\":12587:12594   */\n      dup4\n        /* \"#utility.yul\":12584:12603   */\n      lt\n        /* \"#utility.yul\":12581:12760   */\n      iszero\n      tag_258\n      jumpi\n        /* \"#utility.yul\":12654:12663   */\n      dup5\n        /* \"#utility.yul\":12649:12652   */\n      dup10\n        /* \"#utility.yul\":12645:12664   */\n      add\n        /* \"#utility.yul\":12639:12665   */\n      mload\n        /* \"#utility.yul\":12697:12745   */\n      tag_259\n        /* \"#utility.yul\":12739:12743   */\n      0x1f\n        /* \"#utility.yul\":12731:12737   */\n      dup10\n        /* \"#utility.yul\":12727:12744   */\n      and\n        /* \"#utility.yul\":12716:12725   */\n      dup3\n        /* \"#utility.yul\":12697:12745   */\n      tag_112\n      jump\t// in\n    tag_259:\n        /* \"#utility.yul\":12689:12695   */\n      dup4\n        /* \"#utility.yul\":12682:12746   */\n      sstore\n        /* \"#utility.yul\":12604:12760   */\n      pop\n        /* \"#utility.yul\":12581:12760   */\n    tag_258:\n        /* \"#utility.yul\":12806:12807   */\n      0x01\n        /* \"#utility.yul\":12802:12803   */\n      0x02\n        /* \"#utility.yul\":12794:12800   */\n      dup9\n        /* \"#utility.yul\":12790:12804   */\n      mul\n        /* \"#utility.yul\":12786:12808   */\n      add\n        /* \"#utility.yul\":12780:12784   */\n      dup9\n        /* \"#utility.yul\":12773:12809   */\n      sstore\n        /* \"#utility.yul\":12208:12819   */\n      pop\n      pop\n      pop\n        /* \"#utility.yul\":12171:13058   */\n    tag_250:\n      pop\n        /* \"#utility.yul\":11761:13064   */\n      pop\n      pop\n      pop\n        /* \"#utility.yul\":11669:13064   */\n      pop\n      pop\n      jump\t// out\n        /* \"#utility.yul\":13070:13239   */\n    tag_114:\n        /* \"#utility.yul\":13154:13165   */\n      0x00\n        /* \"#utility.yul\":13188:13194   */\n      dup3\n        /* \"#utility.yul\":13183:13186   */\n      dup3\n        /* \"#utility.yul\":13176:13195   */\n      mstore\n        /* \"#utility.yul\":13228:13232   */\n      0x20\n        /* \"#utility.yul\":13223:13226   */\n      dup3\n        /* \"#utility.yul\":13219:13233   */\n      add\n        /* \"#utility.yul\":13204:13233   */\n      swap1\n      pop\n        /* \"#utility.yul\":13070:13239   */\n      swap3\n      swap2\n      pop\n      pop\n      jump\t// out\n        /* \"#utility.yul\":13245:13413   */\n    tag_115:\n        /* \"#utility.yul\":13385:13405   */\n      0x496e76616c696420626f6f6b20696e6465780000000000000000000000000000\n        /* \"#utility.yul\":13381:13382   */\n      0x00\n        /* \"#utility.yul\":13373:13379   */\n      dup3\n        /* \"#utility.yul\":13369:13383   */\n      add\n        /* \"#utility.yul\":13362:13406   */\n      mstore\n        /* \"#utility.yul\":13245:13413   */\n      pop\n      jump\t// out\n        /* \"#utility.yul\":13419:13785   */\n    tag_116:\n        /* \"#utility.yul\":13561:13564   */\n      0x00\n        /* \"#utility.yul\":13582:13649   */\n      tag_263\n        /* \"#utility.yul\":13646:13648   */\n      0x12\n        /* \"#utility.yul\":13641:13644   */\n      dup4\n        /* \"#utility.yul\":13582:13649   */\n      tag_114\n      jump\t// in\n    tag_263:\n        /* \"#utility.yul\":13575:13649   */\n      swap2\n      pop\n        /* \"#utility.yul\":13658:13751   */\n      tag_264\n        /* \"#utility.yul\":13747:13750   */\n      dup3\n        /* \"#utility.yul\":13658:13751   */\n      tag_115\n      jump\t// in\n    tag_264:\n        /* \"#utility.yul\":13776:13778   */\n      0x20\n        /* \"#utility.yul\":13771:13774   */\n      dup3\n        /* \"#utility.yul\":13767:13779   */\n      add\n        /* \"#utility.yul\":13760:13779   */\n      swap1\n      pop\n        /* \"#utility.yul\":13419:13785   */\n      swap2\n      swap1\n      pop\n      jump\t// out\n        /* \"#utility.yul\":13791:14210   */\n    tag_34:\n        /* \"#utility.yul\":13957:13961   */\n      0x00\n        /* \"#utility.yul\":13995:13997   */\n      0x20\n        /* \"#utility.yul\":13984:13993   */\n      dup3\n        /* \"#utility.yul\":13980:13998   */\n      add\n        /* \"#utility.yul\":13972:13998   */\n      swap1\n      pop\n        /* \"#utility.yul\":14044:14053   */\n      dup2\n        /* \"#utility.yul\":14038:14042   */\n      dup2\n        /* \"#utility.yul\":14034:14054   */\n      sub\n        /* \"#utility.yul\":14030:14031   */\n      0x00\n        /* \"#utility.yul\":14019:14028   */\n      dup4\n        /* \"#utility.yul\":14015:14032   */\n      add\n        /* \"#utility.yul\":14008:14055   */\n      mstore\n        /* \"#utility.yul\":14072:14203   */\n      tag_266\n        /* \"#utility.yul\":14198:14202   */\n      dup2\n        /* \"#utility.yul\":14072:14203   */\n      tag_116\n      jump\t// in\n    tag_266:\n        /* \"#utility.yul\":14064:14203   */\n      swap1\n      pop\n        /* \"#utility.yul\":13791:14210   */\n      swap2\n      swap1\n      pop\n      jump\t// out\n        /* \"#utility.yul\":14216:14396   */\n    tag_37:\n        /* \"#utility.yul\":14264:14341   */\n      0x4e487b7100000000000000000000000000000000000000000000000000000000\n        /* \"#utility.yul\":14261:14262   */\n      0x00\n        /* \"#utility.yul\":14254:14342   */\n      mstore\n        /* \"#utility.yul\":14361:14365   */\n      0x32\n        /* \"#utility.yul\":14358:14359   */\n      0x04\n        /* \"#utility.yul\":14351:14366   */\n      mstore\n        /* \"#utility.yul\":14385:14389   */\n      0x24\n        /* \"#utility.yul\":14382:14383   */\n      0x00\n        /* \"#utility.yul\":14375:14390   */\n      revert\n        /* \"#utility.yul\":14402:14570   */\n    tag_117:\n        /* \"#utility.yul\":14542:14562   */\n      0x426f6f6b206e6f7420617661696c61626c650000000000000000000000000000\n        /* \"#utility.yul\":14538:14539   */\n      0x00\n        /* \"#utility.yul\":14530:14536   */\n      dup3\n        /* \"#utility.yul\":14526:14540   */\n      add\n        /* \"#utility.yul\":14519:14563   */\n      mstore\n        /* \"#utility.yul\":14402:14570   */\n      pop\n      jump\t// out\n        /* \"#utility.yul\":14576:14942   */\n    tag_118:\n        /* \"#utility.yul\":14718:14721   */\n      0x00\n        /* \"#utility.yul\":14739:14806   */\n      tag_270\n        /* \"#utility.yul\":14803:14805   */\n      0x12\n        /* \"#utility.yul\":14798:14801   */\n      dup4\n        /* \"#utility.yul\":14739:14806   */\n      tag_114\n      jump\t// in\n    tag_270:\n        /* \"#utility.yul\":14732:14806   */\n      swap2\n      pop\n        /* \"#utility.yul\":14815:14908   */\n      tag_271\n        /* \"#utility.yul\":14904:14907   */\n      dup3\n        /* \"#utility.yul\":14815:14908   */\n      tag_117\n      jump\t// in\n    tag_271:\n        /* \"#utility.yul\":14933:14935   */\n      0x20\n        /* \"#utility.yul\":14928:14931   */\n      dup3\n        /* \"#utility.yul\":14924:14936   */\n      add\n        /* \"#utility.yul\":14917:14936   */\n      swap1\n      pop\n        /* \"#utility.yul\":14576:14942   */\n      swap2\n      swap1\n      pop\n      jump\t// out\n        /* \"#utility.yul\":14948:15367   */\n    tag_41:\n        /* \"#utility.yul\":15114:15118   */\n      0x00\n        /* \"#utility.yul\":15152:15154   */\n      0x20\n        /* \"#utility.yul\":15141:15150   */\n      dup3\n        /* \"#utility.yul\":15137:15155   */\n      add\n        /* \"#utility.yul\":15129:15155   */\n      swap1\n      pop\n        /* \"#utility.yul\":15201:15210   */\n      dup2\n        /* \"#utility.yul\":15195:15199   */\n      dup2\n        /* \"#utility.yul\":15191:15211   */\n      sub\n        /* \"#utility.yul\":15187:15188   */\n      0x00\n        /* \"#utility.yul\":15176:15185   */\n      dup4\n        /* \"#utility.yul\":15172:15189   */\n      add\n        /* \"#utility.yul\":15165:15212   */\n      mstore\n        /* \"#utility.yul\":15229:15360   */\n      tag_273\n        /* \"#utility.yul\":15355:15359   */\n      dup2\n        /* \"#utility.yul\":15229:15360   */\n      tag_118\n      jump\t// in\n    tag_273:\n        /* \"#utility.yul\":15221:15360   */\n      swap1\n      pop\n        /* \"#utility.yul\":14948:15367   */\n      swap2\n      swap1\n      pop\n      jump\t// out\n        /* \"#utility.yul\":15373:15548   */\n    tag_119:\n        /* \"#utility.yul\":15513:15540   */\n      0x426f6f6b20697320616c726561647920617661696c61626c6500000000000000\n        /* \"#utility.yul\":15509:15510   */\n      0x00\n        /* \"#utility.yul\":15501:15507   */\n      dup3\n        /* \"#utility.yul\":15497:15511   */\n      add\n        /* \"#utility.yul\":15490:15541   */\n      mstore\n        /* \"#utility.yul\":15373:15548   */\n      pop\n      jump\t// out\n        /* \"#utility.yul\":15554:15920   */\n    tag_120:\n        /* \"#utility.yul\":15696:15699   */\n      0x00\n        /* \"#utility.yul\":15717:15784   */\n      tag_276\n        /* \"#utility.yul\":15781:15783   */\n      0x19\n        /* \"#utility.yul\":15776:15779   */\n      dup4\n        /* \"#utility.yul\":15717:15784   */\n      tag_114\n      jump\t// in\n    tag_276:\n        /* \"#utility.yul\":15710:15784   */\n      swap2\n      pop\n        /* \"#utility.yul\":15793:15886   */\n      tag_277\n        /* \"#utility.yul\":15882:15885   */\n      dup3\n        /* \"#utility.yul\":15793:15886   */\n      tag_119\n      jump\t// in\n    tag_277:\n        /* \"#utility.yul\":15911:15913   */\n      0x20\n        /* \"#utility.yul\":15906:15909   */\n      dup3\n        /* \"#utility.yul\":15902:15914   */\n      add\n        /* \"#utility.yul\":15895:15914   */\n      swap1\n      pop\n        /* \"#utility.yul\":15554:15920   */\n      swap2\n      swap1\n      pop\n      jump\t// out\n        /* \"#utility.yul\":15926:16345   */\n    tag_63:\n        /* \"#utility.yul\":16092:16096   */\n      0x00\n        /* \"#utility.yul\":16130:16132   */\n      0x20\n        /* \"#utility.yul\":16119:16128   */\n      dup3\n        /* \"#utility.yul\":16115:16133   */\n      add\n        /* \"#utility.yul\":16107:16133   */\n      swap1\n      pop\n        /* \"#utility.yul\":16179:16188   */\n      dup2\n        /* \"#utility.yul\":16173:16177   */\n      dup2\n        /* \"#utility.yul\":16169:16189   */\n      sub\n        /* \"#utility.yul\":16165:16166   */\n      0x00\n        /* \"#utility.yul\":16154:16163   */\n      dup4\n        /* \"#utility.yul\":16150:16167   */\n      add\n        /* \"#utility.yul\":16143:16190   */\n      mstore\n        /* \"#utility.yul\":16207:16338   */\n      tag_279\n        /* \"#utility.yul\":16333:16337   */\n      dup2\n        /* \"#utility.yul\":16207:16338   */\n      tag_120\n      jump\t// in\n    tag_279:\n        /* \"#utility.yul\":16199:16338   */\n      swap1\n      pop\n        /* \"#utility.yul\":15926:16345   */\n      swap2\n      swap1\n      pop\n      jump\t// out\n\n    auxdata: 0xa26469706673582212207d79a550af0ae7ac2a5ddbdcae1663a4e4ff1079ac16c7c2a985b2c7f43a365664736f6c634300081e0033\n}\n",
				"bytecode": {
					"linkReferences": {},
					"object": "6080604052348015600e575f5ffd5b50610c718061001c5f395ff3fe608060405234801561000f575f5ffd5b5060043610610055575f3560e01c80633bc5f48a146100595780637e490a9e146100755780639f34978914610091578063ca5140c9146100af578063d73e0c89146100cb575b5f5ffd5b610073600480360381019061006e919061059e565b6100e9565b005b61008f600480360381019061008a9190610618565b610160565b005b610099610250565b6040516100a691906107b2565b60405180910390f35b6100c960048036038101906100c49190610618565b610354565b005b6100d3610446565b6040516100e091906107e1565b60405180910390f35b5f604051806040016040528083815260200160011515815250908060018154018082558091505060019003905f5260205f2090600202015f909190919091505f820151815f01908161013b91906109f7565b506020820151816001015f6101000a81548160ff021916908315150217905550505050565b5f8054905081106101a6576040517f08c379a000000000000000000000000000000000000000000000000000000000815260040161019d90610b20565b60405180910390fd5b5f81815481106101b9576101b8610b3e565b5b905f5260205f2090600202016001015f9054906101000a900460ff16610214576040517f08c379a000000000000000000000000000000000000000000000000000000000815260040161020b90610bb5565b60405180910390fd5b5f5f828154811061022857610227610b3e565b5b905f5260205f2090600202016001015f6101000a81548160ff02191690831515021790555050565b60605f805480602002602001604051908101604052809291908181526020015f905b8282101561034b578382905f5260205f2090600202016040518060400160405290815f820180546102a290610827565b80601f01602080910402602001604051908101604052809291908181526020018280546102ce90610827565b80156103195780601f106102f057610100808354040283529160200191610319565b820191905f5260205f20905b8154815290600101906020018083116102fc57829003601f168201915b50505050508152602001600182015f9054906101000a900460ff16151515158152505081526020019060010190610272565b50505050905090565b5f80549050811061039a576040517f08c379a000000000000000000000000000000000000000000000000000000000815260040161039190610b20565b60405180910390fd5b5f81815481106103ad576103ac610b3e565b5b905f5260205f2090600202016001015f9054906101000a900460ff1615610409576040517f08c379a000000000000000000000000000000000000000000000000000000000815260040161040090610c1d565b60405180910390fd5b60015f828154811061041e5761041d610b3e565b5b905f5260205f2090600202016001015f6101000a81548160ff02191690831515021790555050565b5f5f80549050905090565b5f604051905090565b5f5ffd5b5f5ffd5b5f5ffd5b5f5ffd5b5f601f19601f8301169050919050565b7f4e487b71000000000000000000000000000000000000000000000000000000005f52604160045260245ffd5b6104b08261046a565b810181811067ffffffffffffffff821117156104cf576104ce61047a565b5b80604052505050565b5f6104e1610451565b90506104ed82826104a7565b919050565b5f67ffffffffffffffff82111561050c5761050b61047a565b5b6105158261046a565b9050602081019050919050565b828183375f83830152505050565b5f61054261053d846104f2565b6104d8565b90508281526020810184848401111561055e5761055d610466565b5b610569848285610522565b509392505050565b5f82601f83011261058557610584610462565b5b8135610595848260208601610530565b91505092915050565b5f602082840312156105b3576105b261045a565b5b5f82013567ffffffffffffffff8111156105d0576105cf61045e565b5b6105dc84828501610571565b91505092915050565b5f819050919050565b6105f7816105e5565b8114610601575f5ffd5b50565b5f81359050610612816105ee565b92915050565b5f6020828403121561062d5761062c61045a565b5b5f61063a84828501610604565b91505092915050565b5f81519050919050565b5f82825260208201905092915050565b5f819050602082019050919050565b5f81519050919050565b5f82825260208201905092915050565b8281835e5f83830152505050565b5f61069e8261066c565b6106a88185610676565b93506106b8818560208601610686565b6106c18161046a565b840191505092915050565b5f8115159050919050565b6106e0816106cc565b82525050565b5f604083015f8301518482035f8601526107008282610694565b915050602083015161071560208601826106d7565b508091505092915050565b5f61072b83836106e6565b905092915050565b5f602082019050919050565b5f61074982610643565b610753818561064d565b9350836020820285016107658561065d565b805f5b858110156107a057848403895281516107818582610720565b945061078c83610733565b925060208a01995050600181019050610768565b50829750879550505050505092915050565b5f6020820190508181035f8301526107ca818461073f565b905092915050565b6107db816105e5565b82525050565b5f6020820190506107f45f8301846107d2565b92915050565b7f4e487b71000000000000000000000000000000000000000000000000000000005f52602260045260245ffd5b5f600282049050600182168061083e57607f821691505b602082108103610851576108506107fa565b5b50919050565b5f819050815f5260205f209050919050565b5f6020601f8301049050919050565b5f82821b905092915050565b5f600883026108b37fffffffffffffffffffffffffffffffffffffffffffffffffffffffffffffffff82610878565b6108bd8683610878565b95508019841693508086168417925050509392505050565b5f819050919050565b5f6108f86108f36108ee846105e5565b6108d5565b6105e5565b9050919050565b5f819050919050565b610911836108de565b61092561091d826108ff565b848454610884565b825550505050565b5f5f905090565b61093c61092d565b610947818484610908565b505050565b5b8181101561096a5761095f5f82610934565b60018101905061094d565b5050565b601f8211156109af5761098081610857565b61098984610869565b81016020851015610998578190505b6109ac6109a485610869565b83018261094c565b50505b505050565b5f82821c905092915050565b5f6109cf5f19846008026109b4565b1980831691505092915050565b5f6109e783836109c0565b9150826002028217905092915050565b610a008261066c565b67ffffffffffffffff811115610a1957610a1861047a565b5b610a238254610827565b610a2e82828561096e565b5f60209050601f831160018114610a5f575f8415610a4d578287015190505b610a5785826109dc565b865550610abe565b601f198416610a6d86610857565b5f5b82811015610a9457848901518255600182019150602085019450602081019050610a6f565b86831015610ab15784890151610aad601f8916826109c0565b8355505b6001600288020188555050505b505050505050565b5f82825260208201905092915050565b7f496e76616c696420626f6f6b20696e64657800000000000000000000000000005f82015250565b5f610b0a601283610ac6565b9150610b1582610ad6565b602082019050919050565b5f6020820190508181035f830152610b3781610afe565b9050919050565b7f4e487b71000000000000000000000000000000000000000000000000000000005f52603260045260245ffd5b7f426f6f6b206e6f7420617661696c61626c6500000000000000000000000000005f82015250565b5f610b9f601283610ac6565b9150610baa82610b6b565b602082019050919050565b5f6020820190508181035f830152610bcc81610b93565b9050919050565b7f426f6f6b20697320616c726561647920617661696c61626c65000000000000005f82015250565b5f610c07601983610ac6565b9150610c1282610bd3565b602082019050919050565b5f6020820190508181035f830152610c3481610bfb565b905091905056fea26469706673582212207d79a550af0ae7ac2a5ddbdcae1663a4e4ff1079ac16c7c2a985b2c7f43a365664736f6c634300081e0033",
					"opcodes": "PUSH1 0x80 PUSH1 0x40 MSTORE CALLVALUE DUP1 ISZERO PUSH1 0xE JUMPI PUSH0 PUSH0 REVERT JUMPDEST POP PUSH2 0xC71 DUP1 PUSH2 0x1C PUSH0 CODECOPY PUSH0 RETURN INVALID PUSH1 0x80 PUSH1 0x40 MSTORE CALLVALUE DUP1 ISZERO PUSH2 0xF JUMPI PUSH0 PUSH0 REVERT JUMPDEST POP PUSH1 0x4 CALLDATASIZE LT PUSH2 0x55 JUMPI PUSH0 CALLDATALOAD PUSH1 0xE0 SHR DUP1 PUSH4 0x3BC5F48A EQ PUSH2 0x59 JUMPI DUP1 PUSH4 0x7E490A9E EQ PUSH2 0x75 JUMPI DUP1 PUSH4 0x9F349789 EQ PUSH2 0x91 JUMPI DUP1 PUSH4 0xCA5140C9 EQ PUSH2 0xAF JUMPI DUP1 PUSH4 0xD73E0C89 EQ PUSH2 0xCB JUMPI JUMPDEST PUSH0 PUSH0 REVERT JUMPDEST PUSH2 0x73 PUSH1 0x4 DUP1 CALLDATASIZE SUB DUP2 ADD SWAP1 PUSH2 0x6E SWAP2 SWAP1 PUSH2 0x59E JUMP JUMPDEST PUSH2 0xE9 JUMP JUMPDEST STOP JUMPDEST PUSH2 0x8F PUSH1 0x4 DUP1 CALLDATASIZE SUB DUP2 ADD SWAP1 PUSH2 0x8A SWAP2 SWAP1 PUSH2 0x618 JUMP JUMPDEST PUSH2 0x160 JUMP JUMPDEST STOP JUMPDEST PUSH2 0x99 PUSH2 0x250 JUMP JUMPDEST PUSH1 0x40 MLOAD PUSH2 0xA6 SWAP2 SWAP1 PUSH2 0x7B2 JUMP JUMPDEST PUSH1 0x40 MLOAD DUP1 SWAP2 SUB SWAP1 RETURN JUMPDEST PUSH2 0xC9 PUSH1 0x4 DUP1 CALLDATASIZE SUB DUP2 ADD SWAP1 PUSH2 0xC4 SWAP2 SWAP1 PUSH2 0x618 JUMP JUMPDEST PUSH2 0x354 JUMP JUMPDEST STOP JUMPDEST PUSH2 0xD3 PUSH2 0x446 JUMP JUMPDEST PUSH1 0x40 MLOAD PUSH2 0xE0 SWAP2 SWAP1 PUSH2 0x7E1 JUMP JUMPDEST PUSH1 0x40 MLOAD DUP1 SWAP2 SUB SWAP1 RETURN JUMPDEST PUSH0 PUSH1 0x40 MLOAD DUP1 PUSH1 0x40 ADD PUSH1 0x40 MSTORE DUP1 DUP4 DUP2 MSTORE PUSH1 0x20 ADD PUSH1 0x1 ISZERO ISZERO DUP2 MSTORE POP SWAP1 DUP1 PUSH1 0x1 DUP2 SLOAD ADD DUP1 DUP3 SSTORE DUP1 SWAP2 POP POP PUSH1 0x1 SWAP1 SUB SWAP1 PUSH0 MSTORE PUSH1 0x20 PUSH0 KECCAK256 SWAP1 PUSH1 0x2 MUL ADD PUSH0 SWAP1 SWAP2 SWAP1 SWAP2 SWAP1 SWAP2 POP PUSH0 DUP3 ADD MLOAD DUP2 PUSH0 ADD SWAP1 DUP2 PUSH2 0x13B SWAP2 SWAP1 PUSH2 0x9F7 JUMP JUMPDEST POP PUSH1 0x20 DUP3 ADD MLOAD DUP2 PUSH1 0x1 ADD PUSH0 PUSH2 0x100 EXP DUP2 SLOAD DUP2 PUSH1 0xFF MUL NOT AND SWAP1 DUP4 ISZERO ISZERO MUL OR SWAP1 SSTORE POP POP POP POP JUMP JUMPDEST PUSH0 DUP1 SLOAD SWAP1 POP DUP2 LT PUSH2 0x1A6 JUMPI PUSH1 0x40 MLOAD PUSH32 0x8C379A000000000000000000000000000000000000000000000000000000000 DUP2 MSTORE PUSH1 0x4 ADD PUSH2 0x19D SWAP1 PUSH2 0xB20 JUMP JUMPDEST PUSH1 0x40 MLOAD DUP1 SWAP2 SUB SWAP1 REVERT JUMPDEST PUSH0 DUP2 DUP2 SLOAD DUP2 LT PUSH2 0x1B9 JUMPI PUSH2 0x1B8 PUSH2 0xB3E JUMP JUMPDEST JUMPDEST SWAP1 PUSH0 MSTORE PUSH1 0x20 PUSH0 KECCAK256 SWAP1 PUSH1 0x2 MUL ADD PUSH1 0x1 ADD PUSH0 SWAP1 SLOAD SWAP1 PUSH2 0x100 EXP SWAP1 DIV PUSH1 0xFF AND PUSH2 0x214 JUMPI PUSH1 0x40 MLOAD PUSH32 0x8C379A000000000000000000000000000000000000000000000000000000000 DUP2 MSTORE PUSH1 0x4 ADD PUSH2 0x20B SWAP1 PUSH2 0xBB5 JUMP JUMPDEST PUSH1 0x40 MLOAD DUP1 SWAP2 SUB SWAP1 REVERT JUMPDEST PUSH0 PUSH0 DUP3 DUP2 SLOAD DUP2 LT PUSH2 0x228 JUMPI PUSH2 0x227 PUSH2 0xB3E JUMP JUMPDEST JUMPDEST SWAP1 PUSH0 MSTORE PUSH1 0x20 PUSH0 KECCAK256 SWAP1 PUSH1 0x2 MUL ADD PUSH1 0x1 ADD PUSH0 PUSH2 0x100 EXP DUP2 SLOAD DUP2 PUSH1 0xFF MUL NOT AND SWAP1 DUP4 ISZERO ISZERO MUL OR SWAP1 SSTORE POP POP JUMP JUMPDEST PUSH1 0x60 PUSH0 DUP1 SLOAD DUP1 PUSH1 0x20 MUL PUSH1 0x20 ADD PUSH1 0x40 MLOAD SWAP1 DUP2 ADD PUSH1 0x40 MSTORE DUP1 SWAP3 SWAP2 SWAP1 DUP2 DUP2 MSTORE PUSH1 0x20 ADD PUSH0 SWAP1 JUMPDEST DUP3 DUP3 LT ISZERO PUSH2 0x34B JUMPI DUP4 DUP3 SWAP1 PUSH0 MSTORE PUSH1 0x20 PUSH0 KECCAK256 SWAP1 PUSH1 0x2 MUL ADD PUSH1 0x40 MLOAD DUP1 PUSH1 0x40 ADD PUSH1 0x40 MSTORE SWAP1 DUP2 PUSH0 DUP3 ADD DUP1 SLOAD PUSH2 0x2A2 SWAP1 PUSH2 0x827 JUMP JUMPDEST DUP1 PUSH1 0x1F ADD PUSH1 0x20 DUP1 SWAP2 DIV MUL PUSH1 0x20 ADD PUSH1 0x40 MLOAD SWAP1 DUP2 ADD PUSH1 0x40 MSTORE DUP1 SWAP3 SWAP2 SWAP1 DUP2 DUP2 MSTORE PUSH1 0x20 ADD DUP3 DUP1 SLOAD PUSH2 0x2CE SWAP1 PUSH2 0x827 JUMP JUMPDEST DUP1 ISZERO PUSH2 0x319 JUMPI DUP1 PUSH1 0x1F LT PUSH2 0x2F0 JUMPI PUSH2 0x100 DUP1 DUP4 SLOAD DIV MUL DUP4 MSTORE SWAP2 PUSH1 0x20 ADD SWAP2 PUSH2 0x319 JUMP JUMPDEST DUP3 ADD SWAP2 SWAP1 PUSH0 MSTORE PUSH1 0x20 PUSH0 KECCAK256 SWAP1 JUMPDEST DUP2 SLOAD DUP2 MSTORE SWAP1 PUSH1 0x1 ADD SWAP1 PUSH1 0x20 ADD DUP1 DUP4 GT PUSH2 0x2FC JUMPI DUP3 SWAP1 SUB PUSH1 0x1F AND DUP3 ADD SWAP2 JUMPDEST POP POP POP POP POP DUP2 MSTORE PUSH1 0x20 ADD PUSH1 0x1 DUP3 ADD PUSH0 SWAP1 SLOAD SWAP1 PUSH2 0x100 EXP SWAP1 DIV PUSH1 0xFF AND ISZERO ISZERO ISZERO ISZERO DUP2 MSTORE POP POP DUP2 MSTORE PUSH1 0x20 ADD SWAP1 PUSH1 0x1 ADD SWAP1 PUSH2 0x272 JUMP JUMPDEST POP POP POP POP SWAP1 POP SWAP1 JUMP JUMPDEST PUSH0 DUP1 SLOAD SWAP1 POP DUP2 LT PUSH2 0x39A JUMPI PUSH1 0x40 MLOAD PUSH32 0x8C379A000000000000000000000000000000000000000000000000000000000 DUP2 MSTORE PUSH1 0x4 ADD PUSH2 0x391 SWAP1 PUSH2 0xB20 JUMP JUMPDEST PUSH1 0x40 MLOAD DUP1 SWAP2 SUB SWAP1 REVERT JUMPDEST PUSH0 DUP2 DUP2 SLOAD DUP2 LT PUSH2 0x3AD JUMPI PUSH2 0x3AC PUSH2 0xB3E JUMP JUMPDEST JUMPDEST SWAP1 PUSH0 MSTORE PUSH1 0x20 PUSH0 KECCAK256 SWAP1 PUSH1 0x2 MUL ADD PUSH1 0x1 ADD PUSH0 SWAP1 SLOAD SWAP1 PUSH2 0x100 EXP SWAP1 DIV PUSH1 0xFF AND ISZERO PUSH2 0x409 JUMPI PUSH1 0x40 MLOAD PUSH32 0x8C379A000000000000000000000000000000000000000000000000000000000 DUP2 MSTORE PUSH1 0x4 ADD PUSH2 0x400 SWAP1 PUSH2 0xC1D JUMP JUMPDEST PUSH1 0x40 MLOAD DUP1 SWAP2 SUB SWAP1 REVERT JUMPDEST PUSH1 0x1 PUSH0 DUP3 DUP2 SLOAD DUP2 LT PUSH2 0x41E JUMPI PUSH2 0x41D PUSH2 0xB3E JUMP JUMPDEST JUMPDEST SWAP1 PUSH0 MSTORE PUSH1 0x20 PUSH0 KECCAK256 SWAP1 PUSH1 0x2 MUL ADD PUSH1 0x1 ADD PUSH0 PUSH2 0x100 EXP DUP2 SLOAD DUP2 PUSH1 0xFF MUL NOT AND SWAP1 DUP4 ISZERO ISZERO MUL OR SWAP1 SSTORE POP POP JUMP JUMPDEST PUSH0 PUSH0 DUP1 SLOAD SWAP1 POP SWAP1 POP SWAP1 JUMP JUMPDEST PUSH0 PUSH1 0x40 MLOAD SWAP1 POP SWAP1 JUMP JUMPDEST PUSH0 PUSH0 REVERT JUMPDEST PUSH0 PUSH0 REVERT JUMPDEST PUSH0 PUSH0 REVERT JUMPDEST PUSH0 PUSH0 REVERT JUMPDEST PUSH0 PUSH1 0x1F NOT PUSH1 0x1F DUP4 ADD AND SWAP1 POP SWAP2 SWAP1 POP JUMP JUMPDEST PUSH32 0x4E487B7100000000000000000000000000000000000000000000000000000000 PUSH0 MSTORE PUSH1 0x41 PUSH1 0x4 MSTORE PUSH1 0x24 PUSH0 REVERT JUMPDEST PUSH2 0x4B0 DUP3 PUSH2 0x46A JUMP JUMPDEST DUP2 ADD DUP2 DUP2 LT PUSH8 0xFFFFFFFFFFFFFFFF DUP3 GT OR ISZERO PUSH2 0x4CF JUMPI PUSH2 0x4CE PUSH2 0x47A JUMP JUMPDEST JUMPDEST DUP1 PUSH1 0x40 MSTORE POP POP POP JUMP JUMPDEST PUSH0 PUSH2 0x4E1 PUSH2 0x451 JUMP JUMPDEST SWAP1 POP PUSH2 0x4ED DUP3 DUP3 PUSH2 0x4A7 JUMP JUMPDEST SWAP2 SWAP1 POP JUMP JUMPDEST PUSH0 PUSH8 0xFFFFFFFFFFFFFFFF DUP3 GT ISZERO PUSH2 0x50C JUMPI PUSH2 0x50B PUSH2 0x47A JUMP JUMPDEST JUMPDEST PUSH2 0x515 DUP3 PUSH2 0x46A JUMP JUMPDEST SWAP1 POP PUSH1 0x20 DUP2 ADD SWAP1 POP SWAP2 SWAP1 POP JUMP JUMPDEST DUP3 DUP2 DUP4 CALLDATACOPY PUSH0 DUP4 DUP4 ADD MSTORE POP POP POP JUMP JUMPDEST PUSH0 PUSH2 0x542 PUSH2 0x53D DUP5 PUSH2 0x4F2 JUMP JUMPDEST PUSH2 0x4D8 JUMP JUMPDEST SWAP1 POP DUP3 DUP2 MSTORE PUSH1 0x20 DUP2 ADD DUP5 DUP5 DUP5 ADD GT ISZERO PUSH2 0x55E JUMPI PUSH2 0x55D PUSH2 0x466 JUMP JUMPDEST JUMPDEST PUSH2 0x569 DUP5 DUP3 DUP6 PUSH2 0x522 JUMP JUMPDEST POP SWAP4 SWAP3 POP POP POP JUMP JUMPDEST PUSH0 DUP3 PUSH1 0x1F DUP4 ADD SLT PUSH2 0x585 JUMPI PUSH2 0x584 PUSH2 0x462 JUMP JUMPDEST JUMPDEST DUP2 CALLDATALOAD PUSH2 0x595 DUP5 DUP3 PUSH1 0x20 DUP7 ADD PUSH2 0x530 JUMP JUMPDEST SWAP2 POP POP SWAP3 SWAP2 POP POP JUMP JUMPDEST PUSH0 PUSH1 0x20 DUP3 DUP5 SUB SLT ISZERO PUSH2 0x5B3 JUMPI PUSH2 0x5B2 PUSH2 0x45A JUMP JUMPDEST JUMPDEST PUSH0 DUP3 ADD CALLDATALOAD PUSH8 0xFFFFFFFFFFFFFFFF DUP2 GT ISZERO PUSH2 0x5D0 JUMPI PUSH2 0x5CF PUSH2 0x45E JUMP JUMPDEST JUMPDEST PUSH2 0x5DC DUP5 DUP3 DUP6 ADD PUSH2 0x571 JUMP JUMPDEST SWAP2 POP POP SWAP3 SWAP2 POP POP JUMP JUMPDEST PUSH0 DUP2 SWAP1 POP SWAP2 SWAP1 POP JUMP JUMPDEST PUSH2 0x5F7 DUP2 PUSH2 0x5E5 JUMP JUMPDEST DUP2 EQ PUSH2 0x601 JUMPI PUSH0 PUSH0 REVERT JUMPDEST POP JUMP JUMPDEST PUSH0 DUP2 CALLDATALOAD SWAP1 POP PUSH2 0x612 DUP2 PUSH2 0x5EE JUMP JUMPDEST SWAP3 SWAP2 POP POP JUMP JUMPDEST PUSH0 PUSH1 0x20 DUP3 DUP5 SUB SLT ISZERO PUSH2 0x62D JUMPI PUSH2 0x62C PUSH2 0x45A JUMP JUMPDEST JUMPDEST PUSH0 PUSH2 0x63A DUP5 DUP3 DUP6 ADD PUSH2 0x604 JUMP JUMPDEST SWAP2 POP POP SWAP3 SWAP2 POP POP JUMP JUMPDEST PUSH0 DUP2 MLOAD SWAP1 POP SWAP2 SWAP1 POP JUMP JUMPDEST PUSH0 DUP3 DUP3 MSTORE PUSH1 0x20 DUP3 ADD SWAP1 POP SWAP3 SWAP2 POP POP JUMP JUMPDEST PUSH0 DUP2 SWAP1 POP PUSH1 0x20 DUP3 ADD SWAP1 POP SWAP2 SWAP1 POP JUMP JUMPDEST PUSH0 DUP2 MLOAD SWAP1 POP SWAP2 SWAP1 POP JUMP JUMPDEST PUSH0 DUP3 DUP3 MSTORE PUSH1 0x20 DUP3 ADD SWAP1 POP SWAP3 SWAP2 POP POP JUMP JUMPDEST DUP3 DUP2 DUP4 MCOPY PUSH0 DUP4 DUP4 ADD MSTORE POP POP POP JUMP JUMPDEST PUSH0 PUSH2 0x69E DUP3 PUSH2 0x66C JUMP JUMPDEST PUSH2 0x6A8 DUP2 DUP6 PUSH2 0x676 JUMP JUMPDEST SWAP4 POP PUSH2 0x6B8 DUP2 DUP6 PUSH1 0x20 DUP7 ADD PUSH2 0x686 JUMP JUMPDEST PUSH2 0x6C1 DUP2 PUSH2 0x46A JUMP JUMPDEST DUP5 ADD SWAP2 POP POP SWAP3 SWAP2 POP POP JUMP JUMPDEST PUSH0 DUP2 ISZERO ISZERO SWAP1 POP SWAP2 SWAP1 POP JUMP JUMPDEST PUSH2 0x6E0 DUP2 PUSH2 0x6CC JUMP JUMPDEST DUP3 MSTORE POP POP JUMP JUMPDEST PUSH0 PUSH1 0x40 DUP4 ADD PUSH0 DUP4 ADD MLOAD DUP5 DUP3 SUB PUSH0 DUP7 ADD MSTORE PUSH2 0x700 DUP3 DUP3 PUSH2 0x694 JUMP JUMPDEST SWAP2 POP POP PUSH1 0x20 DUP4 ADD MLOAD PUSH2 0x715 PUSH1 0x20 DUP7 ADD DUP3 PUSH2 0x6D7 JUMP JUMPDEST POP DUP1 SWAP2 POP POP SWAP3 SWAP2 POP POP JUMP JUMPDEST PUSH0 PUSH2 0x72B DUP4 DUP4 PUSH2 0x6E6 JUMP JUMPDEST SWAP1 POP SWAP3 SWAP2 POP POP JUMP JUMPDEST PUSH0 PUSH1 0x20 DUP3 ADD SWAP1 POP SWAP2 SWAP1 POP JUMP JUMPDEST PUSH0 PUSH2 0x749 DUP3 PUSH2 0x643 JUMP JUMPDEST PUSH2 0x753 DUP2 DUP6 PUSH2 0x64D JUMP JUMPDEST SWAP4 POP DUP4 PUSH1 0x20 DUP3 MUL DUP6 ADD PUSH2 0x765 DUP6 PUSH2 0x65D JUMP JUMPDEST DUP1 PUSH0 JUMPDEST DUP6 DUP2 LT ISZERO PUSH2 0x7A0 JUMPI DUP5 DUP5 SUB DUP10 MSTORE DUP2 MLOAD PUSH2 0x781 DUP6 DUP3 PUSH2 0x720 JUMP JUMPDEST SWAP5 POP PUSH2 0x78C DUP4 PUSH2 0x733 JUMP JUMPDEST SWAP3 POP PUSH1 0x20 DUP11 ADD SWAP10 POP POP PUSH1 0x1 DUP2 ADD SWAP1 POP PUSH2 0x768 JUMP JUMPDEST POP DUP3 SWAP8 POP DUP8 SWAP6 POP POP POP POP POP POP SWAP3 SWAP2 POP POP JUMP JUMPDEST PUSH0 PUSH1 0x20 DUP3 ADD SWAP1 POP DUP2 DUP2 SUB PUSH0 DUP4 ADD MSTORE PUSH2 0x7CA DUP2 DUP5 PUSH2 0x73F JUMP JUMPDEST SWAP1 POP SWAP3 SWAP2 POP POP JUMP JUMPDEST PUSH2 0x7DB DUP2 PUSH2 0x5E5 JUMP JUMPDEST DUP3 MSTORE POP POP JUMP JUMPDEST PUSH0 PUSH1 0x20 DUP3 ADD SWAP1 POP PUSH2 0x7F4 PUSH0 DUP4 ADD DUP5 PUSH2 0x7D2 JUMP JUMPDEST SWAP3 SWAP2 POP POP JUMP JUMPDEST PUSH32 0x4E487B7100000000000000000000000000000000000000000000000000000000 PUSH0 MSTORE PUSH1 0x22 PUSH1 0x4 MSTORE PUSH1 0x24 PUSH0 REVERT JUMPDEST PUSH0 PUSH1 0x2 DUP3 DIV SWAP1 POP PUSH1 0x1 DUP3 AND DUP1 PUSH2 0x83E JUMPI PUSH1 0x7F DUP3 AND SWAP2 POP JUMPDEST PUSH1 0x20 DUP3 LT DUP2 SUB PUSH2 0x851 JUMPI PUSH2 0x850 PUSH2 0x7FA JUMP JUMPDEST JUMPDEST POP SWAP2 SWAP1 POP JUMP JUMPDEST PUSH0 DUP2 SWAP1 POP DUP2 PUSH0 MSTORE PUSH1 0x20 PUSH0 KECCAK256 SWAP1 POP SWAP2 SWAP1 POP JUMP JUMPDEST PUSH0 PUSH1 0x20 PUSH1 0x1F DUP4 ADD DIV SWAP1 POP SWAP2 SWAP1 POP JUMP JUMPDEST PUSH0 DUP3 DUP3 SHL SWAP1 POP SWAP3 SWAP2 POP POP JUMP JUMPDEST PUSH0 PUSH1 0x8 DUP4 MUL PUSH2 0x8B3 PUSH32 0xFFFFFFFFFFFFFFFFFFFFFFFFFFFFFFFFFFFFFFFFFFFFFFFFFFFFFFFFFFFFFFFF DUP3 PUSH2 0x878 JUMP JUMPDEST PUSH2 0x8BD DUP7 DUP4 PUSH2 0x878 JUMP JUMPDEST SWAP6 POP DUP1 NOT DUP5 AND SWAP4 POP DUP1 DUP7 AND DUP5 OR SWAP3 POP POP POP SWAP4 SWAP3 POP POP POP JUMP JUMPDEST PUSH0 DUP2 SWAP1 POP SWAP2 SWAP1 POP JUMP JUMPDEST PUSH0 PUSH2 0x8F8 PUSH2 0x8F3 PUSH2 0x8EE DUP5 PUSH2 0x5E5 JUMP JUMPDEST PUSH2 0x8D5 JUMP JUMPDEST PUSH2 0x5E5 JUMP JUMPDEST SWAP1 POP SWAP2 SWAP1 POP JUMP JUMPDEST PUSH0 DUP2 SWAP1 POP SWAP2 SWAP1 POP JUMP JUMPDEST PUSH2 0x911 DUP4 PUSH2 0x8DE JUMP JUMPDEST PUSH2 0x925 PUSH2 0x91D DUP3 PUSH2 0x8FF JUMP JUMPDEST DUP5 DUP5 SLOAD PUSH2 0x884 JUMP JUMPDEST DUP3 SSTORE POP POP POP POP JUMP JUMPDEST PUSH0 PUSH0 SWAP1 POP SWAP1 JUMP JUMPDEST PUSH2 0x93C PUSH2 0x92D JUMP JUMPDEST PUSH2 0x947 DUP2 DUP5 DUP5 PUSH2 0x908 JUMP JUMPDEST POP POP POP JUMP JUMPDEST JUMPDEST DUP2 DUP2 LT ISZERO PUSH2 0x96A JUMPI PUSH2 0x95F PUSH0 DUP3 PUSH2 0x934 JUMP JUMPDEST PUSH1 0x1 DUP2 ADD SWAP1 POP PUSH2 0x94D JUMP JUMPDEST POP POP JUMP JUMPDEST PUSH1 0x1F DUP3 GT ISZERO PUSH2 0x9AF JUMPI PUSH2 0x980 DUP2 PUSH2 0x857 JUMP JUMPDEST PUSH2 0x989 DUP5 PUSH2 0x869 JUMP JUMPDEST DUP2 ADD PUSH1 0x20 DUP6 LT ISZERO PUSH2 0x998 JUMPI DUP2 SWAP1 POP JUMPDEST PUSH2 0x9AC PUSH2 0x9A4 DUP6 PUSH2 0x869 JUMP JUMPDEST DUP4 ADD DUP3 PUSH2 0x94C JUMP JUMPDEST POP POP JUMPDEST POP POP POP JUMP JUMPDEST PUSH0 DUP3 DUP3 SHR SWAP1 POP SWAP3 SWAP2 POP POP JUMP JUMPDEST PUSH0 PUSH2 0x9CF PUSH0 NOT DUP5 PUSH1 0x8 MUL PUSH2 0x9B4 JUMP JUMPDEST NOT DUP1 DUP4 AND SWAP2 POP POP SWAP3 SWAP2 POP POP JUMP JUMPDEST PUSH0 PUSH2 0x9E7 DUP4 DUP4 PUSH2 0x9C0 JUMP JUMPDEST SWAP2 POP DUP3 PUSH1 0x2 MUL DUP3 OR SWAP1 POP SWAP3 SWAP2 POP POP JUMP JUMPDEST PUSH2 0xA00 DUP3 PUSH2 0x66C JUMP JUMPDEST PUSH8 0xFFFFFFFFFFFFFFFF DUP2 GT ISZERO PUSH2 0xA19 JUMPI PUSH2 0xA18 PUSH2 0x47A JUMP JUMPDEST JUMPDEST PUSH2 0xA23 DUP3 SLOAD PUSH2 0x827 JUMP JUMPDEST PUSH2 0xA2E DUP3 DUP3 DUP6 PUSH2 0x96E JUMP JUMPDEST PUSH0 PUSH1 0x20 SWAP1 POP PUSH1 0x1F DUP4 GT PUSH1 0x1 DUP2 EQ PUSH2 0xA5F JUMPI PUSH0 DUP5 ISZERO PUSH2 0xA4D JUMPI DUP3 DUP8 ADD MLOAD SWAP1 POP JUMPDEST PUSH2 0xA57 DUP6 DUP3 PUSH2 0x9DC JUMP JUMPDEST DUP7 SSTORE POP PUSH2 0xABE JUMP JUMPDEST PUSH1 0x1F NOT DUP5 AND PUSH2 0xA6D DUP7 PUSH2 0x857 JUMP JUMPDEST PUSH0 JUMPDEST DUP3 DUP2 LT ISZERO PUSH2 0xA94 JUMPI DUP5 DUP10 ADD MLOAD DUP3 SSTORE PUSH1 0x1 DUP3 ADD SWAP2 POP PUSH1 0x20 DUP6 ADD SWAP5 POP PUSH1 0x20 DUP2 ADD SWAP1 POP PUSH2 0xA6F JUMP JUMPDEST DUP7 DUP4 LT ISZERO PUSH2 0xAB1 JUMPI DUP5 DUP10 ADD MLOAD PUSH2 0xAAD PUSH1 0x1F DUP10 AND DUP3 PUSH2 0x9C0 JUMP JUMPDEST DUP4 SSTORE POP JUMPDEST PUSH1 0x1 PUSH1 0x2 DUP9 MUL ADD DUP9 SSTORE POP POP POP JUMPDEST POP POP POP POP POP POP JUMP JUMPDEST PUSH0 DUP3 DUP3 MSTORE PUSH1 0x20 DUP3 ADD SWAP1 POP SWAP3 SWAP2 POP POP JUMP JUMPDEST PUSH32 0x496E76616C696420626F6F6B20696E6465780000000000000000000000000000 PUSH0 DUP3 ADD MSTORE POP JUMP JUMPDEST PUSH0 PUSH2 0xB0A PUSH1 0x12 DUP4 PUSH2 0xAC6 JUMP JUMPDEST SWAP2 POP PUSH2 0xB15 DUP3 PUSH2 0xAD6 JUMP JUMPDEST PUSH1 0x20 DUP3 ADD SWAP1 POP SWAP2 SWAP1 POP JUMP JUMPDEST PUSH0 PUSH1 0x20 DUP3 ADD SWAP1 POP DUP2 DUP2 SUB PUSH0 DUP4 ADD MSTORE PUSH2 0xB37 DUP2 PUSH2 0xAFE JUMP JUMPDEST SWAP1 POP SWAP2 SWAP1 POP JUMP JUMPDEST PUSH32 0x4E487B7100000000000000000000000000000000000000000000000000000000 PUSH0 MSTORE PUSH1 0x32 PUSH1 0x4 MSTORE PUSH1 0x24 PUSH0 REVERT JUMPDEST PUSH32 0x426F6F6B206E6F7420617661696C61626C650000000000000000000000000000 PUSH0 DUP3 ADD MSTORE POP JUMP JUMPDEST PUSH0 PUSH2 0xB9F PUSH1 0x12 DUP4 PUSH2 0xAC6 JUMP JUMPDEST SWAP2 POP PUSH2 0xBAA DUP3 PUSH2 0xB6B JUMP JUMPDEST PUSH1 0x20 DUP3 ADD SWAP1 POP SWAP2 SWAP1 POP JUMP JUMPDEST PUSH0 PUSH1 0x20 DUP3 ADD SWAP1 POP DUP2 DUP2 SUB PUSH0 DUP4 ADD MSTORE PUSH2 0xBCC DUP2 PUSH2 0xB93 JUMP JUMPDEST SWAP1 POP SWAP2 SWAP1 POP JUMP JUMPDEST PUSH32 0x426F6F6B20697320616C726561647920617661696C61626C6500000000000000 PUSH0 DUP3 ADD MSTORE POP JUMP JUMPDEST PUSH0 PUSH2 0xC07 PUSH1 0x19 DUP4 PUSH2 0xAC6 JUMP JUMPDEST SWAP2 POP PUSH2 0xC12 DUP3 PUSH2 0xBD3 JUMP JUMPDEST PUSH1 0x20 DUP3 ADD SWAP1 POP SWAP2 SWAP1 POP JUMP JUMPDEST PUSH0 PUSH1 0x20 DUP3 ADD SWAP1 POP DUP2 DUP2 SUB PUSH0 DUP4 ADD MSTORE PUSH2 0xC34 DUP2 PUSH2 0xBFB JUMP JUMPDEST SWAP1 POP SWAP2 SWAP1 POP JUMP INVALID LOG2 PUSH5 0x6970667358 0x22 SLT KECCAK256 PUSH30 0x79A550AF0AE7AC2A5DDBDCAE1663A4E4FF1079AC16C7C2A985B2C7F43A36 JUMP PUSH5 0x736F6C6343 STOP ADDMOD 0x1E STOP CALLER "
				},
				"gasEstimates": {
					"creation": {
						"codeDepositCost": "637000",
						"executionCost": "668",
						"totalCost": "637668"
					},
					"external": {
						"addBook(string)": "infinite",
						"borrowBook(uint256)": "33336",
						"getBookCount()": "2505",
						"getBooks()": "infinite",
						"returnBook(uint256)": "33384"
					}
				},
				"methodIdentifiers": {
					"addBook(string)": "3bc5f48a",
					"borrowBook(uint256)": "7e490a9e",
					"getBookCount()": "d73e0c89",
					"getBooks()": "9f349789",
					"returnBook(uint256)": "ca5140c9"
				}
			},
			"storageLayout": {
				"storage": [
					{
						"astId": 10,
						"contract": "contracts/Library.sol:LibrarySystem",
						"label": "books",
						"offset": 0,
						"slot": "0",
						"type": "t_array(t_struct(Book)6_storage)dyn_storage"
					}
				],
				"types": {
					"t_array(t_struct(Book)6_storage)dyn_storage": {
						"base": "t_struct(Book)6_storage",
						"encoding": "dynamic_array",
						"label": "struct LibrarySystem.Book[]",
						"numberOfBytes": "32"
					},
					"t_bool": {
						"encoding": "inplace",
						"label": "bool",
						"numberOfBytes": "1"
					},
					"t_string_storage": {
						"encoding": "bytes",
						"label": "string",
						"numberOfBytes": "32"
					},
					"t_struct(Book)6_storage": {
						"encoding": "inplace",
						"label": "struct LibrarySystem.Book",
						"members": [
							{
								"astId": 3,
								"contract": "contracts/Library.sol:LibrarySystem",
								"label": "title",
								"offset": 0,
								"slot": "0",
								"type": "t_string_storage"
							},
							{
								"astId": 5,
								"contract": "contracts/Library.sol:LibrarySystem",
								"label": "isAvailable",
								"offset": 0,
								"slot": "1",
								"type": "t_bool"
							}
						],
						"numberOfBytes": "64"
					}
				}
			},
			"userdoc": {
				"kind": "user",
				"methods": {
					"addBook(string)": {
						"notice": "Add a new book to the library."
					},
					"borrowBook(uint256)": {
						"notice": "Borrow a book by its index."
					},
					"getBookCount()": {
						"notice": "Get total number of books in the library."
					},
					"getBooks()": {
						"notice": "Get all books in the library."
					},
					"returnBook(uint256)": {
						"notice": "Return a borrowed book."
					}
				},
				"version": 1
			}
		}
	}
}