{
	"contracts/SupplyChain.sol": {
		"SupplyChain": {
			"abi": [
				{
					"anonymous": false,
					"inputs": [
						{
							"indexed": false,
							"internalType": "uint256",
							"name": "id",
							"type": "uint256"
						},
						{
							"indexed": false,
							"internalType": "string",
							"name": "name",
							"type": "string"
						}
					],
					"name": "ItemAdded",
					"type": "event"
				},
				{
					"anonymous": false,
					"inputs": [
						{
							"indexed": false,
							"internalType": "uint256",
							"name": "id",
							"type": "uint256"
						},
						{
							"indexed": false,
							"internalType": "string",
							"name": "status",
							"type": "string"
						}
					],
					"name": "StatusUpdated",
					"type": "event"
				},
				{
					"inputs": [
						{
							"internalType": "string",
							"name": "name",
							"type": "string"
						}
					],
					"name": "addItem",
					"outputs": [],
					"stateMutability": "nonpayable",
					"type": "function"
				},
				{
					"inputs": [
						{
							"internalType": "uint256",
							"name": "id",
							"type": "uint256"
						}
					],
					"name": "getItem",
					"outputs": [
						{
							"internalType": "string",
							"name": "",
							"type": "string"
						},
						{
							"internalType": "string",
							"name": "",
							"type": "string"
						},
						{
							"internalType": "uint256",
							"name": "",
							"type": "uint256"
						}
					],
					"stateMutability": "view",
					"type": "function"
				},
				{
					"inputs": [
						{
							"internalType": "uint256",
							"name": "",
							"type": "uint256"
						}
					],
					"name": "items",
					"outputs": [
						{
							"internalType": "string",
							"name": "name",
							"type": "string"
						},
						{
							"internalType": "string",
							"name": "status",
							"type": "string"
						},
						{
							"internalType": "uint256",
							"name": "updatedAt",
							"type": "uint256"
						}
					],
					"stateMutability": "view",
					"type": "function"
				},
				{
					"inputs": [],
					"name": "nextId",
					"outputs": [
						{
							"internalType": "uint256",
							"name": "",
							"type": "uint256"
						}
					],
					"stateMutability": "view",
					"type": "function"
				},
				{
					"inputs": [
						{
							"internalType": "uint256",
							"name": "id",
							"type": "uint256"
						},
						{
							"internalType": "string",
							"name": "status",
							"type": "string"
						}
					],
					"name": "updateStatus",
					"outputs": [],
					"stateMutability": "nonpayable",
					"type": "function"
				}
			],
			"devdoc": {
				"kind": "dev",
				"methods": {},
				"version": 1
			},
			"evm": {
				"assembly": "    /* \"contracts/SupplyChain.sol\":58:824  contract SupplyChain {... */\n  mstore(0x40, 0x80)\n  callvalue\n  dup1\n  iszero\n  tag_1\n  jumpi\n  revert(0x00, 0x00)\ntag_1:\n  pop\n  dataSize(sub_0)\n  dup1\n  dataOffset(sub_0)\n  0x00\n  codecopy\n  0x00\n  return\nstop\n\nsub_0: assembly {\n        /* \"contracts/SupplyChain.sol\":58:824  contract SupplyChain {... */\n      mstore(0x40, 0x80)\n      callvalue\n      dup1\n      iszero\n      tag_1\n      jumpi\n      revert(0x00, 0x00)\n    tag_1:\n      pop\n      jumpi(tag_2, lt(calldatasize, 0x04))\n      shr(0xe0, calldataload(0x00))\n      dup1\n      0x27e9f294\n      eq\n      tag_3\n      jumpi\n      dup1\n      0x3129e773\n      eq\n      tag_4\n      jumpi\n      dup1\n      0x61b8ce8c\n      eq\n      tag_5\n      jumpi\n      dup1\n      0xbfb231d2\n      eq\n      tag_6\n      jumpi\n      dup1\n      0xd1b34dd8\n      eq\n      tag_7\n      jumpi\n    tag_2:\n      revert(0x00, 0x00)\n        /* \"contracts/SupplyChain.sol\":287:434  function addItem(string memory name) public {... */\n    tag_3:\n      tag_8\n      0x04\n      dup1\n      calldatasize\n      sub\n      dup2\n      add\n      swap1\n      tag_9\n      swap2\n      swap1\n      tag_10\n      jump\t// in\n    tag_9:\n      tag_11\n      jump\t// in\n    tag_8:\n      stop\n        /* \"contracts/SupplyChain.sol\":659:821  function getItem(uint id) public view returns (string memory, string memory,... */\n    tag_4:\n      tag_12\n      0x04\n      dup1\n      calldatasize\n      sub\n      dup2\n      add\n      swap1\n      tag_13\n      swap2\n      swap1\n      tag_14\n      jump\t// in\n    tag_13:\n      tag_15\n      jump\t// in\n    tag_12:\n      mload(0x40)\n      tag_16\n      swap4\n      swap3\n      swap2\n      swap1\n      tag_17\n      jump\t// in\n    tag_16:\n      mload(0x40)\n      dup1\n      swap2\n      sub\n      swap1\n      return\n        /* \"contracts/SupplyChain.sol\":180:198  uint public nextId */\n    tag_5:\n      tag_18\n      tag_19\n      jump\t// in\n    tag_18:\n      mload(0x40)\n      tag_20\n      swap2\n      swap1\n      tag_21\n      jump\t// in\n    tag_20:\n      mload(0x40)\n      dup1\n      swap2\n      sub\n      swap1\n      return\n        /* \"contracts/SupplyChain.sol\":143:177  mapping(uint => Item) public items */\n    tag_6:\n      tag_22\n      0x04\n      dup1\n      calldatasize\n      sub\n      dup2\n      add\n      swap1\n      tag_23\n      swap2\n      swap1\n      tag_14\n      jump\t// in\n    tag_23:\n      tag_24\n      jump\t// in\n    tag_22:\n      mload(0x40)\n      tag_25\n      swap4\n      swap3\n      swap2\n      swap1\n      tag_17\n      jump\t// in\n    tag_25:\n      mload(0x40)\n      dup1\n      swap2\n      sub\n      swap1\n      return\n        /* \"contracts/SupplyChain.sol\":436:657  function updateStatus(uint id, string memory status) public {... */\n    tag_7:\n      tag_26\n      0x04\n      dup1\n      calldatasize\n      sub\n      dup2\n      add\n      swap1\n      tag_27\n      swap2\n      swap1\n      tag_28\n      jump\t// in\n    tag_27:\n      tag_29\n      jump\t// in\n    tag_26:\n      stop\n        /* \"contracts/SupplyChain.sol\":287:434  function addItem(string memory name) public {... */\n    tag_11:\n        /* \"contracts/SupplyChain.sol\":350:388  Item(name, \"Created\", block.timestamp) */\n      mload(0x40)\n      dup1\n      0x60\n      add\n      0x40\n      mstore\n      dup1\n        /* \"contracts/SupplyChain.sol\":355:359  name */\n      dup3\n        /* \"contracts/SupplyChain.sol\":350:388  Item(name, \"Created\", block.timestamp) */\n      dup2\n      mstore\n      0x20\n      add\n      mload(0x40)\n      dup1\n      0x40\n      add\n      0x40\n      mstore\n      dup1\n      0x07\n      dup2\n      mstore\n      0x20\n      add\n      0x4372656174656400000000000000000000000000000000000000000000000000\n      dup2\n      mstore\n      pop\n      dup2\n      mstore\n      0x20\n      add\n        /* \"contracts/SupplyChain.sol\":372:387  block.timestamp */\n      timestamp\n        /* \"contracts/SupplyChain.sol\":350:388  Item(name, \"Created\", block.timestamp) */\n      dup2\n      mstore\n      pop\n        /* \"contracts/SupplyChain.sol\":334:339  items */\n      0x00\n        /* \"contracts/SupplyChain.sol\":334:347  items[nextId] */\n      0x00\n        /* \"contracts/SupplyChain.sol\":340:346  nextId */\n      sload(0x01)\n        /* \"contracts/SupplyChain.sol\":334:347  items[nextId] */\n      dup2\n      mstore\n      0x20\n      add\n      swap1\n      dup2\n      mstore\n      0x20\n      add\n      0x00\n      keccak256\n        /* \"contracts/SupplyChain.sol\":334:388  items[nextId] = Item(name, \"Created\", block.timestamp) */\n      0x00\n      dup3\n      add\n      mload\n      dup2\n      0x00\n      add\n      swap1\n      dup2\n      tag_31\n      swap2\n      swap1\n      tag_32\n      jump\t// in\n    tag_31:\n      pop\n      0x20\n      dup3\n      add\n      mload\n      dup2\n      0x01\n      add\n      swap1\n      dup2\n      tag_33\n      swap2\n      swap1\n      tag_32\n      jump\t// in\n    tag_33:\n      pop\n      0x40\n      dup3\n      add\n      mload\n      dup2\n      0x02\n      add\n      sstore\n      swap1\n      pop\n      pop\n        /* \"contracts/SupplyChain.sol\":396:419  ItemAdded(nextId, name) */\n      0x78d68ba0e8c23b92e7c700d99efed2719520cbd4af845b2c03ae251f9cdf3d52\n        /* \"contracts/SupplyChain.sol\":406:412  nextId */\n      sload(0x01)\n        /* \"contracts/SupplyChain.sol\":414:418  name */\n      dup3\n        /* \"contracts/SupplyChain.sol\":396:419  ItemAdded(nextId, name) */\n      mload(0x40)\n      tag_34\n      swap3\n      swap2\n      swap1\n      tag_35\n      jump\t// in\n    tag_34:\n      mload(0x40)\n      dup1\n      swap2\n      sub\n      swap1\n      log1\n        /* \"contracts/SupplyChain.sol\":422:428  nextId */\n      0x01\n      0x00\n        /* \"contracts/SupplyChain.sol\":422:430  nextId++ */\n      dup2\n      sload\n      dup1\n      swap3\n      swap2\n      swap1\n      tag_36\n      swap1\n      tag_37\n      jump\t// in\n    tag_36:\n      swap2\n      swap1\n      pop\n      sstore\n      pop\n        /* \"contracts/SupplyChain.sol\":287:434  function addItem(string memory name) public {... */\n      pop\n      jump\t// out\n        /* \"contracts/SupplyChain.sol\":659:821  function getItem(uint id) public view returns (string memory, string memory,... */\n    tag_15:\n        /* \"contracts/SupplyChain.sol\":706:719  string memory */\n      0x60\n        /* \"contracts/SupplyChain.sol\":721:734  string memory */\n      dup1\n        /* \"contracts/SupplyChain.sol\":737:741  uint */\n      0x00\n        /* \"contracts/SupplyChain.sol\":746:761  Item storage it */\n      0x00\n        /* \"contracts/SupplyChain.sol\":764:769  items */\n      0x00\n        /* \"contracts/SupplyChain.sol\":764:773  items[id] */\n      0x00\n        /* \"contracts/SupplyChain.sol\":770:772  id */\n      dup7\n        /* \"contracts/SupplyChain.sol\":764:773  items[id] */\n      dup2\n      mstore\n      0x20\n      add\n      swap1\n      dup2\n      mstore\n      0x20\n      add\n      0x00\n      keccak256\n        /* \"contracts/SupplyChain.sol\":746:773  Item storage it = items[id] */\n      swap1\n      pop\n        /* \"contracts/SupplyChain.sol\":784:786  it */\n      dup1\n        /* \"contracts/SupplyChain.sol\":784:791  it.name */\n      0x00\n      add\n        /* \"contracts/SupplyChain.sol\":793:795  it */\n      dup2\n        /* \"contracts/SupplyChain.sol\":793:802  it.status */\n      0x01\n      add\n        /* \"contracts/SupplyChain.sol\":804:806  it */\n      dup3\n        /* \"contracts/SupplyChain.sol\":804:816  it.updatedAt */\n      0x02\n      add\n      sload\n        /* \"contracts/SupplyChain.sol\":776:817  return (it.name, it.status, it.updatedAt) */\n      dup3\n      dup1\n      sload\n      tag_39\n      swap1\n      tag_40\n      jump\t// in\n    tag_39:\n      dup1\n      0x1f\n      add\n      0x20\n      dup1\n      swap2\n      div\n      mul\n      0x20\n      add\n      mload(0x40)\n      swap1\n      dup2\n      add\n      0x40\n      mstore\n      dup1\n      swap3\n      swap2\n      swap1\n      dup2\n      dup2\n      mstore\n      0x20\n      add\n      dup3\n      dup1\n      sload\n      tag_41\n      swap1\n      tag_40\n      jump\t// in\n    tag_41:\n      dup1\n      iszero\n      tag_42\n      jumpi\n      dup1\n      0x1f\n      lt\n      tag_43\n      jumpi\n      0x0100\n      dup1\n      dup4\n      sload\n      div\n      mul\n      dup4\n      mstore\n      swap2\n      0x20\n      add\n      swap2\n      jump(tag_42)\n    tag_43:\n      dup3\n      add\n      swap2\n      swap1\n      0x00\n      mstore\n      keccak256(0x00, 0x20)\n      swap1\n    tag_44:\n      dup2\n      sload\n      dup2\n      mstore\n      swap1\n      0x01\n      add\n      swap1\n      0x20\n      add\n      dup1\n      dup4\n      gt\n      tag_44\n      jumpi\n      dup3\n      swap1\n      sub\n      0x1f\n      and\n      dup3\n      add\n      swap2\n    tag_42:\n      pop\n      pop\n      pop\n      pop\n      pop\n      swap3\n      pop\n      dup2\n      dup1\n      sload\n      tag_45\n      swap1\n      tag_40\n      jump\t// in\n    tag_45:\n      dup1\n      0x1f\n      add\n      0x20\n      dup1\n      swap2\n      div\n      mul\n      0x20\n      add\n      mload(0x40)\n      swap1\n      dup2\n      add\n      0x40\n      mstore\n      dup1\n      swap3\n      swap2\n      swap1\n      dup2\n      dup2\n      mstore\n      0x20\n      add\n      dup3\n      dup1\n      sload\n      tag_46\n      swap1\n      tag_40\n      jump\t// in\n    tag_46:\n      dup1\n      iszero\n      tag_47\n      jumpi\n      dup1\n      0x1f\n      lt\n      tag_48\n      jumpi\n      0x0100\n      dup1\n      dup4\n      sload\n      div\n      mul\n      dup4\n      mstore\n      swap2\n      0x20\n      add\n      swap2\n      jump(tag_47)\n    tag_48:\n      dup3\n      add\n      swap2\n      swap1\n      0x00\n      mstore\n      keccak256(0x00, 0x20)\n      swap1\n    tag_49:\n      dup2\n      sload\n      dup2\n      mstore\n      swap1\n      0x01\n      add\n      swap1\n      0x20\n      add\n      dup1\n      dup4\n      gt\n      tag_49\n      jumpi\n      dup3\n      swap1\n      sub\n      0x1f\n      and\n      dup3\n      add\n      swap2\n    tag_47:\n      pop\n      pop\n      pop\n      pop\n      pop\n      swap2\n      pop\n      swap4\n      pop\n      swap4\n      pop\n      swap4\n      pop\n      pop\n        /* \"contracts/SupplyChain.sol\":659:821  function getItem(uint id) public view returns (string memory, string memory,... */\n      swap2\n      swap4\n      swap1\n      swap3\n      pop\n      jump\t// out\n        /* \"contracts/SupplyChain.sol\":180:198  uint public nextId */\n    tag_19:\n      sload(0x01)\n      dup2\n      jump\t// out\n        /* \"contracts/SupplyChain.sol\":143:177  mapping(uint => Item) public items */\n    tag_24:\n      mstore(0x20, 0x00)\n      dup1\n      0x00\n      mstore\n      keccak256(0x00, 0x40)\n      0x00\n      swap2\n      pop\n      swap1\n      pop\n      dup1\n      0x00\n      add\n      dup1\n      sload\n      tag_50\n      swap1\n      tag_40\n      jump\t// in\n    tag_50:\n      dup1\n      0x1f\n      add\n      0x20\n      dup1\n      swap2\n      div\n      mul\n      0x20\n      add\n      mload(0x40)\n      swap1\n      dup2\n      add\n      0x40\n      mstore\n      dup1\n      swap3\n      swap2\n      swap1\n      dup2\n      dup2\n      mstore\n      0x20\n      add\n      dup3\n      dup1\n      sload\n      tag_51\n      swap1\n      tag_40\n      jump\t// in\n    tag_51:\n      dup1\n      iszero\n      tag_52\n      jumpi\n      dup1\n      0x1f\n      lt\n      tag_53\n      jumpi\n      0x0100\n      dup1\n      dup4\n      sload\n      div\n      mul\n      dup4\n      mstore\n      swap2\n      0x20\n      add\n      swap2\n      jump(tag_52)\n    tag_53:\n      dup3\n      add\n      swap2\n      swap1\n      0x00\n      mstore\n      keccak256(0x00, 0x20)\n      swap1\n    tag_54:\n      dup2\n      sload\n      dup2\n      mstore\n      swap1\n      0x01\n      add\n      swap1\n      0x20\n      add\n      dup1\n      dup4\n      gt\n      tag_54\n      jumpi\n      dup3\n      swap1\n      sub\n      0x1f\n      and\n      dup3\n      add\n      swap2\n    tag_52:\n      pop\n      pop\n      pop\n      pop\n      pop\n      swap1\n      dup1\n      0x01\n      add\n      dup1\n      sload\n      tag_55\n      swap1\n      tag_40\n      jump\t// in\n    tag_55:\n      dup1\n      0x1f\n      add\n      0x20\n      dup1\n      swap2\n      div\n      mul\n      0x20\n      add\n      mload(0x40)\n      swap1\n      dup2\n      add\n      0x40\n      mstore\n      dup1\n      swap3\n      swap2\n      swap1\n      dup2\n      dup2\n      mstore\n      0x20\n      add\n      dup3\n      dup1\n      sload\n      tag_56\n      swap1\n      tag_40\n      jump\t// in\n    tag_56:\n      dup1\n      iszero\n      tag_57\n      jumpi\n      dup1\n      0x1f\n      lt\n      tag_58\n      jumpi\n      0x0100\n      dup1\n      dup4\n      sload\n      div\n      mul\n      dup4\n      mstore\n      swap2\n      0x20\n      add\n      swap2\n      jump(tag_57)\n    tag_58:\n      dup3\n      add\n      swap2\n      swap1\n      0x00\n      mstore\n      keccak256(0x00, 0x20)\n      swap1\n    tag_59:\n      dup2\n      sload\n      dup2\n      mstore\n      swap1\n      0x01\n      add\n      swap1\n      0x20\n      add\n      dup1\n      dup4\n      gt\n      tag_59\n      jumpi\n      dup3\n      swap1\n      sub\n      0x1f\n      and\n      dup3\n      add\n      swap2\n    tag_57:\n      pop\n      pop\n      pop\n      pop\n      pop\n      swap1\n      dup1\n      0x02\n      add\n      sload\n      swap1\n      pop\n      dup4\n      jump\t// out\n        /* \"contracts/SupplyChain.sol\":436:657  function updateStatus(uint id, string memory status) public {... */\n    tag_29:\n        /* \"contracts/SupplyChain.sol\":539:540  0 */\n      0x00\n        /* \"contracts/SupplyChain.sol\":513:518  items */\n      0x00\n        /* \"contracts/SupplyChain.sol\":513:522  items[id] */\n      0x00\n        /* \"contracts/SupplyChain.sol\":519:521  id */\n      dup5\n        /* \"contracts/SupplyChain.sol\":513:522  items[id] */\n      dup2\n      mstore\n      0x20\n      add\n      swap1\n      dup2\n      mstore\n      0x20\n      add\n      0x00\n      keccak256\n        /* \"contracts/SupplyChain.sol\":513:527  items[id].name */\n      0x00\n      add\n        /* \"contracts/SupplyChain.sol\":507:535  bytes(items[id].name).length */\n      dup1\n      sload\n      tag_61\n      swap1\n      tag_40\n      jump\t// in\n    tag_61:\n      swap1\n      pop\n        /* \"contracts/SupplyChain.sol\":507:540  bytes(items[id].name).length != 0 */\n      sub\n        /* \"contracts/SupplyChain.sol\":499:552  require(bytes(items[id].name).length != 0, \"no item\") */\n      tag_62\n      jumpi\n      mload(0x40)\n      0x08c379a000000000000000000000000000000000000000000000000000000000\n      dup2\n      mstore\n      0x04\n      add\n      tag_63\n      swap1\n      tag_64\n      jump\t// in\n    tag_63:\n      mload(0x40)\n      dup1\n      swap2\n      sub\n      swap1\n      revert\n    tag_62:\n        /* \"contracts/SupplyChain.sol\":574:580  status */\n      dup1\n        /* \"contracts/SupplyChain.sol\":555:560  items */\n      0x00\n        /* \"contracts/SupplyChain.sol\":555:564  items[id] */\n      0x00\n        /* \"contracts/SupplyChain.sol\":561:563  id */\n      dup5\n        /* \"contracts/SupplyChain.sol\":555:564  items[id] */\n      dup2\n      mstore\n      0x20\n      add\n      swap1\n      dup2\n      mstore\n      0x20\n      add\n      0x00\n      keccak256\n        /* \"contracts/SupplyChain.sol\":555:571  items[id].status */\n      0x01\n      add\n        /* \"contracts/SupplyChain.sol\":555:580  items[id].status = status */\n      swap1\n      dup2\n      tag_65\n      swap2\n      swap1\n      tag_32\n      jump\t// in\n    tag_65:\n      pop\n        /* \"contracts/SupplyChain.sol\":605:620  block.timestamp */\n      timestamp\n        /* \"contracts/SupplyChain.sol\":583:588  items */\n      0x00\n        /* \"contracts/SupplyChain.sol\":583:592  items[id] */\n      0x00\n        /* \"contracts/SupplyChain.sol\":589:591  id */\n      dup5\n        /* \"contracts/SupplyChain.sol\":583:592  items[id] */\n      dup2\n      mstore\n      0x20\n      add\n      swap1\n      dup2\n      mstore\n      0x20\n      add\n      0x00\n      keccak256\n        /* \"contracts/SupplyChain.sol\":583:602  items[id].updatedAt */\n      0x02\n      add\n        /* \"contracts/SupplyChain.sol\":583:620  items[id].updatedAt = block.timestamp */\n      dup2\n      swap1\n      sstore\n      pop\n        /* \"contracts/SupplyChain.sol\":628:653  StatusUpdated(id, status) */\n      0xdc280875b120650ffe3edf5f724f07fd086361a32c2a387fe34b495f5679e77d\n        /* \"contracts/SupplyChain.sol\":642:644  id */\n      dup3\n        /* \"contracts/SupplyChain.sol\":646:652  status */\n      dup3\n        /* \"contracts/SupplyChain.sol\":628:653  StatusUpdated(id, status) */\n      mload(0x40)\n      tag_66\n      swap3\n      swap2\n      swap1\n      tag_35\n      jump\t// in\n    tag_66:\n      mload(0x40)\n      dup1\n      swap2\n      sub\n      swap1\n      log1\n        /* \"contracts/SupplyChain.sol\":436:657  function updateStatus(uint id, string memory status) public {... */\n      pop\n      pop\n      jump\t// out\n        /* \"#utility.yul\":7:82   */\n    tag_67:\n        /* \"#utility.yul\":40:46   */\n      0x00\n        /* \"#utility.yul\":73:75   */\n      0x40\n        /* \"#utility.yul\":67:76   */\n      mload\n        /* \"#utility.yul\":57:76   */\n      swap1\n      pop\n        /* \"#utility.yul\":7:82   */\n      swap1\n      jump\t// out\n        /* \"#utility.yul\":88:205   */\n    tag_68:\n        /* \"#utility.yul\":197:198   */\n      0x00\n        /* \"#utility.yul\":194:195   */\n      0x00\n        /* \"#utility.yul\":187:199   */\n      revert\n        /* \"#utility.yul\":211:328   */\n    tag_69:\n        /* \"#utility.yul\":320:321   */\n      0x00\n        /* \"#utility.yul\":317:318   */\n      0x00\n        /* \"#utility.yul\":310:322   */\n      revert\n        /* \"#utility.yul\":334:451   */\n    tag_70:\n        /* \"#utility.yul\":443:444   */\n      0x00\n        /* \"#utility.yul\":440:441   */\n      0x00\n        /* \"#utility.yul\":433:445   */\n      revert\n        /* \"#utility.yul\":457:574   */\n    tag_71:\n        /* \"#utility.yul\":566:567   */\n      0x00\n        /* \"#utility.yul\":563:564   */\n      0x00\n        /* \"#utility.yul\":556:568   */\n      revert\n        /* \"#utility.yul\":580:682   */\n    tag_72:\n        /* \"#utility.yul\":621:627   */\n      0x00\n        /* \"#utility.yul\":672:674   */\n      0x1f\n        /* \"#utility.yul\":668:675   */\n      not\n        /* \"#utility.yul\":663:665   */\n      0x1f\n        /* \"#utility.yul\":656:661   */\n      dup4\n        /* \"#utility.yul\":652:666   */\n      add\n        /* \"#utility.yul\":648:676   */\n      and\n        /* \"#utility.yul\":638:676   */\n      swap1\n      pop\n        /* \"#utility.yul\":580:682   */\n      swap2\n      swap1\n      pop\n      jump\t// out\n        /* \"#utility.yul\":688:868   */\n    tag_73:\n        /* \"#utility.yul\":736:813   */\n      0x4e487b7100000000000000000000000000000000000000000000000000000000\n        /* \"#utility.yul\":733:734   */\n      0x00\n        /* \"#utility.yul\":726:814   */\n      mstore\n        /* \"#utility.yul\":833:837   */\n      0x41\n        /* \"#utility.yul\":830:831   */\n      0x04\n        /* \"#utility.yul\":823:838   */\n      mstore\n        /* \"#utility.yul\":857:861   */\n      0x24\n        /* \"#utility.yul\":854:855   */\n      0x00\n        /* \"#utility.yul\":847:862   */\n      revert\n        /* \"#utility.yul\":874:1155   */\n    tag_74:\n        /* \"#utility.yul\":957:984   */\n      tag_116\n        /* \"#utility.yul\":979:983   */\n      dup3\n        /* \"#utility.yul\":957:984   */\n      tag_72\n      jump\t// in\n    tag_116:\n        /* \"#utility.yul\":949:955   */\n      dup2\n        /* \"#utility.yul\":945:985   */\n      add\n        /* \"#utility.yul\":1087:1093   */\n      dup2\n        /* \"#utility.yul\":1075:1085   */\n      dup2\n        /* \"#utility.yul\":1072:1094   */\n      lt\n        /* \"#utility.yul\":1051:1069   */\n      0xffffffffffffffff\n        /* \"#utility.yul\":1039:1049   */\n      dup3\n        /* \"#utility.yul\":1036:1070   */\n      gt\n        /* \"#utility.yul\":1033:1095   */\n      or\n        /* \"#utility.yul\":1030:1118   */\n      iszero\n      tag_117\n      jumpi\n        /* \"#utility.yul\":1098:1116   */\n      tag_118\n      tag_73\n      jump\t// in\n    tag_118:\n        /* \"#utility.yul\":1030:1118   */\n    tag_117:\n        /* \"#utility.yul\":1138:1148   */\n      dup1\n        /* \"#utility.yul\":1134:1136   */\n      0x40\n        /* \"#utility.yul\":1127:1149   */\n      mstore\n        /* \"#utility.yul\":917:1155   */\n      pop\n        /* \"#utility.yul\":874:1155   */\n      pop\n      pop\n      jump\t// out\n        /* \"#utility.yul\":1161:1290   */\n    tag_75:\n        /* \"#utility.yul\":1195:1201   */\n      0x00\n        /* \"#utility.yul\":1222:1242   */\n      tag_120\n      tag_67\n      jump\t// in\n    tag_120:\n        /* \"#utility.yul\":1212:1242   */\n      swap1\n      pop\n        /* \"#utility.yul\":1251:1284   */\n      tag_121\n        /* \"#utility.yul\":1279:1283   */\n      dup3\n        /* \"#utility.yul\":1271:1277   */\n      dup3\n        /* \"#utility.yul\":1251:1284   */\n      tag_74\n      jump\t// in\n    tag_121:\n        /* \"#utility.yul\":1161:1290   */\n      swap2\n      swap1\n      pop\n      jump\t// out\n        /* \"#utility.yul\":1296:1604   */\n    tag_76:\n        /* \"#utility.yul\":1358:1362   */\n      0x00\n        /* \"#utility.yul\":1448:1466   */\n      0xffffffffffffffff\n        /* \"#utility.yul\":1440:1446   */\n      dup3\n        /* \"#utility.yul\":1437:1467   */\n      gt\n        /* \"#utility.yul\":1434:1490   */\n      iszero\n      tag_123\n      jumpi\n        /* \"#utility.yul\":1470:1488   */\n      tag_124\n      tag_73\n      jump\t// in\n    tag_124:\n        /* \"#utility.yul\":1434:1490   */\n    tag_123:\n        /* \"#utility.yul\":1508:1537   */\n      tag_125\n        /* \"#utility.yul\":1530:1536   */\n      dup3\n        /* \"#utility.yul\":1508:1537   */\n      tag_72\n      jump\t// in\n    tag_125:\n        /* \"#utility.yul\":1500:1537   */\n      swap1\n      pop\n        /* \"#utility.yul\":1592:1596   */\n      0x20\n        /* \"#utility.yul\":1586:1590   */\n      dup2\n        /* \"#utility.yul\":1582:1597   */\n      add\n        /* \"#utility.yul\":1574:1597   */\n      swap1\n      pop\n        /* \"#utility.yul\":1296:1604   */\n      swap2\n      swap1\n      pop\n      jump\t// out\n        /* \"#utility.yul\":1610:1758   */\n    tag_77:\n        /* \"#utility.yul\":1708:1714   */\n      dup3\n        /* \"#utility.yul\":1703:1706   */\n      dup2\n        /* \"#utility.yul\":1698:1701   */\n      dup4\n        /* \"#utility.yul\":1685:1715   */\n      calldatacopy\n        /* \"#utility.yul\":1749:1750   */\n      0x00\n        /* \"#utility.yul\":1740:1746   */\n      dup4\n        /* \"#utility.yul\":1735:1738   */\n      dup4\n        /* \"#utility.yul\":1731:1747   */\n      add\n        /* \"#utility.yul\":1724:1751   */\n      mstore\n        /* \"#utility.yul\":1610:1758   */\n      pop\n      pop\n      pop\n      jump\t// out\n        /* \"#utility.yul\":1764:2189   */\n    tag_78:\n        /* \"#utility.yul\":1842:1847   */\n      0x00\n        /* \"#utility.yul\":1867:1933   */\n      tag_128\n        /* \"#utility.yul\":1883:1932   */\n      tag_129\n        /* \"#utility.yul\":1925:1931   */\n      dup5\n        /* \"#utility.yul\":1883:1932   */\n      tag_76\n      jump\t// in\n    tag_129:\n        /* \"#utility.yul\":1867:1933   */\n      tag_75\n      jump\t// in\n    tag_128:\n        /* \"#utility.yul\":1858:1933   */\n      swap1\n      pop\n        /* \"#utility.yul\":1956:1962   */\n      dup3\n        /* \"#utility.yul\":1949:1954   */\n      dup2\n        /* \"#utility.yul\":1942:1963   */\n      mstore\n        /* \"#utility.yul\":1994:1998   */\n      0x20\n        /* \"#utility.yul\":1987:1992   */\n      dup2\n        /* \"#utility.yul\":1983:1999   */\n      add\n        /* \"#utility.yul\":2032:2035   */\n      dup5\n        /* \"#utility.yul\":2023:2029   */\n      dup5\n        /* \"#utility.yul\":2018:2021   */\n      dup5\n        /* \"#utility.yul\":2014:2030   */\n      add\n        /* \"#utility.yul\":2011:2036   */\n      gt\n        /* \"#utility.yul\":2008:2120   */\n      iszero\n      tag_130\n      jumpi\n        /* \"#utility.yul\":2039:2118   */\n      tag_131\n      tag_71\n      jump\t// in\n    tag_131:\n        /* \"#utility.yul\":2008:2120   */\n    tag_130:\n        /* \"#utility.yul\":2129:2183   */\n      tag_132\n        /* \"#utility.yul\":2176:2182   */\n      dup5\n        /* \"#utility.yul\":2171:2174   */\n      dup3\n        /* \"#utility.yul\":2166:2169   */\n      dup6\n        /* \"#utility.yul\":2129:2183   */\n      tag_77\n      jump\t// in\n    tag_132:\n        /* \"#utility.yul\":1848:2189   */\n      pop\n        /* \"#utility.yul\":1764:2189   */\n      swap4\n      swap3\n      pop\n      pop\n      pop\n      jump\t// out\n        /* \"#utility.yul\":2209:2549   */\n    tag_79:\n        /* \"#utility.yul\":2265:2270   */\n      0x00\n        /* \"#utility.yul\":2314:2317   */\n      dup3\n        /* \"#utility.yul\":2307:2311   */\n      0x1f\n        /* \"#utility.yul\":2299:2305   */\n      dup4\n        /* \"#utility.yul\":2295:2312   */\n      add\n        /* \"#utility.yul\":2291:2318   */\n      slt\n        /* \"#utility.yul\":2281:2403   */\n      tag_134\n      jumpi\n        /* \"#utility.yul\":2322:2401   */\n      tag_135\n      tag_70\n      jump\t// in\n    tag_135:\n        /* \"#utility.yul\":2281:2403   */\n    tag_134:\n        /* \"#utility.yul\":2439:2445   */\n      dup2\n        /* \"#utility.yul\":2426:2446   */\n      calldataload\n        /* \"#utility.yul\":2464:2543   */\n      tag_136\n        /* \"#utility.yul\":2539:2542   */\n      dup5\n        /* \"#utility.yul\":2531:2537   */\n      dup3\n        /* \"#utility.yul\":2524:2528   */\n      0x20\n        /* \"#utility.yul\":2516:2522   */\n      dup7\n        /* \"#utility.yul\":2512:2529   */\n      add\n        /* \"#utility.yul\":2464:2543   */\n      tag_78\n      jump\t// in\n    tag_136:\n        /* \"#utility.yul\":2455:2543   */\n      swap2\n      pop\n        /* \"#utility.yul\":2271:2549   */\n      pop\n        /* \"#utility.yul\":2209:2549   */\n      swap3\n      swap2\n      pop\n      pop\n      jump\t// out\n        /* \"#utility.yul\":2555:3064   */\n    tag_10:\n        /* \"#utility.yul\":2624:2630   */\n      0x00\n        /* \"#utility.yul\":2673:2675   */\n      0x20\n        /* \"#utility.yul\":2661:2670   */\n      dup3\n        /* \"#utility.yul\":2652:2659   */\n      dup5\n        /* \"#utility.yul\":2648:2671   */\n      sub\n        /* \"#utility.yul\":2644:2676   */\n      slt\n        /* \"#utility.yul\":2641:2760   */\n      iszero\n      tag_138\n      jumpi\n        /* \"#utility.yul\":2679:2758   */\n      tag_139\n      tag_68\n      jump\t// in\n    tag_139:\n        /* \"#utility.yul\":2641:2760   */\n    tag_138:\n        /* \"#utility.yul\":2827:2828   */\n      0x00\n        /* \"#utility.yul\":2816:2825   */\n      dup3\n        /* \"#utility.yul\":2812:2829   */\n      add\n        /* \"#utility.yul\":2799:2830   */\n      calldataload\n        /* \"#utility.yul\":2857:2875   */\n      0xffffffffffffffff\n        /* \"#utility.yul\":2849:2855   */\n      dup2\n        /* \"#utility.yul\":2846:2876   */\n      gt\n        /* \"#utility.yul\":2843:2960   */\n      iszero\n      tag_140\n      jumpi\n        /* \"#utility.yul\":2879:2958   */\n      tag_141\n      tag_69\n      jump\t// in\n    tag_141:\n        /* \"#utility.yul\":2843:2960   */\n    tag_140:\n        /* \"#utility.yul\":2984:3047   */\n      tag_142\n        /* \"#utility.yul\":3039:3046   */\n      dup5\n        /* \"#utility.yul\":3030:3036   */\n      dup3\n        /* \"#utility.yul\":3019:3028   */\n      dup6\n        /* \"#utility.yul\":3015:3037   */\n      add\n        /* \"#utility.yul\":2984:3047   */\n      tag_79\n      jump\t// in\n    tag_142:\n        /* \"#utility.yul\":2974:3047   */\n      swap2\n      pop\n        /* \"#utility.yul\":2770:3057   */\n      pop\n        /* \"#utility.yul\":2555:3064   */\n      swap3\n      swap2\n      pop\n      pop\n      jump\t// out\n        /* \"#utility.yul\":3070:3147   */\n    tag_80:\n        /* \"#utility.yul\":3107:3114   */\n      0x00\n        /* \"#utility.yul\":3136:3141   */\n      dup2\n        /* \"#utility.yul\":3125:3141   */\n      swap1\n      pop\n        /* \"#utility.yul\":3070:3147   */\n      swap2\n      swap1\n      pop\n      jump\t// out\n        /* \"#utility.yul\":3153:3275   */\n    tag_81:\n        /* \"#utility.yul\":3226:3250   */\n      tag_145\n        /* \"#utility.yul\":3244:3249   */\n      dup2\n        /* \"#utility.yul\":3226:3250   */\n      tag_80\n      jump\t// in\n    tag_145:\n        /* \"#utility.yul\":3219:3224   */\n      dup2\n        /* \"#utility.yul\":3216:3251   */\n      eq\n        /* \"#utility.yul\":3206:3269   */\n      tag_146\n      jumpi\n        /* \"#utility.yul\":3265:3266   */\n      0x00\n        /* \"#utility.yul\":3262:3263   */\n      0x00\n        /* \"#utility.yul\":3255:3267   */\n      revert\n        /* \"#utility.yul\":3206:3269   */\n    tag_146:\n        /* \"#utility.yul\":3153:3275   */\n      pop\n      jump\t// out\n        /* \"#utility.yul\":3281:3420   */\n    tag_82:\n        /* \"#utility.yul\":3327:3332   */\n      0x00\n        /* \"#utility.yul\":3365:3371   */\n      dup2\n        /* \"#utility.yul\":3352:3372   */\n      calldataload\n        /* \"#utility.yul\":3343:3372   */\n      swap1\n      pop\n        /* \"#utility.yul\":3381:3414   */\n      tag_148\n        /* \"#utility.yul\":3408:3413   */\n      dup2\n        /* \"#utility.yul\":3381:3414   */\n      tag_81\n      jump\t// in\n    tag_148:\n        /* \"#utility.yul\":3281:3420   */\n      swap3\n      swap2\n      pop\n      pop\n      jump\t// out\n        /* \"#utility.yul\":3426:3755   */\n    tag_14:\n        /* \"#utility.yul\":3485:3491   */\n      0x00\n        /* \"#utility.yul\":3534:3536   */\n      0x20\n        /* \"#utility.yul\":3522:3531   */\n      dup3\n        /* \"#utility.yul\":3513:3520   */\n      dup5\n        /* \"#utility.yul\":3509:3532   */\n      sub\n        /* \"#utility.yul\":3505:3537   */\n      slt\n        /* \"#utility.yul\":3502:3621   */\n      iszero\n      tag_150\n      jumpi\n        /* \"#utility.yul\":3540:3619   */\n      tag_151\n      tag_68\n      jump\t// in\n    tag_151:\n        /* \"#utility.yul\":3502:3621   */\n    tag_150:\n        /* \"#utility.yul\":3660:3661   */\n      0x00\n        /* \"#utility.yul\":3685:3738   */\n      tag_152\n        /* \"#utility.yul\":3730:3737   */\n      dup5\n        /* \"#utility.yul\":3721:3727   */\n      dup3\n        /* \"#utility.yul\":3710:3719   */\n      dup6\n        /* \"#utility.yul\":3706:3728   */\n      add\n        /* \"#utility.yul\":3685:3738   */\n      tag_82\n      jump\t// in\n    tag_152:\n        /* \"#utility.yul\":3675:3738   */\n      swap2\n      pop\n        /* \"#utility.yul\":3631:3748   */\n      pop\n        /* \"#utility.yul\":3426:3755   */\n      swap3\n      swap2\n      pop\n      pop\n      jump\t// out\n        /* \"#utility.yul\":3761:3860   */\n    tag_83:\n        /* \"#utility.yul\":3813:3819   */\n      0x00\n        /* \"#utility.yul\":3847:3852   */\n      dup2\n        /* \"#utility.yul\":3841:3853   */\n      mload\n        /* \"#utility.yul\":3831:3853   */\n      swap1\n      pop\n        /* \"#utility.yul\":3761:3860   */\n      swap2\n      swap1\n      pop\n      jump\t// out\n        /* \"#utility.yul\":3866:4035   */\n    tag_84:\n        /* \"#utility.yul\":3950:3961   */\n      0x00\n        /* \"#utility.yul\":3984:3990   */\n      dup3\n        /* \"#utility.yul\":3979:3982   */\n      dup3\n        /* \"#utility.yul\":3972:3991   */\n      mstore\n        /* \"#utility.yul\":4024:4028   */\n      0x20\n        /* \"#utility.yul\":4019:4022   */\n      dup3\n        /* \"#utility.yul\":4015:4029   */\n      add\n        /* \"#utility.yul\":4000:4029   */\n      swap1\n      pop\n        /* \"#utility.yul\":3866:4035   */\n      swap3\n      swap2\n      pop\n      pop\n      jump\t// out\n        /* \"#utility.yul\":4041:4180   */\n    tag_85:\n        /* \"#utility.yul\":4130:4136   */\n      dup3\n        /* \"#utility.yul\":4125:4128   */\n      dup2\n        /* \"#utility.yul\":4120:4123   */\n      dup4\n        /* \"#utility.yul\":4114:4137   */\n      mcopy\n        /* \"#utility.yul\":4171:4172   */\n      0x00\n        /* \"#utility.yul\":4162:4168   */\n      dup4\n        /* \"#utility.yul\":4157:4160   */\n      dup4\n        /* \"#utility.yul\":4153:4169   */\n      add\n        /* \"#utility.yul\":4146:4173   */\n      mstore\n        /* \"#utility.yul\":4041:4180   */\n      pop\n      pop\n      pop\n      jump\t// out\n        /* \"#utility.yul\":4186:4563   */\n    tag_86:\n        /* \"#utility.yul\":4274:4277   */\n      0x00\n        /* \"#utility.yul\":4302:4341   */\n      tag_157\n        /* \"#utility.yul\":4335:4340   */\n      dup3\n        /* \"#utility.yul\":4302:4341   */\n      tag_83\n      jump\t// in\n    tag_157:\n        /* \"#utility.yul\":4357:4428   */\n      tag_158\n        /* \"#utility.yul\":4421:4427   */\n      dup2\n        /* \"#utility.yul\":4416:4419   */\n      dup6\n        /* \"#utility.yul\":4357:4428   */\n      tag_84\n      jump\t// in\n    tag_158:\n        /* \"#utility.yul\":4350:4428   */\n      swap4\n      pop\n        /* \"#utility.yul\":4437:4502   */\n      tag_159\n        /* \"#utility.yul\":4495:4501   */\n      dup2\n        /* \"#utility.yul\":4490:4493   */\n      dup6\n        /* \"#utility.yul\":4483:4487   */\n      0x20\n        /* \"#utility.yul\":4476:4481   */\n      dup7\n        /* \"#utility.yul\":4472:4488   */\n      add\n        /* \"#utility.yul\":4437:4502   */\n      tag_85\n      jump\t// in\n    tag_159:\n        /* \"#utility.yul\":4527:4556   */\n      tag_160\n        /* \"#utility.yul\":4549:4555   */\n      dup2\n        /* \"#utility.yul\":4527:4556   */\n      tag_72\n      jump\t// in\n    tag_160:\n        /* \"#utility.yul\":4522:4525   */\n      dup5\n        /* \"#utility.yul\":4518:4557   */\n      add\n        /* \"#utility.yul\":4511:4557   */\n      swap2\n      pop\n        /* \"#utility.yul\":4278:4563   */\n      pop\n        /* \"#utility.yul\":4186:4563   */\n      swap3\n      swap2\n      pop\n      pop\n      jump\t// out\n        /* \"#utility.yul\":4569:4687   */\n    tag_87:\n        /* \"#utility.yul\":4656:4680   */\n      tag_162\n        /* \"#utility.yul\":4674:4679   */\n      dup2\n        /* \"#utility.yul\":4656:4680   */\n      tag_80\n      jump\t// in\n    tag_162:\n        /* \"#utility.yul\":4651:4654   */\n      dup3\n        /* \"#utility.yul\":4644:4681   */\n      mstore\n        /* \"#utility.yul\":4569:4687   */\n      pop\n      pop\n      jump\t// out\n        /* \"#utility.yul\":4693:5317   */\n    tag_17:\n        /* \"#utility.yul\":4882:4886   */\n      0x00\n        /* \"#utility.yul\":4920:4922   */\n      0x60\n        /* \"#utility.yul\":4909:4918   */\n      dup3\n        /* \"#utility.yul\":4905:4923   */\n      add\n        /* \"#utility.yul\":4897:4923   */\n      swap1\n      pop\n        /* \"#utility.yul\":4969:4978   */\n      dup2\n        /* \"#utility.yul\":4963:4967   */\n      dup2\n        /* \"#utility.yul\":4959:4979   */\n      sub\n        /* \"#utility.yul\":4955:4956   */\n      0x00\n        /* \"#utility.yul\":4944:4953   */\n      dup4\n        /* \"#utility.yul\":4940:4957   */\n      add\n        /* \"#utility.yul\":4933:4980   */\n      mstore\n        /* \"#utility.yul\":4997:5075   */\n      tag_164\n        /* \"#utility.yul\":5070:5074   */\n      dup2\n        /* \"#utility.yul\":5061:5067   */\n      dup7\n        /* \"#utility.yul\":4997:5075   */\n      tag_86\n      jump\t// in\n    tag_164:\n        /* \"#utility.yul\":4989:5075   */\n      swap1\n      pop\n        /* \"#utility.yul\":5122:5131   */\n      dup2\n        /* \"#utility.yul\":5116:5120   */\n      dup2\n        /* \"#utility.yul\":5112:5132   */\n      sub\n        /* \"#utility.yul\":5107:5109   */\n      0x20\n        /* \"#utility.yul\":5096:5105   */\n      dup4\n        /* \"#utility.yul\":5092:5110   */\n      add\n        /* \"#utility.yul\":5085:5133   */\n      mstore\n        /* \"#utility.yul\":5150:5228   */\n      tag_165\n        /* \"#utility.yul\":5223:5227   */\n      dup2\n        /* \"#utility.yul\":5214:5220   */\n      dup6\n        /* \"#utility.yul\":5150:5228   */\n      tag_86\n      jump\t// in\n    tag_165:\n        /* \"#utility.yul\":5142:5228   */\n      swap1\n      pop\n        /* \"#utility.yul\":5238:5310   */\n      tag_166\n        /* \"#utility.yul\":5306:5308   */\n      0x40\n        /* \"#utility.yul\":5295:5304   */\n      dup4\n        /* \"#utility.yul\":5291:5309   */\n      add\n        /* \"#utility.yul\":5282:5288   */\n      dup5\n        /* \"#utility.yul\":5238:5310   */\n      tag_87\n      jump\t// in\n    tag_166:\n        /* \"#utility.yul\":4693:5317   */\n      swap5\n      swap4\n      pop\n      pop\n      pop\n      pop\n      jump\t// out\n        /* \"#utility.yul\":5323:5545   */\n    tag_21:\n        /* \"#utility.yul\":5416:5420   */\n      0x00\n        /* \"#utility.yul\":5454:5456   */\n      0x20\n        /* \"#utility.yul\":5443:5452   */\n      dup3\n        /* \"#utility.yul\":5439:5457   */\n      add\n        /* \"#utility.yul\":5431:5457   */\n      swap1\n      pop\n        /* \"#utility.yul\":5467:5538   */\n      tag_168\n        /* \"#utility.yul\":5535:5536   */\n      0x00\n        /* \"#utility.yul\":5524:5533   */\n      dup4\n        /* \"#utility.yul\":5520:5537   */\n      add\n        /* \"#utility.yul\":5511:5517   */\n      dup5\n        /* \"#utility.yul\":5467:5538   */\n      tag_87\n      jump\t// in\n    tag_168:\n        /* \"#utility.yul\":5323:5545   */\n      swap3\n      swap2\n      pop\n      pop\n      jump\t// out\n        /* \"#utility.yul\":5551:6205   */\n    tag_28:\n        /* \"#utility.yul\":5629:5635   */\n      0x00\n        /* \"#utility.yul\":5637:5643   */\n      0x00\n        /* \"#utility.yul\":5686:5688   */\n      0x40\n        /* \"#utility.yul\":5674:5683   */\n      dup4\n        /* \"#utility.yul\":5665:5672   */\n      dup6\n        /* \"#utility.yul\":5661:5684   */\n      sub\n        /* \"#utility.yul\":5657:5689   */\n      slt\n        /* \"#utility.yul\":5654:5773   */\n      iszero\n      tag_170\n      jumpi\n        /* \"#utility.yul\":5692:5771   */\n      tag_171\n      tag_68\n      jump\t// in\n    tag_171:\n        /* \"#utility.yul\":5654:5773   */\n    tag_170:\n        /* \"#utility.yul\":5812:5813   */\n      0x00\n        /* \"#utility.yul\":5837:5890   */\n      tag_172\n        /* \"#utility.yul\":5882:5889   */\n      dup6\n        /* \"#utility.yul\":5873:5879   */\n      dup3\n        /* \"#utility.yul\":5862:5871   */\n      dup7\n        /* \"#utility.yul\":5858:5880   */\n      add\n        /* \"#utility.yul\":5837:5890   */\n      tag_82\n      jump\t// in\n    tag_172:\n        /* \"#utility.yul\":5827:5890   */\n      swap3\n      pop\n        /* \"#utility.yul\":5783:5900   */\n      pop\n        /* \"#utility.yul\":5967:5969   */\n      0x20\n        /* \"#utility.yul\":5956:5965   */\n      dup4\n        /* \"#utility.yul\":5952:5970   */\n      add\n        /* \"#utility.yul\":5939:5971   */\n      calldataload\n        /* \"#utility.yul\":5998:6016   */\n      0xffffffffffffffff\n        /* \"#utility.yul\":5990:5996   */\n      dup2\n        /* \"#utility.yul\":5987:6017   */\n      gt\n        /* \"#utility.yul\":5984:6101   */\n      iszero\n      tag_173\n      jumpi\n        /* \"#utility.yul\":6020:6099   */\n      tag_174\n      tag_69\n      jump\t// in\n    tag_174:\n        /* \"#utility.yul\":5984:6101   */\n    tag_173:\n        /* \"#utility.yul\":6125:6188   */\n      tag_175\n        /* \"#utility.yul\":6180:6187   */\n      dup6\n        /* \"#utility.yul\":6171:6177   */\n      dup3\n        /* \"#utility.yul\":6160:6169   */\n      dup7\n        /* \"#utility.yul\":6156:6178   */\n      add\n        /* \"#utility.yul\":6125:6188   */\n      tag_79\n      jump\t// in\n    tag_175:\n        /* \"#utility.yul\":6115:6188   */\n      swap2\n      pop\n        /* \"#utility.yul\":5910:6198   */\n      pop\n        /* \"#utility.yul\":5551:6205   */\n      swap3\n      pop\n      swap3\n      swap1\n      pop\n      jump\t// out\n        /* \"#utility.yul\":6211:6391   */\n    tag_88:\n        /* \"#utility.yul\":6259:6336   */\n      0x4e487b7100000000000000000000000000000000000000000000000000000000\n        /* \"#utility.yul\":6256:6257   */\n      0x00\n        /* \"#utility.yul\":6249:6337   */\n      mstore\n        /* \"#utility.yul\":6356:6360   */\n      0x22\n        /* \"#utility.yul\":6353:6354   */\n      0x04\n        /* \"#utility.yul\":6346:6361   */\n      mstore\n        /* \"#utility.yul\":6380:6384   */\n      0x24\n        /* \"#utility.yul\":6377:6378   */\n      0x00\n        /* \"#utility.yul\":6370:6385   */\n      revert\n        /* \"#utility.yul\":6397:6717   */\n    tag_40:\n        /* \"#utility.yul\":6441:6447   */\n      0x00\n        /* \"#utility.yul\":6478:6479   */\n      0x02\n        /* \"#utility.yul\":6472:6476   */\n      dup3\n        /* \"#utility.yul\":6468:6480   */\n      div\n        /* \"#utility.yul\":6458:6480   */\n      swap1\n      pop\n        /* \"#utility.yul\":6525:6526   */\n      0x01\n        /* \"#utility.yul\":6519:6523   */\n      dup3\n        /* \"#utility.yul\":6515:6527   */\n      and\n        /* \"#utility.yul\":6546:6564   */\n      dup1\n        /* \"#utility.yul\":6536:6617   */\n      tag_178\n      jumpi\n        /* \"#utility.yul\":6602:6606   */\n      0x7f\n        /* \"#utility.yul\":6594:6600   */\n      dup3\n        /* \"#utility.yul\":6590:6607   */\n      and\n        /* \"#utility.yul\":6580:6607   */\n      swap2\n      pop\n        /* \"#utility.yul\":6536:6617   */\n    tag_178:\n        /* \"#utility.yul\":6664:6666   */\n      0x20\n        /* \"#utility.yul\":6656:6662   */\n      dup3\n        /* \"#utility.yul\":6653:6667   */\n      lt\n        /* \"#utility.yul\":6633:6651   */\n      dup2\n        /* \"#utility.yul\":6630:6668   */\n      sub\n        /* \"#utility.yul\":6627:6711   */\n      tag_179\n      jumpi\n        /* \"#utility.yul\":6683:6701   */\n      tag_180\n      tag_88\n      jump\t// in\n    tag_180:\n        /* \"#utility.yul\":6627:6711   */\n    tag_179:\n        /* \"#utility.yul\":6448:6717   */\n      pop\n        /* \"#utility.yul\":6397:6717   */\n      swap2\n      swap1\n      pop\n      jump\t// out\n        /* \"#utility.yul\":6723:6864   */\n    tag_89:\n        /* \"#utility.yul\":6772:6776   */\n      0x00\n        /* \"#utility.yul\":6795:6798   */\n      dup2\n        /* \"#utility.yul\":6787:6798   */\n      swap1\n      pop\n        /* \"#utility.yul\":6818:6821   */\n      dup2\n        /* \"#utility.yul\":6815:6816   */\n      0x00\n        /* \"#utility.yul\":6808:6822   */\n      mstore\n        /* \"#utility.yul\":6852:6856   */\n      0x20\n        /* \"#utility.yul\":6849:6850   */\n      0x00\n        /* \"#utility.yul\":6839:6857   */\n      keccak256\n        /* \"#utility.yul\":6831:6857   */\n      swap1\n      pop\n        /* \"#utility.yul\":6723:6864   */\n      swap2\n      swap1\n      pop\n      jump\t// out\n        /* \"#utility.yul\":6870:6963   */\n    tag_90:\n        /* \"#utility.yul\":6907:6913   */\n      0x00\n        /* \"#utility.yul\":6954:6956   */\n      0x20\n        /* \"#utility.yul\":6949:6951   */\n      0x1f\n        /* \"#utility.yul\":6942:6947   */\n      dup4\n        /* \"#utility.yul\":6938:6952   */\n      add\n        /* \"#utility.yul\":6934:6957   */\n      div\n        /* \"#utility.yul\":6924:6957   */\n      swap1\n      pop\n        /* \"#utility.yul\":6870:6963   */\n      swap2\n      swap1\n      pop\n      jump\t// out\n        /* \"#utility.yul\":6969:7076   */\n    tag_91:\n        /* \"#utility.yul\":7013:7021   */\n      0x00\n        /* \"#utility.yul\":7063:7068   */\n      dup3\n        /* \"#utility.yul\":7057:7061   */\n      dup3\n        /* \"#utility.yul\":7053:7069   */\n      shl\n        /* \"#utility.yul\":7032:7069   */\n      swap1\n      pop\n        /* \"#utility.yul\":6969:7076   */\n      swap3\n      swap2\n      pop\n      pop\n      jump\t// out\n        /* \"#utility.yul\":7082:7475   */\n    tag_92:\n        /* \"#utility.yul\":7151:7157   */\n      0x00\n        /* \"#utility.yul\":7201:7202   */\n      0x08\n        /* \"#utility.yul\":7189:7199   */\n      dup4\n        /* \"#utility.yul\":7185:7203   */\n      mul\n        /* \"#utility.yul\":7224:7321   */\n      tag_185\n        /* \"#utility.yul\":7254:7320   */\n      0xffffffffffffffffffffffffffffffffffffffffffffffffffffffffffffffff\n        /* \"#utility.yul\":7243:7252   */\n      dup3\n        /* \"#utility.yul\":7224:7321   */\n      tag_91\n      jump\t// in\n    tag_185:\n        /* \"#utility.yul\":7342:7381   */\n      tag_186\n        /* \"#utility.yul\":7372:7380   */\n      dup7\n        /* \"#utility.yul\":7361:7370   */\n      dup4\n        /* \"#utility.yul\":7342:7381   */\n      tag_91\n      jump\t// in\n    tag_186:\n        /* \"#utility.yul\":7330:7381   */\n      swap6\n      pop\n        /* \"#utility.yul\":7414:7418   */\n      dup1\n        /* \"#utility.yul\":7410:7419   */\n      not\n        /* \"#utility.yul\":7403:7408   */\n      dup5\n        /* \"#utility.yul\":7399:7420   */\n      and\n        /* \"#utility.yul\":7390:7420   */\n      swap4\n      pop\n        /* \"#utility.yul\":7463:7467   */\n      dup1\n        /* \"#utility.yul\":7453:7461   */\n      dup7\n        /* \"#utility.yul\":7449:7468   */\n      and\n        /* \"#utility.yul\":7442:7447   */\n      dup5\n        /* \"#utility.yul\":7439:7469   */\n      or\n        /* \"#utility.yul\":7429:7469   */\n      swap3\n      pop\n        /* \"#utility.yul\":7158:7475   */\n      pop\n      pop\n        /* \"#utility.yul\":7082:7475   */\n      swap4\n      swap3\n      pop\n      pop\n      pop\n      jump\t// out\n        /* \"#utility.yul\":7481:7541   */\n    tag_93:\n        /* \"#utility.yul\":7509:7512   */\n      0x00\n        /* \"#utility.yul\":7530:7535   */\n      dup2\n        /* \"#utility.yul\":7523:7535   */\n      swap1\n      pop\n        /* \"#utility.yul\":7481:7541   */\n      swap2\n      swap1\n      pop\n      jump\t// out\n        /* \"#utility.yul\":7547:7689   */\n    tag_94:\n        /* \"#utility.yul\":7597:7606   */\n      0x00\n        /* \"#utility.yul\":7630:7683   */\n      tag_189\n        /* \"#utility.yul\":7648:7682   */\n      tag_190\n        /* \"#utility.yul\":7657:7681   */\n      tag_191\n        /* \"#utility.yul\":7675:7680   */\n      dup5\n        /* \"#utility.yul\":7657:7681   */\n      tag_80\n      jump\t// in\n    tag_191:\n        /* \"#utility.yul\":7648:7682   */\n      tag_93\n      jump\t// in\n    tag_190:\n        /* \"#utility.yul\":7630:7683   */\n      tag_80\n      jump\t// in\n    tag_189:\n        /* \"#utility.yul\":7617:7683   */\n      swap1\n      pop\n        /* \"#utility.yul\":7547:7689   */\n      swap2\n      swap1\n      pop\n      jump\t// out\n        /* \"#utility.yul\":7695:7770   */\n    tag_95:\n        /* \"#utility.yul\":7738:7741   */\n      0x00\n        /* \"#utility.yul\":7759:7764   */\n      dup2\n        /* \"#utility.yul\":7752:7764   */\n      swap1\n      pop\n        /* \"#utility.yul\":7695:7770   */\n      swap2\n      swap1\n      pop\n      jump\t// out\n        /* \"#utility.yul\":7776:8045   */\n    tag_96:\n        /* \"#utility.yul\":7886:7925   */\n      tag_194\n        /* \"#utility.yul\":7917:7924   */\n      dup4\n        /* \"#utility.yul\":7886:7925   */\n      tag_94\n      jump\t// in\n    tag_194:\n        /* \"#utility.yul\":7947:8038   */\n      tag_195\n        /* \"#utility.yul\":7996:8037   */\n      tag_196\n        /* \"#utility.yul\":8020:8036   */\n      dup3\n        /* \"#utility.yul\":7996:8037   */\n      tag_95\n      jump\t// in\n    tag_196:\n        /* \"#utility.yul\":7988:7994   */\n      dup5\n        /* \"#utility.yul\":7981:7985   */\n      dup5\n        /* \"#utility.yul\":7975:7986   */\n      sload\n        /* \"#utility.yul\":7947:8038   */\n      tag_92\n      jump\t// in\n    tag_195:\n        /* \"#utility.yul\":7941:7945   */\n      dup3\n        /* \"#utility.yul\":7934:8039   */\n      sstore\n        /* \"#utility.yul\":7852:8045   */\n      pop\n        /* \"#utility.yul\":7776:8045   */\n      pop\n      pop\n      pop\n      jump\t// out\n        /* \"#utility.yul\":8051:8124   */\n    tag_97:\n        /* \"#utility.yul\":8096:8099   */\n      0x00\n        /* \"#utility.yul\":8117:8118   */\n      0x00\n        /* \"#utility.yul\":8110:8118   */\n      swap1\n      pop\n        /* \"#utility.yul\":8051:8124   */\n      swap1\n      jump\t// out\n        /* \"#utility.yul\":8130:8319   */\n    tag_98:\n        /* \"#utility.yul\":8207:8239   */\n      tag_199\n      tag_97\n      jump\t// in\n    tag_199:\n        /* \"#utility.yul\":8248:8313   */\n      tag_200\n        /* \"#utility.yul\":8306:8312   */\n      dup2\n        /* \"#utility.yul\":8298:8304   */\n      dup5\n        /* \"#utility.yul\":8292:8296   */\n      dup5\n        /* \"#utility.yul\":8248:8313   */\n      tag_96\n      jump\t// in\n    tag_200:\n        /* \"#utility.yul\":8183:8319   */\n      pop\n        /* \"#utility.yul\":8130:8319   */\n      pop\n      pop\n      jump\t// out\n        /* \"#utility.yul\":8325:8511   */\n    tag_99:\n        /* \"#utility.yul\":8385:8505   */\n    tag_202:\n        /* \"#utility.yul\":8402:8405   */\n      dup2\n        /* \"#utility.yul\":8395:8400   */\n      dup2\n        /* \"#utility.yul\":8392:8406   */\n      lt\n        /* \"#utility.yul\":8385:8505   */\n      iszero\n      tag_204\n      jumpi\n        /* \"#utility.yul\":8456:8495   */\n      tag_205\n        /* \"#utility.yul\":8493:8494   */\n      0x00\n        /* \"#utility.yul\":8486:8491   */\n      dup3\n        /* \"#utility.yul\":8456:8495   */\n      tag_98\n      jump\t// in\n    tag_205:\n        /* \"#utility.yul\":8429:8430   */\n      0x01\n        /* \"#utility.yul\":8422:8427   */\n      dup2\n        /* \"#utility.yul\":8418:8431   */\n      add\n        /* \"#utility.yul\":8409:8431   */\n      swap1\n      pop\n        /* \"#utility.yul\":8385:8505   */\n      jump(tag_202)\n    tag_204:\n        /* \"#utility.yul\":8325:8511   */\n      pop\n      pop\n      jump\t// out\n        /* \"#utility.yul\":8517:9060   */\n    tag_100:\n        /* \"#utility.yul\":8618:8620   */\n      0x1f\n        /* \"#utility.yul\":8613:8616   */\n      dup3\n        /* \"#utility.yul\":8610:8621   */\n      gt\n        /* \"#utility.yul\":8607:9053   */\n      iszero\n      tag_207\n      jumpi\n        /* \"#utility.yul\":8652:8690   */\n      tag_208\n        /* \"#utility.yul\":8684:8689   */\n      dup2\n        /* \"#utility.yul\":8652:8690   */\n      tag_89\n      jump\t// in\n    tag_208:\n        /* \"#utility.yul\":8736:8765   */\n      tag_209\n        /* \"#utility.yul\":8754:8764   */\n      dup5\n        /* \"#utility.yul\":8736:8765   */\n      tag_90\n      jump\t// in\n    tag_209:\n        /* \"#utility.yul\":8726:8734   */\n      dup2\n        /* \"#utility.yul\":8722:8766   */\n      add\n        /* \"#utility.yul\":8919:8921   */\n      0x20\n        /* \"#utility.yul\":8907:8917   */\n      dup6\n        /* \"#utility.yul\":8904:8922   */\n      lt\n        /* \"#utility.yul\":8901:8950   */\n      iszero\n      tag_210\n      jumpi\n        /* \"#utility.yul\":8940:8948   */\n      dup2\n        /* \"#utility.yul\":8925:8948   */\n      swap1\n      pop\n        /* \"#utility.yul\":8901:8950   */\n    tag_210:\n        /* \"#utility.yul\":8963:9043   */\n      tag_211\n        /* \"#utility.yul\":9019:9041   */\n      tag_212\n        /* \"#utility.yul\":9037:9040   */\n      dup6\n        /* \"#utility.yul\":9019:9041   */\n      tag_90\n      jump\t// in\n    tag_212:\n        /* \"#utility.yul\":9009:9017   */\n      dup4\n        /* \"#utility.yul\":9005:9042   */\n      add\n        /* \"#utility.yul\":8992:9003   */\n      dup3\n        /* \"#utility.yul\":8963:9043   */\n      tag_99\n      jump\t// in\n    tag_211:\n        /* \"#utility.yul\":8622:9053   */\n      pop\n      pop\n        /* \"#utility.yul\":8607:9053   */\n    tag_207:\n        /* \"#utility.yul\":8517:9060   */\n      pop\n      pop\n      pop\n      jump\t// out\n        /* \"#utility.yul\":9066:9183   */\n    tag_101:\n        /* \"#utility.yul\":9120:9128   */\n      0x00\n        /* \"#utility.yul\":9170:9175   */\n      dup3\n        /* \"#utility.yul\":9164:9168   */\n      dup3\n        /* \"#utility.yul\":9160:9176   */\n      shr\n        /* \"#utility.yul\":9139:9176   */\n      swap1\n      pop\n        /* \"#utility.yul\":9066:9183   */\n      swap3\n      swap2\n      pop\n      pop\n      jump\t// out\n        /* \"#utility.yul\":9189:9358   */\n    tag_102:\n        /* \"#utility.yul\":9233:9239   */\n      0x00\n        /* \"#utility.yul\":9266:9317   */\n      tag_215\n        /* \"#utility.yul\":9314:9315   */\n      0x00\n        /* \"#utility.yul\":9310:9316   */\n      not\n        /* \"#utility.yul\":9302:9307   */\n      dup5\n        /* \"#utility.yul\":9299:9300   */\n      0x08\n        /* \"#utility.yul\":9295:9308   */\n      mul\n        /* \"#utility.yul\":9266:9317   */\n      tag_101\n      jump\t// in\n    tag_215:\n        /* \"#utility.yul\":9262:9318   */\n      not\n        /* \"#utility.yul\":9347:9351   */\n      dup1\n        /* \"#utility.yul\":9341:9345   */\n      dup4\n        /* \"#utility.yul\":9337:9352   */\n      and\n        /* \"#utility.yul\":9327:9352   */\n      swap2\n      pop\n        /* \"#utility.yul\":9240:9358   */\n      pop\n        /* \"#utility.yul\":9189:9358   */\n      swap3\n      swap2\n      pop\n      pop\n      jump\t// out\n        /* \"#utility.yul\":9363:9658   */\n    tag_103:\n        /* \"#utility.yul\":9439:9443   */\n      0x00\n        /* \"#utility.yul\":9585:9614   */\n      tag_217\n        /* \"#utility.yul\":9610:9613   */\n      dup4\n        /* \"#utility.yul\":9604:9608   */\n      dup4\n        /* \"#utility.yul\":9585:9614   */\n      tag_102\n      jump\t// in\n    tag_217:\n        /* \"#utility.yul\":9577:9614   */\n      swap2\n      pop\n        /* \"#utility.yul\":9647:9650   */\n      dup3\n        /* \"#utility.yul\":9644:9645   */\n      0x02\n        /* \"#utility.yul\":9640:9651   */\n      mul\n        /* \"#utility.yul\":9634:9638   */\n      dup3\n        /* \"#utility.yul\":9631:9652   */\n      or\n        /* \"#utility.yul\":9623:9652   */\n      swap1\n      pop\n        /* \"#utility.yul\":9363:9658   */\n      swap3\n      swap2\n      pop\n      pop\n      jump\t// out\n        /* \"#utility.yul\":9663:11058   */\n    tag_32:\n        /* \"#utility.yul\":9780:9817   */\n      tag_219\n        /* \"#utility.yul\":9813:9816   */\n      dup3\n        /* \"#utility.yul\":9780:9817   */\n      tag_83\n      jump\t// in\n    tag_219:\n        /* \"#utility.yul\":9882:9900   */\n      0xffffffffffffffff\n        /* \"#utility.yul\":9874:9880   */\n      dup2\n        /* \"#utility.yul\":9871:9901   */\n      gt\n        /* \"#utility.yul\":9868:9924   */\n      iszero\n      tag_220\n      jumpi\n        /* \"#utility.yul\":9904:9922   */\n      tag_221\n      tag_73\n      jump\t// in\n    tag_221:\n        /* \"#utility.yul\":9868:9924   */\n    tag_220:\n        /* \"#utility.yul\":9948:9986   */\n      tag_222\n        /* \"#utility.yul\":9980:9984   */\n      dup3\n        /* \"#utility.yul\":9974:9985   */\n      sload\n        /* \"#utility.yul\":9948:9986   */\n      tag_40\n      jump\t// in\n    tag_222:\n        /* \"#utility.yul\":10033:10100   */\n      tag_223\n        /* \"#utility.yul\":10093:10099   */\n      dup3\n        /* \"#utility.yul\":10085:10091   */\n      dup3\n        /* \"#utility.yul\":10079:10083   */\n      dup6\n        /* \"#utility.yul\":10033:10100   */\n      tag_100\n      jump\t// in\n    tag_223:\n        /* \"#utility.yul\":10127:10128   */\n      0x00\n        /* \"#utility.yul\":10151:10155   */\n      0x20\n        /* \"#utility.yul\":10138:10155   */\n      swap1\n      pop\n        /* \"#utility.yul\":10183:10185   */\n      0x1f\n        /* \"#utility.yul\":10175:10181   */\n      dup4\n        /* \"#utility.yul\":10172:10186   */\n      gt\n        /* \"#utility.yul\":10200:10201   */\n      0x01\n        /* \"#utility.yul\":10195:10813   */\n      dup2\n      eq\n      tag_225\n      jumpi\n        /* \"#utility.yul\":10857:10858   */\n      0x00\n        /* \"#utility.yul\":10874:10880   */\n      dup5\n        /* \"#utility.yul\":10871:10948   */\n      iszero\n      tag_226\n      jumpi\n        /* \"#utility.yul\":10923:10932   */\n      dup3\n        /* \"#utility.yul\":10918:10921   */\n      dup8\n        /* \"#utility.yul\":10914:10933   */\n      add\n        /* \"#utility.yul\":10908:10934   */\n      mload\n        /* \"#utility.yul\":10899:10934   */\n      swap1\n      pop\n        /* \"#utility.yul\":10871:10948   */\n    tag_226:\n        /* \"#utility.yul\":10974:11041   */\n      tag_227\n        /* \"#utility.yul\":11034:11040   */\n      dup6\n        /* \"#utility.yul\":11027:11032   */\n      dup3\n        /* \"#utility.yul\":10974:11041   */\n      tag_103\n      jump\t// in\n    tag_227:\n        /* \"#utility.yul\":10968:10972   */\n      dup7\n        /* \"#utility.yul\":10961:11042   */\n      sstore\n        /* \"#utility.yul\":10830:11052   */\n      pop\n        /* \"#utility.yul\":10165:11052   */\n      jump(tag_224)\n        /* \"#utility.yul\":10195:10813   */\n    tag_225:\n        /* \"#utility.yul\":10247:10251   */\n      0x1f\n        /* \"#utility.yul\":10243:10252   */\n      not\n        /* \"#utility.yul\":10235:10241   */\n      dup5\n        /* \"#utility.yul\":10231:10253   */\n      and\n        /* \"#utility.yul\":10281:10318   */\n      tag_228\n        /* \"#utility.yul\":10313:10317   */\n      dup7\n        /* \"#utility.yul\":10281:10318   */\n      tag_89\n      jump\t// in\n    tag_228:\n        /* \"#utility.yul\":10340:10341   */\n      0x00\n        /* \"#utility.yul\":10354:10562   */\n    tag_229:\n        /* \"#utility.yul\":10368:10375   */\n      dup3\n        /* \"#utility.yul\":10365:10366   */\n      dup2\n        /* \"#utility.yul\":10362:10376   */\n      lt\n        /* \"#utility.yul\":10354:10562   */\n      iszero\n      tag_231\n      jumpi\n        /* \"#utility.yul\":10447:10456   */\n      dup5\n        /* \"#utility.yul\":10442:10445   */\n      dup10\n        /* \"#utility.yul\":10438:10457   */\n      add\n        /* \"#utility.yul\":10432:10458   */\n      mload\n        /* \"#utility.yul\":10424:10430   */\n      dup3\n        /* \"#utility.yul\":10417:10459   */\n      sstore\n        /* \"#utility.yul\":10498:10499   */\n      0x01\n        /* \"#utility.yul\":10490:10496   */\n      dup3\n        /* \"#utility.yul\":10486:10500   */\n      add\n        /* \"#utility.yul\":10476:10500   */\n      swap2\n      pop\n        /* \"#utility.yul\":10545:10547   */\n      0x20\n        /* \"#utility.yul\":10534:10543   */\n      dup6\n        /* \"#utility.yul\":10530:10548   */\n      add\n        /* \"#utility.yul\":10517:10548   */\n      swap5\n      pop\n        /* \"#utility.yul\":10391:10395   */\n      0x20\n        /* \"#utility.yul\":10388:10389   */\n      dup2\n        /* \"#utility.yul\":10384:10396   */\n      add\n        /* \"#utility.yul\":10379:10396   */\n      swap1\n      pop\n        /* \"#utility.yul\":10354:10562   */\n      jump(tag_229)\n    tag_231:\n        /* \"#utility.yul\":10590:10596   */\n      dup7\n        /* \"#utility.yul\":10581:10588   */\n      dup4\n        /* \"#utility.yul\":10578:10597   */\n      lt\n        /* \"#utility.yul\":10575:10754   */\n      iszero\n      tag_232\n      jumpi\n        /* \"#utility.yul\":10648:10657   */\n      dup5\n        /* \"#utility.yul\":10643:10646   */\n      dup10\n        /* \"#utility.yul\":10639:10658   */\n      add\n        /* \"#utility.yul\":10633:10659   */\n      mload\n        /* \"#utility.yul\":10691:10739   */\n      tag_233\n        /* \"#utility.yul\":10733:10737   */\n      0x1f\n        /* \"#utility.yul\":10725:10731   */\n      dup10\n        /* \"#utility.yul\":10721:10738   */\n      and\n        /* \"#utility.yul\":10710:10719   */\n      dup3\n        /* \"#utility.yul\":10691:10739   */\n      tag_102\n      jump\t// in\n    tag_233:\n        /* \"#utility.yul\":10683:10689   */\n      dup4\n        /* \"#utility.yul\":10676:10740   */\n      sstore\n        /* \"#utility.yul\":10598:10754   */\n      pop\n        /* \"#utility.yul\":10575:10754   */\n    tag_232:\n        /* \"#utility.yul\":10800:10801   */\n      0x01\n        /* \"#utility.yul\":10796:10797   */\n      0x02\n        /* \"#utility.yul\":10788:10794   */\n      dup9\n        /* \"#utility.yul\":10784:10798   */\n      mul\n        /* \"#utility.yul\":10780:10802   */\n      add\n        /* \"#utility.yul\":10774:10778   */\n      dup9\n        /* \"#utility.yul\":10767:10803   */\n      sstore\n        /* \"#utility.yul\":10202:10813   */\n      pop\n      pop\n      pop\n        /* \"#utility.yul\":10165:11052   */\n    tag_224:\n      pop\n        /* \"#utility.yul\":9755:11058   */\n      pop\n      pop\n      pop\n        /* \"#utility.yul\":9663:11058   */\n      pop\n      pop\n      jump\t// out\n        /* \"#utility.yul\":11064:11487   */\n    tag_35:\n        /* \"#utility.yul\":11205:11209   */\n      0x00\n        /* \"#utility.yul\":11243:11245   */\n      0x40\n        /* \"#utility.yul\":11232:11241   */\n      dup3\n        /* \"#utility.yul\":11228:11246   */\n      add\n        /* \"#utility.yul\":11220:11246   */\n      swap1\n      pop\n        /* \"#utility.yul\":11256:11327   */\n      tag_235\n        /* \"#utility.yul\":11324:11325   */\n      0x00\n        /* \"#utility.yul\":11313:11322   */\n      dup4\n        /* \"#utility.yul\":11309:11326   */\n      add\n        /* \"#utility.yul\":11300:11306   */\n      dup6\n        /* \"#utility.yul\":11256:11327   */\n      tag_87\n      jump\t// in\n    tag_235:\n        /* \"#utility.yul\":11374:11383   */\n      dup2\n        /* \"#utility.yul\":11368:11372   */\n      dup2\n        /* \"#utility.yul\":11364:11384   */\n      sub\n        /* \"#utility.yul\":11359:11361   */\n      0x20\n        /* \"#utility.yul\":11348:11357   */\n      dup4\n        /* \"#utility.yul\":11344:11362   */\n      add\n        /* \"#utility.yul\":11337:11385   */\n      mstore\n        /* \"#utility.yul\":11402:11480   */\n      tag_236\n        /* \"#utility.yul\":11475:11479   */\n      dup2\n        /* \"#utility.yul\":11466:11472   */\n      dup5\n        /* \"#utility.yul\":11402:11480   */\n      tag_86\n      jump\t// in\n    tag_236:\n        /* \"#utility.yul\":11394:11480   */\n      swap1\n      pop\n        /* \"#utility.yul\":11064:11487   */\n      swap4\n      swap3\n      pop\n      pop\n      pop\n      jump\t// out\n        /* \"#utility.yul\":11493:11673   */\n    tag_104:\n        /* \"#utility.yul\":11541:11618   */\n      0x4e487b7100000000000000000000000000000000000000000000000000000000\n        /* \"#utility.yul\":11538:11539   */\n      0x00\n        /* \"#utility.yul\":11531:11619   */\n      mstore\n        /* \"#utility.yul\":11638:11642   */\n      0x11\n        /* \"#utility.yul\":11635:11636   */\n      0x04\n        /* \"#utility.yul\":11628:11643   */\n      mstore\n        /* \"#utility.yul\":11662:11666   */\n      0x24\n        /* \"#utility.yul\":11659:11660   */\n      0x00\n        /* \"#utility.yul\":11652:11667   */\n      revert\n        /* \"#utility.yul\":11679:11912   */\n    tag_37:\n        /* \"#utility.yul\":11718:11721   */\n      0x00\n        /* \"#utility.yul\":11741:11765   */\n      tag_239\n        /* \"#utility.yul\":11759:11764   */\n      dup3\n        /* \"#utility.yul\":11741:11765   */\n      tag_80\n      jump\t// in\n    tag_239:\n        /* \"#utility.yul\":11732:11765   */\n      swap2\n      pop\n        /* \"#utility.yul\":11787:11853   */\n      0xffffffffffffffffffffffffffffffffffffffffffffffffffffffffffffffff\n        /* \"#utility.yul\":11780:11785   */\n      dup3\n        /* \"#utility.yul\":11777:11854   */\n      sub\n        /* \"#utility.yul\":11774:11877   */\n      tag_240\n      jumpi\n        /* \"#utility.yul\":11857:11875   */\n      tag_241\n      tag_104\n      jump\t// in\n    tag_241:\n        /* \"#utility.yul\":11774:11877   */\n    tag_240:\n        /* \"#utility.yul\":11904:11905   */\n      0x01\n        /* \"#utility.yul\":11897:11902   */\n      dup3\n        /* \"#utility.yul\":11893:11906   */\n      add\n        /* \"#utility.yul\":11886:11906   */\n      swap1\n      pop\n        /* \"#utility.yul\":11679:11912   */\n      swap2\n      swap1\n      pop\n      jump\t// out\n        /* \"#utility.yul\":11918:12075   */\n    tag_105:\n        /* \"#utility.yul\":12058:12067   */\n      0x6e6f206974656d00000000000000000000000000000000000000000000000000\n        /* \"#utility.yul\":12054:12055   */\n      0x00\n        /* \"#utility.yul\":12046:12052   */\n      dup3\n        /* \"#utility.yul\":12042:12056   */\n      add\n        /* \"#utility.yul\":12035:12068   */\n      mstore\n        /* \"#utility.yul\":11918:12075   */\n      pop\n      jump\t// out\n        /* \"#utility.yul\":12081:12446   */\n    tag_106:\n        /* \"#utility.yul\":12223:12226   */\n      0x00\n        /* \"#utility.yul\":12244:12310   */\n      tag_244\n        /* \"#utility.yul\":12308:12309   */\n      0x07\n        /* \"#utility.yul\":12303:12306   */\n      dup4\n        /* \"#utility.yul\":12244:12310   */\n      tag_84\n      jump\t// in\n    tag_244:\n        /* \"#utility.yul\":12237:12310   */\n      swap2\n      pop\n        /* \"#utility.yul\":12319:12412   */\n      tag_245\n        /* \"#utility.yul\":12408:12411   */\n      dup3\n        /* \"#utility.yul\":12319:12412   */\n      tag_105\n      jump\t// in\n    tag_245:\n        /* \"#utility.yul\":12437:12439   */\n      0x20\n        /* \"#utility.yul\":12432:12435   */\n      dup3\n        /* \"#utility.yul\":12428:12440   */\n      add\n        /* \"#utility.yul\":12421:12440   */\n      swap1\n      pop\n        /* \"#utility.yul\":12081:12446   */\n      swap2\n      swap1\n      pop\n      jump\t// out\n        /* \"#utility.yul\":12452:12871   */\n    tag_64:\n        /* \"#utility.yul\":12618:12622   */\n      0x00\n        /* \"#utility.yul\":12656:12658   */\n      0x20\n        /* \"#utility.yul\":12645:12654   */\n      dup3\n        /* \"#utility.yul\":12641:12659   */\n      add\n        /* \"#utility.yul\":12633:12659   */\n      swap1\n      pop\n        /* \"#utility.yul\":12705:12714   */\n      dup2\n        /* \"#utility.yul\":12699:12703   */\n      dup2\n        /* \"#utility.yul\":12695:12715   */\n      sub\n        /* \"#utility.yul\":12691:12692   */\n      0x00\n        /* \"#utility.yul\":12680:12689   */\n      dup4\n        /* \"#utility.yul\":12676:12693   */\n      add\n        /* \"#utility.yul\":12669:12716   */\n      mstore\n        /* \"#utility.yul\":12733:12864   */\n      tag_247\n        /* \"#utility.yul\":12859:12863   */\n      dup2\n        /* \"#utility.yul\":12733:12864   */\n      tag_106\n      jump\t// in\n    tag_247:\n        /* \"#utility.yul\":12725:12864   */\n      swap1\n      pop\n        /* \"#utility.yul\":12452:12871   */\n      swap2\n      swap1\n      pop\n      jump\t// out\n\n    auxdata: 0xa26469706673582212201d4a9f5036cf2e47c71d4fa44a354e8d0ba4382f46fc87a142c9dfaaf0ee82df64736f6c634300081e0033\n}\n",
				"bytecode": {
					"linkReferences": {},
					"object": "6080604052348015600e575f5ffd5b50610c768061001c5f395ff3fe608060405234801561000f575f5ffd5b5060043610610055575f3560e01c806327e9f294146100595780633129e7731461007557806361b8ce8c146100a7578063bfb231d2146100c5578063d1b34dd8146100f7575b5f5ffd5b610073600480360381019061006e91906106a0565b610113565b005b61008f600480360381019061008a919061071a565b610201565b60405161009e939291906107b4565b60405180910390f35b6100af610346565b6040516100bc91906107f7565b60405180910390f35b6100df60048036038101906100da919061071a565b61034c565b6040516100ee939291906107b4565b60405180910390f35b610111600480360381019061010c9190610810565b61047d565b005b60405180606001604052808281526020016040518060400160405280600781526020017f43726561746564000000000000000000000000000000000000000000000000008152508152602001428152505f5f60015481526020019081526020015f205f820151815f0190816101889190610a67565b50602082015181600101908161019e9190610a67565b50604082015181600201559050507f78d68ba0e8c23b92e7c700d99efed2719520cbd4af845b2c03ae251f9cdf3d52600154826040516101df929190610b36565b60405180910390a160015f8154809291906101f990610b91565b919050555050565b6060805f5f5f5f8681526020019081526020015f209050805f0181600101826002015482805461023090610897565b80601f016020809104026020016040519081016040528092919081815260200182805461025c90610897565b80156102a75780601f1061027e576101008083540402835291602001916102a7565b820191905f5260205f20905b81548152906001019060200180831161028a57829003601f168201915b505050505092508180546102ba90610897565b80601f01602080910402602001604051908101604052809291908181526020018280546102e690610897565b80156103315780601f1061030857610100808354040283529160200191610331565b820191905f5260205f20905b81548152906001019060200180831161031457829003601f168201915b50505050509150935093509350509193909250565b60015481565b5f602052805f5260405f205f91509050805f01805461036a90610897565b80601f016020809104026020016040519081016040528092919081815260200182805461039690610897565b80156103e15780601f106103b8576101008083540402835291602001916103e1565b820191905f5260205f20905b8154815290600101906020018083116103c457829003601f168201915b5050505050908060010180546103f690610897565b80601f016020809104026020016040519081016040528092919081815260200182805461042290610897565b801561046d5780601f106104445761010080835404028352916020019161046d565b820191905f5260205f20905b81548152906001019060200180831161045057829003601f168201915b5050505050908060020154905083565b5f5f5f8481526020019081526020015f205f01805461049b90610897565b9050036104dd576040517f08c379a00000000000000000000000000000000000000000000000000000000081526004016104d490610c22565b60405180910390fd5b805f5f8481526020019081526020015f2060010190816104fd9190610a67565b50425f5f8481526020019081526020015f20600201819055507fdc280875b120650ffe3edf5f724f07fd086361a32c2a387fe34b495f5679e77d8282604051610547929190610b36565b60405180910390a15050565b5f604051905090565b5f5ffd5b5f5ffd5b5f5ffd5b5f5ffd5b5f601f19601f8301169050919050565b7f4e487b71000000000000000000000000000000000000000000000000000000005f52604160045260245ffd5b6105b28261056c565b810181811067ffffffffffffffff821117156105d1576105d061057c565b5b80604052505050565b5f6105e3610553565b90506105ef82826105a9565b919050565b5f67ffffffffffffffff82111561060e5761060d61057c565b5b6106178261056c565b9050602081019050919050565b828183375f83830152505050565b5f61064461063f846105f4565b6105da565b9050828152602081018484840111156106605761065f610568565b5b61066b848285610624565b509392505050565b5f82601f83011261068757610686610564565b5b8135610697848260208601610632565b91505092915050565b5f602082840312156106b5576106b461055c565b5b5f82013567ffffffffffffffff8111156106d2576106d1610560565b5b6106de84828501610673565b91505092915050565b5f819050919050565b6106f9816106e7565b8114610703575f5ffd5b50565b5f81359050610714816106f0565b92915050565b5f6020828403121561072f5761072e61055c565b5b5f61073c84828501610706565b91505092915050565b5f81519050919050565b5f82825260208201905092915050565b8281835e5f83830152505050565b5f61077782610745565b610781818561074f565b935061079181856020860161075f565b61079a8161056c565b840191505092915050565b6107ae816106e7565b82525050565b5f6060820190508181035f8301526107cc818661076d565b905081810360208301526107e0818561076d565b90506107ef60408301846107a5565b949350505050565b5f60208201905061080a5f8301846107a5565b92915050565b5f5f604083850312156108265761082561055c565b5b5f61083385828601610706565b925050602083013567ffffffffffffffff81111561085457610853610560565b5b61086085828601610673565b9150509250929050565b7f4e487b71000000000000000000000000000000000000000000000000000000005f52602260045260245ffd5b5f60028204905060018216806108ae57607f821691505b6020821081036108c1576108c061086a565b5b50919050565b5f819050815f5260205f209050919050565b5f6020601f8301049050919050565b5f82821b905092915050565b5f600883026109237fffffffffffffffffffffffffffffffffffffffffffffffffffffffffffffffff826108e8565b61092d86836108e8565b95508019841693508086168417925050509392505050565b5f819050919050565b5f61096861096361095e846106e7565b610945565b6106e7565b9050919050565b5f819050919050565b6109818361094e565b61099561098d8261096f565b8484546108f4565b825550505050565b5f5f905090565b6109ac61099d565b6109b7818484610978565b505050565b5b818110156109da576109cf5f826109a4565b6001810190506109bd565b5050565b601f821115610a1f576109f0816108c7565b6109f9846108d9565b81016020851015610a08578190505b610a1c610a14856108d9565b8301826109bc565b50505b505050565b5f82821c905092915050565b5f610a3f5f1984600802610a24565b1980831691505092915050565b5f610a578383610a30565b9150826002028217905092915050565b610a7082610745565b67ffffffffffffffff811115610a8957610a8861057c565b5b610a938254610897565b610a9e8282856109de565b5f60209050601f831160018114610acf575f8415610abd578287015190505b610ac78582610a4c565b865550610b2e565b601f198416610add866108c7565b5f5b82811015610b0457848901518255600182019150602085019450602081019050610adf565b86831015610b215784890151610b1d601f891682610a30565b8355505b6001600288020188555050505b505050505050565b5f604082019050610b495f8301856107a5565b8181036020830152610b5b818461076d565b90509392505050565b7f4e487b71000000000000000000000000000000000000000000000000000000005f52601160045260245ffd5b5f610b9b826106e7565b91507fffffffffffffffffffffffffffffffffffffffffffffffffffffffffffffffff8203610bcd57610bcc610b64565b5b600182019050919050565b7f6e6f206974656d000000000000000000000000000000000000000000000000005f82015250565b5f610c0c60078361074f565b9150610c1782610bd8565b602082019050919050565b5f6020820190508181035f830152610c3981610c00565b905091905056fea26469706673582212201d4a9f5036cf2e47c71d4fa44a354e8d0ba4382f46fc87a142c9dfaaf0ee82df64736f6c634300081e0033",
					"opcodes": "PUSH1 0x80 PUSH1 0x40 MSTORE CALLVALUE DUP1 ISZERO PUSH1 0xE JUMPI PUSH0 PUSH0 REVERT JUMPDEST POP PUSH2 0xC76 DUP1 PUSH2 0x1C PUSH0 CODECOPY PUSH0 RETURN INVALID PUSH1 0x80 PUSH1 0x40 MSTORE CALLVALUE DUP1 ISZERO PUSH2 0xF JUMPI PUSH0 PUSH0 REVERT JUMPDEST POP PUSH1 0x4 CALLDATASIZE LT PUSH2 0x55 JUMPI PUSH0 CALLDATALOAD PUSH1 0xE0 SHR DUP1 PUSH4 0x27E9F294 EQ PUSH2 0x59 JUMPI DUP1 PUSH4 0x3129E773 EQ PUSH2 0x75 JUMPI DUP1 PUSH4 0x61B8CE8C EQ PUSH2 0xA7 JUMPI DUP1 PUSH4 0xBFB231D2 EQ PUSH2 0xC5 JUMPI DUP1 PUSH4 0xD1B34DD8 EQ PUSH2 0xF7 JUMPI JUMPDEST PUSH0 PUSH0 REVERT JUMPDEST PUSH2 0x73 PUSH1 0x4 DUP1 CALLDATASIZE SUB DUP2 ADD SWAP1 PUSH2 0x6E SWAP2 SWAP1 PUSH2 0x6A0 JUMP JUMPDEST PUSH2 0x113 JUMP JUMPDEST STOP JUMPDEST PUSH2 0x8F PUSH1 0x4 DUP1 CALLDATASIZE SUB DUP2 ADD SWAP1 PUSH2 0x8A SWAP2 SWAP1 PUSH2 0x71A JUMP JUMPDEST PUSH2 0x201 JUMP JUMPDEST PUSH1 0x40 MLOAD PUSH2 0x9E SWAP4 SWAP3 SWAP2 SWAP1 PUSH2 0x7B4 JUMP JUMPDEST PUSH1 0x40 MLOAD DUP1 SWAP2 SUB SWAP1 RETURN JUMPDEST PUSH2 0xAF PUSH2 0x346 JUMP JUMPDEST PUSH1 0x40 MLOAD PUSH2 0xBC SWAP2 SWAP1 PUSH2 0x7F7 JUMP JUMPDEST PUSH1 0x40 MLOAD DUP1 SWAP2 SUB SWAP1 RETURN JUMPDEST PUSH2 0xDF PUSH1 0x4 DUP1 CALLDATASIZE SUB DUP2 ADD SWAP1 PUSH2 0xDA SWAP2 SWAP1 PUSH2 0x71A JUMP JUMPDEST PUSH2 0x34C JUMP JUMPDEST PUSH1 0x40 MLOAD PUSH2 0xEE SWAP4 SWAP3 SWAP2 SWAP1 PUSH2 0x7B4 JUMP JUMPDEST PUSH1 0x40 MLOAD DUP1 SWAP2 SUB SWAP1 RETURN JUMPDEST PUSH2 0x111 PUSH1 0x4 DUP1 CALLDATASIZE SUB DUP2 ADD SWAP1 PUSH2 0x10C SWAP2 SWAP1 PUSH2 0x810 JUMP JUMPDEST PUSH2 0x47D JUMP JUMPDEST STOP JUMPDEST PUSH1 0x40 MLOAD DUP1 PUSH1 0x60 ADD PUSH1 0x40 MSTORE DUP1 DUP3 DUP2 MSTORE PUSH1 0x20 ADD PUSH1 0x40 MLOAD DUP1 PUSH1 0x40 ADD PUSH1 0x40 MSTORE DUP1 PUSH1 0x7 DUP2 MSTORE PUSH1 0x20 ADD PUSH32 0x4372656174656400000000000000000000000000000000000000000000000000 DUP2 MSTORE POP DUP2 MSTORE PUSH1 0x20 ADD TIMESTAMP DUP2 MSTORE POP PUSH0 PUSH0 PUSH1 0x1 SLOAD DUP2 MSTORE PUSH1 0x20 ADD SWAP1 DUP2 MSTORE PUSH1 0x20 ADD PUSH0 KECCAK256 PUSH0 DUP3 ADD MLOAD DUP2 PUSH0 ADD SWAP1 DUP2 PUSH2 0x188 SWAP2 SWAP1 PUSH2 0xA67 JUMP JUMPDEST POP PUSH1 0x20 DUP3 ADD MLOAD DUP2 PUSH1 0x1 ADD SWAP1 DUP2 PUSH2 0x19E SWAP2 SWAP1 PUSH2 0xA67 JUMP JUMPDEST POP PUSH1 0x40 DUP3 ADD MLOAD DUP2 PUSH1 0x2 ADD SSTORE SWAP1 POP POP PUSH32 0x78D68BA0E8C23B92E7C700D99EFED2719520CBD4AF845B2C03AE251F9CDF3D52 PUSH1 0x1 SLOAD DUP3 PUSH1 0x40 MLOAD PUSH2 0x1DF SWAP3 SWAP2 SWAP1 PUSH2 0xB36 JUMP JUMPDEST PUSH1 0x40 MLOAD DUP1 SWAP2 SUB SWAP1 LOG1 PUSH1 0x1 PUSH0 DUP2 SLOAD DUP1 SWAP3 SWAP2 SWAP1 PUSH2 0x1F9 SWAP1 PUSH2 0xB91 JUMP JUMPDEST SWAP2 SWAP1 POP SSTORE POP POP JUMP JUMPDEST PUSH1 0x60 DUP1 PUSH0 PUSH0 PUSH0 PUSH0 DUP7 DUP2 MSTORE PUSH1 0x20 ADD SWAP1 DUP2 MSTORE PUSH1 0x20 ADD PUSH0 KECCAK256 SWAP1 POP DUP1 PUSH0 ADD DUP2 PUSH1 0x1 ADD DUP3 PUSH1 0x2 ADD SLOAD DUP3 DUP1 SLOAD PUSH2 0x230 SWAP1 PUSH2 0x897 JUMP JUMPDEST DUP1 PUSH1 0x1F ADD PUSH1 0x20 DUP1 SWAP2 DIV MUL PUSH1 0x20 ADD PUSH1 0x40 MLOAD SWAP1 DUP2 ADD PUSH1 0x40 MSTORE DUP1 SWAP3 SWAP2 SWAP1 DUP2 DUP2 MSTORE PUSH1 0x20 ADD DUP3 DUP1 SLOAD PUSH2 0x25C SWAP1 PUSH2 0x897 JUMP JUMPDEST DUP1 ISZERO PUSH2 0x2A7 JUMPI DUP1 PUSH1 0x1F LT PUSH2 0x27E JUMPI PUSH2 0x100 DUP1 DUP4 SLOAD DIV MUL DUP4 MSTORE SWAP2 PUSH1 0x20 ADD SWAP2 PUSH2 0x2A7 JUMP JUMPDEST DUP3 ADD SWAP2 SWAP1 PUSH0 MSTORE PUSH1 0x20 PUSH0 KECCAK256 SWAP1 JUMPDEST DUP2 SLOAD DUP2 MSTORE SWAP1 PUSH1 0x1 ADD SWAP1 PUSH1 0x20 ADD DUP1 DUP4 GT PUSH2 0x28A JUMPI DUP3 SWAP1 SUB PUSH1 0x1F AND DUP3 ADD SWAP2 JUMPDEST POP POP POP POP POP SWAP3 POP DUP2 DUP1 SLOAD PUSH2 0x2BA SWAP1 PUSH2 0x897 JUMP JUMPDEST DUP1 PUSH1 0x1F ADD PUSH1 0x20 DUP1 SWAP2 DIV MUL PUSH1 0x20 ADD PUSH1 0x40 MLOAD SWAP1 DUP2 ADD PUSH1 0x40 MSTORE DUP1 SWAP3 SWAP2 SWAP1 DUP2 DUP2 MSTORE PUSH1 0x20 ADD DUP3 DUP1 SLOAD PUSH2 0x2E6 SWAP1 PUSH2 0x897 JUMP JUMPDEST DUP1 ISZERO PUSH2 0x331 JUMPI DUP1 PUSH1 0x1F LT PUSH2 0x308 JUMPI PUSH2 0x100 DUP1 DUP4 SLOAD DIV MUL DUP4 MSTORE SWAP2 PUSH1 0x20 ADD SWAP2 PUSH2 0x331 JUMP JUMPDEST DUP3 ADD SWAP2 SWAP1 PUSH0 MSTORE PUSH1 0x20 PUSH0 KECCAK256 SWAP1 JUMPDEST DUP2 SLOAD DUP2 MSTORE SWAP1 PUSH1 0x1 ADD SWAP1 PUSH1 0x20 ADD DUP1 DUP4 GT PUSH2 0x314 JUMPI DUP3 SWAP1 SUB PUSH1 0x1F AND DUP3 ADD SWAP2 JUMPDEST POP POP POP POP POP SWAP2 POP SWAP4 POP SWAP4 POP SWAP4 POP POP SWAP2 SWAP4 SWAP1 SWAP3 POP JUMP JUMPDEST PUSH1 0x1 SLOAD DUP2 JUMP JUMPDEST PUSH0 PUSH1 0x20 MSTORE DUP1 PUSH0 MSTORE PUSH1 0x40 PUSH0 KECCAK256 PUSH0 SWAP2 POP SWAP1 POP DUP1 PUSH0 ADD DUP1 SLOAD PUSH2 0x36A SWAP1 PUSH2 0x897 JUMP JUMPDEST DUP1 PUSH1 0x1F ADD PUSH1 0x20 DUP1 SWAP2 DIV MUL PUSH1 0x20 ADD PUSH1 0x40 MLOAD SWAP1 DUP2 ADD PUSH1 0x40 MSTORE DUP1 SWAP3 SWAP2 SWAP1 DUP2 DUP2 MSTORE PUSH1 0x20 ADD DUP3 DUP1 SLOAD PUSH2 0x396 SWAP1 PUSH2 0x897 JUMP JUMPDEST DUP1 ISZERO PUSH2 0x3E1 JUMPI DUP1 PUSH1 0x1F LT PUSH2 0x3B8 JUMPI PUSH2 0x100 DUP1 DUP4 SLOAD DIV MUL DUP4 MSTORE SWAP2 PUSH1 0x20 ADD SWAP2 PUSH2 0x3E1 JUMP JUMPDEST DUP3 ADD SWAP2 SWAP1 PUSH0 MSTORE PUSH1 0x20 PUSH0 KECCAK256 SWAP1 JUMPDEST DUP2 SLOAD DUP2 MSTORE SWAP1 PUSH1 0x1 ADD SWAP1 PUSH1 0x20 ADD DUP1 DUP4 GT PUSH2 0x3C4 JUMPI DUP3 SWAP1 SUB PUSH1 0x1F AND DUP3 ADD SWAP2 JUMPDEST POP POP POP POP POP SWAP1 DUP1 PUSH1 0x1 ADD DUP1 SLOAD PUSH2 0x3F6 SWAP1 PUSH2 0x897 JUMP JUMPDEST DUP1 PUSH1 0x1F ADD PUSH1 0x20 DUP1 SWAP2 DIV MUL PUSH1 0x20 ADD PUSH1 0x40 MLOAD SWAP1 DUP2 ADD PUSH1 0x40 MSTORE DUP1 SWAP3 SWAP2 SWAP1 DUP2 DUP2 MSTORE PUSH1 0x20 ADD DUP3 DUP1 SLOAD PUSH2 0x422 SWAP1 PUSH2 0x897 JUMP JUMPDEST DUP1 ISZERO PUSH2 0x46D JUMPI DUP1 PUSH1 0x1F LT PUSH2 0x444 JUMPI PUSH2 0x100 DUP1 DUP4 SLOAD DIV MUL DUP4 MSTORE SWAP2 PUSH1 0x20 ADD SWAP2 PUSH2 0x46D JUMP JUMPDEST DUP3 ADD SWAP2 SWAP1 PUSH0 MSTORE PUSH1 0x20 PUSH0 KECCAK256 SWAP1 JUMPDEST DUP2 SLOAD DUP2 MSTORE SWAP1 PUSH1 0x1 ADD SWAP1 PUSH1 0x20 ADD DUP1 DUP4 GT PUSH2 0x450 JUMPI DUP3 SWAP1 SUB PUSH1 0x1F AND DUP3 ADD SWAP2 JUMPDEST POP POP POP POP POP SWAP1 DUP1 PUSH1 0x2 ADD SLOAD SWAP1 POP DUP4 JUMP JUMPDEST PUSH0 PUSH0 PUSH0 DUP5 DUP2 MSTORE PUSH1 0x20 ADD SWAP1 DUP2 MSTORE PUSH1 0x20 ADD PUSH0 KECCAK256 PUSH0 ADD DUP1 SLOAD PUSH2 0x49B SWAP1 PUSH2 0x897 JUMP JUMPDEST SWAP1 POP SUB PUSH2 0x4DD JUMPI PUSH1 0x40 MLOAD PUSH32 0x8C379A000000000000000000000000000000000000000000000000000000000 DUP2 MSTORE PUSH1 0x4 ADD PUSH2 0x4D4 SWAP1 PUSH2 0xC22 JUMP JUMPDEST PUSH1 0x40 MLOAD DUP1 SWAP2 SUB SWAP1 REVERT JUMPDEST DUP1 PUSH0 PUSH0 DUP5 DUP2 MSTORE PUSH1 0x20 ADD SWAP1 DUP2 MSTORE PUSH1 0x20 ADD PUSH0 KECCAK256 PUSH1 0x1 ADD SWAP1 DUP2 PUSH2 0x4FD SWAP2 SWAP1 PUSH2 0xA67 JUMP JUMPDEST POP TIMESTAMP PUSH0 PUSH0 DUP5 DUP2 MSTORE PUSH1 0x20 ADD SWAP1 DUP2 MSTORE PUSH1 0x20 ADD PUSH0 KECCAK256 PUSH1 0x2 ADD DUP2 SWAP1 SSTORE POP PUSH32 0xDC280875B120650FFE3EDF5F724F07FD086361A32C2A387FE34B495F5679E77D DUP3 DUP3 PUSH1 0x40 MLOAD PUSH2 0x547 SWAP3 SWAP2 SWAP1 PUSH2 0xB36 JUMP JUMPDEST PUSH1 0x40 MLOAD DUP1 SWAP2 SUB SWAP1 LOG1 POP POP JUMP JUMPDEST PUSH0 PUSH1 0x40 MLOAD SWAP1 POP SWAP1 JUMP JUMPDEST PUSH0 PUSH0 REVERT JUMPDEST PUSH0 PUSH0 REVERT JUMPDEST PUSH0 PUSH0 REVERT JUMPDEST PUSH0 PUSH0 REVERT JUMPDEST PUSH0 PUSH1 0x1F NOT PUSH1 0x1F DUP4 ADD AND SWAP1 POP SWAP2 SWAP1 POP JUMP JUMPDEST PUSH32 0x4E487B7100000000000000000000000000000000000000000000000000000000 PUSH0 MSTORE PUSH1 0x41 PUSH1 0x4 MSTORE PUSH1 0x24 PUSH0 REVERT JUMPDEST PUSH2 0x5B2 DUP3 PUSH2 0x56C JUMP JUMPDEST DUP2 ADD DUP2 DUP2 LT PUSH8 0xFFFFFFFFFFFFFFFF DUP3 GT OR ISZERO PUSH2 0x5D1 JUMPI PUSH2 0x5D0 PUSH2 0x57C JUMP JUMPDEST JUMPDEST DUP1 PUSH1 0x40 MSTORE POP POP POP JUMP JUMPDEST PUSH0 PUSH2 0x5E3 PUSH2 0x553 JUMP JUMPDEST SWAP1 POP PUSH2 0x5EF DUP3 DUP3 PUSH2 0x5A9 JUMP JUMPDEST SWAP2 SWAP1 POP JUMP JUMPDEST PUSH0 PUSH8 0xFFFFFFFFFFFFFFFF DUP3 GT ISZERO PUSH2 0x60E JUMPI PUSH2 0x60D PUSH2 0x57C JUMP JUMPDEST JUMPDEST PUSH2 0x617 DUP3 PUSH2 0x56C JUMP JUMPDEST SWAP1 POP PUSH1 0x20 DUP2 ADD SWAP1 POP SWAP2 SWAP1 POP JUMP JUMPDEST DUP3 DUP2 DUP4 CALLDATACOPY PUSH0 DUP4 DUP4 ADD MSTORE POP POP POP JUMP JUMPDEST PUSH0 PUSH2 0x644 PUSH2 0x63F DUP5 PUSH2 0x5F4 JUMP JUMPDEST PUSH2 0x5DA JUMP JUMPDEST SWAP1 POP DUP3 DUP2 MSTORE PUSH1 0x20 DUP2 ADD DUP5 DUP5 DUP5 ADD GT ISZERO PUSH2 0x660 JUMPI PUSH2 0x65F PUSH2 0x568 JUMP JUMPDEST JUMPDEST PUSH2 0x66B DUP5 DUP3 DUP6 PUSH2 0x624 JUMP JUMPDEST POP SWAP4 SWAP3 POP POP POP JUMP JUMPDEST PUSH0 DUP3 PUSH1 0x1F DUP4 ADD SLT PUSH2 0x687 JUMPI PUSH2 0x686 PUSH2 0x564 JUMP JUMPDEST JUMPDEST DUP2 CALLDATALOAD PUSH2 0x697 DUP5 DUP3 PUSH1 0x20 DUP7 ADD PUSH2 0x632 JUMP JUMPDEST SWAP2 POP POP SWAP3 SWAP2 POP POP JUMP JUMPDEST PUSH0 PUSH1 0x20 DUP3 DUP5 SUB SLT ISZERO PUSH2 0x6B5 JUMPI PUSH2 0x6B4 PUSH2 0x55C JUMP JUMPDEST JUMPDEST PUSH0 DUP3 ADD CALLDATALOAD PUSH8 0xFFFFFFFFFFFFFFFF DUP2 GT ISZERO PUSH2 0x6D2 JUMPI PUSH2 0x6D1 PUSH2 0x560 JUMP JUMPDEST JUMPDEST PUSH2 0x6DE DUP5 DUP3 DUP6 ADD PUSH2 0x673 JUMP JUMPDEST SWAP2 POP POP SWAP3 SWAP2 POP POP JUMP JUMPDEST PUSH0 DUP2 SWAP1 POP SWAP2 SWAP1 POP JUMP JUMPDEST PUSH2 0x6F9 DUP2 PUSH2 0x6E7 JUMP JUMPDEST DUP2 EQ PUSH2 0x703 JUMPI PUSH0 PUSH0 REVERT JUMPDEST POP JUMP JUMPDEST PUSH0 DUP2 CALLDATALOAD SWAP1 POP PUSH2 0x714 DUP2 PUSH2 0x6F0 JUMP JUMPDEST SWAP3 SWAP2 POP POP JUMP JUMPDEST PUSH0 PUSH1 0x20 DUP3 DUP5 SUB SLT ISZERO PUSH2 0x72F JUMPI PUSH2 0x72E PUSH2 0x55C JUMP JUMPDEST JUMPDEST PUSH0 PUSH2 0x73C DUP5 DUP3 DUP6 ADD PUSH2 0x706 JUMP JUMPDEST SWAP2 POP POP SWAP3 SWAP2 POP POP JUMP JUMPDEST PUSH0 DUP2 MLOAD SWAP1 POP SWAP2 SWAP1 POP JUMP JUMPDEST PUSH0 DUP3 DUP3 MSTORE PUSH1 0x20 DUP3 ADD SWAP1 POP SWAP3 SWAP2 POP POP JUMP JUMPDEST DUP3 DUP2 DUP4 MCOPY PUSH0 DUP4 DUP4 ADD MSTORE POP POP POP JUMP JUMPDEST PUSH0 PUSH2 0x777 DUP3 PUSH2 0x745 JUMP JUMPDEST PUSH2 0x781 DUP2 DUP6 PUSH2 0x74F JUMP JUMPDEST SWAP4 POP PUSH2 0x791 DUP2 DUP6 PUSH1 0x20 DUP7 ADD PUSH2 0x75F JUMP JUMPDEST PUSH2 0x79A DUP2 PUSH2 0x56C JUMP JUMPDEST DUP5 ADD SWAP2 POP POP SWAP3 SWAP2 POP POP JUMP JUMPDEST PUSH2 0x7AE DUP2 PUSH2 0x6E7 JUMP JUMPDEST DUP3 MSTORE POP POP JUMP JUMPDEST PUSH0 PUSH1 0x60 DUP3 ADD SWAP1 POP DUP2 DUP2 SUB PUSH0 DUP4 ADD MSTORE PUSH2 0x7CC DUP2 DUP7 PUSH2 0x76D JUMP JUMPDEST SWAP1 POP DUP2 DUP2 SUB PUSH1 0x20 DUP4 ADD MSTORE PUSH2 0x7E0 DUP2 DUP6 PUSH2 0x76D JUMP JUMPDEST SWAP1 POP PUSH2 0x7EF PUSH1 0x40 DUP4 ADD DUP5 PUSH2 0x7A5 JUMP JUMPDEST SWAP5 SWAP4 POP POP POP POP JUMP JUMPDEST PUSH0 PUSH1 0x20 DUP3 ADD SWAP1 POP PUSH2 0x80A PUSH0 DUP4 ADD DUP5 PUSH2 0x7A5 JUMP JUMPDEST SWAP3 SWAP2 POP POP JUMP JUMPDEST PUSH0 PUSH0 PUSH1 0x40 DUP4 DUP6 SUB SLT ISZERO PUSH2 0x826 JUMPI PUSH2 0x825 PUSH2 0x55C JUMP JUMPDEST JUMPDEST PUSH0 PUSH2 0x833 DUP6 DUP3 DUP7 ADD PUSH2 0x706 JUMP JUMPDEST SWAP3 POP POP PUSH1 0x20 DUP4 ADD CALLDATALOAD PUSH8 0xFFFFFFFFFFFFFFFF DUP2 GT ISZERO PUSH2 0x854 JUMPI PUSH2 0x853 PUSH2 0x560 JUMP JUMPDEST JUMPDEST PUSH2 0x860 DUP6 DUP3 DUP7 ADD PUSH2 0x673 JUMP JUMPDEST SWAP2 POP POP SWAP3 POP SWAP3 SWAP1 POP JUMP JUMPDEST PUSH32 0x4E487B7100000000000000000000000000000000000000000000000000000000 PUSH0 MSTORE PUSH1 0x22 PUSH1 0x4 MSTORE PUSH1 0x24 PUSH0 REVERT JUMPDEST PUSH0 PUSH1 0x2 DUP3 DIV SWAP1 POP PUSH1 0x1 DUP3 AND DUP1 PUSH2 0x8AE JUMPI PUSH1 0x7F DUP3 AND SWAP2 POP JUMPDEST PUSH1 0x20 DUP3 LT DUP2 SUB PUSH2 0x8C1 JUMPI PUSH2 0x8C0 PUSH2 0x86A JUMP JUMPDEST JUMPDEST POP SWAP2 SWAP1 POP JUMP JUMPDEST PUSH0 DUP2 SWAP1 POP DUP2 PUSH0 MSTORE PUSH1 0x20 PUSH0 KECCAK256 SWAP1 POP SWAP2 SWAP1 POP JUMP JUMPDEST PUSH0 PUSH1 0x20 PUSH1 0x1F DUP4 ADD DIV SWAP1 POP SWAP2 SWAP1 POP JUMP JUMPDEST PUSH0 DUP3 DUP3 SHL SWAP1 POP SWAP3 SWAP2 POP POP JUMP JUMPDEST PUSH0 PUSH1 0x8 DUP4 MUL PUSH2 0x923 PUSH32 0xFFFFFFFFFFFFFFFFFFFFFFFFFFFFFFFFFFFFFFFFFFFFFFFFFFFFFFFFFFFFFFFF DUP3 PUSH2 0x8E8 JUMP JUMPDEST PUSH2 0x92D DUP7 DUP4 PUSH2 0x8E8 JUMP JUMPDEST SWAP6 POP DUP1 NOT DUP5 AND SWAP4 POP DUP1 DUP7 AND DUP5 OR SWAP3 POP POP POP SWAP4 SWAP3 POP POP POP JUMP JUMPDEST PUSH0 DUP2 SWAP1 POP SWAP2 SWAP1 POP JUMP JUMPDEST PUSH0 PUSH2 0x968 PUSH2 0x963 PUSH2 0x95E DUP5 PUSH2 0x6E7 JUMP JUMPDEST PUSH2 0x945 JUMP JUMPDEST PUSH2 0x6E7 JUMP JUMPDEST SWAP1 POP SWAP2 SWAP1 POP JUMP JUMPDEST PUSH0 DUP2 SWAP1 POP SWAP2 SWAP1 POP JUMP JUMPDEST PUSH2 0x981 DUP4 PUSH2 0x94E JUMP JUMPDEST PUSH2 0x995 PUSH2 0x98D DUP3 PUSH2 0x96F JUMP JUMPDEST DUP5 DUP5 SLOAD PUSH2 0x8F4 JUMP JUMPDEST DUP3 SSTORE POP POP POP POP JUMP JUMPDEST PUSH0 PUSH0 SWAP1 POP SWAP1 JUMP JUMPDEST PUSH2 0x9AC PUSH2 0x99D JUMP JUMPDEST PUSH2 0x9B7 DUP2 DUP5 DUP5 PUSH2 0x978 JUMP JUMPDEST POP POP POP JUMP JUMPDEST JUMPDEST DUP2 DUP2 LT ISZERO PUSH2 0x9DA JUMPI PUSH2 0x9CF PUSH0 DUP3 PUSH2 0x9A4 JUMP JUMPDEST PUSH1 0x1 DUP2 ADD SWAP1 POP PUSH2 0x9BD JUMP JUMPDEST POP POP JUMP JUMPDEST PUSH1 0x1F DUP3 GT ISZERO PUSH2 0xA1F JUMPI PUSH2 0x9F0 DUP2 PUSH2 0x8C7 JUMP JUMPDEST PUSH2 0x9F9 DUP5 PUSH2 0x8D9 JUMP JUMPDEST DUP2 ADD PUSH1 0x20 DUP6 LT ISZERO PUSH2 0xA08 JUMPI DUP2 SWAP1 POP JUMPDEST PUSH2 0xA1C PUSH2 0xA14 DUP6 PUSH2 0x8D9 JUMP JUMPDEST DUP4 ADD DUP3 PUSH2 0x9BC JUMP JUMPDEST POP POP JUMPDEST POP POP POP JUMP JUMPDEST PUSH0 DUP3 DUP3 SHR SWAP1 POP SWAP3 SWAP2 POP POP JUMP JUMPDEST PUSH0 PUSH2 0xA3F PUSH0 NOT DUP5 PUSH1 0x8 MUL PUSH2 0xA24 JUMP JUMPDEST NOT DUP1 DUP4 AND SWAP2 POP POP SWAP3 SWAP2 POP POP JUMP JUMPDEST PUSH0 PUSH2 0xA57 DUP4 DUP4 PUSH2 0xA30 JUMP JUMPDEST SWAP2 POP DUP3 PUSH1 0x2 MUL DUP3 OR SWAP1 POP SWAP3 SWAP2 POP POP JUMP JUMPDEST PUSH2 0xA70 DUP3 PUSH2 0x745 JUMP JUMPDEST PUSH8 0xFFFFFFFFFFFFFFFF DUP2 GT ISZERO PUSH2 0xA89 JUMPI PUSH2 0xA88 PUSH2 0x57C JUMP JUMPDEST JUMPDEST PUSH2 0xA93 DUP3 SLOAD PUSH2 0x897 JUMP JUMPDEST PUSH2 0xA9E DUP3 DUP3 DUP6 PUSH2 0x9DE JUMP JUMPDEST PUSH0 PUSH1 0x20 SWAP1 POP PUSH1 0x1F DUP4 GT PUSH1 0x1 DUP2 EQ PUSH2 0xACF JUMPI PUSH0 DUP5 ISZERO PUSH2 0xABD JUMPI DUP3 DUP8 ADD MLOAD SWAP1 POP JUMPDEST PUSH2 0xAC7 DUP6 DUP3 PUSH2 0xA4C JUMP JUMPDEST DUP7 SSTORE POP PUSH2 0xB2E JUMP JUMPDEST PUSH1 0x1F NOT DUP5 AND PUSH2 0xADD DUP7 PUSH2 0x8C7 JUMP JUMPDEST PUSH0 JUMPDEST DUP3 DUP2 LT ISZERO PUSH2 0xB04 JUMPI DUP5 DUP10 ADD MLOAD DUP3 SSTORE PUSH1 0x1 DUP3 ADD SWAP2 POP PUSH1 0x20 DUP6 ADD SWAP5 POP PUSH1 0x20 DUP2 ADD SWAP1 POP PUSH2 0xADF JUMP JUMPDEST DUP7 DUP4 LT ISZERO PUSH2 0xB21 JUMPI DUP5 DUP10 ADD MLOAD PUSH2 0xB1D PUSH1 0x1F DUP10 AND DUP3 PUSH2 0xA30 JUMP JUMPDEST DUP4 SSTORE POP JUMPDEST PUSH1 0x1 PUSH1 0x2 DUP9 MUL ADD DUP9 SSTORE POP POP POP JUMPDEST POP POP POP POP POP POP JUMP JUMPDEST PUSH0 PUSH1 0x40 DUP3 ADD SWAP1 POP PUSH2 0xB49 PUSH0 DUP4 ADD DUP6 PUSH2 0x7A5 JUMP JUMPDEST DUP2 DUP2 SUB PUSH1 0x20 DUP4 ADD MSTORE PUSH2 0xB5B DUP2 DUP5 PUSH2 0x76D JUMP JUMPDEST SWAP1 POP SWAP4 SWAP3 POP POP POP JUMP JUMPDEST PUSH32 0x4E487B7100000000000000000000000000000000000000000000000000000000 PUSH0 MSTORE PUSH1 0x11 PUSH1 0x4 MSTORE PUSH1 0x24 PUSH0 REVERT JUMPDEST PUSH0 PUSH2 0xB9B DUP3 PUSH2 0x6E7 JUMP JUMPDEST SWAP2 POP PUSH32 0xFFFFFFFFFFFFFFFFFFFFFFFFFFFFFFFFFFFFFFFFFFFFFFFFFFFFFFFFFFFFFFFF DUP3 SUB PUSH2 0xBCD JUMPI PUSH2 0xBCC PUSH2 0xB64 JUMP JUMPDEST JUMPDEST PUSH1 0x1 DUP3 ADD SWAP1 POP SWAP2 SWAP1 POP JUMP JUMPDEST PUSH32 0x6E6F206974656D00000000000000000000000000000000000000000000000000 PUSH0 DUP3 ADD MSTORE POP JUMP JUMPDEST PUSH0 PUSH2 0xC0C PUSH1 0x7 DUP4 PUSH2 0x74F JUMP JUMPDEST SWAP2 POP PUSH2 0xC17 DUP3 PUSH2 0xBD8 JUMP JUMPDEST PUSH1 0x20 DUP3 ADD SWAP1 POP SWAP2 SWAP1 POP JUMP JUMPDEST PUSH0 PUSH1 0x20 DUP3 ADD SWAP1 POP DUP2 DUP2 SUB PUSH0 DUP4 ADD MSTORE PUSH2 0xC39 DUP2 PUSH2 0xC00 JUMP JUMPDEST SWAP1 POP SWAP2 SWAP1 POP JUMP INVALID LOG2 PUSH5 0x6970667358 0x22 SLT KECCAK256 SAR BLOBBASEFEE SWAP16 POP CALLDATASIZE 0xCF 0x2E SELFBALANCE 0xC7 SAR 0x4F LOG4 BLOBBASEFEE CALLDATALOAD 0x4E DUP14 SIGNEXTEND LOG4 CODESIZE 0x2F CHAINID 0xFC DUP8 LOG1 TIMESTAMP 0xC9 0xDF 0xAA CREATE RETURNCONTRACT 0x82 0xDF PUSH5 0x736F6C6343 STOP ADDMOD 0x1E STOP CALLER "
				},
				"gasEstimates": {
					"creation": {
						"codeDepositCost": "638000",
						"executionCost": "668",
						"totalCost": "638668"
					},
					"external": {
						"addItem(string)": "infinite",
						"getItem(uint256)": "infinite",
						"items(uint256)": "infinite",
						"nextId()": "2447",
						"updateStatus(uint256,string)": "infinite"
					}
				},
				"methodIdentifiers": {
					"addItem(string)": "27e9f294",
					"getItem(uint256)": "3129e773",
					"items(uint256)": "bfb231d2",
					"nextId()": "61b8ce8c",
					"updateStatus(uint256,string)": "d1b34dd8"
				}
			},
			"storageLayout": {
				"storage": [
					{
						"astId": 13,
						"contract": "contracts/SupplyChain.sol:SupplyChain",
						"label": "items",
						"offset": 0,
						"slot": "0",
						"type": "t_mapping(t_uint256,t_struct(Item)8_storage)"
					},
					{
						"astId": 15,
						"contract": "contracts/SupplyChain.sol:SupplyChain",
						"label": "nextId",
						"offset": 0,
						"slot": "1",
						"type": "t_uint256"
					}
				],
				"types": {
					"t_mapping(t_uint256,t_struct(Item)8_storage)": {
						"encoding": "mapping",
						"key": "t_uint256",
						"label": "mapping(uint256 => struct SupplyChain.Item)",
						"numberOfBytes": "32",
						"value": "t_struct(Item)8_storage"
					},
					"t_string_storage": {
						"encoding": "bytes",
						"label": "string",
						"numberOfBytes": "32"
					},
					"t_struct(Item)8_storage": {
						"encoding": "inplace",
						"label": "struct SupplyChain.Item",
						"members": [
							{
								"astId": 3,
								"contract": "contracts/SupplyChain.sol:SupplyChain",
								"label": "name",
								"offset": 0,
								"slot": "0",
								"type": "t_string_storage"
							},
							{
								"astId": 5,
								"contract": "contracts/SupplyChain.sol:SupplyChain",
								"label": "status",
								"offset": 0,
								"slot": "1",
								"type": "t_string_storage"
							},
							{
								"astId": 7,
								"contract": "contracts/SupplyChain.sol:SupplyChain",
								"label": "updatedAt",
								"offset": 0,
								"slot": "2",
								"type": "t_uint256"
							}
						],
						"numberOfBytes": "96"
					},
					"t_uint256": {
						"encoding": "inplace",
						"label": "uint256",
						"numberOfBytes": "32"
					}
				}
			},
			"userdoc": {
				"kind": "user",
				"methods": {},
				"version": 1
			}
		}
	}
}