{
	"data": {
		"bytecode": {
			"linkReferences": {},
			"object": "60806040526001600955348015610014575f5ffd5b50604051612e52380380612e5283398181016040528101906100369190610127565b5f8211610078576040517f08c379a000000000000000000000000000000000000000000000000000000000815260040161006f906101bf565b60405180910390fd5b335f5f6101000a81548173ffffffffffffffffffffffffffffffffffffffff021916908373ffffffffffffffffffffffffffffffffffffffff1602179055508160018190555080426100ca919061020a565b6002819055505f60045f6101000a81548160ff021916908315150217905550505061023d565b5f5ffd5b5f819050919050565b610106816100f4565b8114610110575f5ffd5b50565b5f81519050610121816100fd565b92915050565b5f5f6040838503121561013d5761013c6100f0565b5b5f61014a85828601610113565b925050602061015b85828601610113565b9150509250929050565b5f82825260208201905092915050565b7f546172676574206d757374206265203e203000000000000000000000000000005f82015250565b5f6101a9601283610165565b91506101b482610175565b602082019050919050565b5f6020820190508181035f8301526101d68161019d565b9050919050565b7f4e487b71000000000000000000000000000000000000000000000000000000005f52601160045260245ffd5b5f610214826100f4565b915061021f836100f4565b9250828201905080821115610237576102366101dd565b5b92915050565b612c088061024a5f395ff3fe60806040526004361061010c575f3560e01c80634cb6f4a511610094578063c58343ef11610063578063c58343ef1461058c578063c59ee1dc146105cc578063d4b83992146105f6578063d7bb99ba14610620578063e14ed0451461062a57610345565b80634cb6f4a5146104fa578063590e1ae3146105225780637569b3d7146105385780637d3d65221461056257610345565b80633410452a116100db5780633410452a146103fd5780634051ddac1461042757806342e94c90146104585780634385963214610494578063481c6a75146104d057610345565b806303441006146103475780631b16bb5c1461036f5780631d0d35f51461039757806329dcb0cf146103d357610345565b36610345576002544210610155576040517f08c379a000000000000000000000000000000000000000000000000000000000815260040161014c9061194d565b60405180910390fd5b60085f3373ffffffffffffffffffffffffffffffffffffffff1673ffffffffffffffffffffffffffffffffffffffff1681526020019081526020015f205f9054906101000a900460ff1661021257600160085f3373ffffffffffffffffffffffffffffffffffffffff1673ffffffffffffffffffffffffffffffffffffffff1681526020019081526020015f205f6101000a81548160ff021916908315150217905550600160055f82825461020a91906119a1565b925050819055505b3460075f3373ffffffffffffffffffffffffffffffffffffffff1673ffffffffffffffffffffffffffffffffffffffff1681526020019081526020015f205f82825461025e91906119a1565b925050819055503460035f82825461027691906119a1565b9250508190555060045f9054906101000a900460ff1615801561029d575060015460035410155b156102f657600160045f6101000a81548160ff0219169083151502179055507ffbfd8ab7c24300fa9888cd721c8565a7da56759384781283684dcf7c7c4a846b6003546040516102ed91906119e3565b60405180910390a15b3373ffffffffffffffffffffffffffffffffffffffff167f1bb460ccaaf70fbacfec17a376f8acbd278c1405590ffcc8ebe4b88daf4f64ad3460405161033c91906119e3565b60405180910390a25b005b348015610352575f5ffd5b5061036d60048036038101906103689190611a2e565b610666565b005b34801561037a575f5ffd5b5061039560048036038101906103909190611b14565b610a81565b005b3480156103a2575f5ffd5b506103bd60048036038101906103b89190611bc0565b610d02565b6040516103ca9190611c05565b60405180910390f35b3480156103de575f5ffd5b506103e7610d1f565b6040516103f491906119e3565b60405180910390f35b348015610408575f5ffd5b50610411610d25565b60405161041e91906119e3565b60405180910390f35b348015610432575f5ffd5b5061043b610d31565b60405161044f989796959493929190611c2d565b60405180910390f35b348015610463575f5ffd5b5061047e60048036038101906104799190611bc0565b610d96565b60405161048b91906119e3565b60405180910390f35b34801561049f575f5ffd5b506104ba60048036038101906104b59190611ca9565b610dab565b6040516104c79190611c05565b60405180910390f35b3480156104db575f5ffd5b506104e4610e66565b6040516104f19190611ce7565b60405180910390f35b348015610505575f5ffd5b50610520600480360381019061051b9190611a2e565b610e8a565b005b34801561052d575f5ffd5b50610536611114565b005b348015610543575f5ffd5b5061054c61144b565b60405161055991906119e3565b60405180910390f35b34801561056d575f5ffd5b50610576611451565b6040516105839190611c05565b60405180910390f35b348015610597575f5ffd5b506105b260048036038101906105ad9190611a2e565b611463565b6040516105c3959493929190611d60565b60405180910390f35b3480156105d7575f5ffd5b506105e06115b0565b6040516105ed91906119e3565b60405180910390f35b348015610601575f5ffd5b5061060a6115b6565b60405161061791906119e3565b60405180910390f35b6106286115bc565b005b348015610635575f5ffd5b50610650600480360381019061064b9190611bc0565b611887565b60405161065d91906119e3565b60405180910390f35b5f5f9054906101000a900473ffffffffffffffffffffffffffffffffffffffff1673ffffffffffffffffffffffffffffffffffffffff163373ffffffffffffffffffffffffffffffffffffffff16146106f4576040517f08c379a00000000000000000000000000000000000000000000000000000000081526004016106eb90611e02565b60405180910390fd5b600160095414610739576040517f08c379a000000000000000000000000000000000000000000000000000000000815260040161073090611e6a565b60405180910390fd5b5f6009819055506006805490508110610787576040517f08c379a000000000000000000000000000000000000000000000000000000000815260040161077e90611ed2565b60405180910390fd5b5f6006828154811061079c5761079b611ef0565b5b905f5260205f2090600602019050806003015f9054906101000a900460ff16156107fb576040517f08c379a00000000000000000000000000000000000000000000000000000000081526004016107f290611f67565b60405180910390fd5b60045f9054906101000a900460ff16610849576040517f08c379a000000000000000000000000000000000000000000000000000000000815260040161084090611ff5565b60405180910390fd5b4781600201541115610890576040517f08c379a00000000000000000000000000000000000000000000000000000000081526004016108879061205d565b60405180910390fd5b5f600554116108d4576040517f08c379a00000000000000000000000000000000000000000000000000000000081526004016108cb906120c5565b60405180910390fd5b600554600282600401546108e891906120e3565b11610928576040517f08c379a000000000000000000000000000000000000000000000000000000000815260040161091f90612194565b60405180910390fd5b6001816003015f6101000a81548160ff0219169083151502179055505f816001015f9054906101000a900473ffffffffffffffffffffffffffffffffffffffff1673ffffffffffffffffffffffffffffffffffffffff168260020154604051610990906121df565b5f6040518083038185875af1925050503d805f81146109ca576040519150601f19603f3d011682016040523d82523d5f602084013e6109cf565b606091505b5050905080610a13576040517f08c379a0000000000000000000000000000000000000000000000000000000008152600401610a0a9061223d565b60405180910390fd5b827f73fd0e11744b112133172a1d5396c8680521585a2b0c4bd539b0da184770d7d7836001015f9054906101000a900473ffffffffffffffffffffffffffffffffffffffff168460020154604051610a6c9291906122b6565b60405180910390a25050600160098190555050565b5f5f9054906101000a900473ffffffffffffffffffffffffffffffffffffffff1673ffffffffffffffffffffffffffffffffffffffff163373ffffffffffffffffffffffffffffffffffffffff1614610b0f576040517f08c379a0000000000000000000000000000000000000000000000000000000008152600401610b0690611e02565b60405180910390fd5b5f73ffffffffffffffffffffffffffffffffffffffff168273ffffffffffffffffffffffffffffffffffffffff1603610b7d576040517f08c379a0000000000000000000000000000000000000000000000000000000008152600401610b7490612327565b60405180910390fd5b5f8484905011610bc2576040517f08c379a0000000000000000000000000000000000000000000000000000000008152600401610bb99061238f565b60405180910390fd5b5f8111610c04576040517f08c379a0000000000000000000000000000000000000000000000000000000008152600401610bfb906123f7565b60405180910390fd5b5f600660018160018154018082558091505003905f5260205f20906006020190508484825f019182610c37929190612640565b5082816001015f6101000a81548173ffffffffffffffffffffffffffffffffffffffff021916908373ffffffffffffffffffffffffffffffffffffffff1602179055508181600201819055505f816003015f6101000a81548160ff0219169083151502179055505f81600401819055505f6001600680549050610cba919061270d565b9050807ff4f741cfaf5f9ff0be5480b102aa9ec4ed806560a6b1718816935ee4cc4a35f387878787604051610cf2949392919061277a565b60405180910390a2505050505050565b6008602052805f5260405f205f915054906101000a900460ff1681565b60025481565b5f600680549050905090565b5f5f5f5f5f5f5f5f5f5f9054906101000a900473ffffffffffffffffffffffffffffffffffffffff169750600154965060025495506003549450600554935060045f9054906101000a900460ff16925060068054905091504790509091929394959697565b6007602052805f5260405f205f915090505481565b5f6006805490508310610df3576040517f08c379a0000000000000000000000000000000000000000000000000000000008152600401610dea90611ed2565b60405180910390fd5b60068381548110610e0757610e06611ef0565b5b905f5260205f2090600602016005015f8373ffffffffffffffffffffffffffffffffffffffff1673ffffffffffffffffffffffffffffffffffffffff1681526020019081526020015f205f9054906101000a900460ff16905092915050565b5f5f9054906101000a900473ffffffffffffffffffffffffffffffffffffffff1681565b6006805490508110610ed1576040517f08c379a0000000000000000000000000000000000000000000000000000000008152600401610ec890611ed2565b60405180910390fd5b60085f3373ffffffffffffffffffffffffffffffffffffffff1673ffffffffffffffffffffffffffffffffffffffff1681526020019081526020015f205f9054906101000a900460ff16610f5a576040517f08c379a0000000000000000000000000000000000000000000000000000000008152600401610f5190612802565b60405180910390fd5b5f60068281548110610f6f57610f6e611ef0565b5b905f5260205f2090600602019050806003015f9054906101000a900460ff1615610fce576040517f08c379a0000000000000000000000000000000000000000000000000000000008152600401610fc59061286a565b60405180910390fd5b806005015f3373ffffffffffffffffffffffffffffffffffffffff1673ffffffffffffffffffffffffffffffffffffffff1681526020019081526020015f205f9054906101000a900460ff161561105a576040517f08c379a0000000000000000000000000000000000000000000000000000000008152600401611051906128d2565b60405180910390fd5b6001816005015f3373ffffffffffffffffffffffffffffffffffffffff1673ffffffffffffffffffffffffffffffffffffffff1681526020019081526020015f205f6101000a81548160ff0219169083151502179055506001816004015f8282546110c591906119a1565b92505081905550813373ffffffffffffffffffffffffffffffffffffffff167f4d99b957a2bc29a30ebd96a7be8e68fe50a3c701db28a91436490b7d53870ca460405160405180910390a35050565b600160095414611159576040517f08c379a000000000000000000000000000000000000000000000000000000000815260040161115090611e6a565b60405180910390fd5b5f6009819055506002544210156111a5576040517f08c379a000000000000000000000000000000000000000000000000000000000815260040161119c90612960565b60405180910390fd5b60045f9054906101000a900460ff16156111f4576040517f08c379a00000000000000000000000000000000000000000000000000000000081526004016111eb906129ee565b60405180910390fd5b5f60075f3373ffffffffffffffffffffffffffffffffffffffff1673ffffffffffffffffffffffffffffffffffffffff1681526020019081526020015f205490505f8111611277576040517f08c379a000000000000000000000000000000000000000000000000000000000815260040161126e90612a56565b60405180910390fd5b5f60075f3373ffffffffffffffffffffffffffffffffffffffff1673ffffffffffffffffffffffffffffffffffffffff1681526020019081526020015f20819055505f60085f3373ffffffffffffffffffffffffffffffffffffffff1673ffffffffffffffffffffffffffffffffffffffff1681526020019081526020015f205f6101000a81548160ff0219169083151502179055505f600554111561133157600160055f828254611329919061270d565b925050819055505b5f3373ffffffffffffffffffffffffffffffffffffffff1682604051611356906121df565b5f6040518083038185875af1925050503d805f8114611390576040519150601f19603f3d011682016040523d82523d5f602084013e611395565b606091505b50509050806113d9576040517f08c379a00000000000000000000000000000000000000000000000000000000081526004016113d090612abe565b60405180910390fd5b8160035f8282546113ea919061270d565b925050819055503373ffffffffffffffffffffffffffffffffffffffff167fa171b6942063c6f2800ce40a780edce37baa2b618571b11eedd1e69e626e7d768360405161143791906119e3565b60405180910390a250506001600981905550565b60055481565b60045f9054906101000a900460ff1681565b60605f5f5f5f60068054905086106114b0576040517f08c379a00000000000000000000000000000000000000000000000000000000081526004016114a790611ed2565b60405180910390fd5b5f600687815481106114c5576114c4611ef0565b5b905f5260205f2090600602019050805f0180546114e190612479565b80601f016020809104026020016040519081016040528092919081815260200182805461150d90612479565b80156115585780601f1061152f57610100808354040283529160200191611558565b820191905f5260205f20905b81548152906001019060200180831161153b57829003601f168201915b50505050509550806001015f9054906101000a900473ffffffffffffffffffffffffffffffffffffffff16945080600201549350806003015f9054906101000a900460ff169250806004015491505091939590929450565b60035481565b60015481565b6002544210611600576040517f08c379a00000000000000000000000000000000000000000000000000000000081526004016115f790612b4c565b60405180910390fd5b600160095414611645576040517f08c379a000000000000000000000000000000000000000000000000000000000815260040161163c90611e6a565b60405180910390fd5b5f6009819055505f341161168e576040517f08c379a000000000000000000000000000000000000000000000000000000000815260040161168590612bb4565b60405180910390fd5b60085f3373ffffffffffffffffffffffffffffffffffffffff1673ffffffffffffffffffffffffffffffffffffffff1681526020019081526020015f205f9054906101000a900460ff1661174b57600160085f3373ffffffffffffffffffffffffffffffffffffffff1673ffffffffffffffffffffffffffffffffffffffff1681526020019081526020015f205f6101000a81548160ff021916908315150217905550600160055f82825461174391906119a1565b925050819055505b3460075f3373ffffffffffffffffffffffffffffffffffffffff1673ffffffffffffffffffffffffffffffffffffffff1681526020019081526020015f205f82825461179791906119a1565b925050819055503460035f8282546117af91906119a1565b9250508190555060045f9054906101000a900460ff161580156117d6575060015460035410155b1561182f57600160045f6101000a81548160ff0219169083151502179055507ffbfd8ab7c24300fa9888cd721c8565a7da56759384781283684dcf7c7c4a846b60035460405161182691906119e3565b60405180910390a15b3373ffffffffffffffffffffffffffffffffffffffff167f1bb460ccaaf70fbacfec17a376f8acbd278c1405590ffcc8ebe4b88daf4f64ad3460405161187591906119e3565b60405180910390a26001600981905550565b5f60075f8373ffffffffffffffffffffffffffffffffffffffff1673ffffffffffffffffffffffffffffffffffffffff1681526020019081526020015f20549050919050565b5f82825260208201905092915050565b7f446561646c696e65207061737365643b2063616e6e6f742061636365707420645f8201527f697265637420636f6e747269627574696f6e7300000000000000000000000000602082015250565b5f6119376033836118cd565b9150611942826118dd565b604082019050919050565b5f6020820190508181035f8301526119648161192b565b9050919050565b5f819050919050565b7f4e487b71000000000000000000000000000000000000000000000000000000005f52601160045260245ffd5b5f6119ab8261196b565b91506119b68361196b565b92508282019050808211156119ce576119cd611974565b5b92915050565b6119dd8161196b565b82525050565b5f6020820190506119f65f8301846119d4565b92915050565b5f5ffd5b5f5ffd5b611a0d8161196b565b8114611a17575f5ffd5b50565b5f81359050611a2881611a04565b92915050565b5f60208284031215611a4357611a426119fc565b5b5f611a5084828501611a1a565b91505092915050565b5f5ffd5b5f5ffd5b5f5ffd5b5f5f83601f840112611a7a57611a79611a59565b5b8235905067ffffffffffffffff811115611a9757611a96611a5d565b5b602083019150836001820283011115611ab357611ab2611a61565b5b9250929050565b5f73ffffffffffffffffffffffffffffffffffffffff82169050919050565b5f611ae382611aba565b9050919050565b611af381611ad9565b8114611afd575f5ffd5b50565b5f81359050611b0e81611aea565b92915050565b5f5f5f5f60608587031215611b2c57611b2b6119fc565b5b5f85013567ffffffffffffffff811115611b4957611b48611a00565b5b611b5587828801611a65565b94509450506020611b6887828801611b00565b9250506040611b7987828801611a1a565b91505092959194509250565b5f611b8f82611aba565b9050919050565b611b9f81611b85565b8114611ba9575f5ffd5b50565b5f81359050611bba81611b96565b92915050565b5f60208284031215611bd557611bd46119fc565b5b5f611be284828501611bac565b91505092915050565b5f8115159050919050565b611bff81611beb565b82525050565b5f602082019050611c185f830184611bf6565b92915050565b611c2781611b85565b82525050565b5f61010082019050611c415f83018b611c1e565b611c4e602083018a6119d4565b611c5b60408301896119d4565b611c6860608301886119d4565b611c7560808301876119d4565b611c8260a0830186611bf6565b611c8f60c08301856119d4565b611c9c60e08301846119d4565b9998505050505050505050565b5f5f60408385031215611cbf57611cbe6119fc565b5b5f611ccc85828601611a1a565b9250506020611cdd85828601611bac565b9150509250929050565b5f602082019050611cfa5f830184611c1e565b92915050565b5f81519050919050565b8281835e5f83830152505050565b5f601f19601f8301169050919050565b5f611d3282611d00565b611d3c81856118cd565b9350611d4c818560208601611d0a565b611d5581611d18565b840191505092915050565b5f60a0820190508181035f830152611d788188611d28565b9050611d876020830187611c1e565b611d9460408301866119d4565b611da16060830185611bf6565b611dae60808301846119d4565b9695505050505050565b7f4f6e6c79206d616e6167657200000000000000000000000000000000000000005f82015250565b5f611dec600c836118cd565b9150611df782611db8565b602082019050919050565b5f6020820190508181035f830152611e1981611de0565b9050919050565b7f5265656e7472616e742063616c6c0000000000000000000000000000000000005f82015250565b5f611e54600e836118cd565b9150611e5f82611e20565b602082019050919050565b5f6020820190508181035f830152611e8181611e48565b9050919050565b7f496e76616c6964207265717565737420696400000000000000000000000000005f82015250565b5f611ebc6012836118cd565b9150611ec782611e88565b602082019050919050565b5f6020820190508181035f830152611ee981611eb0565b9050919050565b7f4e487b71000000000000000000000000000000000000000000000000000000005f52603260045260245ffd5b7f416c726561647920636f6d706c657465640000000000000000000000000000005f82015250565b5f611f516011836118cd565b9150611f5c82611f1d565b602082019050919050565b5f6020820190508181035f830152611f7e81611f45565b9050919050565b7f46756e64696e6720676f616c206e6f7420726561636865643b2063616e6e6f745f8201527f2064697362757273650000000000000000000000000000000000000000000000602082015250565b5f611fdf6029836118cd565b9150611fea82611f85565b604082019050919050565b5f6020820190508181035f83015261200c81611fd3565b9050919050565b7f496e73756666696369656e7420636f6e74726163742062616c616e63650000005f82015250565b5f612047601d836118cd565b915061205282612013565b602082019050919050565b5f6020820190508181035f8301526120748161203b565b9050919050565b7f4e6f20636f6e7472696275746f72732070726573656e740000000000000000005f82015250565b5f6120af6017836118cd565b91506120ba8261207b565b602082019050919050565b5f6020820190508181035f8301526120dc816120a3565b9050919050565b5f6120ed8261196b565b91506120f88361196b565b92508282026121068161196b565b9150828204841483151761211d5761211c611974565b5b5092915050565b7f4e6f7420656e6f75676820766f74657320286d616a6f726974792072657175695f8201527f7265642900000000000000000000000000000000000000000000000000000000602082015250565b5f61217e6024836118cd565b915061218982612124565b604082019050919050565b5f6020820190508181035f8301526121ab81612172565b9050919050565b5f81905092915050565b50565b5f6121ca5f836121b2565b91506121d5826121bc565b5f82019050919050565b5f6121e9826121bf565b9150819050919050565b7f5472616e73666572206661696c656400000000000000000000000000000000005f82015250565b5f612227600f836118cd565b9150612232826121f3565b602082019050919050565b5f6020820190508181035f8301526122548161221b565b9050919050565b5f819050919050565b5f61227e61227961227484611aba565b61225b565b611aba565b9050919050565b5f61228f82612264565b9050919050565b5f6122a082612285565b9050919050565b6122b081612296565b82525050565b5f6040820190506122c95f8301856122a7565b6122d660208301846119d4565b9392505050565b7f496e76616c696420726563697069656e740000000000000000000000000000005f82015250565b5f6123116011836118cd565b915061231c826122dd565b602082019050919050565b5f6020820190508181035f83015261233e81612305565b9050919050565b7f4465736372697074696f6e2072657175697265640000000000000000000000005f82015250565b5f6123796014836118cd565b915061238482612345565b602082019050919050565b5f6020820190508181035f8301526123a68161236d565b9050919050565b7f56616c7565203e203020726571756972656400000000000000000000000000005f82015250565b5f6123e16012836118cd565b91506123ec826123ad565b602082019050919050565b5f6020820190508181035f83015261240e816123d5565b9050919050565b5f82905092915050565b7f4e487b71000000000000000000000000000000000000000000000000000000005f52604160045260245ffd5b7f4e487b71000000000000000000000000000000000000000000000000000000005f52602260045260245ffd5b5f600282049050600182168061249057607f821691505b6020821081036124a3576124a261244c565b5b50919050565b5f819050815f5260205f209050919050565b5f6020601f8301049050919050565b5f82821b905092915050565b5f600883026125057fffffffffffffffffffffffffffffffffffffffffffffffffffffffffffffffff826124ca565b61250f86836124ca565b95508019841693508086168417925050509392505050565b5f61254161253c6125378461196b565b61225b565b61196b565b9050919050565b5f819050919050565b61255a83612527565b61256e61256682612548565b8484546124d6565b825550505050565b5f5f905090565b612585612576565b612590818484612551565b505050565b5b818110156125b3576125a85f8261257d565b600181019050612596565b5050565b601f8211156125f8576125c9816124a9565b6125d2846124bb565b810160208510156125e1578190505b6125f56125ed856124bb565b830182612595565b50505b505050565b5f82821c905092915050565b5f6126185f19846008026125fd565b1980831691505092915050565b5f6126308383612609565b9150826002028217905092915050565b61264a8383612415565b67ffffffffffffffff8111156126635761266261241f565b5b61266d8254612479565b6126788282856125b7565b5f601f8311600181146126a5575f8415612693578287013590505b61269d8582612625565b865550612704565b601f1984166126b3866124a9565b5f5b828110156126da578489013582556001820191506020850194506020810190506126b5565b868310156126f757848901356126f3601f891682612609565b8355505b6001600288020188555050505b50505050505050565b5f6127178261196b565b91506127228361196b565b925082820390508181111561273a57612739611974565b5b92915050565b828183375f83830152505050565b5f61275983856118cd565b9350612766838584612740565b61276f83611d18565b840190509392505050565b5f6060820190508181035f83015261279381868861274e565b90506127a260208301856122a7565b6127af60408301846119d4565b95945050505050565b7f4f6e6c7920636f6e7472696275746f72732063616e20766f74650000000000005f82015250565b5f6127ec601a836118cd565b91506127f7826127b8565b602082019050919050565b5f6020820190508181035f830152612819816127e0565b9050919050565b7f5265717565737420616c726561647920636f6d706c65746564000000000000005f82015250565b5f6128546019836118cd565b915061285f82612820565b602082019050919050565b5f6020820190508181035f83015261288181612848565b9050919050565b7f416c726561647920766f74656420666f722074686973207265717565737400005f82015250565b5f6128bc601e836118cd565b91506128c782612888565b602082019050919050565b5f6020820190508181035f8301526128e9816128b0565b9050919050565b7f416374696f6e20616c6c6f776564206f6e6c7920616674657220646561646c695f8201527f6e65000000000000000000000000000000000000000000000000000000000000602082015250565b5f61294a6022836118cd565b9150612955826128f0565b604082019050919050565b5f6020820190508181035f8301526129778161293e565b9050919050565b7f476f616c20726561636865643b20726566756e6473206e6f7420617661696c615f8201527f626c650000000000000000000000000000000000000000000000000000000000602082015250565b5f6129d86023836118cd565b91506129e38261297e565b604082019050919050565b5f6020820190508181035f830152612a05816129cc565b9050919050565b7f4e6f20636f6e747269627574696f6e7320746f20726566756e640000000000005f82015250565b5f612a40601a836118cd565b9150612a4b82612a0c565b602082019050919050565b5f6020820190508181035f830152612a6d81612a34565b9050919050565b7f526566756e64207472616e73666572206661696c6564000000000000000000005f82015250565b5f612aa86016836118cd565b9150612ab382612a74565b602082019050919050565b5f6020820190508181035f830152612ad581612a9c565b9050919050565b7f416374696f6e20616c6c6f776564206f6e6c79206265666f726520646561646c5f8201527f696e650000000000000000000000000000000000000000000000000000000000602082015250565b5f612b366023836118cd565b9150612b4182612adc565b604082019050919050565b5f6020820190508181035f830152612b6381612b2a565b9050919050565b7f4d7573742073656e6420455448000000000000000000000000000000000000005f82015250565b5f612b9e600d836118cd565b9150612ba982612b6a565b602082019050919050565b5f6020820190508181035f830152612bcb81612b92565b905091905056fea264697066735822122091587c3533bbaa605e97b34136920c7c06df6e1f41dd1ed5893f0bdbd8b969c964736f6c634300081e0033",
			"opcodes": "PUSH1 0x80 PUSH1 0x40 MSTORE PUSH1 0x1 PUSH1 0x9 SSTORE CALLVALUE DUP1 ISZERO PUSH2 0x14 JUMPI PUSH0 PUSH0 REVERT JUMPDEST POP PUSH1 0x40 MLOAD PUSH2 0x2E52 CODESIZE SUB DUP1 PUSH2 0x2E52 DUP4 CODECOPY DUP2 DUP2 ADD PUSH1 0x40 MSTORE DUP2 ADD SWAP1 PUSH2 0x36 SWAP2 SWAP1 PUSH2 0x127 JUMP JUMPDEST PUSH0 DUP3 GT PUSH2 0x78 JUMPI PUSH1 0x40 MLOAD PUSH32 0x8C379A000000000000000000000000000000000000000000000000000000000 DUP2 MSTORE PUSH1 0x4 ADD PUSH2 0x6F SWAP1 PUSH2 0x1BF JUMP JUMPDEST PUSH1 0x40 MLOAD DUP1 SWAP2 SUB SWAP1 REVERT JUMPDEST CALLER PUSH0 PUSH0 PUSH2 0x100 EXP DUP2 SLOAD DUP2 PUSH20 0xFFFFFFFFFFFFFFFFFFFFFFFFFFFFFFFFFFFFFFFF MUL NOT AND SWAP1 DUP4 PUSH20 0xFFFFFFFFFFFFFFFFFFFFFFFFFFFFFFFFFFFFFFFF AND MUL OR SWAP1 SSTORE POP DUP2 PUSH1 0x1 DUP2 SWAP1 SSTORE POP DUP1 TIMESTAMP PUSH2 0xCA SWAP2 SWAP1 PUSH2 0x20A JUMP JUMPDEST PUSH1 0x2 DUP2 SWAP1 SSTORE POP PUSH0 PUSH1 0x4 PUSH0 PUSH2 0x100 EXP DUP2 SLOAD DUP2 PUSH1 0xFF MUL NOT AND SWAP1 DUP4 ISZERO ISZERO MUL OR SWAP1 SSTORE POP POP POP PUSH2 0x23D JUMP JUMPDEST PUSH0 PUSH0 REVERT JUMPDEST PUSH0 DUP2 SWAP1 POP SWAP2 SWAP1 POP JUMP JUMPDEST PUSH2 0x106 DUP2 PUSH2 0xF4 JUMP JUMPDEST DUP2 EQ PUSH2 0x110 JUMPI PUSH0 PUSH0 REVERT JUMPDEST POP JUMP JUMPDEST PUSH0 DUP2 MLOAD SWAP1 POP PUSH2 0x121 DUP2 PUSH2 0xFD JUMP JUMPDEST SWAP3 SWAP2 POP POP JUMP JUMPDEST PUSH0 PUSH0 PUSH1 0x40 DUP4 DUP6 SUB SLT ISZERO PUSH2 0x13D JUMPI PUSH2 0x13C PUSH2 0xF0 JUMP JUMPDEST JUMPDEST PUSH0 PUSH2 0x14A DUP6 DUP3 DUP7 ADD PUSH2 0x113 JUMP JUMPDEST SWAP3 POP POP PUSH1 0x20 PUSH2 0x15B DUP6 DUP3 DUP7 ADD PUSH2 0x113 JUMP JUMPDEST SWAP2 POP POP SWAP3 POP SWAP3 SWAP1 POP JUMP JUMPDEST PUSH0 DUP3 DUP3 MSTORE PUSH1 0x20 DUP3 ADD SWAP1 POP SWAP3 SWAP2 POP POP JUMP JUMPDEST PUSH32 0x546172676574206D757374206265203E20300000000000000000000000000000 PUSH0 DUP3 ADD MSTORE POP JUMP JUMPDEST PUSH0 PUSH2 0x1A9 PUSH1 0x12 DUP4 PUSH2 0x165 JUMP JUMPDEST SWAP2 POP PUSH2 0x1B4 DUP3 PUSH2 0x175 JUMP JUMPDEST PUSH1 0x20 DUP3 ADD SWAP1 POP SWAP2 SWAP1 POP JUMP JUMPDEST PUSH0 PUSH1 0x20 DUP3 ADD SWAP1 POP DUP2 DUP2 SUB PUSH0 DUP4 ADD MSTORE PUSH2 0x1D6 DUP2 PUSH2 0x19D JUMP JUMPDEST SWAP1 POP SWAP2 SWAP1 POP JUMP JUMPDEST PUSH32 0x4E487B7100000000000000000000000000000000000000000000000000000000 PUSH0 MSTORE PUSH1 0x11 PUSH1 0x4 MSTORE PUSH1 0x24 PUSH0 REVERT JUMPDEST PUSH0 PUSH2 0x214 DUP3 PUSH2 0xF4 JUMP JUMPDEST SWAP2 POP PUSH2 0x21F DUP4 PUSH2 0xF4 JUMP JUMPDEST SWAP3 POP DUP3 DUP3 ADD SWAP1 POP DUP1 DUP3 GT ISZERO PUSH2 0x237 JUMPI PUSH2 0x236 PUSH2 0x1DD JUMP JUMPDEST JUMPDEST SWAP3 SWAP2 POP POP JUMP JUMPDEST PUSH2 0x2C08 DUP1 PUSH2 0x24A PUSH0 CODECOPY PUSH0 RETURN INVALID PUSH1 0x80 PUSH1 0x40 MSTORE PUSH1 0x4 CALLDATASIZE LT PUSH2 0x10C JUMPI PUSH0 CALLDATALOAD PUSH1 0xE0 SHR DUP1 PUSH4 0x4CB6F4A5 GT PUSH2 0x94 JUMPI DUP1 PUSH4 0xC58343EF GT PUSH2 0x63 JUMPI DUP1 PUSH4 0xC58343EF EQ PUSH2 0x58C JUMPI DUP1 PUSH4 0xC59EE1DC EQ PUSH2 0x5CC JUMPI DUP1 PUSH4 0xD4B83992 EQ PUSH2 0x5F6 JUMPI DUP1 PUSH4 0xD7BB99BA EQ PUSH2 0x620 JUMPI DUP1 PUSH4 0xE14ED045 EQ PUSH2 0x62A JUMPI PUSH2 0x345 JUMP JUMPDEST DUP1 PUSH4 0x4CB6F4A5 EQ PUSH2 0x4FA JUMPI DUP1 PUSH4 0x590E1AE3 EQ PUSH2 0x522 JUMPI DUP1 PUSH4 0x7569B3D7 EQ PUSH2 0x538 JUMPI DUP1 PUSH4 0x7D3D6522 EQ PUSH2 0x562 JUMPI PUSH2 0x345 JUMP JUMPDEST DUP1 PUSH4 0x3410452A GT PUSH2 0xDB JUMPI DUP1 PUSH4 0x3410452A EQ PUSH2 0x3FD JUMPI DUP1 PUSH4 0x4051DDAC EQ PUSH2 0x427 JUMPI DUP1 PUSH4 0x42E94C90 EQ PUSH2 0x458 JUMPI DUP1 PUSH4 0x43859632 EQ PUSH2 0x494 JUMPI DUP1 PUSH4 0x481C6A75 EQ PUSH2 0x4D0 JUMPI PUSH2 0x345 JUMP JUMPDEST DUP1 PUSH4 0x3441006 EQ PUSH2 0x347 JUMPI DUP1 PUSH4 0x1B16BB5C EQ PUSH2 0x36F JUMPI DUP1 PUSH4 0x1D0D35F5 EQ PUSH2 0x397 JUMPI DUP1 PUSH4 0x29DCB0CF EQ PUSH2 0x3D3 JUMPI PUSH2 0x345 JUMP JUMPDEST CALLDATASIZE PUSH2 0x345 JUMPI PUSH1 0x2 SLOAD TIMESTAMP LT PUSH2 0x155 JUMPI PUSH1 0x40 MLOAD PUSH32 0x8C379A000000000000000000000000000000000000000000000000000000000 DUP2 MSTORE PUSH1 0x4 ADD PUSH2 0x14C SWAP1 PUSH2 0x194D JUMP JUMPDEST PUSH1 0x40 MLOAD DUP1 SWAP2 SUB SWAP1 REVERT JUMPDEST PUSH1 0x8 PUSH0 CALLER PUSH20 0xFFFFFFFFFFFFFFFFFFFFFFFFFFFFFFFFFFFFFFFF AND PUSH20 0xFFFFFFFFFFFFFFFFFFFFFFFFFFFFFFFFFFFFFFFF AND DUP2 MSTORE PUSH1 0x20 ADD SWAP1 DUP2 MSTORE PUSH1 0x20 ADD PUSH0 KECCAK256 PUSH0 SWAP1 SLOAD SWAP1 PUSH2 0x100 EXP SWAP1 DIV PUSH1 0xFF AND PUSH2 0x212 JUMPI PUSH1 0x1 PUSH1 0x8 PUSH0 CALLER PUSH20 0xFFFFFFFFFFFFFFFFFFFFFFFFFFFFFFFFFFFFFFFF AND PUSH20 0xFFFFFFFFFFFFFFFFFFFFFFFFFFFFFFFFFFFFFFFF AND DUP2 MSTORE PUSH1 0x20 ADD SWAP1 DUP2 MSTORE PUSH1 0x20 ADD PUSH0 KECCAK256 PUSH0 PUSH2 0x100 EXP DUP2 SLOAD DUP2 PUSH1 0xFF MUL NOT AND SWAP1 DUP4 ISZERO ISZERO MUL OR SWAP1 SSTORE POP PUSH1 0x1 PUSH1 0x5 PUSH0 DUP3 DUP3 SLOAD PUSH2 0x20A SWAP2 SWAP1 PUSH2 0x19A1 JUMP JUMPDEST SWAP3 POP POP DUP2 SWAP1 SSTORE POP JUMPDEST CALLVALUE PUSH1 0x7 PUSH0 CALLER PUSH20 0xFFFFFFFFFFFFFFFFFFFFFFFFFFFFFFFFFFFFFFFF AND PUSH20 0xFFFFFFFFFFFFFFFFFFFFFFFFFFFFFFFFFFFFFFFF AND DUP2 MSTORE PUSH1 0x20 ADD SWAP1 DUP2 MSTORE PUSH1 0x20 ADD PUSH0 KECCAK256 PUSH0 DUP3 DUP3 SLOAD PUSH2 0x25E SWAP2 SWAP1 PUSH2 0x19A1 JUMP JUMPDEST SWAP3 POP POP DUP2 SWAP1 SSTORE POP CALLVALUE PUSH1 0x3 PUSH0 DUP3 DUP3 SLOAD PUSH2 0x276 SWAP2 SWAP1 PUSH2 0x19A1 JUMP JUMPDEST SWAP3 POP POP DUP2 SWAP1 SSTORE POP PUSH1 0x4 PUSH0 SWAP1 SLOAD SWAP1 PUSH2 0x100 EXP SWAP1 DIV PUSH1 0xFF AND ISZERO DUP1 ISZERO PUSH2 0x29D JUMPI POP PUSH1 0x1 SLOAD PUSH1 0x3 SLOAD LT ISZERO JUMPDEST ISZERO PUSH2 0x2F6 JUMPI PUSH1 0x1 PUSH1 0x4 PUSH0 PUSH2 0x100 EXP DUP2 SLOAD DUP2 PUSH1 0xFF MUL NOT AND SWAP1 DUP4 ISZERO ISZERO MUL OR SWAP1 SSTORE POP PUSH32 0xFBFD8AB7C24300FA9888CD721C8565A7DA56759384781283684DCF7C7C4A846B PUSH1 0x3 SLOAD PUSH1 0x40 MLOAD PUSH2 0x2ED SWAP2 SWAP1 PUSH2 0x19E3 JUMP JUMPDEST PUSH1 0x40 MLOAD DUP1 SWAP2 SUB SWAP1 LOG1 JUMPDEST CALLER PUSH20 0xFFFFFFFFFFFFFFFFFFFFFFFFFFFFFFFFFFFFFFFF AND PUSH32 0x1BB460CCAAF70FBACFEC17A376F8ACBD278C1405590FFCC8EBE4B88DAF4F64AD CALLVALUE PUSH1 0x40 MLOAD PUSH2 0x33C SWAP2 SWAP1 PUSH2 0x19E3 JUMP JUMPDEST PUSH1 0x40 MLOAD DUP1 SWAP2 SUB SWAP1 LOG2 JUMPDEST STOP JUMPDEST CALLVALUE DUP1 ISZERO PUSH2 0x352 JUMPI PUSH0 PUSH0 REVERT JUMPDEST POP PUSH2 0x36D PUSH1 0x4 DUP1 CALLDATASIZE SUB DUP2 ADD SWAP1 PUSH2 0x368 SWAP2 SWAP1 PUSH2 0x1A2E JUMP JUMPDEST PUSH2 0x666 JUMP JUMPDEST STOP JUMPDEST CALLVALUE DUP1 ISZERO PUSH2 0x37A JUMPI PUSH0 PUSH0 REVERT JUMPDEST POP PUSH2 0x395 PUSH1 0x4 DUP1 CALLDATASIZE SUB DUP2 ADD SWAP1 PUSH2 0x390 SWAP2 SWAP1 PUSH2 0x1B14 JUMP JUMPDEST PUSH2 0xA81 JUMP JUMPDEST STOP JUMPDEST CALLVALUE DUP1 ISZERO PUSH2 0x3A2 JUMPI PUSH0 PUSH0 REVERT JUMPDEST POP PUSH2 0x3BD PUSH1 0x4 DUP1 CALLDATASIZE SUB DUP2 ADD SWAP1 PUSH2 0x3B8 SWAP2 SWAP1 PUSH2 0x1BC0 JUMP JUMPDEST PUSH2 0xD02 JUMP JUMPDEST PUSH1 0x40 MLOAD PUSH2 0x3CA SWAP2 SWAP1 PUSH2 0x1C05 JUMP JUMPDEST PUSH1 0x40 MLOAD DUP1 SWAP2 SUB SWAP1 RETURN JUMPDEST CALLVALUE DUP1 ISZERO PUSH2 0x3DE JUMPI PUSH0 PUSH0 REVERT JUMPDEST POP PUSH2 0x3E7 PUSH2 0xD1F JUMP JUMPDEST PUSH1 0x40 MLOAD PUSH2 0x3F4 SWAP2 SWAP1 PUSH2 0x19E3 JUMP JUMPDEST PUSH1 0x40 MLOAD DUP1 SWAP2 SUB SWAP1 RETURN JUMPDEST CALLVALUE DUP1 ISZERO PUSH2 0x408 JUMPI PUSH0 PUSH0 REVERT JUMPDEST POP PUSH2 0x411 PUSH2 0xD25 JUMP JUMPDEST PUSH1 0x40 MLOAD PUSH2 0x41E SWAP2 SWAP1 PUSH2 0x19E3 JUMP JUMPDEST PUSH1 0x40 MLOAD DUP1 SWAP2 SUB SWAP1 RETURN JUMPDEST CALLVALUE DUP1 ISZERO PUSH2 0x432 JUMPI PUSH0 PUSH0 REVERT JUMPDEST POP PUSH2 0x43B PUSH2 0xD31 JUMP JUMPDEST PUSH1 0x40 MLOAD PUSH2 0x44F SWAP9 SWAP8 SWAP7 SWAP6 SWAP5 SWAP4 SWAP3 SWAP2 SWAP1 PUSH2 0x1C2D JUMP JUMPDEST PUSH1 0x40 MLOAD DUP1 SWAP2 SUB SWAP1 RETURN JUMPDEST CALLVALUE DUP1 ISZERO PUSH2 0x463 JUMPI PUSH0 PUSH0 REVERT JUMPDEST POP PUSH2 0x47E PUSH1 0x4 DUP1 CALLDATASIZE SUB DUP2 ADD SWAP1 PUSH2 0x479 SWAP2 SWAP1 PUSH2 0x1BC0 JUMP JUMPDEST PUSH2 0xD96 JUMP JUMPDEST PUSH1 0x40 MLOAD PUSH2 0x48B SWAP2 SWAP1 PUSH2 0x19E3 JUMP JUMPDEST PUSH1 0x40 MLOAD DUP1 SWAP2 SUB SWAP1 RETURN JUMPDEST CALLVALUE DUP1 ISZERO PUSH2 0x49F JUMPI PUSH0 PUSH0 REVERT JUMPDEST POP PUSH2 0x4BA PUSH1 0x4 DUP1 CALLDATASIZE SUB DUP2 ADD SWAP1 PUSH2 0x4B5 SWAP2 SWAP1 PUSH2 0x1CA9 JUMP JUMPDEST PUSH2 0xDAB JUMP JUMPDEST PUSH1 0x40 MLOAD PUSH2 0x4C7 SWAP2 SWAP1 PUSH2 0x1C05 JUMP JUMPDEST PUSH1 0x40 MLOAD DUP1 SWAP2 SUB SWAP1 RETURN JUMPDEST CALLVALUE DUP1 ISZERO PUSH2 0x4DB JUMPI PUSH0 PUSH0 REVERT JUMPDEST POP PUSH2 0x4E4 PUSH2 0xE66 JUMP JUMPDEST PUSH1 0x40 MLOAD PUSH2 0x4F1 SWAP2 SWAP1 PUSH2 0x1CE7 JUMP JUMPDEST PUSH1 0x40 MLOAD DUP1 SWAP2 SUB SWAP1 RETURN JUMPDEST CALLVALUE DUP1 ISZERO PUSH2 0x505 JUMPI PUSH0 PUSH0 REVERT JUMPDEST POP PUSH2 0x520 PUSH1 0x4 DUP1 CALLDATASIZE SUB DUP2 ADD SWAP1 PUSH2 0x51B SWAP2 SWAP1 PUSH2 0x1A2E JUMP JUMPDEST PUSH2 0xE8A JUMP JUMPDEST STOP JUMPDEST CALLVALUE DUP1 ISZERO PUSH2 0x52D JUMPI PUSH0 PUSH0 REVERT JUMPDEST POP PUSH2 0x536 PUSH2 0x1114 JUMP JUMPDEST STOP JUMPDEST CALLVALUE DUP1 ISZERO PUSH2 0x543 JUMPI PUSH0 PUSH0 REVERT JUMPDEST POP PUSH2 0x54C PUSH2 0x144B JUMP JUMPDEST PUSH1 0x40 MLOAD PUSH2 0x559 SWAP2 SWAP1 PUSH2 0x19E3 JUMP JUMPDEST PUSH1 0x40 MLOAD DUP1 SWAP2 SUB SWAP1 RETURN JUMPDEST CALLVALUE DUP1 ISZERO PUSH2 0x56D JUMPI PUSH0 PUSH0 REVERT JUMPDEST POP PUSH2 0x576 PUSH2 0x1451 JUMP JUMPDEST PUSH1 0x40 MLOAD PUSH2 0x583 SWAP2 SWAP1 PUSH2 0x1C05 JUMP JUMPDEST PUSH1 0x40 MLOAD DUP1 SWAP2 SUB SWAP1 RETURN JUMPDEST CALLVALUE DUP1 ISZERO PUSH2 0x597 JUMPI PUSH0 PUSH0 REVERT JUMPDEST POP PUSH2 0x5B2 PUSH1 0x4 DUP1 CALLDATASIZE SUB DUP2 ADD SWAP1 PUSH2 0x5AD SWAP2 SWAP1 PUSH2 0x1A2E JUMP JUMPDEST PUSH2 0x1463 JUMP JUMPDEST PUSH1 0x40 MLOAD PUSH2 0x5C3 SWAP6 SWAP5 SWAP4 SWAP3 SWAP2 SWAP1 PUSH2 0x1D60 JUMP JUMPDEST PUSH1 0x40 MLOAD DUP1 SWAP2 SUB SWAP1 RETURN JUMPDEST CALLVALUE DUP1 ISZERO PUSH2 0x5D7 JUMPI PUSH0 PUSH0 REVERT JUMPDEST POP PUSH2 0x5E0 PUSH2 0x15B0 JUMP JUMPDEST PUSH1 0x40 MLOAD PUSH2 0x5ED SWAP2 SWAP1 PUSH2 0x19E3 JUMP JUMPDEST PUSH1 0x40 MLOAD DUP1 SWAP2 SUB SWAP1 RETURN JUMPDEST CALLVALUE DUP1 ISZERO PUSH2 0x601 JUMPI PUSH0 PUSH0 REVERT JUMPDEST POP PUSH2 0x60A PUSH2 0x15B6 JUMP JUMPDEST PUSH1 0x40 MLOAD PUSH2 0x617 SWAP2 SWAP1 PUSH2 0x19E3 JUMP JUMPDEST PUSH1 0x40 MLOAD DUP1 SWAP2 SUB SWAP1 RETURN JUMPDEST PUSH2 0x628 PUSH2 0x15BC JUMP JUMPDEST STOP JUMPDEST CALLVALUE DUP1 ISZERO PUSH2 0x635 JUMPI PUSH0 PUSH0 REVERT JUMPDEST POP PUSH2 0x650 PUSH1 0x4 DUP1 CALLDATASIZE SUB DUP2 ADD SWAP1 PUSH2 0x64B SWAP2 SWAP1 PUSH2 0x1BC0 JUMP JUMPDEST PUSH2 0x1887 JUMP JUMPDEST PUSH1 0x40 MLOAD PUSH2 0x65D SWAP2 SWAP1 PUSH2 0x19E3 JUMP JUMPDEST PUSH1 0x40 MLOAD DUP1 SWAP2 SUB SWAP1 RETURN JUMPDEST PUSH0 PUSH0 SWAP1 SLOAD SWAP1 PUSH2 0x100 EXP SWAP1 DIV PUSH20 0xFFFFFFFFFFFFFFFFFFFFFFFFFFFFFFFFFFFFFFFF AND PUSH20 0xFFFFFFFFFFFFFFFFFFFFFFFFFFFFFFFFFFFFFFFF AND CALLER PUSH20 0xFFFFFFFFFFFFFFFFFFFFFFFFFFFFFFFFFFFFFFFF AND EQ PUSH2 0x6F4 JUMPI PUSH1 0x40 MLOAD PUSH32 0x8C379A000000000000000000000000000000000000000000000000000000000 DUP2 MSTORE PUSH1 0x4 ADD PUSH2 0x6EB SWAP1 PUSH2 0x1E02 JUMP JUMPDEST PUSH1 0x40 MLOAD DUP1 SWAP2 SUB SWAP1 REVERT JUMPDEST PUSH1 0x1 PUSH1 0x9 SLOAD EQ PUSH2 0x739 JUMPI PUSH1 0x40 MLOAD PUSH32 0x8C379A000000000000000000000000000000000000000000000000000000000 DUP2 MSTORE PUSH1 0x4 ADD PUSH2 0x730 SWAP1 PUSH2 0x1E6A JUMP JUMPDEST PUSH1 0x40 MLOAD DUP1 SWAP2 SUB SWAP1 REVERT JUMPDEST PUSH0 PUSH1 0x9 DUP2 SWAP1 SSTORE POP PUSH1 0x6 DUP1 SLOAD SWAP1 POP DUP2 LT PUSH2 0x787 JUMPI PUSH1 0x40 MLOAD PUSH32 0x8C379A000000000000000000000000000000000000000000000000000000000 DUP2 MSTORE PUSH1 0x4 ADD PUSH2 0x77E SWAP1 PUSH2 0x1ED2 JUMP JUMPDEST PUSH1 0x40 MLOAD DUP1 SWAP2 SUB SWAP1 REVERT JUMPDEST PUSH0 PUSH1 0x6 DUP3 DUP2 SLOAD DUP2 LT PUSH2 0x79C JUMPI PUSH2 0x79B PUSH2 0x1EF0 JUMP JUMPDEST JUMPDEST SWAP1 PUSH0 MSTORE PUSH1 0x20 PUSH0 KECCAK256 SWAP1 PUSH1 0x6 MUL ADD SWAP1 POP DUP1 PUSH1 0x3 ADD PUSH0 SWAP1 SLOAD SWAP1 PUSH2 0x100 EXP SWAP1 DIV PUSH1 0xFF AND ISZERO PUSH2 0x7FB JUMPI PUSH1 0x40 MLOAD PUSH32 0x8C379A000000000000000000000000000000000000000000000000000000000 DUP2 MSTORE PUSH1 0x4 ADD PUSH2 0x7F2 SWAP1 PUSH2 0x1F67 JUMP JUMPDEST PUSH1 0x40 MLOAD DUP1 SWAP2 SUB SWAP1 REVERT JUMPDEST PUSH1 0x4 PUSH0 SWAP1 SLOAD SWAP1 PUSH2 0x100 EXP SWAP1 DIV PUSH1 0xFF AND PUSH2 0x849 JUMPI PUSH1 0x40 MLOAD PUSH32 0x8C379A000000000000000000000000000000000000000000000000000000000 DUP2 MSTORE PUSH1 0x4 ADD PUSH2 0x840 SWAP1 PUSH2 0x1FF5 JUMP JUMPDEST PUSH1 0x40 MLOAD DUP1 SWAP2 SUB SWAP1 REVERT JUMPDEST SELFBALANCE DUP2 PUSH1 0x2 ADD SLOAD GT ISZERO PUSH2 0x890 JUMPI PUSH1 0x40 MLOAD PUSH32 0x8C379A000000000000000000000000000000000000000000000000000000000 DUP2 MSTORE PUSH1 0x4 ADD PUSH2 0x887 SWAP1 PUSH2 0x205D JUMP JUMPDEST PUSH1 0x40 MLOAD DUP1 SWAP2 SUB SWAP1 REVERT JUMPDEST PUSH0 PUSH1 0x5 SLOAD GT PUSH2 0x8D4 JUMPI PUSH1 0x40 MLOAD PUSH32 0x8C379A000000000000000000000000000000000000000000000000000000000 DUP2 MSTORE PUSH1 0x4 ADD PUSH2 0x8CB SWAP1 PUSH2 0x20C5 JUMP JUMPDEST PUSH1 0x40 MLOAD DUP1 SWAP2 SUB SWAP1 REVERT JUMPDEST PUSH1 0x5 SLOAD PUSH1 0x2 DUP3 PUSH1 0x4 ADD SLOAD PUSH2 0x8E8 SWAP2 SWAP1 PUSH2 0x20E3 JUMP JUMPDEST GT PUSH2 0x928 JUMPI PUSH1 0x40 MLOAD PUSH32 0x8C379A000000000000000000000000000000000000000000000000000000000 DUP2 MSTORE PUSH1 0x4 ADD PUSH2 0x91F SWAP1 PUSH2 0x2194 JUMP JUMPDEST PUSH1 0x40 MLOAD DUP1 SWAP2 SUB SWAP1 REVERT JUMPDEST PUSH1 0x1 DUP2 PUSH1 0x3 ADD PUSH0 PUSH2 0x100 EXP DUP2 SLOAD DUP2 PUSH1 0xFF MUL NOT AND SWAP1 DUP4 ISZERO ISZERO MUL OR SWAP1 SSTORE POP PUSH0 DUP2 PUSH1 0x1 ADD PUSH0 SWAP1 SLOAD SWAP1 PUSH2 0x100 EXP SWAP1 DIV PUSH20 0xFFFFFFFFFFFFFFFFFFFFFFFFFFFFFFFFFFFFFFFF AND PUSH20 0xFFFFFFFFFFFFFFFFFFFFFFFFFFFFFFFFFFFFFFFF AND DUP3 PUSH1 0x2 ADD SLOAD PUSH1 0x40 MLOAD PUSH2 0x990 SWAP1 PUSH2 0x21DF JUMP JUMPDEST PUSH0 PUSH1 0x40 MLOAD DUP1 DUP4 SUB DUP2 DUP6 DUP8 GAS CALL SWAP3 POP POP POP RETURNDATASIZE DUP1 PUSH0 DUP2 EQ PUSH2 0x9CA JUMPI PUSH1 0x40 MLOAD SWAP2 POP PUSH1 0x1F NOT PUSH1 0x3F RETURNDATASIZE ADD AND DUP3 ADD PUSH1 0x40 MSTORE RETURNDATASIZE DUP3 MSTORE RETURNDATASIZE PUSH0 PUSH1 0x20 DUP5 ADD RETURNDATACOPY PUSH2 0x9CF JUMP JUMPDEST PUSH1 0x60 SWAP2 POP JUMPDEST POP POP SWAP1 POP DUP1 PUSH2 0xA13 JUMPI PUSH1 0x40 MLOAD PUSH32 0x8C379A000000000000000000000000000000000000000000000000000000000 DUP2 MSTORE PUSH1 0x4 ADD PUSH2 0xA0A SWAP1 PUSH2 0x223D JUMP JUMPDEST PUSH1 0x40 MLOAD DUP1 SWAP2 SUB SWAP1 REVERT JUMPDEST DUP3 PUSH32 0x73FD0E11744B112133172A1D5396C8680521585A2B0C4BD539B0DA184770D7D7 DUP4 PUSH1 0x1 ADD PUSH0 SWAP1 SLOAD SWAP1 PUSH2 0x100 EXP SWAP1 DIV PUSH20 0xFFFFFFFFFFFFFFFFFFFFFFFFFFFFFFFFFFFFFFFF AND DUP5 PUSH1 0x2 ADD SLOAD PUSH1 0x40 MLOAD PUSH2 0xA6C SWAP3 SWAP2 SWAP1 PUSH2 0x22B6 JUMP JUMPDEST PUSH1 0x40 MLOAD DUP1 SWAP2 SUB SWAP1 LOG2 POP POP PUSH1 0x1 PUSH1 0x9 DUP2 SWAP1 SSTORE POP POP JUMP JUMPDEST PUSH0 PUSH0 SWAP1 SLOAD SWAP1 PUSH2 0x100 EXP SWAP1 DIV PUSH20 0xFFFFFFFFFFFFFFFFFFFFFFFFFFFFFFFFFFFFFFFF AND PUSH20 0xFFFFFFFFFFFFFFFFFFFFFFFFFFFFFFFFFFFFFFFF AND CALLER PUSH20 0xFFFFFFFFFFFFFFFFFFFFFFFFFFFFFFFFFFFFFFFF AND EQ PUSH2 0xB0F JUMPI PUSH1 0x40 MLOAD PUSH32 0x8C379A000000000000000000000000000000000000000000000000000000000 DUP2 MSTORE PUSH1 0x4 ADD PUSH2 0xB06 SWAP1 PUSH2 0x1E02 JUMP JUMPDEST PUSH1 0x40 MLOAD DUP1 SWAP2 SUB SWAP1 REVERT JUMPDEST PUSH0 PUSH20 0xFFFFFFFFFFFFFFFFFFFFFFFFFFFFFFFFFFFFFFFF AND DUP3 PUSH20 0xFFFFFFFFFFFFFFFFFFFFFFFFFFFFFFFFFFFFFFFF AND SUB PUSH2 0xB7D JUMPI PUSH1 0x40 MLOAD PUSH32 0x8C379A000000000000000000000000000000000000000000000000000000000 DUP2 MSTORE PUSH1 0x4 ADD PUSH2 0xB74 SWAP1 PUSH2 0x2327 JUMP JUMPDEST PUSH1 0x40 MLOAD DUP1 SWAP2 SUB SWAP1 REVERT JUMPDEST PUSH0 DUP5 DUP5 SWAP1 POP GT PUSH2 0xBC2 JUMPI PUSH1 0x40 MLOAD PUSH32 0x8C379A000000000000000000000000000000000000000000000000000000000 DUP2 MSTORE PUSH1 0x4 ADD PUSH2 0xBB9 SWAP1 PUSH2 0x238F JUMP JUMPDEST PUSH1 0x40 MLOAD DUP1 SWAP2 SUB SWAP1 REVERT JUMPDEST PUSH0 DUP2 GT PUSH2 0xC04 JUMPI PUSH1 0x40 MLOAD PUSH32 0x8C379A000000000000000000000000000000000000000000000000000000000 DUP2 MSTORE PUSH1 0x4 ADD PUSH2 0xBFB SWAP1 PUSH2 0x23F7 JUMP JUMPDEST PUSH1 0x40 MLOAD DUP1 SWAP2 SUB SWAP1 REVERT JUMPDEST PUSH0 PUSH1 0x6 PUSH1 0x1 DUP2 PUSH1 0x1 DUP2 SLOAD ADD DUP1 DUP3 SSTORE DUP1 SWAP2 POP POP SUB SWAP1 PUSH0 MSTORE PUSH1 0x20 PUSH0 KECCAK256 SWAP1 PUSH1 0x6 MUL ADD SWAP1 POP DUP5 DUP5 DUP3 PUSH0 ADD SWAP2 DUP3 PUSH2 0xC37 SWAP3 SWAP2 SWAP1 PUSH2 0x2640 JUMP JUMPDEST POP DUP3 DUP2 PUSH1 0x1 ADD PUSH0 PUSH2 0x100 EXP DUP2 SLOAD DUP2 PUSH20 0xFFFFFFFFFFFFFFFFFFFFFFFFFFFFFFFFFFFFFFFF MUL NOT AND SWAP1 DUP4 PUSH20 0xFFFFFFFFFFFFFFFFFFFFFFFFFFFFFFFFFFFFFFFF AND MUL OR SWAP1 SSTORE POP DUP2 DUP2 PUSH1 0x2 ADD DUP2 SWAP1 SSTORE POP PUSH0 DUP2 PUSH1 0x3 ADD PUSH0 PUSH2 0x100 EXP DUP2 SLOAD DUP2 PUSH1 0xFF MUL NOT AND SWAP1 DUP4 ISZERO ISZERO MUL OR SWAP1 SSTORE POP PUSH0 DUP2 PUSH1 0x4 ADD DUP2 SWAP1 SSTORE POP PUSH0 PUSH1 0x1 PUSH1 0x6 DUP1 SLOAD SWAP1 POP PUSH2 0xCBA SWAP2 SWAP1 PUSH2 0x270D JUMP JUMPDEST SWAP1 POP DUP1 PUSH32 0xF4F741CFAF5F9FF0BE5480B102AA9EC4ED806560A6B1718816935EE4CC4A35F3 DUP8 DUP8 DUP8 DUP8 PUSH1 0x40 MLOAD PUSH2 0xCF2 SWAP5 SWAP4 SWAP3 SWAP2 SWAP1 PUSH2 0x277A JUMP JUMPDEST PUSH1 0x40 MLOAD DUP1 SWAP2 SUB SWAP1 LOG2 POP POP POP POP POP POP JUMP JUMPDEST PUSH1 0x8 PUSH1 0x20 MSTORE DUP1 PUSH0 MSTORE PUSH1 0x40 PUSH0 KECCAK256 PUSH0 SWAP2 POP SLOAD SWAP1 PUSH2 0x100 EXP SWAP1 DIV PUSH1 0xFF AND DUP2 JUMP JUMPDEST PUSH1 0x2 SLOAD DUP2 JUMP JUMPDEST PUSH0 PUSH1 0x6 DUP1 SLOAD SWAP1 POP SWAP1 POP SWAP1 JUMP JUMPDEST PUSH0 PUSH0 PUSH0 PUSH0 PUSH0 PUSH0 PUSH0 PUSH0 PUSH0 PUSH0 SWAP1 SLOAD SWAP1 PUSH2 0x100 EXP SWAP1 DIV PUSH20 0xFFFFFFFFFFFFFFFFFFFFFFFFFFFFFFFFFFFFFFFF AND SWAP8 POP PUSH1 0x1 SLOAD SWAP7 POP PUSH1 0x2 SLOAD SWAP6 POP PUSH1 0x3 SLOAD SWAP5 POP PUSH1 0x5 SLOAD SWAP4 POP PUSH1 0x4 PUSH0 SWAP1 SLOAD SWAP1 PUSH2 0x100 EXP SWAP1 DIV PUSH1 0xFF AND SWAP3 POP PUSH1 0x6 DUP1 SLOAD SWAP1 POP SWAP2 POP SELFBALANCE SWAP1 POP SWAP1 SWAP2 SWAP3 SWAP4 SWAP5 SWAP6 SWAP7 SWAP8 JUMP JUMPDEST PUSH1 0x7 PUSH1 0x20 MSTORE DUP1 PUSH0 MSTORE PUSH1 0x40 PUSH0 KECCAK256 PUSH0 SWAP2 POP SWAP1 POP SLOAD DUP2 JUMP JUMPDEST PUSH0 PUSH1 0x6 DUP1 SLOAD SWAP1 POP DUP4 LT PUSH2 0xDF3 JUMPI PUSH1 0x40 MLOAD PUSH32 0x8C379A000000000000000000000000000000000000000000000000000000000 DUP2 MSTORE PUSH1 0x4 ADD PUSH2 0xDEA SWAP1 PUSH2 0x1ED2 JUMP JUMPDEST PUSH1 0x40 MLOAD DUP1 SWAP2 SUB SWAP1 REVERT JUMPDEST PUSH1 0x6 DUP4 DUP2 SLOAD DUP2 LT PUSH2 0xE07 JUMPI PUSH2 0xE06 PUSH2 0x1EF0 JUMP JUMPDEST JUMPDEST SWAP1 PUSH0 MSTORE PUSH1 0x20 PUSH0 KECCAK256 SWAP1 PUSH1 0x6 MUL ADD PUSH1 0x5 ADD PUSH0 DUP4 PUSH20 0xFFFFFFFFFFFFFFFFFFFFFFFFFFFFFFFFFFFFFFFF AND PUSH20 0xFFFFFFFFFFFFFFFFFFFFFFFFFFFFFFFFFFFFFFFF AND DUP2 MSTORE PUSH1 0x20 ADD SWAP1 DUP2 MSTORE PUSH1 0x20 ADD PUSH0 KECCAK256 PUSH0 SWAP1 SLOAD SWAP1 PUSH2 0x100 EXP SWAP1 DIV PUSH1 0xFF AND SWAP1 POP SWAP3 SWAP2 POP POP JUMP JUMPDEST PUSH0 PUSH0 SWAP1 SLOAD SWAP1 PUSH2 0x100 EXP SWAP1 DIV PUSH20 0xFFFFFFFFFFFFFFFFFFFFFFFFFFFFFFFFFFFFFFFF AND DUP2 JUMP JUMPDEST PUSH1 0x6 DUP1 SLOAD SWAP1 POP DUP2 LT PUSH2 0xED1 JUMPI PUSH1 0x40 MLOAD PUSH32 0x8C379A000000000000000000000000000000000000000000000000000000000 DUP2 MSTORE PUSH1 0x4 ADD PUSH2 0xEC8 SWAP1 PUSH2 0x1ED2 JUMP JUMPDEST PUSH1 0x40 MLOAD DUP1 SWAP2 SUB SWAP1 REVERT JUMPDEST PUSH1 0x8 PUSH0 CALLER PUSH20 0xFFFFFFFFFFFFFFFFFFFFFFFFFFFFFFFFFFFFFFFF AND PUSH20 0xFFFFFFFFFFFFFFFFFFFFFFFFFFFFFFFFFFFFFFFF AND DUP2 MSTORE PUSH1 0x20 ADD SWAP1 DUP2 MSTORE PUSH1 0x20 ADD PUSH0 KECCAK256 PUSH0 SWAP1 SLOAD SWAP1 PUSH2 0x100 EXP SWAP1 DIV PUSH1 0xFF AND PUSH2 0xF5A JUMPI PUSH1 0x40 MLOAD PUSH32 0x8C379A000000000000000000000000000000000000000000000000000000000 DUP2 MSTORE PUSH1 0x4 ADD PUSH2 0xF51 SWAP1 PUSH2 0x2802 JUMP JUMPDEST PUSH1 0x40 MLOAD DUP1 SWAP2 SUB SWAP1 REVERT JUMPDEST PUSH0 PUSH1 0x6 DUP3 DUP2 SLOAD DUP2 LT PUSH2 0xF6F JUMPI PUSH2 0xF6E PUSH2 0x1EF0 JUMP JUMPDEST JUMPDEST SWAP1 PUSH0 MSTORE PUSH1 0x20 PUSH0 KECCAK256 SWAP1 PUSH1 0x6 MUL ADD SWAP1 POP DUP1 PUSH1 0x3 ADD PUSH0 SWAP1 SLOAD SWAP1 PUSH2 0x100 EXP SWAP1 DIV PUSH1 0xFF AND ISZERO PUSH2 0xFCE JUMPI PUSH1 0x40 MLOAD PUSH32 0x8C379A000000000000000000000000000000000000000000000000000000000 DUP2 MSTORE PUSH1 0x4 ADD PUSH2 0xFC5 SWAP1 PUSH2 0x286A JUMP JUMPDEST PUSH1 0x40 MLOAD DUP1 SWAP2 SUB SWAP1 REVERT JUMPDEST DUP1 PUSH1 0x5 ADD PUSH0 CALLER PUSH20 0xFFFFFFFFFFFFFFFFFFFFFFFFFFFFFFFFFFFFFFFF AND PUSH20 0xFFFFFFFFFFFFFFFFFFFFFFFFFFFFFFFFFFFFFFFF AND DUP2 MSTORE PUSH1 0x20 ADD SWAP1 DUP2 MSTORE PUSH1 0x20 ADD PUSH0 KECCAK256 PUSH0 SWAP1 SLOAD SWAP1 PUSH2 0x100 EXP SWAP1 DIV PUSH1 0xFF AND ISZERO PUSH2 0x105A JUMPI PUSH1 0x40 MLOAD PUSH32 0x8C379A000000000000000000000000000000000000000000000000000000000 DUP2 MSTORE PUSH1 0x4 ADD PUSH2 0x1051 SWAP1 PUSH2 0x28D2 JUMP JUMPDEST PUSH1 0x40 MLOAD DUP1 SWAP2 SUB SWAP1 REVERT JUMPDEST PUSH1 0x1 DUP2 PUSH1 0x5 ADD PUSH0 CALLER PUSH20 0xFFFFFFFFFFFFFFFFFFFFFFFFFFFFFFFFFFFFFFFF AND PUSH20 0xFFFFFFFFFFFFFFFFFFFFFFFFFFFFFFFFFFFFFFFF AND DUP2 MSTORE PUSH1 0x20 ADD SWAP1 DUP2 MSTORE PUSH1 0x20 ADD PUSH0 KECCAK256 PUSH0 PUSH2 0x100 EXP DUP2 SLOAD DUP2 PUSH1 0xFF MUL NOT AND SWAP1 DUP4 ISZERO ISZERO MUL OR SWAP1 SSTORE POP PUSH1 0x1 DUP2 PUSH1 0x4 ADD PUSH0 DUP3 DUP3 SLOAD PUSH2 0x10C5 SWAP2 SWAP1 PUSH2 0x19A1 JUMP JUMPDEST SWAP3 POP POP DUP2 SWAP1 SSTORE POP DUP2 CALLER PUSH20 0xFFFFFFFFFFFFFFFFFFFFFFFFFFFFFFFFFFFFFFFF AND PUSH32 0x4D99B957A2BC29A30EBD96A7BE8E68FE50A3C701DB28A91436490B7D53870CA4 PUSH1 0x40 MLOAD PUSH1 0x40 MLOAD DUP1 SWAP2 SUB SWAP1 LOG3 POP POP JUMP JUMPDEST PUSH1 0x1 PUSH1 0x9 SLOAD EQ PUSH2 0x1159 JUMPI PUSH1 0x40 MLOAD PUSH32 0x8C379A000000000000000000000000000000000000000000000000000000000 DUP2 MSTORE PUSH1 0x4 ADD PUSH2 0x1150 SWAP1 PUSH2 0x1E6A JUMP JUMPDEST PUSH1 0x40 MLOAD DUP1 SWAP2 SUB SWAP1 REVERT JUMPDEST PUSH0 PUSH1 0x9 DUP2 SWAP1 SSTORE POP PUSH1 0x2 SLOAD TIMESTAMP LT ISZERO PUSH2 0x11A5 JUMPI PUSH1 0x40 MLOAD PUSH32 0x8C379A000000000000000000000000000000000000000000000000000000000 DUP2 MSTORE PUSH1 0x4 ADD PUSH2 0x119C SWAP1 PUSH2 0x2960 JUMP JUMPDEST PUSH1 0x40 MLOAD DUP1 SWAP2 SUB SWAP1 REVERT JUMPDEST PUSH1 0x4 PUSH0 SWAP1 SLOAD SWAP1 PUSH2 0x100 EXP SWAP1 DIV PUSH1 0xFF AND ISZERO PUSH2 0x11F4 JUMPI PUSH1 0x40 MLOAD PUSH32 0x8C379A000000000000000000000000000000000000000000000000000000000 DUP2 MSTORE PUSH1 0x4 ADD PUSH2 0x11EB SWAP1 PUSH2 0x29EE JUMP JUMPDEST PUSH1 0x40 MLOAD DUP1 SWAP2 SUB SWAP1 REVERT JUMPDEST PUSH0 PUSH1 0x7 PUSH0 CALLER PUSH20 0xFFFFFFFFFFFFFFFFFFFFFFFFFFFFFFFFFFFFFFFF AND PUSH20 0xFFFFFFFFFFFFFFFFFFFFFFFFFFFFFFFFFFFFFFFF AND DUP2 MSTORE PUSH1 0x20 ADD SWAP1 DUP2 MSTORE PUSH1 0x20 ADD PUSH0 KECCAK256 SLOAD SWAP1 POP PUSH0 DUP2 GT PUSH2 0x1277 JUMPI PUSH1 0x40 MLOAD PUSH32 0x8C379A000000000000000000000000000000000000000000000000000000000 DUP2 MSTORE PUSH1 0x4 ADD PUSH2 0x126E SWAP1 PUSH2 0x2A56 JUMP JUMPDEST PUSH1 0x40 MLOAD DUP1 SWAP2 SUB SWAP1 REVERT JUMPDEST PUSH0 PUSH1 0x7 PUSH0 CALLER PUSH20 0xFFFFFFFFFFFFFFFFFFFFFFFFFFFFFFFFFFFFFFFF AND PUSH20 0xFFFFFFFFFFFFFFFFFFFFFFFFFFFFFFFFFFFFFFFF AND DUP2 MSTORE PUSH1 0x20 ADD SWAP1 DUP2 MSTORE PUSH1 0x20 ADD PUSH0 KECCAK256 DUP2 SWAP1 SSTORE POP PUSH0 PUSH1 0x8 PUSH0 CALLER PUSH20 0xFFFFFFFFFFFFFFFFFFFFFFFFFFFFFFFFFFFFFFFF AND PUSH20 0xFFFFFFFFFFFFFFFFFFFFFFFFFFFFFFFFFFFFFFFF AND DUP2 MSTORE PUSH1 0x20 ADD SWAP1 DUP2 MSTORE PUSH1 0x20 ADD PUSH0 KECCAK256 PUSH0 PUSH2 0x100 EXP DUP2 SLOAD DUP2 PUSH1 0xFF MUL NOT AND SWAP1 DUP4 ISZERO ISZERO MUL OR SWAP1 SSTORE POP PUSH0 PUSH1 0x5 SLOAD GT ISZERO PUSH2 0x1331 JUMPI PUSH1 0x1 PUSH1 0x5 PUSH0 DUP3 DUP3 SLOAD PUSH2 0x1329 SWAP2 SWAP1 PUSH2 0x270D JUMP JUMPDEST SWAP3 POP POP DUP2 SWAP1 SSTORE POP JUMPDEST PUSH0 CALLER PUSH20 0xFFFFFFFFFFFFFFFFFFFFFFFFFFFFFFFFFFFFFFFF AND DUP3 PUSH1 0x40 MLOAD PUSH2 0x1356 SWAP1 PUSH2 0x21DF JUMP JUMPDEST PUSH0 PUSH1 0x40 MLOAD DUP1 DUP4 SUB DUP2 DUP6 DUP8 GAS CALL SWAP3 POP POP POP RETURNDATASIZE DUP1 PUSH0 DUP2 EQ PUSH2 0x1390 JUMPI PUSH1 0x40 MLOAD SWAP2 POP PUSH1 0x1F NOT PUSH1 0x3F RETURNDATASIZE ADD AND DUP3 ADD PUSH1 0x40 MSTORE RETURNDATASIZE DUP3 MSTORE RETURNDATASIZE PUSH0 PUSH1 0x20 DUP5 ADD RETURNDATACOPY PUSH2 0x1395 JUMP JUMPDEST PUSH1 0x60 SWAP2 POP JUMPDEST POP POP SWAP1 POP DUP1 PUSH2 0x13D9 JUMPI PUSH1 0x40 MLOAD PUSH32 0x8C379A000000000000000000000000000000000000000000000000000000000 DUP2 MSTORE PUSH1 0x4 ADD PUSH2 0x13D0 SWAP1 PUSH2 0x2ABE JUMP JUMPDEST PUSH1 0x40 MLOAD DUP1 SWAP2 SUB SWAP1 REVERT JUMPDEST DUP2 PUSH1 0x3 PUSH0 DUP3 DUP3 SLOAD PUSH2 0x13EA SWAP2 SWAP1 PUSH2 0x270D JUMP JUMPDEST SWAP3 POP POP DUP2 SWAP1 SSTORE POP CALLER PUSH20 0xFFFFFFFFFFFFFFFFFFFFFFFFFFFFFFFFFFFFFFFF AND PUSH32 0xA171B6942063C6F2800CE40A780EDCE37BAA2B618571B11EEDD1E69E626E7D76 DUP4 PUSH1 0x40 MLOAD PUSH2 0x1437 SWAP2 SWAP1 PUSH2 0x19E3 JUMP JUMPDEST PUSH1 0x40 MLOAD DUP1 SWAP2 SUB SWAP1 LOG2 POP POP PUSH1 0x1 PUSH1 0x9 DUP2 SWAP1 SSTORE POP JUMP JUMPDEST PUSH1 0x5 SLOAD DUP2 JUMP JUMPDEST PUSH1 0x4 PUSH0 SWAP1 SLOAD SWAP1 PUSH2 0x100 EXP SWAP1 DIV PUSH1 0xFF AND DUP2 JUMP JUMPDEST PUSH1 0x60 PUSH0 PUSH0 PUSH0 PUSH0 PUSH1 0x6 DUP1 SLOAD SWAP1 POP DUP7 LT PUSH2 0x14B0 JUMPI PUSH1 0x40 MLOAD PUSH32 0x8C379A000000000000000000000000000000000000000000000000000000000 DUP2 MSTORE PUSH1 0x4 ADD PUSH2 0x14A7 SWAP1 PUSH2 0x1ED2 JUMP JUMPDEST PUSH1 0x40 MLOAD DUP1 SWAP2 SUB SWAP1 REVERT JUMPDEST PUSH0 PUSH1 0x6 DUP8 DUP2 SLOAD DUP2 LT PUSH2 0x14C5 JUMPI PUSH2 0x14C4 PUSH2 0x1EF0 JUMP JUMPDEST JUMPDEST SWAP1 PUSH0 MSTORE PUSH1 0x20 PUSH0 KECCAK256 SWAP1 PUSH1 0x6 MUL ADD SWAP1 POP DUP1 PUSH0 ADD DUP1 SLOAD PUSH2 0x14E1 SWAP1 PUSH2 0x2479 JUMP JUMPDEST DUP1 PUSH1 0x1F ADD PUSH1 0x20 DUP1 SWAP2 DIV MUL PUSH1 0x20 ADD PUSH1 0x40 MLOAD SWAP1 DUP2 ADD PUSH1 0x40 MSTORE DUP1 SWAP3 SWAP2 SWAP1 DUP2 DUP2 MSTORE PUSH1 0x20 ADD DUP3 DUP1 SLOAD PUSH2 0x150D SWAP1 PUSH2 0x2479 JUMP JUMPDEST DUP1 ISZERO PUSH2 0x1558 JUMPI DUP1 PUSH1 0x1F LT PUSH2 0x152F JUMPI PUSH2 0x100 DUP1 DUP4 SLOAD DIV MUL DUP4 MSTORE SWAP2 PUSH1 0x20 ADD SWAP2 PUSH2 0x1558 JUMP JUMPDEST DUP3 ADD SWAP2 SWAP1 PUSH0 MSTORE PUSH1 0x20 PUSH0 KECCAK256 SWAP1 JUMPDEST DUP2 SLOAD DUP2 MSTORE SWAP1 PUSH1 0x1 ADD SWAP1 PUSH1 0x20 ADD DUP1 DUP4 GT PUSH2 0x153B JUMPI DUP3 SWAP1 SUB PUSH1 0x1F AND DUP3 ADD SWAP2 JUMPDEST POP POP POP POP POP SWAP6 POP DUP1 PUSH1 0x1 ADD PUSH0 SWAP1 SLOAD SWAP1 PUSH2 0x100 EXP SWAP1 DIV PUSH20 0xFFFFFFFFFFFFFFFFFFFFFFFFFFFFFFFFFFFFFFFF AND SWAP5 POP DUP1 PUSH1 0x2 ADD SLOAD SWAP4 POP DUP1 PUSH1 0x3 ADD PUSH0 SWAP1 SLOAD SWAP1 PUSH2 0x100 EXP SWAP1 DIV PUSH1 0xFF AND SWAP3 POP DUP1 PUSH1 0x4 ADD SLOAD SWAP2 POP POP SWAP2 SWAP4 SWAP6 SWAP1 SWAP3 SWAP5 POP JUMP JUMPDEST PUSH1 0x3 SLOAD DUP2 JUMP JUMPDEST PUSH1 0x1 SLOAD DUP2 JUMP JUMPDEST PUSH1 0x2 SLOAD TIMESTAMP LT PUSH2 0x1600 JUMPI PUSH1 0x40 MLOAD PUSH32 0x8C379A000000000000000000000000000000000000000000000000000000000 DUP2 MSTORE PUSH1 0x4 ADD PUSH2 0x15F7 SWAP1 PUSH2 0x2B4C JUMP JUMPDEST PUSH1 0x40 MLOAD DUP1 SWAP2 SUB SWAP1 REVERT JUMPDEST PUSH1 0x1 PUSH1 0x9 SLOAD EQ PUSH2 0x1645 JUMPI PUSH1 0x40 MLOAD PUSH32 0x8C379A000000000000000000000000000000000000000000000000000000000 DUP2 MSTORE PUSH1 0x4 ADD PUSH2 0x163C SWAP1 PUSH2 0x1E6A JUMP JUMPDEST PUSH1 0x40 MLOAD DUP1 SWAP2 SUB SWAP1 REVERT JUMPDEST PUSH0 PUSH1 0x9 DUP2 SWAP1 SSTORE POP PUSH0 CALLVALUE GT PUSH2 0x168E JUMPI PUSH1 0x40 MLOAD PUSH32 0x8C379A000000000000000000000000000000000000000000000000000000000 DUP2 MSTORE PUSH1 0x4 ADD PUSH2 0x1685 SWAP1 PUSH2 0x2BB4 JUMP JUMPDEST PUSH1 0x40 MLOAD DUP1 SWAP2 SUB SWAP1 REVERT JUMPDEST PUSH1 0x8 PUSH0 CALLER PUSH20 0xFFFFFFFFFFFFFFFFFFFFFFFFFFFFFFFFFFFFFFFF AND PUSH20 0xFFFFFFFFFFFFFFFFFFFFFFFFFFFFFFFFFFFFFFFF AND DUP2 MSTORE PUSH1 0x20 ADD SWAP1 DUP2 MSTORE PUSH1 0x20 ADD PUSH0 KECCAK256 PUSH0 SWAP1 SLOAD SWAP1 PUSH2 0x100 EXP SWAP1 DIV PUSH1 0xFF AND PUSH2 0x174B JUMPI PUSH1 0x1 PUSH1 0x8 PUSH0 CALLER PUSH20 0xFFFFFFFFFFFFFFFFFFFFFFFFFFFFFFFFFFFFFFFF AND PUSH20 0xFFFFFFFFFFFFFFFFFFFFFFFFFFFFFFFFFFFFFFFF AND DUP2 MSTORE PUSH1 0x20 ADD SWAP1 DUP2 MSTORE PUSH1 0x20 ADD PUSH0 KECCAK256 PUSH0 PUSH2 0x100 EXP DUP2 SLOAD DUP2 PUSH1 0xFF MUL NOT AND SWAP1 DUP4 ISZERO ISZERO MUL OR SWAP1 SSTORE POP PUSH1 0x1 PUSH1 0x5 PUSH0 DUP3 DUP3 SLOAD PUSH2 0x1743 SWAP2 SWAP1 PUSH2 0x19A1 JUMP JUMPDEST SWAP3 POP POP DUP2 SWAP1 SSTORE POP JUMPDEST CALLVALUE PUSH1 0x7 PUSH0 CALLER PUSH20 0xFFFFFFFFFFFFFFFFFFFFFFFFFFFFFFFFFFFFFFFF AND PUSH20 0xFFFFFFFFFFFFFFFFFFFFFFFFFFFFFFFFFFFFFFFF AND DUP2 MSTORE PUSH1 0x20 ADD SWAP1 DUP2 MSTORE PUSH1 0x20 ADD PUSH0 KECCAK256 PUSH0 DUP3 DUP3 SLOAD PUSH2 0x1797 SWAP2 SWAP1 PUSH2 0x19A1 JUMP JUMPDEST SWAP3 POP POP DUP2 SWAP1 SSTORE POP CALLVALUE PUSH1 0x3 PUSH0 DUP3 DUP3 SLOAD PUSH2 0x17AF SWAP2 SWAP1 PUSH2 0x19A1 JUMP JUMPDEST SWAP3 POP POP DUP2 SWAP1 SSTORE POP PUSH1 0x4 PUSH0 SWAP1 SLOAD SWAP1 PUSH2 0x100 EXP SWAP1 DIV PUSH1 0xFF AND ISZERO DUP1 ISZERO PUSH2 0x17D6 JUMPI POP PUSH1 0x1 SLOAD PUSH1 0x3 SLOAD LT ISZERO JUMPDEST ISZERO PUSH2 0x182F JUMPI PUSH1 0x1 PUSH1 0x4 PUSH0 PUSH2 0x100 EXP DUP2 SLOAD DUP2 PUSH1 0xFF MUL NOT AND SWAP1 DUP4 ISZERO ISZERO MUL OR SWAP1 SSTORE POP PUSH32 0xFBFD8AB7C24300FA9888CD721C8565A7DA56759384781283684DCF7C7C4A846B PUSH1 0x3 SLOAD PUSH1 0x40 MLOAD PUSH2 0x1826 SWAP2 SWAP1 PUSH2 0x19E3 JUMP JUMPDEST PUSH1 0x40 MLOAD DUP1 SWAP2 SUB SWAP1 LOG1 JUMPDEST CALLER PUSH20 0xFFFFFFFFFFFFFFFFFFFFFFFFFFFFFFFFFFFFFFFF AND PUSH32 0x1BB460CCAAF70FBACFEC17A376F8ACBD278C1405590FFCC8EBE4B88DAF4F64AD CALLVALUE PUSH1 0x40 MLOAD PUSH2 0x1875 SWAP2 SWAP1 PUSH2 0x19E3 JUMP JUMPDEST PUSH1 0x40 MLOAD DUP1 SWAP2 SUB SWAP1 LOG2 PUSH1 0x1 PUSH1 0x9 DUP2 SWAP1 SSTORE POP JUMP JUMPDEST PUSH0 PUSH1 0x7 PUSH0 DUP4 PUSH20 0xFFFFFFFFFFFFFFFFFFFFFFFFFFFFFFFFFFFFFFFF AND PUSH20 0xFFFFFFFFFFFFFFFFFFFFFFFFFFFFFFFFFFFFFFFF AND DUP2 MSTORE PUSH1 0x20 ADD SWAP1 DUP2 MSTORE PUSH1 0x20 ADD PUSH0 KECCAK256 SLOAD SWAP1 POP SWAP2 SWAP1 POP JUMP JUMPDEST PUSH0 DUP3 DUP3 MSTORE PUSH1 0x20 DUP3 ADD SWAP1 POP SWAP3 SWAP2 POP POP JUMP JUMPDEST PUSH32 0x446561646C696E65207061737365643B2063616E6E6F74206163636570742064 PUSH0 DUP3 ADD MSTORE PUSH32 0x697265637420636F6E747269627574696F6E7300000000000000000000000000 PUSH1 0x20 DUP3 ADD MSTORE POP JUMP JUMPDEST PUSH0 PUSH2 0x1937 PUSH1 0x33 DUP4 PUSH2 0x18CD JUMP JUMPDEST SWAP2 POP PUSH2 0x1942 DUP3 PUSH2 0x18DD JUMP JUMPDEST PUSH1 0x40 DUP3 ADD SWAP1 POP SWAP2 SWAP1 POP JUMP JUMPDEST PUSH0 PUSH1 0x20 DUP3 ADD SWAP1 POP DUP2 DUP2 SUB PUSH0 DUP4 ADD MSTORE PUSH2 0x1964 DUP2 PUSH2 0x192B JUMP JUMPDEST SWAP1 POP SWAP2 SWAP1 POP JUMP JUMPDEST PUSH0 DUP2 SWAP1 POP SWAP2 SWAP1 POP JUMP JUMPDEST PUSH32 0x4E487B7100000000000000000000000000000000000000000000000000000000 PUSH0 MSTORE PUSH1 0x11 PUSH1 0x4 MSTORE PUSH1 0x24 PUSH0 REVERT JUMPDEST PUSH0 PUSH2 0x19AB DUP3 PUSH2 0x196B JUMP JUMPDEST SWAP2 POP PUSH2 0x19B6 DUP4 PUSH2 0x196B JUMP JUMPDEST SWAP3 POP DUP3 DUP3 ADD SWAP1 POP DUP1 DUP3 GT ISZERO PUSH2 0x19CE JUMPI PUSH2 0x19CD PUSH2 0x1974 JUMP JUMPDEST JUMPDEST SWAP3 SWAP2 POP POP JUMP JUMPDEST PUSH2 0x19DD DUP2 PUSH2 0x196B JUMP JUMPDEST DUP3 MSTORE POP POP JUMP JUMPDEST PUSH0 PUSH1 0x20 DUP3 ADD SWAP1 POP PUSH2 0x19F6 PUSH0 DUP4 ADD DUP5 PUSH2 0x19D4 JUMP JUMPDEST SWAP3 SWAP2 POP POP JUMP JUMPDEST PUSH0 PUSH0 REVERT JUMPDEST PUSH0 PUSH0 REVERT JUMPDEST PUSH2 0x1A0D DUP2 PUSH2 0x196B JUMP JUMPDEST DUP2 EQ PUSH2 0x1A17 JUMPI PUSH0 PUSH0 REVERT JUMPDEST POP JUMP JUMPDEST PUSH0 DUP2 CALLDATALOAD SWAP1 POP PUSH2 0x1A28 DUP2 PUSH2 0x1A04 JUMP JUMPDEST SWAP3 SWAP2 POP POP JUMP JUMPDEST PUSH0 PUSH1 0x20 DUP3 DUP5 SUB SLT ISZERO PUSH2 0x1A43 JUMPI PUSH2 0x1A42 PUSH2 0x19FC JUMP JUMPDEST JUMPDEST PUSH0 PUSH2 0x1A50 DUP5 DUP3 DUP6 ADD PUSH2 0x1A1A JUMP JUMPDEST SWAP2 POP POP SWAP3 SWAP2 POP POP JUMP JUMPDEST PUSH0 PUSH0 REVERT JUMPDEST PUSH0 PUSH0 REVERT JUMPDEST PUSH0 PUSH0 REVERT JUMPDEST PUSH0 PUSH0 DUP4 PUSH1 0x1F DUP5 ADD SLT PUSH2 0x1A7A JUMPI PUSH2 0x1A79 PUSH2 0x1A59 JUMP JUMPDEST JUMPDEST DUP3 CALLDATALOAD SWAP1 POP PUSH8 0xFFFFFFFFFFFFFFFF DUP2 GT ISZERO PUSH2 0x1A97 JUMPI PUSH2 0x1A96 PUSH2 0x1A5D JUMP JUMPDEST JUMPDEST PUSH1 0x20 DUP4 ADD SWAP2 POP DUP4 PUSH1 0x1 DUP3 MUL DUP4 ADD GT ISZERO PUSH2 0x1AB3 JUMPI PUSH2 0x1AB2 PUSH2 0x1A61 JUMP JUMPDEST JUMPDEST SWAP3 POP SWAP3 SWAP1 POP JUMP JUMPDEST PUSH0 PUSH20 0xFFFFFFFFFFFFFFFFFFFFFFFFFFFFFFFFFFFFFFFF DUP3 AND SWAP1 POP SWAP2 SWAP1 POP JUMP JUMPDEST PUSH0 PUSH2 0x1AE3 DUP3 PUSH2 0x1ABA JUMP JUMPDEST SWAP1 POP SWAP2 SWAP1 POP JUMP JUMPDEST PUSH2 0x1AF3 DUP2 PUSH2 0x1AD9 JUMP JUMPDEST DUP2 EQ PUSH2 0x1AFD JUMPI PUSH0 PUSH0 REVERT JUMPDEST POP JUMP JUMPDEST PUSH0 DUP2 CALLDATALOAD SWAP1 POP PUSH2 0x1B0E DUP2 PUSH2 0x1AEA JUMP JUMPDEST SWAP3 SWAP2 POP POP JUMP JUMPDEST PUSH0 PUSH0 PUSH0 PUSH0 PUSH1 0x60 DUP6 DUP8 SUB SLT ISZERO PUSH2 0x1B2C JUMPI PUSH2 0x1B2B PUSH2 0x19FC JUMP JUMPDEST JUMPDEST PUSH0 DUP6 ADD CALLDATALOAD PUSH8 0xFFFFFFFFFFFFFFFF DUP2 GT ISZERO PUSH2 0x1B49 JUMPI PUSH2 0x1B48 PUSH2 0x1A00 JUMP JUMPDEST JUMPDEST PUSH2 0x1B55 DUP8 DUP3 DUP9 ADD PUSH2 0x1A65 JUMP JUMPDEST SWAP5 POP SWAP5 POP POP PUSH1 0x20 PUSH2 0x1B68 DUP8 DUP3 DUP9 ADD PUSH2 0x1B00 JUMP JUMPDEST SWAP3 POP POP PUSH1 0x40 PUSH2 0x1B79 DUP8 DUP3 DUP9 ADD PUSH2 0x1A1A JUMP JUMPDEST SWAP2 POP POP SWAP3 SWAP6 SWAP2 SWAP5 POP SWAP3 POP JUMP JUMPDEST PUSH0 PUSH2 0x1B8F DUP3 PUSH2 0x1ABA JUMP JUMPDEST SWAP1 POP SWAP2 SWAP1 POP JUMP JUMPDEST PUSH2 0x1B9F DUP2 PUSH2 0x1B85 JUMP JUMPDEST DUP2 EQ PUSH2 0x1BA9 JUMPI PUSH0 PUSH0 REVERT JUMPDEST POP JUMP JUMPDEST PUSH0 DUP2 CALLDATALOAD SWAP1 POP PUSH2 0x1BBA DUP2 PUSH2 0x1B96 JUMP JUMPDEST SWAP3 SWAP2 POP POP JUMP JUMPDEST PUSH0 PUSH1 0x20 DUP3 DUP5 SUB SLT ISZERO PUSH2 0x1BD5 JUMPI PUSH2 0x1BD4 PUSH2 0x19FC JUMP JUMPDEST JUMPDEST PUSH0 PUSH2 0x1BE2 DUP5 DUP3 DUP6 ADD PUSH2 0x1BAC JUMP JUMPDEST SWAP2 POP POP SWAP3 SWAP2 POP POP JUMP JUMPDEST PUSH0 DUP2 ISZERO ISZERO SWAP1 POP SWAP2 SWAP1 POP JUMP JUMPDEST PUSH2 0x1BFF DUP2 PUSH2 0x1BEB JUMP JUMPDEST DUP3 MSTORE POP POP JUMP JUMPDEST PUSH0 PUSH1 0x20 DUP3 ADD SWAP1 POP PUSH2 0x1C18 PUSH0 DUP4 ADD DUP5 PUSH2 0x1BF6 JUMP JUMPDEST SWAP3 SWAP2 POP POP JUMP JUMPDEST PUSH2 0x1C27 DUP2 PUSH2 0x1B85 JUMP JUMPDEST DUP3 MSTORE POP POP JUMP JUMPDEST PUSH0 PUSH2 0x100 DUP3 ADD SWAP1 POP PUSH2 0x1C41 PUSH0 DUP4 ADD DUP12 PUSH2 0x1C1E JUMP JUMPDEST PUSH2 0x1C4E PUSH1 0x20 DUP4 ADD DUP11 PUSH2 0x19D4 JUMP JUMPDEST PUSH2 0x1C5B PUSH1 0x40 DUP4 ADD DUP10 PUSH2 0x19D4 JUMP JUMPDEST PUSH2 0x1C68 PUSH1 0x60 DUP4 ADD DUP9 PUSH2 0x19D4 JUMP JUMPDEST PUSH2 0x1C75 PUSH1 0x80 DUP4 ADD DUP8 PUSH2 0x19D4 JUMP JUMPDEST PUSH2 0x1C82 PUSH1 0xA0 DUP4 ADD DUP7 PUSH2 0x1BF6 JUMP JUMPDEST PUSH2 0x1C8F PUSH1 0xC0 DUP4 ADD DUP6 PUSH2 0x19D4 JUMP JUMPDEST PUSH2 0x1C9C PUSH1 0xE0 DUP4 ADD DUP5 PUSH2 0x19D4 JUMP JUMPDEST SWAP10 SWAP9 POP POP POP POP POP POP POP POP POP JUMP JUMPDEST PUSH0 PUSH0 PUSH1 0x40 DUP4 DUP6 SUB SLT ISZERO PUSH2 0x1CBF JUMPI PUSH2 0x1CBE PUSH2 0x19FC JUMP JUMPDEST JUMPDEST PUSH0 PUSH2 0x1CCC DUP6 DUP3 DUP7 ADD PUSH2 0x1A1A JUMP JUMPDEST SWAP3 POP POP PUSH1 0x20 PUSH2 0x1CDD DUP6 DUP3 DUP7 ADD PUSH2 0x1BAC JUMP JUMPDEST SWAP2 POP POP SWAP3 POP SWAP3 SWAP1 POP JUMP JUMPDEST PUSH0 PUSH1 0x20 DUP3 ADD SWAP1 POP PUSH2 0x1CFA PUSH0 DUP4 ADD DUP5 PUSH2 0x1C1E JUMP JUMPDEST SWAP3 SWAP2 POP POP JUMP JUMPDEST PUSH0 DUP2 MLOAD SWAP1 POP SWAP2 SWAP1 POP JUMP JUMPDEST DUP3 DUP2 DUP4 MCOPY PUSH0 DUP4 DUP4 ADD MSTORE POP POP POP JUMP JUMPDEST PUSH0 PUSH1 0x1F NOT PUSH1 0x1F DUP4 ADD AND SWAP1 POP SWAP2 SWAP1 POP JUMP JUMPDEST PUSH0 PUSH2 0x1D32 DUP3 PUSH2 0x1D00 JUMP JUMPDEST PUSH2 0x1D3C DUP2 DUP6 PUSH2 0x18CD JUMP JUMPDEST SWAP4 POP PUSH2 0x1D4C DUP2 DUP6 PUSH1 0x20 DUP7 ADD PUSH2 0x1D0A JUMP JUMPDEST PUSH2 0x1D55 DUP2 PUSH2 0x1D18 JUMP JUMPDEST DUP5 ADD SWAP2 POP POP SWAP3 SWAP2 POP POP JUMP JUMPDEST PUSH0 PUSH1 0xA0 DUP3 ADD SWAP1 POP DUP2 DUP2 SUB PUSH0 DUP4 ADD MSTORE PUSH2 0x1D78 DUP2 DUP9 PUSH2 0x1D28 JUMP JUMPDEST SWAP1 POP PUSH2 0x1D87 PUSH1 0x20 DUP4 ADD DUP8 PUSH2 0x1C1E JUMP JUMPDEST PUSH2 0x1D94 PUSH1 0x40 DUP4 ADD DUP7 PUSH2 0x19D4 JUMP JUMPDEST PUSH2 0x1DA1 PUSH1 0x60 DUP4 ADD DUP6 PUSH2 0x1BF6 JUMP JUMPDEST PUSH2 0x1DAE PUSH1 0x80 DUP4 ADD DUP5 PUSH2 0x19D4 JUMP JUMPDEST SWAP7 SWAP6 POP POP POP POP POP POP JUMP JUMPDEST PUSH32 0x4F6E6C79206D616E616765720000000000000000000000000000000000000000 PUSH0 DUP3 ADD MSTORE POP JUMP JUMPDEST PUSH0 PUSH2 0x1DEC PUSH1 0xC DUP4 PUSH2 0x18CD JUMP JUMPDEST SWAP2 POP PUSH2 0x1DF7 DUP3 PUSH2 0x1DB8 JUMP JUMPDEST PUSH1 0x20 DUP3 ADD SWAP1 POP SWAP2 SWAP1 POP JUMP JUMPDEST PUSH0 PUSH1 0x20 DUP3 ADD SWAP1 POP DUP2 DUP2 SUB PUSH0 DUP4 ADD MSTORE PUSH2 0x1E19 DUP2 PUSH2 0x1DE0 JUMP JUMPDEST SWAP1 POP SWAP2 SWAP1 POP JUMP JUMPDEST PUSH32 0x5265656E7472616E742063616C6C000000000000000000000000000000000000 PUSH0 DUP3 ADD MSTORE POP JUMP JUMPDEST PUSH0 PUSH2 0x1E54 PUSH1 0xE DUP4 PUSH2 0x18CD JUMP JUMPDEST SWAP2 POP PUSH2 0x1E5F DUP3 PUSH2 0x1E20 JUMP JUMPDEST PUSH1 0x20 DUP3 ADD SWAP1 POP SWAP2 SWAP1 POP JUMP JUMPDEST PUSH0 PUSH1 0x20 DUP3 ADD SWAP1 POP DUP2 DUP2 SUB PUSH0 DUP4 ADD MSTORE PUSH2 0x1E81 DUP2 PUSH2 0x1E48 JUMP JUMPDEST SWAP1 POP SWAP2 SWAP1 POP JUMP JUMPDEST PUSH32 0x496E76616C696420726571756573742069640000000000000000000000000000 PUSH0 DUP3 ADD MSTORE POP JUMP JUMPDEST PUSH0 PUSH2 0x1EBC PUSH1 0x12 DUP4 PUSH2 0x18CD JUMP JUMPDEST SWAP2 POP PUSH2 0x1EC7 DUP3 PUSH2 0x1E88 JUMP JUMPDEST PUSH1 0x20 DUP3 ADD SWAP1 POP SWAP2 SWAP1 POP JUMP JUMPDEST PUSH0 PUSH1 0x20 DUP3 ADD SWAP1 POP DUP2 DUP2 SUB PUSH0 DUP4 ADD MSTORE PUSH2 0x1EE9 DUP2 PUSH2 0x1EB0 JUMP JUMPDEST SWAP1 POP SWAP2 SWAP1 POP JUMP JUMPDEST PUSH32 0x4E487B7100000000000000000000000000000000000000000000000000000000 PUSH0 MSTORE PUSH1 0x32 PUSH1 0x4 MSTORE PUSH1 0x24 PUSH0 REVERT JUMPDEST PUSH32 0x416C726561647920636F6D706C65746564000000000000000000000000000000 PUSH0 DUP3 ADD MSTORE POP JUMP JUMPDEST PUSH0 PUSH2 0x1F51 PUSH1 0x11 DUP4 PUSH2 0x18CD JUMP JUMPDEST SWAP2 POP PUSH2 0x1F5C DUP3 PUSH2 0x1F1D JUMP JUMPDEST PUSH1 0x20 DUP3 ADD SWAP1 POP SWAP2 SWAP1 POP JUMP JUMPDEST PUSH0 PUSH1 0x20 DUP3 ADD SWAP1 POP DUP2 DUP2 SUB PUSH0 DUP4 ADD MSTORE PUSH2 0x1F7E DUP2 PUSH2 0x1F45 JUMP JUMPDEST SWAP1 POP SWAP2 SWAP1 POP JUMP JUMPDEST PUSH32 0x46756E64696E6720676F616C206E6F7420726561636865643B2063616E6E6F74 PUSH0 DUP3 ADD MSTORE PUSH32 0x2064697362757273650000000000000000000000000000000000000000000000 PUSH1 0x20 DUP3 ADD MSTORE POP JUMP JUMPDEST PUSH0 PUSH2 0x1FDF PUSH1 0x29 DUP4 PUSH2 0x18CD JUMP JUMPDEST SWAP2 POP PUSH2 0x1FEA DUP3 PUSH2 0x1F85 JUMP JUMPDEST PUSH1 0x40 DUP3 ADD SWAP1 POP SWAP2 SWAP1 POP JUMP JUMPDEST PUSH0 PUSH1 0x20 DUP3 ADD SWAP1 POP DUP2 DUP2 SUB PUSH0 DUP4 ADD MSTORE PUSH2 0x200C DUP2 PUSH2 0x1FD3 JUMP JUMPDEST SWAP1 POP SWAP2 SWAP1 POP JUMP JUMPDEST PUSH32 0x496E73756666696369656E7420636F6E74726163742062616C616E6365000000 PUSH0 DUP3 ADD MSTORE POP JUMP JUMPDEST PUSH0 PUSH2 0x2047 PUSH1 0x1D DUP4 PUSH2 0x18CD JUMP JUMPDEST SWAP2 POP PUSH2 0x2052 DUP3 PUSH2 0x2013 JUMP JUMPDEST PUSH1 0x20 DUP3 ADD SWAP1 POP SWAP2 SWAP1 POP JUMP JUMPDEST PUSH0 PUSH1 0x20 DUP3 ADD SWAP1 POP DUP2 DUP2 SUB PUSH0 DUP4 ADD MSTORE PUSH2 0x2074 DUP2 PUSH2 0x203B JUMP JUMPDEST SWAP1 POP SWAP2 SWAP1 POP JUMP JUMPDEST PUSH32 0x4E6F20636F6E7472696275746F72732070726573656E74000000000000000000 PUSH0 DUP3 ADD MSTORE POP JUMP JUMPDEST PUSH0 PUSH2 0x20AF PUSH1 0x17 DUP4 PUSH2 0x18CD JUMP JUMPDEST SWAP2 POP PUSH2 0x20BA DUP3 PUSH2 0x207B JUMP JUMPDEST PUSH1 0x20 DUP3 ADD SWAP1 POP SWAP2 SWAP1 POP JUMP JUMPDEST PUSH0 PUSH1 0x20 DUP3 ADD SWAP1 POP DUP2 DUP2 SUB PUSH0 DUP4 ADD MSTORE PUSH2 0x20DC DUP2 PUSH2 0x20A3 JUMP JUMPDEST SWAP1 POP SWAP2 SWAP1 POP JUMP JUMPDEST PUSH0 PUSH2 0x20ED DUP3 PUSH2 0x196B JUMP JUMPDEST SWAP2 POP PUSH2 0x20F8 DUP4 PUSH2 0x196B JUMP JUMPDEST SWAP3 POP DUP3 DUP3 MUL PUSH2 0x2106 DUP2 PUSH2 0x196B JUMP JUMPDEST SWAP2 POP DUP3 DUP3 DIV DUP5 EQ DUP4 ISZERO OR PUSH2 0x211D JUMPI PUSH2 0x211C PUSH2 0x1974 JUMP JUMPDEST JUMPDEST POP SWAP3 SWAP2 POP POP JUMP JUMPDEST PUSH32 0x4E6F7420656E6F75676820766F74657320286D616A6F72697479207265717569 PUSH0 DUP3 ADD MSTORE PUSH32 0x7265642900000000000000000000000000000000000000000000000000000000 PUSH1 0x20 DUP3 ADD MSTORE POP JUMP JUMPDEST PUSH0 PUSH2 0x217E PUSH1 0x24 DUP4 PUSH2 0x18CD JUMP JUMPDEST SWAP2 POP PUSH2 0x2189 DUP3 PUSH2 0x2124 JUMP JUMPDEST PUSH1 0x40 DUP3 ADD SWAP1 POP SWAP2 SWAP1 POP JUMP JUMPDEST PUSH0 PUSH1 0x20 DUP3 ADD SWAP1 POP DUP2 DUP2 SUB PUSH0 DUP4 ADD MSTORE PUSH2 0x21AB DUP2 PUSH2 0x2172 JUMP JUMPDEST SWAP1 POP SWAP2 SWAP1 POP JUMP JUMPDEST PUSH0 DUP2 SWAP1 POP SWAP3 SWAP2 POP POP JUMP JUMPDEST POP JUMP JUMPDEST PUSH0 PUSH2 0x21CA PUSH0 DUP4 PUSH2 0x21B2 JUMP JUMPDEST SWAP2 POP PUSH2 0x21D5 DUP3 PUSH2 0x21BC JUMP JUMPDEST PUSH0 DUP3 ADD SWAP1 POP SWAP2 SWAP1 POP JUMP JUMPDEST PUSH0 PUSH2 0x21E9 DUP3 PUSH2 0x21BF JUMP JUMPDEST SWAP2 POP DUP2 SWAP1 POP SWAP2 SWAP1 POP JUMP JUMPDEST PUSH32 0x5472616E73666572206661696C65640000000000000000000000000000000000 PUSH0 DUP3 ADD MSTORE POP JUMP JUMPDEST PUSH0 PUSH2 0x2227 PUSH1 0xF DUP4 PUSH2 0x18CD JUMP JUMPDEST SWAP2 POP PUSH2 0x2232 DUP3 PUSH2 0x21F3 JUMP JUMPDEST PUSH1 0x20 DUP3 ADD SWAP1 POP SWAP2 SWAP1 POP JUMP JUMPDEST PUSH0 PUSH1 0x20 DUP3 ADD SWAP1 POP DUP2 DUP2 SUB PUSH0 DUP4 ADD MSTORE PUSH2 0x2254 DUP2 PUSH2 0x221B JUMP JUMPDEST SWAP1 POP SWAP2 SWAP1 POP JUMP JUMPDEST PUSH0 DUP2 SWAP1 POP SWAP2 SWAP1 POP JUMP JUMPDEST PUSH0 PUSH2 0x227E PUSH2 0x2279 PUSH2 0x2274 DUP5 PUSH2 0x1ABA JUMP JUMPDEST PUSH2 0x225B JUMP JUMPDEST PUSH2 0x1ABA JUMP JUMPDEST SWAP1 POP SWAP2 SWAP1 POP JUMP JUMPDEST PUSH0 PUSH2 0x228F DUP3 PUSH2 0x2264 JUMP JUMPDEST SWAP1 POP SWAP2 SWAP1 POP JUMP JUMPDEST PUSH0 PUSH2 0x22A0 DUP3 PUSH2 0x2285 JUMP JUMPDEST SWAP1 POP SWAP2 SWAP1 POP JUMP JUMPDEST PUSH2 0x22B0 DUP2 PUSH2 0x2296 JUMP JUMPDEST DUP3 MSTORE POP POP JUMP JUMPDEST PUSH0 PUSH1 0x40 DUP3 ADD SWAP1 POP PUSH2 0x22C9 PUSH0 DUP4 ADD DUP6 PUSH2 0x22A7 JUMP JUMPDEST PUSH2 0x22D6 PUSH1 0x20 DUP4 ADD DUP5 PUSH2 0x19D4 JUMP JUMPDEST SWAP4 SWAP3 POP POP POP JUMP JUMPDEST PUSH32 0x496E76616C696420726563697069656E74000000000000000000000000000000 PUSH0 DUP3 ADD MSTORE POP JUMP JUMPDEST PUSH0 PUSH2 0x2311 PUSH1 0x11 DUP4 PUSH2 0x18CD JUMP JUMPDEST SWAP2 POP PUSH2 0x231C DUP3 PUSH2 0x22DD JUMP JUMPDEST PUSH1 0x20 DUP3 ADD SWAP1 POP SWAP2 SWAP1 POP JUMP JUMPDEST PUSH0 PUSH1 0x20 DUP3 ADD SWAP1 POP DUP2 DUP2 SUB PUSH0 DUP4 ADD MSTORE PUSH2 0x233E DUP2 PUSH2 0x2305 JUMP JUMPDEST SWAP1 POP SWAP2 SWAP1 POP JUMP JUMPDEST PUSH32 0x4465736372697074696F6E207265717569726564000000000000000000000000 PUSH0 DUP3 ADD MSTORE POP JUMP JUMPDEST PUSH0 PUSH2 0x2379 PUSH1 0x14 DUP4 PUSH2 0x18CD JUMP JUMPDEST SWAP2 POP PUSH2 0x2384 DUP3 PUSH2 0x2345 JUMP JUMPDEST PUSH1 0x20 DUP3 ADD SWAP1 POP SWAP2 SWAP1 POP JUMP JUMPDEST PUSH0 PUSH1 0x20 DUP3 ADD SWAP1 POP DUP2 DUP2 SUB PUSH0 DUP4 ADD MSTORE PUSH2 0x23A6 DUP2 PUSH2 0x236D JUMP JUMPDEST SWAP1 POP SWAP2 SWAP1 POP JUMP JUMPDEST PUSH32 0x56616C7565203E20302072657175697265640000000000000000000000000000 PUSH0 DUP3 ADD MSTORE POP JUMP JUMPDEST PUSH0 PUSH2 0x23E1 PUSH1 0x12 DUP4 PUSH2 0x18CD JUMP JUMPDEST SWAP2 POP PUSH2 0x23EC DUP3 PUSH2 0x23AD JUMP JUMPDEST PUSH1 0x20 DUP3 ADD SWAP1 POP SWAP2 SWAP1 POP JUMP JUMPDEST PUSH0 PUSH1 0x20 DUP3 ADD SWAP1 POP DUP2 DUP2 SUB PUSH0 DUP4 ADD MSTORE PUSH2 0x240E DUP2 PUSH2 0x23D5 JUMP JUMPDEST SWAP1 POP SWAP2 SWAP1 POP JUMP JUMPDEST PUSH0 DUP3 SWAP1 POP SWAP3 SWAP2 POP POP JUMP JUMPDEST PUSH32 0x4E487B7100000000000000000000000000000000000000000000000000000000 PUSH0 MSTORE PUSH1 0x41 PUSH1 0x4 MSTORE PUSH1 0x24 PUSH0 REVERT JUMPDEST PUSH32 0x4E487B7100000000000000000000000000000000000000000000000000000000 PUSH0 MSTORE PUSH1 0x22 PUSH1 0x4 MSTORE PUSH1 0x24 PUSH0 REVERT JUMPDEST PUSH0 PUSH1 0x2 DUP3 DIV SWAP1 POP PUSH1 0x1 DUP3 AND DUP1 PUSH2 0x2490 JUMPI PUSH1 0x7F DUP3 AND SWAP2 POP JUMPDEST PUSH1 0x20 DUP3 LT DUP2 SUB PUSH2 0x24A3 JUMPI PUSH2 0x24A2 PUSH2 0x244C JUMP JUMPDEST JUMPDEST POP SWAP2 SWAP1 POP JUMP JUMPDEST PUSH0 DUP2 SWAP1 POP DUP2 PUSH0 MSTORE PUSH1 0x20 PUSH0 KECCAK256 SWAP1 POP SWAP2 SWAP1 POP JUMP JUMPDEST PUSH0 PUSH1 0x20 PUSH1 0x1F DUP4 ADD DIV SWAP1 POP SWAP2 SWAP1 POP JUMP JUMPDEST PUSH0 DUP3 DUP3 SHL SWAP1 POP SWAP3 SWAP2 POP POP JUMP JUMPDEST PUSH0 PUSH1 0x8 DUP4 MUL PUSH2 0x2505 PUSH32 0xFFFFFFFFFFFFFFFFFFFFFFFFFFFFFFFFFFFFFFFFFFFFFFFFFFFFFFFFFFFFFFFF DUP3 PUSH2 0x24CA JUMP JUMPDEST PUSH2 0x250F DUP7 DUP4 PUSH2 0x24CA JUMP JUMPDEST SWAP6 POP DUP1 NOT DUP5 AND SWAP4 POP DUP1 DUP7 AND DUP5 OR SWAP3 POP POP POP SWAP4 SWAP3 POP POP POP JUMP JUMPDEST PUSH0 PUSH2 0x2541 PUSH2 0x253C PUSH2 0x2537 DUP5 PUSH2 0x196B JUMP JUMPDEST PUSH2 0x225B JUMP JUMPDEST PUSH2 0x196B JUMP JUMPDEST SWAP1 POP SWAP2 SWAP1 POP JUMP JUMPDEST PUSH0 DUP2 SWAP1 POP SWAP2 SWAP1 POP JUMP JUMPDEST PUSH2 0x255A DUP4 PUSH2 0x2527 JUMP JUMPDEST PUSH2 0x256E PUSH2 0x2566 DUP3 PUSH2 0x2548 JUMP JUMPDEST DUP5 DUP5 SLOAD PUSH2 0x24D6 JUMP JUMPDEST DUP3 SSTORE POP POP POP POP JUMP JUMPDEST PUSH0 PUSH0 SWAP1 POP SWAP1 JUMP JUMPDEST PUSH2 0x2585 PUSH2 0x2576 JUMP JUMPDEST PUSH2 0x2590 DUP2 DUP5 DUP5 PUSH2 0x2551 JUMP JUMPDEST POP POP POP JUMP JUMPDEST JUMPDEST DUP2 DUP2 LT ISZERO PUSH2 0x25B3 JUMPI PUSH2 0x25A8 PUSH0 DUP3 PUSH2 0x257D JUMP JUMPDEST PUSH1 0x1 DUP2 ADD SWAP1 POP PUSH2 0x2596 JUMP JUMPDEST POP POP JUMP JUMPDEST PUSH1 0x1F DUP3 GT ISZERO PUSH2 0x25F8 JUMPI PUSH2 0x25C9 DUP2 PUSH2 0x24A9 JUMP JUMPDEST PUSH2 0x25D2 DUP5 PUSH2 0x24BB JUMP JUMPDEST DUP2 ADD PUSH1 0x20 DUP6 LT ISZERO PUSH2 0x25E1 JUMPI DUP2 SWAP1 POP JUMPDEST PUSH2 0x25F5 PUSH2 0x25ED DUP6 PUSH2 0x24BB JUMP JUMPDEST DUP4 ADD DUP3 PUSH2 0x2595 JUMP JUMPDEST POP POP JUMPDEST POP POP POP JUMP JUMPDEST PUSH0 DUP3 DUP3 SHR SWAP1 POP SWAP3 SWAP2 POP POP JUMP JUMPDEST PUSH0 PUSH2 0x2618 PUSH0 NOT DUP5 PUSH1 0x8 MUL PUSH2 0x25FD JUMP JUMPDEST NOT DUP1 DUP4 AND SWAP2 POP POP SWAP3 SWAP2 POP POP JUMP JUMPDEST PUSH0 PUSH2 0x2630 DUP4 DUP4 PUSH2 0x2609 JUMP JUMPDEST SWAP2 POP DUP3 PUSH1 0x2 MUL DUP3 OR SWAP1 POP SWAP3 SWAP2 POP POP JUMP JUMPDEST PUSH2 0x264A DUP4 DUP4 PUSH2 0x2415 JUMP JUMPDEST PUSH8 0xFFFFFFFFFFFFFFFF DUP2 GT ISZERO PUSH2 0x2663 JUMPI PUSH2 0x2662 PUSH2 0x241F JUMP JUMPDEST JUMPDEST PUSH2 0x266D DUP3 SLOAD PUSH2 0x2479 JUMP JUMPDEST PUSH2 0x2678 DUP3 DUP3 DUP6 PUSH2 0x25B7 JUMP JUMPDEST PUSH0 PUSH1 0x1F DUP4 GT PUSH1 0x1 DUP2 EQ PUSH2 0x26A5 JUMPI PUSH0 DUP5 ISZERO PUSH2 0x2693 JUMPI DUP3 DUP8 ADD CALLDATALOAD SWAP1 POP JUMPDEST PUSH2 0x269D DUP6 DUP3 PUSH2 0x2625 JUMP JUMPDEST DUP7 SSTORE POP PUSH2 0x2704 JUMP JUMPDEST PUSH1 0x1F NOT DUP5 AND PUSH2 0x26B3 DUP7 PUSH2 0x24A9 JUMP JUMPDEST PUSH0 JUMPDEST DUP3 DUP2 LT ISZERO PUSH2 0x26DA JUMPI DUP5 DUP10 ADD CALLDATALOAD DUP3 SSTORE PUSH1 0x1 DUP3 ADD SWAP2 POP PUSH1 0x20 DUP6 ADD SWAP5 POP PUSH1 0x20 DUP2 ADD SWAP1 POP PUSH2 0x26B5 JUMP JUMPDEST DUP7 DUP4 LT ISZERO PUSH2 0x26F7 JUMPI DUP5 DUP10 ADD CALLDATALOAD PUSH2 0x26F3 PUSH1 0x1F DUP10 AND DUP3 PUSH2 0x2609 JUMP JUMPDEST DUP4 SSTORE POP JUMPDEST PUSH1 0x1 PUSH1 0x2 DUP9 MUL ADD DUP9 SSTORE POP POP POP JUMPDEST POP POP POP POP POP POP POP JUMP JUMPDEST PUSH0 PUSH2 0x2717 DUP3 PUSH2 0x196B JUMP JUMPDEST SWAP2 POP PUSH2 0x2722 DUP4 PUSH2 0x196B JUMP JUMPDEST SWAP3 POP DUP3 DUP3 SUB SWAP1 POP DUP2 DUP2 GT ISZERO PUSH2 0x273A JUMPI PUSH2 0x2739 PUSH2 0x1974 JUMP JUMPDEST JUMPDEST SWAP3 SWAP2 POP POP JUMP JUMPDEST DUP3 DUP2 DUP4 CALLDATACOPY PUSH0 DUP4 DUP4 ADD MSTORE POP POP POP JUMP JUMPDEST PUSH0 PUSH2 0x2759 DUP4 DUP6 PUSH2 0x18CD JUMP JUMPDEST SWAP4 POP PUSH2 0x2766 DUP4 DUP6 DUP5 PUSH2 0x2740 JUMP JUMPDEST PUSH2 0x276F DUP4 PUSH2 0x1D18 JUMP JUMPDEST DUP5 ADD SWAP1 POP SWAP4 SWAP3 POP POP POP JUMP JUMPDEST PUSH0 PUSH1 0x60 DUP3 ADD SWAP1 POP DUP2 DUP2 SUB PUSH0 DUP4 ADD MSTORE PUSH2 0x2793 DUP2 DUP7 DUP9 PUSH2 0x274E JUMP JUMPDEST SWAP1 POP PUSH2 0x27A2 PUSH1 0x20 DUP4 ADD DUP6 PUSH2 0x22A7 JUMP JUMPDEST PUSH2 0x27AF PUSH1 0x40 DUP4 ADD DUP5 PUSH2 0x19D4 JUMP JUMPDEST SWAP6 SWAP5 POP POP POP POP POP JUMP JUMPDEST PUSH32 0x4F6E6C7920636F6E7472696275746F72732063616E20766F7465000000000000 PUSH0 DUP3 ADD MSTORE POP JUMP JUMPDEST PUSH0 PUSH2 0x27EC PUSH1 0x1A DUP4 PUSH2 0x18CD JUMP JUMPDEST SWAP2 POP PUSH2 0x27F7 DUP3 PUSH2 0x27B8 JUMP JUMPDEST PUSH1 0x20 DUP3 ADD SWAP1 POP SWAP2 SWAP1 POP JUMP JUMPDEST PUSH0 PUSH1 0x20 DUP3 ADD SWAP1 POP DUP2 DUP2 SUB PUSH0 DUP4 ADD MSTORE PUSH2 0x2819 DUP2 PUSH2 0x27E0 JUMP JUMPDEST SWAP1 POP SWAP2 SWAP1 POP JUMP JUMPDEST PUSH32 0x5265717565737420616C726561647920636F6D706C6574656400000000000000 PUSH0 DUP3 ADD MSTORE POP JUMP JUMPDEST PUSH0 PUSH2 0x2854 PUSH1 0x19 DUP4 PUSH2 0x18CD JUMP JUMPDEST SWAP2 POP PUSH2 0x285F DUP3 PUSH2 0x2820 JUMP JUMPDEST PUSH1 0x20 DUP3 ADD SWAP1 POP SWAP2 SWAP1 POP JUMP JUMPDEST PUSH0 PUSH1 0x20 DUP3 ADD SWAP1 POP DUP2 DUP2 SUB PUSH0 DUP4 ADD MSTORE PUSH2 0x2881 DUP2 PUSH2 0x2848 JUMP JUMPDEST SWAP1 POP SWAP2 SWAP1 POP JUMP JUMPDEST PUSH32 0x416C726561647920766F74656420666F72207468697320726571756573740000 PUSH0 DUP3 ADD MSTORE POP JUMP JUMPDEST PUSH0 PUSH2 0x28BC PUSH1 0x1E DUP4 PUSH2 0x18CD JUMP JUMPDEST SWAP2 POP PUSH2 0x28C7 DUP3 PUSH2 0x2888 JUMP JUMPDEST PUSH1 0x20 DUP3 ADD SWAP1 POP SWAP2 SWAP1 POP JUMP JUMPDEST PUSH0 PUSH1 0x20 DUP3 ADD SWAP1 POP DUP2 DUP2 SUB PUSH0 DUP4 ADD MSTORE PUSH2 0x28E9 DUP2 PUSH2 0x28B0 JUMP JUMPDEST SWAP1 POP SWAP2 SWAP1 POP JUMP JUMPDEST PUSH32 0x416374696F6E20616C6C6F776564206F6E6C7920616674657220646561646C69 PUSH0 DUP3 ADD MSTORE PUSH32 0x6E65000000000000000000000000000000000000000000000000000000000000 PUSH1 0x20 DUP3 ADD MSTORE POP JUMP JUMPDEST PUSH0 PUSH2 0x294A PUSH1 0x22 DUP4 PUSH2 0x18CD JUMP JUMPDEST SWAP2 POP PUSH2 0x2955 DUP3 PUSH2 0x28F0 JUMP JUMPDEST PUSH1 0x40 DUP3 ADD SWAP1 POP SWAP2 SWAP1 POP JUMP JUMPDEST PUSH0 PUSH1 0x20 DUP3 ADD SWAP1 POP DUP2 DUP2 SUB PUSH0 DUP4 ADD MSTORE PUSH2 0x2977 DUP2 PUSH2 0x293E JUMP JUMPDEST SWAP1 POP SWAP2 SWAP1 POP JUMP JUMPDEST PUSH32 0x476F616C20726561636865643B20726566756E6473206E6F7420617661696C61 PUSH0 DUP3 ADD MSTORE PUSH32 0x626C650000000000000000000000000000000000000000000000000000000000 PUSH1 0x20 DUP3 ADD MSTORE POP JUMP JUMPDEST PUSH0 PUSH2 0x29D8 PUSH1 0x23 DUP4 PUSH2 0x18CD JUMP JUMPDEST SWAP2 POP PUSH2 0x29E3 DUP3 PUSH2 0x297E JUMP JUMPDEST PUSH1 0x40 DUP3 ADD SWAP1 POP SWAP2 SWAP1 POP JUMP JUMPDEST PUSH0 PUSH1 0x20 DUP3 ADD SWAP1 POP DUP2 DUP2 SUB PUSH0 DUP4 ADD MSTORE PUSH2 0x2A05 DUP2 PUSH2 0x29CC JUMP JUMPDEST SWAP1 POP SWAP2 SWAP1 POP JUMP JUMPDEST PUSH32 0x4E6F20636F6E747269627574696F6E7320746F20726566756E64000000000000 PUSH0 DUP3 ADD MSTORE POP JUMP JUMPDEST PUSH0 PUSH2 0x2A40 PUSH1 0x1A DUP4 PUSH2 0x18CD JUMP JUMPDEST SWAP2 POP PUSH2 0x2A4B DUP3 PUSH2 0x2A0C JUMP JUMPDEST PUSH1 0x20 DUP3 ADD SWAP1 POP SWAP2 SWAP1 POP JUMP JUMPDEST PUSH0 PUSH1 0x20 DUP3 ADD SWAP1 POP DUP2 DUP2 SUB PUSH0 DUP4 ADD MSTORE PUSH2 0x2A6D DUP2 PUSH2 0x2A34 JUMP JUMPDEST SWAP1 POP SWAP2 SWAP1 POP JUMP JUMPDEST PUSH32 0x526566756E64207472616E73666572206661696C656400000000000000000000 PUSH0 DUP3 ADD MSTORE POP JUMP JUMPDEST PUSH0 PUSH2 0x2AA8 PUSH1 0x16 DUP4 PUSH2 0x18CD JUMP JUMPDEST SWAP2 POP PUSH2 0x2AB3 DUP3 PUSH2 0x2A74 JUMP JUMPDEST PUSH1 0x20 DUP3 ADD SWAP1 POP SWAP2 SWAP1 POP JUMP JUMPDEST PUSH0 PUSH1 0x20 DUP3 ADD SWAP1 POP DUP2 DUP2 SUB PUSH0 DUP4 ADD MSTORE PUSH2 0x2AD5 DUP2 PUSH2 0x2A9C JUMP JUMPDEST SWAP1 POP SWAP2 SWAP1 POP JUMP JUMPDEST PUSH32 0x416374696F6E20616C6C6F776564206F6E6C79206265666F726520646561646C PUSH0 DUP3 ADD MSTORE PUSH32 0x696E650000000000000000000000000000000000000000000000000000000000 PUSH1 0x20 DUP3 ADD MSTORE POP JUMP JUMPDEST PUSH0 PUSH2 0x2B36 PUSH1 0x23 DUP4 PUSH2 0x18CD JUMP JUMPDEST SWAP2 POP PUSH2 0x2B41 DUP3 PUSH2 0x2ADC JUMP JUMPDEST PUSH1 0x40 DUP3 ADD SWAP1 POP SWAP2 SWAP1 POP JUMP JUMPDEST PUSH0 PUSH1 0x20 DUP3 ADD SWAP1 POP DUP2 DUP2 SUB PUSH0 DUP4 ADD MSTORE PUSH2 0x2B63 DUP2 PUSH2 0x2B2A JUMP JUMPDEST SWAP1 POP SWAP2 SWAP1 POP JUMP JUMPDEST PUSH32 0x4D7573742073656E642045544800000000000000000000000000000000000000 PUSH0 DUP3 ADD MSTORE POP JUMP JUMPDEST PUSH0 PUSH2 0x2B9E PUSH1 0xD DUP4 PUSH2 0x18CD JUMP JUMPDEST SWAP2 POP PUSH2 0x2BA9 DUP3 PUSH2 0x2B6A JUMP JUMPDEST PUSH1 0x20 DUP3 ADD SWAP1 POP SWAP2 SWAP1 POP JUMP JUMPDEST PUSH0 PUSH1 0x20 DUP3 ADD SWAP1 POP DUP2 DUP2 SUB PUSH0 DUP4 ADD MSTORE PUSH2 0x2BCB DUP2 PUSH2 0x2B92 JUMP JUMPDEST SWAP1 POP SWAP2 SWAP1 POP JUMP INVALID LOG2 PUSH5 0x6970667358 0x22 SLT KECCAK256 SWAP2 PC PUSH29 0x3533BBAA605E97B34136920C7C06DF6E1F41DD1ED5893F0BDBD8B969C9 PUSH5 0x736F6C6343 STOP ADDMOD 0x1E STOP CALLER "
		},
		"gasEstimates": {
			"creation": {
				"codeDepositCost": "2254400",
				"executionCost": "infinite",
				"totalCost": "infinite"
			},
			"external": {
				"": "196",
				"contribute()": "infinite",
				"contributions(address)": "2869",
				"contributorsCount()": "2492",
				"createRequest(string,address,uint256)": "infinite",
				"deadline()": "2515",
				"finalizeRequest(uint256)": "infinite",
				"getContributionOf(address)": "2939",
				"getRequest(uint256)": "infinite",
				"getRequestsCount()": "2463",
				"getSummary()": "infinite",
				"goalReached()": "2555",
				"hasVoted(uint256,address)": "7455",
				"isContributor(address)": "2901",
				"manager()": "2618",
				"raisedAmount()": "2469",
				"refund()": "infinite",
				"target()": "2491",
				"voteRequest(uint256)": "infinite"
			}
		},
		"methodIdentifiers": {
			"contribute()": "d7bb99ba",
			"contributions(address)": "42e94c90",
			"contributorsCount()": "7569b3d7",
			"createRequest(string,address,uint256)": "1b16bb5c",
			"deadline()": "29dcb0cf",
			"finalizeRequest(uint256)": "03441006",
			"getContributionOf(address)": "e14ed045",
			"getRequest(uint256)": "c58343ef",
			"getRequestsCount()": "3410452a",
			"getSummary()": "4051ddac",
			"goalReached()": "7d3d6522",
			"hasVoted(uint256,address)": "43859632",
			"isContributor(address)": "1d0d35f5",
			"manager()": "481c6a75",
			"raisedAmount()": "c59ee1dc",
			"refund()": "590e1ae3",
			"target()": "d4b83992",
			"voteRequest(uint256)": "4cb6f4a5"
		}
	},
	"abi": [
		{
			"inputs": [
				{
					"internalType": "uint256",
					"name": "_target",
					"type": "uint256"
				},
				{
					"internalType": "uint256",
					"name": "_durationSeconds",
					"type": "uint256"
				}
			],
			"stateMutability": "nonpayable",
			"type": "constructor"
		},
		{
			"anonymous": false,
			"inputs": [
				{
					"indexed": true,
					"internalType": "address",
					"name": "contributor",
					"type": "address"
				},
				{
					"indexed": false,
					"internalType": "uint256",
					"name": "amount",
					"type": "uint256"
				}
			],
			"name": "ContributionReceived",
			"type": "event"
		},
		{
			"anonymous": false,
			"inputs": [
				{
					"indexed": false,
					"internalType": "uint256",
					"name": "timestamp",
					"type": "uint256"
				}
			],
			"name": "DeadlinePassed",
			"type": "event"
		},
		{
			"anonymous": false,
			"inputs": [
				{
					"indexed": false,
					"internalType": "uint256",
					"name": "totalAmount",
					"type": "uint256"
				}
			],
			"name": "GoalReached",
			"type": "event"
		},
		{
			"anonymous": false,
			"inputs": [
				{
					"indexed": true,
					"internalType": "address",
					"name": "contributor",
					"type": "address"
				},
				{
					"indexed": false,
					"internalType": "uint256",
					"name": "amount",
					"type": "uint256"
				}
			],
			"name": "RefundIssued",
			"type": "event"
		},
		{
			"anonymous": false,
			"inputs": [
				{
					"indexed": true,
					"internalType": "uint256",
					"name": "requestId",
					"type": "uint256"
				},
				{
					"indexed": false,
					"internalType": "string",
					"name": "description",
					"type": "string"
				},
				{
					"indexed": false,
					"internalType": "address",
					"name": "recipient",
					"type": "address"
				},
				{
					"indexed": false,
					"internalType": "uint256",
					"name": "value",
					"type": "uint256"
				}
			],
			"name": "RequestCreated",
			"type": "event"
		},
		{
			"anonymous": false,
			"inputs": [
				{
					"indexed": true,
					"internalType": "uint256",
					"name": "requestId",
					"type": "uint256"
				},
				{
					"indexed": false,
					"internalType": "address",
					"name": "recipient",
					"type": "address"
				},
				{
					"indexed": false,
					"internalType": "uint256",
					"name": "value",
					"type": "uint256"
				}
			],
			"name": "RequestFinalized",
			"type": "event"
		},
		{
			"anonymous": false,
			"inputs": [
				{
					"indexed": true,
					"internalType": "address",
					"name": "voter",
					"type": "address"
				},
				{
					"indexed": true,
					"internalType": "uint256",
					"name": "requestId",
					"type": "uint256"
				}
			],
			"name": "Voted",
			"type": "event"
		},
		{
			"stateMutability": "payable",
			"type": "fallback"
		},
		{
			"inputs": [],
			"name": "contribute",
			"outputs": [],
			"stateMutability": "payable",
			"type": "function"
		},
		{
			"inputs": [
				{
					"internalType": "address",
					"name": "",
					"type": "address"
				}
			],
			"name": "contributions",
			"outputs": [
				{
					"internalType": "uint256",
					"name": "",
					"type": "uint256"
				}
			],
			"stateMutability": "view",
			"type": "function"
		},
		{
			"inputs": [],
			"name": "contributorsCount",
			"outputs": [
				{
					"internalType": "uint256",
					"name": "",
					"type": "uint256"
				}
			],
			"stateMutability": "view",
			"type": "function"
		},
		{
			"inputs": [
				{
					"internalType": "string",
					"name": "_description",
					"type": "string"
				},
				{
					"internalType": "address payable",
					"name": "_recipient",
					"type": "address"
				},
				{
					"internalType": "uint256",
					"name": "_value",
					"type": "uint256"
				}
			],
			"name": "createRequest",
			"outputs": [],
			"stateMutability": "nonpayable",
			"type": "function"
		},
		{
			"inputs": [],
			"name": "deadline",
			"outputs": [
				{
					"internalType": "uint256",
					"name": "",
					"type": "uint256"
				}
			],
			"stateMutability": "view",
			"type": "function"
		},
		{
			"inputs": [
				{
					"internalType": "uint256",
					"name": "requestId",
					"type": "uint256"
				}
			],
			"name": "finalizeRequest",
			"outputs": [],
			"stateMutability": "nonpayable",
			"type": "function"
		},
		{
			"inputs": [
				{
					"internalType": "address",
					"name": "contributor",
					"type": "address"
				}
			],
			"name": "getContributionOf",
			"outputs": [
				{
					"internalType": "uint256",
					"name": "",
					"type": "uint256"
				}
			],
			"stateMutability": "view",
			"type": "function"
		},
		{
			"inputs": [
				{
					"internalType": "uint256",
					"name": "requestId",
					"type": "uint256"
				}
			],
			"name": "getRequest",
			"outputs": [
				{
					"internalType": "string",
					"name": "description",
					"type": "string"
				},
				{
					"internalType": "address",
					"name": "recipient",
					"type": "address"
				},
				{
					"internalType": "uint256",
					"name": "value",
					"type": "uint256"
				},
				{
					"internalType": "bool",
					"name": "completed",
					"type": "bool"
				},
				{
					"internalType": "uint256",
					"name": "voteCount",
					"type": "uint256"
				}
			],
			"stateMutability": "view",
			"type": "function"
		},
		{
			"inputs": [],
			"name": "getRequestsCount",
			"outputs": [
				{
					"internalType": "uint256",
					"name": "",
					"type": "uint256"
				}
			],
			"stateMutability": "view",
			"type": "function"
		},
		{
			"inputs": [],
			"name": "getSummary",
			"outputs": [
				{
					"internalType": "address",
					"name": "_manager",
					"type": "address"
				},
				{
					"internalType": "uint256",
					"name": "_target",
					"type": "uint256"
				},
				{
					"internalType": "uint256",
					"name": "_deadline",
					"type": "uint256"
				},
				{
					"internalType": "uint256",
					"name": "_raisedAmount",
					"type": "uint256"
				},
				{
					"internalType": "uint256",
					"name": "_contributorsCount",
					"type": "uint256"
				},
				{
					"internalType": "bool",
					"name": "_goalReached",
					"type": "bool"
				},
				{
					"internalType": "uint256",
					"name": "_requestsCount",
					"type": "uint256"
				},
				{
					"internalType": "uint256",
					"name": "_contractBalance",
					"type": "uint256"
				}
			],
			"stateMutability": "view",
			"type": "function"
		},
		{
			"inputs": [],
			"name": "goalReached",
			"outputs": [
				{
					"internalType": "bool",
					"name": "",
					"type": "bool"
				}
			],
			"stateMutability": "view",
			"type": "function"
		},
		{
			"inputs": [
				{
					"internalType": "uint256",
					"name": "requestId",
					"type": "uint256"
				},
				{
					"internalType": "address",
					"name": "voter",
					"type": "address"
				}
			],
			"name": "hasVoted",
			"outputs": [
				{
					"internalType": "bool",
					"name": "",
					"type": "bool"
				}
			],
			"stateMutability": "view",
			"type": "function"
		},
		{
			"inputs": [
				{
					"internalType": "address",
					"name": "",
					"type": "address"
				}
			],
			"name": "isContributor",
			"outputs": [
				{
					"internalType": "bool",
					"name": "",
					"type": "bool"
				}
			],
			"stateMutability": "view",
			"type": "function"
		},
		{
			"inputs": [],
			"name": "manager",
			"outputs": [
				{
					"internalType": "address",
					"name": "",
					"type": "address"
				}
			],
			"stateMutability": "view",
			"type": "function"
		},
		{
			"inputs": [],
			"name": "raisedAmount",
			"outputs": [
				{
					"internalType": "uint256",
					"name": "",
					"type": "uint256"
				}
			],
			"stateMutability": "view",
			"type": "function"
		},
		{
			"inputs": [],
			"name": "refund",
			"outputs": [],
			"stateMutability": "nonpayable",
			"type": "function"
		},
		{
			"inputs": [],
			"name": "target",
			"outputs": [
				{
					"internalType": "uint256",
					"name": "",
					"type": "uint256"
				}
			],
			"stateMutability": "view",
			"type": "function"
		},
		{
			"inputs": [
				{
					"internalType": "uint256",
					"name": "requestId",
					"type": "uint256"
				}
			],
			"name": "voteRequest",
			"outputs": [],
			"stateMutability": "nonpayable",
			"type": "function"
		},
		{
			"stateMutability": "payable",
			"type": "receive"
		}
	]
}