{
	"data": {
		"bytecode": {
			"linkReferences": {},
			"object": "6080604052348015600e575f5ffd5b50610d6f8061001c5f395ff3fe608060405234801561000f575f5ffd5b5060043610610055575f3560e01c806304a87e3814610059578063560f319214610077578063613137a41461009357806367238562146100af578063c17a340e146100cb575b5f5ffd5b6100616100e9565b60405161006e9190610617565b60405180910390f35b610091600480360381019061008c919061067b565b6101ed565b005b6100ad60048036038101906100a8919061067b565b61030e565b005b6100c960048036038101906100c491906107d2565b6103bf565b005b6100d3610435565b6040516100e09190610828565b60405180910390f35b60605f805480602002602001604051908101604052809291908181526020015f905b828210156101e4578382905f5260205f2090600202016040518060400160405290815f8201805461013b9061086e565b80601f01602080910402602001604051908101604052809291908181526020018280546101679061086e565b80156101b25780601f10610189576101008083540402835291602001916101b2565b820191905f5260205f20905b81548152906001019060200180831161019557829003601f168201915b50505050508152602001600182015f9054906101000a900460ff1615151515815250508152602001906001019061010b565b50505050905090565b5f805490508110610233576040517f08c379a000000000000000000000000000000000000000000000000000000000815260040161022a906108f8565b60405180910390fd5b5f60015f805490506102459190610943565b8154811061025657610255610976565b5b905f5260205f2090600202015f828154811061027557610274610976565b5b905f5260205f2090600202015f8201815f0190816102939190610b58565b50600182015f9054906101000a900460ff16816001015f6101000a81548160ff0219169083151502179055509050505f8054806102d3576102d2610c3d565b5b600190038181905f5260205f2090600202015f5f82015f6102f49190610440565b600182015f6101000a81549060ff02191690555050905550565b5f805490508110610354576040517f08c379a000000000000000000000000000000000000000000000000000000000815260040161034b906108f8565b60405180910390fd5b5f818154811061036757610366610976565b5b905f5260205f2090600202016001015f9054906101000a900460ff16155f828154811061039757610396610976565b5b905f5260205f2090600202016001015f6101000a81548160ff02191690831515021790555050565b5f60405180604001604052808381526020015f1515815250908060018154018082558091505060019003905f5260205f2090600202015f909190919091505f820151815f0190816104109190610c6a565b506020820151816001015f6101000a81548160ff021916908315150217905550505050565b5f5f80549050905090565b50805461044c9061086e565b5f825580601f1061045d575061047a565b601f0160209004905f5260205f2090810190610479919061047d565b5b50565b5b80821115610494575f815f90555060010161047e565b5090565b5f81519050919050565b5f82825260208201905092915050565b5f819050602082019050919050565b5f81519050919050565b5f82825260208201905092915050565b8281835e5f83830152505050565b5f601f19601f8301169050919050565b5f610503826104c1565b61050d81856104cb565b935061051d8185602086016104db565b610526816104e9565b840191505092915050565b5f8115159050919050565b61054581610531565b82525050565b5f604083015f8301518482035f86015261056582826104f9565b915050602083015161057a602086018261053c565b508091505092915050565b5f610590838361054b565b905092915050565b5f602082019050919050565b5f6105ae82610498565b6105b881856104a2565b9350836020820285016105ca856104b2565b805f5b8581101561060557848403895281516105e68582610585565b94506105f183610598565b925060208a019950506001810190506105cd565b50829750879550505050505092915050565b5f6020820190508181035f83015261062f81846105a4565b905092915050565b5f604051905090565b5f5ffd5b5f5ffd5b5f819050919050565b61065a81610648565b8114610664575f5ffd5b50565b5f8135905061067581610651565b92915050565b5f602082840312156106905761068f610640565b5b5f61069d84828501610667565b91505092915050565b5f5ffd5b5f5ffd5b7f4e487b71000000000000000000000000000000000000000000000000000000005f52604160045260245ffd5b6106e4826104e9565b810181811067ffffffffffffffff82111715610703576107026106ae565b5b80604052505050565b5f610715610637565b905061072182826106db565b919050565b5f67ffffffffffffffff8211156107405761073f6106ae565b5b610749826104e9565b9050602081019050919050565b828183375f83830152505050565b5f61077661077184610726565b61070c565b905082815260208101848484011115610792576107916106aa565b5b61079d848285610756565b509392505050565b5f82601f8301126107b9576107b86106a6565b5b81356107c9848260208601610764565b91505092915050565b5f602082840312156107e7576107e6610640565b5b5f82013567ffffffffffffffff81111561080457610803610644565b5b610810848285016107a5565b91505092915050565b61082281610648565b82525050565b5f60208201905061083b5f830184610819565b92915050565b7f4e487b71000000000000000000000000000000000000000000000000000000005f52602260045260245ffd5b5f600282049050600182168061088557607f821691505b60208210810361089857610897610841565b5b50919050565b5f82825260208201905092915050565b7f496e76616c6964207461736b20696e64657800000000000000000000000000005f82015250565b5f6108e260128361089e565b91506108ed826108ae565b602082019050919050565b5f6020820190508181035f83015261090f816108d6565b9050919050565b7f4e487b71000000000000000000000000000000000000000000000000000000005f52601160045260245ffd5b5f61094d82610648565b915061095883610648565b92508282039050818111156109705761096f610916565b5b92915050565b7f4e487b71000000000000000000000000000000000000000000000000000000005f52603260045260245ffd5b5f815490506109b18161086e565b9050919050565b5f819050815f5260205f209050919050565b5f6020601f8301049050919050565b5f82821b905092915050565b5f60088302610a147fffffffffffffffffffffffffffffffffffffffffffffffffffffffffffffffff826109d9565b610a1e86836109d9565b95508019841693508086168417925050509392505050565b5f819050919050565b5f610a59610a54610a4f84610648565b610a36565b610648565b9050919050565b5f819050919050565b610a7283610a3f565b610a86610a7e82610a60565b8484546109e5565b825550505050565b5f5f905090565b610a9d610a8e565b610aa8818484610a69565b505050565b5b81811015610acb57610ac05f82610a95565b600181019050610aae565b5050565b601f821115610b1057610ae1816109b8565b610aea846109ca565b81016020851015610af9578190505b610b0d610b05856109ca565b830182610aad565b50505b505050565b5f82821c905092915050565b5f610b305f1984600802610b15565b1980831691505092915050565b5f610b488383610b21565b9150826002028217905092915050565b818103610b66575050610c3b565b610b6f826109a3565b67ffffffffffffffff811115610b8857610b876106ae565b5b610b92825461086e565b610b9d828285610acf565b5f601f831160018114610bca575f8415610bb8578287015490505b610bc28582610b3d565b865550610c34565b601f198416610bd8876109b8565b9650610be3866109b8565b5f5b82811015610c0a57848901548255600182019150600185019450602081019050610be5565b86831015610c275784890154610c23601f891682610b21565b8355505b6001600288020188555050505b5050505050505b565b7f4e487b71000000000000000000000000000000000000000000000000000000005f52603160045260245ffd5b610c73826104c1565b67ffffffffffffffff811115610c8c57610c8b6106ae565b5b610c96825461086e565b610ca1828285610acf565b5f60209050601f831160018114610cd2575f8415610cc0578287015190505b610cca8582610b3d565b865550610d31565b601f198416610ce0866109b8565b5f5b82811015610d0757848901518255600182019150602085019450602081019050610ce2565b86831015610d245784890151610d20601f891682610b21565b8355505b6001600288020188555050505b50505050505056fea26469706673582212202d0748ba54ece02177b758ef0eded765faa6eab91c58e02168b073e1a9ba85cb64736f6c634300081e0033",
			"opcodes": "PUSH1 0x80 PUSH1 0x40 MSTORE CALLVALUE DUP1 ISZERO PUSH1 0xE JUMPI PUSH0 PUSH0 REVERT JUMPDEST POP PUSH2 0xD6F DUP1 PUSH2 0x1C PUSH0 CODECOPY PUSH0 RETURN INVALID PUSH1 0x80 PUSH1 0x40 MSTORE CALLVALUE DUP1 ISZERO PUSH2 0xF JUMPI PUSH0 PUSH0 REVERT JUMPDEST POP PUSH1 0x4 CALLDATASIZE LT PUSH2 0x55 JUMPI PUSH0 CALLDATALOAD PUSH1 0xE0 SHR DUP1 PUSH4 0x4A87E38 EQ PUSH2 0x59 JUMPI DUP1 PUSH4 0x560F3192 EQ PUSH2 0x77 JUMPI DUP1 PUSH4 0x613137A4 EQ PUSH2 0x93 JUMPI DUP1 PUSH4 0x67238562 EQ PUSH2 0xAF JUMPI DUP1 PUSH4 0xC17A340E EQ PUSH2 0xCB JUMPI JUMPDEST PUSH0 PUSH0 REVERT JUMPDEST PUSH2 0x61 PUSH2 0xE9 JUMP JUMPDEST PUSH1 0x40 MLOAD PUSH2 0x6E SWAP2 SWAP1 PUSH2 0x617 JUMP JUMPDEST PUSH1 0x40 MLOAD DUP1 SWAP2 SUB SWAP1 RETURN JUMPDEST PUSH2 0x91 PUSH1 0x4 DUP1 CALLDATASIZE SUB DUP2 ADD SWAP1 PUSH2 0x8C SWAP2 SWAP1 PUSH2 0x67B JUMP JUMPDEST PUSH2 0x1ED JUMP JUMPDEST STOP JUMPDEST PUSH2 0xAD PUSH1 0x4 DUP1 CALLDATASIZE SUB DUP2 ADD SWAP1 PUSH2 0xA8 SWAP2 SWAP1 PUSH2 0x67B JUMP JUMPDEST PUSH2 0x30E JUMP JUMPDEST STOP JUMPDEST PUSH2 0xC9 PUSH1 0x4 DUP1 CALLDATASIZE SUB DUP2 ADD SWAP1 PUSH2 0xC4 SWAP2 SWAP1 PUSH2 0x7D2 JUMP JUMPDEST PUSH2 0x3BF JUMP JUMPDEST STOP JUMPDEST PUSH2 0xD3 PUSH2 0x435 JUMP JUMPDEST PUSH1 0x40 MLOAD PUSH2 0xE0 SWAP2 SWAP1 PUSH2 0x828 JUMP JUMPDEST PUSH1 0x40 MLOAD DUP1 SWAP2 SUB SWAP1 RETURN JUMPDEST PUSH1 0x60 PUSH0 DUP1 SLOAD DUP1 PUSH1 0x20 MUL PUSH1 0x20 ADD PUSH1 0x40 MLOAD SWAP1 DUP2 ADD PUSH1 0x40 MSTORE DUP1 SWAP3 SWAP2 SWAP1 DUP2 DUP2 MSTORE PUSH1 0x20 ADD PUSH0 SWAP1 JUMPDEST DUP3 DUP3 LT ISZERO PUSH2 0x1E4 JUMPI DUP4 DUP3 SWAP1 PUSH0 MSTORE PUSH1 0x20 PUSH0 KECCAK256 SWAP1 PUSH1 0x2 MUL ADD PUSH1 0x40 MLOAD DUP1 PUSH1 0x40 ADD PUSH1 0x40 MSTORE SWAP1 DUP2 PUSH0 DUP3 ADD DUP1 SLOAD PUSH2 0x13B SWAP1 PUSH2 0x86E JUMP JUMPDEST DUP1 PUSH1 0x1F ADD PUSH1 0x20 DUP1 SWAP2 DIV MUL PUSH1 0x20 ADD PUSH1 0x40 MLOAD SWAP1 DUP2 ADD PUSH1 0x40 MSTORE DUP1 SWAP3 SWAP2 SWAP1 DUP2 DUP2 MSTORE PUSH1 0x20 ADD DUP3 DUP1 SLOAD PUSH2 0x167 SWAP1 PUSH2 0x86E JUMP JUMPDEST DUP1 ISZERO PUSH2 0x1B2 JUMPI DUP1 PUSH1 0x1F LT PUSH2 0x189 JUMPI PUSH2 0x100 DUP1 DUP4 SLOAD DIV MUL DUP4 MSTORE SWAP2 PUSH1 0x20 ADD SWAP2 PUSH2 0x1B2 JUMP JUMPDEST DUP3 ADD SWAP2 SWAP1 PUSH0 MSTORE PUSH1 0x20 PUSH0 KECCAK256 SWAP1 JUMPDEST DUP2 SLOAD DUP2 MSTORE SWAP1 PUSH1 0x1 ADD SWAP1 PUSH1 0x20 ADD DUP1 DUP4 GT PUSH2 0x195 JUMPI DUP3 SWAP1 SUB PUSH1 0x1F AND DUP3 ADD SWAP2 JUMPDEST POP POP POP POP POP DUP2 MSTORE PUSH1 0x20 ADD PUSH1 0x1 DUP3 ADD PUSH0 SWAP1 SLOAD SWAP1 PUSH2 0x100 EXP SWAP1 DIV PUSH1 0xFF AND ISZERO ISZERO ISZERO ISZERO DUP2 MSTORE POP POP DUP2 MSTORE PUSH1 0x20 ADD SWAP1 PUSH1 0x1 ADD SWAP1 PUSH2 0x10B JUMP JUMPDEST POP POP POP POP SWAP1 POP SWAP1 JUMP JUMPDEST PUSH0 DUP1 SLOAD SWAP1 POP DUP2 LT PUSH2 0x233 JUMPI PUSH1 0x40 MLOAD PUSH32 0x8C379A000000000000000000000000000000000000000000000000000000000 DUP2 MSTORE PUSH1 0x4 ADD PUSH2 0x22A SWAP1 PUSH2 0x8F8 JUMP JUMPDEST PUSH1 0x40 MLOAD DUP1 SWAP2 SUB SWAP1 REVERT JUMPDEST PUSH0 PUSH1 0x1 PUSH0 DUP1 SLOAD SWAP1 POP PUSH2 0x245 SWAP2 SWAP1 PUSH2 0x943 JUMP JUMPDEST DUP2 SLOAD DUP2 LT PUSH2 0x256 JUMPI PUSH2 0x255 PUSH2 0x976 JUMP JUMPDEST JUMPDEST SWAP1 PUSH0 MSTORE PUSH1 0x20 PUSH0 KECCAK256 SWAP1 PUSH1 0x2 MUL ADD PUSH0 DUP3 DUP2 SLOAD DUP2 LT PUSH2 0x275 JUMPI PUSH2 0x274 PUSH2 0x976 JUMP JUMPDEST JUMPDEST SWAP1 PUSH0 MSTORE PUSH1 0x20 PUSH0 KECCAK256 SWAP1 PUSH1 0x2 MUL ADD PUSH0 DUP3 ADD DUP2 PUSH0 ADD SWAP1 DUP2 PUSH2 0x293 SWAP2 SWAP1 PUSH2 0xB58 JUMP JUMPDEST POP PUSH1 0x1 DUP3 ADD PUSH0 SWAP1 SLOAD SWAP1 PUSH2 0x100 EXP SWAP1 DIV PUSH1 0xFF AND DUP2 PUSH1 0x1 ADD PUSH0 PUSH2 0x100 EXP DUP2 SLOAD DUP2 PUSH1 0xFF MUL NOT AND SWAP1 DUP4 ISZERO ISZERO MUL OR SWAP1 SSTORE POP SWAP1 POP POP PUSH0 DUP1 SLOAD DUP1 PUSH2 0x2D3 JUMPI PUSH2 0x2D2 PUSH2 0xC3D JUMP JUMPDEST JUMPDEST PUSH1 0x1 SWAP1 SUB DUP2 DUP2 SWAP1 PUSH0 MSTORE PUSH1 0x20 PUSH0 KECCAK256 SWAP1 PUSH1 0x2 MUL ADD PUSH0 PUSH0 DUP3 ADD PUSH0 PUSH2 0x2F4 SWAP2 SWAP1 PUSH2 0x440 JUMP JUMPDEST PUSH1 0x1 DUP3 ADD PUSH0 PUSH2 0x100 EXP DUP2 SLOAD SWAP1 PUSH1 0xFF MUL NOT AND SWAP1 SSTORE POP POP SWAP1 SSTORE POP JUMP JUMPDEST PUSH0 DUP1 SLOAD SWAP1 POP DUP2 LT PUSH2 0x354 JUMPI PUSH1 0x40 MLOAD PUSH32 0x8C379A000000000000000000000000000000000000000000000000000000000 DUP2 MSTORE PUSH1 0x4 ADD PUSH2 0x34B SWAP1 PUSH2 0x8F8 JUMP JUMPDEST PUSH1 0x40 MLOAD DUP1 SWAP2 SUB SWAP1 REVERT JUMPDEST PUSH0 DUP2 DUP2 SLOAD DUP2 LT PUSH2 0x367 JUMPI PUSH2 0x366 PUSH2 0x976 JUMP JUMPDEST JUMPDEST SWAP1 PUSH0 MSTORE PUSH1 0x20 PUSH0 KECCAK256 SWAP1 PUSH1 0x2 MUL ADD PUSH1 0x1 ADD PUSH0 SWAP1 SLOAD SWAP1 PUSH2 0x100 EXP SWAP1 DIV PUSH1 0xFF AND ISZERO PUSH0 DUP3 DUP2 SLOAD DUP2 LT PUSH2 0x397 JUMPI PUSH2 0x396 PUSH2 0x976 JUMP JUMPDEST JUMPDEST SWAP1 PUSH0 MSTORE PUSH1 0x20 PUSH0 KECCAK256 SWAP1 PUSH1 0x2 MUL ADD PUSH1 0x1 ADD PUSH0 PUSH2 0x100 EXP DUP2 SLOAD DUP2 PUSH1 0xFF MUL NOT AND SWAP1 DUP4 ISZERO ISZERO MUL OR SWAP1 SSTORE POP POP JUMP JUMPDEST PUSH0 PUSH1 0x40 MLOAD DUP1 PUSH1 0x40 ADD PUSH1 0x40 MSTORE DUP1 DUP4 DUP2 MSTORE PUSH1 0x20 ADD PUSH0 ISZERO ISZERO DUP2 MSTORE POP SWAP1 DUP1 PUSH1 0x1 DUP2 SLOAD ADD DUP1 DUP3 SSTORE DUP1 SWAP2 POP POP PUSH1 0x1 SWAP1 SUB SWAP1 PUSH0 MSTORE PUSH1 0x20 PUSH0 KECCAK256 SWAP1 PUSH1 0x2 MUL ADD PUSH0 SWAP1 SWAP2 SWAP1 SWAP2 SWAP1 SWAP2 POP PUSH0 DUP3 ADD MLOAD DUP2 PUSH0 ADD SWAP1 DUP2 PUSH2 0x410 SWAP2 SWAP1 PUSH2 0xC6A JUMP JUMPDEST POP PUSH1 0x20 DUP3 ADD MLOAD DUP2 PUSH1 0x1 ADD PUSH0 PUSH2 0x100 EXP DUP2 SLOAD DUP2 PUSH1 0xFF MUL NOT AND SWAP1 DUP4 ISZERO ISZERO MUL OR SWAP1 SSTORE POP POP POP POP JUMP JUMPDEST PUSH0 PUSH0 DUP1 SLOAD SWAP1 POP SWAP1 POP SWAP1 JUMP JUMPDEST POP DUP1 SLOAD PUSH2 0x44C SWAP1 PUSH2 0x86E JUMP JUMPDEST PUSH0 DUP3 SSTORE DUP1 PUSH1 0x1F LT PUSH2 0x45D JUMPI POP PUSH2 0x47A JUMP JUMPDEST PUSH1 0x1F ADD PUSH1 0x20 SWAP1 DIV SWAP1 PUSH0 MSTORE PUSH1 0x20 PUSH0 KECCAK256 SWAP1 DUP2 ADD SWAP1 PUSH2 0x479 SWAP2 SWAP1 PUSH2 0x47D JUMP JUMPDEST JUMPDEST POP JUMP JUMPDEST JUMPDEST DUP1 DUP3 GT ISZERO PUSH2 0x494 JUMPI PUSH0 DUP2 PUSH0 SWAP1 SSTORE POP PUSH1 0x1 ADD PUSH2 0x47E JUMP JUMPDEST POP SWAP1 JUMP JUMPDEST PUSH0 DUP2 MLOAD SWAP1 POP SWAP2 SWAP1 POP JUMP JUMPDEST PUSH0 DUP3 DUP3 MSTORE PUSH1 0x20 DUP3 ADD SWAP1 POP SWAP3 SWAP2 POP POP JUMP JUMPDEST PUSH0 DUP2 SWAP1 POP PUSH1 0x20 DUP3 ADD SWAP1 POP SWAP2 SWAP1 POP JUMP JUMPDEST PUSH0 DUP2 MLOAD SWAP1 POP SWAP2 SWAP1 POP JUMP JUMPDEST PUSH0 DUP3 DUP3 MSTORE PUSH1 0x20 DUP3 ADD SWAP1 POP SWAP3 SWAP2 POP POP JUMP JUMPDEST DUP3 DUP2 DUP4 MCOPY PUSH0 DUP4 DUP4 ADD MSTORE POP POP POP JUMP JUMPDEST PUSH0 PUSH1 0x1F NOT PUSH1 0x1F DUP4 ADD AND SWAP1 POP SWAP2 SWAP1 POP JUMP JUMPDEST PUSH0 PUSH2 0x503 DUP3 PUSH2 0x4C1 JUMP JUMPDEST PUSH2 0x50D DUP2 DUP6 PUSH2 0x4CB JUMP JUMPDEST SWAP4 POP PUSH2 0x51D DUP2 DUP6 PUSH1 0x20 DUP7 ADD PUSH2 0x4DB JUMP JUMPDEST PUSH2 0x526 DUP2 PUSH2 0x4E9 JUMP JUMPDEST DUP5 ADD SWAP2 POP POP SWAP3 SWAP2 POP POP JUMP JUMPDEST PUSH0 DUP2 ISZERO ISZERO SWAP1 POP SWAP2 SWAP1 POP JUMP JUMPDEST PUSH2 0x545 DUP2 PUSH2 0x531 JUMP JUMPDEST DUP3 MSTORE POP POP JUMP JUMPDEST PUSH0 PUSH1 0x40 DUP4 ADD PUSH0 DUP4 ADD MLOAD DUP5 DUP3 SUB PUSH0 DUP7 ADD MSTORE PUSH2 0x565 DUP3 DUP3 PUSH2 0x4F9 JUMP JUMPDEST SWAP2 POP POP PUSH1 0x20 DUP4 ADD MLOAD PUSH2 0x57A PUSH1 0x20 DUP7 ADD DUP3 PUSH2 0x53C JUMP JUMPDEST POP DUP1 SWAP2 POP POP SWAP3 SWAP2 POP POP JUMP JUMPDEST PUSH0 PUSH2 0x590 DUP4 DUP4 PUSH2 0x54B JUMP JUMPDEST SWAP1 POP SWAP3 SWAP2 POP POP JUMP JUMPDEST PUSH0 PUSH1 0x20 DUP3 ADD SWAP1 POP SWAP2 SWAP1 POP JUMP JUMPDEST PUSH0 PUSH2 0x5AE DUP3 PUSH2 0x498 JUMP JUMPDEST PUSH2 0x5B8 DUP2 DUP6 PUSH2 0x4A2 JUMP JUMPDEST SWAP4 POP DUP4 PUSH1 0x20 DUP3 MUL DUP6 ADD PUSH2 0x5CA DUP6 PUSH2 0x4B2 JUMP JUMPDEST DUP1 PUSH0 JUMPDEST DUP6 DUP2 LT ISZERO PUSH2 0x605 JUMPI DUP5 DUP5 SUB DUP10 MSTORE DUP2 MLOAD PUSH2 0x5E6 DUP6 DUP3 PUSH2 0x585 JUMP JUMPDEST SWAP5 POP PUSH2 0x5F1 DUP4 PUSH2 0x598 JUMP JUMPDEST SWAP3 POP PUSH1 0x20 DUP11 ADD SWAP10 POP POP PUSH1 0x1 DUP2 ADD SWAP1 POP PUSH2 0x5CD JUMP JUMPDEST POP DUP3 SWAP8 POP DUP8 SWAP6 POP POP POP POP POP POP SWAP3 SWAP2 POP POP JUMP JUMPDEST PUSH0 PUSH1 0x20 DUP3 ADD SWAP1 POP DUP2 DUP2 SUB PUSH0 DUP4 ADD MSTORE PUSH2 0x62F DUP2 DUP5 PUSH2 0x5A4 JUMP JUMPDEST SWAP1 POP SWAP3 SWAP2 POP POP JUMP JUMPDEST PUSH0 PUSH1 0x40 MLOAD SWAP1 POP SWAP1 JUMP JUMPDEST PUSH0 PUSH0 REVERT JUMPDEST PUSH0 PUSH0 REVERT JUMPDEST PUSH0 DUP2 SWAP1 POP SWAP2 SWAP1 POP JUMP JUMPDEST PUSH2 0x65A DUP2 PUSH2 0x648 JUMP JUMPDEST DUP2 EQ PUSH2 0x664 JUMPI PUSH0 PUSH0 REVERT JUMPDEST POP JUMP JUMPDEST PUSH0 DUP2 CALLDATALOAD SWAP1 POP PUSH2 0x675 DUP2 PUSH2 0x651 JUMP JUMPDEST SWAP3 SWAP2 POP POP JUMP JUMPDEST PUSH0 PUSH1 0x20 DUP3 DUP5 SUB SLT ISZERO PUSH2 0x690 JUMPI PUSH2 0x68F PUSH2 0x640 JUMP JUMPDEST JUMPDEST PUSH0 PUSH2 0x69D DUP5 DUP3 DUP6 ADD PUSH2 0x667 JUMP JUMPDEST SWAP2 POP POP SWAP3 SWAP2 POP POP JUMP JUMPDEST PUSH0 PUSH0 REVERT JUMPDEST PUSH0 PUSH0 REVERT JUMPDEST PUSH32 0x4E487B7100000000000000000000000000000000000000000000000000000000 PUSH0 MSTORE PUSH1 0x41 PUSH1 0x4 MSTORE PUSH1 0x24 PUSH0 REVERT JUMPDEST PUSH2 0x6E4 DUP3 PUSH2 0x4E9 JUMP JUMPDEST DUP2 ADD DUP2 DUP2 LT PUSH8 0xFFFFFFFFFFFFFFFF DUP3 GT OR ISZERO PUSH2 0x703 JUMPI PUSH2 0x702 PUSH2 0x6AE JUMP JUMPDEST JUMPDEST DUP1 PUSH1 0x40 MSTORE POP POP POP JUMP JUMPDEST PUSH0 PUSH2 0x715 PUSH2 0x637 JUMP JUMPDEST SWAP1 POP PUSH2 0x721 DUP3 DUP3 PUSH2 0x6DB JUMP JUMPDEST SWAP2 SWAP1 POP JUMP JUMPDEST PUSH0 PUSH8 0xFFFFFFFFFFFFFFFF DUP3 GT ISZERO PUSH2 0x740 JUMPI PUSH2 0x73F PUSH2 0x6AE JUMP JUMPDEST JUMPDEST PUSH2 0x749 DUP3 PUSH2 0x4E9 JUMP JUMPDEST SWAP1 POP PUSH1 0x20 DUP2 ADD SWAP1 POP SWAP2 SWAP1 POP JUMP JUMPDEST DUP3 DUP2 DUP4 CALLDATACOPY PUSH0 DUP4 DUP4 ADD MSTORE POP POP POP JUMP JUMPDEST PUSH0 PUSH2 0x776 PUSH2 0x771 DUP5 PUSH2 0x726 JUMP JUMPDEST PUSH2 0x70C JUMP JUMPDEST SWAP1 POP DUP3 DUP2 MSTORE PUSH1 0x20 DUP2 ADD DUP5 DUP5 DUP5 ADD GT ISZERO PUSH2 0x792 JUMPI PUSH2 0x791 PUSH2 0x6AA JUMP JUMPDEST JUMPDEST PUSH2 0x79D DUP5 DUP3 DUP6 PUSH2 0x756 JUMP JUMPDEST POP SWAP4 SWAP3 POP POP POP JUMP JUMPDEST PUSH0 DUP3 PUSH1 0x1F DUP4 ADD SLT PUSH2 0x7B9 JUMPI PUSH2 0x7B8 PUSH2 0x6A6 JUMP JUMPDEST JUMPDEST DUP2 CALLDATALOAD PUSH2 0x7C9 DUP5 DUP3 PUSH1 0x20 DUP7 ADD PUSH2 0x764 JUMP JUMPDEST SWAP2 POP POP SWAP3 SWAP2 POP POP JUMP JUMPDEST PUSH0 PUSH1 0x20 DUP3 DUP5 SUB SLT ISZERO PUSH2 0x7E7 JUMPI PUSH2 0x7E6 PUSH2 0x640 JUMP JUMPDEST JUMPDEST PUSH0 DUP3 ADD CALLDATALOAD PUSH8 0xFFFFFFFFFFFFFFFF DUP2 GT ISZERO PUSH2 0x804 JUMPI PUSH2 0x803 PUSH2 0x644 JUMP JUMPDEST JUMPDEST PUSH2 0x810 DUP5 DUP3 DUP6 ADD PUSH2 0x7A5 JUMP JUMPDEST SWAP2 POP POP SWAP3 SWAP2 POP POP JUMP JUMPDEST PUSH2 0x822 DUP2 PUSH2 0x648 JUMP JUMPDEST DUP3 MSTORE POP POP JUMP JUMPDEST PUSH0 PUSH1 0x20 DUP3 ADD SWAP1 POP PUSH2 0x83B PUSH0 DUP4 ADD DUP5 PUSH2 0x819 JUMP JUMPDEST SWAP3 SWAP2 POP POP JUMP JUMPDEST PUSH32 0x4E487B7100000000000000000000000000000000000000000000000000000000 PUSH0 MSTORE PUSH1 0x22 PUSH1 0x4 MSTORE PUSH1 0x24 PUSH0 REVERT JUMPDEST PUSH0 PUSH1 0x2 DUP3 DIV SWAP1 POP PUSH1 0x1 DUP3 AND DUP1 PUSH2 0x885 JUMPI PUSH1 0x7F DUP3 AND SWAP2 POP JUMPDEST PUSH1 0x20 DUP3 LT DUP2 SUB PUSH2 0x898 JUMPI PUSH2 0x897 PUSH2 0x841 JUMP JUMPDEST JUMPDEST POP SWAP2 SWAP1 POP JUMP JUMPDEST PUSH0 DUP3 DUP3 MSTORE PUSH1 0x20 DUP3 ADD SWAP1 POP SWAP3 SWAP2 POP POP JUMP JUMPDEST PUSH32 0x496E76616C6964207461736B20696E6465780000000000000000000000000000 PUSH0 DUP3 ADD MSTORE POP JUMP JUMPDEST PUSH0 PUSH2 0x8E2 PUSH1 0x12 DUP4 PUSH2 0x89E JUMP JUMPDEST SWAP2 POP PUSH2 0x8ED DUP3 PUSH2 0x8AE JUMP JUMPDEST PUSH1 0x20 DUP3 ADD SWAP1 POP SWAP2 SWAP1 POP JUMP JUMPDEST PUSH0 PUSH1 0x20 DUP3 ADD SWAP1 POP DUP2 DUP2 SUB PUSH0 DUP4 ADD MSTORE PUSH2 0x90F DUP2 PUSH2 0x8D6 JUMP JUMPDEST SWAP1 POP SWAP2 SWAP1 POP JUMP JUMPDEST PUSH32 0x4E487B7100000000000000000000000000000000000000000000000000000000 PUSH0 MSTORE PUSH1 0x11 PUSH1 0x4 MSTORE PUSH1 0x24 PUSH0 REVERT JUMPDEST PUSH0 PUSH2 0x94D DUP3 PUSH2 0x648 JUMP JUMPDEST SWAP2 POP PUSH2 0x958 DUP4 PUSH2 0x648 JUMP JUMPDEST SWAP3 POP DUP3 DUP3 SUB SWAP1 POP DUP2 DUP2 GT ISZERO PUSH2 0x970 JUMPI PUSH2 0x96F PUSH2 0x916 JUMP JUMPDEST JUMPDEST SWAP3 SWAP2 POP POP JUMP JUMPDEST PUSH32 0x4E487B7100000000000000000000000000000000000000000000000000000000 PUSH0 MSTORE PUSH1 0x32 PUSH1 0x4 MSTORE PUSH1 0x24 PUSH0 REVERT JUMPDEST PUSH0 DUP2 SLOAD SWAP1 POP PUSH2 0x9B1 DUP2 PUSH2 0x86E JUMP JUMPDEST SWAP1 POP SWAP2 SWAP1 POP JUMP JUMPDEST PUSH0 DUP2 SWAP1 POP DUP2 PUSH0 MSTORE PUSH1 0x20 PUSH0 KECCAK256 SWAP1 POP SWAP2 SWAP1 POP JUMP JUMPDEST PUSH0 PUSH1 0x20 PUSH1 0x1F DUP4 ADD DIV SWAP1 POP SWAP2 SWAP1 POP JUMP JUMPDEST PUSH0 DUP3 DUP3 SHL SWAP1 POP SWAP3 SWAP2 POP POP JUMP JUMPDEST PUSH0 PUSH1 0x8 DUP4 MUL PUSH2 0xA14 PUSH32 0xFFFFFFFFFFFFFFFFFFFFFFFFFFFFFFFFFFFFFFFFFFFFFFFFFFFFFFFFFFFFFFFF DUP3 PUSH2 0x9D9 JUMP JUMPDEST PUSH2 0xA1E DUP7 DUP4 PUSH2 0x9D9 JUMP JUMPDEST SWAP6 POP DUP1 NOT DUP5 AND SWAP4 POP DUP1 DUP7 AND DUP5 OR SWAP3 POP POP POP SWAP4 SWAP3 POP POP POP JUMP JUMPDEST PUSH0 DUP2 SWAP1 POP SWAP2 SWAP1 POP JUMP JUMPDEST PUSH0 PUSH2 0xA59 PUSH2 0xA54 PUSH2 0xA4F DUP5 PUSH2 0x648 JUMP JUMPDEST PUSH2 0xA36 JUMP JUMPDEST PUSH2 0x648 JUMP JUMPDEST SWAP1 POP SWAP2 SWAP1 POP JUMP JUMPDEST PUSH0 DUP2 SWAP1 POP SWAP2 SWAP1 POP JUMP JUMPDEST PUSH2 0xA72 DUP4 PUSH2 0xA3F JUMP JUMPDEST PUSH2 0xA86 PUSH2 0xA7E DUP3 PUSH2 0xA60 JUMP JUMPDEST DUP5 DUP5 SLOAD PUSH2 0x9E5 JUMP JUMPDEST DUP3 SSTORE POP POP POP POP JUMP JUMPDEST PUSH0 PUSH0 SWAP1 POP SWAP1 JUMP JUMPDEST PUSH2 0xA9D PUSH2 0xA8E JUMP JUMPDEST PUSH2 0xAA8 DUP2 DUP5 DUP5 PUSH2 0xA69 JUMP JUMPDEST POP POP POP JUMP JUMPDEST JUMPDEST DUP2 DUP2 LT ISZERO PUSH2 0xACB JUMPI PUSH2 0xAC0 PUSH0 DUP3 PUSH2 0xA95 JUMP JUMPDEST PUSH1 0x1 DUP2 ADD SWAP1 POP PUSH2 0xAAE JUMP JUMPDEST POP POP JUMP JUMPDEST PUSH1 0x1F DUP3 GT ISZERO PUSH2 0xB10 JUMPI PUSH2 0xAE1 DUP2 PUSH2 0x9B8 JUMP JUMPDEST PUSH2 0xAEA DUP5 PUSH2 0x9CA JUMP JUMPDEST DUP2 ADD PUSH1 0x20 DUP6 LT ISZERO PUSH2 0xAF9 JUMPI DUP2 SWAP1 POP JUMPDEST PUSH2 0xB0D PUSH2 0xB05 DUP6 PUSH2 0x9CA JUMP JUMPDEST DUP4 ADD DUP3 PUSH2 0xAAD JUMP JUMPDEST POP POP JUMPDEST POP POP POP JUMP JUMPDEST PUSH0 DUP3 DUP3 SHR SWAP1 POP SWAP3 SWAP2 POP POP JUMP JUMPDEST PUSH0 PUSH2 0xB30 PUSH0 NOT DUP5 PUSH1 0x8 MUL PUSH2 0xB15 JUMP JUMPDEST NOT DUP1 DUP4 AND SWAP2 POP POP SWAP3 SWAP2 POP POP JUMP JUMPDEST PUSH0 PUSH2 0xB48 DUP4 DUP4 PUSH2 0xB21 JUMP JUMPDEST SWAP2 POP DUP3 PUSH1 0x2 MUL DUP3 OR SWAP1 POP SWAP3 SWAP2 POP POP JUMP JUMPDEST DUP2 DUP2 SUB PUSH2 0xB66 JUMPI POP POP PUSH2 0xC3B JUMP JUMPDEST PUSH2 0xB6F DUP3 PUSH2 0x9A3 JUMP JUMPDEST PUSH8 0xFFFFFFFFFFFFFFFF DUP2 GT ISZERO PUSH2 0xB88 JUMPI PUSH2 0xB87 PUSH2 0x6AE JUMP JUMPDEST JUMPDEST PUSH2 0xB92 DUP3 SLOAD PUSH2 0x86E JUMP JUMPDEST PUSH2 0xB9D DUP3 DUP3 DUP6 PUSH2 0xACF JUMP JUMPDEST PUSH0 PUSH1 0x1F DUP4 GT PUSH1 0x1 DUP2 EQ PUSH2 0xBCA JUMPI PUSH0 DUP5 ISZERO PUSH2 0xBB8 JUMPI DUP3 DUP8 ADD SLOAD SWAP1 POP JUMPDEST PUSH2 0xBC2 DUP6 DUP3 PUSH2 0xB3D JUMP JUMPDEST DUP7 SSTORE POP PUSH2 0xC34 JUMP JUMPDEST PUSH1 0x1F NOT DUP5 AND PUSH2 0xBD8 DUP8 PUSH2 0x9B8 JUMP JUMPDEST SWAP7 POP PUSH2 0xBE3 DUP7 PUSH2 0x9B8 JUMP JUMPDEST PUSH0 JUMPDEST DUP3 DUP2 LT ISZERO PUSH2 0xC0A JUMPI DUP5 DUP10 ADD SLOAD DUP3 SSTORE PUSH1 0x1 DUP3 ADD SWAP2 POP PUSH1 0x1 DUP6 ADD SWAP5 POP PUSH1 0x20 DUP2 ADD SWAP1 POP PUSH2 0xBE5 JUMP JUMPDEST DUP7 DUP4 LT ISZERO PUSH2 0xC27 JUMPI DUP5 DUP10 ADD SLOAD PUSH2 0xC23 PUSH1 0x1F DUP10 AND DUP3 PUSH2 0xB21 JUMP JUMPDEST DUP4 SSTORE POP JUMPDEST PUSH1 0x1 PUSH1 0x2 DUP9 MUL ADD DUP9 SSTORE POP POP POP JUMPDEST POP POP POP POP POP POP JUMPDEST JUMP JUMPDEST PUSH32 0x4E487B7100000000000000000000000000000000000000000000000000000000 PUSH0 MSTORE PUSH1 0x31 PUSH1 0x4 MSTORE PUSH1 0x24 PUSH0 REVERT JUMPDEST PUSH2 0xC73 DUP3 PUSH2 0x4C1 JUMP JUMPDEST PUSH8 0xFFFFFFFFFFFFFFFF DUP2 GT ISZERO PUSH2 0xC8C JUMPI PUSH2 0xC8B PUSH2 0x6AE JUMP JUMPDEST JUMPDEST PUSH2 0xC96 DUP3 SLOAD PUSH2 0x86E JUMP JUMPDEST PUSH2 0xCA1 DUP3 DUP3 DUP6 PUSH2 0xACF JUMP JUMPDEST PUSH0 PUSH1 0x20 SWAP1 POP PUSH1 0x1F DUP4 GT PUSH1 0x1 DUP2 EQ PUSH2 0xCD2 JUMPI PUSH0 DUP5 ISZERO PUSH2 0xCC0 JUMPI DUP3 DUP8 ADD MLOAD SWAP1 POP JUMPDEST PUSH2 0xCCA DUP6 DUP3 PUSH2 0xB3D JUMP JUMPDEST DUP7 SSTORE POP PUSH2 0xD31 JUMP JUMPDEST PUSH1 0x1F NOT DUP5 AND PUSH2 0xCE0 DUP7 PUSH2 0x9B8 JUMP JUMPDEST PUSH0 JUMPDEST DUP3 DUP2 LT ISZERO PUSH2 0xD07 JUMPI DUP5 DUP10 ADD MLOAD DUP3 SSTORE PUSH1 0x1 DUP3 ADD SWAP2 POP PUSH1 0x20 DUP6 ADD SWAP5 POP PUSH1 0x20 DUP2 ADD SWAP1 POP PUSH2 0xCE2 JUMP JUMPDEST DUP7 DUP4 LT ISZERO PUSH2 0xD24 JUMPI DUP5 DUP10 ADD MLOAD PUSH2 0xD20 PUSH1 0x1F DUP10 AND DUP3 PUSH2 0xB21 JUMP JUMPDEST DUP4 SSTORE POP JUMPDEST PUSH1 0x1 PUSH1 0x2 DUP9 MUL ADD DUP9 SSTORE POP POP POP JUMPDEST POP POP POP POP POP POP JUMP INVALID LOG2 PUSH5 0x6970667358 0x22 SLT KECCAK256 0x2D SMOD BASEFEE 0xBA SLOAD EOFCREATE 0xE0 0x21 PUSH24 0xB758EF0EDED765FAA6EAB91C58E02168B073E1A9BA85CB64 PUSH20 0x6F6C634300081E00330000000000000000000000 "
		},
		"gasEstimates": {
			"creation": {
				"codeDepositCost": "687800",
				"executionCost": "719",
				"totalCost": "688519"
			},
			"external": {
				"addTask(string)": "infinite",
				"deleteTask(uint256)": "infinite",
				"getTaskCount()": "2505",
				"getTasks()": "infinite",
				"toggleTask(uint256)": "33345"
			}
		},
		"methodIdentifiers": {
			"addTask(string)": "67238562",
			"deleteTask(uint256)": "560f3192",
			"getTaskCount()": "c17a340e",
			"getTasks()": "04a87e38",
			"toggleTask(uint256)": "613137a4"
		}
	},
	"abi": [
		{
			"inputs": [
				{
					"internalType": "string",
					"name": "_description",
					"type": "string"
				}
			],
			"name": "addTask",
			"outputs": [],
			"stateMutability": "nonpayable",
			"type": "function"
		},
		{
			"inputs": [
				{
					"internalType": "uint256",
					"name": "_index",
					"type": "uint256"
				}
			],
			"name": "deleteTask",
			"outputs": [],
			"stateMutability": "nonpayable",
			"type": "function"
		},
		{
			"inputs": [],
			"name": "getTaskCount",
			"outputs": [
				{
					"internalType": "uint256",
					"name": "",
					"type": "uint256"
				}
			],
			"stateMutability": "view",
			"type": "function"
		},
		{
			"inputs": [],
			"name": "getTasks",
			"outputs": [
				{
					"components": [
						{
							"internalType": "string",
							"name": "description",
							"type": "string"
						},
						{
							"internalType": "bool",
							"name": "completed",
							"type": "bool"
						}
					],
					"internalType": "struct ToDoList.Task[]",
					"name": "",
					"type": "tuple[]"
				}
			],
			"stateMutability": "view",
			"type": "function"
		},
		{
			"inputs": [
				{
					"internalType": "uint256",
					"name": "_index",
					"type": "uint256"
				}
			],
			"name": "toggleTask",
			"outputs": [],
			"stateMutability": "nonpayable",
			"type": "function"
		}
	]
}