{
	"data": {
		"bytecode": {
			"linkReferences": {},
			"object": "6080604052348015600e575f5ffd5b50335f5f6101000a81548173ffffffffffffffffffffffffffffffffffffffff021916908373ffffffffffffffffffffffffffffffffffffffff1602179055506117a08061005b5f395ff3fe608060405234801561000f575f5ffd5b50600436106100cd575f3560e01c80637569b3d71161008a5780638a9cfd55116100645780638a9cfd5514610229578063c1cbbca714610245578063fbfa4b7f14610261578063fe0d94c11461027f576100cd565b80637569b3d7146101b95780637ab71b7a146101d757806381d12c58146101f5576100cd565b80630121b93f146100d15780632ddbd13a146100ed5780633cb5d1001461010b57806342e94c901461013b578063481c6a751461016b5780635277b4ae14610189575b5f5ffd5b6100eb60048036038101906100e69190610c08565b61029b565b005b6100f561049b565b6040516101029190610c42565b60405180910390f35b61012560048036038101906101209190610c08565b6104a1565b6040516101329190610c9a565b60405180910390f35b61015560048036038101906101509190610cdd565b6104dc565b6040516101629190610c42565b60405180910390f35b6101736104f1565b6040516101809190610c9a565b60405180910390f35b6101a3600480360381019061019e9190610d08565b610515565b6040516101b09190610d60565b60405180910390f35b6101c161053f565b6040516101ce9190610c42565b60405180910390f35b6101df61054b565b6040516101ec9190610c42565b60405180910390f35b61020f600480360381019061020a9190610c08565b610551565b604051610220959493929190610de9565b60405180910390f35b610243600480360381019061023e9190610f6d565b610643565b005b61025f600480360381019061025a9190610c08565b610811565b005b610269610966565b6040516102769190610c42565b60405180910390f35b61029960048036038101906102949190610c08565b610972565b005b5f60015f3373ffffffffffffffffffffffffffffffffffffffff1673ffffffffffffffffffffffffffffffffffffffff1681526020019081526020015f20541161031a576040517f08c379a000000000000000000000000000000000000000000000000000000000815260040161031190611023565b60405180910390fd5b6005805490508110610361576040517f08c379a00000000000000000000000000000000000000000000000000000000081526004016103589061108b565b60405180910390fd5b60065f8281526020019081526020015f205f3373ffffffffffffffffffffffffffffffffffffffff1673ffffffffffffffffffffffffffffffffffffffff1681526020019081526020015f205f9054906101000a900460ff16156103fa576040517f08c379a00000000000000000000000000000000000000000000000000000000081526004016103f1906110f3565b60405180910390fd5b600160065f8381526020019081526020015f205f3373ffffffffffffffffffffffffffffffffffffffff1673ffffffffffffffffffffffffffffffffffffffff1681526020019081526020015f205f6101000a81548160ff02191690831515021790555060016005828154811061047457610473611111565b5b905f5260205f2090600502016003015f828254610491919061116b565b9250508190555050565b60035481565b600281815481106104b0575f80fd5b905f5260205f20015f915054906101000a900473ffffffffffffffffffffffffffffffffffffffff1681565b6001602052805f5260405f205f915090505481565b5f5f9054906101000a900473ffffffffffffffffffffffffffffffffffffffff1681565b6006602052815f5260405f20602052805f5260405f205f915091509054906101000a900460ff1681565b5f600280549050905090565b60045481565b60058181548110610560575f80fd5b905f5260205f2090600502015f91509050805f01805461057f906111cb565b80601f01602080910402602001604051908101604052809291908181526020018280546105ab906111cb565b80156105f65780601f106105cd576101008083540402835291602001916105f6565b820191905f5260205f20905b8154815290600101906020018083116105d957829003601f168201915b505050505090806001015490806002015f9054906101000a900473ffffffffffffffffffffffffffffffffffffffff1690806003015490806004015f9054906101000a900460ff16905085565b5f5f9054906101000a900473ffffffffffffffffffffffffffffffffffffffff1673ffffffffffffffffffffffffffffffffffffffff163373ffffffffffffffffffffffffffffffffffffffff16146106d1576040517f08c379a00000000000000000000000000000000000000000000000000000000081526004016106c890611245565b60405180910390fd5b600354821115610716576040517f08c379a000000000000000000000000000000000000000000000000000000000815260040161070d906112ad565b60405180910390fd5b60056040518060a001604052808581526020018481526020018373ffffffffffffffffffffffffffffffffffffffff1681526020015f81526020015f1515815250908060018154018082558091505060019003905f5260205f2090600502015f909190919091505f820151815f019081610790919061146b565b50602082015181600101556040820151816002015f6101000a81548173ffffffffffffffffffffffffffffffffffffffff021916908373ffffffffffffffffffffffffffffffffffffffff160217905550606082015181600301556080820151816004015f6101000a81548160ff0219169083151502179055505050505050565b5f8111610853576040517f08c379a000000000000000000000000000000000000000000000000000000000815260040161084a90611584565b60405180910390fd5b5f60015f3373ffffffffffffffffffffffffffffffffffffffff1673ffffffffffffffffffffffffffffffffffffffff1681526020019081526020015f2054036108f857600233908060018154018082558091505060019003905f5260205f20015f9091909190916101000a81548173ffffffffffffffffffffffffffffffffffffffff021916908373ffffffffffffffffffffffffffffffffffffffff1602179055505b8060015f3373ffffffffffffffffffffffffffffffffffffffff1673ffffffffffffffffffffffffffffffffffffffff1681526020019081526020015f205f828254610944919061116b565b925050819055508060035f82825461095c919061116b565b9250508190555050565b5f600580549050905090565b5f5f9054906101000a900473ffffffffffffffffffffffffffffffffffffffff1673ffffffffffffffffffffffffffffffffffffffff163373ffffffffffffffffffffffffffffffffffffffff1614610a00576040517f08c379a00000000000000000000000000000000000000000000000000000000081526004016109f790611245565b60405180910390fd5b6005805490508110610a47576040517f08c379a0000000000000000000000000000000000000000000000000000000008152600401610a3e9061108b565b60405180910390fd5b5f60058281548110610a5c57610a5b611111565b5b905f5260205f2090600502019050806004015f9054906101000a900460ff1615610abb576040517f08c379a0000000000000000000000000000000000000000000000000000000008152600401610ab2906115ec565b60405180910390fd5b5f600160028080549050610acf9190611637565b610ad9919061116b565b90508082600301541015610b22576040517f08c379a0000000000000000000000000000000000000000000000000000000008152600401610b19906116b1565b60405180910390fd5b81600101546003541015610b6b576040517f08c379a0000000000000000000000000000000000000000000000000000000008152600401610b6290611719565b60405180910390fd5b6001826004015f6101000a81548160ff021916908315150217905550816001015460035f828254610b9c9190611737565b92505081905550816001015460045f828254610bb8919061116b565b92505081905550505050565b5f604051905090565b5f5ffd5b5f5ffd5b5f819050919050565b610be781610bd5565b8114610bf1575f5ffd5b50565b5f81359050610c0281610bde565b92915050565b5f60208284031215610c1d57610c1c610bcd565b5b5f610c2a84828501610bf4565b91505092915050565b610c3c81610bd5565b82525050565b5f602082019050610c555f830184610c33565b92915050565b5f73ffffffffffffffffffffffffffffffffffffffff82169050919050565b5f610c8482610c5b565b9050919050565b610c9481610c7a565b82525050565b5f602082019050610cad5f830184610c8b565b92915050565b610cbc81610c7a565b8114610cc6575f5ffd5b50565b5f81359050610cd781610cb3565b92915050565b5f60208284031215610cf257610cf1610bcd565b5b5f610cff84828501610cc9565b91505092915050565b5f5f60408385031215610d1e57610d1d610bcd565b5b5f610d2b85828601610bf4565b9250506020610d3c85828601610cc9565b9150509250929050565b5f8115159050919050565b610d5a81610d46565b82525050565b5f602082019050610d735f830184610d51565b92915050565b5f81519050919050565b5f82825260208201905092915050565b8281835e5f83830152505050565b5f601f19601f8301169050919050565b5f610dbb82610d79565b610dc58185610d83565b9350610dd5818560208601610d93565b610dde81610da1565b840191505092915050565b5f60a0820190508181035f830152610e018188610db1565b9050610e106020830187610c33565b610e1d6040830186610c8b565b610e2a6060830185610c33565b610e376080830184610d51565b9695505050505050565b5f5ffd5b5f5ffd5b7f4e487b71000000000000000000000000000000000000000000000000000000005f52604160045260245ffd5b610e7f82610da1565b810181811067ffffffffffffffff82111715610e9e57610e9d610e49565b5b80604052505050565b5f610eb0610bc4565b9050610ebc8282610e76565b919050565b5f67ffffffffffffffff821115610edb57610eda610e49565b5b610ee482610da1565b9050602081019050919050565b828183375f83830152505050565b5f610f11610f0c84610ec1565b610ea7565b905082815260208101848484011115610f2d57610f2c610e45565b5b610f38848285610ef1565b509392505050565b5f82601f830112610f5457610f53610e41565b5b8135610f64848260208601610eff565b91505092915050565b5f5f5f60608486031215610f8457610f83610bcd565b5b5f84013567ffffffffffffffff811115610fa157610fa0610bd1565b5b610fad86828701610f40565b9350506020610fbe86828701610bf4565b9250506040610fcf86828701610cc9565b9150509250925092565b7f6d75737420636f6e7472696275746500000000000000000000000000000000005f82015250565b5f61100d600f83610d83565b915061101882610fd9565b602082019050919050565b5f6020820190508181035f83015261103a81611001565b9050919050565b7f62616420696400000000000000000000000000000000000000000000000000005f82015250565b5f611075600683610d83565b915061108082611041565b602082019050919050565b5f6020820190508181035f8301526110a281611069565b9050919050565b7f616c726561647920766f746564000000000000000000000000000000000000005f82015250565b5f6110dd600d83610d83565b91506110e8826110a9565b602082019050919050565b5f6020820190508181035f83015261110a816110d1565b9050919050565b7f4e487b71000000000000000000000000000000000000000000000000000000005f52603260045260245ffd5b7f4e487b71000000000000000000000000000000000000000000000000000000005f52601160045260245ffd5b5f61117582610bd5565b915061118083610bd5565b92508282019050808211156111985761119761113e565b5b92915050565b7f4e487b71000000000000000000000000000000000000000000000000000000005f52602260045260245ffd5b5f60028204905060018216806111e257607f821691505b6020821081036111f5576111f461119e565b5b50919050565b7f4f6e6c79206d616e6167657200000000000000000000000000000000000000005f82015250565b5f61122f600c83610d83565b915061123a826111fb565b602082019050919050565b5f6020820190508181035f83015261125c81611223565b9050919050565b7f4e6f7420656e6f7567682066756e6473000000000000000000000000000000005f82015250565b5f611297601083610d83565b91506112a282611263565b602082019050919050565b5f6020820190508181035f8301526112c48161128b565b9050919050565b5f819050815f5260205f209050919050565b5f6020601f8301049050919050565b5f82821b905092915050565b5f600883026113277fffffffffffffffffffffffffffffffffffffffffffffffffffffffffffffffff826112ec565b61133186836112ec565b95508019841693508086168417925050509392505050565b5f819050919050565b5f61136c61136761136284610bd5565b611349565b610bd5565b9050919050565b5f819050919050565b61138583611352565b61139961139182611373565b8484546112f8565b825550505050565b5f5f905090565b6113b06113a1565b6113bb81848461137c565b505050565b5b818110156113de576113d35f826113a8565b6001810190506113c1565b5050565b601f821115611423576113f4816112cb565b6113fd846112dd565b8101602085101561140c578190505b611420611418856112dd565b8301826113c0565b50505b505050565b5f82821c905092915050565b5f6114435f1984600802611428565b1980831691505092915050565b5f61145b8383611434565b9150826002028217905092915050565b61147482610d79565b67ffffffffffffffff81111561148d5761148c610e49565b5b61149782546111cb565b6114a28282856113e2565b5f60209050601f8311600181146114d3575f84156114c1578287015190505b6114cb8582611450565b865550611532565b601f1984166114e1866112cb565b5f5b82811015611508578489015182556001820191506020850194506020810190506114e3565b868310156115255784890151611521601f891682611434565b8355505b6001600288020188555050505b505050505050565b7f616d6f756e743e300000000000000000000000000000000000000000000000005f82015250565b5f61156e600883610d83565b91506115798261153a565b602082019050919050565b5f6020820190508181035f83015261159b81611562565b9050919050565b7f616c7265616479206578656375746564000000000000000000000000000000005f82015250565b5f6115d6601083610d83565b91506115e1826115a2565b602082019050919050565b5f6020820190508181035f830152611603816115ca565b9050919050565b7f4e487b71000000000000000000000000000000000000000000000000000000005f52601260045260245ffd5b5f61164182610bd5565b915061164c83610bd5565b92508261165c5761165b61160a565b5b828204905092915050565b7f6e6f74206d616a6f7269747900000000000000000000000000000000000000005f82015250565b5f61169b600c83610d83565b91506116a682611667565b602082019050919050565b5f6020820190508181035f8301526116c88161168f565b9050919050565b7f496e73756666696369656e742066756e647300000000000000000000000000005f82015250565b5f611703601283610d83565b915061170e826116cf565b602082019050919050565b5f6020820190508181035f830152611730816116f7565b9050919050565b5f61174182610bd5565b915061174c83610bd5565b92508282039050818111156117645761176361113e565b5b9291505056fea2646970667358221220d36bdab391831a32397ad6e3110ebc5bdfa54fde0aab5079378d57832613cd0764736f6c634300081e0033",
			"opcodes": "PUSH1 0x80 PUSH1 0x40 MSTORE CALLVALUE DUP1 ISZERO PUSH1 0xE JUMPI PUSH0 PUSH0 REVERT JUMPDEST POP CALLER PUSH0 PUSH0 PUSH2 0x100 EXP DUP2 SLOAD DUP2 PUSH20 0xFFFFFFFFFFFFFFFFFFFFFFFFFFFFFFFFFFFFFFFF MUL NOT AND SWAP1 DUP4 PUSH20 0xFFFFFFFFFFFFFFFFFFFFFFFFFFFFFFFFFFFFFFFF AND MUL OR SWAP1 SSTORE POP PUSH2 0x17A0 DUP1 PUSH2 0x5B PUSH0 CODECOPY PUSH0 RETURN INVALID PUSH1 0x80 PUSH1 0x40 MSTORE CALLVALUE DUP1 ISZERO PUSH2 0xF JUMPI PUSH0 PUSH0 REVERT JUMPDEST POP PUSH1 0x4 CALLDATASIZE LT PUSH2 0xCD JUMPI PUSH0 CALLDATALOAD PUSH1 0xE0 SHR DUP1 PUSH4 0x7569B3D7 GT PUSH2 0x8A JUMPI DUP1 PUSH4 0x8A9CFD55 GT PUSH2 0x64 JUMPI DUP1 PUSH4 0x8A9CFD55 EQ PUSH2 0x229 JUMPI DUP1 PUSH4 0xC1CBBCA7 EQ PUSH2 0x245 JUMPI DUP1 PUSH4 0xFBFA4B7F EQ PUSH2 0x261 JUMPI DUP1 PUSH4 0xFE0D94C1 EQ PUSH2 0x27F JUMPI PUSH2 0xCD JUMP JUMPDEST DUP1 PUSH4 0x7569B3D7 EQ PUSH2 0x1B9 JUMPI DUP1 PUSH4 0x7AB71B7A EQ PUSH2 0x1D7 JUMPI DUP1 PUSH4 0x81D12C58 EQ PUSH2 0x1F5 JUMPI PUSH2 0xCD JUMP JUMPDEST DUP1 PUSH4 0x121B93F EQ PUSH2 0xD1 JUMPI DUP1 PUSH4 0x2DDBD13A EQ PUSH2 0xED JUMPI DUP1 PUSH4 0x3CB5D100 EQ PUSH2 0x10B JUMPI DUP1 PUSH4 0x42E94C90 EQ PUSH2 0x13B JUMPI DUP1 PUSH4 0x481C6A75 EQ PUSH2 0x16B JUMPI DUP1 PUSH4 0x5277B4AE EQ PUSH2 0x189 JUMPI JUMPDEST PUSH0 PUSH0 REVERT JUMPDEST PUSH2 0xEB PUSH1 0x4 DUP1 CALLDATASIZE SUB DUP2 ADD SWAP1 PUSH2 0xE6 SWAP2 SWAP1 PUSH2 0xC08 JUMP JUMPDEST PUSH2 0x29B JUMP JUMPDEST STOP JUMPDEST PUSH2 0xF5 PUSH2 0x49B JUMP JUMPDEST PUSH1 0x40 MLOAD PUSH2 0x102 SWAP2 SWAP1 PUSH2 0xC42 JUMP JUMPDEST PUSH1 0x40 MLOAD DUP1 SWAP2 SUB SWAP1 RETURN JUMPDEST PUSH2 0x125 PUSH1 0x4 DUP1 CALLDATASIZE SUB DUP2 ADD SWAP1 PUSH2 0x120 SWAP2 SWAP1 PUSH2 0xC08 JUMP JUMPDEST PUSH2 0x4A1 JUMP JUMPDEST PUSH1 0x40 MLOAD PUSH2 0x132 SWAP2 SWAP1 PUSH2 0xC9A JUMP JUMPDEST PUSH1 0x40 MLOAD DUP1 SWAP2 SUB SWAP1 RETURN JUMPDEST PUSH2 0x155 PUSH1 0x4 DUP1 CALLDATASIZE SUB DUP2 ADD SWAP1 PUSH2 0x150 SWAP2 SWAP1 PUSH2 0xCDD JUMP JUMPDEST PUSH2 0x4DC JUMP JUMPDEST PUSH1 0x40 MLOAD PUSH2 0x162 SWAP2 SWAP1 PUSH2 0xC42 JUMP JUMPDEST PUSH1 0x40 MLOAD DUP1 SWAP2 SUB SWAP1 RETURN JUMPDEST PUSH2 0x173 PUSH2 0x4F1 JUMP JUMPDEST PUSH1 0x40 MLOAD PUSH2 0x180 SWAP2 SWAP1 PUSH2 0xC9A JUMP JUMPDEST PUSH1 0x40 MLOAD DUP1 SWAP2 SUB SWAP1 RETURN JUMPDEST PUSH2 0x1A3 PUSH1 0x4 DUP1 CALLDATASIZE SUB DUP2 ADD SWAP1 PUSH2 0x19E SWAP2 SWAP1 PUSH2 0xD08 JUMP JUMPDEST PUSH2 0x515 JUMP JUMPDEST PUSH1 0x40 MLOAD PUSH2 0x1B0 SWAP2 SWAP1 PUSH2 0xD60 JUMP JUMPDEST PUSH1 0x40 MLOAD DUP1 SWAP2 SUB SWAP1 RETURN JUMPDEST PUSH2 0x1C1 PUSH2 0x53F JUMP JUMPDEST PUSH1 0x40 MLOAD PUSH2 0x1CE SWAP2 SWAP1 PUSH2 0xC42 JUMP JUMPDEST PUSH1 0x40 MLOAD DUP1 SWAP2 SUB SWAP1 RETURN JUMPDEST PUSH2 0x1DF PUSH2 0x54B JUMP JUMPDEST PUSH1 0x40 MLOAD PUSH2 0x1EC SWAP2 SWAP1 PUSH2 0xC42 JUMP JUMPDEST PUSH1 0x40 MLOAD DUP1 SWAP2 SUB SWAP1 RETURN JUMPDEST PUSH2 0x20F PUSH1 0x4 DUP1 CALLDATASIZE SUB DUP2 ADD SWAP1 PUSH2 0x20A SWAP2 SWAP1 PUSH2 0xC08 JUMP JUMPDEST PUSH2 0x551 JUMP JUMPDEST PUSH1 0x40 MLOAD PUSH2 0x220 SWAP6 SWAP5 SWAP4 SWAP3 SWAP2 SWAP1 PUSH2 0xDE9 JUMP JUMPDEST PUSH1 0x40 MLOAD DUP1 SWAP2 SUB SWAP1 RETURN JUMPDEST PUSH2 0x243 PUSH1 0x4 DUP1 CALLDATASIZE SUB DUP2 ADD SWAP1 PUSH2 0x23E SWAP2 SWAP1 PUSH2 0xF6D JUMP JUMPDEST PUSH2 0x643 JUMP JUMPDEST STOP JUMPDEST PUSH2 0x25F PUSH1 0x4 DUP1 CALLDATASIZE SUB DUP2 ADD SWAP1 PUSH2 0x25A SWAP2 SWAP1 PUSH2 0xC08 JUMP JUMPDEST PUSH2 0x811 JUMP JUMPDEST STOP JUMPDEST PUSH2 0x269 PUSH2 0x966 JUMP JUMPDEST PUSH1 0x40 MLOAD PUSH2 0x276 SWAP2 SWAP1 PUSH2 0xC42 JUMP JUMPDEST PUSH1 0x40 MLOAD DUP1 SWAP2 SUB SWAP1 RETURN JUMPDEST PUSH2 0x299 PUSH1 0x4 DUP1 CALLDATASIZE SUB DUP2 ADD SWAP1 PUSH2 0x294 SWAP2 SWAP1 PUSH2 0xC08 JUMP JUMPDEST PUSH2 0x972 JUMP JUMPDEST STOP JUMPDEST PUSH0 PUSH1 0x1 PUSH0 CALLER PUSH20 0xFFFFFFFFFFFFFFFFFFFFFFFFFFFFFFFFFFFFFFFF AND PUSH20 0xFFFFFFFFFFFFFFFFFFFFFFFFFFFFFFFFFFFFFFFF AND DUP2 MSTORE PUSH1 0x20 ADD SWAP1 DUP2 MSTORE PUSH1 0x20 ADD PUSH0 KECCAK256 SLOAD GT PUSH2 0x31A JUMPI PUSH1 0x40 MLOAD PUSH32 0x8C379A000000000000000000000000000000000000000000000000000000000 DUP2 MSTORE PUSH1 0x4 ADD PUSH2 0x311 SWAP1 PUSH2 0x1023 JUMP JUMPDEST PUSH1 0x40 MLOAD DUP1 SWAP2 SUB SWAP1 REVERT JUMPDEST PUSH1 0x5 DUP1 SLOAD SWAP1 POP DUP2 LT PUSH2 0x361 JUMPI PUSH1 0x40 MLOAD PUSH32 0x8C379A000000000000000000000000000000000000000000000000000000000 DUP2 MSTORE PUSH1 0x4 ADD PUSH2 0x358 SWAP1 PUSH2 0x108B JUMP JUMPDEST PUSH1 0x40 MLOAD DUP1 SWAP2 SUB SWAP1 REVERT JUMPDEST PUSH1 0x6 PUSH0 DUP3 DUP2 MSTORE PUSH1 0x20 ADD SWAP1 DUP2 MSTORE PUSH1 0x20 ADD PUSH0 KECCAK256 PUSH0 CALLER PUSH20 0xFFFFFFFFFFFFFFFFFFFFFFFFFFFFFFFFFFFFFFFF AND PUSH20 0xFFFFFFFFFFFFFFFFFFFFFFFFFFFFFFFFFFFFFFFF AND DUP2 MSTORE PUSH1 0x20 ADD SWAP1 DUP2 MSTORE PUSH1 0x20 ADD PUSH0 KECCAK256 PUSH0 SWAP1 SLOAD SWAP1 PUSH2 0x100 EXP SWAP1 DIV PUSH1 0xFF AND ISZERO PUSH2 0x3FA JUMPI PUSH1 0x40 MLOAD PUSH32 0x8C379A000000000000000000000000000000000000000000000000000000000 DUP2 MSTORE PUSH1 0x4 ADD PUSH2 0x3F1 SWAP1 PUSH2 0x10F3 JUMP JUMPDEST PUSH1 0x40 MLOAD DUP1 SWAP2 SUB SWAP1 REVERT JUMPDEST PUSH1 0x1 PUSH1 0x6 PUSH0 DUP4 DUP2 MSTORE PUSH1 0x20 ADD SWAP1 DUP2 MSTORE PUSH1 0x20 ADD PUSH0 KECCAK256 PUSH0 CALLER PUSH20 0xFFFFFFFFFFFFFFFFFFFFFFFFFFFFFFFFFFFFFFFF AND PUSH20 0xFFFFFFFFFFFFFFFFFFFFFFFFFFFFFFFFFFFFFFFF AND DUP2 MSTORE PUSH1 0x20 ADD SWAP1 DUP2 MSTORE PUSH1 0x20 ADD PUSH0 KECCAK256 PUSH0 PUSH2 0x100 EXP DUP2 SLOAD DUP2 PUSH1 0xFF MUL NOT AND SWAP1 DUP4 ISZERO ISZERO MUL OR SWAP1 SSTORE POP PUSH1 0x1 PUSH1 0x5 DUP3 DUP2 SLOAD DUP2 LT PUSH2 0x474 JUMPI PUSH2 0x473 PUSH2 0x1111 JUMP JUMPDEST JUMPDEST SWAP1 PUSH0 MSTORE PUSH1 0x20 PUSH0 KECCAK256 SWAP1 PUSH1 0x5 MUL ADD PUSH1 0x3 ADD PUSH0 DUP3 DUP3 SLOAD PUSH2 0x491 SWAP2 SWAP1 PUSH2 0x116B JUMP JUMPDEST SWAP3 POP POP DUP2 SWAP1 SSTORE POP POP JUMP JUMPDEST PUSH1 0x3 SLOAD DUP2 JUMP JUMPDEST PUSH1 0x2 DUP2 DUP2 SLOAD DUP2 LT PUSH2 0x4B0 JUMPI PUSH0 DUP1 REVERT JUMPDEST SWAP1 PUSH0 MSTORE PUSH1 0x20 PUSH0 KECCAK256 ADD PUSH0 SWAP2 POP SLOAD SWAP1 PUSH2 0x100 EXP SWAP1 DIV PUSH20 0xFFFFFFFFFFFFFFFFFFFFFFFFFFFFFFFFFFFFFFFF AND DUP2 JUMP JUMPDEST PUSH1 0x1 PUSH1 0x20 MSTORE DUP1 PUSH0 MSTORE PUSH1 0x40 PUSH0 KECCAK256 PUSH0 SWAP2 POP SWAP1 POP SLOAD DUP2 JUMP JUMPDEST PUSH0 PUSH0 SWAP1 SLOAD SWAP1 PUSH2 0x100 EXP SWAP1 DIV PUSH20 0xFFFFFFFFFFFFFFFFFFFFFFFFFFFFFFFFFFFFFFFF AND DUP2 JUMP JUMPDEST PUSH1 0x6 PUSH1 0x20 MSTORE DUP2 PUSH0 MSTORE PUSH1 0x40 PUSH0 KECCAK256 PUSH1 0x20 MSTORE DUP1 PUSH0 MSTORE PUSH1 0x40 PUSH0 KECCAK256 PUSH0 SWAP2 POP SWAP2 POP SWAP1 SLOAD SWAP1 PUSH2 0x100 EXP SWAP1 DIV PUSH1 0xFF AND DUP2 JUMP JUMPDEST PUSH0 PUSH1 0x2 DUP1 SLOAD SWAP1 POP SWAP1 POP SWAP1 JUMP JUMPDEST PUSH1 0x4 SLOAD DUP2 JUMP JUMPDEST PUSH1 0x5 DUP2 DUP2 SLOAD DUP2 LT PUSH2 0x560 JUMPI PUSH0 DUP1 REVERT JUMPDEST SWAP1 PUSH0 MSTORE PUSH1 0x20 PUSH0 KECCAK256 SWAP1 PUSH1 0x5 MUL ADD PUSH0 SWAP2 POP SWAP1 POP DUP1 PUSH0 ADD DUP1 SLOAD PUSH2 0x57F SWAP1 PUSH2 0x11CB JUMP JUMPDEST DUP1 PUSH1 0x1F ADD PUSH1 0x20 DUP1 SWAP2 DIV MUL PUSH1 0x20 ADD PUSH1 0x40 MLOAD SWAP1 DUP2 ADD PUSH1 0x40 MSTORE DUP1 SWAP3 SWAP2 SWAP1 DUP2 DUP2 MSTORE PUSH1 0x20 ADD DUP3 DUP1 SLOAD PUSH2 0x5AB SWAP1 PUSH2 0x11CB JUMP JUMPDEST DUP1 ISZERO PUSH2 0x5F6 JUMPI DUP1 PUSH1 0x1F LT PUSH2 0x5CD JUMPI PUSH2 0x100 DUP1 DUP4 SLOAD DIV MUL DUP4 MSTORE SWAP2 PUSH1 0x20 ADD SWAP2 PUSH2 0x5F6 JUMP JUMPDEST DUP3 ADD SWAP2 SWAP1 PUSH0 MSTORE PUSH1 0x20 PUSH0 KECCAK256 SWAP1 JUMPDEST DUP2 SLOAD DUP2 MSTORE SWAP1 PUSH1 0x1 ADD SWAP1 PUSH1 0x20 ADD DUP1 DUP4 GT PUSH2 0x5D9 JUMPI DUP3 SWAP1 SUB PUSH1 0x1F AND DUP3 ADD SWAP2 JUMPDEST POP POP POP POP POP SWAP1 DUP1 PUSH1 0x1 ADD SLOAD SWAP1 DUP1 PUSH1 0x2 ADD PUSH0 SWAP1 SLOAD SWAP1 PUSH2 0x100 EXP SWAP1 DIV PUSH20 0xFFFFFFFFFFFFFFFFFFFFFFFFFFFFFFFFFFFFFFFF AND SWAP1 DUP1 PUSH1 0x3 ADD SLOAD SWAP1 DUP1 PUSH1 0x4 ADD PUSH0 SWAP1 SLOAD SWAP1 PUSH2 0x100 EXP SWAP1 DIV PUSH1 0xFF AND SWAP1 POP DUP6 JUMP JUMPDEST PUSH0 PUSH0 SWAP1 SLOAD SWAP1 PUSH2 0x100 EXP SWAP1 DIV PUSH20 0xFFFFFFFFFFFFFFFFFFFFFFFFFFFFFFFFFFFFFFFF AND PUSH20 0xFFFFFFFFFFFFFFFFFFFFFFFFFFFFFFFFFFFFFFFF AND CALLER PUSH20 0xFFFFFFFFFFFFFFFFFFFFFFFFFFFFFFFFFFFFFFFF AND EQ PUSH2 0x6D1 JUMPI PUSH1 0x40 MLOAD PUSH32 0x8C379A000000000000000000000000000000000000000000000000000000000 DUP2 MSTORE PUSH1 0x4 ADD PUSH2 0x6C8 SWAP1 PUSH2 0x1245 JUMP JUMPDEST PUSH1 0x40 MLOAD DUP1 SWAP2 SUB SWAP1 REVERT JUMPDEST PUSH1 0x3 SLOAD DUP3 GT ISZERO PUSH2 0x716 JUMPI PUSH1 0x40 MLOAD PUSH32 0x8C379A000000000000000000000000000000000000000000000000000000000 DUP2 MSTORE PUSH1 0x4 ADD PUSH2 0x70D SWAP1 PUSH2 0x12AD JUMP JUMPDEST PUSH1 0x40 MLOAD DUP1 SWAP2 SUB SWAP1 REVERT JUMPDEST PUSH1 0x5 PUSH1 0x40 MLOAD DUP1 PUSH1 0xA0 ADD PUSH1 0x40 MSTORE DUP1 DUP6 DUP2 MSTORE PUSH1 0x20 ADD DUP5 DUP2 MSTORE PUSH1 0x20 ADD DUP4 PUSH20 0xFFFFFFFFFFFFFFFFFFFFFFFFFFFFFFFFFFFFFFFF AND DUP2 MSTORE PUSH1 0x20 ADD PUSH0 DUP2 MSTORE PUSH1 0x20 ADD PUSH0 ISZERO ISZERO DUP2 MSTORE POP SWAP1 DUP1 PUSH1 0x1 DUP2 SLOAD ADD DUP1 DUP3 SSTORE DUP1 SWAP2 POP POP PUSH1 0x1 SWAP1 SUB SWAP1 PUSH0 MSTORE PUSH1 0x20 PUSH0 KECCAK256 SWAP1 PUSH1 0x5 MUL ADD PUSH0 SWAP1 SWAP2 SWAP1 SWAP2 SWAP1 SWAP2 POP PUSH0 DUP3 ADD MLOAD DUP2 PUSH0 ADD SWAP1 DUP2 PUSH2 0x790 SWAP2 SWAP1 PUSH2 0x146B JUMP JUMPDEST POP PUSH1 0x20 DUP3 ADD MLOAD DUP2 PUSH1 0x1 ADD SSTORE PUSH1 0x40 DUP3 ADD MLOAD DUP2 PUSH1 0x2 ADD PUSH0 PUSH2 0x100 EXP DUP2 SLOAD DUP2 PUSH20 0xFFFFFFFFFFFFFFFFFFFFFFFFFFFFFFFFFFFFFFFF MUL NOT AND SWAP1 DUP4 PUSH20 0xFFFFFFFFFFFFFFFFFFFFFFFFFFFFFFFFFFFFFFFF AND MUL OR SWAP1 SSTORE POP PUSH1 0x60 DUP3 ADD MLOAD DUP2 PUSH1 0x3 ADD SSTORE PUSH1 0x80 DUP3 ADD MLOAD DUP2 PUSH1 0x4 ADD PUSH0 PUSH2 0x100 EXP DUP2 SLOAD DUP2 PUSH1 0xFF MUL NOT AND SWAP1 DUP4 ISZERO ISZERO MUL OR SWAP1 SSTORE POP POP POP POP POP POP JUMP JUMPDEST PUSH0 DUP2 GT PUSH2 0x853 JUMPI PUSH1 0x40 MLOAD PUSH32 0x8C379A000000000000000000000000000000000000000000000000000000000 DUP2 MSTORE PUSH1 0x4 ADD PUSH2 0x84A SWAP1 PUSH2 0x1584 JUMP JUMPDEST PUSH1 0x40 MLOAD DUP1 SWAP2 SUB SWAP1 REVERT JUMPDEST PUSH0 PUSH1 0x1 PUSH0 CALLER PUSH20 0xFFFFFFFFFFFFFFFFFFFFFFFFFFFFFFFFFFFFFFFF AND PUSH20 0xFFFFFFFFFFFFFFFFFFFFFFFFFFFFFFFFFFFFFFFF AND DUP2 MSTORE PUSH1 0x20 ADD SWAP1 DUP2 MSTORE PUSH1 0x20 ADD PUSH0 KECCAK256 SLOAD SUB PUSH2 0x8F8 JUMPI PUSH1 0x2 CALLER SWAP1 DUP1 PUSH1 0x1 DUP2 SLOAD ADD DUP1 DUP3 SSTORE DUP1 SWAP2 POP POP PUSH1 0x1 SWAP1 SUB SWAP1 PUSH0 MSTORE PUSH1 0x20 PUSH0 KECCAK256 ADD PUSH0 SWAP1 SWAP2 SWAP1 SWAP2 SWAP1 SWAP2 PUSH2 0x100 EXP DUP2 SLOAD DUP2 PUSH20 0xFFFFFFFFFFFFFFFFFFFFFFFFFFFFFFFFFFFFFFFF MUL NOT AND SWAP1 DUP4 PUSH20 0xFFFFFFFFFFFFFFFFFFFFFFFFFFFFFFFFFFFFFFFF AND MUL OR SWAP1 SSTORE POP JUMPDEST DUP1 PUSH1 0x1 PUSH0 CALLER PUSH20 0xFFFFFFFFFFFFFFFFFFFFFFFFFFFFFFFFFFFFFFFF AND PUSH20 0xFFFFFFFFFFFFFFFFFFFFFFFFFFFFFFFFFFFFFFFF AND DUP2 MSTORE PUSH1 0x20 ADD SWAP1 DUP2 MSTORE PUSH1 0x20 ADD PUSH0 KECCAK256 PUSH0 DUP3 DUP3 SLOAD PUSH2 0x944 SWAP2 SWAP1 PUSH2 0x116B JUMP JUMPDEST SWAP3 POP POP DUP2 SWAP1 SSTORE POP DUP1 PUSH1 0x3 PUSH0 DUP3 DUP3 SLOAD PUSH2 0x95C SWAP2 SWAP1 PUSH2 0x116B JUMP JUMPDEST SWAP3 POP POP DUP2 SWAP1 SSTORE POP POP JUMP JUMPDEST PUSH0 PUSH1 0x5 DUP1 SLOAD SWAP1 POP SWAP1 POP SWAP1 JUMP JUMPDEST PUSH0 PUSH0 SWAP1 SLOAD SWAP1 PUSH2 0x100 EXP SWAP1 DIV PUSH20 0xFFFFFFFFFFFFFFFFFFFFFFFFFFFFFFFFFFFFFFFF AND PUSH20 0xFFFFFFFFFFFFFFFFFFFFFFFFFFFFFFFFFFFFFFFF AND CALLER PUSH20 0xFFFFFFFFFFFFFFFFFFFFFFFFFFFFFFFFFFFFFFFF AND EQ PUSH2 0xA00 JUMPI PUSH1 0x40 MLOAD PUSH32 0x8C379A000000000000000000000000000000000000000000000000000000000 DUP2 MSTORE PUSH1 0x4 ADD PUSH2 0x9F7 SWAP1 PUSH2 0x1245 JUMP JUMPDEST PUSH1 0x40 MLOAD DUP1 SWAP2 SUB SWAP1 REVERT JUMPDEST PUSH1 0x5 DUP1 SLOAD SWAP1 POP DUP2 LT PUSH2 0xA47 JUMPI PUSH1 0x40 MLOAD PUSH32 0x8C379A000000000000000000000000000000000000000000000000000000000 DUP2 MSTORE PUSH1 0x4 ADD PUSH2 0xA3E SWAP1 PUSH2 0x108B JUMP JUMPDEST PUSH1 0x40 MLOAD DUP1 SWAP2 SUB SWAP1 REVERT JUMPDEST PUSH0 PUSH1 0x5 DUP3 DUP2 SLOAD DUP2 LT PUSH2 0xA5C JUMPI PUSH2 0xA5B PUSH2 0x1111 JUMP JUMPDEST JUMPDEST SWAP1 PUSH0 MSTORE PUSH1 0x20 PUSH0 KECCAK256 SWAP1 PUSH1 0x5 MUL ADD SWAP1 POP DUP1 PUSH1 0x4 ADD PUSH0 SWAP1 SLOAD SWAP1 PUSH2 0x100 EXP SWAP1 DIV PUSH1 0xFF AND ISZERO PUSH2 0xABB JUMPI PUSH1 0x40 MLOAD PUSH32 0x8C379A000000000000000000000000000000000000000000000000000000000 DUP2 MSTORE PUSH1 0x4 ADD PUSH2 0xAB2 SWAP1 PUSH2 0x15EC JUMP JUMPDEST PUSH1 0x40 MLOAD DUP1 SWAP2 SUB SWAP1 REVERT JUMPDEST PUSH0 PUSH1 0x1 PUSH1 0x2 DUP1 DUP1 SLOAD SWAP1 POP PUSH2 0xACF SWAP2 SWAP1 PUSH2 0x1637 JUMP JUMPDEST PUSH2 0xAD9 SWAP2 SWAP1 PUSH2 0x116B JUMP JUMPDEST SWAP1 POP DUP1 DUP3 PUSH1 0x3 ADD SLOAD LT ISZERO PUSH2 0xB22 JUMPI PUSH1 0x40 MLOAD PUSH32 0x8C379A000000000000000000000000000000000000000000000000000000000 DUP2 MSTORE PUSH1 0x4 ADD PUSH2 0xB19 SWAP1 PUSH2 0x16B1 JUMP JUMPDEST PUSH1 0x40 MLOAD DUP1 SWAP2 SUB SWAP1 REVERT JUMPDEST DUP2 PUSH1 0x1 ADD SLOAD PUSH1 0x3 SLOAD LT ISZERO PUSH2 0xB6B JUMPI PUSH1 0x40 MLOAD PUSH32 0x8C379A000000000000000000000000000000000000000000000000000000000 DUP2 MSTORE PUSH1 0x4 ADD PUSH2 0xB62 SWAP1 PUSH2 0x1719 JUMP JUMPDEST PUSH1 0x40 MLOAD DUP1 SWAP2 SUB SWAP1 REVERT JUMPDEST PUSH1 0x1 DUP3 PUSH1 0x4 ADD PUSH0 PUSH2 0x100 EXP DUP2 SLOAD DUP2 PUSH1 0xFF MUL NOT AND SWAP1 DUP4 ISZERO ISZERO MUL OR SWAP1 SSTORE POP DUP2 PUSH1 0x1 ADD SLOAD PUSH1 0x3 PUSH0 DUP3 DUP3 SLOAD PUSH2 0xB9C SWAP2 SWAP1 PUSH2 0x1737 JUMP JUMPDEST SWAP3 POP POP DUP2 SWAP1 SSTORE POP DUP2 PUSH1 0x1 ADD SLOAD PUSH1 0x4 PUSH0 DUP3 DUP3 SLOAD PUSH2 0xBB8 SWAP2 SWAP1 PUSH2 0x116B JUMP JUMPDEST SWAP3 POP POP DUP2 SWAP1 SSTORE POP POP POP POP JUMP JUMPDEST PUSH0 PUSH1 0x40 MLOAD SWAP1 POP SWAP1 JUMP JUMPDEST PUSH0 PUSH0 REVERT JUMPDEST PUSH0 PUSH0 REVERT JUMPDEST PUSH0 DUP2 SWAP1 POP SWAP2 SWAP1 POP JUMP JUMPDEST PUSH2 0xBE7 DUP2 PUSH2 0xBD5 JUMP JUMPDEST DUP2 EQ PUSH2 0xBF1 JUMPI PUSH0 PUSH0 REVERT JUMPDEST POP JUMP JUMPDEST PUSH0 DUP2 CALLDATALOAD SWAP1 POP PUSH2 0xC02 DUP2 PUSH2 0xBDE JUMP JUMPDEST SWAP3 SWAP2 POP POP JUMP JUMPDEST PUSH0 PUSH1 0x20 DUP3 DUP5 SUB SLT ISZERO PUSH2 0xC1D JUMPI PUSH2 0xC1C PUSH2 0xBCD JUMP JUMPDEST JUMPDEST PUSH0 PUSH2 0xC2A DUP5 DUP3 DUP6 ADD PUSH2 0xBF4 JUMP JUMPDEST SWAP2 POP POP SWAP3 SWAP2 POP POP JUMP JUMPDEST PUSH2 0xC3C DUP2 PUSH2 0xBD5 JUMP JUMPDEST DUP3 MSTORE POP POP JUMP JUMPDEST PUSH0 PUSH1 0x20 DUP3 ADD SWAP1 POP PUSH2 0xC55 PUSH0 DUP4 ADD DUP5 PUSH2 0xC33 JUMP JUMPDEST SWAP3 SWAP2 POP POP JUMP JUMPDEST PUSH0 PUSH20 0xFFFFFFFFFFFFFFFFFFFFFFFFFFFFFFFFFFFFFFFF DUP3 AND SWAP1 POP SWAP2 SWAP1 POP JUMP JUMPDEST PUSH0 PUSH2 0xC84 DUP3 PUSH2 0xC5B JUMP JUMPDEST SWAP1 POP SWAP2 SWAP1 POP JUMP JUMPDEST PUSH2 0xC94 DUP2 PUSH2 0xC7A JUMP JUMPDEST DUP3 MSTORE POP POP JUMP JUMPDEST PUSH0 PUSH1 0x20 DUP3 ADD SWAP1 POP PUSH2 0xCAD PUSH0 DUP4 ADD DUP5 PUSH2 0xC8B JUMP JUMPDEST SWAP3 SWAP2 POP POP JUMP JUMPDEST PUSH2 0xCBC DUP2 PUSH2 0xC7A JUMP JUMPDEST DUP2 EQ PUSH2 0xCC6 JUMPI PUSH0 PUSH0 REVERT JUMPDEST POP JUMP JUMPDEST PUSH0 DUP2 CALLDATALOAD SWAP1 POP PUSH2 0xCD7 DUP2 PUSH2 0xCB3 JUMP JUMPDEST SWAP3 SWAP2 POP POP JUMP JUMPDEST PUSH0 PUSH1 0x20 DUP3 DUP5 SUB SLT ISZERO PUSH2 0xCF2 JUMPI PUSH2 0xCF1 PUSH2 0xBCD JUMP JUMPDEST JUMPDEST PUSH0 PUSH2 0xCFF DUP5 DUP3 DUP6 ADD PUSH2 0xCC9 JUMP JUMPDEST SWAP2 POP POP SWAP3 SWAP2 POP POP JUMP JUMPDEST PUSH0 PUSH0 PUSH1 0x40 DUP4 DUP6 SUB SLT ISZERO PUSH2 0xD1E JUMPI PUSH2 0xD1D PUSH2 0xBCD JUMP JUMPDEST JUMPDEST PUSH0 PUSH2 0xD2B DUP6 DUP3 DUP7 ADD PUSH2 0xBF4 JUMP JUMPDEST SWAP3 POP POP PUSH1 0x20 PUSH2 0xD3C DUP6 DUP3 DUP7 ADD PUSH2 0xCC9 JUMP JUMPDEST SWAP2 POP POP SWAP3 POP SWAP3 SWAP1 POP JUMP JUMPDEST PUSH0 DUP2 ISZERO ISZERO SWAP1 POP SWAP2 SWAP1 POP JUMP JUMPDEST PUSH2 0xD5A DUP2 PUSH2 0xD46 JUMP JUMPDEST DUP3 MSTORE POP POP JUMP JUMPDEST PUSH0 PUSH1 0x20 DUP3 ADD SWAP1 POP PUSH2 0xD73 PUSH0 DUP4 ADD DUP5 PUSH2 0xD51 JUMP JUMPDEST SWAP3 SWAP2 POP POP JUMP JUMPDEST PUSH0 DUP2 MLOAD SWAP1 POP SWAP2 SWAP1 POP JUMP JUMPDEST PUSH0 DUP3 DUP3 MSTORE PUSH1 0x20 DUP3 ADD SWAP1 POP SWAP3 SWAP2 POP POP JUMP JUMPDEST DUP3 DUP2 DUP4 MCOPY PUSH0 DUP4 DUP4 ADD MSTORE POP POP POP JUMP JUMPDEST PUSH0 PUSH1 0x1F NOT PUSH1 0x1F DUP4 ADD AND SWAP1 POP SWAP2 SWAP1 POP JUMP JUMPDEST PUSH0 PUSH2 0xDBB DUP3 PUSH2 0xD79 JUMP JUMPDEST PUSH2 0xDC5 DUP2 DUP6 PUSH2 0xD83 JUMP JUMPDEST SWAP4 POP PUSH2 0xDD5 DUP2 DUP6 PUSH1 0x20 DUP7 ADD PUSH2 0xD93 JUMP JUMPDEST PUSH2 0xDDE DUP2 PUSH2 0xDA1 JUMP JUMPDEST DUP5 ADD SWAP2 POP POP SWAP3 SWAP2 POP POP JUMP JUMPDEST PUSH0 PUSH1 0xA0 DUP3 ADD SWAP1 POP DUP2 DUP2 SUB PUSH0 DUP4 ADD MSTORE PUSH2 0xE01 DUP2 DUP9 PUSH2 0xDB1 JUMP JUMPDEST SWAP1 POP PUSH2 0xE10 PUSH1 0x20 DUP4 ADD DUP8 PUSH2 0xC33 JUMP JUMPDEST PUSH2 0xE1D PUSH1 0x40 DUP4 ADD DUP7 PUSH2 0xC8B JUMP JUMPDEST PUSH2 0xE2A PUSH1 0x60 DUP4 ADD DUP6 PUSH2 0xC33 JUMP JUMPDEST PUSH2 0xE37 PUSH1 0x80 DUP4 ADD DUP5 PUSH2 0xD51 JUMP JUMPDEST SWAP7 SWAP6 POP POP POP POP POP POP JUMP JUMPDEST PUSH0 PUSH0 REVERT JUMPDEST PUSH0 PUSH0 REVERT JUMPDEST PUSH32 0x4E487B7100000000000000000000000000000000000000000000000000000000 PUSH0 MSTORE PUSH1 0x41 PUSH1 0x4 MSTORE PUSH1 0x24 PUSH0 REVERT JUMPDEST PUSH2 0xE7F DUP3 PUSH2 0xDA1 JUMP JUMPDEST DUP2 ADD DUP2 DUP2 LT PUSH8 0xFFFFFFFFFFFFFFFF DUP3 GT OR ISZERO PUSH2 0xE9E JUMPI PUSH2 0xE9D PUSH2 0xE49 JUMP JUMPDEST JUMPDEST DUP1 PUSH1 0x40 MSTORE POP POP POP JUMP JUMPDEST PUSH0 PUSH2 0xEB0 PUSH2 0xBC4 JUMP JUMPDEST SWAP1 POP PUSH2 0xEBC DUP3 DUP3 PUSH2 0xE76 JUMP JUMPDEST SWAP2 SWAP1 POP JUMP JUMPDEST PUSH0 PUSH8 0xFFFFFFFFFFFFFFFF DUP3 GT ISZERO PUSH2 0xEDB JUMPI PUSH2 0xEDA PUSH2 0xE49 JUMP JUMPDEST JUMPDEST PUSH2 0xEE4 DUP3 PUSH2 0xDA1 JUMP JUMPDEST SWAP1 POP PUSH1 0x20 DUP2 ADD SWAP1 POP SWAP2 SWAP1 POP JUMP JUMPDEST DUP3 DUP2 DUP4 CALLDATACOPY PUSH0 DUP4 DUP4 ADD MSTORE POP POP POP JUMP JUMPDEST PUSH0 PUSH2 0xF11 PUSH2 0xF0C DUP5 PUSH2 0xEC1 JUMP JUMPDEST PUSH2 0xEA7 JUMP JUMPDEST SWAP1 POP DUP3 DUP2 MSTORE PUSH1 0x20 DUP2 ADD DUP5 DUP5 DUP5 ADD GT ISZERO PUSH2 0xF2D JUMPI PUSH2 0xF2C PUSH2 0xE45 JUMP JUMPDEST JUMPDEST PUSH2 0xF38 DUP5 DUP3 DUP6 PUSH2 0xEF1 JUMP JUMPDEST POP SWAP4 SWAP3 POP POP POP JUMP JUMPDEST PUSH0 DUP3 PUSH1 0x1F DUP4 ADD SLT PUSH2 0xF54 JUMPI PUSH2 0xF53 PUSH2 0xE41 JUMP JUMPDEST JUMPDEST DUP2 CALLDATALOAD PUSH2 0xF64 DUP5 DUP3 PUSH1 0x20 DUP7 ADD PUSH2 0xEFF JUMP JUMPDEST SWAP2 POP POP SWAP3 SWAP2 POP POP JUMP JUMPDEST PUSH0 PUSH0 PUSH0 PUSH1 0x60 DUP5 DUP7 SUB SLT ISZERO PUSH2 0xF84 JUMPI PUSH2 0xF83 PUSH2 0xBCD JUMP JUMPDEST JUMPDEST PUSH0 DUP5 ADD CALLDATALOAD PUSH8 0xFFFFFFFFFFFFFFFF DUP2 GT ISZERO PUSH2 0xFA1 JUMPI PUSH2 0xFA0 PUSH2 0xBD1 JUMP JUMPDEST JUMPDEST PUSH2 0xFAD DUP7 DUP3 DUP8 ADD PUSH2 0xF40 JUMP JUMPDEST SWAP4 POP POP PUSH1 0x20 PUSH2 0xFBE DUP7 DUP3 DUP8 ADD PUSH2 0xBF4 JUMP JUMPDEST SWAP3 POP POP PUSH1 0x40 PUSH2 0xFCF DUP7 DUP3 DUP8 ADD PUSH2 0xCC9 JUMP JUMPDEST SWAP2 POP POP SWAP3 POP SWAP3 POP SWAP3 JUMP JUMPDEST PUSH32 0x6D75737420636F6E747269627574650000000000000000000000000000000000 PUSH0 DUP3 ADD MSTORE POP JUMP JUMPDEST PUSH0 PUSH2 0x100D PUSH1 0xF DUP4 PUSH2 0xD83 JUMP JUMPDEST SWAP2 POP PUSH2 0x1018 DUP3 PUSH2 0xFD9 JUMP JUMPDEST PUSH1 0x20 DUP3 ADD SWAP1 POP SWAP2 SWAP1 POP JUMP JUMPDEST PUSH0 PUSH1 0x20 DUP3 ADD SWAP1 POP DUP2 DUP2 SUB PUSH0 DUP4 ADD MSTORE PUSH2 0x103A DUP2 PUSH2 0x1001 JUMP JUMPDEST SWAP1 POP SWAP2 SWAP1 POP JUMP JUMPDEST PUSH32 0x6261642069640000000000000000000000000000000000000000000000000000 PUSH0 DUP3 ADD MSTORE POP JUMP JUMPDEST PUSH0 PUSH2 0x1075 PUSH1 0x6 DUP4 PUSH2 0xD83 JUMP JUMPDEST SWAP2 POP PUSH2 0x1080 DUP3 PUSH2 0x1041 JUMP JUMPDEST PUSH1 0x20 DUP3 ADD SWAP1 POP SWAP2 SWAP1 POP JUMP JUMPDEST PUSH0 PUSH1 0x20 DUP3 ADD SWAP1 POP DUP2 DUP2 SUB PUSH0 DUP4 ADD MSTORE PUSH2 0x10A2 DUP2 PUSH2 0x1069 JUMP JUMPDEST SWAP1 POP SWAP2 SWAP1 POP JUMP JUMPDEST PUSH32 0x616C726561647920766F74656400000000000000000000000000000000000000 PUSH0 DUP3 ADD MSTORE POP JUMP JUMPDEST PUSH0 PUSH2 0x10DD PUSH1 0xD DUP4 PUSH2 0xD83 JUMP JUMPDEST SWAP2 POP PUSH2 0x10E8 DUP3 PUSH2 0x10A9 JUMP JUMPDEST PUSH1 0x20 DUP3 ADD SWAP1 POP SWAP2 SWAP1 POP JUMP JUMPDEST PUSH0 PUSH1 0x20 DUP3 ADD SWAP1 POP DUP2 DUP2 SUB PUSH0 DUP4 ADD MSTORE PUSH2 0x110A DUP2 PUSH2 0x10D1 JUMP JUMPDEST SWAP1 POP SWAP2 SWAP1 POP JUMP JUMPDEST PUSH32 0x4E487B7100000000000000000000000000000000000000000000000000000000 PUSH0 MSTORE PUSH1 0x32 PUSH1 0x4 MSTORE PUSH1 0x24 PUSH0 REVERT JUMPDEST PUSH32 0x4E487B7100000000000000000000000000000000000000000000000000000000 PUSH0 MSTORE PUSH1 0x11 PUSH1 0x4 MSTORE PUSH1 0x24 PUSH0 REVERT JUMPDEST PUSH0 PUSH2 0x1175 DUP3 PUSH2 0xBD5 JUMP JUMPDEST SWAP2 POP PUSH2 0x1180 DUP4 PUSH2 0xBD5 JUMP JUMPDEST SWAP3 POP DUP3 DUP3 ADD SWAP1 POP DUP1 DUP3 GT ISZERO PUSH2 0x1198 JUMPI PUSH2 0x1197 PUSH2 0x113E JUMP JUMPDEST JUMPDEST SWAP3 SWAP2 POP POP JUMP JUMPDEST PUSH32 0x4E487B7100000000000000000000000000000000000000000000000000000000 PUSH0 MSTORE PUSH1 0x22 PUSH1 0x4 MSTORE PUSH1 0x24 PUSH0 REVERT JUMPDEST PUSH0 PUSH1 0x2 DUP3 DIV SWAP1 POP PUSH1 0x1 DUP3 AND DUP1 PUSH2 0x11E2 JUMPI PUSH1 0x7F DUP3 AND SWAP2 POP JUMPDEST PUSH1 0x20 DUP3 LT DUP2 SUB PUSH2 0x11F5 JUMPI PUSH2 0x11F4 PUSH2 0x119E JUMP JUMPDEST JUMPDEST POP SWAP2 SWAP1 POP JUMP JUMPDEST PUSH32 0x4F6E6C79206D616E616765720000000000000000000000000000000000000000 PUSH0 DUP3 ADD MSTORE POP JUMP JUMPDEST PUSH0 PUSH2 0x122F PUSH1 0xC DUP4 PUSH2 0xD83 JUMP JUMPDEST SWAP2 POP PUSH2 0x123A DUP3 PUSH2 0x11FB JUMP JUMPDEST PUSH1 0x20 DUP3 ADD SWAP1 POP SWAP2 SWAP1 POP JUMP JUMPDEST PUSH0 PUSH1 0x20 DUP3 ADD SWAP1 POP DUP2 DUP2 SUB PUSH0 DUP4 ADD MSTORE PUSH2 0x125C DUP2 PUSH2 0x1223 JUMP JUMPDEST SWAP1 POP SWAP2 SWAP1 POP JUMP JUMPDEST PUSH32 0x4E6F7420656E6F7567682066756E647300000000000000000000000000000000 PUSH0 DUP3 ADD MSTORE POP JUMP JUMPDEST PUSH0 PUSH2 0x1297 PUSH1 0x10 DUP4 PUSH2 0xD83 JUMP JUMPDEST SWAP2 POP PUSH2 0x12A2 DUP3 PUSH2 0x1263 JUMP JUMPDEST PUSH1 0x20 DUP3 ADD SWAP1 POP SWAP2 SWAP1 POP JUMP JUMPDEST PUSH0 PUSH1 0x20 DUP3 ADD SWAP1 POP DUP2 DUP2 SUB PUSH0 DUP4 ADD MSTORE PUSH2 0x12C4 DUP2 PUSH2 0x128B JUMP JUMPDEST SWAP1 POP SWAP2 SWAP1 POP JUMP JUMPDEST PUSH0 DUP2 SWAP1 POP DUP2 PUSH0 MSTORE PUSH1 0x20 PUSH0 KECCAK256 SWAP1 POP SWAP2 SWAP1 POP JUMP JUMPDEST PUSH0 PUSH1 0x20 PUSH1 0x1F DUP4 ADD DIV SWAP1 POP SWAP2 SWAP1 POP JUMP JUMPDEST PUSH0 DUP3 DUP3 SHL SWAP1 POP SWAP3 SWAP2 POP POP JUMP JUMPDEST PUSH0 PUSH1 0x8 DUP4 MUL PUSH2 0x1327 PUSH32 0xFFFFFFFFFFFFFFFFFFFFFFFFFFFFFFFFFFFFFFFFFFFFFFFFFFFFFFFFFFFFFFFF DUP3 PUSH2 0x12EC JUMP JUMPDEST PUSH2 0x1331 DUP7 DUP4 PUSH2 0x12EC JUMP JUMPDEST SWAP6 POP DUP1 NOT DUP5 AND SWAP4 POP DUP1 DUP7 AND DUP5 OR SWAP3 POP POP POP SWAP4 SWAP3 POP POP POP JUMP JUMPDEST PUSH0 DUP2 SWAP1 POP SWAP2 SWAP1 POP JUMP JUMPDEST PUSH0 PUSH2 0x136C PUSH2 0x1367 PUSH2 0x1362 DUP5 PUSH2 0xBD5 JUMP JUMPDEST PUSH2 0x1349 JUMP JUMPDEST PUSH2 0xBD5 JUMP JUMPDEST SWAP1 POP SWAP2 SWAP1 POP JUMP JUMPDEST PUSH0 DUP2 SWAP1 POP SWAP2 SWAP1 POP JUMP JUMPDEST PUSH2 0x1385 DUP4 PUSH2 0x1352 JUMP JUMPDEST PUSH2 0x1399 PUSH2 0x1391 DUP3 PUSH2 0x1373 JUMP JUMPDEST DUP5 DUP5 SLOAD PUSH2 0x12F8 JUMP JUMPDEST DUP3 SSTORE POP POP POP POP JUMP JUMPDEST PUSH0 PUSH0 SWAP1 POP SWAP1 JUMP JUMPDEST PUSH2 0x13B0 PUSH2 0x13A1 JUMP JUMPDEST PUSH2 0x13BB DUP2 DUP5 DUP5 PUSH2 0x137C JUMP JUMPDEST POP POP POP JUMP JUMPDEST JUMPDEST DUP2 DUP2 LT ISZERO PUSH2 0x13DE JUMPI PUSH2 0x13D3 PUSH0 DUP3 PUSH2 0x13A8 JUMP JUMPDEST PUSH1 0x1 DUP2 ADD SWAP1 POP PUSH2 0x13C1 JUMP JUMPDEST POP POP JUMP JUMPDEST PUSH1 0x1F DUP3 GT ISZERO PUSH2 0x1423 JUMPI PUSH2 0x13F4 DUP2 PUSH2 0x12CB JUMP JUMPDEST PUSH2 0x13FD DUP5 PUSH2 0x12DD JUMP JUMPDEST DUP2 ADD PUSH1 0x20 DUP6 LT ISZERO PUSH2 0x140C JUMPI DUP2 SWAP1 POP JUMPDEST PUSH2 0x1420 PUSH2 0x1418 DUP6 PUSH2 0x12DD JUMP JUMPDEST DUP4 ADD DUP3 PUSH2 0x13C0 JUMP JUMPDEST POP POP JUMPDEST POP POP POP JUMP JUMPDEST PUSH0 DUP3 DUP3 SHR SWAP1 POP SWAP3 SWAP2 POP POP JUMP JUMPDEST PUSH0 PUSH2 0x1443 PUSH0 NOT DUP5 PUSH1 0x8 MUL PUSH2 0x1428 JUMP JUMPDEST NOT DUP1 DUP4 AND SWAP2 POP POP SWAP3 SWAP2 POP POP JUMP JUMPDEST PUSH0 PUSH2 0x145B DUP4 DUP4 PUSH2 0x1434 JUMP JUMPDEST SWAP2 POP DUP3 PUSH1 0x2 MUL DUP3 OR SWAP1 POP SWAP3 SWAP2 POP POP JUMP JUMPDEST PUSH2 0x1474 DUP3 PUSH2 0xD79 JUMP JUMPDEST PUSH8 0xFFFFFFFFFFFFFFFF DUP2 GT ISZERO PUSH2 0x148D JUMPI PUSH2 0x148C PUSH2 0xE49 JUMP JUMPDEST JUMPDEST PUSH2 0x1497 DUP3 SLOAD PUSH2 0x11CB JUMP JUMPDEST PUSH2 0x14A2 DUP3 DUP3 DUP6 PUSH2 0x13E2 JUMP JUMPDEST PUSH0 PUSH1 0x20 SWAP1 POP PUSH1 0x1F DUP4 GT PUSH1 0x1 DUP2 EQ PUSH2 0x14D3 JUMPI PUSH0 DUP5 ISZERO PUSH2 0x14C1 JUMPI DUP3 DUP8 ADD MLOAD SWAP1 POP JUMPDEST PUSH2 0x14CB DUP6 DUP3 PUSH2 0x1450 JUMP JUMPDEST DUP7 SSTORE POP PUSH2 0x1532 JUMP JUMPDEST PUSH1 0x1F NOT DUP5 AND PUSH2 0x14E1 DUP7 PUSH2 0x12CB JUMP JUMPDEST PUSH0 JUMPDEST DUP3 DUP2 LT ISZERO PUSH2 0x1508 JUMPI DUP5 DUP10 ADD MLOAD DUP3 SSTORE PUSH1 0x1 DUP3 ADD SWAP2 POP PUSH1 0x20 DUP6 ADD SWAP5 POP PUSH1 0x20 DUP2 ADD SWAP1 POP PUSH2 0x14E3 JUMP JUMPDEST DUP7 DUP4 LT ISZERO PUSH2 0x1525 JUMPI DUP5 DUP10 ADD MLOAD PUSH2 0x1521 PUSH1 0x1F DUP10 AND DUP3 PUSH2 0x1434 JUMP JUMPDEST DUP4 SSTORE POP JUMPDEST PUSH1 0x1 PUSH1 0x2 DUP9 MUL ADD DUP9 SSTORE POP POP POP JUMPDEST POP POP POP POP POP POP JUMP JUMPDEST PUSH32 0x616D6F756E743E30000000000000000000000000000000000000000000000000 PUSH0 DUP3 ADD MSTORE POP JUMP JUMPDEST PUSH0 PUSH2 0x156E PUSH1 0x8 DUP4 PUSH2 0xD83 JUMP JUMPDEST SWAP2 POP PUSH2 0x1579 DUP3 PUSH2 0x153A JUMP JUMPDEST PUSH1 0x20 DUP3 ADD SWAP1 POP SWAP2 SWAP1 POP JUMP JUMPDEST PUSH0 PUSH1 0x20 DUP3 ADD SWAP1 POP DUP2 DUP2 SUB PUSH0 DUP4 ADD MSTORE PUSH2 0x159B DUP2 PUSH2 0x1562 JUMP JUMPDEST SWAP1 POP SWAP2 SWAP1 POP JUMP JUMPDEST PUSH32 0x616C726561647920657865637574656400000000000000000000000000000000 PUSH0 DUP3 ADD MSTORE POP JUMP JUMPDEST PUSH0 PUSH2 0x15D6 PUSH1 0x10 DUP4 PUSH2 0xD83 JUMP JUMPDEST SWAP2 POP PUSH2 0x15E1 DUP3 PUSH2 0x15A2 JUMP JUMPDEST PUSH1 0x20 DUP3 ADD SWAP1 POP SWAP2 SWAP1 POP JUMP JUMPDEST PUSH0 PUSH1 0x20 DUP3 ADD SWAP1 POP DUP2 DUP2 SUB PUSH0 DUP4 ADD MSTORE PUSH2 0x1603 DUP2 PUSH2 0x15CA JUMP JUMPDEST SWAP1 POP SWAP2 SWAP1 POP JUMP JUMPDEST PUSH32 0x4E487B7100000000000000000000000000000000000000000000000000000000 PUSH0 MSTORE PUSH1 0x12 PUSH1 0x4 MSTORE PUSH1 0x24 PUSH0 REVERT JUMPDEST PUSH0 PUSH2 0x1641 DUP3 PUSH2 0xBD5 JUMP JUMPDEST SWAP2 POP PUSH2 0x164C DUP4 PUSH2 0xBD5 JUMP JUMPDEST SWAP3 POP DUP3 PUSH2 0x165C JUMPI PUSH2 0x165B PUSH2 0x160A JUMP JUMPDEST JUMPDEST DUP3 DUP3 DIV SWAP1 POP SWAP3 SWAP2 POP POP JUMP JUMPDEST PUSH32 0x6E6F74206D616A6F726974790000000000000000000000000000000000000000 PUSH0 DUP3 ADD MSTORE POP JUMP JUMPDEST PUSH0 PUSH2 0x169B PUSH1 0xC DUP4 PUSH2 0xD83 JUMP JUMPDEST SWAP2 POP PUSH2 0x16A6 DUP3 PUSH2 0x1667 JUMP JUMPDEST PUSH1 0x20 DUP3 ADD SWAP1 POP SWAP2 SWAP1 POP JUMP JUMPDEST PUSH0 PUSH1 0x20 DUP3 ADD SWAP1 POP DUP2 DUP2 SUB PUSH0 DUP4 ADD MSTORE PUSH2 0x16C8 DUP2 PUSH2 0x168F JUMP JUMPDEST SWAP1 POP SWAP2 SWAP1 POP JUMP JUMPDEST PUSH32 0x496E73756666696369656E742066756E64730000000000000000000000000000 PUSH0 DUP3 ADD MSTORE POP JUMP JUMPDEST PUSH0 PUSH2 0x1703 PUSH1 0x12 DUP4 PUSH2 0xD83 JUMP JUMPDEST SWAP2 POP PUSH2 0x170E DUP3 PUSH2 0x16CF JUMP JUMPDEST PUSH1 0x20 DUP3 ADD SWAP1 POP SWAP2 SWAP1 POP JUMP JUMPDEST PUSH0 PUSH1 0x20 DUP3 ADD SWAP1 POP DUP2 DUP2 SUB PUSH0 DUP4 ADD MSTORE PUSH2 0x1730 DUP2 PUSH2 0x16F7 JUMP JUMPDEST SWAP1 POP SWAP2 SWAP1 POP JUMP JUMPDEST PUSH0 PUSH2 0x1741 DUP3 PUSH2 0xBD5 JUMP JUMPDEST SWAP2 POP PUSH2 0x174C DUP4 PUSH2 0xBD5 JUMP JUMPDEST SWAP3 POP DUP3 DUP3 SUB SWAP1 POP DUP2 DUP2 GT ISZERO PUSH2 0x1764 JUMPI PUSH2 0x1763 PUSH2 0x113E JUMP JUMPDEST JUMPDEST SWAP3 SWAP2 POP POP JUMP INVALID LOG2 PUSH5 0x6970667358 0x22 SLT KECCAK256 0xD3 PUSH12 0xDAB391831A32397AD6E3110E 0xBC JUMPDEST 0xDF 0xA5 0x4F 0xDE EXP 0xAB POP PUSH26 0x378D57832613CD0764736F6C634300081E003300000000000000 "
		},
		"gasEstimates": {
			"creation": {
				"codeDepositCost": "1209600",
				"executionCost": "25516",
				"totalCost": "1235116"
			},
			"external": {
				"contribute(uint256)": "infinite",
				"contributions(address)": "2869",
				"contributors(uint256)": "4989",
				"contributorsCount()": "2463",
				"createRequest(string,uint256,address)": "infinite",
				"execute(uint256)": "infinite",
				"manager()": "2596",
				"requests(uint256)": "infinite",
				"requestsCount()": "2506",
				"spent()": "2470",
				"total()": "2448",
				"vote(uint256)": "infinite",
				"voted(uint256,address)": "3181"
			}
		},
		"methodIdentifiers": {
			"contribute(uint256)": "c1cbbca7",
			"contributions(address)": "42e94c90",
			"contributors(uint256)": "3cb5d100",
			"contributorsCount()": "7569b3d7",
			"createRequest(string,uint256,address)": "8a9cfd55",
			"execute(uint256)": "fe0d94c1",
			"manager()": "481c6a75",
			"requests(uint256)": "81d12c58",
			"requestsCount()": "fbfa4b7f",
			"spent()": "7ab71b7a",
			"total()": "2ddbd13a",
			"vote(uint256)": "0121b93f",
			"voted(uint256,address)": "5277b4ae"
		}
	},
	"abi": [
		{
			"inputs": [],
			"stateMutability": "nonpayable",
			"type": "constructor"
		},
		{
			"inputs": [
				{
					"internalType": "uint256",
					"name": "amount",
					"type": "uint256"
				}
			],
			"name": "contribute",
			"outputs": [],
			"stateMutability": "nonpayable",
			"type": "function"
		},
		{
			"inputs": [
				{
					"internalType": "address",
					"name": "",
					"type": "address"
				}
			],
			"name": "contributions",
			"outputs": [
				{
					"internalType": "uint256",
					"name": "",
					"type": "uint256"
				}
			],
			"stateMutability": "view",
			"type": "function"
		},
		{
			"inputs": [
				{
					"internalType": "uint256",
					"name": "",
					"type": "uint256"
				}
			],
			"name": "contributors",
			"outputs": [
				{
					"internalType": "address",
					"name": "",
					"type": "address"
				}
			],
			"stateMutability": "view",
			"type": "function"
		},
		{
			"inputs": [],
			"name": "contributorsCount",
			"outputs": [
				{
					"internalType": "uint256",
					"name": "",
					"type": "uint256"
				}
			],
			"stateMutability": "view",
			"type": "function"
		},
		{
			"inputs": [
				{
					"internalType": "string",
					"name": "desc",
					"type": "string"
				},
				{
					"internalType": "uint256",
					"name": "amount",
					"type": "uint256"
				},
				{
					"internalType": "address",
					"name": "recipient",
					"type": "address"
				}
			],
			"name": "createRequest",
			"outputs": [],
			"stateMutability": "nonpayable",
			"type": "function"
		},
		{
			"inputs": [
				{
					"internalType": "uint256",
					"name": "id",
					"type": "uint256"
				}
			],
			"name": "execute",
			"outputs": [],
			"stateMutability": "nonpayable",
			"type": "function"
		},
		{
			"inputs": [],
			"name": "manager",
			"outputs": [
				{
					"internalType": "address",
					"name": "",
					"type": "address"
				}
			],
			"stateMutability": "view",
			"type": "function"
		},
		{
			"inputs": [
				{
					"internalType": "uint256",
					"name": "",
					"type": "uint256"
				}
			],
			"name": "requests",
			"outputs": [
				{
					"internalType": "string",
					"name": "desc",
					"type": "string"
				},
				{
					"internalType": "uint256",
					"name": "amount",
					"type": "uint256"
				},
				{
					"internalType": "address",
					"name": "recipient",
					"type": "address"
				},
				{
					"internalType": "uint256",
					"name": "yes",
					"type": "uint256"
				},
				{
					"internalType": "bool",
					"name": "executed",
					"type": "bool"
				}
			],
			"stateMutability": "view",
			"type": "function"
		},
		{
			"inputs": [],
			"name": "requestsCount",
			"outputs": [
				{
					"internalType": "uint256",
					"name": "",
					"type": "uint256"
				}
			],
			"stateMutability": "view",
			"type": "function"
		},
		{
			"inputs": [],
			"name": "spent",
			"outputs": [
				{
					"internalType": "uint256",
					"name": "",
					"type": "uint256"
				}
			],
			"stateMutability": "view",
			"type": "function"
		},
		{
			"inputs": [],
			"name": "total",
			"outputs": [
				{
					"internalType": "uint256",
					"name": "",
					"type": "uint256"
				}
			],
			"stateMutability": "view",
			"type": "function"
		},
		{
			"inputs": [
				{
					"internalType": "uint256",
					"name": "id",
					"type": "uint256"
				}
			],
			"name": "vote",
			"outputs": [],
			"stateMutability": "nonpayable",
			"type": "function"
		},
		{
			"inputs": [
				{
					"internalType": "uint256",
					"name": "",
					"type": "uint256"
				},
				{
					"internalType": "address",
					"name": "",
					"type": "address"
				}
			],
			"name": "voted",
			"outputs": [
				{
					"internalType": "bool",
					"name": "",
					"type": "bool"
				}
			],
			"stateMutability": "view",
			"type": "function"
		}
	]
}