{
	"data": {
		"bytecode": {
			"linkReferences": {},
			"object": "60806040526040518060400160405280600981526020017f4d696e69546f6b656e00000000000000000000000000000000000000000000008152505f908161004791906102db565b506040518060400160405280600481526020017f4d494e49000000000000000000000000000000000000000000000000000000008152506001908161008c91906102db565b50348015610098575f5ffd5b506103aa565b5f81519050919050565b7f4e487b71000000000000000000000000000000000000000000000000000000005f52604160045260245ffd5b7f4e487b71000000000000000000000000000000000000000000000000000000005f52602260045260245ffd5b5f600282049050600182168061011957607f821691505b60208210810361012c5761012b6100d5565b5b50919050565b5f819050815f5260205f209050919050565b5f6020601f8301049050919050565b5f82821b905092915050565b5f6008830261018e7fffffffffffffffffffffffffffffffffffffffffffffffffffffffffffffffff82610153565b6101988683610153565b95508019841693508086168417925050509392505050565b5f819050919050565b5f819050919050565b5f6101dc6101d76101d2846101b0565b6101b9565b6101b0565b9050919050565b5f819050919050565b6101f5836101c2565b610209610201826101e3565b84845461015f565b825550505050565b5f5f905090565b610220610211565b61022b8184846101ec565b505050565b5b8181101561024e576102435f82610218565b600181019050610231565b5050565b601f8211156102935761026481610132565b61026d84610144565b8101602085101561027c578190505b61029061028885610144565b830182610230565b50505b505050565b5f82821c905092915050565b5f6102b35f1984600802610298565b1980831691505092915050565b5f6102cb83836102a4565b9150826002028217905092915050565b6102e48261009e565b67ffffffffffffffff8111156102fd576102fc6100a8565b5b6103078254610102565b610312828285610252565b5f60209050601f831160018114610343575f8415610331578287015190505b61033b85826102c0565b8655506103a2565b601f19841661035186610132565b5f5b8281101561037857848901518255600182019150602085019450602081019050610353565b868310156103955784890151610391601f8916826102a4565b8355505b6001600288020188555050505b505050505050565b61091e806103b75f395ff3fe608060405234801561000f575f5ffd5b5060043610610060575f3560e01c806306fdde031461006457806370a082311461008257806395d89b41146100b2578063a0712d68146100d0578063a9059cbb146100ec578063e3d670d714610108575b5f5ffd5b61006c610138565b6040516100799190610550565b60405180910390f35b61009c600480360381019061009791906105ce565b6101c3565b6040516100a99190610611565b60405180910390f35b6100ba610209565b6040516100c79190610550565b60405180910390f35b6100ea60048036038101906100e59190610654565b610295565b005b6101066004803603810190610101919061067f565b610366565b005b610122600480360381019061011d91906105ce565b6104cb565b60405161012f9190610611565b60405180910390f35b5f8054610144906106ea565b80601f0160208091040260200160405190810160405280929190818152602001828054610170906106ea565b80156101bb5780601f10610192576101008083540402835291602001916101bb565b820191905f5260205f20905b81548152906001019060200180831161019e57829003601f168201915b505050505081565b5f60025f8373ffffffffffffffffffffffffffffffffffffffff1673ffffffffffffffffffffffffffffffffffffffff1681526020019081526020015f20549050919050565b60018054610216906106ea565b80601f0160208091040260200160405190810160405280929190818152602001828054610242906106ea565b801561028d5780601f106102645761010080835404028352916020019161028d565b820191905f5260205f20905b81548152906001019060200180831161027057829003601f168201915b505050505081565b5f81116102d7576040517f08c379a00000000000000000000000000000000000000000000000000000000081526004016102ce90610764565b60405180910390fd5b8060025f3373ffffffffffffffffffffffffffffffffffffffff1673ffffffffffffffffffffffffffffffffffffffff1681526020019081526020015f205f82825461032391906107af565b925050819055507f30385c845b448a36257a6a1716e6ad2e1bc2cbe333cde1e69fe849ad6511adfe338260405161035b9291906107f1565b60405180910390a150565b8060025f3373ffffffffffffffffffffffffffffffffffffffff1673ffffffffffffffffffffffffffffffffffffffff1681526020019081526020015f205410156103e6576040517f08c379a00000000000000000000000000000000000000000000000000000000081526004016103dd90610862565b60405180910390fd5b8060025f3373ffffffffffffffffffffffffffffffffffffffff1673ffffffffffffffffffffffffffffffffffffffff1681526020019081526020015f205f8282546104329190610880565b925050819055508060025f8473ffffffffffffffffffffffffffffffffffffffff1673ffffffffffffffffffffffffffffffffffffffff1681526020019081526020015f205f82825461048591906107af565b925050819055507fd1ba4ac2e2a11b5101f6cb4d978f514a155b421e8ec396d2d9abaf0bb02917ee3383836040516104bf939291906108b3565b60405180910390a15050565b6002602052805f5260405f205f915090505481565b5f81519050919050565b5f82825260208201905092915050565b8281835e5f83830152505050565b5f601f19601f8301169050919050565b5f610522826104e0565b61052c81856104ea565b935061053c8185602086016104fa565b61054581610508565b840191505092915050565b5f6020820190508181035f8301526105688184610518565b905092915050565b5f5ffd5b5f73ffffffffffffffffffffffffffffffffffffffff82169050919050565b5f61059d82610574565b9050919050565b6105ad81610593565b81146105b7575f5ffd5b50565b5f813590506105c8816105a4565b92915050565b5f602082840312156105e3576105e2610570565b5b5f6105f0848285016105ba565b91505092915050565b5f819050919050565b61060b816105f9565b82525050565b5f6020820190506106245f830184610602565b92915050565b610633816105f9565b811461063d575f5ffd5b50565b5f8135905061064e8161062a565b92915050565b5f6020828403121561066957610668610570565b5b5f61067684828501610640565b91505092915050565b5f5f6040838503121561069557610694610570565b5b5f6106a2858286016105ba565b92505060206106b385828601610640565b9150509250929050565b7f4e487b71000000000000000000000000000000000000000000000000000000005f52602260045260245ffd5b5f600282049050600182168061070157607f821691505b602082108103610714576107136106bd565b5b50919050565b7f616d6f756e743e300000000000000000000000000000000000000000000000005f82015250565b5f61074e6008836104ea565b91506107598261071a565b602082019050919050565b5f6020820190508181035f83015261077b81610742565b9050919050565b7f4e487b71000000000000000000000000000000000000000000000000000000005f52601160045260245ffd5b5f6107b9826105f9565b91506107c4836105f9565b92508282019050808211156107dc576107db610782565b5b92915050565b6107eb81610593565b82525050565b5f6040820190506108045f8301856107e2565b6108116020830184610602565b9392505050565b7f696e73756666696369656e7400000000000000000000000000000000000000005f82015250565b5f61084c600c836104ea565b915061085782610818565b602082019050919050565b5f6020820190508181035f83015261087981610840565b9050919050565b5f61088a826105f9565b9150610895836105f9565b92508282039050818111156108ad576108ac610782565b5b92915050565b5f6060820190506108c65f8301866107e2565b6108d360208301856107e2565b6108e06040830184610602565b94935050505056fea26469706673582212204a57814f8e5b0b3ab19d9849fdc441fc64a811bc7b1276636b55613ec1c7301d64736f6c634300081e0033",
			"opcodes": "PUSH1 0x80 PUSH1 0x40 MSTORE PUSH1 0x40 MLOAD DUP1 PUSH1 0x40 ADD PUSH1 0x40 MSTORE DUP1 PUSH1 0x9 DUP2 MSTORE PUSH1 0x20 ADD PUSH32 0x4D696E69546F6B656E0000000000000000000000000000000000000000000000 DUP2 MSTORE POP PUSH0 SWAP1 DUP2 PUSH2 0x47 SWAP2 SWAP1 PUSH2 0x2DB JUMP JUMPDEST POP PUSH1 0x40 MLOAD DUP1 PUSH1 0x40 ADD PUSH1 0x40 MSTORE DUP1 PUSH1 0x4 DUP2 MSTORE PUSH1 0x20 ADD PUSH32 0x4D494E4900000000000000000000000000000000000000000000000000000000 DUP2 MSTORE POP PUSH1 0x1 SWAP1 DUP2 PUSH2 0x8C SWAP2 SWAP1 PUSH2 0x2DB JUMP JUMPDEST POP CALLVALUE DUP1 ISZERO PUSH2 0x98 JUMPI PUSH0 PUSH0 REVERT JUMPDEST POP PUSH2 0x3AA JUMP JUMPDEST PUSH0 DUP2 MLOAD SWAP1 POP SWAP2 SWAP1 POP JUMP JUMPDEST PUSH32 0x4E487B7100000000000000000000000000000000000000000000000000000000 PUSH0 MSTORE PUSH1 0x41 PUSH1 0x4 MSTORE PUSH1 0x24 PUSH0 REVERT JUMPDEST PUSH32 0x4E487B7100000000000000000000000000000000000000000000000000000000 PUSH0 MSTORE PUSH1 0x22 PUSH1 0x4 MSTORE PUSH1 0x24 PUSH0 REVERT JUMPDEST PUSH0 PUSH1 0x2 DUP3 DIV SWAP1 POP PUSH1 0x1 DUP3 AND DUP1 PUSH2 0x119 JUMPI PUSH1 0x7F DUP3 AND SWAP2 POP JUMPDEST PUSH1 0x20 DUP3 LT DUP2 SUB PUSH2 0x12C JUMPI PUSH2 0x12B PUSH2 0xD5 JUMP JUMPDEST JUMPDEST POP SWAP2 SWAP1 POP JUMP JUMPDEST PUSH0 DUP2 SWAP1 POP DUP2 PUSH0 MSTORE PUSH1 0x20 PUSH0 KECCAK256 SWAP1 POP SWAP2 SWAP1 POP JUMP JUMPDEST PUSH0 PUSH1 0x20 PUSH1 0x1F DUP4 ADD DIV SWAP1 POP SWAP2 SWAP1 POP JUMP JUMPDEST PUSH0 DUP3 DUP3 SHL SWAP1 POP SWAP3 SWAP2 POP POP JUMP JUMPDEST PUSH0 PUSH1 0x8 DUP4 MUL PUSH2 0x18E PUSH32 0xFFFFFFFFFFFFFFFFFFFFFFFFFFFFFFFFFFFFFFFFFFFFFFFFFFFFFFFFFFFFFFFF DUP3 PUSH2 0x153 JUMP JUMPDEST PUSH2 0x198 DUP7 DUP4 PUSH2 0x153 JUMP JUMPDEST SWAP6 POP DUP1 NOT DUP5 AND SWAP4 POP DUP1 DUP7 AND DUP5 OR SWAP3 POP POP POP SWAP4 SWAP3 POP POP POP JUMP JUMPDEST PUSH0 DUP2 SWAP1 POP SWAP2 SWAP1 POP JUMP JUMPDEST PUSH0 DUP2 SWAP1 POP SWAP2 SWAP1 POP JUMP JUMPDEST PUSH0 PUSH2 0x1DC PUSH2 0x1D7 PUSH2 0x1D2 DUP5 PUSH2 0x1B0 JUMP JUMPDEST PUSH2 0x1B9 JUMP JUMPDEST PUSH2 0x1B0 JUMP JUMPDEST SWAP1 POP SWAP2 SWAP1 POP JUMP JUMPDEST PUSH0 DUP2 SWAP1 POP SWAP2 SWAP1 POP JUMP JUMPDEST PUSH2 0x1F5 DUP4 PUSH2 0x1C2 JUMP JUMPDEST PUSH2 0x209 PUSH2 0x201 DUP3 PUSH2 0x1E3 JUMP JUMPDEST DUP5 DUP5 SLOAD PUSH2 0x15F JUMP JUMPDEST DUP3 SSTORE POP POP POP POP JUMP JUMPDEST PUSH0 PUSH0 SWAP1 POP SWAP1 JUMP JUMPDEST PUSH2 0x220 PUSH2 0x211 JUMP JUMPDEST PUSH2 0x22B DUP2 DUP5 DUP5 PUSH2 0x1EC JUMP JUMPDEST POP POP POP JUMP JUMPDEST JUMPDEST DUP2 DUP2 LT ISZERO PUSH2 0x24E JUMPI PUSH2 0x243 PUSH0 DUP3 PUSH2 0x218 JUMP JUMPDEST PUSH1 0x1 DUP2 ADD SWAP1 POP PUSH2 0x231 JUMP JUMPDEST POP POP JUMP JUMPDEST PUSH1 0x1F DUP3 GT ISZERO PUSH2 0x293 JUMPI PUSH2 0x264 DUP2 PUSH2 0x132 JUMP JUMPDEST PUSH2 0x26D DUP5 PUSH2 0x144 JUMP JUMPDEST DUP2 ADD PUSH1 0x20 DUP6 LT ISZERO PUSH2 0x27C JUMPI DUP2 SWAP1 POP JUMPDEST PUSH2 0x290 PUSH2 0x288 DUP6 PUSH2 0x144 JUMP JUMPDEST DUP4 ADD DUP3 PUSH2 0x230 JUMP JUMPDEST POP POP JUMPDEST POP POP POP JUMP JUMPDEST PUSH0 DUP3 DUP3 SHR SWAP1 POP SWAP3 SWAP2 POP POP JUMP JUMPDEST PUSH0 PUSH2 0x2B3 PUSH0 NOT DUP5 PUSH1 0x8 MUL PUSH2 0x298 JUMP JUMPDEST NOT DUP1 DUP4 AND SWAP2 POP POP SWAP3 SWAP2 POP POP JUMP JUMPDEST PUSH0 PUSH2 0x2CB DUP4 DUP4 PUSH2 0x2A4 JUMP JUMPDEST SWAP2 POP DUP3 PUSH1 0x2 MUL DUP3 OR SWAP1 POP SWAP3 SWAP2 POP POP JUMP JUMPDEST PUSH2 0x2E4 DUP3 PUSH2 0x9E JUMP JUMPDEST PUSH8 0xFFFFFFFFFFFFFFFF DUP2 GT ISZERO PUSH2 0x2FD JUMPI PUSH2 0x2FC PUSH2 0xA8 JUMP JUMPDEST JUMPDEST PUSH2 0x307 DUP3 SLOAD PUSH2 0x102 JUMP JUMPDEST PUSH2 0x312 DUP3 DUP3 DUP6 PUSH2 0x252 JUMP JUMPDEST PUSH0 PUSH1 0x20 SWAP1 POP PUSH1 0x1F DUP4 GT PUSH1 0x1 DUP2 EQ PUSH2 0x343 JUMPI PUSH0 DUP5 ISZERO PUSH2 0x331 JUMPI DUP3 DUP8 ADD MLOAD SWAP1 POP JUMPDEST PUSH2 0x33B DUP6 DUP3 PUSH2 0x2C0 JUMP JUMPDEST DUP7 SSTORE POP PUSH2 0x3A2 JUMP JUMPDEST PUSH1 0x1F NOT DUP5 AND PUSH2 0x351 DUP7 PUSH2 0x132 JUMP JUMPDEST PUSH0 JUMPDEST DUP3 DUP2 LT ISZERO PUSH2 0x378 JUMPI DUP5 DUP10 ADD MLOAD DUP3 SSTORE PUSH1 0x1 DUP3 ADD SWAP2 POP PUSH1 0x20 DUP6 ADD SWAP5 POP PUSH1 0x20 DUP2 ADD SWAP1 POP PUSH2 0x353 JUMP JUMPDEST DUP7 DUP4 LT ISZERO PUSH2 0x395 JUMPI DUP5 DUP10 ADD MLOAD PUSH2 0x391 PUSH1 0x1F DUP10 AND DUP3 PUSH2 0x2A4 JUMP JUMPDEST DUP4 SSTORE POP JUMPDEST PUSH1 0x1 PUSH1 0x2 DUP9 MUL ADD DUP9 SSTORE POP POP POP JUMPDEST POP POP POP POP POP POP JUMP JUMPDEST PUSH2 0x91E DUP1 PUSH2 0x3B7 PUSH0 CODECOPY PUSH0 RETURN INVALID PUSH1 0x80 PUSH1 0x40 MSTORE CALLVALUE DUP1 ISZERO PUSH2 0xF JUMPI PUSH0 PUSH0 REVERT JUMPDEST POP PUSH1 0x4 CALLDATASIZE LT PUSH2 0x60 JUMPI PUSH0 CALLDATALOAD PUSH1 0xE0 SHR DUP1 PUSH4 0x6FDDE03 EQ PUSH2 0x64 JUMPI DUP1 PUSH4 0x70A08231 EQ PUSH2 0x82 JUMPI DUP1 PUSH4 0x95D89B41 EQ PUSH2 0xB2 JUMPI DUP1 PUSH4 0xA0712D68 EQ PUSH2 0xD0 JUMPI DUP1 PUSH4 0xA9059CBB EQ PUSH2 0xEC JUMPI DUP1 PUSH4 0xE3D670D7 EQ PUSH2 0x108 JUMPI JUMPDEST PUSH0 PUSH0 REVERT JUMPDEST PUSH2 0x6C PUSH2 0x138 JUMP JUMPDEST PUSH1 0x40 MLOAD PUSH2 0x79 SWAP2 SWAP1 PUSH2 0x550 JUMP JUMPDEST PUSH1 0x40 MLOAD DUP1 SWAP2 SUB SWAP1 RETURN JUMPDEST PUSH2 0x9C PUSH1 0x4 DUP1 CALLDATASIZE SUB DUP2 ADD SWAP1 PUSH2 0x97 SWAP2 SWAP1 PUSH2 0x5CE JUMP JUMPDEST PUSH2 0x1C3 JUMP JUMPDEST PUSH1 0x40 MLOAD PUSH2 0xA9 SWAP2 SWAP1 PUSH2 0x611 JUMP JUMPDEST PUSH1 0x40 MLOAD DUP1 SWAP2 SUB SWAP1 RETURN JUMPDEST PUSH2 0xBA PUSH2 0x209 JUMP JUMPDEST PUSH1 0x40 MLOAD PUSH2 0xC7 SWAP2 SWAP1 PUSH2 0x550 JUMP JUMPDEST PUSH1 0x40 MLOAD DUP1 SWAP2 SUB SWAP1 RETURN JUMPDEST PUSH2 0xEA PUSH1 0x4 DUP1 CALLDATASIZE SUB DUP2 ADD SWAP1 PUSH2 0xE5 SWAP2 SWAP1 PUSH2 0x654 JUMP JUMPDEST PUSH2 0x295 JUMP JUMPDEST STOP JUMPDEST PUSH2 0x106 PUSH1 0x4 DUP1 CALLDATASIZE SUB DUP2 ADD SWAP1 PUSH2 0x101 SWAP2 SWAP1 PUSH2 0x67F JUMP JUMPDEST PUSH2 0x366 JUMP JUMPDEST STOP JUMPDEST PUSH2 0x122 PUSH1 0x4 DUP1 CALLDATASIZE SUB DUP2 ADD SWAP1 PUSH2 0x11D SWAP2 SWAP1 PUSH2 0x5CE JUMP JUMPDEST PUSH2 0x4CB JUMP JUMPDEST PUSH1 0x40 MLOAD PUSH2 0x12F SWAP2 SWAP1 PUSH2 0x611 JUMP JUMPDEST PUSH1 0x40 MLOAD DUP1 SWAP2 SUB SWAP1 RETURN JUMPDEST PUSH0 DUP1 SLOAD PUSH2 0x144 SWAP1 PUSH2 0x6EA JUMP JUMPDEST DUP1 PUSH1 0x1F ADD PUSH1 0x20 DUP1 SWAP2 DIV MUL PUSH1 0x20 ADD PUSH1 0x40 MLOAD SWAP1 DUP2 ADD PUSH1 0x40 MSTORE DUP1 SWAP3 SWAP2 SWAP1 DUP2 DUP2 MSTORE PUSH1 0x20 ADD DUP3 DUP1 SLOAD PUSH2 0x170 SWAP1 PUSH2 0x6EA JUMP JUMPDEST DUP1 ISZERO PUSH2 0x1BB JUMPI DUP1 PUSH1 0x1F LT PUSH2 0x192 JUMPI PUSH2 0x100 DUP1 DUP4 SLOAD DIV MUL DUP4 MSTORE SWAP2 PUSH1 0x20 ADD SWAP2 PUSH2 0x1BB JUMP JUMPDEST DUP3 ADD SWAP2 SWAP1 PUSH0 MSTORE PUSH1 0x20 PUSH0 KECCAK256 SWAP1 JUMPDEST DUP2 SLOAD DUP2 MSTORE SWAP1 PUSH1 0x1 ADD SWAP1 PUSH1 0x20 ADD DUP1 DUP4 GT PUSH2 0x19E JUMPI DUP3 SWAP1 SUB PUSH1 0x1F AND DUP3 ADD SWAP2 JUMPDEST POP POP POP POP POP DUP2 JUMP JUMPDEST PUSH0 PUSH1 0x2 PUSH0 DUP4 PUSH20 0xFFFFFFFFFFFFFFFFFFFFFFFFFFFFFFFFFFFFFFFF AND PUSH20 0xFFFFFFFFFFFFFFFFFFFFFFFFFFFFFFFFFFFFFFFF AND DUP2 MSTORE PUSH1 0x20 ADD SWAP1 DUP2 MSTORE PUSH1 0x20 ADD PUSH0 KECCAK256 SLOAD SWAP1 POP SWAP2 SWAP1 POP JUMP JUMPDEST PUSH1 0x1 DUP1 SLOAD PUSH2 0x216 SWAP1 PUSH2 0x6EA JUMP JUMPDEST DUP1 PUSH1 0x1F ADD PUSH1 0x20 DUP1 SWAP2 DIV MUL PUSH1 0x20 ADD PUSH1 0x40 MLOAD SWAP1 DUP2 ADD PUSH1 0x40 MSTORE DUP1 SWAP3 SWAP2 SWAP1 DUP2 DUP2 MSTORE PUSH1 0x20 ADD DUP3 DUP1 SLOAD PUSH2 0x242 SWAP1 PUSH2 0x6EA JUMP JUMPDEST DUP1 ISZERO PUSH2 0x28D JUMPI DUP1 PUSH1 0x1F LT PUSH2 0x264 JUMPI PUSH2 0x100 DUP1 DUP4 SLOAD DIV MUL DUP4 MSTORE SWAP2 PUSH1 0x20 ADD SWAP2 PUSH2 0x28D JUMP JUMPDEST DUP3 ADD SWAP2 SWAP1 PUSH0 MSTORE PUSH1 0x20 PUSH0 KECCAK256 SWAP1 JUMPDEST DUP2 SLOAD DUP2 MSTORE SWAP1 PUSH1 0x1 ADD SWAP1 PUSH1 0x20 ADD DUP1 DUP4 GT PUSH2 0x270 JUMPI DUP3 SWAP1 SUB PUSH1 0x1F AND DUP3 ADD SWAP2 JUMPDEST POP POP POP POP POP DUP2 JUMP JUMPDEST PUSH0 DUP2 GT PUSH2 0x2D7 JUMPI PUSH1 0x40 MLOAD PUSH32 0x8C379A000000000000000000000000000000000000000000000000000000000 DUP2 MSTORE PUSH1 0x4 ADD PUSH2 0x2CE SWAP1 PUSH2 0x764 JUMP JUMPDEST PUSH1 0x40 MLOAD DUP1 SWAP2 SUB SWAP1 REVERT JUMPDEST DUP1 PUSH1 0x2 PUSH0 CALLER PUSH20 0xFFFFFFFFFFFFFFFFFFFFFFFFFFFFFFFFFFFFFFFF AND PUSH20 0xFFFFFFFFFFFFFFFFFFFFFFFFFFFFFFFFFFFFFFFF AND DUP2 MSTORE PUSH1 0x20 ADD SWAP1 DUP2 MSTORE PUSH1 0x20 ADD PUSH0 KECCAK256 PUSH0 DUP3 DUP3 SLOAD PUSH2 0x323 SWAP2 SWAP1 PUSH2 0x7AF JUMP JUMPDEST SWAP3 POP POP DUP2 SWAP1 SSTORE POP PUSH32 0x30385C845B448A36257A6A1716E6AD2E1BC2CBE333CDE1E69FE849AD6511ADFE CALLER DUP3 PUSH1 0x40 MLOAD PUSH2 0x35B SWAP3 SWAP2 SWAP1 PUSH2 0x7F1 JUMP JUMPDEST PUSH1 0x40 MLOAD DUP1 SWAP2 SUB SWAP1 LOG1 POP JUMP JUMPDEST DUP1 PUSH1 0x2 PUSH0 CALLER PUSH20 0xFFFFFFFFFFFFFFFFFFFFFFFFFFFFFFFFFFFFFFFF AND PUSH20 0xFFFFFFFFFFFFFFFFFFFFFFFFFFFFFFFFFFFFFFFF AND DUP2 MSTORE PUSH1 0x20 ADD SWAP1 DUP2 MSTORE PUSH1 0x20 ADD PUSH0 KECCAK256 SLOAD LT ISZERO PUSH2 0x3E6 JUMPI PUSH1 0x40 MLOAD PUSH32 0x8C379A000000000000000000000000000000000000000000000000000000000 DUP2 MSTORE PUSH1 0x4 ADD PUSH2 0x3DD SWAP1 PUSH2 0x862 JUMP JUMPDEST PUSH1 0x40 MLOAD DUP1 SWAP2 SUB SWAP1 REVERT JUMPDEST DUP1 PUSH1 0x2 PUSH0 CALLER PUSH20 0xFFFFFFFFFFFFFFFFFFFFFFFFFFFFFFFFFFFFFFFF AND PUSH20 0xFFFFFFFFFFFFFFFFFFFFFFFFFFFFFFFFFFFFFFFF AND DUP2 MSTORE PUSH1 0x20 ADD SWAP1 DUP2 MSTORE PUSH1 0x20 ADD PUSH0 KECCAK256 PUSH0 DUP3 DUP3 SLOAD PUSH2 0x432 SWAP2 SWAP1 PUSH2 0x880 JUMP JUMPDEST SWAP3 POP POP DUP2 SWAP1 SSTORE POP DUP1 PUSH1 0x2 PUSH0 DUP5 PUSH20 0xFFFFFFFFFFFFFFFFFFFFFFFFFFFFFFFFFFFFFFFF AND PUSH20 0xFFFFFFFFFFFFFFFFFFFFFFFFFFFFFFFFFFFFFFFF AND DUP2 MSTORE PUSH1 0x20 ADD SWAP1 DUP2 MSTORE PUSH1 0x20 ADD PUSH0 KECCAK256 PUSH0 DUP3 DUP3 SLOAD PUSH2 0x485 SWAP2 SWAP1 PUSH2 0x7AF JUMP JUMPDEST SWAP3 POP POP DUP2 SWAP1 SSTORE POP PUSH32 0xD1BA4AC2E2A11B5101F6CB4D978F514A155B421E8EC396D2D9ABAF0BB02917EE CALLER DUP4 DUP4 PUSH1 0x40 MLOAD PUSH2 0x4BF SWAP4 SWAP3 SWAP2 SWAP1 PUSH2 0x8B3 JUMP JUMPDEST PUSH1 0x40 MLOAD DUP1 SWAP2 SUB SWAP1 LOG1 POP POP JUMP JUMPDEST PUSH1 0x2 PUSH1 0x20 MSTORE DUP1 PUSH0 MSTORE PUSH1 0x40 PUSH0 KECCAK256 PUSH0 SWAP2 POP SWAP1 POP SLOAD DUP2 JUMP JUMPDEST PUSH0 DUP2 MLOAD SWAP1 POP SWAP2 SWAP1 POP JUMP JUMPDEST PUSH0 DUP3 DUP3 MSTORE PUSH1 0x20 DUP3 ADD SWAP1 POP SWAP3 SWAP2 POP POP JUMP JUMPDEST DUP3 DUP2 DUP4 MCOPY PUSH0 DUP4 DUP4 ADD MSTORE POP POP POP JUMP JUMPDEST PUSH0 PUSH1 0x1F NOT PUSH1 0x1F DUP4 ADD AND SWAP1 POP SWAP2 SWAP1 POP JUMP JUMPDEST PUSH0 PUSH2 0x522 DUP3 PUSH2 0x4E0 JUMP JUMPDEST PUSH2 0x52C DUP2 DUP6 PUSH2 0x4EA JUMP JUMPDEST SWAP4 POP PUSH2 0x53C DUP2 DUP6 PUSH1 0x20 DUP7 ADD PUSH2 0x4FA JUMP JUMPDEST PUSH2 0x545 DUP2 PUSH2 0x508 JUMP JUMPDEST DUP5 ADD SWAP2 POP POP SWAP3 SWAP2 POP POP JUMP JUMPDEST PUSH0 PUSH1 0x20 DUP3 ADD SWAP1 POP DUP2 DUP2 SUB PUSH0 DUP4 ADD MSTORE PUSH2 0x568 DUP2 DUP5 PUSH2 0x518 JUMP JUMPDEST SWAP1 POP SWAP3 SWAP2 POP POP JUMP JUMPDEST PUSH0 PUSH0 REVERT JUMPDEST PUSH0 PUSH20 0xFFFFFFFFFFFFFFFFFFFFFFFFFFFFFFFFFFFFFFFF DUP3 AND SWAP1 POP SWAP2 SWAP1 POP JUMP JUMPDEST PUSH0 PUSH2 0x59D DUP3 PUSH2 0x574 JUMP JUMPDEST SWAP1 POP SWAP2 SWAP1 POP JUMP JUMPDEST PUSH2 0x5AD DUP2 PUSH2 0x593 JUMP JUMPDEST DUP2 EQ PUSH2 0x5B7 JUMPI PUSH0 PUSH0 REVERT JUMPDEST POP JUMP JUMPDEST PUSH0 DUP2 CALLDATALOAD SWAP1 POP PUSH2 0x5C8 DUP2 PUSH2 0x5A4 JUMP JUMPDEST SWAP3 SWAP2 POP POP JUMP JUMPDEST PUSH0 PUSH1 0x20 DUP3 DUP5 SUB SLT ISZERO PUSH2 0x5E3 JUMPI PUSH2 0x5E2 PUSH2 0x570 JUMP JUMPDEST JUMPDEST PUSH0 PUSH2 0x5F0 DUP5 DUP3 DUP6 ADD PUSH2 0x5BA JUMP JUMPDEST SWAP2 POP POP SWAP3 SWAP2 POP POP JUMP JUMPDEST PUSH0 DUP2 SWAP1 POP SWAP2 SWAP1 POP JUMP JUMPDEST PUSH2 0x60B DUP2 PUSH2 0x5F9 JUMP JUMPDEST DUP3 MSTORE POP POP JUMP JUMPDEST PUSH0 PUSH1 0x20 DUP3 ADD SWAP1 POP PUSH2 0x624 PUSH0 DUP4 ADD DUP5 PUSH2 0x602 JUMP JUMPDEST SWAP3 SWAP2 POP POP JUMP JUMPDEST PUSH2 0x633 DUP2 PUSH2 0x5F9 JUMP JUMPDEST DUP2 EQ PUSH2 0x63D JUMPI PUSH0 PUSH0 REVERT JUMPDEST POP JUMP JUMPDEST PUSH0 DUP2 CALLDATALOAD SWAP1 POP PUSH2 0x64E DUP2 PUSH2 0x62A JUMP JUMPDEST SWAP3 SWAP2 POP POP JUMP JUMPDEST PUSH0 PUSH1 0x20 DUP3 DUP5 SUB SLT ISZERO PUSH2 0x669 JUMPI PUSH2 0x668 PUSH2 0x570 JUMP JUMPDEST JUMPDEST PUSH0 PUSH2 0x676 DUP5 DUP3 DUP6 ADD PUSH2 0x640 JUMP JUMPDEST SWAP2 POP POP SWAP3 SWAP2 POP POP JUMP JUMPDEST PUSH0 PUSH0 PUSH1 0x40 DUP4 DUP6 SUB SLT ISZERO PUSH2 0x695 JUMPI PUSH2 0x694 PUSH2 0x570 JUMP JUMPDEST JUMPDEST PUSH0 PUSH2 0x6A2 DUP6 DUP3 DUP7 ADD PUSH2 0x5BA JUMP JUMPDEST SWAP3 POP POP PUSH1 0x20 PUSH2 0x6B3 DUP6 DUP3 DUP7 ADD PUSH2 0x640 JUMP JUMPDEST SWAP2 POP POP SWAP3 POP SWAP3 SWAP1 POP JUMP JUMPDEST PUSH32 0x4E487B7100000000000000000000000000000000000000000000000000000000 PUSH0 MSTORE PUSH1 0x22 PUSH1 0x4 MSTORE PUSH1 0x24 PUSH0 REVERT JUMPDEST PUSH0 PUSH1 0x2 DUP3 DIV SWAP1 POP PUSH1 0x1 DUP3 AND DUP1 PUSH2 0x701 JUMPI PUSH1 0x7F DUP3 AND SWAP2 POP JUMPDEST PUSH1 0x20 DUP3 LT DUP2 SUB PUSH2 0x714 JUMPI PUSH2 0x713 PUSH2 0x6BD JUMP JUMPDEST JUMPDEST POP SWAP2 SWAP1 POP JUMP JUMPDEST PUSH32 0x616D6F756E743E30000000000000000000000000000000000000000000000000 PUSH0 DUP3 ADD MSTORE POP JUMP JUMPDEST PUSH0 PUSH2 0x74E PUSH1 0x8 DUP4 PUSH2 0x4EA JUMP JUMPDEST SWAP2 POP PUSH2 0x759 DUP3 PUSH2 0x71A JUMP JUMPDEST PUSH1 0x20 DUP3 ADD SWAP1 POP SWAP2 SWAP1 POP JUMP JUMPDEST PUSH0 PUSH1 0x20 DUP3 ADD SWAP1 POP DUP2 DUP2 SUB PUSH0 DUP4 ADD MSTORE PUSH2 0x77B DUP2 PUSH2 0x742 JUMP JUMPDEST SWAP1 POP SWAP2 SWAP1 POP JUMP JUMPDEST PUSH32 0x4E487B7100000000000000000000000000000000000000000000000000000000 PUSH0 MSTORE PUSH1 0x11 PUSH1 0x4 MSTORE PUSH1 0x24 PUSH0 REVERT JUMPDEST PUSH0 PUSH2 0x7B9 DUP3 PUSH2 0x5F9 JUMP JUMPDEST SWAP2 POP PUSH2 0x7C4 DUP4 PUSH2 0x5F9 JUMP JUMPDEST SWAP3 POP DUP3 DUP3 ADD SWAP1 POP DUP1 DUP3 GT ISZERO PUSH2 0x7DC JUMPI PUSH2 0x7DB PUSH2 0x782 JUMP JUMPDEST JUMPDEST SWAP3 SWAP2 POP POP JUMP JUMPDEST PUSH2 0x7EB DUP2 PUSH2 0x593 JUMP JUMPDEST DUP3 MSTORE POP POP JUMP JUMPDEST PUSH0 PUSH1 0x40 DUP3 ADD SWAP1 POP PUSH2 0x804 PUSH0 DUP4 ADD DUP6 PUSH2 0x7E2 JUMP JUMPDEST PUSH2 0x811 PUSH1 0x20 DUP4 ADD DUP5 PUSH2 0x602 JUMP JUMPDEST SWAP4 SWAP3 POP POP POP JUMP JUMPDEST PUSH32 0x696E73756666696369656E740000000000000000000000000000000000000000 PUSH0 DUP3 ADD MSTORE POP JUMP JUMPDEST PUSH0 PUSH2 0x84C PUSH1 0xC DUP4 PUSH2 0x4EA JUMP JUMPDEST SWAP2 POP PUSH2 0x857 DUP3 PUSH2 0x818 JUMP JUMPDEST PUSH1 0x20 DUP3 ADD SWAP1 POP SWAP2 SWAP1 POP JUMP JUMPDEST PUSH0 PUSH1 0x20 DUP3 ADD SWAP1 POP DUP2 DUP2 SUB PUSH0 DUP4 ADD MSTORE PUSH2 0x879 DUP2 PUSH2 0x840 JUMP JUMPDEST SWAP1 POP SWAP2 SWAP1 POP JUMP JUMPDEST PUSH0 PUSH2 0x88A DUP3 PUSH2 0x5F9 JUMP JUMPDEST SWAP2 POP PUSH2 0x895 DUP4 PUSH2 0x5F9 JUMP JUMPDEST SWAP3 POP DUP3 DUP3 SUB SWAP1 POP DUP2 DUP2 GT ISZERO PUSH2 0x8AD JUMPI PUSH2 0x8AC PUSH2 0x782 JUMP JUMPDEST JUMPDEST SWAP3 SWAP2 POP POP JUMP JUMPDEST PUSH0 PUSH1 0x60 DUP3 ADD SWAP1 POP PUSH2 0x8C6 PUSH0 DUP4 ADD DUP7 PUSH2 0x7E2 JUMP JUMPDEST PUSH2 0x8D3 PUSH1 0x20 DUP4 ADD DUP6 PUSH2 0x7E2 JUMP JUMPDEST PUSH2 0x8E0 PUSH1 0x40 DUP4 ADD DUP5 PUSH2 0x602 JUMP JUMPDEST SWAP5 SWAP4 POP POP POP POP JUMP INVALID LOG2 PUSH5 0x6970667358 0x22 SLT KECCAK256 BLOBBASEFEE JUMPI DUP2 0x4F DUP15 JUMPDEST SIGNEXTEND GASPRICE 0xB1 SWAP14 SWAP9 BLOBHASH REVERT 0xC4 COINBASE 0xFC PUSH5 0xA811BC7B12 PUSH23 0x636B55613EC1C7301D64736F6C634300081E0033000000 "
		},
		"gasEstimates": {
			"creation": {
				"codeDepositCost": "466800",
				"executionCost": "infinite",
				"totalCost": "infinite"
			},
			"external": {
				"balance(address)": "2890",
				"balanceOf(address)": "2829",
				"mint(uint256)": "infinite",
				"name()": "infinite",
				"symbol()": "infinite",
				"transfer(address,uint256)": "infinite"
			}
		},
		"methodIdentifiers": {
			"balance(address)": "e3d670d7",
			"balanceOf(address)": "70a08231",
			"mint(uint256)": "a0712d68",
			"name()": "06fdde03",
			"symbol()": "95d89b41",
			"transfer(address,uint256)": "a9059cbb"
		}
	},
	"abi": [
		{
			"anonymous": false,
			"inputs": [
				{
					"indexed": false,
					"internalType": "address",
					"name": "to",
					"type": "address"
				},
				{
					"indexed": false,
					"internalType": "uint256",
					"name": "amount",
					"type": "uint256"
				}
			],
			"name": "Minted",
			"type": "event"
		},
		{
			"anonymous": false,
			"inputs": [
				{
					"indexed": false,
					"internalType": "address",
					"name": "from",
					"type": "address"
				},
				{
					"indexed": false,
					"internalType": "address",
					"name": "to",
					"type": "address"
				},
				{
					"indexed": false,
					"internalType": "uint256",
					"name": "amount",
					"type": "uint256"
				}
			],
			"name": "Transferred",
			"type": "event"
		},
		{
			"inputs": [
				{
					"internalType": "address",
					"name": "",
					"type": "address"
				}
			],
			"name": "balance",
			"outputs": [
				{
					"internalType": "uint256",
					"name": "",
					"type": "uint256"
				}
			],
			"stateMutability": "view",
			"type": "function"
		},
		{
			"inputs": [
				{
					"internalType": "address",
					"name": "a",
					"type": "address"
				}
			],
			"name": "balanceOf",
			"outputs": [
				{
					"internalType": "uint256",
					"name": "",
					"type": "uint256"
				}
			],
			"stateMutability": "view",
			"type": "function"
		},
		{
			"inputs": [
				{
					"internalType": "uint256",
					"name": "amount",
					"type": "uint256"
				}
			],
			"name": "mint",
			"outputs": [],
			"stateMutability": "nonpayable",
			"type": "function"
		},
		{
			"inputs": [],
			"name": "name",
			"outputs": [
				{
					"internalType": "string",
					"name": "",
					"type": "string"
				}
			],
			"stateMutability": "view",
			"type": "function"
		},
		{
			"inputs": [],
			"name": "symbol",
			"outputs": [
				{
					"internalType": "string",
					"name": "",
					"type": "string"
				}
			],
			"stateMutability": "view",
			"type": "function"
		},
		{
			"inputs": [
				{
					"internalType": "address",
					"name": "to",
					"type": "address"
				},
				{
					"internalType": "uint256",
					"name": "amount",
					"type": "uint256"
				}
			],
			"name": "transfer",
			"outputs": [],
			"stateMutability": "nonpayable",
			"type": "function"
		}
	]
}